:100000000C942E010C9456010C9456010C9456013C
:100010000C9456010C9456010C9456010C94560104
:100020000C9456010C9456010C9456010C94A32583
:100030000C9456010C9456010C9456010C945601E4
:100040000C94F3240C9456010C9463250C943D25D8
:100050000C9456010C9456010C9456010C945601C4
:100060000C945F260C9456016E2F61004F4B004F8D
:100070004B004F4B00646F6573206E6F7420666990
:100080007420696E204D656D6F7279004661696CF0
:100090007572652C20454550524F4D2073697A6525
:1000A00020657863656564656420004D465374651A
:1000B0007070657220646F6573206E6F742066695E
:1000C0007420696E204D656D6F7279004F75747084
:1000D0007574536869667465722061727261792003
:1000E000646F6573206E6F742066697420696E7426
:1000F0006F204D656D6F727900496E70757453682D
:10010000696674657220617272617920646F6573CB
:10011000206E6F742066697420696E746F204D655F
:100120006D6F7279004661696C757265206F6E2023
:1001300072656164696E6720636F6E66696700430C
:100140006F7265466C6967687454656368204154D2
:1001500043007E306D79335B5F707F7B771F0D3D91
:100160004F470000000000000000000000000000F9
:1001700000000000000000000000000000008001FE
:1001800080257E306D79335B5F707F7B00000009D6
:10019000000000777F4E7E4F475F37307C000E00B7
:1001A000767E677E775B463E000000336D4E1378A7
:1001B0000008007D1F0D3D4F477B3730380006009B
:1001C000151D6773055B0F1C000000276D4E00783E
:1001D0000000446576696365427566666572204F06
:1001E000766572666C6F7721004C6F6164696E672B
:1001F00020636F6E666967206661696C65640000E4
:10020000000000240027002A00000000002500282C
:10021000002B000000000023002600290004040435
:10022000040404040402020202020203030303039F
:10023000030102040810204080010204081020017C
:10024000020408102000000008000201000003045E
:10025000070000000000000000007E2711241FBEE0
:10026000CFEFD8E0DEBFCDBF12E0A0E0B1E0E2E327
:10027000F1E602C005900D92A035B107D9F728E04C
:10028000A0E5B2E001C01D92A930B207E1F711E08C
:10029000CEE2D1E004C02197FE010E94152FCD329D
:1002A000D107C9F70E9415280C9497300C940000D0
:1002B000AC011092EE069091BE078091BD07FA0145
:1002C000BF01641B750B2091EE0630813093EE0662
:1002D000931304C0921302C01092EE0630813111C4
:1002E00004C0921721F0CB0108953817D1F331964D
:1002F000E7CF0F931F93CF93DF938091B2078823AB
:1003000009F446C0D0E0C0E0813029F482E0809357
:10031000B207C2EFD6E08091B307882341F120975E
:1003200021F4C091B707D091B8078E01CE010E9489
:100330005801892B29F42196F80180818111F5CF8C
:10034000F8018081882309F1C8010E945801F80151
:10035000E80FF91F8081882311F010823196F09305
:10036000B807E093B7071093B6070093B5078091DD
:10037000B5079091B607892B59F081E08093B307B8
:10038000DF91CF911F910F91089510E000E0EBCF26
:1003900080E0F6CF0E947901882351F081E08093BC
:1003A000B3078093B4078091B5079091B60708957D
:1003B0001092B40790E080E00895833081F028F433
:1003C000813099F08230A9F008958730A9F0883003
:1003D000C9F08430B1F4809180008F7D03C080919A
:1003E00080008F7780938000089584B58F7784BDD7
:1003F000089584B58F7DFBCF8091B0008F77809377
:10040000B00008958091B0008F7DF9CFCF93DF9336
:10041000282F30E0F901EB5BFD4F8491F901EF5C8F
:10042000FD4FD491F901E35EFD4FC491CC23A1F0BF
:1004300081110E94DD01EC2FF0E0EE0FFF1FED5E59
:10044000FD4FA591B491EC91ED2381E090E009F48A
:1004500080E0DF91CF91089580E090E0FACF1F9384
:10046000CF93DF93282F30E0F901EB5BFD4F8491B0
:10047000F901EF5CFD4FD491F901E35EFD4FC491AA
:10048000CC23A9F0162F81110E94DD01EC2FF0E0A2
:10049000EE0FFF1FE75FFD4FA591B4918FB7F89462
:1004A000EC91111108C0D095DE23DC938FBFDF9152
:1004B000CF911F910895DE2BF8CFCF93DF9390E07B
:1004C000FC01EF5CFD4F2491835E9D4FFC01849104
:1004D0008823C9F090E0880F991FFC01E150FE4F7E
:1004E000A591B491FC01E75FFD4FC591D4916111D5
:1004F0000DC09FB7F8948C91209582238C938881AE
:10050000282328839FBFDF91CF910895623051F453
:100510009FB7F8943C91822F809583238C93E88138
:100520002E2BEFCF8FB7F894EC912E2B2C938FBFFF
:10053000EACF1F93CF93DF93182FEB0161E00E9466
:100540005D02209739F460E0812FDF91CF911F91F8
:100550000C942F02CF3FD10511F461E0F5CFE12FCC
:10056000F0E0EB5BFD4FE491E33031F140F4E1303A
:10057000B1F0E230E1F0C038D1057CF7E4CFE730EC
:1005800029F1E83059F1E430B1F7809180008062C0
:1005900080938000D0938B00C0938A0004C084B500
:1005A000806884BDC7BDDF91CF911F91089584B548
:1005B000806284BDC8BDF7CF809180008068809341
:1005C0008000D0938900C0938800EDCF8091B00067
:1005D00080688093B000C093B300E5CF8091B000F5
:1005E00080628093B000C093B400DDCF3FB7F89431
:1005F0008091E7049091E804A091E904B091EA04A5
:1006000026B5A89B05C02F3F19F00196A11DB11D6D
:100610003FBFBA2FA92F982F8827BC01CD01620FA9
:10062000711D811D911D42E0660F771F881F991F64
:100630004A95D1F708952FB7F8946091E30470912B
:10064000E4048091E5049091E6042FBF0895DC0155
:10065000ED91FC910190F081E02D0994EF92FF92D1
:100660000F931F93CF93DF937C016091BD0780911F
:10067000BA079091BB070E9427030091BA07109117
:10068000BB07E701FE016491662359F0D801ED91A3
:10069000FC910190F081E02DC80109952196892BEC
:1006A00089F7DF91CF911F910F91FF90EF900895FF
:1006B000AF92BF92CF92DF92EF92FF920F931F9370
:1006C000CF93DF936C017B018B01040F151FEB01AE
:1006D0005E01AE18BF08C017D10759F06991D60165
:1006E000ED91FC910190F081E02DC6010995892BD7
:1006F00079F7C501DF91CF911F910F91FF90EF9096
:10070000DF90CF90BF90AF900895FC01538D448D42
:10071000252F30E0842F90E0821B930B541710F0AC
:10072000CF96089501970895FC01918D828D9817B9
:1007300079F0A28DAE0FBF2FB11D5D962C91828DE9
:100740008F5F60E60E94F52E928F822F90E00895D1
:100750008FEF9FEF0895FC01918D828D981731F0F6
:10076000828DE80FF11D858D90E008958FEF9FEF4A
:100770000895FC01918D228D892F90E0805A9F4F22
:10078000821B910960E670E00E94012F08958CE2BF
:1007900096E00E94B90321E0892B09F420E0822F22
:1007A000089580E090E0892B29F00E94C703811111
:1007B0000C9400000895FC01A48DA80FB92FB11D61
:1007C000A358BF4F2C91848D90E001968F73992789
:1007D000848FA689B7892C93A089B1898C91837065
:1007E00080648C93938D848D981306C00288F3895E
:1007F000E02D80818F7D80830895EF92FF920F938B
:100800001F93CF93DF93EC0181E0888F9B8D8C8DBC
:1008100098131AC0E889F989808185FF15C09FB7B0
:10082000F894EE89FF896083E889F9898081837073
:10083000806480839FBF81E090E0DF91CF911F9122
:100840000F91FF90EF900895F62E0B8D10E00F5F43
:100850001F4F0F731127E02E8C8D8E110CC00FB619
:1008600007FCFACFE889F989808185FFF5CFCE01B1
:100870000E94DB03F1CFEB8DEC0FFD2FF11DE35850
:10088000FF4FF0829FB7F8940B8FEA89FB89808134
:100890008062CFCFCF93DF93EC01888D8823B9F0AE
:1008A000AA89BB89E889F9898C9185FD03C080817B
:1008B00086FD0DC00FB607FCF7CF8C9185FFF2CFF8
:1008C000808185FFEDCFCE010E94DB03E9CFDF9170
:1008D000CF910895089520916D04260F3327331F7B
:1008E00021323105ECF420911105FC0190E080E00B
:1008F000243069F082E00895A0916D042191AC014B
:10090000455B5B4FA40FB52FB11D2C930196861745
:1009100098F380916D04680F60936D0480E00895F2
:1009200081E008951092110581E0809310051092E6
:10093000EB0461E082E10E942F0261E083E10E940A
:100940002F02E9EBF0E080818E7F808380818D7FB4
:10095000808388E48093B80085E48093BC00089588
:10096000CF93DF9391E090934A048823B9F0C0912C
:10097000B800D091BA008091BC008A7B8093BC0003
:1009800060E082E10E942F0260E083E10E942F027A
:100990000E949204D093BA00C093B800DF91CF9127
:1009A00008958F929F92AF92BF92CF92DF92EF9273
:1009B000FF920F931F93CF93DF93D0913A05D132DB
:1009C00008F0D7C0182FC09139050E94F6026B01BC
:1009D0007C018091110581116BC082E0809311052B
:1009E000109310058FEF80930F0510920E05D09392
:1009F0000D05A9E1B5E0EDEEF4E080E0D81391C07B
:100A00001092EC048091EC04CC0FC82BC093EC0442
:100A10008091EB04813009F088C01092EB040E94B1
:100A2000F6026B017C018091EC048093BB00809105
:100A3000130590911405A0911505B0911605892B09
:100A40008A2B8B2BA1F00E94F602009113051091C6
:100A5000140520911505309116056C197D098E0934
:100A60009F09061717072807390708F442C0809125
:100A7000BC0083FDD8CF85EC8093BC000E94F602B9
:100A80006B017C0180911105823009F450C0809186
:100A90000F058F3F09F46FC080910F05803209F474
:100AA0006CC080910F05803309F469C084E026C0D2
:100AB0008091130590911405A0911505B09116052C
:100AC000892B8A2B8B2B09F484CF0E94F60280900D
:100AD000130590901405A0901505B09016056C199B
:100AE0007D098E099F0986169706A806B90608F0A3
:100AF00070CF809112050E94B00485E01092180515
:100B000010923A0510921705DF91CF911F910F9126
:100B1000FF90EF90DF90CF90BF90AF909F908F901D
:100B200008959D9191938F5F69CF85EEA5CF8091B8
:100B3000130590911405A0911505B0911605892B08
:100B40008A2B8B2B09F49ECF0E94F602009113058D
:100B50001091140520911505309116056C197D0929
:100B60008E099F09061717072807390708F08ACF4B
:100B7000C0CF81E0C3CF80E0C1CF82E0BFCF83E0B0
:100B8000BDCF81E00C94D104089508950895E091BB
:100B9000490480914804E81730F4F0E0E85DFB4F29
:100BA000808190E008958FEF9FEF08959091490420
:100BB000809148042FEF3FEF981748F4E92FF0E0B9
:100BC000E85DFB4F208130E09F5F90934904C901AD
:100BD00008958091480490914904891B990B0895C8
:100BE000CF92DF92EF92FF920F931F93CF93DF93F9
:100BF0007C01CB018A0120911705222389F0EB01AA
:100C00006B01C40ED51ECC15DD0569F06991D701C5
:100C1000ED91FC910190F081E02DC7010995F3CF92
:100C2000642F0E946B04C801DF91CF911F910F9137
:100C3000FF90EF90DF90CF900895CF93DF931F92B6
:100C4000CDB7DEB76983209117052223F9F02091F3
:100C50003A05203258F021E030E0FC013383228352
:100C600090E080E00F90DF91CF910895809118057A
:100C7000E82FF0E0E75EFA4F998190838F5F8093D1
:100C8000180580933A0581E090E0ECCF61E0CE0159
:100C900001960E946B04F7CFCF93C82F682F646032
:100CA00087E196E00E941D066C2F70E06B7F87E164
:100CB00096E0CF910C941D060F931F93CF93DF9373
:100CC0008C01C62FD42FFC01848191E090931705ED
:100CD000809339051092180510923A05862F807F6F
:100CE000842B9585892B0E944C06F0E1CF9FC00193
:100CF0001124F8019585892B8D2B0E944C06DF91DC
:100D0000CF911F910F910C94C105CF93DF93CDB775
:100D1000DEB728970FB6F894DEBF0FBECDBF28E030
:100D2000EFE3F1E0DE01119601900D922A95E1F7D3
:100D3000FC012385241710F44FEF420F50E0440FBD
:100D4000551F21E030E02C0F3D1F420F531FFA01C9
:100D50002081620F606840E028960FB6F894DEBFED
:100D60000FBECDBFDF91CF910C945C06CF93DF9384
:100D7000EC0140E061E00E945C068BE39FE101979B
:100D8000F1F78985882339F040E060E0CE01DF91FA
:100D9000CF910C948506DF91CF91089541E00E9498
:100DA0005C0681E090E00895FC01248131E03093FD
:100DB0001705209339051092180510923A05607FA7
:100DC0008585862B0E944C060C94C105AF92BF927C
:100DD000CF92DF92EF92FF920F931F93CF93DF9307
:100DE0006C01FC01848191E0909317058093390593
:100DF0001092180510923A05EB01042F10E05B01E8
:100E0000A00EB11EF12CEE24E394CA15DB0541F1CE
:100E10008991F60195859160807F892B0E944C060F
:100E2000FE0131972081F0E12F0290011124F6019B
:100E300085858160822B0E944C06F394F7E0FF15B4
:100E400020F780E00E94D104F6018481E09217052A
:100E5000809339051092180510923A05F12CD5CFE0
:100E60000E94C105C8010197DF91CF911F910F9199
:100E7000FF90EF90DF90CF90BF90AF90089590E0FB
:100E800080E00895CF93DF93FC012381222359F161
:100E9000EC0161E084810E945D0261E08D810E942D
:100EA0005D028B81843011F08830B1F461E08E8175
:100EB0000E945D0261E08F810E945D028FA58F3FDD
:100EC00091F061E00E945D026EA581E068278FA528
:100ED000DF91CF910C942F02833011F0863071F79F
:100EE00061E08E81E9CFDF91CF910895CF93DF93B9
:100EF000FC0123812223A9F0EC010190F081E02D77
:100F00000480F581E02D60E009958FA58F3F49F0C1
:100F100061E00E945D026EA58FA5DF91CF910C94D8
:100F20002F02DF91CF910895DC01ED91FC91248196
:100F30003581477055276627772741505109610948
:100F40007109473051056105710560F4FA01E555F5
:100F5000F84F0C94152FB507B707B907BB07BD07A6
:100F6000BF07C10761E0F901099465E0FCCF64E0C7
:100F7000FACF66E0F8CF62E0F6CF6AE0F4CF68E03F
:100F8000F2CF69E0F0CFCF93DF93EC01CB01BA0150
:100F900026E030E040E050E00E94822E6230710591
:100FA0008105910589F16CF4611571058105910543
:100FB000D1F06130710581059105F9F0DF91CF9194
:100FC0000895643071058105910561F124F1653062
:100FD00071058105910591F7E881F9810480F5811A
:100FE000E02D66E006C0E881F9810480F581E02DFE
:100FF00064E0CE01DF91CF910994E881F98104800A
:10100000F581E02D65E0F5CFE881F9810480F58177
:10101000E02D61E0EECFE881F9810480F581E02DDB
:1010200063E0E7CFE881F9810480F581E02D62E09B
:10103000E0CFDC01ED91FC910480F581E02D43705F
:10104000552766277727423051056105710571F0F4
:10105000433051056105710559F041305105610575
:10106000710511F065E0099466E0FDCF6AE0FBCF01
:1010700069E0F9CFCF93DF93EC01CB01BA0123E014
:1010800030E040E050E00E94822E61307105810521
:10109000910599F06230710581059105A9F0672BE2
:1010A000682B692BC1F4E881F9810480F581E02D7A
:1010B00064E0CE01DF91CF910994E881F981048049
:1010C000F581E02D61E0F5CFE881F9810480F581BB
:1010D000E02D62E0EECFDF91CF910895DC01ED913C
:1010E000FC910480F581E02D437055276627772712
:1010F000423051056105710571F0433051056105BC
:10110000710559F0413051056105710511F062E03A
:10111000099463E0FDCF61E0FBCF60E0F9CFCF93AE
:10112000DF93EC01E881F9810480F581E02D8A816B
:1011300060E0811162E0CE010995E881F9810480C7
:10114000F581E02D8A8161E0811163E0CE0109958E
:101150008CA59DA58230910538F0880F991F880FC6
:10116000991F05970197F1F7E881F9810480F581CE
:10117000E02D8A8160E0811162E0CE01DF91CF91A4
:101180000994CF93DF93EC0120E030E0A9016C8952
:101190007D898E899F890E94303018162CF4E8A929
:1011A000F9A9DF91CF910994EAA9FBA9FACFCF92CF
:1011B000DF92EF92FF920F931F93CF93DF93DC01A7
:1011C0001396CC91C43039F0C83059F1C33019F0BE
:1011D000C63049F1C2E08C010C5F1F4FF12CE12CAD
:1011E000C62ED12CD1E0F8016481C6010E2C02C0BC
:1011F000959587950A94E2F780FD6D270F5F1F4F45
:1012000080810E942F02BFEFEB1AFB0AEC1658F305
:10121000DF91CF911F910F91FF90EF90DF90CF90D2
:101220000895C4E0D8CFC3E0D6CFDC011396EC918B
:101230001397E93008F038C0F0E0EF5DF64F0C94FA
:10124000152F2A09300936093C0942095409480971
:1012500054094E09ED91FC910084F185E02D09942B
:10126000ED91FC910284F385E02DF9CFED91FC9195
:101270000484F585E02DF3CFED91FC910684F7858C
:10128000E02DEDCFED91FC910088F189E02DE7CFC5
:10129000ED91FC910288F389E02DE1CFED91FC9175
:1012A0000488F589E02DDBCF08954F925F926F920D
:1012B0007F928F929F92AF92BF92CF92DF92EF92E6
:1012C000FF920F931F93CF93DF93EC01C888D988C7
:1012D000EA88FB888C859D85AE85BF85C81AD90AAA
:1012E000EA0AFB0A6C897D898E899F899B01AC0182
:1012F0000E94AE2D4B015C016C8D7D8D8E8D9F8D7E
:101300009B01AC010E941C2F9B01AC01C501B401E3
:101310000E94882F0E94FA2FC114D104E104F10425
:1013200009F0B1C062307105810591050CF0CBC0A8
:101330001CA21DA21EA21FA21C8A1D8A1E8A1F8A11
:101340001CAA1DAA1EAA1FAADF91CF911F910F915F
:10135000FF90EF90DF90CF90BF90AF909F908F90D5
:101360007F906F905F904F900895101611061206AF
:101370001306B4F46C157D058E059F051CF42A81B7
:101380002111A1C09B01AC0188279927DC01821B98
:10139000930BA40BB50B8CAB9DABAEABBFAB93C0AB
:1013A000011511052105310509F48DC06C157D0568
:1013B0008E059F050CF087C08A81882309F483C0BD
:1013C00030952095109501951F4F2F4F3F4F0CAB37
:1013D0001DAB2EAB3FAB77C00115110521053105C3
:1013E00009F471C08824992454018C189D08AE0812
:1013F000BF08681579058A059B050CF064C08A81D1
:10140000811161C0DDCFCCACDDACEEACFFACA7018F
:101410009601C701B6010E941C2F2B013C01C5019A
:10142000B4010E944F2D20E030E040E850E40E94DB
:10143000AE2D20E030E040E85FE30E941C2F9B01CE
:10144000AC01C301B2010E94882F9B01AC01C7010E
:10145000B6010E941B2F3B016C01FE01E05CFF4FB7
:10146000E080F180028113819701A8010E94303051
:10147000181614F473018601C701D8018CAF9DAF13
:10148000AEAFBFAF3AC00CA91DA92EA93FA91C142D
:101490001D041E041F040CF468CF1016110612065A
:1014A00013060CF099CF0027112798010C191D097C
:1014B0002E093F0960177107820793070CF062CF6E
:1014C0002A8121115FCF8CA89DA8AEA8BFA8811446
:1014D0009104A104B10409F096CF88AD99ADAAADED
:1014E000BBAD8CAF9DAFAEAFBFAF81E01C141D0490
:1014F0001E041F040CF080E08A833FEF831A930AD6
:10150000A30AB30A8CAA9DAAAEAABFAACCACDDAC32
:10151000EEACFFACC701B6010E9401306CA37DA305
:101520008EA39FA3A701960160E074E284E799E48B
:101530000E94882F6C8B7D8B8E8B9F8B2A81211133
:1015400003CF90586C8B7D8B8E8B9F8BFDCECF9273
:10155000DF92EF92FF920F931F93CF93DF93EC01F3
:101560006A017B0120E030E0A901CB01B6010E94B5
:10157000482D87FF04C0F7FAF094F7F8F094A7011C
:101580009601688D798D8A8D9B8D0E94482D8823C8
:1015900009F446C0C88ED98EEA8EFB8E8E01005C9F
:1015A0001F4FA701960160E074E284E799E40E946E
:1015B000882FF80160837183828393838CA99DA90E
:1015C000AEA9BFA9181619061A061B064CF56C8998
:1015D0007D898E899F899B01AC010E94AE2D6B0194
:1015E0007C016C8D7D8D8E8D9F8D9B01AC010E9449
:1015F0001C2F9B01AC01C701B6010E94882F0E94DD
:10160000FA2F6CAB7DAB8EAB9FABCE01DF91CF9150
:101610001F910F91FF90EF90DF90CF900C945509A0
:10162000DF91CF911F910F91FF90EF90DF90CF90BE
:1016300008958F929F92AF92BF92EF92FF920F9375
:101640001F93CF937C018B01C42F0E941B03F801D1
:1016500080809180A280B380DC01CB018819990938
:10166000AA09BB094C2F50E070E060E08417950791
:10167000A607B70748F0F70109950E941B03F80178
:101680006083718382839383CF911F910F91FF9029
:10169000EF90BF90AF909F908F9008952091260477
:1016A00030912704280F391F81E0253A314008F096
:1016B00080E00895FC0180818823F9F084818823EB
:1016C000E1F08181811119C081E081838281938160
:1016D000FC014089518962897389403659476E4FB0
:1016E0007F4F59F040E659E76EEF7FEFFC01408BEA
:1016F000518B628B738B0C94550908954F925F92B6
:101700006F927F928F929F92AF92BF92CF92DF9211
:10171000EF92FF920F931F93CF93DF93D12CA7E10A
:10172000CA2E08E810E0B8E5EB2EB2E0FB2EC4EBC1
:101730004C2E512C612C712C80918102D81608F00E
:1017400096C0C0917F02D0918002DC9CC00DD11D5B
:10175000112489899A89AB89BC894D855E856F85FD
:10176000788984179507A607B70709F47AC0481740
:1017700059076A077B070CF076C00197A109B109E8
:10178000898B9A8BAB8BBC8BA989BA89A03282E0FA
:10179000B807ACF52B854801821A910827FD939470
:1017A000880C991C880C991C092C000CAA08BB08F1
:1017B0002C85C701821B910927FD93959C01220F5F
:1017C000331F220F331F032E000C440B550B281917
:1017D00039094A095B09A53BB10514F0A4EBB0E057
:1017E000B7FF02C0B0E0A0E00E94AC2EA3019201BE
:1017F0000E94822E820E931EA41EB51ED401EA857D
:10180000EC3078F52B85C801821B910927FD939553
:101810009C01220F331F220F331FA217B3077CF046
:101820002C85C701821B910927FD93959C01220FEE
:10183000331F220F331FA217B3070CF49D01225050
:101840003109220F331F4FB7F8948E2F90E0FC011F
:10185000EE0FFF1FE80FF91FEE56FB4F3283218377
:101860004FBFD39469CF0196A11DB11D89CFDF91E0
:10187000CF911F910F91FF90EF90DF90CF90BF908D
:10188000AF909F908F907F906F905F904F90089552
:101890008BE891E00197F1F70895EF92FF920F9393
:1018A0001F93CF93DF93EC01162FE42EFF24F394C4
:1018B000442311F080E8F82E08E061E08A810E945C
:1018C0005D020E94480C61E08F2D812309F060E0E9
:1018D00089810E945D020E94480C60E08A810E941A
:1018E0005D020E94480CEE2081F1110F015029F792
:1018F00061E08A810E945D0260E089810E945D0250
:101900000E94480C60E08A810E945D020E94480C9F
:1019100089810E940602182F811104C061E089812B
:101920000E945D020E94480C61E08A810E945D0273
:101930000E94480C81E0111101C080E0DF91CF913D
:101940001F910F91FF90EF9008951695CFCFCF93F1
:10195000DF93EC0161E089810E945D020E94480CE6
:1019600060E08A810E945D020E94480C60E08981EB
:101970000E945D02DF91CF910C94480C61E0FC0164
:1019800081810E945D020C94480CAF92BF92CF926D
:10199000DF92EF92FF920F931F93CF93DF93EC01AF
:1019A000162F042FAC880E94BE0C40E060E4CE01EC
:1019B0000E944D0CCE010E94A70C10958C89180F27
:1019C000C02ED12CE12EF12C84E0B12EA81631F0DE
:1019D000F601EE0DFF1DE158FE4FB080CE010E94D2
:1019E000BE0C60EC6B0D40E0CE010E944D0C8C896A
:1019F000CE0CDF1C8C151D0414F4082F011B10E005
:101A0000DD24DA94D00EEC0EFD1E011781F084E087
:101A1000ED2DE11BA81201C0E12FEE0DFF2DF11DF0
:101A200041E06481CE010E944D0C1F5FEECFCE01DC
:101A3000DF91CF911F910F91FF90EF90DF90CF90AA
:101A4000BF90AF900C94A70CEF92FF921F93CF938F
:101A5000DF93EC01162F8C8180FF10C0603170F491
:101A60006D837E0184E0E80EF11C612F6170899125
:101A70000E942F021695EC16FD06B9F7DF91CF9163
:101A80001F91FF90EF900895DC01842FE091760282
:101A9000F0917702309719F04D915C910994089577
:101AA0004F925F926F927F928F929F92AF92BF926E
:101AB000CF92DF92EF92FF920F931F93CF93DF931A
:101AC000F12C6FE1E62E80917202F81608F0EAC060
:101AD000C0917002D0917102FE9CC00DD11D1124E5
:101AE0008A81882309F4B2C088810E9406028C0191
:101AF00089810E9406026C010E941B034B015C015C
:101B000081E090E0CD2811F090E080E0880F991FEF
:101B100021E0012B09F020E0922F982B4B8D5C8D5A
:101B20006D8D7E8D95018401041B150B260B370BE3
:101B3000B901A801453651056105710508F488C051
:101B40008885823008F484C08B8E9C8EAD8EBE8ECC
:101B500081508887EE859E1709F445C0888503E388
:101B600010E0873010F401E010E06D8524E0E2021F
:101B7000F0011124492F092E000C550BE42BF52BF5
:101B8000E059FE4F708170039001719F300D112458
:101B9000062E02C0220F331F0A94E2F7EF85F88960
:101BA0002E0F3F1F388B2F874C0F5D1FFA01418589
:101BB0004423C1F04B885C886D887E884F8A588E9C
:101BC000698E7A8E8B8A9C8AAD8ABE8A02C03595D0
:101BD00027956A95E2F73A8B298B8C3008F08BE0D9
:101BE0008F5F88879E8709891A898D819E81081752
:101BF000190761F19801281B390BC901E0916E02A8
:101C0000F0916F026901CC0CDD1C309709F447C0DC
:101C10006B817C812F5C3F4F23363105D0F597FDDA
:101C20002FC080E00995C00ED11E31E4C3163FE1FC
:101C3000D30654F08F85988983709927988B8F8766
:101C40001A8A198A10E000E01E830D83F3943BCFBB
:101C50004F89588D698D7A8D95018401041B150B70
:101C6000260B370BB901A801453F514061057105AD
:101C700008F470CF8B8E9C8EAD8EBE8E18866ACF88
:101C800082E00995C8018C199D09803C904E94F220
:101C9000DBCF97FD02C081E0C5CF83E0F2CF37FDF7
:101CA000F1CFC1CFDF91CF911F910F91FF90EF90B6
:101CB000DF90CF90BF90AF909F908F907F906F906C
:101CC0005F904F900895CF92DF92EF92FF920F9323
:101CD0001F93CF93DF936C017A0180916C029091F6
:101CE0006D02892B31F1D60113968C9100E181FDB3
:101CF00008E0EB01CE25DF2510E0C0FF13C0809186
:101D00006C0290916D02892B69F0E0916A02F0916A
:101D10006B02309739F0D6014D915C91612F8E2D79
:101D200081700995D695C795F694E7941F5F0113C6
:101D3000E4CFDF91CF911F910F91FF90EF90DF9053
:101D4000CF900895AF92BF92CF92DF92EF92FF9221
:101D50000F931F93CF93DF931F92CDB7DEB7C09041
:101D60006C02D0906D02C114D10409F43FC0FC0193
:101D7000238130E1B32E21FF02C028E0B22EA62E2F
:101D80008C01F60185818683F12CE12CBA946B2DB0
:101D9000C6010E94240DF80182810E9406028983F7
:101DA000F80182810E9406028983EE0CFF1C2981C2
:101DB00081E090E0211102C090E080E0E82AF92A59
:101DC000B110E4CFF6016681C6010E94240DF8012E
:101DD000648175816E157F0549F0AA2021F0A70165
:101DE000C8010E94630EF801F582E4820F90DF9132
:101DF000CF911F910F91FF90EF90DF90CF90BF9008
:101E0000AF900895CF93DF93C0E0D6E08091690250
:101E1000C81768F4809167029091680261E0CD9FD5
:101E2000800D911D11240E94A20ECF5FEFCFDF9194
:101E3000CF910895E0916502F0916602309751F0DC
:101E4000DC0113962C911397222321F06D917C9144
:101E500081E009940895E0916502F091660230975F
:101E600051F0DC0113962C911397211104C06D9150
:101E70007C9180E0099408950F931F93CF93DF9393
:101E800010E005E080916402181730F5C0916202FD
:101E9000D0916302109FC00DD11D11248C81882325
:101EA00099F08A810E9406029B81891769F091E06E
:101EB000811101C090E09B839C81811107C099230F
:101EC00019F0CE010E942B0F1F5FDCCF9923E1F3A5
:101ED000CE010E941A0FF8CFDF91CF911F910F9181
:101EE0000895FC01A08DB0E01396AA0FBB1FA80FA8
:101EF000B91F868997892D913C91821B930B978BF3
:101F0000868B82818E3008F08E508770806480933B
:101F10007C0080917A00806480937A0080917A00BE
:101F200086FDFCCF8091780090917900A08DB0E083
:101F30001396AA0FBB1FAE0FBF1F8D939C93A08D4E
:101F4000B0E01396AA0FBB1FAE0FBF1F86899789FB
:101F50002D913C91820F931F978B868B808D8F5F85
:101F6000808F808D8770808F0895CF93DF93C0E03E
:101F7000DEE180916102C81778F480915F02909150
:101F80006002CD9F800D911D1124FC01258D211132
:101F90000E94710FCF5FEDCFDF91CF910895CF9366
:101FA000DF93C0E0DEE180916102C817C8F5A0911F
:101FB0005F02B0916002CD9FA00DB11D11245D960E
:101FC0008C915D97882351F156968D919C915797EE
:101FD00023E0969587952A95E1F713962D913C91EC
:101FE0001497AC01421B530B9A0157FF03C0319564
:101FF0002195310915964C9115974217130609F052
:102000006CF414969C938E931397E0915D02F0917B
:102010005E02309719F06D917C910995CF5FC3CF27
:10202000DF91CF9108950E947901882359F081E0D2
:102030008093B3078093B4078091B5079091B6075A
:102040000C94BA2C1092B40790E080E00895CF93DE
:102050000E941310C82F0E94131061E08F3F91055A
:1020600019F0009729F460E08C2FCF910C942F0287
:10207000BC018C2FCF910C9499020E941310909167
:10208000C504891768F42091C3043091C404A901E0
:102090006EE0869F400D511D1124CA010C945A0B0D
:1020A00008950F931F930E9413109091C5048917F0
:1020B00008F04DC0E091C304F091C4049EE0899FF4
:1020C000E00DF11D11248081882309F440C0A28114
:1020D000B3811C961D921D921D921C921F975096C3
:1020E0001D921D921D921C925397D4961D921D9283
:1020F0001D921C92D79794961D921D921D921C9230
:10210000979754961D921D921D921C925797848505
:102110008823E9F082819381428550E05195419571
:102120005109052E000C660B770BFC010089118903
:1021300022893389401751076207730741F0408BAA
:10214000518B628B738B1F910F910C9455091F91CA
:102150000F9108958F929F92AF92BF92CF92DF928C
:10216000EF92FF921F93CF93DF930E9413107C0195
:102170000E941310BC01809181028E151F0409F08A
:102180000CF4A8C027E12E9DC0012F9D900D1124B5
:10219000C0917F02D0918002C80FD91FCD80DE8010
:1021A0000D2C000CEE08FF0889809A80092C000C89
:1021B000AA08BB082F813885032E000C440B550B51
:1021C0002C193D094E095F09072E000C880B990B4D
:1021D000681979098A099B090E94E52E2B813C81A7
:1021E000032E000C440B550B281939094A095B09C9
:1021F0000E94822EBA01A9014C0D5D1D6E1D7F1D2E
:10220000052E000C660B770B8D859E85AF85B889F2
:1022100084179507A607B70709F45CC04D875E874A
:102220006F87788B8985811155C08A858C3008F03D
:102230004FC0188161E0812F0E945D028A85282F9E
:1022400030E0F901EE0FFF1FE20FF31FEE56FB4FD8
:102250001F739081907C912B90831B861C862CE0B1
:10226000622F0E94F52E829FB001112430E020E001
:10227000AB01420F531FFA01EE0FFF1FE40FF51FD2
:10228000EE56FB4F908196FD16C02F5F3F4F2C30CE
:10229000310571F781110FC01092800082E08093A8
:1022A00081001092850010928400B19A80916F0095
:1022B000826080936F00EA858E2F90E0FC01EE0F24
:1022C000FF1FE80FF91FEE56FB4F8081806480836B
:1022D00081E08987DF91CF911F91FF90EF90DF9090
:1022E000CF90BF90AF909F908F900895EF92FF9204
:1022F0000F931F93CF93DF930E9413108C010E94C2
:10230000CA017C01EC01FC01DE018081882349F0D7
:102310009091BE07891301C03196808189933196CF
:10232000F3CFAE17BF0710F41D92FBCF22E1209F21
:10233000C001219F900D1124C0917802D0917902A3
:10234000C80FD91F8E858823A1F010E089898117D5
:1023500081F0412F60E0CE010E9485064889B701D7
:10236000149F600D711D1124CE010E94E6061F5FAF
:10237000EDCFDF91CF911F910F91FF90EF900895D6
:102380000E941310892B49F01092BD041092BE04D4
:102390001092BF041092C00408950E941B03609322
:1023A000BD047093BE048093BF049093C00408954D
:1023B000CF92DF92EF92FF920F931F93CF93DF9311
:1023C000EC0160E088810E942F020B8110E0011572
:1023D000110501F1EC81FD81E00FF11F3197E080E3
:1023E000D980CA8088E0F82E6E2D661F6627661F8A
:1023F0008C2D0E942F02EE0C61E08D2D0E942F0289
:1024000060E08D2D0E942F02FA94F110EDCF015063
:102410001109DDCF61E08881DF91CF911F910F918C
:10242000FF90EF90DF90CF900C942F029F92AF928D
:10243000BF92CF92DF92EF92FF920F931F93CF93B1
:10244000DF93EC01C62E61E08B810E942F0261E0D8
:102450008A810E942F0210E08D81181708F044C075
:10246000DB80BC8087E0E82EF12C00E061E08D2D60
:102470000E942F028B2D0E9406020E2C01C0880F95
:102480000A94EAF7082B60E08D2D0E942F0281E06C
:10249000E81AF10858F7A12EB12CEF81F885EA0D62
:1024A000FB1DD080D016F1F0CC20B9F0912E990C04
:1024B000990C990CE02EF12C8D2D8E2580FF07C0F4
:1024C0004E2D4170692D6F0DCE010E94440DD694A2
:1024D000E694F39488E0F812EFCFEF81F885EA0DE7
:1024E000FB1D00831F5FB8CF60E08A81DF91CF9131
:1024F0001F910F91FF90EF90DF90CF90BF90AF9022
:102500009F900C942F02CF93DF93C0E0D9E080918D
:102510007502C81768F4809173029091740261E0AB
:10252000CD9F800D911D11240E941612CF5FEFCF19
:10253000DF91CF910895AF92BF92CF92DF92EF9249
:10254000FF920F931F93CF93DF93C0E0D5E080916C
:102550006402C81778F48091620290916302CD9F63
:10256000800D911D1124FC01248121110E941A0F5C
:10257000CF5FEDCFC0E0D5E080916402C81778F45A
:102580008091620290916302CD9F800D911D112474
:10259000FC01248121110E942B0FCF5FEDCF10E0B1
:1025A00059E0C52E80917502181708F056C0C091E9
:1025B0007302D09174021C9DC00DD11D112460E0E6
:1025C000CE010E941612D12CF12CE12C8D818E159A
:1025D0001F04E9F0E4F0EF81F885EE0DFF1D808126
:1025E00000E0A82EB12C80FF06C041E06D2D600FE9
:1025F000CE010E94440DB594A7948A2D0F5F083038
:1026000081F7FFEFEF1AFF0A88E0D80EDFCFD12C59
:10261000F12CE12C8D818E151F04E9F0E4F0EF819F
:10262000F885EE0DFF1D808100E0A82EB12C80FD05
:1026300006C040E06D2D600FCE010E94440DC50123
:10264000959587950F5F083081F7EFEFEE1AFE0A38
:10265000F8E0DF0EDFCF1F5FA5CF10E006E080912E
:1026600069021817E0F4C0916702D0916802109FC8
:10267000C00DD11D112460E0CE010E94A20E4C813C
:102680005D8170E060E0CE010E94630E4C815D814F
:102690006FEF7FEFCE010E94630E1F5FE0CFC0E0BF
:1026A000DEE180916102C81728F5A0915F02B09128
:1026B0006002CD9FA00DB11D11245D968C915D9798
:1026C0008823B1F056968D919C91579723E096956B
:1026D00087952A95E1F714969C938E931397E09132
:1026E0005D02F0915E02309719F06D917C91099531
:1026F000CF5FD7CFDF91CF911F910F91FF90EF90D8
:10270000DF90CF90BF90AF90089520912A0630912E
:102710002B068217930710F40C946C2E80E008951A
:102720000F931F93CF93DF938C01EB01F80180810E
:1027300091819C012F5F3F4F318320830E9485133D
:1027400028813981A9014F5F5F4F59834883255CF8
:102750003A4FF9018083288139812C3D310560F49D
:102760008A3321F7265C3A4FF901108281E0DF912C
:10277000CF911F910F91089580E0F9CFEF92FF92D2
:102780000F931F93CF93DF93EC01E0902A06F09014
:102790002B06888199818C010F5F1F4F1983088355
:1027A0000E948513E016F10650F08A3391F781E01C
:1027B000DF91CF911F910F91FF90EF90089580E0EE
:1027C000F7CFAF92BF92CF92DF92EF92FF920F932B
:1027D0001F93CF93DF9300D000D0CDB7DEB75C015D
:1027E00019821A821B821C82CE0101967C0110E0A4
:1027F00000E06C01F501808191819C012F5F3F4FCA
:10280000318320830E948513F7018083F8018E3283
:1028100041F00F5F1F4F8FEFE81AF80A04301105DF
:1028200049F7EC0DFD1D1082C6010E94BA2C0F90D5
:102830000F900F900F90DF91CF911F910F91FF900C
:10284000EF90DF90CF90BF90AF900895FB01019083
:102850000020E9F73197AF01461B570BDC01ED91E2
:10286000FC910280F381E02D09948091E906882390
:10287000A1F06091BC078091BA079091BB070E94BC
:1028800027038091F106882341F064EC71E0809188
:10289000BA079091BB070E9426141092F00610927E
:1028A000E90680E008958F929F92AF92BF92EF92D7
:1028B000FF920F931F93CF93DF93CDB7DEB7A1970E
:1028C0000FB6F894DEBF0FBECDBF7C01FA01CB017D
:1028D00019A2223008F42AE08E010F5D1F4F822ECC
:1028E000912CB12CA12CBF01A50194010E94B42E02
:1028F000F901CA016A300CF5605DD8016E938D0153
:10290000232B242B252B79F790E080E0109721F0E2
:10291000BD01C7010E942614A1960FB6F894DEBF30
:102920000FBECDBFDF91CF911F910F91FF90EF9020
:10293000BF90AF909F908F900895695CDECFCF934A
:102940009091E9069923A9F0C82F6091BD07809165
:10295000BA079091BB070E9427034C2F50E070E00C
:1029600060E02AE08091BA079091BB07CF910C9468
:102970005314CF9108959091E906911110C091E000
:102980009093E9069093F006482F50E070E060E0E5
:102990002AE08091BA079091BB070C9453140895D4
:1029A000CF93DF939091E90691110EC0EB010E9445
:1029B000BB148091E906882319F0CE010E942E03F2
:1029C000DF91CF910C94351480E0DF91CF91089581
:1029D0000E941B036093BD047093BE048093BF04E8
:1029E0009093C00468E670E085E00C94D0140F93D7
:1029F0001F93CF93DF931092640210927202109291
:102A0000BC0490917C02E0917D02F0917E0280E016
:102A1000981721F0168A8F5F7796FACF10927C0272
:102A200030918102A0917F02B091800220E03217A4
:102A3000D1F019968C911997882391F01A96EC9100
:102A40001A978E2F90E0FC01EE0FFF1FE80FF91F81
:102A5000EE56FB4F80818F7B808319961C921997CD
:102A60002F5F5796E4CF109281029091C504E091B8
:102A7000C304F091C40480E0981721F010828F5FA6
:102A80003E96FACF1092C50490915702E0917802D9
:102A9000F091790280E0981731F026852111168691
:102AA0008F5F7296F8CF1092570210926102909148
:102AB0005A02E0917A02F0917B0280E0981721F0AF
:102AC00016828F5F3796FACF10925A029091750254
:102AD000E0917302F091740280E0981721F0168261
:102AE0008F5F3996FACF1092750210E006E0809160
:102AF00069021817A0F4C0916702D0916802109F74
:102B0000C00DD11D11248B8180FF07C062E08A8136
:102B10000E945D028B818E7F8B831F5FE8CF1092B6
:102B200069021092B9041092B8041092C204109273
:102B30002704109226046CE670E085E0DF91CF91C7
:102B40001F910F910C94D0146FE670E08FE00C94FD
:102B5000D0142091260430912704820F931F909364
:102B6000270480932604843A914040F062ED71E09E
:102B700085E00E94D01490E080E00895C9018E574E
:102B80009D4F089581E08093C20462E770E081E187
:102B90000C94D014CF93DF938AE00E94BB148091F1
:102BA000B8049091B904892B91F18BE390E00E94D5
:102BB0008513C82F8091E906882379F06091BD07BD
:102BC0008091BA079091BB070E9427036C2F8091D8
:102BD000BA079091BB070E942703C1E0D0E0809123
:102BE000B8049091B904C817D90788F4CE01CB96E0
:102BF0000E9485139091E906992339F0682F8091FE
:102C0000BA079091BB070E9427032196E8CFDF9176
:102C1000CF910C943514CF93DF932091E9062223B2
:102C2000A1F0EC016091BD078091BA079091BB07BC
:102C30000E942703209749F0BE018091BA07909126
:102C4000BB07DF91CF910C942614DF91CF910895AB
:102C50000F931F93CF93DF93C82FD62F8A018DE157
:102C60000E94BB14C8010E940B168D2F0E949F1456
:102C70008C2F0E949F14DF91CF911F910F910C9484
:102C800035140F931F93CF93C82F8B0186E00E94BA
:102C9000BB14C8010E940B168C2F0E949F14CF9169
:102CA0001F910F910C9435140F931F93CF93DF93C3
:102CB000C82FD62F8A018EE10E94BB14C8010E9442
:102CC0000B168D2F0E949F148C2F0E949F14DF9152
:102CD000CF911F910F910C9435140F931F93CF93A5
:102CE000C82F8B0187E00E94BB14C8010E940B16FD
:102CF0008C2F0E949F14CF911F910F910C9435142B
:102D0000CF92DF92EF92FF92CF93DF936C01EB01B2
:102D10008CE10E94BB14CE010E940B168091E90643
:102D2000882321F16091BD078091BA079091BB077C
:102D30000E942703C091BA07D091BB070D2C000C4D
:102D4000EE08FF082AE0B701A601F7FE0CC06DE20D
:102D5000CE010E94270344275527BA014C195D096B
:102D60006E097F092AE0CE010E945314DF91CF91B2
:102D7000FF90EF90DF90CF900C943514CF93DF93BA
:102D8000EC0185E00E94BB14CE010E940B168091DD
:102D9000E906882321F085E790E00E942E03DF9169
:102DA000CF910C943514FB0101900020E9F7319785
:102DB000AF01461B570BDC01ED91FC910284F385BA
:102DC000E02D0994CF92DF92EF92FF920F931F9321
:102DD000CF93DF938C01EB01FC01D0886D2D70E067
:102DE000FE0101900020E9F7CF0101978C1B9D0B9C
:102DF00086179707B0F4681B790B76956795D82EE0
:102E0000C8010E948506CC2EEC2EFD2E8E2D8C192D
:102E10008D1548F4F70161917F01C8010E94CE062B
:102E2000F5CF60E0EDCFDF91CF911F910F91FF9033
:102E3000EF90DF90CF90089585ED8093BC00809156
:102E4000130590911405A0911505B09116050796EC
:102E5000A11DB11D23E0B695A795979587952A9555
:102E6000D1F72091BC0024FD03C0109211050895F4
:102E70004091130550911405609115057091160548
:102E8000452B462B472B69F30097A105B10541F06F
:102E90002AE22A95F1F700C00197A109B109E1CF13
:102EA000809112050C94B0044F925F926F927F92C2
:102EB0008F929F92AF92BF92CF92DF92EF92FF924A
:102EC000CF93DF93EC016A017B0120E030E0A901A0
:102ED000CB01B6010E94482D87FF04C0F7FAF09499
:102EE000F7F8F0948C8C9D8CAE8CBF8CA70196016A
:102EF000C501B4010E94482D882309F449C06CA97A
:102F00007DA98EA99FA90E944F2D2B013C01A701ED
:102F10009601C501B4010E94882F9B01AC01C30139
:102F2000B2010E94AE2D0E94FA2F6CAB7DAB8EAB2E
:102F30009FABA701960160E070E080E090E40E9402
:102F4000882F0E943B3026E53EE04DE25FE30E9481
:102F5000AE2D20E034E244E759E40E94AE2D68AF84
:102F600079AF8AAF9BAFCC8EDD8EEE8EFF8ECE0119
:102F7000DF91CF91FF90EF90DF90CF90BF90AF9017
:102F80009F908F907F906F905F904F900C94550919
:102F9000DF91CF91FF90EF90DF90CF90BF90AF90F7
:102FA0009F908F907F906F905F904F900895EF92D9
:102FB0000F93CF93DF93EC018AE891E099838883A4
:102FC0006B831C861D861E861F86188A198A1A8A9C
:102FD0001B8A1C8A1D8A1E8A1F8A80E090E0A0E856
:102FE000BFE3888F998FAA8FBB8F1C8E1D8E1E8E7C
:102FF0001F8E88A399A3AAA3BBA31CA21DA21EA2D5
:103000001FA261E070E07DA76CA73FEF3FA718A665
:1030100019A61AA61BA64C832D830E83EF821EA62B
:103020001CAA1DAA1EAA1FAA18AE19AE1AAE1BAE64
:103030001CAE1DAE1EAE1FAEFE01E05CFF4F8083D6
:103040009183A283B3831A82188619861A861B86F7
:10305000CE010E94420740E050E060E87FE3CE01ED
:10306000DF91CF910F91EF900C945417CF92DF9294
:10307000EF92FF920F931F93CF93DF930E94131051
:10308000D82F0E9413107C010E9413108C01809194
:10309000C504D817C0F58091C3049091C4049C0165
:1030A0004EE0D49F200D311D1124E9018881882331
:1030B00059F0B70190E080E00E944D2DAB01BC01BA
:1030C0008A819B810E94A70A88818823E1F0B80148
:1030D00090E080E00E944D2D6B017C0120E030E00B
:1030E000A9010E94482D882371F0B701A6018A81A9
:1030F0009B81DF91CF911F910F91FF90EF90DF9017
:10310000CF900C945417DF91CF911F910F91FF90A6
:10311000EF90DF90CF9008958F929F92AF92BF92E1
:10312000CF92DF92EF92FF92CF93DF930E94131022
:10313000D82FC82F0E947901882309F495C081E017
:103140008093B3078093B4078091B5079091B60739
:103150000E94D82C6B017C018091C504C81708F02F
:1031600078C08091C3049091C4049C014EE0D49F28
:10317000200D311D1124E9018881882309F469C0DB
:1031800019828E819F81A885B985C816D906EA065D
:10319000FB0609F45EC08A819B81DC011C968D9040
:1031A0009D90AD90BC901F972B85222351F02D85CB
:1031B000222339F0ED91FC910280F381E02D0995F5
:1031C0001D868C85882379F0C814D904EA04FB0491
:1031D00054F48E819F81A885B985C816D906EA0660
:1031E000FB060CF41C868C85811110C08C149D0488
:1031F000AE04BF045CF48E819F81A885B9858C15CF
:103200009D05AE05BF0514F481E08C878A819B8102
:103210004A852C85429FA0011124052E000C660BC7
:10322000770B4C0D5D1D6E1D7F1DFC018088918804
:10323000A288B388481559056A057B0531F0408B93
:10324000518B628B738B0E945509CE82DF82E88698
:10325000F986DF91CF91FF90EF90DF90CF90BF90F4
:10326000AF909F908F9008951092B407C12CD12CED
:10327000760172CFBF92CF92DF92EF92FF920F93BF
:103280001F93CF93DF93EC01E62EC42ED22EFC8841
:10329000FF0C0F2D10E0A80170E060E004960E9482
:1032A0009030EE2DEE0FEC0FFD2FF11DC582D48274
:1032B00060E08B810E942F020C5F1F4F0C0F1D1FBF
:1032C000FF20E1F0F801B2908F0188E0C82ED12CE8
:1032D00090E8E92E6B2D6E2189810E942F0261E01A
:1032E0008A810E942F0260E08A810E942F02E69468
:1032F000F1E0CF1AD10871F7FA94E2CF61E08B8147
:10330000DF91CF911F910F91FF90EF90DF90CF90C1
:10331000BF900C942F028F929F92AF92BF92CF9248
:10332000DF92EF92FF920F931F93CF93DF930E9450
:103330001310EC010E941310882E0E94CA015C0138
:103340000E9413106C010E94131047E14C9F9001E2
:103350004D9F300D112400917D0210917E02020FCD
:10336000131FF8012689222309F43CC0C7E0D0E0EE
:10337000912C7C01FF24DD246C2F4C2F4F5FC70163
:103380000C2E02C0959587950A94E2F780FF28C01D
:10339000F801A4898A1618F5F501E90DF11D80815F
:1033A00087FD80E296010C2E02C0359527950A9480
:1033B000E2F720FD8068F8019081992311F06A17E7
:1033C00070F4E82FEF77F0E0EE5AFE4F2491911160
:1033D00016C087FD2068682DC8010E943A19939491
:1033E000219750F6DF91CF911F910F91FF90EF90B1
:1033F000DF90CF90BF90AF909F908F900895220F55
:1034000087FD2160A150BB0BAC1BBD0BA00FB11FF2
:1034100014962C9341E0C8010E94C50CE0CF1F9385
:10342000CF93DF93DC012C9121110CC054962C9189
:10343000621700F521E024274CE0DF91CF911F9126
:103440000C943A195596EC91F0E0F595E7951E2FFE
:10345000411101C01860EC010E94BE0C60E8610FD0
:1034600040E0CE010E944D0CCE01DF91CF911F9123
:103470000C94A70CDF91CF911F9108950F931F9388
:10348000CF93DF93FC0126892223C1F16217B0F5A7
:10349000442391F12FEF240F203108F02FE0D62F95
:1034A0008C01FC01258B8081811110C084896817F3
:1034B00020F44AE0C8010E943A1940E06D2FC8018B
:1034C000DF91CF911F910F910C940F1AC0E0413002
:1034D00031F02695423009F421E0C22FC860C801BE
:1034E0000E94BE0C60E86C0F40E0C8010E944D0CC9
:1034F000C8010E94A70CE1CF41E0E2CFDF91CF915C
:103500001F910F9108950F931F93CF930E94131053
:103510008C010E941310C82F0E94131097E1909FF6
:103520009001919F300D1124E0917D02F0917E0277
:10353000482F6C2FCF01820F931FCF911F910F91B6
:103540000C943E1A0C94831AEF92FF920F931F93E0
:10355000CF93DF93F82EC0E087E1E82E80917C02C4
:10356000C817B0F400917D0210917E02CE9D000D2F
:10357000111D1124D0E0F80186898D1739F04F2DE7
:103580006D2FC8010E940F1ADF5FF5CFCF5FE6CF26
:10359000DF91CF911F910F91FF90EF9008950F93BE
:1035A0001F93CF93DF93EC01062F18814C891111E3
:1035B00010C0641748F41F5F20E0412F602FCE0138
:1035C0000E943A191830B9F7DF91CF911F910F91EE
:1035D000089550E070E060E004960E9490304C89BD
:1035E0006FEF640FCE01DF91CF911F910F910C947B
:1035F000C50C2F923F924F925F926F927F928F9263
:103600009F92AF92BF92CF92DF92EF92FF920F9371
:103610001F93CF93DF93CDB7DEB7A8970FB6F8947B
:10362000DEBF0FBECDBF8091B8049091B904892B45
:1036300009F4A7C71BE3E12EF12CFAA2E9A21CA210
:103640001BA2CE0181960E94E113082F882309F462
:1036500098C7F8A2EF8ECE014F960E94E1139E010B
:103660002F5F3F4F190192E1D9011D929A95E9F719
:103670008823C1F0F101E80FF11D80818F5F808305
:10368000CE014F960E94BE13182FCE014F960E9476
:10369000E113882329F11111EDCF6CE870E085E08A
:1036A0000E94D014FE013796F8A7EFA3EFEFE00FCA
:1036B000E03108F02CC2F0E0E05AF44E0C94152FE3
:1036C0000D1D7B1F621D8C1D511E371FEF1F7B1FA1
:1036D000511E5321FA20BF21871D3C22511E8C1DF3
:1036E0001123D9F21A81B5E01B9F70011124C70183
:1036F0000E944E0B81114CC187EC91E00E94BE16D6
:103700001C81E12EF12CEE0CFF1CC7010E944E0B18
:10371000882309F44BC1C7010E94A915009719F02D
:10372000DC0111961C929093BB048093BA04109311
:1037300051021D81F988E12FEF0DFF27FF1F27E1BF
:103740002E9F60012F9FD00C1124C6010E944E0BAA
:10375000882309F430C1C6010E94A915FC01892BF8
:1037600049F08FEF8083818382838383148A8FE083
:10377000858B168AF0937E02E0937D021F0D1093D5
:103780005202E8888E812E2D280F3327331FEA84BA
:10379000E20EF32EF11C8EE08E9D60018F9DD00C09
:1037A0001124C6010E944E0B882309F409C1C601E9
:1037B0000E94A915009711F0DC011C929093C4049B
:1037C0008093C304E09253021F81B7E11B9F7001F5
:1037D0001124C7010E944E0B882309F4FBC0C701C6
:1037E0000E94A9150097B9F02091B6042C3008F07A
:1037F000ECC031E0320F3093B604FC01228730E098
:10380000F901EE0FFF1FE20FF31FEE56FB4F28EBFF
:103810003BE0328321839093800280937F02109358
:1038200054021985FB80E12FEF0DFF27FF1F2FE1C9
:103830002E9F60012F9FD00C1124C6010E944E0BB9
:10384000882309F4CCC0C6010E94A915009719F07D
:10385000DC0112961C9290937102809370021F0DEE
:10386000109355021885B2E11B9F70011124C70106
:103870000E944E0B882309F4B7C0C7010E94A91506
:10388000FC01892B41F01382128284E691E091833E
:10389000808311861686F0937902E0937802109364
:1038A00056021C85EEE11E9F70011124C7010E9483
:1038B0004E0B882309F49DC0C7010E94A915FC0185
:1038C000892B61F080E19F012A5F3F4FD9011D9252
:1038D0008A95E9F7178A168A108E158EF093600282
:1038E000E0935F02109358021B85B7E01B9F7001A5
:1038F0001124C7010E944E0B882309F47FC0C70121
:103900000E94A915009711F0FC01168290937B028A
:1039100080937A02109359021D85F9E01F9F700170
:103920001124C7010E944E0B882309F46CC0C70103
:103930000E94A915009719F0DC0116961C9290932D
:1039400074028093730210935B021F85B6E01B9F85
:1039500070011124C7010E944E0B882309F458C03E
:10396000C7010E94A915FC01892B59F010926D0224
:1039700010926C028DE192E0918380831382158214
:103980001482F0936802E093670210935C028ACE7F
:10399000C7010E94A915009711F0FC0114829093B1
:1039A00063028093620210935002AACE8EEC91E0E3
:1039B0000E94BE16BECE85ED91E00E94BE16E1CEFD
:1039C0008EED91E00E94BE16FFCE2FEFDC011A961D
:1039D0002C9321CF86EE91E00E94BE1622CF8CEE72
:1039E00091E00E94BE163ECF85EF91E00E94BE1688
:1039F00058CF89EF91E00E94BE1676CF82E092E028
:103A00000E94BE1689CF80E192E00E94BE169DCF33
:103A100086E292E00E94BE1645CECE0181960E94BB
:103A2000E113F090640290915002F91689F12BA1F4
:103A30003CA10091620210916302F5E0FF9E000D2F
:103A4000111D1124D80114961C92149712968C9370
:103A50001297255C3A4F2D933C9362E00E945D02E1
:103A6000F80182810E94060221E0892B09F420E0FE
:103A7000D80113962C93139781E014968C938DE6BE
:103A800096E19093660280936502F394F09264024B
:103A9000BE016D5D7F4FCE0181960E949013182F5D
:103AA000CE0181960E94E113082F882309F466C590
:103AB0001111FCCD1092160665E271E085E00E94BE
:103AC000D0145FC5CE0181960E94E113F090BC0432
:103AD00090915102F916D9F00F2D10E0000F111F2F
:103AE0002091BA043091BB04020F131FF801118218
:103AF000808361E00E945D02D80111961C921197AB
:103B000060E08C910E942F02F394F092BC04CE01ED
:103B100081960E94BE13C3CFB12C003129F4CE018F
:103B200081960E94E113B82ECE0181960E94E11386
:103B3000982ECE0181960E94E113782ECE018196B7
:103B40000E94E113A82ECE0181960E94E113882ED7
:103B5000CE0181960E94E113082FF0907C028091A3
:103B60005202F816A1F21B2DC0907D02D0907E0269
:103B7000B7E1FB9EC00CD11C1124F601148A8FE022
:103B8000858B168AB0829182A2827382B11045C061
:103B9000802F093008F088E0D60154968C9361E0BC
:103BA000892D0E945D0261E0F60182810E945D0222
:103BB00061E0D60113968C910E945D0261E0F601EE
:103BC00083810E942F02D60154968C91181708F019
:103BD0004CC020E04FE0612FC6010E943A19F60167
:103BE0008081811109C08489181730F427E04BE0E7
:103BF000612FC6010E943A1920E049E0612FC601F9
:103C00000E943A19612FC6010E94CF1A41E0612F2C
:103C1000C6010E940F1A1F5FD6CFFDEF84E0BF12CE
:103C200086E0D60154968C9362E08A2D0E945D0254
:103C300062E0F60181810E945D0260E0D601129689
:103C40008C910E942F0260E0F60181810E942F0278
:103C500060E0C6010E94CF1A8FE0D60155968C9382
:103C600041E060E0C6010E940F1AF601068B10E0E9
:103C7000D60156968C91181780F4482D612FC601F5
:103C80000E943E1A40E0612FC6010E940F1A612F68
:103C9000C6010E94CF1A1F5FEBCFF394F0927C0213
:103CA00036CFCE0181960E94E113F82ECE01819687
:103CB0000E94E113D82ECE0181960E94E113E82ED6
:103CC000CE0181960E94E113A82E093021F010E068
:103CD0000F3009F047C0CE0181960E94E113182FE2
:103CE0000F3009F03FC0CE0181960E94E113082FEA
:103CF000CE0181960E94E113B82ECE0181960E94DA
:103D0000E113C82E8091C50490915302891709F4DC
:103D1000FECE6090C3047090C404BEE08B9F600C24
:103D2000711C1124F301108284E490E00E944E0B78
:103D300081111CC06BEA70E085E00E94D0140091F4
:103D4000C504112359F08091C3049091C404BEE0CE
:103D50000B9F800D911D11240E945A0B0F5F009341
:103D6000C504D5CEC12CB12C00E0CCCF013009F474
:103D700063C0023009F46DC00111E1CF84E490E02A
:103D8000FE104AC0DA1048C00E94A9154C01892BC8
:103D900049F0E5E0EE2E04E02D2D4F2D61E0C40149
:103DA0000E94D717D30113969C928E92129740E0EF
:103DB00050E068EC73E4D30112968D919C910E94BF
:103DC000A70A40E050E068E474E4F3018281938143
:103DD0000E945417D30114961C93149781E01596F2
:103DE0008C93112321F062E0812F0E945D02F30188
:103DF000B28681E0C11001C080E0D3011B968C9394
:103E00001B9781E08C9311961C9211971D968C93B1
:103E10001D971C968C9393CF0E94A9154C01892B5A
:103E200039F00F2D2D2D4A2D64E0C4010E94D717C3
:103E3000F30193828282BBCF84E490E00E94A915B3
:103E40004C01892B09F4AECF0F2D2D2D4A2D68E0A2
:103E5000A6CF84E490E00E94A9154C01892B41F380
:103E600075E0E72E04E02D2D4F2D61E0DECFCE0171
:103E700081960E94E1139091810220915402921741
:103E800009F445CE2091B6042C3098F531E0320F7C
:103E90003093B604422F50E0FA01EE0FFF1FE40FFB
:103EA000F51FEE56FB4F48EB5BE052834183E091F8
:103EB0007F02F091800237E1939FE00DF11D112404
:103EC00022871186158616861786108A118A128A0D
:103ED000138A148A1282118224EB30E03483238304
:103EE000168215823087278380839F5F909381029B
:103EF0000ECE2FEFDCCFCE0181960E94E113D82E9B
:103F0000CE0181960E94E113C82E80E0083021F492
:103F1000CE0181960E94E113F090720290915502B9
:103F2000F91609F4B5CD2BA13CA1009170021091B6
:103F300071024FE1F49E000D111D1124D80112965B
:103F40001C92129716961C921E921597255C3A4F5A
:103F500014963C932E931397DC921196CC92119762
:103F600095E0989FF0011124E95BFE4F19960190AE
:103F70000D929A95E1F762E08D2D0E945D0262E05C
:103F8000F80181810E945D02D8011E961C921E9745
:103F900050961C921E921F9752961C921E925197F9
:103FA00018961C921897F801178A108E118E128E8F
:103FB00024EF31E040E050E053962D933D934D9334
:103FC0005C93569781E012968C9381E496E19093EE
:103FD0006F0280936E02F394F092720259CDCE017B
:103FE00081960E94E113082FCE0181960E94E11371
:103FF000182FCE0181960E94E113909157022091D3
:104000005602921709F483CDC0907802D0907902BD
:10401000B2E19B9FC00CD11C1124F60113821282C5
:10402000158216821782108611860787108B818B66
:1040300091E09687048312878387148615861092F1
:104040004904109248041092180510923A050E94F3
:10405000920424EC35E030936C0420936B0445EC1F
:1040600055E05093700440936F04D60115961C924E
:1040700015971B968C911B97823018F098E0159637
:104080009C93F6019485992329F0813019F4858158
:10409000846085830E94F6022B013C0142E3842E5A
:1040A000912CA12CB12C0E94F60264197509860985
:1040B0009709683E734081059105A8F3F1E08F1AD6
:1040C0009108A108B10828EE420E23E0521E611C9F
:1040D000711C81149104A104B10429F7D6011D9625
:1040E0006C91C6010E94D40660E3C6010E94D4060A
:1040F0008BE496E40197F1F760E3C6010E94D406D1
:104100008BE496E40197F1F760E3C6010E94D406C0
:1041100083E592E00197F1F760E2C6010E94D406C0
:10412000F6016581606240E0C6010E945C0684E0A1
:10413000D60116968C9340E06CE0C6010E945C06A6
:10414000C6010E94B60682E0F601878340E066E081
:10415000C6010E945C0640E062E0C6010E945C0667
:104160008BE39FE10197F1F788E0D6011D968C93D0
:104170001D9714968C9191E09093170580933905C3
:104180001092180510923A0568E087E196E00E94C7
:104190001D060E94C1058CE08093B800F60186855B
:1041A000882301F1C6010E94B606D60151961C91E2
:1041B0001330F0F016951150412F6FE272E0C601F6
:1041C0000E94E216F6018189823038F041E0410F09
:1041D0006AE372E0C6010E94E21640E060E0C601B8
:1041E0000E948506809157028F5F809357028FCC83
:1041F00010E0E2CFCE0181960E94E113D82ECE01CD
:1042000081960E94E113F090610290915802F91694
:1042100009F43ECC2BA13CA190E1AFA1B8A51D9221
:104220009A95E9F7188E1F8A198E1E8E9EE10091CD
:104230005F0210916002F99E000D111D1124F10121
:10424000D80101900D929A95E1F7F8018583D28209
:10425000255C3A4F3183208362E08D2D0E945D0200
:1042600038E0D32ED8015D968C91882319F0C801CF
:104270000E94710FDA94D110F5CFF80186899789E1
:1042800023E0969587952A95E1F79483838381E0CF
:10429000858F20E836E130935E0220935D02F3942F
:1042A000F0926102F5CBCE0181960E94E113182FA6
:1042B000CE0181960E94E113F82ECE0181960E94D4
:1042C000E113082FCE0181960E94E11390915A02CA
:1042D00020915902921709F41ACCC0907A02D0901A
:1042E0007B0237E0939FC00CD11C112491E0D601D2
:1042F00016969C9316971C931196FC921197129602
:104300000C93129713968C9361E0812F0E945D02AB
:1043100061E0F60181810E945D0261E0D6011296A2
:104320008C910E945D02F601A380B12CC5010E9410
:104330004E0B8823F1F0C5010E94A915D6011596F0
:104340009C938E93149780E0F6019381891740F433
:104350000480F581E02DE80FF11D10828F5FF4CF0E
:10436000C6010E94D81180915A028F5F80935A0231
:10437000CECB6CEC70E085E00E94D014C8CBCE01AF
:1043800081960E94E113182FCE0181960E94E113BD
:10439000F82ECE0181960E94E113082FCE0181965E
:1043A0000E94E1139091750220915B02921709F42B
:1043B0006FCB2BA13CA1C0907302D0907402F9E0A6
:1043C0009F9FC00CD11C1124D60116961C921697E3
:1043D00012961C9312971396FC92139714960C93B3
:1043E0001497255C3A4F11963C932E9315968C9317
:1043F00061E0812F0E945D0261E0F60183810E94ED
:104400005D0260E0D60114968C910E945D02F60177
:10441000A580B12CC5010E944E0B882339F1C5013E
:104420000E94A915D60118969C938E93179780E049
:10443000F6019581891740F40780F085E02DE80F9B
:10444000F11D10828F5FF4CF81E0868360E0C601AA
:104450000E941612E8E2F6E1F0937702E09376020A
:10446000809175028F5F8093750212CB69EF70E0C7
:1044700085E00E94D0140CCBCE0181960E94E113FE
:10448000F82ECE0181960E94E113D82ECE0181969E
:104490000E94E113082FCE0181960E94E113182F8C
:1044A000CE0181960E94E113D09223060093240648
:1044B00010932506809326061092270603E216E045
:1044C00061E0D8018D918D010E945D02E7E2F6E086
:1044D000E017F107A9F780912706816080932706EE
:1044E00060E083E296E00E94240DCE0181960E9456
:1044F000E1139091690220915C02921709F4C8CAF5
:104500002BA13CA143E256E050936D0240936C0214
:10451000009167021091680256E0959F000D111DF1
:104520001124255C3A4FD80111963C932E93139693
:104530001C92139715961C921E9214971296FC9239
:104540001297813019F482E013968C9362E08F2DDC
:104550000E945D02F80183818160838360E0C8016D
:104560000E94A20E24E536E130936B0220936A028A
:10457000809169028F5F809369028ACA112309F4CE
:1045800099CAA8960FB6F894DEBF0FBECDBFDF91D3
:10459000CF911F910F91FF90EF90DF90CF90BF9040
:1045A000AF909F908F907F906F905F904F903F90D3
:1045B0002F9008950E94F91A0C94C215FF920F9340
:1045C0001F93CF93DF930E941310EC010E94CA0146
:1045D0008C010E941310F82E27E02C9FC0012D9F04
:1045E000900D1124C0917A02D0917B02C80FD91F7F
:1045F0008E81882399F161E472E0C8010E94FF2C4A
:1046000001E010E0009711F10E94BA2C9E819923DD
:1046100099F0982F9770980101C0220F9A95EAF7A8
:10462000869586958695EC81FD81E80FF11D808148
:10463000FF2049F0282B208361E472E090E080E0C5
:104640000E94FF2CDFCF20952823F5CFCE01DF91EC
:10465000CF911F910F91FF900C94D811DF91CF91C2
:104660001F910F91FF900895FF920F931F93CF9387
:10467000DF938C01EB01F8800E946C2EF81621F07C
:104680006F2DC8010E94742ECE01DF91CF911F9132
:104690000F91FF900895AF92BF92CF92DF92EF9269
:1046A000FF920F931F93CF93DF930E94CA016C0177
:1046B000EC0109900020E9F72197C81BD90BDD27F1
:1046C000E090B804F090B904C70101968C0F9D1FCB
:1046D0008E31914008F053C05E018FEFA81AB80ADE
:1046E0002BE3E20EF11C95012E0D3F1D80912A0651
:1046F00090912B068217930778F010E000E0B60146
:10470000600F711FC701800F911F0E9434230F5F3C
:104710001F4F0A151B0598F34091B8045091B90436
:10472000C40FD51FD093B904C093B8048091E90693
:10473000811147C085E00E94BB148091E90688235F
:1047400091F06091BD078091BA079091BB070E94DC
:104750002703AE0170E060E02AE08091BA079091F3
:10476000BB070E945314DF91CF911F910F91FF90CF
:10477000EF90DF90CF90BF90AF900C943514809164
:10478000E90681111EC085E00E94BB148091E906F4
:10479000882349F36091BD078091BA079091BB07C8
:1047A0000E942703C091BA07D091BB076DE2CE01EA
:1047B0000E9427032AE041E050E060E070E0CE0173
:1047C000D0CFDF91CF911F910F91FF90EF90DF90AD
:1047D000CF90BF90AF900895CF93DF930E94CA010E
:1047E000FC0190E3ABE0B1E001900D929A95E1F706
:1047F00080912A0690912B06892B29F063E290E0A4
:1048000080E00E94742E80912A0690912B06C0971A
:1048100060F0D0E0C0E0BE01655F7E4F2196CE0122
:104820000E943423CF32D105B1F78091E90681117E
:104830000BC085E00E94BB148BE091E00E940B1638
:10484000DF91CF910C943514DF91CF910895CF93E0
:10485000DF930E941B03611571058105910511F01D
:104860000E94B12C83E5809300018EE480930101C6
:104870008DE2809302018093060110920A010E944A
:10488000622C2FEF3FE040E050E00E94822EE0E0FB
:10489000F1E093E0862F8F7020E3280F2A33D0F5C4
:1048A000238324E0769567952A95E1F79150319618
:1048B0009111F0CF0E94622C2FEF3FE040E050E0DA
:1048C0000E94822EE0E0F1E093E0862F8F7020E3DB
:1048D000280F2A3310F5278384E0769567958A950B
:1048E000E1F7915031969111F0CF80912A06909185
:1048F0002B06CB9760F0C0E3D0E0BE0160537F4F42
:10490000CE010E9434232196CB33D105B1F7DF913C
:10491000CF910895885C8383C4CF895C8783DCCF83
:104920000E9427248091E906811109C08AE00E9433
:10493000BB1480E091E00E940B160C94351408958E
:104940000F931F93CF93DF9380E390E00E94851332
:104950008335D9F581E390E00E9485138E34A9F563
:1049600080912A0690912B06CB9770F000E011E021
:10497000C0E3D0E0CE010E946C2EF80181938F013C
:104980002196CB33D105B1F78AE00E94BB14809108
:10499000E906882321F08FE391E00E942E038BE04B
:1049A00091E00E940B1680E091E00E940B1683E4D8
:1049B00092E00E940B1689E492E00E940B16DF91B0
:1049C000CF911F910F910C9435140E942724809150
:1049D0002A0690912B06CC97B8F260E08BE390E02A
:1049E0000E94742ED1CF1F920F920FB60F921124F6
:1049F0002F933F938F939F93AF93BF938091E30443
:104A00009091E404A091E504B091E6043091E204B1
:104A100023E0230F2D3758F50196A11DB11D2093DA
:104A2000E2048093E3049093E404A093E504B0933C
:104A3000E6048091E7049091E804A091E904B09124
:104A4000EA040196A11DB11D8093E7049093E80448
:104A5000A093E904B093EA04BF91AF919F918F9125
:104A60003F912F910F900FBE0F901F90189526E841
:104A7000230F0296A11DB11DD2CF1F920F920FB628
:104A80000F9211242F933F934F935F936F937F93D4
:104A90008F939F93AF93BF93EF93FF938CE296E036
:104AA0000E94DB03FF91EF91BF91AF919F918F9196
:104AB0007F916F915F914F913F912F910F900FBE1A
:104AC0000F901F9018951F920F920FB60F921124FE
:104AD0002F935F936F937F938F939F93AF93BF9326
:104AE000EF93FF93E0913C06F0913D068081E091C9
:104AF0004206F091430682FD24C020818091450644
:104B000090E0019660E670E00E94012F90914606C9
:104B1000981741F0E0914506F0E0E45DF94F258FEC
:104B200080934506FF91EF91BF91AF919F918F9137
:104B30007F916F915F912F910F900FBE0F901F90FB
:104B400018958081EFCF1F920F920FB60F9211240C
:104B50002F933F934F935F936F937F938F939F9385
:104B6000AF93BF93CF93DF93EF93FF938091B704FD
:104B7000C091B604D0E087FF24C010928500109247
:104B800084008091B7048F5F8093B7048091B7044D
:104B9000082E000C990B8C179D0724F48091B70404
:104BA0008C30C4F18091840090918500049680340B
:104BB0009C4908F47AC08091840090918500049605
:104BC00076C08091B704082E000C990B8C179D07B6
:104BD000C4F6E091B7048E2FEE0F990BFC01EE0F97
:104BE000FF1FE80FF91FEE56FB4F808186FFC9CFEC
:104BF000E091B7048E2FEE0F990BFC01EE0FFF1F13
:104C0000E80FF91FEE56FB4F808160E08F730E9422
:104C10002F02B7CF2091840030918500E091B70436
:104C20008E2FEE0F990BFC01EE0FFF1FE80FF91FFF
:104C3000EE56FB4F81819281820F931F90938900E2
:104C400080938800E091B7048E2FEE0F990BFC0142
:104C5000EE0FFF1FE80FF91FEE56FB4F808186FF16
:104C600011C0E091B7048E2FEE0F990BFC01EE0FEF
:104C7000FF1FE80FF91FEE56FB4F808161E08F7335
:104C80000E942F02FF91EF91DF91CF91BF91AF91E1
:104C90009F918F917F916F915F914F913F912F9154
:104CA0000F900FBE0F901F90189580E49CE9909391
:104CB0008900809388008FEF8093B704E3CF1F9221
:104CC0000F920FB60F9211242F933F934F935F9340
:104CD0006F937F938F939F93AF93BF93EF93FF93C4
:104CE0008091B900887F803609F44AC0F0F5883297
:104CF00009F4A7C018F5803109F49BC0B8F48823E3
:104D000009F4F9C0883009F494C0FF91EF91BF9184
:104D1000AF919F918F917F916F915F914F913F9153
:104D20002F910F900FBE0F901F901895883109F4A6
:104D300088C0803251F780930F0514C0803409F485
:104D40009DC040F48033B9F38833F9F680930F05A2
:104D500085ECB0C0803509F485C0883509F496C06B
:104D6000883499F60E941C17D0CF883909F48CC07A
:104D700038F5883729F050F4883611F0803729F655
:104D800083E0809311051092910457C0883809F48C
:104D90007BC0803919F0803809F0B7CF8091910439
:104DA000803208F071C0E091910481E08E0F809311
:104DB00091048091BB00F0E0EF58FB4F80833DC031
:104DC000803B39F0E0F4803A09F479C0883A09F080
:104DD0009CCF84E08093110510926E0410926D04B4
:104DE000E0916B04F0916C04099580916D04811140
:104DF0000FC081E080936D0410924B0409C0803C89
:104E000009F4A6CF883C09F4A3CF883B09F07DCFF5
:104E1000E0916E0481E08E0F80936E04F0E0E55B1C
:104E2000FB4F80818093BB0090916E0480916D0454
:104E300029C08091EC048093BB0085EC8093BC007A
:104E400064CF90910E0580910D05981758F5E0916B
:104E50000E0581E08E0F80930E05F0E0E351FB4FCD
:104E60008081E9CFE0910E0581E08E0F80930E05E1
:104E70008091BB00F0E0E351FB4F808390910E05E1
:104E800080910D059817C8F285E8D8CFE0910E05FE
:104E900081E08E0F80930E058091BB00F0E0E3511E
:104EA000FB4F80838091100581115CCF81E080935E
:104EB000EB0484EA8093BC001092110526CF85ECA8
:104EC0008093BC001092110580919104803230F4DF
:104ED000E0919104F0E0EF58FB4F10826091910453
:104EE00070E0E0916F04F091700481E794E009951F
:104EF000109291040ACF10920F0534CF10922F0612
:104F000010922E0688EE93E0A0E0B0E08093300689
:104F100090933106A0933206B093330624EA31E031
:104F200030932D0620932C0625EC30E03093390683
:104F30002093380624EC30E030933B0620933A0669
:104F400020EC30E030933D0620933C0621EC30E02D
:104F500030933F0620933E0622EC30E0309341062A
:104F60002093400626EC30E030934306209342061F
:104F70001092450610924606109247061092480677
:104F800010921A061092190680931B0690931C0625
:104F9000A0931D06B0931E0686EB91E09093180631
:104FA00080931706109227068FEF80932306809335
:104FB0002406809325068093260610922B061092D5
:104FC0002A061092C0071092BF078CE296E09093D9
:104FD000BB078093BA071092F1068CE28093BD075D
:104FE0008BE38093BC078FE28093BE0780E68093BB
:104FF000EC068FE58093ED061092EB061092B60753
:105000001092B5071092B8071092B70781E080930D
:10501000B307E1ECF7E087E098E0119211928E1768
:105020009F07D9F71092F0060895789484B58260AE
:1050300084BD84B5816084BD85B5826085BD85B53C
:10504000816085BD80916E00816080936E001092BA
:105050008100809181008260809381008091810035
:1050600081608093810080918000816080938000C6
:105070008091B10084608093B1008091B000816024
:105080008093B00080917A00846080937A00809150
:105090007A00826080937A0080917A0081608093A8
:1050A0007A0080917A00806880937A001092C10023
:1050B000E0913C06F0913D0682E08083E091380665
:1050C000F09139061082E0913A06F0913B0680E1BA
:1050D000808310924406E0914006F091410686E0FC
:1050E0008083E0913E06F0913F068081806180835D
:1050F000E0913E06F0913F06808188608083E091D8
:105100003E06F0913F06808180688083E0913E06F4
:10511000F0913F0680818F7D808380E094E09093C2
:105120002B0680932A0688EE94E19093C007809323
:10513000BF0783E89AE19093C2078093C1078BE889
:1051400099E19093C4078093C30782EA9AE1909310
:10515000F6078093F50787E290E19093C607809366
:10516000C5078CE898E19093C8078093C7078DE343
:1051700090E19093EC078093EB0781E590E19093A9
:10518000EE078093ED0786E398E190930008809303
:10519000FF078AEA90E19093CA078093C90780EAE3
:1051A00094E29093D4078093D3078AEC95E190938F
:1051B000DA078093D9078BE493E29093D807809322
:1051C000D70787EF94E19093DC078093DB0784EAAD
:1051D00095E19093DE078093DD078AED92E290934C
:1051E000E2078093E1078CEE93E29093E8078093C7
:1051F000E70780E994E29093EA078093E9078BE957
:1052000092E19093F0078093EF0780EC91E1909307
:10521000E6078093E50786E791E19093F407809392
:10522000F3078EED92E29093F8078093F70781E001
:105230008093F10690E080E00E948513833271F440
:105240000BE011E0D0E0C0E02196CE010E946C2E70
:10525000D8018D938D01CF32D105B1F71092B904E9
:105260001092B8048BE390E0EC0121960E94851324
:10527000882309F40BC18091B8049091B904019678
:105280009093B9048093B804CE01C130D44061F743
:1052900069EE71E085E00E94D0140E941B036093C8
:1052A000C6047093C7048093C8049093C9040E94F5
:1052B0001B036093CA047093CB048093CC04909337
:1052C000CD040E941B036E5F7F4F8F4F9F4F6093F3
:1052D000CE047093CF048093D0049093D1040E94A5
:1052E0001B036C5F7F4F8F4F9F4F6093D20470936F
:1052F000D3048093D4049093D5040E941B036C5F65
:105300007F4F8F4F9F4F6093D6047093D704809345
:10531000D8049093D9040E941B036A5F7F4F8F4F7C
:105320009F4F6093DA047093DB048093DC049093C6
:10533000DD040E941B03685F7F4F8F4F9F4F609378
:10534000DE047093DF048093E0049093E10444242E
:1053500043947EE0772EE0E0AE2EE0E0BE2E5524B2
:105360005394662463948091F0068111C9C08091A2
:10537000BA079091BB07DC01ED91FC910084F185A7
:10538000E02D0995892B09F4BBC08091BA07909153
:10539000BB07DC01ED91FC910084F185E02D0995BE
:1053A00060E6E62EF12C8036910564F48091BA0710
:1053B0009091BB07DC01ED91FC910084F185E02D1B
:1053C00009957C01C091BA07D091BB0752E5852EA3
:1053D00057E0952E640110E000E0E016F10609F0B8
:1053E0005AC0D0E0C0E0EC16FD0609F4BCCFF401D1
:1053F00091914F011092B2073091BE072091EF06B4
:105400009093EF06931304C0921302C01092EF061C
:105410008091EB06E82FF0E04091BC07E751F94F8F
:1054200094135CC0321709F459C01186882321F007
:105430006092B2071092EF061092EB061092B60738
:105440001092B5071092B8071092B7076092B30791
:105450008091B207813009F051C00E9413108093EF
:10546000EA06833208F044C02091B407222309F4ED
:105470003FC0FC01FF27EE0FFF1FEF53F84F0190D5
:10548000F081E02D3097A1F1099538C00E94F91AFA
:105490000E94C21502CF0E941B03688779878A8702
:1054A0009B87E881F9810284F385E02DCE0109957F
:1054B00097FF8EC10E941B03288539854A855B852D
:1054C000621B730B840B950B2C813D814E815F8198
:1054D000621773078407950720F383CF91878F5F47
:1054E0008093EB069091ED06891708F0A5CFB0CF19
:1054F000E091BF07F091C007309731F6219673CF46
:10550000C090BD04D090BE04E090BF04F090C004F1
:105510008091C104811162C10E941B036C197D0935
:105520008E099F09613A7B4B8D40910508F45BC061
:105530005092C104C0E08091BC04C81788F48C2F3D
:1055400090E0880F991FE091BA04F091BB04E80F36
:10555000F91F118260E080810E942F02CF5FEBCFA4
:1055600081E00E94A41AC0E08091C504C817D8F554
:10557000E091C304F091C404C79DE00DF11D112416
:105580008081882349F082819381DC01ED91FC9137
:105590000190F081E02D0995CF5FE6CF662309F4F5
:1055A00041C170E00E9499023FC180E00E94A41AAC
:1055B000C0E08091C504C817B0F4E091C304F09135
:1055C000C404C79DE00DF11D11248081882349F09A
:1055D00082819381DC01ED91FC910280F381E02DC9
:1055E0000995CF5FE6CF8091C204882309F4E4C017
:1055F0004AE066EC74E08CE39FE00E94190B41E006
:105600006AEC74E080E59DE00E94190B912C80917A
:10561000C504981608F0ADC0C091C304D091C4046D
:10562000979CC00DD11D11248881882309F49BC04B
:105630000A811B81F80184A195A1A6A1B7A1892B9C
:105640008A2B8B2B09F440C00E94F6026B017C016F
:10565000F80180A591A5A2A5B3A5B701A601481B95
:10566000590B6A0B7B0B84A195A1A6A1B7A1481782
:1056700059076A077B0728F184859585A685B78534
:105680002281222309F471C00196A11DB11D8487D6
:105690009587A687B787D8011C964D915D916D912E
:1056A0007C911F97ED91FC910680F781E02DC80158
:1056B0000995F801C0A6D1A6E2A6F3A6C8010E94EA
:1056C00055098881882331F18C810E9406029D81D1
:1056D000891701F18D8381111DC088818823D1F044
:1056E00089818823B9F0EA81FB81148615861686A4
:1056F0001786108A118A128A138A14AA15AA16AA62
:1057000017AA14A215A216A217A2148A158A168A1D
:10571000178A19828A819B814A852C85429FA00124
:105720001124052E000C660B770B0E811F81288536
:105730003985400F511F621F731FDC011C960D91AC
:105740001D912D913C911F974017510762077307D8
:1057500051F42B85222339F0ED91FC910190F081D9
:10576000E02D09954D86939452CF0197A109B10977
:105770008ECF45E06EEC74E08EE79BE00E94190B43
:1057800042E366ED74E08FEC9FE00E94190B4AE063
:1057900062ED74E085EB9FE00E94190B4AE06AED30
:1057A00074E083E892E10E94190B4AE06EED74E028
:1057B00082E09FE00E94190BA114B10409F4D3CD3B
:1057C0000E94C703882309F4CECD0E940000CBCDF0
:1057D000F60181936F010F5F1F4FFFCD0E941B03E6
:1057E0006C197D098E099F09603A7B4B8D409105AC
:1057F00008F0F9CE1092C104C0E08091BC04C81733
:1058000008F0D3CE8C2F90E0880F991FE091BA0456
:10581000F091BB04E80FF91F618180816F3F09F0AF
:10582000BDCE61E00E942F02CF5FE7CF8F929F92A3
:10583000AF92BF92CF92DF92EF92FF92CF93DF931E
:10584000EC01688179818A819B81611571058105EF
:10585000910521F464E279ED8BE597E02DE133EFDA
:1058600041E050E00E94822E49015A019B01AC01A7
:10587000A7EAB1E40E94A12E6B017C01ACEEB4EF6B
:10588000A50194010E94AF2EC60ED71EE81EF91E78
:10589000F7FE06C081E0C81AD108E10880E8F80ADE
:1058A000C882D982EA82FB82C701B6019F77DF9165
:1058B000CF91FF90EF90DF90CF90BF90AF909F90EF
:1058C0008F9008958F929F92AF92BF92CF92DF9266
:1058D000EF92FF9260913B0170913C0180913D01FC
:1058E00090913E01611571058105910521F464E2F5
:1058F00079ED8BE597E02DE133EF41E050E00E9438
:10590000822E49015A019B01AC01A7EAB1E40E9431
:10591000A12E6B017C01ACEEB4EFA50194010E94B5
:10592000AF2EC60ED71EE81EF91EF7FE06C081E098
:10593000C81AD108E10880E8F80AC0923B01D09269
:105940003C01E0923D01F0923E01C701B6019F7714
:10595000FF90EF90DF90CF90BF90AF909F908F908F
:10596000089560933B0170933C0180933D019093B7
:105970003E010895FC0188279927E894219120325F
:10598000E9F3293010F02E30C8F32B3241F02D32DC
:1059900039F4689404C00E94402D820F911D21911A
:1059A00020532A30C0F31EF4909581959F4F08959F
:1059B0001F93FC0199278827BC01E89411911032AC
:1059C000E9F3193010F01E30C8F31B3251F01D32CC
:1059D00049F4689406C00E942B2D610F711D811D32
:1059E000911D119110531A30B0F33EF490958095AB
:1059F000709561957F4F8F4F9F4F1F91089547E09E
:105A000058E00E94042D0895FA01A191B0810097F9
:105A100019F41097E1F0CD01DC01CD010D900020CB
:105A200011F4C00113C0FB012191222319F02015AC
:105A3000D9F7F3CFFB012191201519F41E9211968D
:105A400006C02223C1F70D900020A1F7D001FA0172
:105A5000A193B0830895592F482F372F262F660F13
:105A6000771F881F991F660F771F881F991F620F66
:105A7000731F841F951F660F771F881F991F089536
:105A80007AE0979F902D879F802D910D1124089586
:105A90000E948A2D08F481E00895E89409C097FBDC
:105AA0003EF490958095709561957F4F8F4F9F4FF5
:105AB0009923A9F0F92F96E9BB279395F695879539
:105AC00077956795B795F111F8CFFAF4BB0F11F4FC
:105AD00060FF1BC06F5F7F4F8F4F9F4F16C08823A3
