:100000000C941F030C9450030C9450030C94500355
:100010000C9450030C9450030C9450030C94500314
:100020000C9450030C9450030C9450030C94500304
:100030000C9450030C9450030C9450030C945003F4
:100040000C9450030C946C390C9450030C94500392
:100050000C9450030C9450030C9450030C942A38C5
:100060000C9450030C949E380C9474380C945003E8
:100070000C9450030C9450030C9450030C945003B4
:100080000C943E390C9450030C9450030C94500380
:100090000C9450030C9450030C9450030C949A3914
:1000A0000C9450030C9450030C9410390C9450038E
:1000B0000C9450030C9450030C9450030C94E238AD
:1000C0000C9450030C9450030C9450030C94500364
:1000D0000C9450030C9450030C9450030C94500354
:1000E0000C9450030C949D090C9478090C947B0992
:1000F0000C947F0A0C94E60B0C9473300C94952BA3
:100100000C94A4090C94030D0C94610B0C943C0BFF
:100110000C9452270C941A0C0C940A0D0C94C10CDC
:100120000C94C0260C940B290C943E040C94950559
:100130000C944E250C94F50C0C948E320C944E1CA1
:100140000C949D130C9416340C943F250C94460487
:100150000C949B0A0C94EE2C0C94B3050C94831312
:100160000C94340F0C9423040C94922D0C943804AA
:100170000C94B42B0C94C7050C9416070C947205C0
:100180000C94B8120C94FF260C947A090C944D2C04
:100190000C9498300C9421080C94690B0C946E1FED
:1001A0000C9460350C94C71F0C94F5200C945B06DE
:1001B0000C941E0B0C9454040C943B0C0C94600592
:1001C0000C94EC260C94E00C0C942E060C943A053E
:1001D0000C94FE120C94EE0C0C946D0C0C942B04ED
:1001E0000C9402330C9468050C94A7260C94830C91
:1001F0000C9434040C9427040C9479090C941E1A62
:100200000C94E70A0C94E3340C946B0B0C94A22D21
:100210000C94B5280C949E300C945A1F0C94EA0A46
:100220000C9423260C942D050C9450040C94350545
:100230000C9464310C946F0B0C94BF200C948605C5
:100240000C948F060C946D0B0C94E2350C94650B9A
:100250000C9481060C9459040C9445240C948A093E
:100260000C949F050C94FC0C0C94BE3A0C94BD05A8
:100270000C94630B0C944C040C942F300C941F04BE
:100280000C94361A0C9419040C94E02B0C94492607
:100290000C94C50B0C944E050C9477340C94C90641
:1002A0000C94441F0C946A060C945E040C94D326A0
:1002B0000C9458050C94A9050C945A040C94D80C71
:1002C0000C9442040C94D1090C9444050C9406112E
:1002D0000C9426380C947C050C940A2A0C942E0459
:1002E0000C94E70C0C94670B0C944A326E2F61004F
:1002F0004F4B004F4B004F4B00646F6573206E6F88
:10030000742066697420696E204D656D6F72790086
:100310004661696C7572652C20454550524F4D20E1
:1003200073697A6520657863656564656420004D4E
:10033000465374657070657220646F6573206E6FCC
:10034000742066697420696E204D656D6F72790046
:100350004F75747075745368696674657220617244
:1003600072617920646F6573206E6F7420666974A2
:1003700020696E746F204D656D6F727900496E70E3
:100380007574536869667465722061727261792050
:10039000646F6573206E6F742066697420696E7473
:1003A0006F204D656D6F727900437573746F6D20AA
:1003B000446576696365206973206E6F7420737578
:1003C00070706F727465642062792074686973203C
:1003D0006669726D776172652076657273696F6E9A
:1003E00000437573746F6D2044657669636520649E
:1003F0006F6573206E6F742066697420696E204D7E
:10040000656D6F727900437573746F6D2044657606
:1004100069636520646F6573206E6F74206669740C
:1004200020696E204D656D6F7279004D464375737E
:10043000746F6D44657669636520004661696C750B
:100440007265206F6E2072656164696E6720636FEC
:100450006E666967006D696E69434F434B5049543E
:10046000206D696E69464355206D656761007E3079
:100470006D79335B5F707F7B771F0D3D4F470000C9
:10048000000000000000000000000000000000006C
:1004900000000000000000000000800180257E3088
:1004A0006D79335B5F707F7B00000009000000778F
:1004B0007F4E7E4F475F37307C000E00767E677E32
:1004C000775B463E000000336D4E13780008007DD8
:1004D0001F0D3D4F477B373038000600151D6773F1
:1004E000055B0F1C000000276D4E0078000044657E
:1004F00076696365427566666572204F76657266D9
:100500006C6F7721004C6F6164696E6720636F6E5A
:10051000666967206661696C6564000000210024DB
:100520000027002A002D00300033000101000004E4
:100530000107010A0100002200250028002B002EDF
:10054000003100340002010000050108010B010028
:100550000020002300260029002C002F003200007C
:10056000010000030106010901050505050705084D
:10057000080808020202020A0A0808040404040126
:100580000101010101010103030303030303030448
:100590000707070C0C0C0C0C0C0C0C0202020206D8
:1005A000060606060606060B0B0B0B0B0B0B0B01C8
:1005B0000210202008081020401020408002010274
:1005C000010804020101020408102040808040203C
:1005D0001008040201800402018040201008040277
:1005E00001080402010102040810204080010204F5
:1005F000081020408000000A0B02090C0D0E0807AD
:1006000003040100000000000000000000000000E2
:1006100000000000000000000000000000000000DA
:100620000012111000000000000000000000000097
:10063000000000000000000000000000BE3A11248D
:100640001FBECFEFD1E2DEBFCDBF00E00CBF13E095
:10065000A0E0B2E0ECE8F7E800E00BBF02C00790D2
:100660000D92A43CB107D9F722E1A4ECB3E001C09C
:100670001D92AB33B207E1F713E0CFE1D3E000E026
:1006800006C021970109802FFE010E943742CE311A
:10069000D10780E00807A9F70E946C3B0C94C44383
:1006A0000C94000091E090931C1080933E101092E7
:1006B0001D1010923F100895AC0110920B119091F3
:1006C000DB118091DA11FA01BF01641B750B2091D7
:1006D0000B11308130930B11931304C0921302C09D
:1006E00010920B113081311104C0921721F0CB010F
:1006F00008953817D1F33196E7CF0F931F93CF9317
:10070000DF938091CF11882309F446C0D0E0C0E088
:10071000813029F482E08093CF11CFE0D1E1809144
:10072000D011882341F1209721F4C091D411D091A8
:10073000D5118E01CE010E945C03892B29F42196EC
:10074000F80180818111F5CFF8018081882309F1BA
:10075000C8010E945C03F801E80FF91F808188231B
:1007600011F010823196F093D511E093D4111093CB
:10077000D3110093D2118091D2119091D311892B72
:1007800059F081E08093D011DF91CF911F910F91AB
:10079000089510E000E0EBCF80E0F6CF0E947D03EB
:1007A000882351F081E08093D0118093D111809102
:1007B000D2119091D31108951092D11190E080E060
:1007C0000895CF93DF93DC01FD01EC012881222302
:1007D00051F03091DB11231301C00196FC012081FF
:1007E0002D930196F1CFE817F90710F41192FBCF82
:1007F000DF91CF9108958150823108F05AC0E82FDF
:10080000F0E08827E95FFB4F8F4F0C9437422704B5
:100810002B0419041F04230459042E04340438043F
:100820003E04420446044C045004590454045A043F
:100830005E04809180008F7780938000089580917E
:1008400080008F7DF9CF80918000877FF5CF84B5C0
:100850008F7784BD089584B58F7DFBCF8091B000E4
:100860008F778093B00008958091B0008F7DF9CF8D
:10087000809190008F7780939000089580919000F0
:100880008F7DF9CF80919000877FF5CF8091A00078
:100890008F778093A00008958091A0008F7DF9CF7D
:1008A0008091A000877FF5CF809120018F77809382
:1008B00020010895809120018F7DF9CF8091200142
:1008C000877FF5CFCF93DF93282F30E0F901EB50EE
:1008D000FA4F8491F901E155FA4FD491F901E759A2
:1008E000FA4FC491CC23A1F081110E94FB03EC2F9D
:1008F000F0E0EE0FFF1FE15BFA4FA591B491EC9190
:10090000ED2381E090E009F480E0DF91CF9108953C
:1009100080E090E0FACF1F93CF93DF93282F30E051
:10092000F901EB50FA4F8491F901E155FA4FD49156
:10093000F901E759FA4FC491CC23A9F0162F811180
:100940000E94FB03EC2FF0E0EE0FFF1FEB5CFA4F71
:10095000A591B4918FB7F894EC91111108C0D0957E
:10096000DE23DC938FBFDF91CF911F910895DE2BA3
:10097000F8CFCF93DF9390E0FC01E155FA4F24913B
:1009800087599A4FFC0184918823C9F090E0880F21
:10099000991FFC01E55EFA4FA591B491FC01EB5C57
:1009A000FA4FC591D49161110DC09FB7F8948C9105
:1009B000209582238C938881282328839FBFDF91F1
:1009C000CF910895623051F49FB7F8943C91822FF3
:1009D000809583238C93E8812E2BEFCF8FB7F894EB
:1009E000EC912E2B2C938FBFEACF1F93CF93DF93E5
:1009F000182FEB0161E00E94B904209739F460E000
:100A0000812FDF91CF911F910C948B04CF3FD105A3
:100A100011F461E0F5CFE12FF0E0EB50FA4FE491F3
:100A2000E150E23108F0B3C0F0E08827E55EFA4F0C
:100A30008F4F0C9437422D0535053A0544054E0578
:100A4000C70558056005680572057C05860595058E
:100A50009F05C705A905B305BD0584B5806884BD9C
:100A6000C7BDDF91CF911F91089584B5806284BD89
:100A7000C8BDF7CF80918000806880938000D093BC
:100A80008900C0938800EDCF8091800080628093C0
:100A90008000D0938B00C0938A00E3CF80918000C8
:100AA000886080938000D0938D00C0938C00D9CF54
:100AB0008091B00080688093B000C093B300D1CF24
:100AC0008091B00080628093B000C093B400C9CF21
:100AD00080919000806880939000D0939900C0939B
:100AE0009800BFCF80919000806280939000D09357
:100AF0009B00C0939A00B5CF80919000886080934E
:100B00009000D0939D00C0939C00ABCF8091A0003B
:100B100080688093A0008091A0008F7B8093A000CC
:100B2000D093A900C093A8009CCF8091A0008062C0
:100B30008093A000D093AB00C093AA0092CF809185
:100B4000A00088608093A000D093AD00C093AC005B
:100B500088CF80912001806880932001D093290163
:100B6000C09328017ECF8091200180628093200174
:100B7000D0932B01C0932A0174CF8091200188600B
:100B800080932001D0932D01C0932C016ACFC038EF
:100B9000D1050CF03ECF33CF3FB7F8948091040CD1
:100BA0009091050CA091060CB091070C26B5A89B5E
:100BB00005C02F3F19F00196A11DB11D3FBFBA2FEF
:100BC000A92F982F8827BC01CD01620F711D811DAF
:100BD000911D42E0660F771F881F991F4A95D1F734
:100BE00008952FB7F8946091000C7091010C8091DA
:100BF000020C9091030C2FBF0895DC01ED91FC9144
:100C00000190F081E02D1994EF92FF920F931F93C2
:100C1000CF93DF937C016091DA118091D71190918D
:100C2000D8110E94FD050091D7111091D811E7014C
:100C3000FE016491662359F0D801ED91FC91019079
:100C4000F081E02DC80119952196892B89F7DF9154
:100C5000CF911F910F91FF90EF900895AF92BF92A7
:100C6000CF92DF92EF92FF920F931F93CF93DF9378
:100C70006C017B018B01040F151FEB015E01AE18A7
:100C8000BF08C017D10759F06991D601ED91FC91C9
:100C90000190F081E02DC6011995892B79F7C501E6
:100CA000DF91CF911F910F91FF90EF90DF90CF9048
:100CB000BF90AF900895FC01538D448D252F30E0F7
:100CC000842F90E0821B930B541710F0CF96089559
:100CD00001970895FC01918D828D981779F0A28D6E
:100CE000AE0FBF2FB11D5D962C91828D8F5F60E698
:100CF0000E940342928F822F90E008958FEF9FEF22
:100D00000895FC01918D828D981731F0828DE80F46
:100D1000F11D858D90E008958FEF9FEF0895FC0100
:100D2000918D228D892F90E0805A9F4F821B9109CF
:100D300060E670E00E940F42089589E490E10E940D
:100D40008F0621E0892B09F420E0822F0895FC0111
:100D5000A48DA80FB92FB11DA358BF4F2C91848D1E
:100D600090E001968F739927848FA689B7892C9379
:100D7000A089B1898C91837080648C93938D848DCC
:100D8000981306C00288F389E02D80818F7D8083CF
:100D90000895EF92FF920F931F93CF93DF93EC018F
:100DA00081E0888F9B8D8C8D98131AC0E889F98912
:100DB000808185FF15C09FB7F894EE89FF89608315
:100DC000E889F98980818370806480839FBF81E096
:100DD00090E0DF91CF911F910F91FF90EF900895D8
:100DE000F62E0B8D10E00F5F1F4F0F731127E02EB3
:100DF0008C8D8E110CC00FB607FCFACFE889F989EB
:100E0000808185FFF5CFCE010E94A706F1CFEB8D43
:100E1000EC0FFD2FF11DE358FF4FF0829FB7F894C0
:100E20000B8FEA89FB8980818062CFCFCF93DF93DC
:100E3000EC01888D8823B9F0AA89BB89E889F989F2
:100E40008C9185FD03C0808186FD0DC00FB607FC27
:100E5000F7CF8C9185FFF2CF808185FFEDCFCE015A
:100E60000E94A706E9CFDF91CF91089580E090E03E
:100E7000892B29F00E949D0681110E94000080E0CC
:100E800090E0892B49F080E090E0892B29F00E94C6
:100E9000000081110E94000080E090E0892B49F061
:100EA00080E090E0892B29F00E94000081110E94CF
:100EB000000080E090E0892B49F080E090E0892BF1
:100EC00029F00E94000081110C9400000895AF9257
:100ED000BF92CF92DF92EF92FF920F931F93CF9327
:100EE000DF936B017A01EC01C053D44F28813CE0C1
:100EF000389F8001399F100D1124A090CF0BB12C89
:100F000027FF1FC0FB011182108288818F5F8883B9
:100F100088819801280F311D87FD3A95F6012A1521
:100F20003B051CF488818C30C4F18081918104964A
:100F300080349C4908F473C0F60180819181049645
:100F400070C088819801280F311D87FD3A952A15B8
:100F50003B05DCF68881A801480F511D87FD5A9595
:100F6000FA01EE0FFF1FE40FF51FE15CF44F8081E3
:100F700086FFCBCF8881F801E80FF11D87FDFA9538
:100F8000CF01EE0FFF1FE80FF91FE15CF44F8081E6
:100F900060E08F730E948B04B8CF8081918128819B
:100FA000A801420F511D27FD5A959A01FA01EE0F33
:100FB000FF1FE20FF31FE15CF44F21813281820FAA
:100FC000931FF7019183808388819801280F311D39
:100FD00087FD3A95F901EE0FFF1FE20FF31FE15C69
:100FE000F44F808186FF22C08881080F111D87FD84
:100FF0001A95F801EE0FFF1FE00FF11FE15CF44FAF
:10100000808161E08F73DF91CF911F910F91FF90ED
:10101000EF90DF90CF90BF90AF900C948B0480E462
:101020009CE9F701918380838FEF8883DF91CF91D3
:101030001F910F91FF90EF90DF90CF90BF90AF90F6
:101040000895089520911A0B260F3327331F21325C
:101050003105ECF420911610FC0190E080E0243082
:1010600069F082E00895A0911A0B2191AC014850DB
:10107000554FA40FB52FB11D2C930196861798F3E9
:1010800080911A0B680F60931A0B80E0089581E03D
:1010900008951092161081E0809315101092F00FB1
:1010A00061E084E10E948B0461E085E10E948B0491
:1010B000E9EBF0E080818E7F808380818D7F80836B
:1010C00088E48093B80085E48093BC000895CF93B2
:1010D000DF9391E09093F70A8823B9F0C091B800AC
:1010E000D091BA008091BC008A7B8093BC0060E004
:1010F00084E10E948B0460E085E10E948B040E94E1
:101100004908D093BA00C093B800DF91CF910895F9
:101110008F929F92AF92BF92CF92DF92EF92FF9207
:101120000F931F93CF93DF93D0913F10D13208F0EC
:10113000D7C0182FC0913E100E94CC056B017C01D6
:101140008091161081116BC082E08093161010936D
:1011500015108FEF8093141010921310D09312106B
:10116000AEE1B0E1E2EFFFE080E0D81391C0109271
:10117000F10F8091F10FCC0FC82BC093F10F80912C
:10118000F00F813009F088C01092F00F0E94CC055A
:101190006B017C018091F10F8093BB00809118104E
:1011A00090911910A0911A10B0911B10892B8A2BC5
:1011B0008B2BA1F00E94CC050091181010911910F2
:1011C00020911A1030911B106C197D098E099F090E
:1011D000061717072807390708F442C08091BC009A
:1011E00083FDD8CF85EC8093BC000E94CC056B01B9
:1011F0007C0180911610823009F450C08091141047
:101200008F3F09F46FC080911410803209F46CC0D4
:1012100080911410803309F469C084E026C0809165
:10122000181090911910A0911A10B0911B10892BD1
:101230008A2B8B2B09F484CF0E94CC058090181048
:1012400090901910A0901A10B0901B106C197D0985
:101250008E099F0986169706A806B90608F070CF72
:10126000809117100E94670885E010921D1010925F
:101270003F1010921C10DF91CF911F910F91FF90A2
:10128000EF90DF90CF90BF90AF909F908F90089598
:101290009D9191938F5F69CF85EEA5CF80911810B6
:1012A00090911910A0911A10B0911B10892B8A2BC4
:1012B0008B2B09F49ECF0E94CC0500911810109141
:1012C000191020911A1030911B106C197D098E098C
:1012D0009F09061717072807390708F08ACFC0CFDC
:1012E00081E0C3CF80E0C1CF82E0BFCF83E0BDCF3C
:1012F000089508950895E091F60A8091F50AE81797
:1013000030F4F0E0EB52F54F808190E008958FEFDC
:101310009FEF08959091F60A8091F50A2FEF3FEF25
:10132000981748F4E92FF0E0EB52F54F208130E0B8
:101330009F5F9093F60AC90108958091F50A9091F4
:10134000F60A891B990B0895CF92DF92EF92FF92D4
:101350000F931F93CF93DF937C01CB018A012091E0
:101360001C10222389F0EB016B01C40ED51ECC1595
:10137000DD0569F06991D701ED91FC910190F08153
:10138000E02DC7011995F3CF642F0E942208C801F0
:10139000DF91CF911F910F91FF90EF90DF90CF9051
:1013A0000895CF93DF931F92CDB7DEB76983209165
:1013B0001C102223F9F020913F10203258F021E038
:1013C00030E0FC013383228390E080E00F90DF91D6
:1013D000CF91089580911D10E82FF0E0E25EFF4E5E
:1013E000998190838F5F80931D1080933F1081E0DF
:1013F00090E0ECCF61E0CE0101960E942208F7CF89
:10140000CF93C82F682F64608AE292E10E94D109CD
:101410006C2F70E06B7F8AE292E1CF910C94D1093E
:1014200081E00C9488080F931F93CF93DF938C0176
:10143000C62FD42FFC0184810E9452038C2F807F01
:101440008D2BF8019585892B0E94000AF0E1CF9F32
:10145000C0011124F8019585892B8D2B0E94000A6B
:101460008AE292E1DF91CF911F910F910C94100AC3
:10147000CF93DF9300D000D01F921F92CDB7DEB77D
:1014800028E0E4E4F2E0DE01119601900D922A9545
:10149000E1F7FC012385241710F44FEF420F50E0D1
:1014A000440F551F21E030E02C0F3D1F420F531F0A
:1014B000FA012081620F606840E028960FB6F89428
:1014C000DEBF0FBECDBFDF91CF910C94130ACF9337
:1014D000DF93EC0140E061E00E94130A8BE39FE19F
:1014E0000197F1F78985882339F040E060E0CE016B
:1014F000DF91CF910C94380ADF91CF91089541E0AC
:101500000E94130A81E090E008950F931F93CF93F8
:101510008C01C62FFC0184810E945203C07FF80118
:1015200085858C2B0E94000A8AE292E1CF911F915F
:101530000F910C94100AAF92BF92CF92DF92FF925C
:101540000F931F93CF93DF936C01F62E172F042F69
:10155000FC0184810E945203CF2DD12F10E05E0147
:10156000A00EB11EF12CCA15DB0509F18991F60117
:1015700095859160807F892B0E94000AFE0131973A
:101580002081F0E12F0290011124F6018585816010
:10159000822B0E94000AF394F7E0FF1520F780E009
:1015A0000E948808F60184810E945203DBCF8AE200
:1015B00092E10E94100AC8010197DF91CF911F911B
:1015C0000F91FF90DF90CF90BF90AF90089590E083
:1015D00080E00895CF93DF93FC012381222359F10A
:1015E000EC0161E084810E94B90461E08D810E9478
:1015F000B9048B81843011F08830B1F461E08E81C0
:101600000E94B90461E08F810E94B9048FA58F3FC9
:1016100091F061E00E94B9046EA581E068278FA572
:10162000DF91CF910C948B04833011F0863071F7E9
:1016300061E08E81E9CFDF91CF910895CF93DF9361
:10164000FC0123812223A9F0EC010190F081E02D1F
:101650000480F581E02D60E019958FA58F3F49F05A
:1016600061E00E94B9046EA58FA5DF91CF910C9423
:101670008B04DF91CF910895DC01ED91FC911197DE
:1016800024813581477055276627772741505109B6
:1016900061097109473051056105710570F4FA015E
:1016A0008827EA5AF44F8F4F0C943742610B630B33
:1016B000650B670B690B6B0B6D0B61E0CD01F901DD
:1016C000199465E0FBCF64E0F9CF66E0F7CF62E004
:1016D000F5CF6AE0F3CF68E0F1CF69E0EFCFCF93C9
:1016E000DF93EC01CB01BA0126E030E040E050E0AE
:1016F0000E949041623071058105910589F16CF479
:101700006115710581059105D1F061307105810583
:101710009105F9F0DF91CF9108956430710581054D
:10172000910561F124F1653071058105910591F70D
:10173000E881F9810480F581E02D66E006C0E8814A
:10174000F9810480F581E02D64E0CE01DF91CF9135
:101750001994E881F9810480F581E02D65E0F5CFE9
:10176000E881F9810480F581E02D61E0EECFE88128
:10177000F9810480F581E02D63E0E7CFE881F9810C
:101780000480F581E02D62E0E0CFDC01ED91FC9179
:101790000480F581E02D4370552766277727423076
:1017A00051056105710571F0433051056105710501
:1017B00059F0413051056105710511F065E019944A
:1017C00066E0FDCF6AE0FBCF69E0F9CFCF93DF930E
:1017D000EC01CB01BA0123E030E040E050E00E9490
:1017E0009041613071058105910599F06230710574
:1017F00081059105A9F0672B682B692BC1F4E8815D
:10180000F9810480F581E02D64E0CE01DF91CF9174
:101810001994E881F9810480F581E02D61E0F5CF2C
:10182000E881F9810480F581E02D62E0EECFDF915F
:10183000CF910895DC01ED91FC910480F581E02DBC
:10184000437055276627772742305105610571059A
:1018500071F0433051056105710559F04130510572
:101860006105710511F062E0199463E0FDCF61E05C
:10187000FBCF60E0F9CFCF93DF93EC01E881F981F2
:101880000480F581E02D8A8160E0811162E0CE0163
:101890001995E881F9810480F581E02D8A8161E064
:1018A000811163E0CE0119958CA59DA5823091052B
:1018B00038F0880F991F880F991F05970197F1F746
:1018C000E881F9810480F581E02D8A8160E0811151
:1018D00062E0CE01DF91CF911994CF93DF93EC01B9
:1018E00020E030E0A9016C897D898E899F890E9462
:1018F000544318162CF4E8A9F9A9DF91CF91199453
:10190000EAA9FBA9FACFCF92DF92EF92FF920F9351
:101910001F93CF93DF93DC011396CC91C43039F041
:10192000C83059F1C33019F0C63049F1C2E08C011A
:101930000C5F1F4FF12CE12CC62ED12CD1E0F80109
:101940006481C6010E2C02C0959587950A94E2F732
:1019500080FD6D270F5F1F4F80810E948B04BFEFBA
:10196000EB1AFB0AEC1658F3DF91CF911F910F9100
:10197000FF90EF90DF90CF900895C4E0D8CFC3E000
:10198000D6CFDC011396EC911397E93008F042C0F2
:10199000F0E08827E153F34F8F4F0C943742D80C77
:1019A000E00CE70CEE0CF50C0A0DFC0C0A0D030D17
:1019B000ED91FC9111970084F185E02DCD011994F2
:1019C000ED91FC9111970284F385E02DF7CFED9115
:1019D000FC9111970484F585E02DF0CFED91FC91F9
:1019E00011970684F785E02DE9CFED91FC911197D1
:1019F0000088F189E02DE2CFED91FC9111970288EA
:101A0000F389E02DDBCFED91FC9111970488F589E6
:101A1000E02DD4CF08954F925F926F927F928F9274
:101A20009F92AF92BF92CF92DF92EF92FF920F936D
:101A30001F93CF93DF93EC01C888D988EA88FB888D
:101A40008C859D85AE85BF85C81AD90AEA0AFB0A2E
:101A50006C897D898E899F899B01AC010E94BC4065
:101A60004B015C016C8D7D8D8E8D9F8D9B01AC013A
:101A70000E9440429B01AC01C501B4010E94AC42EE
:101A80000E941E43C114D104E104F10409F0B1C065
:101A900062307105810591050CF0CBC01CA21DA21E
:101AA0001EA21FA21C8A1D8A1E8A1F8A1CAA1DAA8A
:101AB0001EAA1FAADF91CF911F910F91FF90EF9067
:101AC000DF90CF90BF90AF909F908F907F906F905E
:101AD0005F904F9008951016110612061306B4F485
:101AE0006C157D058E059F051CF42A812111A1C06E
:101AF0009B01AC0188279927DC01821B930BA40B67
:101B0000B50B8CAB9DABAEABBFAB93C00115110554
:101B10002105310509F48DC06C157D058E059F05E5
:101B20000CF087C08A81882309F483C03095209502
:101B3000109501951F4F2F4F3F4F0CAB1DAB2EAB98
:101B40003FAB77C0011511052105310509F471C0BE
:101B50008824992454018C189D08AE08BF08681584
:101B600079058A059B050CF064C08A81811161C0EA
:101B7000DDCFCCACDDACEEACFFACA7019601C7016C
:101B8000B6010E9440422B013C01C501B4010E94F4
:101B90005D4020E030E040E850E40E94BC4020E09E
:101BA00030E040E85FE30E9440429B01AC01C3018A
:101BB000B2010E94AC429B01AC01C701B6010E9478
:101BC0003F423B016C01FE01E05CFF4FE080F18091
:101BD000028113819701A8010E945443181614F43E
:101BE00073018601C701D8018CAF9DAFAEAFBFAF07
:101BF0003AC00CA91DA92EA93FA91C141D041E043E
:101C00001F040CF468CF10161106120613060CF010
:101C100099CF0027112798010C191D092E093F099A
:101C200060177107820793070CF062CF2A81211198
:101C30005FCF8CA89DA8AEA8BFA881149104A10471
:101C4000B10409F096CF88AD99ADAAADBBAD8CAF0C
:101C50009DAFAEAFBFAF81E01C141D041E041F0476
:101C60000CF080E08A833FEF831A930AA30AB30A39
:101C70008CAA9DAAAEAABFAACCACDDACEEACFFACE0
:101C8000C701B6010E9425436CA37DA38EA39FA329
:101C9000A701960160E074E284E799E40E94AC42F7
:101CA0006C8B7D8B8E8B9F8B2A81211103CF90585B
:101CB0006C8B7D8B8E8B9F8BFDCECF92DF92EF92C4
:101CC000FF920F931F93CF93DF93EC016A017B0187
:101CD00020E030E0A901CB01B6010E94564087FF09
:101CE00004C0F7FAF094F7F8F094A7019601688D14
:101CF000798D8A8D9B8D0E945640882309F446C0B9
:101D0000C88ED98EEA8EFB8E8E01005C1F4FA70114
:101D1000960160E074E284E799E40E94AC42F80125
:101D200060837183828393838CA99DA9AEA9BFA987
:101D3000181619061A061B064CF56C897D898E89C2
:101D40009F899B01AC010E94BC406B017C016C8DA2
:101D50007D8D8E8D9F8D9B01AC010E9440429B0129
:101D6000AC01C701B6010E94AC420E941E436CAB9D
:101D70007DAB8EAB9FABCE01DF91CF911F910F91C9
:101D8000FF90EF90DF90CF900C940B0DDF91CF91EF
:101D90001F910F91FF90EF90DF90CF9008958F9259
:101DA0009F92AF92BF92EF92FF920F931F93CF93A8
:101DB0007C018B01C42F0E94F105F8018080918085
:101DC000A280B380DC01CB0188199909AA09BB095B
:101DD0004C2F50E070E060E084179507A607B70726
:101DE00048F0F70119950E94F105F80160837183AD
:101DF00082839383CF911F910F91FF90EF90BF90BB
:101E0000AF909F908F9008952091CA0A3091CB0A8D
:101E1000280F391F81E02134364008F080E0089512
:101E2000FC0180818823F9F084818823E1F081819D
:101E3000811119C081E0818382819381FC014089F5
:101E4000518962897389403659476E4F7F4F59F0E7
:101E500040E659E76EEF7FEFFC01408B518B628BC0
:101E6000738B0C940B0D08954F925F926F927F923B
:101E70008F929F92AF92BF92CF92DF92EF92FF929A
:101E80000F931F93CF93DF93D12CA7E1CA2E08E8BD
:101E900010E0B8E5EB2EB2E0FB2EC4EB4C2E512C3B
:101EA000612C712C80918904D81608F096C0C091DD
:101EB0008704D0918804DC9CC00DD11D1124898930
:101EC0009A89AB89BC894D855E856F857889841731
:101ED0009507A607B70709F47AC0481759076A0794
:101EE0007B070CF076C00197A109B109898B9A8B09
:101EF000AB8BBC8BA989BA89A03282E0B807ACF55C
:101F00002B854801821A910827FD9394880C991C0F
:101F1000880C991C092C000CAA08BB082C85C70149
:101F2000821B910927FD93959C01220F331F220FDD
:101F3000331F032E000C440B550B281939094A098D
:101F40005B09A53BB10514F0A4EBB0E0B7FF02C0FC
:101F5000B0E0A0E00E94BA41A30192010E9490412A
:101F6000820E931EA41EB51ED401EA85E03378F5D7
:101F70002B85C801821B910927FD93959C01220F97
:101F8000331F220F331FA217B3077CF02C85C70124
:101F9000821B910927FD93959C01220F331F220F6D
:101FA000331FA217B3070CF49D0122503109220FF1
:101FB000331F4FB7F8948E2F90E0FC01EE0FFF1FF8
:101FC000E80FF91FE15CF44F328321834FBFD394B4
:101FD00069CF0196A11DB11D89CFDF91CF911F91CE
:101FE0000F91FF90EF90DF90CF90BF90AF909F90B8
:101FF0008F907F906F905F904F9008958BE891E065
:102000000197F1F70895EF92FF920F931F93CF93EB
:10201000DF93EC01162FE42EFF24F394442311F0F8
:1020200080E8F82E08E061E08A810E94B9040E94ED
:10203000FE0F61E08F2D812309F060E089810E940D
:10204000B9040E94FE0F60E08A810E94B9040E94D8
:10205000FE0FEE2081F1110F015029F761E08A8116
:102060000E94B90460E089810E94B9040E94FE0FB9
:1020700060E08A810E94B9040E94FE0F89810E945B
:102080006204182F811104C061E089810E94B904A3
:102090000E94FE0F61E08A810E94B9040E94FE0F37
:1020A00081E0111101C080E0DF91CF911F910F916C
:1020B000FF90EF9008951695CFCFCF93DF93EC016B
:1020C00061E089810E94B9040E94FE0F60E08A816C
:1020D0000E94B9040E94FE0F60E089810E94B90449
:1020E000DF91CF910C94FE0F61E0FC0181810E9491
:1020F000B9040C94FE0FAF92BF92CF92DF92EF9291
:10210000FF920F931F93CF93DF93EC01162F042FB1
:10211000AC880E94741040E060E4CE010E9403107D
:10212000CE010E945D1010958C89180FC02ED12C05
:10213000E12EF12C84E0B12EA81631F0F601EE0D5F
:10214000FF1DE554FD4FB080CE010E94741060EC7D
:102150006B0D40E0CE010E9403108C89CE0CDF1C79
:102160008C151D0414F4082F011B10E0DD24DA94F3
:10217000D00EEC0EFD1E011781F084E0ED2DE11B69
:10218000A81201C0E12FEE0DFF2DF11D41E0648189
:10219000CE010E9403101F5FEECFCE01DF91CF91E1
:1021A0001F910F91FF90EF90DF90CF90BF90AF9075
:1021B0000C945D10EF92FF921F93CF93DF93EC018D
:1021C000162F8C8180FF10C0603170F46D837E010A
:1021D00084E0E80EF11C612F617089910E948B04EC
:1021E0001695EC16FD06B9F7DF91CF911F91FF9080
:1021F000EF900895DC01842FE0918104F091820436
:10220000309719F04D915C91199408954F925F9217
:102210006F927F928F929F92AF92BF92CF92DF92F6
:10222000EF92FF920F931F93CF93DF93F12C6FE107
:10223000E62E80917D04F81608F0EAC0C0917B0478
:10224000D0917C04FE9CC00DD11D11248A8188236D
:1022500009F4B2C088810E9462048C0189810E94C5
:1022600062046C010E94F1054B015C0181E090E089
:10227000CD2811F090E080E0880F991F21E0012B1C
:1022800009F020E0922F982B4B8D5C8D6D8D7E8D0B
:1022900095018401041B150B260B370BB901A8010E
:1022A000453651056105710508F488C0888582307E
:1022B00008F484C08B8E9C8EAD8EBE8E8150888734
:1022C000EE859E1709F445C0888503E310E087304A
:1022D00010F401E010E06D8524E0E202F001112429
:1022E000492F092E000C550BE42BF52BE455FD4F1F
:1022F000708170039001719F300D1124062E02C071
:10230000220F331F0A94E2F7EF85F8892E0F3F1F43
:10231000388B2F874C0F5D1FFA0141854423C1F094
:102320004B885C886D887E884F8A588E698E7A8E3D
:102330008B8A9C8AAD8ABE8A02C0359527956A959C
:10234000E2F73A8B298B8C3008F08BE08F5F88871F
:102350009E8709891A898D819E810817190761F165
:102360009801281B390BC901E0917904F0917A0496
:102370006901CC0CDD1C309709F447C06B817C816E
:102380002F5C3F4F23363105D0F597FD2FC080E0FD
:102390001995C00ED11E31E4C3163FE1D30654F0A7
:1023A0008F85988983709927988B8F871A8A198AC5
:1023B00010E000E01E830D83F3943BCF4F89588DCE
:1023C000698D7A8D95018401041B150B260B370B43
:1023D000B901A801453F51406105710508F470CF6E
:1023E0008B8E9C8EAD8EBE8E18866ACF82E019953C
:1023F000C8018C199D09803C904E94F2DBCF97FD6B
:1024000002C081E0C5CF83E0F2CF37FDF1CFC1CF6D
:10241000DF91CF911F910F91FF90EF90DF90CF90C0
:10242000BF90AF909F908F907F906F905F904F90F4
:102430000895CF92DF92EF92FF920F931F93CF9365
:10244000DF936C017A018091770490917804892B55
:1024500031F1D60113968C9100E181FD08E0EB018A
:10246000CE25DF2510E0C0FF13C080917704909146
:102470007804892B69F0E0917504F0917604309727
:1024800039F0D6014D915C91612F8E2D8170199597
:10249000D695C795F694E7941F5F0113E4CFDF91BB
:1024A000CF911F910F91FF90EF90DF90CF90089503
:1024B000AF92BF92CF92DF92EF92FF920F931F9352
:1024C000CF93DF931F92CDB7DEB7C0907704D09043
:1024D0007804C114D10409F43FC0FC01238130E128
:1024E000B32E21FF02C028E0B22EA62E8C01F601E9
:1024F00085818683F12CE12CBA946B2DC6010E9454
:10250000DA10F80182810E9462048983F8018281D5
:102510000E9462048983EE0CFF1C298181E090E017
:10252000211102C090E080E0E82AF92AB110E4CF3E
:10253000F6016681C6010E94DA10F8016481758196
:102540006E157F0549F0AA2021F0A701C8010E945D
:102550001912F801F582E4820F90DF91CF911F915B
:102560000F91FF90EF90DF90CF90BF90AF900895C4
:10257000CF93DF93C0E0D6E080917404C81768F46D
:10258000809172049091730461E0CD9F800D911D44
:1025900011240E945812CF5FEFCFDF91CF910895A1
:1025A000E0913404F0913504309751F0DC0113963A
:1025B0002C911397222321F06D917C9181E0199445
:1025C0000895E0913404F0913504309751F0DC0126
:1025D00013962C911397211104C06D917C9180E08A
:1025E00019940895FC012481611104C0222329F06B
:1025F0000C94E11221110C94D01208950F931F93A3
:10260000CF93DF9310E005E080913304181750F565
:10261000C0913104D0913204109FC00DD11D1124FE
:102620008C818823E9F08A81863470F40E946204E8
:102630009B818917A9F061E0811101C060E06B8383
:10264000CE010E94F2120CC0282F2654330BF90140
:10265000EE0FFF1FEA5CFB4F80819B819813EBCF4D
:102660001F5FD2CFDF91CF911F910F910895FC0191
:10267000A08DB0E01396AA0FBB1FA80FB91F8689C3
:1026800097892D913C91821B930B978B868B82812E
:10269000863308F0865320917B00982F9870277F0F
:1026A000922B90937B008770806480937C00809154
:1026B0007A00806480937A0080917A0086FDFCCF56
:1026C0008091780090917900A08DB0E01396AA0FC8
:1026D000BB1FAE0FBF1F8D939C93A08DB0E01396D0
:1026E000AA0FBB1FAE0FBF1F868997892D913C9102
:1026F000820F931F978B868B808D8F5F808F808D4D
:102700008770808F0895CF93DF93C0E0DEE18091E2
:102710003004C81778F480912E0490912F04CD9F37
:10272000800D911D1124FC01258D21110E9437136C
:10273000CF5FEDCFDF91CF910895CF93DF93C0E0CE
:10274000DEE180913004C817C8F5A0912E04B09145
:102750002F04CD9FA00DB11D11245D968C915D9726
:10276000882351F156968D919C91579723E0969529
:1027700087952A95E1F713962D913C911497AC011A
:10278000421B530B9A0157FF03C031952195310924
:1027900015964C9115974217130609F06CF4149690
:1027A0009C938E931397E0912C04F0912D04309715
:1027B00019F06D917C911995CF5FC3CFDF91CF91C7
:1027C00008950F931F93CF93DF93EC01062F142FDF
:1027D00088810E94520389819A81DC01ED91FC91EC
:1027E0000190F081E02D602F199589819A81DC019B
:1027F000ED91FC910190F081E02D612F1995898177
:102800009A810E94100A91E0811190E0892FDF9156
:10281000CF911F910F910895CF93DF93EC018881A1
:1028200090EE980F983040F40E94520389819A816B
:102830000E94100A91E0811190E0892FDF91CF91E1
:102840000895DF92EF92FF920F931F93CF93DF9340
:10285000F82ED62E00E0CBE4D0E0E090030260E05A
:102860008E2D0E948B04CE010197F1F71091040286
:1028700061E0F7FE60E0812F0E948B04CE0101979A
:10288000F1F761E08E2D0E948B04CE010197F1F7E4
:10289000FF0C0F5FD012E1CF2197F1F761E0812F9C
:1028A000DF91CF911F910F91FF90EF90DF900C94EB
:1028B0008B040F931F93CF93DF93082F162FD42FE2
:1028C000C091000260E08C2F0E948B0463E080EADC
:1028D0000E94211466E0802F880F880F0E94211427
:1028E00064E08D2F0E94211461E08C2F0E948B04E4
:1028F00060E08C2F0E948B0463E080EA0E94211428
:1029000066E0812F880F880F0E94211464E08D2FCC
:102910008295807F0E94211461E08C2FDF91CF91FE
:102920001F910F910C948B04EF92FF920F93CF9312
:10293000DF937C01FB01413041F586EB8093E4039A
:1029400087E18093E50383E78093E6031092E70332
:102950004091E40368E089E00E9459144091E50346
:102960006AE08BE00E9459144091E6036CE08DE030
:102970000E9459144091E7036EE08FE0DF91CF9100
:102980000F91FF90EF900C945914013009F04AC058
:102990001092C7031092C60388E090E09093C5039D
:1029A0008093C403D091C603C091C403213009F0C1
:1029B00044C0C70168EE73E00E942342CB012AE0C5
:1029C00030E0B9010E942342FC01E45BFD4F8081AD
:1029D0008093E403C70164E670E00E942342CB01C8
:1029E000B9010E942342FC01E45BFD4F4081C70115
:1029F000B9010E942342FC01E45BFD4FE081CB0161
:102A0000B9010E942342DC01A45BBD4F8C91885F19
:102A10008093E6034D0F4093E5038E2F8C0F809338
:102A2000E70396CF88E090E09093C7038093C603B6
:102A30001092C5031092C403B5CFCF0168EE73E0C6
:102A40000E942342CB012AE030E0B9010E942342D8
:102A5000DC01A45BBD4F8C918093E403CF0164E65D
:102A600070E00E942342CB01B9010E942342DC01A5
:102A7000A45BBD4F4C91CF01B9010E942342FC01E0
:102A8000CB01B9010E942342DC01A45BBD4F8C91B4
:102A90008093E603E45BFD4F80814D0F4093E50397
:102AA000BDCFCF93DF93D82FC091000260E08C2F71
:102AB0000E948B0464E080E80E94211468E08D2F5E
:102AC0000E94211461E08C2FDF91CF910C948B0434
:102AD000CF93DF93D82FC091010260E08C2F0E942A
:102AE0008B0464E080E80E94211468E08D2F0E942E
:102AF000211461E08C2FDF91CF910C948B041F93F4
:102B0000CF93DF93182FD62FC091020260E08C2F55
:102B10000E948B0463E080EA0E94211466E0812F0A
:102B2000880F880F0E94211464E08D2F0E942114C9
:102B300061E08C2FDF91CF911F910C948B04082EB4
:102B4000000C990B9093090480930804019791F469
:102B500080E190E09093D7038093D6036091DE03E9
:102B60008091DC03680F605E8091D603680F8EE071
:102B70000C947F151092D7031092D603EFCF082E36
:102B8000000C990B90930B0480930A04019789F42D
:102B900080E290E09093CD038093CC036091CA03D0
:102BA0008091C803680F8091CC03680F80E10C947A
:102BB0007F151092CD031092CC03F0CFCF93DF930B
:102BC000D82FC091020260E08C2F0E948B0464E039
:102BD00080E80E94211468E08D2F0E94211461E09A
:102BE0008C2FDF91CF910C948B040F931F93CF9375
:102BF000DF93082F162FD42FC091020260E08C2F94
:102C00000E948B0463E080EA0E94211466E0802F1A
:102C1000880F880F0E94211464E08D2F0E942114D8
:102C200061E08C2F0E948B0460E08C2F0E948B044B
:102C300063E080EA0E94211466E0812F880F880FEC
:102C40000E94211464E08D2F8295807F0E942114C0
:102C500061E08C2FDF91CF911F910F910C948B0429
:102C6000CF93DF939C019093EB038093EA0364E698
:102C700070E00E940F42FB01E95AFD4F4081E4EEF3
:102C8000F3E04083CAE0D0E0C901BE010E940F42D8
:102C90009C01CB01BE010E940F42DC01A95ABD4F2D
:102CA000DC91D183295A3D4FD901CC91C2836CE08C
:102CB0008BE00E94F5154D2F6AE088E00E94F51523
:102CC0004C2F69E08DE0DF91CF910C94F515082E23
:102CD000000C990B90931504809314048130910596
:102CE000B1F484E08093E4038093E5038093E603EA
:102CF00044E06CE08BE00E94F51544E06AE088E077
:102D00000E94F51544E069E08DE00C94F515892BDF
:102D100031F48091EA039091EB030C9430160895FE
:102D2000CF93DF93EC01CB014130C1F521112AC0D3
:102D300080E890E09093CB038093CA031092C9037C
:102D40001092C80384E08093E50384E08093E40359
:102D50008093E6034091E4036FE18EE10E94F51554
:102D60004091E5036DE18CE10E94F5154091E60389
:102D700062E181E10E94F51580910A04DF91CF9113
:102D80000C94BF151092CB031092CA0380E490E01C
:102D90009093C9038093C80385E0D5CF21112BC040
:102DA00080E890E09093CB038093CA031092C9030C
:102DB0001092C803CE0164E670E00E940F42FB014E
:102DC000E95AFD4F80818093E403EAE0F0E0CE0110
:102DD000BF010E940F429C01CB01BF010E940F4224
:102DE000FC01E95AFD4F80818093E503295A3D4F4C
:102DF000F9018081ADCF1092CB031092CA0320E479
:102E000030E03093C9032093C8032AEF2093E403F2
:102E1000EAE0F0E0BF010E940F429C01CB01BF013C
:102E20000E940F42FC01E95AFD4F80818F5FDCCF89
:102E30000F931F93CF93DF93082F162FD42FC0919A
:102E4000010260E08C2F0E948B0463E080EA0E9404
:102E5000211466E0802F880F880F0E94211464E0FF
:102E60008D2F0E94211461E08C2F0E948B0460E062
:102E70008C2F0E948B0463E080EA0E94211466E09C
:102E8000812F880F880F0E94211464E08D2F829576
:102E9000807F0E94211461E08C2FDF91CF911F91E0
:102EA0000F910C948B04CF93C0E040E06C2F8C2FDB
:102EB0000E94181740E06C2F8C2F0E94F51540E0FF
:102EC0006C2F8C2F0E945914CF5FC03271F7CF91B5
:102ED0000895CF92DF92EF92FF92413009F096C0B1
:102EE0001092E3031092E203213021F585E08093F4
:102EF000E4038093E5031092E6032093E70380E167
:102F000090E09093E1038093E0031092DF0310922E
:102F1000DE0380E490E09093DD038093DC0381E0A6
:102F200090E09093DB038093DA031092D903109220
:102F3000D80324C095E09093E40384E08093E503F4
:102F40009093E6038093E70380E290E09093E1039F
:102F50008093E00380E890E09093DF038093DE03AA
:102F60001092DD031092DC031092DB031092DA035F
:102F700081E090E09093D9038093D8036091E003BF
:102F80008FE00E947F156091DE038091DC03680F63
:102F9000605E8091D603680F8EE00E947F1540919D
:102FA000D4038091DA03480F6DE18EE10E94181777
:102FB0004091D2038091D803480F6BE18CE10E94CD
:102FC00018174091D0038091E203480F69E188E12E
:102FD0000E9418174091E4036FE08EE00E941817DA
:102FE0004091E5036DE08CE00E9418174091E603E4
:102FF0006BE08AE00E9418174091E70369E088E0DF
:10300000FF90EF90DF90CF900C941817213009F0CB
:1030100042C077FD38C081E090E09093E303809355
:10302000E203CB0164E670E00E942342072E000C0D
:10303000880B990B0E945D4020E030E040E05FE3A8
:103040000E9440420E941E43EAE0F0E0CB01BF0133
:103050000E9423429C01CB01BF010E942342FC013C
:10306000E95AFD4F80818F5F8093E403295A3D4FD9
:10307000F90180818F5F8093E5031092E60381E080
:103080008093E7033CCF1092E3031092E203719523
:1030900061957109C6CF97FD4CC021E030E03093B7
:1030A000E3032093E203BC01990F880B990B0E9464
:1030B0005D4020E030E048EC52E40E94AC426B01FD
:1030C0007C0120E030E0A9010E94544320E030E080
:1030D00040E05FE387FD35C0C701B6010E94404272
:1030E0000E941E4344E6469F9001479F300D1124E5
:1030F000C90168EE73E00E942342FB01E95AFD4FCB
:1031000080818F5F8093E403C90164E670E00E94D0
:103110002342CB016AE070E00E942342FC01E95A9D
:10312000FD4F80818093E50387E38093E60386E388
:1031300009CF1092E3031092E203919581959109D2
:10314000B2CFC701B6010E943F42CACF0F931F936F
:10315000CF93DF93FC01909307048093060464E609
:1031600070E00E940F42DB01A95ABD4F4C912AE04A
:1031700030E0CF01B9010E940F42FC01CB01B9013F
:103180000E940F42DC01A95ABD4F3C91E95AFD4F04
:103190009081642F042E000C770B7093D3036093FF
:1031A000D203632F032E000C770B7093D50360932B
:1031B000D4036AEF7FEF7093D1036093D0037093D1
:1031C000CF036093CE032091D803240F2093E40310
:1031D0009F5F9093E6038091DA03830F8093E5036A
:1031E0008091E20386508093E70380910404865027
:1031F0008093E80304EE13E0C2E6D2E0F8014191C7
:103200008F01698188810E9418172296F3E0093E98
:103210001F07A1F7DF91CF911F910F910895813082
:1032200079F481E090E09093050480930404409148
:10323000CE0380910404480F61E180E10C941817DB
:103240001092050410920404F2CFDF92EF92FF92E5
:103250000F931F93CF93DF937C01D62FD42EC0E022
:103260000BE410E060E0F70182810E948B04C8014A
:103270000197F1F76D2F661F6627661FF7018181A1
:103280000E948B04C8010197F1F761E0F701828188
:103290000E948B04C8010197F1F7CF5FDD0FDC12AC
:1032A000E1CFDF91CF911F910F91FF90EF90DF90D1
:1032B00008951F93CF93DF93EC01162F60E0888170
:1032C0000E948B0444E060E8CE010E94251948E08A
:1032D000612FCE010E94251961E08881DF91CF9195
:1032E0001F910C948B04CF92DF92EF92FF920F9379
:1032F0001F93CF93DF93EC0160E088810E948B04E1
:103300000B8110E00115110501F1EC81FD81E00F49
:10331000F11F3197E080D980CA8088E0F82E6E2DA9
:10332000661F6627661F8C2D0E948B04EE0C61E0E1
:103330008D2D0E948B0460E08D2D0E948B04FA94E9
:10334000F110EDCF01501109DDCF61E08881DF91EF
:10335000CF911F910F91FF90EF90DF90CF900C9441
:103360008B049F92AF92BF92CF92DF92EF92FF9227
:103370000F931F93CF93DF93EC01C62E61E08B81F7
:103380000E948B0461E08A810E948B0410E08D8191
:10339000181708F044C0DB80BC8087E0E82EF12CD1
:1033A00000E061E08D2D0E948B048B2D0E94620451
:1033B0000E2C01C0880F0A94EAF7082B60E08D2DCF
:1033C0000E948B0481E0E81AF10858F7A12EB12C75
:1033D000EF81F885EA0DFB1DD080D016F1F0CC20EE
:1033E000B9F0912E990C990C990CE02EF12C8D2DA1
:1033F0008E2580FF07C04E2D4170692D6F0DCE01C7
:103400000E94FA10D694E694F39488E0F812EFCF75
:10341000EF81F885EA0DFB1D00831F5FB8CF60E0E8
:103420008A81DF91CF911F910F91FF90EF90DF90F4
:10343000CF90BF90AF909F900C948B04CF93DF936D
:10344000C0E0D9E080918004C81768F480917E04C0
:1034500090917F0461E0CD9F800D911D11240E9409
:10346000B119CF5FEFCFDF91CF910895AF92BF92A7
:10347000CF92DF92EF92FF920F931F93CF93DF9340
:10348000C0E0D5E080913304C81778F4809131040E
:1034900090913204CD9F800D911D1124FC01248157
:1034A00021110E94D012CF5FEDCFC0E0D5E0809116
:1034B0003304C81778F48091310490913204CD9F81
:1034C000800D911D1124FC01248121110E94E11223
:1034D000CF5FEDCF10E059E0C52E80918004181722
:1034E00008F056C0C0917E04D0917F041C9DC00D91
:1034F000D11D112460E0CE010E94B119D12CF12C14
:10350000E12C8D818E151F04E9F0E4F0EF81F88540
:10351000EE0DFF1D808100E0A82EB12C80FF06C0BB
:1035200041E06D2D600FCE010E94FA10B594A79472
:103530008A2D0F5F083081F7FFEFEF1AFF0A88E04E
:10354000D80EDFCFD12CF12CE12C8D818E151F04EC
:10355000E9F0E4F0EF81F885EE0DFF1D808100E0D9
:10356000A82EB12C80FD06C040E06D2D600FCE016D
:103570000E94FA10C501959587950F5F083081F775
:10358000EFEFEE1AFE0AF8E0DF0EDFCF1F5FA5CFE8
:1035900010E006E0809174041817E0F4C091720402
:1035A000D0917304109FC00DD11D112460E0CE0195
:1035B0000E9458124C815D8170E060E0CE010E9453
:1035C00019124C815D816FEF7FEFCE010E941912BD
:1035D0001F5FE0CFC0E0DEE180913004C81728F51E
:1035E000A0912E04B0912F04CD9FA00DB11D1124E8
:1035F0005D968C915D978823B1F056968D919C9144
:10360000579723E0969587952A95E1F714969C9312
:103610008E931397E0912C04F0912D04309719F0BC
:103620006D917C911995CF5FD7CFDF91CF911F918D
:103630000F91FF90EF90DF90CF90BF90AF900895E3
:103640008F929F92AF92BF92CF92DF92EF92FF92B2
:103650000F931F93CF93DF93EC01162F88810E9465
:10366000520389819A81DC01ED91FC910190F081F6
:10367000E02D612F199589819A810E94100A81118C
:10368000A0C018810E94CC056B017C0180911610AE
:10369000811164C081E080931610809315109FEF14
:1036A0009093141010921310109212108093F10F37
:1036B0008091F10F110F182B1093F10F8091F00FE3
:1036C000813009F08BC01092F00F0E94CC056B0185
:1036D0007C018091F10F8093BB0080911810909134
:1036E0001910A0911A10B0911B10892B8A2B8B2BCB
:1036F000A1F00E94CC050091181010911910209192
:103700001A1030911B106C197D098E099F0906173C
:1037100017072807390708F442C08091BC0083FDD1
:10372000D8CF85EC8093BC000E94CC056B017C0156
:1037300080911610813009F453C0809113108111CB
:1037400071C080911310E2EFFFE0A5EDBAE090E0C8
:10375000981751F121912D939F5FFACF8091181006
:1037600090911910A0911A10B0911B10892B8A2BDF
:103770008B2B09F48BCF0E94CC0580901810909071
:103780001910A0901A10B0901B106C197D098E09A9
:103790009F0986169706A806B90608F077CF80918C
:1037A00017100E94670880E01092F60A8093F50ACD
:1037B00089819A81DC01ED91FC910284F385E02DF1
:1037C0001995DF91CF911F910F91FF90EF90DF90AE
:1037D000CF90BF90AF909F908F90089585EEA2CF2D
:1037E0008091181090911910A0911A10B0911B108F
:1037F000892B8A2B8B2B09F49BCF0E94CC0500913F
:1038000018101091191020911A1030911B106C197A
:103810007D098E099F09061717072807390708F041
:1038200087CFBDCF81E08FCFCF93DF93D82FC62F27
:1038300060E087E292E10E94201B41E050E001C07D
:10384000440FDA95EAF7CC2351F0482B62E087E287
:1038500092E10E94E11381E0DF91CF9108954095BC
:103860004823F4CF61E086E00E94141C61E085E00B
:103870000E94141C61E084E00E94141C61E083E05B
:103880000E94141C61E082E00E94141C61E081E04F
:103890000E94141C61E080E00C94141CCF92DF9213
:1038A000EF92FF921F93CF93DF93F12CE12CD12C59
:1038B000C12CC1E0D0E08091D40A8C151D0409F41C
:1038C00033C2E091D20AF091D30AEE0DFF1D808140
:1038D000882309F40AC28581823009F006C261E0BA
:1038E00087E292E10E94201B80FD92C11092710438
:1038F0001092700481FD91C1109237041092360429
:1039000082FD90C1109239041092380483FD8FC15A
:1039100010925F0410925E0484FD8EC110926104C7
:103920001092600485FD8DC11092630410926204B0
:1039300086FD8CC1109265041092640487FD8BC1D2
:10394000109267041092660461E084E292E10E94A2
:10395000201B182F60E084E292E10E94201B10FDE2
:1039600018C01092470410924604D0934904C093A3
:103970004804D0934B04C0934A04D0934D04C093A1
:103980004C04D0934F04C0934E04D0935104C09381
:10399000500411FD18C0D0934704C0934604109200
:1039A000490410924804D0934B04C0934A04D09326
:1039B0004D04C0934C04D0934F04C0934E04D09355
:1039C0005104C093500412FD18C0D0934704C09313
:1039D0004604D0934904C093480410924B041092BB
:1039E0004A04D0934D04C0934C04D0934F04C09329
:1039F0004E04D0935104C093500413FD18C0D093CB
:103A00004704C0934604D0934904C0934804D0931C
:103A10004B04C0934A0410924D0410924C04D0936E
:103A20004F04C0934E04D0935104C093500414FD2E
:103A300018C0D0934704C0934604D0934904C09360
:103A40004804D0934B04C0934A04D0934D04C093D0
:103A50004C0410924F0410924E04D0935104C09322
:103A6000500415FD18C0D0934704C0934604D0936A
:103A70004904C0934804D0934B04C0934A04D093A4
:103A80004D04C0934C04D0934F04C0934E04109245
:103A900051041092500416FDE3C017FF0CC01092A1
:103AA0003B0410923A04D0933D04C0933C04D0935D
:103AB0003F04C0933E0480FD18C01092530410923E
:103AC0005204D0935504C0935404D0935704C09328
:103AD0005604D0935904C0935804D0935B04C09308
:103AE0005A04D0935D04C0935C0481FD18C0D09348
:103AF0005304C09352041092550410925404D0936E
:103B00005704C0935604D0935904C0935804D093DB
:103B10005B04C0935A04D0935D04C0935C0482FD9F
:103B200018C0D0935304C0935204D0935504C0934B
:103B300054041092570410925604D0935904C09321
:103B40005804D0935B04C0935A04D0935D04C0938F
:103B50005C0483FD18C0D0935304C0935204D093E7
:103B60005504C0935404D0935704C0935604109244
:103B7000590410925804D0935B04C0935A04D09314
:103B80005D04C0935C0484FD18C0D0935304C093BB
:103B90005204D0935504C0935404D0935704C09357
:103BA0005604D0935904C093580410925B041092A9
:103BB0005A04D0935D04C0935C0485FD18C0D09373
:103BC0005304C0935204D0935504C0935404D0932B
:103BD0005704C0935604D0935904C0935804D0930B
:103BE0005B04C0935A0410925D0410925C0486FD3D
:103BF00053C087FF5FC01092410410924004D093DD
:103C00004304C0934204D0934504C093440452C07B
:103C1000D0937104C09370046DCED0933704C093D9
:103C200036046ECED0933904C09338046FCED0934F
:103C30005F04C0935E0470CED0936104C0936004AF
:103C400071CED0936304C093620472CED0936504A6
:103C5000C093640473CED0936704C093660474CE9B
:103C600017FD0DC010923F0410923E04D0933B0408
:103C7000C0933A04D0933D04C0933C041CCFD0932E
:103C80003F04C0933E04D0933B04C0933A04109287
:103C90003D0410923C040FCFD0934104C0934004E4
:103CA00087FD2AC0D0934304C09342041092450478
:103CB0001092440460E086E392E10E94201B80FFA2
:103CC00020C0D0936904C093680481FF1FC0D093C3
:103CD0006B04C0936A0482FF1EC010926D041092A0
:103CE0006C04D0936F04C0936E048FEFC81AD80A87
:103CF00086E0E80EF11CDFCD1092430410924204DE
:103D000082CF1092690410926804DFCF10926B0486
:103D100010926A04E0CF10926F0410926E04D09358
:103D20006D04C0936C04E1CFDF91CF911F91FF90A0
:103D3000EF90DF90CF900895209147103091481078
:103D40008217930710F40C947A4180E00895CF9283
:103D5000DF92EF92FF920F931F93CF938B017B0122
:103D6000C0E06C01C61AD70AC6018E0D9F1D0E94C5
:103D70009C1ECF5FF70181937F01C83281F08E32A4
:103D800099F7F801EC0FF11D3197108281E0CF9186
:103D90001F910F91FF90EF90DF90CF90089580E0FA
:103DA000F6CF0F931F93CF93DF938C01EB01F801B4
:103DB000808191819C012F5F3F4F318320830E943E
:103DC0009C1E28813981A9014F5F5F4F5983488329
:103DD000285F334FF901808328813981283EF3E041
:103DE0003F0760F48A3319F7295F334FF9011082D6
:103DF00081E0DF91CF911F910F91089580E0F9CF7D
:103E0000CF92DF92EF92FF920F931F93CF93DF93A6
:103E10008C01C0904710D0904810C62FD0E0F80118
:103E2000808191817C01FFEFEF1AFF0AF801F18296
:103E3000E0820E949C1ECE14DF0480F0082E000C4D
:103E4000990B8C179D0759F781E0DF91CF911F9156
:103E50000F91FF90EF90DF90CF90089580E0F5CF25
:103E60000E947D03882359F081E08093D0118093D4
:103E7000D1118091D2119091D3110C94C93F10921D
:103E8000D11190E080E00895CF930E94301FC82F99
:103E90000E94301F60E08F3F910519F0009729F4D0
:103EA00061E08C2FCF910C948B04BC018C2FCF91AF
:103EB0000C94F5040E94301F9091DE0B891768F472
:103EC0002091DC0B3091DD0BA9016EE0869F400D47
:103ED000511D1124CA010C94100F08950F931F93C4
:103EE0000E94301F9091DE0B891708F04DC0E091C1
:103EF000DC0BF091DD0B9EE0899FE00DF11D11249C
:103F00008081882309F440C0A281B3811C961D9250
:103F10001D921D921C921F9750961D921D921D92EC
:103F20001C925397D4961D921D921D921C92D79766
:103F300094961D921D921D921C92979754961D92D5
:103F40001D921D921C92579784858823E9F08281E7
:103F50009381428550E0519541955109052E000C01
:103F6000660B770BFC010089118922893389401780
:103F700051076207730741F0408B518B628B738B43
:103F80001F910F910C940B0D1F910F9108958F921B
:103F90009F92AF92BF92CF92DF92EF92FF921F93C8
:103FA000CF93DF930E94301F7C010E94301FBC0121
:103FB000809189048E151F0409F00CF4A8C027E134
:103FC0002E9DC0012F9D900D1124C0918704D0918A
:103FD0008804C80FD91FCD80DE800D2C000CEE08A0
:103FE000FF0889809A80092C000CAA08BB082F8141
:103FF0003885032E000C440B550B2C193D094E0936
:104000005F09072E000C880B990B681979098A093A
:104010009B090E94F3412B813C81032E000C440B31
:10402000550B281939094A095B090E949041BA01C8
:10403000A9014C0D5D1D6E1D7F1D052E000C660B2C
:10404000770B8D859E85AF85B88984179507A60760
:10405000B70709F45CC04D875E876F87788B8985C9
:10406000811155C08A85803308F04FC0188161E006
:10407000812F0E94B9048A85282F30E0F901EE0FC4
:10408000FF1FE20FF31FE15CF44F1F739081907CE0
:10409000912B90831B861C862CE0622F0E9403428A
:1040A000829FB001112430E020E0AB01420F531F8A
:1040B000FA01EE0FFF1FE40FF51FE15CF44F908152
:1040C00096FD16C02F5F3F4F2C30310571F78130C0
:1040D00051F51092800082E080938100109285005B
:1040E00010928400B19A80916F00826080936F007B
:1040F000EA858E2F90E0FC01EE0FFF1FE80FF91FFD
:10410000E15CF44F80818064808381E08987DF9166
:10411000CF911F91FF90EF90DF90CF90BF90AF9025
:104120009F908F900895823061F410929000809358
:104130009100109295001092940088BB80937100BA
:10414000D7CF833069F41092A00082E08093A10061
:104150001092A5001092A40089BB80937200C8CF72
:104160008111C6CF1092200182E08093210110922C
:104170002501109224018ABB80937300B9CFEF927E
:10418000FF921F93CF93DF930E94301FEC010E9498
:10419000CE037C010E94E10322E12C9FC0012D9FF0
:1041A000900D1124C0918304D0918404C80FD91FAD
:1041B0008E858823A1F010E08989811781F0412F35
:1041C00060E0CE010E94380A4889B701149F600D53
:1041D000711D1124CE010E949B0A1F5FEDCFDF915C
:1041E000CF911F91FF90EF9008950E94301F892B6F
:1041F00049F01092D60B1092D70B1092D80B109258
:10420000D90B08950E94F1056093D60B7093D70BDC
:104210008093D80B9093D90B0895AF92BF92CF9211
:10422000DF92EF92FF920F931F93CF93DF9300D013
:104230001F92CDB7DEB75C0119821A821B821C82E5
:10424000CE0101967C0110E000E06C01F501808157
:1042500091819C012F5F3F4F318320830E949C1EE0
:10426000F7018083F8018E3241F00F5F1F4F8FEF0F
:10427000E81AF80A0430110549F7EC0DFD1D10820B
:10428000C6010E94C93F0F900F900F900F90DF91D1
:10429000CF911F910F91FF90EF90DF90CF90BF9043
:1042A000AF9008950F931F93CF93DF93EB01FC0121
:1042B0008581813009F0EEC1CA010E94C93FCF3F1C
:1042C000DC0731F4DF91CF911F910F910C945317BC
:1042D000CE3F2FEFD207F1F48111F5C10E945317A1
:1042E00061E086E00E94141C61E085E00E94141CDD
:1042F00061E084E00E94141C61E083E00E94141CD1
:1043000061E082E00E94141C61E081E00E94141CC4
:1043100061E02CC12097C1F4FC01E83E83E0F8077E
:1043200010F0E7EEF3E0F0931D04E0931C046091BD
:104330001A0470911B0420E040E0CF01DF91CF917F
:104340001F910F910C949016C130D10589F4BC01D6
:104350008436910510F063E670E070931B0460935F
:104360001A0421E040E080911C0490911D04E6CFE6
:10437000C230D10581F4282F082E000C330B309366
:1043800019042093180460911A0470911B04282FBB
:1043900040911604E8CFC330D10581F4282F082EB0
:1043A000000C330B309317042093160460911A0409
:1043B00070911B0420911804482FD5CFC430D1052B
:1043C00031F4DF91CF911F910F910C94BF15C5303F
:1043D000D10569F42091140430911504232B09F0C0
:1043E00072C1DF91CF911F910F910C943016C6309E
:1043F000D10531F4DF91CF911F910F910C94671685
:10440000C730D10531F4DF91CF911F910F910C94FA
:104410009F15C830D10531F4DF91CF911F910F91D5
:104420000C94A618C930D10531F4DF91CF911F91BA
:104430000F910C940F19CA30D10589F4809312049E
:104440009093130460910E0470910F0420E040914A
:104450001004DF91CF911F910F910C946917CB300D
:10446000D10569F480930E0490930F0421E04091EC
:104470001004BC018091120490911304EACFCC3057
:10448000D10581F4282F082E000C330B3093110432
:104490002093100460910E0470910F0420910C047D
:1044A000482FE8CFCD30D10581F4282F082E000CFD
:1044B000330B30930D0420930C0460910E04709123
:1044C0000F04282F40911004D5CF2E9709F0FBC080
:1044D000813009F04DC0C4E7D2E002E812E04FEFAE
:1044E000698188810E94F51522960C171D07B9F77E
:1044F0006FEF8FE00E947F15C2E6D2E004E712E082
:104500004FEF698188810E94181722960C171D07AA
:10451000B9F74FEF68E089E00E9459144FEF6AE065
:104520008BE00E9459144FEF6CE08DE00E9459140B
:104530004FEF6EE08FE00E94591460E086E00E9429
:10454000141C60E085E00E94141C60E084E00E947E
:10455000141C60E083E00E94141C60E082E00E9472
:10456000141C60E081E00E94141C60E080E0BDC08B
:104570008111A9C08091F8039091F90360E001973F
:1045800009F061E084E00E94141C8091F603909190
:10459000F70360E0019709F061E083E00E94141CDA
:1045A0008091F4039091F50360E0019709F061E0D8
:1045B00082E00E94141C8091F2039091F30360E06A
:1045C000019709F061E081E00E94141C8091F003E2
:1045D0009091F10360E0019709F061E080E00E94B2
:1045E000141C8091EE039091EF0360E0019709F0B5
:1045F00061E086E00E94141C8091EC039091ED0331
:1046000060E0019709F061E085E00E94141C809150
:104610000A040E94BF15809114040E9467168091BD
:1046200008040E949F1580910604909107040E943F
:10463000A618809104040E940F1960911A047091C9
:104640001B04209118044091160480911C04909141
:104650001D040E94901660910E0470910F04209129
:104660000C044091100480911204909113040E9454
:1046700069176091FC037091FD0300910204209181
:1046800000044091FE038091FA039091FB030E9485
:10469000941419C08230B9F4CA010E94C93FAC0118
:1046A000092E000C660B770BCF3FDC0731F4DF914E
:1046B000CF911F910F910C94321CCE3FFFEFDF077B
:1046C00039F48823A1F3DF91CF911F910F910895C1
:1046D0002097B9F49093F9038093F8034130510582
:1046E0006105710541F460E084E0DF91CF911F9195
:1046F0000F910C94141C452B462B472B21F761E09E
:10470000F3CFC130D10591F49093F7038093F60372
:10471000413051056105710519F460E083E0E5CF92
:10472000452B462B472B79F661E0F8CFC230D105F7
:1047300099F49093F5038093F4034130510561059A
:10474000710519F460E082E0D0CF452B462B472B52
:1047500009F0B9CF61E0F7CFC330D10599F4909358
:10476000F3038093F203413051056105710519F49B
:1047700060E081E0BACF452B462B472B09F0A3CF51
:1047800061E0F7CFC430D10581F49093F1038093B9
:10479000F003413051056105710509F4E6CE452B62
:1047A000462B472B09F08FCFB3CDC530D10599F4F7
:1047B0009093EF038093EE0341305105610571053D
:1047C00019F460E086E091CF452B462B472B09F08A
:1047D0007ACF61E0F7CFC630D10599F49093ED031D
:1047E0008093EC03413051056105710519F460E0D7
:1047F00085E07BCF452B462B472B09F064CF61E04A
:10480000F7CFC730D10559F4823008F032CF082EE7
:10481000000C990B90930304809302042ACFC830B4
:10482000D10559F4823008F024CF082E000C990BE2
:104830009093FF038093FE031CCFC930D10559F438
:10484000823008F016CF082E000C990B90930104CB
:10485000809300040ECFCA30D10551F4803127E295
:10486000920708F006CF9093FB038093FA0301CFE1
:104870002B9709F028CF8031E7E29E0708F0F9CEA8
:104880009093FD038093FC03F4CEEF92FF920F937D
:104890001F93CF93DF930E94301F8C018091D40A25
:1048A0008017110619F114F10E94301F7C010E943B
:1048B000CE03EC010E94E10386E0809F9001819F7E
:1048C000300D11248091D20A9091D30A820F931F48
:1048D000FC012081222351F0AE01B701DF91CF917D
:1048E0001F910F91FF90EF900C945221DF91CF9187
:1048F0001F910F91FF90EF900895FB010190002010
:10490000E9F73197AF01461B570BDC01ED91FC91A4
:104910000280F381E02D1994809106118823A1F083
:104920006091D9118091D7119091D8110E94FD0505
:1049300080910E11882341F060E073E08091D711DF
:104940009091D8110E947D2410920D1110920611A1
:1049500080E008958F929F92AF92BF92EF92FF9264
:104960000F931F93CF93DF93CDB7DEB7A1970FB609
:10497000F894DEBF0FBECDBF7C01FA01CB0119A2B6
:10498000223008F42AE08E010F5D1F4F822E912CF9
:10499000B12CA12CBF01A50194010E94C241F901D3
:1049A000CA016A300CF5605DD8016E938D01232B2E
:1049B000242B252B79F790E080E0109721F0BD01A2
:1049C000C7010E947D24A1960FB6F894DEBF0FBEEA
:1049D000CDBFDF91CF911F910F91FF90EF90BF90CE
:1049E000AF909F908F900895695CDECFCF939091A8
:1049F00006119923A9F0C82F6091DA118091D7117F
:104A00009091D8110E94FD054C2F50E070E060E0BD
:104A10002AE08091D7119091D811CF910C94AA24BB
:104A2000CF91089590910611911110C091E090934B
:104A3000061190930D11482F50E070E060E02AE0DD
:104A40008091D7119091D8110C94AA240895CF93F6
:104A5000DF939091061191110EC0EB010E94122577
:104A600080910611882319F0CE010E940406DF917F
:104A7000CF910C948C2480E0DF91CF9108950E9417
:104A8000F1056093D60B7093D70B8093D80B90935E
:104A9000D90B6CEE72E085E00C9427250F931F93E1
:104AA000CF93DF931092330410927D041092CE0ABC
:104AB0009091D10AE091CF0AF091D00A80E0981746
:104AC00021F0168A8F5F7796FACF1092D10A309133
:104AD0008904A0918704B091880420E03217D1F0B6
:104AE00019968C911997882391F01A96EC911A9740
:104AF0008E2F90E0FC01EE0FFF1FE80FF91FE15C25
:104B0000F44F80818F7B808319961C9219972F5FB9
:104B10005796E4CF109289049091DE0BE091DC0B64
:104B2000F091DD0B80E0981721F010828F5F3E96A8
:104B3000FACF1092DE0B90912504E0918304F0915E
:104B4000840480E0981731F02685211116868F5F46
:104B50007296F8CF10922504109230049091280498
:104B6000E0918504F091860480E0981721F0168288
:104B70008F5F3796FACF1092280490918004E091CD
:104B80007E04F0917F0480E0981721F016828F5FF9
:104B90003996FACF1092800410E006E080917404F8
:104BA0001817A0F4C0917204D0917304109FC00D27
:104BB000D11D11248B8180FF07C062E08A810E9491
:104BC000B9048B818E7F8B831F5FE8CF10927404B2
:104BD0002091D40A30E0E091D20AF091D30A90E01B
:104BE00080E028173907D1F010824581413051F417
:104BF000A181B281AB5ABF4F4C9141111C920196D9
:104C00003696EFCF4230D9F7A381B481D2964C913A
:104C1000D2974423A1F3D2961C92F1CF1092D40ADA
:104C20001092D50B1092D40B1092DB0B1092CB0A82
:104C30001092CA0A60EF72E085E0DF91CF911F9178
:104C40000F910C94272563EF72E08FE00C942725D9
:104C50002091CA0A3091CB0A820F931F9093CB0AFE
:104C60008093CA0A8034964040F06EEE74E085E08E
:104C70000E94272590E080E00895C90186579B4F48
:104C8000089581E08093DB0B66EF72E081E10C9484
:104C90002725CF93DF938AE00E9412258091D40BC1
:104CA0009091D50B892B91F18BE390E00E949C1E93
:104CB000C82F80910611882379F06091DA118091D4
:104CC000D7119091D8110E94FD056C2F8091D711BA
:104CD0009091D8110E94FD05C1E0D0E08091D40BE5
:104CE0009091D50BC817D90788F4CE01CB960E94B6
:104CF0009C1E90910611992339F0682F8091D7114D
:104D00009091D8110E94FD052196E8CFDF91CF91B7
:104D10000C948C24CF93DF93209106112223A1F0D1
:104D2000EC016091DA118091D7119091D8110E9415
:104D3000FD05209749F0BE018091D7119091D811BF
:104D4000DF91CF910C947D24DF91CF9108950F9343
:104D50001F93CF93DF93C82FD62F8A018DE10E9436
:104D60001225C8010E948A268D2F0E94F6248C2FBE
:104D70000E94F624DF91CF911F910F910C948C2407
:104D80000F931F93CF93C82F8B0186E00E941225AB
:104D9000C8010E948A268C2F0E94F624CF911F9171
:104DA0000F910C948C240F931F93CF93DF93C82FF4
:104DB000D62F8A018EE10E941225C8010E948A2600
:104DC0008D2F0E94F6248C2F0E94F624DF91CF9124
:104DD0001F910F910C948C240F931F93CF93C82F86
:104DE0008B0187E00E941225C8010E948A268C2F21
:104DF0000E94F624CF911F910F910C948C24CF9296
:104E0000DF92EF92FF92CF93DF936C01EB018CE185
:104E10000E941225CE010E948A26809106118823C5
:104E200021F16091DA118091D7119091D8110E94EF
:104E3000FD05C091D711D091D8110D2C000CEE08B2
:104E4000FF082AE0B701A601F7FE0CC06DE2CE0113
:104E50000E94FD0544275527BA014C195D096E09CA
:104E60007F092AE0CE010E94AA24DF91CF91FF9012
:104E7000EF90DF90CF900C948C24CF93DF93EC01D4
:104E800085E00E941225CE010E948A26809106119B
:104E9000882321F089EF92E00E940406DF91CF91F0
:104EA0000C948C24FB0101900020E9F73197AF01AD
:104EB000461B570BDC01ED91FC910284F385E02D3C
:104EC0001994CF92DF92EF92FF920F931F93CF939B
:104ED000DF938C01EB01FC01D0886D2D70E0FE01A9
:104EE00001900020E9F7CF0101978C1B9D0B8617DD
:104EF0009707B0F4681B790B76956795D82EC80193
:104F00000E94380ACC2EEC2EFD2E8E2D8C198D157C
:104F100048F4F70161917F01C8010E947F0AF5CF33
:104F200060E0EDCFDF91CF911F910F91FF90EF9057
:104F3000DF90CF90089585ED8093BC00809118108C
:104F400090911910A0911A10B0911B100796A11DF5
:104F5000B11D23E0B695A795979587952A95D1F72A
:104F60002091BC0024FD03C01092161008954091BA
:104F700018105091191060911A1070911B10452B48
:104F8000462B472B69F30097A105B10541F02AE2B2
:104F90002A95F1F700C00197A109B109E1CF8091ED
:104FA00017100C9467084F925F926F927F928F92C6
:104FB0009F92AF92BF92CF92DF92EF92FF92CF93E8
:104FC000DF93EC016A017B0120E030E0A901CB0115
:104FD000B6010E94564087FF04C0F7FAF094F7F834
:104FE000F0948C8C9D8CAE8CBF8CA7019601C50172
:104FF000B4010E945640882309F449C06CA97DA9D8
:105000008EA99FA90E945D402B013C01A70196013A
:10501000C501B4010E94AC429B01AC01C301B201C5
:105020000E94BC400E941E436CAB7DAB8EAB9FAB1D
:10503000A701960160E070E080E090E40E94AC423D
:105040000E945F4326E53EE04DE25FE30E94BC40E4
:1050500020E034E244E759E40E94BC4068AF79AFF5
:105060008AAF9BAFCC8EDD8EEE8EFF8ECE01DF91B0
:10507000CF91FF90EF90DF90CF90BF90AF909F9037
:105080008F907F906F905F904F900C940B0DDF91FD
:10509000CF91FF90EF90DF90CF90BF90AF909F9017
:1050A0008F907F906F905F904F900895EF920F9345
:1050B000CF93DF93EC0186EC92E0998388836B8336
:1050C0001C861D861E861F86188A198A1A8A1B8AC4
:1050D0001C8A1D8A1E8A1F8A80E090E0A0E8BFE338
:1050E000888F998FAA8FBB8F1C8E1D8E1E8E1F8E50
:1050F00088A399A3AAA3BBA31CA21DA21EA21FA2A0
:1051000061E070E07DA76CA73FEF3FA718A619A646
:105110001AA61BA64C832D830E83EF821EA61CAA03
:105120001DAA1EAA1FAA18AE19AE1AAE1BAE1CAE3F
:105130001DAE1EAE1FAEFE01E05CFF4F808391836B
:10514000A283B3831A82188619861A861B86CE011B
:105150000E94EA0A40E050E060E87FE3CE01DF9180
:10516000CF910F91EF900C94D327CF92DF92EF92D3
:10517000FF920F931F93CF93DF930E94301FD82F7E
:105180000E94301F7C010E94301F8C018091DE0B39
:10519000D817C0F58091DC0B9091DD0B9C014EE09F
:1051A000D49F200D311D1124E9018881882359F0F5
:1051B000B70190E080E00E945B40AB01BC018A81B6
:1051C0009B810E945D0E88818823E1F0B80190E008
:1051D00080E00E945B406B017C0120E030E0A9018F
:1051E0000E945640882371F0B701A6018A819B81F5
:1051F000DF91CF911F910F91FF90EF90DF90CF90B3
:105200000C94D327DF91CF911F910F91FF90EF90D6
:10521000DF90CF9008958F929F92AF92BF92CF92DE
:10522000DF92EF92FF92CF93DF930E94301FD82F2F
:10523000C82F0E947D03882309F495C081E08093E4
:10524000D0118093D1118091D2119091D3110E94ED
:10525000E73F6B017C018091DE0BC81708F078C036
:105260008091DC0B9091DD0B9C014EE0D49F200DD2
:10527000311D1124E9018881882309F469C019824C
:105280008E819F81A885B985C816D906EA06FB06D6
:1052900009F45EC08A819B81DC011C968D909D90F3
:1052A000AD90BC901F972B85222351F02D85222392
:1052B00039F0ED91FC910280F381E02D19951D8666
:1052C0008C85882379F0C814D904EA04FB0454F4CB
:1052D0008E819F81A885B985C816D906EA06FB0686
:1052E0000CF41C868C85811110C08C149D04AE04B6
:1052F000BF045CF48E819F81A885B9858C159D05BE
:10530000AE05BF0514F481E08C878A819B814A85B4
:105310002C85429FA0011124052E000C660B770BF3
:105320004C0D5D1D6E1D7F1DFC0180889188A2883B
:10533000B388481559056A057B0531F0408B518BC0
:10534000628B738B0E940B0DCE82DF82E886F9861A
:10535000DF91CF91FF90EF90DF90CF90BF90AF9013
:105360009F908F9008951092D111C12CD12C76016D
:1053700072CFBF92CF92DF92EF92FF920F931F9363
:10538000CF93DF93EC01E62EC42ED22EFC88FF0CC7
:105390000F2D10E0A80170E060E004960E94B44375
:1053A000EE2DEE0FEC0FFD2FF11DC582D48260E0D3
:1053B0008B810E948B040C5F1F4F0C0F1D1FFF2061
:1053C000E1F0F801B2908F0188E0C82ED12C90E86E
:1053D000E92E6B2D6E2189810E948B0461E08A8108
:1053E0000E948B0460E08A810E948B04E694F1E0C5
:1053F000CF1AD10871F7FA94E2CF61E08B81DF9187
:10540000CF911F910F91FF90EF90DF90CF90BF90C1
:105410000C948B048F929F92AF92BF92CF92DF92A7
:10542000EF92FF920F931F93CF93DF930E94301F51
:10543000EC010E94301F882E0E94CE035C010E9466
:10544000301F6C010E94301F47E14C9F90014D9F1F
:10545000300D11240091CF0A1091D00A020F131FB2
:10546000F8012689222309F43CC0C7E0D0E0912C42
:105470007C01FF24DD246C2F4C2F4F5FC7010C2EC5
:1054800002C0959587950A94E2F780FF28C0F8013D
:10549000A4898A1618F5F501E90DF11D808187FDB3
:1054A00080E296010C2E02C0359527950A94E2F70A
:1054B00020FD8068F8019081992311F06A1770F43B
:1054C000E82FEF77F0E0E259FB4F2491911116C0DD
:1054D00087FD2068682DC8010E94B92993942197FF
:1054E00050F6DF91CF911F910F91FF90EF90DF90D9
:1054F000CF90BF90AF909F908F900895220F87FD1F
:105500002160A150BB0BAC1BBD0BA00FB11F1496AB
:105510002C9341E0C8010E947B10E0CF1F93CF93F2
:10552000DF93DC012C9121110CC054962C91621751
:1055300000F521E024274CE0DF91CF911F910C94DE
:10554000B9295596EC91F0E0F595E7951E2F41119C
:1055500001C01860EC010E94741060E8610F40E027
:10556000CE010E940310CE01DF91CF911F910C94C8
:105570005D10DF91CF911F910895EF92FF920F93ED
:105580001F93CF93DF93C82F8093DA0BD0E08091E5
:10559000CE0AD817F0F48D2F90E0880F991FE09174
:1055A000CC0AF091CD0AE80FF91F8081CC2319F0C5
:1055B000118261E004C061816F3F29F460E00E94C4
:1055C0008B04DF5FE4CF6623A1F370E00E94F50453
:1055D000F8CFD0E007E18091D10AD817B8F4E09075
:1055E000CF0AF090D00AD09FE00CF11C112410E0FB
:1055F000D70156968C91811739F04C2F612FC70136
:105600000E948E2A1F5FF4CFDF5FE5CFD0E01EE05F
:105610008091DE0BD817E0F4E091DC0BF091DD0B0C
:10562000D19FE00DF11D11248081882359F08281E2
:105630009381DC01ED91FC91CC2331F00190F0815C
:10564000E02D1995DF5FE4CF0280F381E02DF9CFE3
:10565000D0E016E08091D40AD817D8F48091D20A0D
:105660009091D30AD19F800D911D1124FC012081BE
:10567000CC2331F04BE053E0211106C0DF5FEACFCD
:105680002223E1F343E053E06EEF7FEF0E945221CB
:10569000F5CFDF91CF911F910F91FF90EF9008957B
:1056A0000F931F93CF93DF93FC0126892223C1F12F
:1056B0006217B0F5442391F12FEF240F203108F049
:1056C0002FE0D62F8C01FC01258B8081811110C029
:1056D0008489681720F44AE0C8010E94B92940E093
:1056E0006D2FC801DF91CF911F910F910C948E2ADD
:1056F000C0E0413031F02695423009F421E0C22F5C
:10570000C860C8010E94741060E86C0F40E0C801D6
:105710000E940310C8010E945D10E1CF41E0E2CF7A
:10572000DF91CF911F910F9108950F931F93CF9306
:105730000E94301F8C010E94301FC82F0E94301F12
:1057400097E1909F9001919F300D1124E091CF0A35
:10575000F091D00A482F6C2FCF01820F931FCF9169
:105760001F910F910C94502B0C94952B0F931F931A
:10577000CF93DF93EC01062F18814C89111110C0D3
:10578000641748F41F5F20E0412F602FCE010E9474
:10579000B9291830B9F7DF91CF911F910F91089572
:1057A00050E070E060E004960E94B4434C896FEFD3
:1057B000640FCE01DF91CF911F910F910C947B105C
:1057C000FF920F931F93CF93DF930E94301FEC0142
:1057D0000E94CE038C010E94301FF82E27E02C9FE0
:1057E000C0012D9F900D1124C0918504D091860495
:1057F000C80FD91F8E81882399F165E073E0C80135
:105800000E940E4001E010E0009711F10E94C93F94
:105810009E81992399F0982F9770980101C0220FCB
:105820009A95EAF7869586958695EC81FD81E80F35
:10583000F11D8081FF2049F0282B208365E073E073
:1058400090E080E00E940E40DFCF20952823F5CF26
:10585000CE01DF91CF911F910F91FF900C9473199E
:10586000DF91CF911F910F91FF900895FF920F93B9
:105870001F93CF93DF938C01EB01F8800E947A4154
:10588000F81621F06F2DC8010E948241CE01DF91F0
:10589000CF911F910F91FF900895AF92BF92CF9239
:1058A000DF92EF92FF920F931F93CF93DF930E94AB
:1058B000CE036C01EC0109900020E9F72197C81B89
:1058C000D90BDD27E090D40BF090D50BC7010196E2
:1058D0008C0F9D1F883D954008F053C05E018FEFEF
:1058E000A81AB80A2BE3E20EF11C95012E0D3F1DFC
:1058F00080914710909148108217930778F010E03C
:1059000000E0B601600F711FC701800F911F0E9458
:10591000362C0F5F1F4F0A151B0598F34091D40BCF
:105920005091D50BC40FD51FD093D50BC093D40B7A
:1059300080910611811147C085E00E941225809157
:105940000611882391F06091DA118091D71190911E
:10595000D8110E94FD05AE0170E060E02AE0809160
:10596000D7119091D8110E94AA24DF91CF911F9155
:105970000F91FF90EF90DF90CF90BF90AF900C947D
:105980008C248091061181111EC085E00E94122591
:1059900080910611882349F36091DA118091D71123
:1059A0009091D8110E94FD05C091D711D091D811C6
:1059B0006DE2CE010E94FD052AE041E050E060E08A
:1059C00070E0CE01D0CFDF91CF911F910F91FF906A
:1059D000EF90DF90CF90BF90AF900895CF93DF937B
:1059E0000E94CE03FC0190E3A0E1B2E001900D9291
:1059F0009A95E1F78091471090914810892B29F0F2
:105A000063E290E080E00E94824180914710909193
:105A10004810C09760F0D0E0C0E0BE01605F7D4FED
:105A20002196CE010E94362CCF32D105B1F780915C
:105A3000061181110BC085E00E94122580E192E0E1
:105A40000E948A26DF91CF910C948C24DF91CF9114
:105A50000895CF93DF930E94F105611571058105CB
:105A6000910511F00E94C03F83E5809305028EE40A
:105A7000809306028DE28093070280930B021092BE
:105A80000F020E94713F2FEF3FE040E050E00E9484
:105A90009041E5E0F2E093E0862F8F7020E3280F3D
:105AA0002A33D0F5238324E0769567952A95E1F78C
:105AB000915031969111F0CF0E94713F2FEF3FE04E
:105AC00040E050E00E949041E5E0F2E093E0862F54
:105AD0008F7020E3280F2A3310F5278384E0769512
