:100000000C9421080C9452080C9452080C94520839
:100010000C9452080C9452080C9452080C945208F8
:100020000C9452080C9452080C9452080C945208E8
:100030000C9452080C9452080C9452080C945208D8
:100040000C9452080C94343E0C9452080C945208B0
:100050000C9452080C9452080C9452080C94F23CE4
:100060000C9452080C94663D0C943C3D0C94520840
:100070000C9452080C9452080C9452080C94520898
:100080000C94063E0C9452080C9452080C9452089E
:100090000C9452080C9452080C9452080C94623E32
:1000A0000C9452080C9452080C94D83D0C945208AD
:1000B0000C9452080C9452080C9452080C94AA3DCB
:1000C0000C9452080C9452080C9452080C94520848
:1000D0000C9452080C9452080C9452080C94520838
:1000E0000C9452080C9403160C94AA320C945A09DE
:1000F0000C94F0150C94E01F0C94D8170C9460131A
:100100000C9470190C94D4170C94860A0C94500912
:100110000C94C42A0C940C220C94BB350C94420908
:100120000C948E0B0C9454190C94A9170C94102851
:100130000C9421380C94DF150C9420270C943E204D
:100140000C94FC0B0C945E090C9462190C94B40B87
:100150000C94DA170C94D2170C94440A0C945B1983
:100160000C945A240C94610B0C94BD0A0C94731DCE
:100170000C94B8220C94FA1F0C94A8300C941C2DEB
:100180000C94B1370C940A160C94732D0C94D6175A
:100190000C94D72A0C9465310C9437160C9488254E
:1001A0000C949D0B0C94D0220C94D7230C94FE1627
:1001B0000C94A52F0C9432180C94720E0C94BA3235
:1001C0000C94E0150C94DC170C948D390C94230DD1
:1001D0000C9457170C94E1150C94680E0C94A90A12
:1001E0000C942B090C9452250C94C83A0C94540985
:1001F0000C94E8390C944E0A0C94350A0C94C70AF6
:100200000C9466200C944D190C9438090C94032B13
:100210000C94052C0C94C33F0C94680A0C94DA18C7
:100220000C94FD2C0C94950A0C9453180C941909F9
:100230000C943A0A0C947A0F0C94DE150C942F0E41
:100240000C947C0A0C9469190C94AB2A0C94CE176C
:100250000C949F0A0C94251F0C945F1F0C94C20BE6
:100260000C94EA270C9477190C94A11B0C9453302E
:100270000C94D0170C94820E0C94F02A0C94112735
:100280000C9487180C948B170C9496350C940124BD
:100290000C94580A0C9446090C94600A0C943E097C
:1002A0000C94E6160C941F090C94720A0C942709FE
:1002B0000C94D40E0C94B30A0C94EE3C0C94A81835
:1002C0000C942D0A0C9434090C94562B0C948736FC
:1002D0000C940D220C942E090C94DC100C944C09F7
:1002E0000C9406320C94C1350C9423090C945909D2
:1002F0000C9445190C94443A0C942E190C944F2FDD
:100300000C94490C0C94ED230C946D370C945235DD
:100310000C94F0180C942C396002030203040102BF
:1003200004060B00FE08FE09FF017503210493205B
:1003300007DEF8F93700210ADEF891B47730A7001C
:10034000220ADE786A4996E4FC02230EDEF89368FE
:1003500090926890929C2300240FDEB8C229E9385D
:100360002659D269CC2100250DDEF887A44F49A873
:10037000293DE504260EDEF8B5A81256B2A429538D
:1003800072182708DEB8D23A3F012809DEF8C26A9F
:10039000CF75042909DE78E26A8F750C2A0CDEF825
:1003A000912C294D492DE70A2B0BDEF8C9693668D7
:1003B00069CE002C09DEF8F922AA61082D08DEF8C2
:1003C000B9ED1C012E08DEF8F924EA042F0DDEF841
:1003D000B1344CC3344CC33405300FDEF8A72C893C
:1003E000941629C9922CDA09310BDEF8916CED6D67
:1003F000D06100320BDEF8A72C0DBB0E3A0C330D8A
:10040000DEF8A72CCDE434C9A29D00340EDEF8A19D
:10041000504BA2D220A6E10E03350DDEB807254DC4
:1004200087384DB26827360EDEF8A7341DA22CC9D6
:10043000922CDA09370ADEB807B5586DA700380FD5
:10044000DEF8A72CC9A2294BB2248B7602390DDE27
:10045000F8A72CC9922C1AD2D24E3A0ADEF8C9A2B9
:100460004E1275023B0BDEF8A9A24E12D530043CA9
:1004700009DEF8B1B0B99D0A3D0ADEF889833EE88D
:10048000DC003E09DEF8E3C67616003F0BDEF8A777
:100490002C2DD6C19C02400EDEF8A72C49962E4B7F
:1004A0001A0F390C4112DEF89130C992284BB26410
:1004B00050B224CB61004211DEB887284BB2648869
:1004C000B2244BB264C809430BDEF8A72C49BB45E4
:1004D0003B014411DEB887284BB2244BB2244BB207
:1004E00064C809450DDEB807254D8728AD0E3A0CC6
:1004F000460CDEB807254D87286DA701470DDEF8AD
:10050000A72C494B4A9664D14E4812DEB8B3244B0F
:10051000B26450B2244BB224CB6100490BDEB80761
:100520002DED6DD061004A0BDEF8B1B44B9664D16D
:100530004E4B0FDEB8B324AA64A29864512D8701F4
:100540004C09DEB8D3BE0E3A0C4D0FDEB8B3C4D2A0
:100550006F4996644996C3004E11DEB8B3444A3AD7
:10056000295992255992E530004F10DEF8A72CC981
:10057000922CC9922CC9A29D00500EDEB887284B40
:10058000B26488D2761A005110DEF8A72CC9922CDA
:10059000C9922C699A73005212DEB887284BB26454
:1005A00088B2244BB224CB6100530DDEF8A72C890E
:1005B000E734C9A29D005409DEB8072DED3B05556F
:1005C00010DEB8B3244BB2244BB2244BB26827568A
:1005D00010DEB8B3244BB2248B922C09D39C025763
:1005E0000FDEB8B3244BB2244BFA62C9721858100C
:1005F000DEB8B3244BB228092B519664390C590F3D
:10060000DEB8B3244BB2248B9230AD53005A0BDECC
:10061000B80735EC9A0E3A0C5B09DEB8C4B45F75C6
:10062000045C0CDEF8D3388DD3388DD3005D09DE41
:1006300078D4FEA843005E0BDEF8913089B29C2F7F
:10064000005F07DEF8F9E3306008DE78E29CBF0067
:10065000610EDEF81987244BB224B2E43000620E3A
:10066000DEB8D3EA1065499664C99013630CDEF8CE
:1006700019A72C49E32187016410DEF8B1B43424B2
:100680005992255934E43000650DDEF819A72C196C
:100690009478C86100660BDEF8212D1CD3EE14009F
:1006A000670FDEF81987244BB2248B86349A0068D2
:1006B0000FDEB8D3EA10654996644996C300690A0B
:1006C000DEF8919CA436EE046A0ADEF8919CA4F64A
:1006D00026026B0CDEB8D3A64AB645B51C066C08DC
:1006E000DEF8D53EEE046D0BDEF8D98628E97F876B
:1006F000016E0EDEF8D912494AB2244BB21C066FC5
:100700000CDEF819A72CC9922CDA09700FDEF8D983
:1007100086284BB2244B86284D01710EDEF81987CE
:10072000244BB2248B86B402720BDEF8D912494AEC
:10073000D23A0D730BDEF81987249E932127740B90
:10074000DEF891B438A6651D06750DDEF8D92A5974
:10075000922591258701760DDEF8D92A59946449AE
:10076000985300770ADEF8D992FEA72427780CDE8A
:10077000F8D94A495889B21C06790EDEF8D92A59A7
:1007800092255934A4D1047A0BDEF8D906B171D080
:1007900061007B0BDEF8C2B4314E9B23007C08DE87
:1007A000B8D2FE1D027D0BDE78E2B4394C1B43004B
:1007B0007E09DEF8A94A45E70D7F07DEF8F9370024
:1007C00000000004FFFF00006002030203040102B6
:1007D00004050900FE06FE07FF014B02B003F320EB
:1007E00006CDF4F9062109CDF4C376284701220984
:1007F000CD744A49CE0B00230CCDB49364502A83A8
:10080000522701240DCDB4B241C9B644A96C3900B8
:10081000250DCDB4072531294A22E52000260CCD2F
:10082000B4B3240B93B62407012708CDF4C39C234B
:10083000002808CDF41A5BCB002909CD34D2625BC5
:100840001D022A0ACDB4B328926A390D2B09CDF4C2
:1008500049D99613012C08CDF4B98559082D08CD36
:10086000F4E93A0B002E08CDF439E628002F0CCD20
:10087000F491300BB3300B4300300BCDB4A54A627A
:1008800029453A0A3109CDF433B16D0701320ACD59
:10089000B4A562561B7210330BCDB4A55A9A44917D
:1008A0008E02340CCDF4332989862CDB4100350CC3
:1008B000CD7487245C9328D25100360BCDB4A5703B
:1008C000AA44918E02370ACD7487302BD661003846
:1008D0000BCDB4A5925489221D05390BCDB4A54A80
:1008E000148D918E023A09CDF469399EA3003B0A1A
:1008F000CDF449391E6621003C09CDF4E1AC5A071C
:10090000013D0ACDF429433CE424003E09CDF4C165
:10091000B45687013F0ACDB4A55A1DCA6100400CE8
:10092000CDB4A54AA2244ABA8300410DCDB4A54A4C
:10093000940C4994443908420BCD74A7CA54899247
:100940001D05430ACDB4A54A588A7414440DCD74CC
:10095000A74A94444994EC2800450CCD7487249C04
:10096000C270C84100460ACD7487249CC23A014730
:100970000CCDB4A54A982851A4A300480FCD74A368
:10098000244A86244AA224CA41004909CDB4B7B0FA
:100990006D07014A0ACDF491B0258A74144B0CCD31
:1009A00074A3A4A469495407014C09CD74C38E43B0
:1009B0000E024D0FCD74A3644886244AA224CA4176
:1009C000004E0ECD74A344A928511225510E024F9A
:1009D0000DCDB4A54A94444914E92800500ACD74B9
:1009E000A74A944C614E510DCDB4A54A9444492276
:1009F000A93100520CCD74A74A944C952807015395
:100A00000BCDB4A5929A44918E025408CDB4B7B0E0
:100A10003B0A550ECD74A3244AA2244AA24847019A
:100A2000560DCD74A3244AA2244A6A390C570FCD1F
:100A300074A3244AA264488624CA4100580DCD7488
:100A4000A3248A34A912E52000590BCD74A3244AAB
:100A50006A611D065A0ACD7487306B1C72105B08E0
:100A6000CDB4B4B047195C0ACDB4C3344CC3340C14
:100A70005D08CD74C4BEE9005E08CDF4B324E7067A
:100A80005F07CDF4791D046008CD74D29C27006106
:100A90000CCDF4494B942452928300620BCD74C365
:100AA00070AA44C98E02630ACDF4495225DD410083
:100AB000640CCDF491305AA2248A7610650ACDF4E4
:100AC00049D290A43B08660ACDF4912CDBC23A0AC5
:100AD000670CCDF4494B9444D1184900680CCD748F
:100AE000C370AA4449948300690ACDF47344ACED01
:100AF00020006A09CDF47344EC96016B0BCD74C3EE
:100B00004AA425511D046C08CDB4C56E3B086D0C7C
:100B1000CDF42943525112A58E016E0BCDF4292537
:100B2000A5944439086F0ACDF44952258A7414708B
:100B30000BCDF42953254AA63004710BCDF4494B53
:100B40009444D158017209CDF42925A59813730A4C
:100B5000CDF449CB9AEC2800740ACDF4C36C0BD3C6
:100B60001C04750DCDF4295112258994E4200076DA
:100B70000BCDF429511225B51C06770BCDF42915A0
:100B80002551BA8300780ACDF42951A4497510790A
:100B90000DCDF42951122551344612007A0ACDF4B4
:100BA0002943561B72107B0ACDF48AB534AC26005B
:100BB0007C07CDB4C27E077D0ACD74D2B09A85B5CC
:100BC0000C7E09CDF449493B0B007F06CDF4F906B4
:100BD00000000004FFFF00001200040304050406E7
:100BE000050D1C00FE16FA1600000000000166202C
:100BF000060010F4002A14AA14F6242825A1E260A5
:100C0000C4C8E460422B4121002B0E9996FC33B6F8
:100C1000E6E081CDD81A002C0A53D6CB116111120F
:100C2000012D0839F6FCF081012E083316CC115144
:100C3000012F176A15F4B7D9DCB2B9657363647311
:100C40006373CBE696CDCD0130156B15F4537573F8
:100C5000204173E5FF5737140732573500310D66D1
:100C60001BF4B384E2E06066FF7F32196B15F45326
:100C70007573204173E511DDC2B985737374EBE8B8
:100C80000E3E28331A7BF5F3F0833ABA75740BE9FC
:100C90000A2907F742EA84E440C6300A00341B6B95
:100CA00015F433B8A1E04249C185224322332333EE
:100CB0002333071F540D6E03351D6B15F4F00781A8
:100CC0001B1EC41C881C4CD05C590D2EB4B2BAA19A
:100CD0003890B9AA01361E6B15F453757320417311
:100CE00065B8F020E640E46082E6CAAF6E280E6484
:100CF000AE6A0037186B15F4F00751464783EBE8EE
:100D000006D70D6E37B88E6E700A00381E6B15F45C
:100D1000537573204173E5D50DC581CC03099A89BC
:100D2000295FDD501CC85CD500391F6B15F4537565
:100D300073204173E5573714072307321483835612
:100D400056371407325735003A0BD376CC11510F72
:100D500018510100000004FFFF00006E2F61004FDA
:100D60004B004F4B004F4B00646F6573206E6F74E8
:100D70002066697420696E204D656D6F727900463A
:100D800061696C7572652C20454550524F4D20733A
:100D9000697A6520657863656564656420004D4601
:100DA0005374657070657220646F6573206E6F7424
:100DB0002066697420696E204D656D6F72790043FD
:100DC0007573746F6D2044657669636520646F6523
:100DD00073206E6F742066697420696E204D656D96
:100DE0006F727900437573746F6D20446576696323
:100DF0006520646F6573206E6F7420666974206966
:100E00006E204D656D6F727900437573746F6D2040
:100E1000446576696365206973206E6F742073750D
:100E200070706F72746564206279207468697320D1
:100E30006669726D776172652076657273696F6E2F
:100E4000004661696C757265206F6E207265616421
:100E5000696E6720636F6E666967004D6F626946F1
:100E60006C6967687420474E43323535204D65679D
:100E700061007E306D79335B5F707F7B771F0D3D46
:100E80004F470000000000000000000000000000CC
:100E900000000000000000000000000000008001D1
:100EA00080257E306D79335B5F707F7B00000009A9
:100EB000000000777F4E7E4F475F37307C000E008A
:100EC000767E677E775B463E000000336D4E13787A
:100ED0000008007D1F0D3D4F477B3730380006006E
:100EE000151D6773055B0F1C000000276D4E007811
:100EF0000000446576696365427566666572204FD9
:100F0000766572666C6F7721004C6F6164696E67FD
:100F100020636F6E666967206661696C65640000B6
:100F2000002100240027002A002D0030003300019A
:100F3000010000040107010A010000220025002829
:100F4000002B002E003100340002010000050108D2
:100F5000010B01000020002300260029002C002F97
:100F6000003200000100000301060109010505052A
:100F700005070508080808020202020A0A08080410
:100F8000040404010101010101010103030303033E
:100F9000030303040707070C0C0C0C0C0C0C0C02CD
:100FA00002020206060606060606060B0B0B0B0BD4
:100FB0000B0B0B01021020200808102040102040CD
:100FC000800201020108040201010204081020400D
:100FD000808040201008040201800402018040202B
:100FE0001008040201080402010102040810204054
:100FF00080010204081020408000000A0B02090C46
:101000000D0E0807030401000000000000000000AE
:1010100000000000000000000000000000000000D0
:10102000000000000012111000000000000000008D
:1010300000000000000000000000000000000000B0
:10104000C33F11241FBECFEFD1E2DEBFCDBF00E012
:101050000CBF14E0A0E0B2E0ECE1F2E900E00BBF6D
:1010600002C007900D92AC34B107D9F72AE1ACE485
:10107000B4E001C01D92A936B207E1F718E0C1E261
:10108000D8E000E006C021970109802FFE010E94F0
:101090007F47C032D10780E00807A9F70E945A4075
:1010A0000C940C490C940000AC0110924E199091D4
:1010B0001E1A80911D1AFA01BF01641B750B209145
:1010C0004E19308130934E19931304C0921302C00D
:1010D00010924E193081311104C0921721F0CB01CA
:1010E00008953817D1F33196E7CF0F931F93CF931D
:1010F000DF938091121A882309F446C0D0E0C0E043
:10110000813029F482E08093121AC2E5D9E18091FE
:10111000131A882341F1209721F4C091171AD09116
:10112000181A8E01CE010E945408892B29F42196A9
:10113000F80180818111F5CFF8018081882309F1C0
:10114000C8010E945408F801E80FF91F8081882324
:1011500011F010823196F093181AE093171A109339
:10116000161A0093151A8091151A9091161A892B48
:1011700059F081E08093131ADF91CF911F910F9165
:10118000089510E000E0EBCF80E0F6CF0E947508F4
:10119000882351F081E08093131A8093141A809170
:1011A000151A9091161A08951092141A90E080E082
:1011B0000895CF93DF93DC01FD01EC012881222308
:1011C00051F030911E1A231301C00196FC012081B9
:1011D0002D930196F1CFE817F90710F41192FBCF88
:1011E000DF91CF9108959B01DC011896ED91FC9160
:1011F00041E067E119948150823108F05AC0E82F2C
:10120000F0E08827E95FF64F8F4F0C947F4727095E
:101210002B0919091F09230959092E09340938090D
:101220003E09420946094C095009590954095A090D
:101230005E09809180008F7780938000089580916F
:1012400080008F7DF9CF80918000877FF5CF84B5B6
:101250008F7784BD089584B58F7DFBCF8091B000DA
:101260008F778093B00008958091B0008F7DF9CF83
:10127000809190008F7780939000089580919000E6
:101280008F7DF9CF80919000877FF5CF8091A0006E
:101290008F778093A00008958091A0008F7DF9CF73
:1012A0008091A000877FF5CF809120018F77809378
:1012B00020010895809120018F7DF9CF8091200138
:1012C000877FF5CFCF93DF93282F30E0F901E750E8
:1012D000F04F8491F901ED54F04FD491F901E359A5
:1012E000F04FC491CC23A1F081110E94FB08EC2F98
:1012F000F0E0EE0FFF1FED5AF04FA591B491EC9185
:10130000ED2381E090E009F480E0DF91CF91089532
:1013100080E090E0FACF1F93CF93DF93282F30E047
:10132000F901E750F04F8491F901ED54F04FD49159
:10133000F901E359F04FC491CC23A9F0162F811184
:101340000E94FB08EC2FF0E0EE0FFF1FE75CF04F70
:10135000A591B4918FB7F894EC91111108C0D09574
:10136000DE23DC938FBFDF91CF911F910895DE2B99
:10137000F8CFCF93DF9390E0FC01ED54F04F249130
:101380008359904FFC0184918823C9F090E0880F25
:10139000991FFC01E15EF04FA591B491FC01E75C5F
:1013A000F04FC591D49161110DC09FB7F8948C9105
:1013B000209582238C938881282328839FBFDF91E7
:1013C000CF910895623051F49FB7F8943C91822FE9
:1013D000809583238C93E8812E2BEFCF8FB7F894E1
:1013E000EC912E2B2C938FBFEACF1F93CF93DF93DB
:1013F000182FEB0161E00E94B909209739F460E0F1
:10140000812FDF91CF911F910C948B09CF3FD10594
:1014100011F461E0F5CFE12FF0E0E750F04FE491F7
:10142000E150E23108F0B3C0F0E08827E55EF54F07
:101430008F4F0C947F472D0A350A3A0A440A4E0A08
:10144000C70A580A600A680A720A7C0A860A950A5C
:101450009F0AC70AA90AB30ABD0A84B5806884BD79
:10146000C7BDDF91CF911F91089584B5806284BD7F
:10147000C8BDF7CF80918000806880938000D093B2
:101480008900C0938800EDCF8091800080628093B6
:101490008000D0938B00C0938A00E3CF80918000BE
:1014A000886080938000D0938D00C0938C00D9CF4A
:1014B0008091B00080688093B000C093B300D1CF1A
:1014C0008091B00080628093B000C093B400C9CF17
:1014D00080919000806880939000D0939900C09391
:1014E0009800BFCF80919000806280939000D0934D
:1014F0009B00C0939A00B5CF809190008860809344
:101500009000D0939D00C0939C00ABCF8091A00031
:1015100080688093A0008091A0008F7B8093A000C2
:10152000D093A900C093A8009CCF8091A0008062B6
:101530008093A000D093AB00C093AA0092CF80917B
:10154000A00088608093A000D093AD00C093AC0051
:1015500088CF80912001806880932001D093290159
:10156000C09328017ECF809120018062809320016A
:10157000D0932B01C0932A0174CF80912001886001
:1015800080932001D0932D01C0932C016ACFC038E5
:10159000D1050CF03ECF33CF3FB7F89480913B1488
:1015A00090913C14A0913D14B0913E1426B5A89B97
:1015B00005C02F3F19F00196A11DB11D3FBFBA2FE5
:1015C000A92F982F8827BC01CD01620F711D811DA5
:1015D000911D42E0660F771F881F991F4A95D1F72A
:1015E00008958F929F92AF92BF92CF92DF92EF9227
:1015F000FF926B017C010E94CC0A4B015C01C1147B
:10160000D104E104F104B9F00E94CC0A6819790907
:101610008A099B09683E73408105910580F321E0AA
:10162000C21AD108E108F10888EE880E83E0981EFE
:10163000A11CB11CE4CFFF90EF90DF90CF90BF9042
:10164000AF909F908F9008952FB7F89460913714C2
:10165000709138148091391490913A142FBF0895E5
:10166000DC01ED91FC910190F081E02D1994EF9255
:10167000FF920F931F93CF93DF937C0160911D1A0C
:1016800080911A1A90911B1A0E94300B00911A1A1D
:1016900010911B1AE701FE016491662359F0D801ED
:1016A000ED91FC910190F081E02DC80119952196F2
:1016B000892B89F7DF91CF911F910F91FF90EF90C8
:1016C0000895AF92BF92CF92DF92EF92FF920F9365
:1016D0001F93CF93DF936C017B018B01040F151FC8
:1016E000EB015E01AE18BF08C017D10759F0699130
:1016F000D601ED91FC910190F081E02DC601199584
:10170000892B79F7C501DF91CF911F910F91FF9040
:10171000EF90DF90CF90BF90AF900895FC01538D74
:10172000448D252F30E0842F90E0821B930B5417BB
:1017300010F0CF96089501970895FC01918D828D48
:10174000981779F0A28DAE0FBF2FB11D5D962C9129
:10175000828D8F5F60E60E945F47928F822F90E0BC
:1017600008958FEF9FEF0895FC01918D828D98175A
:1017700031F0828DE80FF11D858D90E008958FEF97
:101780009FEF0895FC01918D228D892F90E0805A62
:101790009F4F821B910960E670E00E946B4708959D
:1017A0008CE898E10E94C20B21E0892B09F420E02B
:1017B000822F0895FC01A48DA80FB92FB11DA35845
:1017C000BF4F2C91848D90E001968F739927848F61
:1017D000A689B7892C93A089B1898C918370806484
:1017E0008C93938D848D981306C00288F389E02D25
:1017F00080818F7D80830895EF92FF920F931F93D6
:10180000CF93DF93EC0181E0888F9B8D8C8D9813B3
:101810001AC0E889F989808185FF15C09FB7F894BF
:10182000EE89FF896083E889F9898081837080640B
:1018300080839FBF81E090E0DF91CF911F910F9156
:10184000FF90EF900895F62E0B8D10E00F5F1F4F65
:101850000F731127E02E8C8D8E110CC00FB607FC74
:10186000FACFE889F989808185FFF5CFCE010E9402
:10187000DA0BF1CFEB8DEC0FFD2FF11DE358FF4F8D
:10188000F0829FB7F8940B8FEA89FB898081806290
:10189000CFCFCF93DF93EC01888D8823B9F0AA894D
:1018A000BB89E889F9898C9185FD03C0808186FD1B
:1018B0000DC00FB607FCF7CF8C9185FFF2CF80816A
:1018C00085FFEDCFCE010E94DA0BE9CFDF91CF91FA
:1018D000089580E090E0892B29F00E94D00B8111BF
:1018E0000E94000080E090E0892B49F080E090E0C9
:1018F000892B29F00E94000081110E94000080E0E5
:1019000090E0892B49F080E090E0892B29F00E943B
:10191000000081110E94000080E090E0892B49F0D6
:1019200080E090E0892B29F00E94000081110C9446
:101930000000089580E00895DC011A96ED91FC9175
:1019400030E020E01994DC011496ED91FC9130E038
:1019500020E040E060E11994DC011696ED91FC91E5
:1019600030E020E040E069E11994DC011696ED9149
:10197000FC9130E020E040E068E119949A01DC013C
:101980001696ED91FC91462F67E11994EF92FF9224
:101990000F931F93CF93DF931F92CDB7DEB77C01D8
:1019A0008B01D8016C91673129F150F46531A0F4B5
:1019B0000F90DF91CF911F910F91FF90EF900895BD
:1019C0006A3118F16E3FA1F7F8014181498369E25C
:1019D000C7010E949C0C0BC0F80141814983D701CB
:1019E0001696ED91FC9130E020E0C70119950E5F4D
:1019F0001F4FD7CFF80181818983AE014F5F5F4FC1
:101A000061E0C7010E94BE0CF2CF0F5F1F4FD701EC
:101A10001696ED91FC9130E020E040E0C701199569
:101A2000C0CF462FDC011696ED91FC9130E020E00E
:101A300066E11994462FDC011696ED91FC9130E099
:101A400020E065E119947F928F929F92AF92BF92AE
:101A5000CF92DF92EF92FF920F931F93CF93DF937A
:101A6000EC01B42E79016A30D9F06D3009F451C01F
:101A7000693009F060C087E293E0998388838CE144
:101A80008C8B81E0DF91CF911F910F91FF90EF90B0
:101A9000DF90CF90BF90AF909F908F907F900895F0
:101AA000EA85FB8530E020E040E068E21995EE81B0
:101AB000FF8130E020E040E064E1CE01199541E093
:101AC0006BE4CE010E949C0CE881F981448169E2BB
:101AD000CE010E949C0C40E06BE4CE010E949C0C65
:101AE000E881F981448169E2CE010E949C0C41E0C9
:101AF0006BE4CE010E949C0CE881F981458169E28A
:101B0000CE010E949C0C64ED72E0CE010E94C60CD6
:101B1000B8CF411108C068EB72E00E94C60CE881A2
:101B2000F9818289ADCF6BEC72E00E94C60CE8812E
:101B3000F9818389A5CF6E3069F06F30C9F080E0FC
:101B40006B3009F09FCF66EC72E04423F1F261EC58
:101B500072E0DBCF0E94B50C61ECCE010E941A0D41
:101B60006B2DCE010E94110DCE010E94AC0C89CFCD
:101B70000E94B50CF7011381110F8C89180F048195
:101B8000000F000F000F65E7CE010E941A0D602FB5
:101B9000CE010E94110D67E0600FCE010E94110D71
:101BA000F7010281C080D180702EA12E65E1CE01A7
:101BB0000E941A0D6A2DCE010E94110D61E06A0D7E
:101BC000CE010E94110D6CE5CE010E941A0D88EE27
:101BD00093E14601F8E08F0E911CF601DC01608173
:101BE000518132969C01205E3F4F40EF60FF40E004
:101BF00050FD4F604C931496669556952A173B07F7
:101C0000A1F701968E169F0649F748EE53E160E270
:101C1000CE010E94BE0C6401A394A3947A94711027
:101C2000C5CF000F100FBA94B110BACF9DCFCF938C
:101C3000DF931F92CDB7DEB76983BE016F5F7F4F21
:101C40000E94F3080F90DF91CF910895462FDC0199
:101C50001896ED91FC9130E020E060E21994EF924B
:101C6000FF920F931F93CF93DF93EC01162F042F56
:101C700079016631C9F038F4643149F060E015311A
:101C8000A1F080E01AC06731F9F06A31D0F7E88539
:101C9000F9859701402F612FCE01DF91CF911F91E0
:101CA0000F91FF90EF90199461E0CE010E94260EF3
:101CB000602FCE010E94170E81E0DF91CF911F911E
:101CC0000F91FF90EF90089561E00E94260EDFCF04
:101CD000662329F06A3019F0862F90E008958FEF7F
:101CE0009FEF08950F93FC01E05CFF4F0190F0819E
:101CF000E02D4E1B5F0BDC01D496ED91FC91199504
:101D00000F910895CF93DF93FC01A081B18182AD43
:101D100090E09C0143E0220F331F4A95E1F737AF73
:101D200026AF50962C91509748E0249F90011124A3
:101D300035AF24AF23AD30E0B90153E0660F771F14
:101D40005A95E1F7EF01C05CDF4F798368835196C4
:101D50004C915197E901C80FD91F50E04C175D070E
:101D600018F4CA01821B930BEF01CE5BDF4F79831E
:101D70006883229623E0880F991F2A95E1F7860F42
:101D8000971F99838883229654968D919C9155979D
:101D900099838883E85BFF4F56968D919C91918340
:101DA0008083DF91CF910895AF92BF92CF92DF925F
:101DB000EF92FF920F93CF93DF93EC01DA01790159
:101DC000942F9770E1E0F0E09F01092E01C0220FEF
:101DD0000A94EAF7522F6E018AE8C80ED11CF60168
:101DE000808140E0823018F4422F813049F15D015A
:101DF000F8EFAF22E8ADF9AD28813981D9015096CD
:101E00008C918A9D90018B9D300D1124620F731F60
:101E1000DF01A60FB71F01111AC0EA0EFB1E8C913D
:101E2000842B85278D93AE15BF05C9F7DF91CF9120
:101E30000F91FF90EF90DF90CF90BF90AF900895FB
:101E400050E0D5CF440F550FE114F10479F33C91E4
:101E5000342B35273C939F5F9770E1E0EE1AF10831
:101E60009111F0CF2CAD3DADA20FB31FF6018081D3
:101E7000823028F4813009F051E041E0E5CF51E0B3
:101E8000E3CF0F931F93FC01E25BFF4F0190F081C2
:101E9000E02DDC01A05BBF4F0D90BC91A02D4A1737
:101EA0005B0740F4E017F10748F00417150730F01E
:101EB00080E019C0E017F107C0F3FACFFC01E65B40
:101EC000FF4F40815181845B9F4FFC018081918154
:101ED0006817790758F481E04217530720F081E032
:101EE0002617370728F71F910F91089542175307B8
:101EF000B0F3DECF2F923F924F925F926F927F921C
:101F00008F929F92AF92BF92CF92DF92EF92FF9209
:101F10000F931F93CF93DF9300D000D000D01F9278
:101F2000CDB7DEB79A878987865B9F4F9A8389836F
:101F3000FC0111821082E985FA85EA5BFF4F40803F
:101F4000518029853A85245B3F4F3C832B83F901DF
:101F500051824082E985FA85EE5BFF4F2080318017
:101F600029853A85225B3F4F3E832D83F9013182DB
:101F70002082E985FA85EC5BFF4F608071802985BE
:101F80003A85205B3F4F38872F83F9017182608249
:101F9000E985FA85E85AFF4FE080F180E985FA8506
:101FA000EC5AFF4FA080B180E985FA85EA5AFF4FCD
:101FB000C080D180E985FA85EE5AFF4F80809180FC
:101FC00087019501A601B40189859A850E94410F78
:101FD00029853A852C573F4F3A87298781111BC0A5
:101FE000F90110822A960FB6F894DEBF0FBECDBF5E
:101FF000DF91CF911F910F91FF90EF90DF90CF90E5
:10200000BF90AF909F908F907F906F905F904F9018
:102010003F902F90089581E0E985FA8580838114AF
:10202000910421F0E981FA8191828082A414B5049F
:1020300020F4EB81FC81B182A0822C143D0420F4B9
:10204000ED81FE81D182C082E614F70458F6EF815B
:10205000F885F182E082C6CF86579F4FFC016083EE
:1020600008950F93CF93DF93E02FDC01AC57BF4F60
:10207000FC91FF2309F460C02115310509F45CC00F
:102080002230310538F0023009F04AC06F5F7F4FCF
:10209000621B730B0E2F0170E0FD52C0FC01E25B6E
:1020A000FF4F0190F081E02D4E175F0708F444C008
:1020B000FC01E05BFF4F0190F081E02D4E175F07C0
:1020C000D8F5FC01E45BFF4F0190F081E02DDC01CD
:1020D000A65BBF4F0D90BC91A02D260F371F261772
:1020E000370738F56E177F0718F59F012150310922
:1020F000A217B30708F56A177B0708F4BD012E176E
:102100003F0708F4F901E61BF70BEC01AEA9BFA9E4
:1021100014960D90BC91A02D9F01FD0119950CC046
:10212000033009F0B7CF4F5F5F4F421B530BB2CF65
:10213000BD016E177F07E0F2DF91CF910F910895F7
:10214000FC01E65BFF4F0190F081E02D6E177F07E9
:1021500098F3FC01E45BFF4F0190F081E02D6E17D6
:102160007F0750F7FC01E05BFF4F0190F081E02D0D
:10217000DC01A25BBF4F0D90BC91A02D240F351F39
:1021800024173507A8F44E175F0788F49F012150E4
:102190003109A217B30780F64A175B0708F4AD01AF
:1021A0002E173F0708F4F901E41BF50BAECFAD0184
:1021B0004E175F0708F6EDCF90E080E008952130DC
:1021C00069F038F0223079F0840F911D47FD9A951F
:1021D0000895860F911D67FD9A950895841B9109B6
:1021E00047FD93950895861B910967FD9395089582
:1021F000213069F038F0223079F0861B910967FDB3
:1022000093950895840F911D47FD9A950895860F23
:10221000911D67FD9A950895841B910947FD93953B
:1022200008953F924F925F926F927F928F929F920A
:10223000AF92BF92CF92DF92EF92FF920F931F93D4
:10224000CF93DF937C01162F442EEC01C25ADF4F4F
:102250005E806F806C018AE8C80ED11C7884751886
:10226000312E711608F4372C8C809D800E85202F1E
:10227000462D652D8A819B810E94DF105C01202FF5
:10228000462D652DC4010E94F810AC01442079F060
:102290008C85F6018083232D30E0B501C7010E94B3
:1022A0003110171548F017196394512CD7CF8B852F
:1022B0008111F7CF8D85EDCF150D1E836F82DF91D4
:1022C000CF911F910F91FF90EF90DF90CF90BF9033
:1022D000AF909F908F907F906F905F904F903F90C6
:1022E0000895DC011A964C911A97ED91FC91119783
:1022F000249130E0042E02C0359527950A94E2F728
:10230000842F860F883068F031961196FC93EE93F7
:10231000E49198E0941B01C0EE0F9A95EAF72E2BFA
:1023200088501A968C938FEF9FEF01C0880F6A95A3
:10233000EAF78095822308950F931F93CF93DF933D
:102340008C01EC01C25ADF4F798368831A86FC0145
:10235000EF58FF4F6081CE010E9471118887F8010C
:10236000EE58FF4F6081CE010E9471118987F801FC
:10237000E657FF4F90819C8781E0911180E08D8727
:10238000DF91CF911F910F910895CF93C62F0E9497
:102390007111C15021E030E001C0220FCA95EAF767
:1023A000821BCF910895FC01E60FF11D849190E00E
:1023B000982F88273196E4918E0F911D0895EF9202
:1023C000FF920F931F93CF93DF93FC01E65AFF4FC9
:1023D00020813181295E3F4F6F3F710509F048F53B
:1023E00061367105D8F080589F4FFC018081918142
:1023F000280F391FC9010196FC014491442309F4B7
:1024000047C0F90144914617170671F40196DF9110
:10241000CF911F910F91FF90EF9008956134710556
:1024200048F382589F4FE1CFFC018491280F311D62
:10243000E1CF8B01FC01EE57FF4FC081D181C20F6C
:10244000D31F7E0160E0C7010E94D311C80FD91FBE
:1024500062E0C7010E94D311F4E0EF0EF11C801777
:10246000910780F3FE01849190E0982F88273196A0
:10247000E4918E2B009761F00817190719F4CE012B
:102480000396C5CFFE013296E491CE0FD11DEACF5F
:1024900090E080E0BCCF3F924F925F926F927F922C
:1024A0008F929F92AF92BF92CF92DF92EF92FF9264
:1024B0000F931F93CF93DF9300D000D0CDB7DEB73B
:1024C0009E838D833C0126E6620E711CD3011C9213
:1024D000FC01108E6B0120EC322EF12CE12C10E06F
:1024E00000E04C01F8E88F0E911C5C012EE5A20E75
:1024F000B11C8D589F4F9A838983AD81BE81AC58A2
:10250000BF4FBC83AB834D805E80B5E74B0E511C43
:10251000F60161916F01AD81BE811296ED91FC9142
:102520001397CD0119958F3F980781F18E3FEFEFFB
:102530009E0771F3BC018D819E810E94DF1100977F
:1025400019F1BC018D819E810E949C11A981BA81E3
:102550006C91C5010E94C511F4018083AB81BC81DF
:102560006C91C5010E94C511F2016081C5010E94F4
:10257000C511E82E880FFF08F0EC3F1202C0D4010D
:102580003C900E0D1F1DC4CF80E0F3CFF30180817E
:102590008823B9F02D813E8128573F4FD9012C91D6
:1025A000082E000C990B820F911D27FD9A95080F9C
:1025B000191F0E191F09131424F4030D111D37FCE4
:1025C0001A95C80126960FB6F894DEBF0FBECDBF90
:1025D000DF91CF911F910F91FF90EF90DF90CF90FF
:1025E000BF90AF909F908F907F906F905F904F9033
:1025F0003F900895AF92BF92CF92DF92EF92FF92F9
:102600000F931F93CF93DF9300D01F921F92CDB7EC
:10261000DEB78C01DC01DA96AC90DA97DB96EC90B1
:10262000DB97ED91FC91B188FE2CD12CC12CD80107
:10263000ED91FC9111978089D8962D913C911C8247
:10264000FD828B83B8E08B9FC00111248C9DA0017B
:102650008D9D500D9C9D500D1124240F351F3A83E4
:102660002983D8011496ED91FC919E012F5F3F4F75
:1026700041E06FE0C8011995F3948F2D8E198A15EA
:1026800028F4BFEFCB1ADB0AFB1488F20F900F90EF
:102690000F900F900F90DF91CF911F910F91FF90AE
:1026A000EF90DF90CF90BF90AF900895CF93DF93DE
:1026B000EC010E94FA12CE01DF91CF910C94A30C91
:1026C0000F931F93CF93DF938C01C62F642FCC32CF
:1026D000E8F4CA3208F041C0C83271F1C93209F4D5
:1026E00042C080E0C034D0F1CF73F801EC0FF11D8F
:1026F000868D8F3F91F1C031E0F00E94620921E0A8
:10270000892B09F420E0F801218F27C0CD3289F10F
:1027100040F384EB8C0F823020F7CF73C00FD12FA2
:10272000D11D8E8D411133C061E00E94B90960E076
:102730008E8D0E948B0911C0025E1F4FD0E0F80100
:1027400081918F018F3F31F061E0D03108F062E07C
:102750000E94B909DF5FD63191F781E0DF91CF9117
:102760001F910F91089570E090E080E00E94F10ABF
:10277000F4CF85E090E0433010F082E090E0880FE5
:10278000991F880F991F05970197F1F7E6CF62E02F
:102790000E94B909E2CFAF92BF92CF92DF92EF923F
:1027A000FF920F931F93CF93DF936B017A01EC019C
:1027B000CD51DC4E28813CE0389F8001399F100DBF
:1027C0001124A090E213B12C27FF1FC0FB0111823E
:1027D000108288818F5F888388819801280F311D3E
:1027E00087FD3A95F6012A153B051CF488818C304B
:1027F000C4F180819181049680349C4908F473C0AF
:10280000F60180819181049670C088819801280F1B
:10281000311D87FD3A952A153B05DCF68881A80114
:10282000480F511D87FD5A95FA01EE0FFF1FE40F67
:10283000F51FEE5AFC4E808186FFCBCF8881F801D0
:10284000E80FF11D87FDFA95CF01EE0FFF1FE80F8E
:10285000F91FEE5AFC4E808160E08F730E948B0955
:10286000B8CF808191812881A801420F511D27FD99
:102870005A959A01FA01EE0FFF1FE20FF31FEE5A6D
:10288000FC4E21813281820F931FF7019183808357
:1028900088819801280F311D87FD3A95F901EE0FC7
:1028A000FF1FE20FF31FEE5AFC4E808186FF22C00D
:1028B0008881080F111D87FD1A95F801EE0FFF1F83
:1028C000E00FF11FEE5AFC4E808161E08F73DF91C3
:1028D000CF911F910F91FF90EF90DF90CF90BF901D
:1028E000AF900C948B0980E49CE9F701918380837D
:1028F0008FEF8883DF91CF911F910F91FF90EF9021
:10290000DF90CF90BF90AF90089520912D13260FA8
:102910003327331F21323105ECF420916514FC017B
:1029200090E080E0243069F082E00895A0912D13BA
:102930002191AC01455F5C4EA40FB52FB11D2C93C6
:102940000196861798F380912D13680F60932D13CD
:1029500080E0089581E008951092651481E08093ED
:10296000641410923F1461E084E10E948B0961E0DD
:1029700085E10E948B09E9EBF0E080818E7F808306
:1029800080818D7F808388E48093B80085E4809384
:10299000BC000895CF93DF9391E090930A138823AE
:1029A000B9F0C091B800D091BA008091BC008A7B88
:1029B0008093BC0060E084E10E948B0960E085E1C7
:1029C0000E948B090E94AC14D093BA00C093B80047
:1029D000DF91CF9108958F929F92AF92BF92CF9245
:1029E000DF92EF92FF920F931F93CF93DF93D091DB
:1029F0008E14D13208F0D7C0182FC0918D140E94C8
:102A0000CC0A6B017C018091651481116BC082E05E
:102A100080936514109364148FEF80936314109265
:102A20006214D0936114ADE6B4E1E1E4F4E180E036
:102A3000D81391C01092401480914014CC0FC82B31
:102A4000C093401480913F14813009F088C01092E7
:102A50003F140E94CC0A6B017C018091401480934A
:102A6000BB008091671490916814A0916914B09193
:102A70006A14892B8A2B8B2BA1F00E94CC0A00911F
:102A80006714109168142091691430916A146C19BC
:102A90007D098E099F09061717072807390708F4CB
:102AA00042C08091BC0083FDD8CF85EC8093BC00F0
:102AB0000E94CC0A6B017C0180916514823009F47C
:102AC00050C0809163148F3F09F46FC080916314EC
:102AD000803209F46CC080916314803309F469C0BA
:102AE00084E026C08091671490916814A0916914C5
:102AF000B0916A14892B8A2B8B2B09F484CF0E9406
:102B0000CC0A8090671490906814A0906914B090DB
:102B10006A146C197D098E099F0986169706A80606
:102B2000B90608F070CF809166140E94CA1485E03F
:102B300010926C1410928E1410926B14DF91CF913E
:102B40001F910F91FF90EF90DF90CF90BF90AF90CB
:102B50009F908F9008959D9191938F5F69CF85EE9F
:102B6000A5CF8091671490916814A0916914B091D9
:102B70006A14892B8A2B8B2B09F49ECF0E94CC0AD6
:102B800000916714109168142091691430916A14AF
:102B90006C197D098E099F09061717072807390741
:102BA00008F08ACFC0CF81E0C3CF80E0C1CF82E000
:102BB000BFCF83E0BDCF81E00C94EB14089508955E
:102BC0000895E091091380910813E81730F4F0E0BC
:102BD000E851FD4E808190E008958FEF9FEF0895BA
:102BE00090910913809108132FEF3FEF981748F445
:102BF000E92FF0E0E851FD4E208130E09F5F909397
:102C00000913C90108958091081390910913891B34
:102C1000990B0895CF92DF92EF92FF920F931F933B
:102C2000CF93DF937C01CB018A0120916B14222387
:102C300089F0EB016B01C40ED51ECC15DD0569F0E2
:102C40006991D701ED91FC910190F081E02DC701D0
:102C50001995F3CF642F0E948514C801DF91CF919D
:102C60001F910F91FF90EF90DF90CF900895CF9339
:102C7000DF931F92CDB7DEB7698320916B142223B7
:102C8000F9F020918E14203258F021E030E0FC0160
:102C90003383228390E080E00F90DF91CF910895FD
:102CA00080916C14E82FF0E0E359FB4E99819083FA
:102CB0008F5F80936C1480938E1481E090E0ECCF52
:102CC00061E0CE0101960E948514F7CFCF93C82F03
:102CD000682F646087E798E10E9437166C2F70E0D8
:102CE0006B7F87E798E1CF910C9437160F931F9372
:102CF000CF93DF938C01C62FD42FFC01848191E008
:102D000090936B1480938D1410926C1410928E1407
:102D1000862F807F842B9585892B0E946616F0E193
:102D2000CF9FC0011124F8019585892B8D2B0E941E
:102D30006616DF91CF911F910F910C94DB15CF9305
:102D4000DF9300D000D01F921F92CDB7DEB728E0EE
:102D5000EFE3F2E0DE01119601900D922A95E1F782
:102D6000FC012385241710F44FEF420F50E0440F6D
:102D7000551F21E030E02C0F3D1F420F531FFA0179
:102D80002081620F606840E028960FB6F894DEBF9D
:102D90000FBECDBFDF91CF910C947616CF93DF930A
:102DA000EC0140E061E00E9476168BE39FE1019721
:102DB000F1F78985882339F040E060E0CE01DF91AA
:102DC000CF910C949F16DF91CF91089541E00E941E
:102DD000761681E090E00895FC01248131E0309383
:102DE0006B1420938D1410926C1410928E14607FCB
:102DF0008585862B0E9466160C94DB15AF92BF92D8
:102E0000CF92DF92EF92FF920F931F93CF93DF93B6
:102E10006C01FC01848191E090936B1480938D147C
:102E200010926C1410928E14EB01042F10E05B01D1
:102E3000A00EB11EF12CEE24E394CA15DB0541F17E
:102E40008991F60195859160807F892B0E94661695
:102E5000FE0131972081F0E12F0290011124F6014B
:102E600085858160822B0E946616F394F7E0FF153A
:102E700020F780E00E94EB14F6018481E0926B144D
:102E800080938D1410926C1410928E14F12CD5CF67
:102E90000E94DB15C8010197DF91CF911F910F911F
:102EA000FF90EF90DF90CF90BF90AF900895CF93B9
:102EB000DF93FC012381222359F1EC0161E084813D
:102EC0000E94B90961E08D810E94B9098B8184302B
:102ED00011F08830B1F461E08E810E94B90961E09F
:102EE0008F810E94B9098FA58F3F91F061E00E9408
:102EF000B9096EA581E068278FA5DF91CF910C9469
:102F00008B09833011F0863071F761E08E81E9CF53
:102F1000DF91CF910895CF93DF93FC01238122238A
:102F2000A9F0EC010190F081E02D0480F581E02D05
:102F300060E019958FA58F3F49F061E00E94B909C3
:102F40006EA58FA5DF91CF910C948B09DF91CF9166
:102F50000895DC01ED91FC91119724813581477032
:102F60005527662777274150510961097109473074
:102F700051056105710570F4FA018827ED53F84E8B
:102F80008F4F0C947F47CE17D017D217D417D61770
:102F9000D817DA1761E0CD01F901199465E0FBCF8C
:102FA00064E0F9CF66E0F7CF62E0F5CF6AE0F3CFF7
:102FB00068E0F1CF69E0EFCFCF93DF93EC01CB0175
:102FC000BA0126E030E040E050E00E94EC4662307A
:102FD00071058105910589F16CF461157105810513
:102FE0009105D1F06130710581059105F9F0DF910E
:102FF000CF910895643071058105910561F124F147
:10300000653071058105910591F7E881F9810480AA
:10301000F581E02D66E006C0E881F9810480F58144
:10302000E02D64E0CE01DF91CF911994E881F98120
:103030000480F581E02D65E0F5CFE881F981048019
:10304000F581E02D61E0EECFE881F9810480F58122
:10305000E02D63E0E7CFE881F9810480F581E02D80
:1030600062E0E0CFDC01ED91FC910480F581E02D80
:103070004370552766277727423051056105710552
:1030800071F0433051056105710559F0413051052A
:103090006105710511F065E0199466E0FDCF6AE005
:1030A000FBCF69E0F9CFCF93DF93EC01CB01BA01FD
:1030B00023E030E040E050E00E94EC4661307105D2
:1030C0008105910599F06230710581059105A9F09E
:1030D000672B682B692BC1F4E881F9810480F581A5
:1030E000E02D64E0CE01DF91CF911994E881F98160
:1030F0000480F581E02D61E0F5CFE881F98104805D
:10310000F581E02D62E0EECFDF91CF910895DC01F3
:10311000ED91FC910480F581E02D437055276627E1
:103120007727423051056105710571F04330510533
:103130006105710559F0413051056105710511F0C6
:1031400062E0199463E0FDCF61E0FBCF60E0F9CF6E
:10315000CF93DF93EC01E881F9810480F581E02DC4
:103160008A8160E0811162E0CE011995E881F981E0
:103170000480F581E02D8A8161E0811163E0CE0158
:1031800019958CA59DA58230910538F0880F991F5F
:10319000880F991F05970197F1F7E881F98104805D
:1031A000F581E02D8A8160E0811162E0CE01DF913E
:1031B000CF911994CF93DF93EC0120E030E0A90187
:1031C0006C897D898E899F890E949C4818162CF4F1
:1031D000E8A9F9A9DF91CF911994EAA9FBA9FACF3F
:1031E000CF92DF92EF92FF920F931F93CF93DF93D3
:1031F000DC011396CC91C43039F0C83059F1C3309A
:1032000019F0C63049F1C2E08C010C5F1F4FF12C60
:10321000E12CC62ED12CD1E0F8016481C6010E2C20
:1032200002C0959587950A94E2F780FD6D270F5FA0
:103230001F4F80810E948B09BFEFEB1AFB0AEC162F
:1032400058F3DF91CF911F910F91FF90EF90DF9096
:10325000CF900895C4E0D8CFC3E0D6CFDC01139659
:10326000EC911397E93008F042C0F0E08827E45C65
:10327000F64E8F4F0C947F4745194D1954195B1921
:1032800062197719691977197019ED91FC911197E5
:103290000084F185E02DCD011994ED91FC911197F9
:1032A0000284F385E02DF7CFED91FC911197048412
:1032B000F585E02DF0CFED91FC9111970684F7850F
:1032C000E02DE9CFED91FC9111970088F189E02D77
:1032D000E2CFED91FC9111970288F389E02DDBCFCD
:1032E000ED91FC9111970488F589E02DD4CF0895D4
:1032F0004F925F926F927F928F929F92AF92BF9206
:10330000CF92DF92EF92FF920F931F93CF93DF93B1
:10331000EC01C888D988EA88FB888C859D85AE85B4
:10332000BF85C81AD90AEA0AFB0A6C897D898E8989
:103330009F899B01AC010E9418464B015C016C8D7A
:103340007D8D8E8D9F8D9B01AC010E9488479B01D6
:10335000AC01C501B4010E94F4470E946648C11443
:10336000D104E104F10409F0B1C0623071058105B6
:1033700091050CF0CBC01CA21DA21EA21FA21C8A8C
:103380001D8A1E8A1F8A1CAA1DAA1EAA1FAADF91B7
:10339000CF911F910F91FF90EF90DF90CF90BF9052
:1033A000AF909F908F907F906F905F904F90089517
:1033B0001016110612061306B4F46C157D058E0561
:1033C0009F051CF42A812111A1C09B01AC01882713
:1033D0009927DC01821B930BA40BB50B8CAB9DAB27
:1033E000AEABBFAB93C0011511052105310509F442
:1033F0008DC06C157D058E059F050CF087C08A81F8
:10340000882309F483C030952095109501951F4FAE
:103410002F4F3F4F0CAB1DAB2EAB3FAB77C0011511
:1034200011052105310509F471C08824992454013E
:103430008C189D08AE08BF08681579058A059B059C
:103440000CF064C08A81811161C0DDCFCCACDDACF1
:10345000EEACFFACA7019601C701B6010E948847F8
:103460002B013C01C501B4010E94B94520E030E0C8
:1034700040E850E40E94184620E030E040E85FE376
:103480000E9488479B01AC01C301B2010E94F4472E
:103490009B01AC01C701B6010E9487473B016C014B
:1034A000FE01E05CFF4FE080F18002811381970113
:1034B000A8010E949C48181614F473018601C701E4
:1034C000D8018CAF9DAFAEAFBFAF3AC00CA91DA95C
:1034D0002EA93FA91C141D041E041F040CF468CF60
:1034E00010161106120613060CF099CF00271127AB
:1034F00098010C191D092E093F09601771078207F1
:1035000093070CF062CF2A8121115FCF8CA89DA870
:10351000AEA8BFA881149104A104B10409F096CF0C
:1035200088AD99ADAAADBBAD8CAF9DAFAEAFBFAF0F
:1035300081E01C141D041E041F040CF080E08A832B
:103540003FEF831A930AA30AB30A8CAA9DAAAEAAD4
:10355000BFAACCACDDACEEACFFACC701B6010E949B
:103560006D486CA37DA38EA39FA3A701960160E085
:1035700074E284E799E40E94F4476C8B7D8B8E8B18
:103580009F8B2A81211103CF90586C8B7D8B8E8B62
:103590009F8BFDCECF92DF92EF92FF920F931F93FE
:1035A000CF93DF93EC016A017B0120E030E0A901B9
:1035B000CB01B6010E94B24587FF04C0F7FAF09430
:1035C000F7F8F094A7019601688D798D8A8D9B8D0F
:1035D0000E94B245882309F446C0C88ED98EEA8E6F
:1035E000FB8E8E01005C1F4FA701960160E074E224
:1035F00084E799E40E94F447F80160837183828331
:1036000093838CA99DA9AEA9BFA9181619061A06FD
:103610001B064CF56C897D898E899F899B01AC01C5
:103620000E9418466B017C016C8D7D8D8E8D9F8D67
:103630009B01AC010E9488479B01AC01C701B60108
:103640000E94F4470E9466486CAB7DAB8EAB9FAB8B
:10365000CE01DF91CF911F910F91FF90EF90DF90FE
:10366000CF900C947819DF91CF911F910F91FF901B
:10367000EF90DF90CF9008958F929F92AF92BF927C
:10368000EF92FF920F931F93CF937C018B01C42F76
:103690000E94240BF80180809180A280B380DC011D
:1036A000CB0188199909AA09BB094C2F50E070E099
:1036B00060E084179507A607B70748F0F70119954A
:1036C0000E94240BF8016083718382839383CF91DE
:1036D0001F910F91FF90EF90BF90AF909F908F90B0
:1036E00008952091E6123091E712280F391F81E0EA
:1036F0002134364008F080E00895FC018081882361
:10370000F9F084818823E1F08181811119C081E081
:10371000818382819381FC01408951896289738907
:10372000403659476E4F7F4F59F040E659E76EEFEC
:103730007FEFFC01408B518B628B738B0C9478195B
:1037400008954F925F926F927F928F929F92AF9265
:10375000BF92CF92DF92EF92FF920F931F93CF937E
:10376000DF93D12CA7E1CA2E08E810E0B8E5EB2ED4
:10377000B2E0FB2EC4EB4C2E512C612C712C8091AD
:10378000A50CD81608F096C0C091A30CD091A40C3B
:10379000DC9CC00DD11D112489899A89AB89BC8913
:1037A0004D855E856F85788984179507A607B707CD
:1037B00009F47AC0481759076A077B070CF076C0EE
:1037C0000197A109B109898B9A8BAB8BBC8BA98915
:1037D000BA89A03282E0B807ACF52B854801821A7D
:1037E000910827FD9394880C991C880C991C092C2E
:1037F000000CAA08BB082C85C701821B910927FD74
:1038000093959C01220F331F220F331F032E000CB0
:10381000440B550B281939094A095B09A53BB10529
:1038200014F0A4EBB0E0B7FF02C0B0E0A0E00E944B
:103830001647A30192010E94EC46820E931EA41E1D
:10384000B51ED401EA85E03378F52B85C801821BCB
:10385000910927FD93959C01220F331F220F331FDF
:10386000A217B3077CF02C85C701821B910927FDA5
:1038700093959C01220F331F220F331FA217B3070A
:103880000CF49D0122503109220F331F4FB7F894D9
:103890008E2F90E0FC01EE0FFF1FE80FF91FEE5A8C
:1038A000FC4E328321834FBFD39469CF0196A11D73
:1038B000B11D89CFDF91CF911F910F91FF90EF90B4
:1038C000DF90CF90BF90AF909F908F907F906F9040
:1038D0005F904F9008958BE891E00197F1F708957C
:1038E000EF92FF920F931F93CF93DF93EC01162F6C
:1038F000E42EFF24F394442311F080E8F82E08E02E
:1039000061E08A810E94B9090E946B1C61E08F2DE1
:10391000812309F060E089810E94B9090E946B1C33
:1039200060E08A810E94B9090E946B1CEE2081F13F
:10393000110F015029F761E08A810E94B90960E006
:1039400089810E94B9090E946B1C60E08A810E94F3
:10395000B9090E946B1C89810E946209182F81118C
:1039600004C061E089810E94B9090E946B1C61E07A
:103970008A810E94B9090E946B1C81E0111101C06B
:1039800080E0DF91CF911F910F91FF90EF9008950C
:103990001695CFCFCF93DF93EC0161E089810E9430
:1039A000B9090E946B1C60E08A810E94B9090E94DB
:1039B0006B1C60E089810E94B909DF91CF910C9462
:1039C0006B1C61E0FC0181810E94B9090C946B1CA5
:1039D000AF92BF92CF92DF92EF92FF920F931F931D
:1039E000CF93DF93EC01162F042FAC880E94E11CCB
:1039F00040E060E4CE010E94701CCE010E94CA1C0F
:103A000010958C89180FC02ED12CE12EF12C84E05A
:103A1000B12EA81631F0F601EE0DFF1DE255FD4F57
:103A2000B080CE010E94E11C60EC6B0D40E0CE0145
:103A30000E94701C8C89CE0CDF1C8C151D0414F4A4
:103A4000082F011B10E0DD24DA94D00EEC0EFD1ED1
:103A5000011781F084E0ED2DE11BA81201C0E12FD8
:103A6000EE0DFF2DF11D41E06481CE010E94701C1E
:103A70001F5FEECFCE01DF91CF911F910F91FF908D
:103A8000EF90DF90CF90BF90AF900C94CA1CEF9254
:103A9000FF921F93CF93DF93EC01162F8C8180FF51
:103AA00010C0603170F46D837E0184E0E80EF11C7B
:103AB000612F617089910E948B091695EC16FD06A5
:103AC000B9F7DF91CF911F91FF90EF900895DC013E
:103AD000842FE0919A0CF0919B0C309719F04D9146
:103AE0005C91199408954F925F926F927F928F929A
:103AF0009F92AF92BF92CF92DF92EF92FF920F937D
:103B00001F93CF93DF93F12C6FE1E62E8091960CFB
:103B1000F81608F0EAC0C091940CD091950CFE9C68
:103B2000C00DD11D11248A81882309F4B2C0888177
:103B30000E9462098C0189810E9462096C010E94C5
:103B4000240B4B015C0181E090E0CD2811F090E066
:103B500080E0880F991F21E0012B09F020E0922FCF
:103B6000982B4B8D5C8D6D8D7E8D95018401041B92
:103B7000150B260B370BB901A80145365105610518
:103B8000710508F488C08885823008F484C08B8E63
:103B90009C8EAD8EBE8E81508887EE859E1709F46F
:103BA00045C0888503E310E0873010F401E010E0A1
:103BB0006D8524E0E202F0011124492F092E000C4A
:103BC000550BE42BF52BE156FD4F708170039001EE
:103BD000719F300D1124062E02C0220F331F0A944C
:103BE000E2F7EF85F8892E0F3F1F388B2F874C0F98
:103BF0005D1FFA0141854423C1F04B885C886D88C4
:103C00007E884F8A588E698E7A8E8B8A9C8AAD8A7E
:103C1000BE8A02C0359527956A95E2F73A8B298BC3
:103C20008C3008F08BE08F5F88879E8709891A891E
:103C30008D819E810817190761F19801281B390BA6
:103C4000C901E091920CF091930C6901CC0CDD1C40
:103C5000309709F447C06B817C812F5C3F4F23363E
:103C60003105D0F597FD2FC080E01995C00ED11E0B
:103C700031E4C3163FE1D30654F08F8598898370F1
:103C80009927988B8F871A8A198A10E000E01E8383
:103C90000D83F3943BCF4F89588D698D7A8D9501B3
:103CA0008401041B150B260B370BB901A801453FF6
:103CB00051406105710508F470CF8B8E9C8EAD8EDE
:103CC000BE8E18866ACF82E01995C8018C199D09AD
:103CD000803C904E94F2DBCF97FD02C081E0C5CFCF
:103CE00083E0F2CF37FDF1CFC1CFDF91CF911F91AC
:103CF0000F91FF90EF90DF90CF90BF90AF909F908B
:103D00008F907F906F905F904F900895CF92DF9249
:103D1000EF92FF920F931F93CF93DF936C017A0181
:103D20008091900C9091910C892B31F1D6011396D2
:103D30008C9100E181FD08E0EB01CE25DF2510E04C
:103D4000C0FF13C08091900C9091910C892B69F069
:103D5000E0918E0CF0918F0C309739F0D6014D9197
:103D60005C91612F8E2D81701995D695C795F6942B
:103D7000E7941F5F0113E4CFDF91CF911F910F9163
:103D8000FF90EF90DF90CF900895AF92BF92CF92C7
:103D9000DF92EF92FF920F931F93CF93DF931F92C7
:103DA000CDB7DEB7C090900CD090910CC114D10467
:103DB00009F43FC0FC01238130E1B32E21FF02C092
:103DC00028E0B22EA62E8C01F60185818683F12C87
:103DD000E12CBA946B2DC6010E94471DF801828127
:103DE0000E9462098983F80182810E9462098983A5
:103DF000EE0CFF1C298181E090E0211102C090E0CF
:103E000080E0E82AF92AB110E4CFF6016681C60104
:103E10000E94471DF801648175816E157F0549F088
:103E2000AA2021F0A701C8010E94861EF801F58290
:103E3000E4820F90DF91CF911F910F91FF90EF904F
:103E4000DF90CF90BF90AF900895CF93DF93C0E005
:103E5000D6E080918D0CC81768F480918B0C9091FE
:103E60008C0C61E0CD9F800D911D11240E94C51E18
:103E7000CF5FEFCFDF91CF910895E091860CF09165
:103E8000870C309751F0DC0113962C911397222365
:103E900021F06D917C9181E019940895E091860C58
:103EA000F091870C309751F0DC0113962C91139709
:103EB000211104C06D917C9180E0199408950F93B5
:103EC0001F93CF93DF9310E005E08091850C1817C6
:103ED00030F5C091830CD091840C109FC00DD11D82
:103EE00011248C81882399F08A810E9462099B8128
:103EF000891769F091E0811101C090E09B839C815A
:103F0000811107C0992319F0CE010E944E1F1F5F37
:103F1000DCCF9923E1F3CE010E943D1FF8CFDF9162
:103F2000CF911F910F910895FC01A08DB0E01396E1
:103F3000AA0FBB1FA80FB91F868997892D913C91A5
:103F4000821B930B978B868B8281863308F0865376
:103F500020917B00982F9870277F922B90937B0065
:103F60008770806480937C0080917A008064809365
:103F70007A0080917A0086FDFCCF80917800909144
:103F80007900A08DB0E01396AA0FBB1FAE0FBF1F24
:103F90008D939C93A08DB0E01396AA0FBB1FAE0F1C
:103FA000BF1F868997892D913C91820F931F978B14
:103FB000868B808D8F5F808F808D8770808F089536
:103FC000CF93DF93C0E0DEE18091820CC81778F4D4
:103FD0008091800C9091810CCD9F800D911D1124BA
:103FE000FC01258D21110E94941FCF5FEDCFDF9141
:103FF000CF910895CF93DF93C0E0DEE18091820CF2
:10400000C817C8F5A091800CB091810CCD9FA00D70
:10401000B11D11245D968C915D97882351F15696C0
:104020008D919C91579723E0969587952A95E1F776
:1040300013962D913C911497AC01421B530B9A019E
:1040400057FF03C031952195310915964C9115976D
:104050004217130609F06CF414969C938E931397F1
:10406000E0917E0CF0917F0C309719F06D917C916E
:104070001995CF5FC3CFDF91CF910895CF92DF9293
:10408000EF92FF920F931F93CF93DF936C01EB019D
:104090007B01E40EF51E10E000E0CE15DF0561F0B7
:1040A0006991D601ED91FC910190F081E02DC6015E
:1040B0001995080F191FF1CFC801DF91CF911F91FA
:1040C0000F91FF90EF90DF90CF9008952F923F9245
:1040D0004F925F926F927F928F929F92AF92BF9218
:1040E000CF92DF92EF92FF920F931F93CF93DF93C4
:1040F00000D01F921F92CDB7DEB79D838C835C01E9
:1041000024E0A20EB11CFC01E057FF4F0190F081AA
:10411000E02DC50119958C010E3F8FEF180708F0AF
:1041200012C16C807D8094E9690E711CF301E080FE
:10413000F1808C809D80F2E98F0E911CF401C0808B
:10414000D1808C819D8180599F4F9A838983FC0106
:104150008081813009F47AC008F46CC0823009F49F
:1041600081C0833009F48AC0EC81FD81EC59FF4F96
:10417000D182C082EC81FD81EA59FF4FF182E08259
:10418000B801C5010E94DF11009709F42EC1EC802F
:10419000FD80F2E6EF0EF11CBC01C5010E949C11EE
:1041A000EC81FD81E559FF4F5080EC81FD81E9589C
:1041B000FF4F6081C7010E94C511382EEC81FD813F
:1041C000E858FF4F6081C7010E94C511082FEC819C
:1041D000FD81E758FF4F6081C7010E94C5118B83A5
:1041E000F701408414140CF09CC01685050D019550
:1041F000212F402F632D828193810E94DF106C015B
:10420000F70193838283212F402F632D8481958131
:104210000E94F810F70195838483113009F4ADC032
:10422000C8F1123009F4BAC0133009F4CDC08C01C2
:1042300096013AC0EC81FD81E05AFF4F0190F08178
:10424000E02DC5011995E80EF91E8ECFEC81FD8198
:10425000E05AFF4F0190F081E02DC5011995C81A71
:10426000D90A82CFEC81FD81E05AFF4F0190F081A5
:10427000E02DC5011995E81AF90A76CFEC81FD8188
:10428000E05AFF4F0190F081E02DC5011995C80E4D
:10429000D91E6ACF9601240D311D47FC3A958C0139
:1042A000050D111D57FC1A95AC01B601C5010E9400
:1042B000410F8823B1F1F701168217822C803D80CF
:1042C000F3E72F0E311C0C811D810C581F4FF1019B
:1042D0006081C7010E947111C82EF8016081C70179
:1042E0000E947111D82E40E06C2DC5010E94111161
:1042F00041E06D2DC5010E94111161E0C7010E94CE
:1043000071118111F0CFF7018781851504F38C813C
:104310009D8182579F4F9D838C838485EC81FD8195
:104320008083FB818F2FFF0F990BE981FA81208118
:10433000213009F465C008F45BC0223009F462C082
:10434000233009F467C081E090E00F900F900F9048
:104350000F900F90DF91CF911F910F91FF90EF90F1
:10436000DF90CF90BF90AF909F908F907F906F9095
:104370005F904F903F902F90089541E050E0451995
:10438000510957FC539596012F5F3F4F8C01040D47
:10439000111D47FC1A95C40ED51E86CF41E050E092
:1043A000BA016419710947FC739596012F5F3F4F5D
:1043B0004519510957FC53958C010F5F1F4F840F0E
:1043C000951FC60ED71E70CF9601250D311D57FCC7
:1043D0003A9541E050E04419510947FC53958C014E
:1043E0000F5F1F4F840F951F5FCF90E080E09DCF40
:1043F000F40120813181820F931F91838083A3CFA9
:10440000F301F7CFF40120813181281B390B31836F
:10441000208399CFF301F7CF089590E080E00895CD
:10442000BF92CF92DF92EF92FF920F931F93CF93A1
:10443000DF93EC0160E088810E948B09FB800F2DE7
:1044400010E00C5F1F4F0C0F1D1FFF20E1F0F80163
:10445000D2908F01C980BA8088E0E82E6D2D661F4A
:104460006627661F8B2D0E948B09DD0C61E08C2D69
:104470000E948B0960E08C2D0E948B09EA94E11068
:10448000EDCFFA94E2CF61E08881DF91CF911F9167
:104490000F91FF90EF90DF90CF90BF900C948B091D
:1044A0009F92AF92BF92CF92DF92EF92FF920F93C3
:1044B0001F93CF93DF93EC01C62E61E08B810E94A6
:1044C0008B0961E08A810E948B0910E08D811817A9
:1044D00008F03FC0DB80BC8087E0E82EF12C00E0D4
:1044E00061E08D2D0E948B098B2D0E9462090E2C9C
:1044F00001C0880F0A94EAF7082B60E08D2D0E9416
:104500008B0981E0E81AF10858F75E01A10EB11C91
:10451000F501D780D016D9F0CC20B9F0912E990CA6
:10452000990C990CE02EF12C8D2D8E2580FF07C063
:104530004E2D4170692D6F0DCE010E94671DD694DE
:10454000E694F394F8E0FF12EFCFF50107831F5FC5
:10455000BDCF60E08A81DF91CF911F910F91FF90D5
:10456000EF90DF90CF90BF90AF909F900C948B090D
:10457000CF93DF93C0E0DBE08091990CC81768F41B
:104580008091970C9091980C61E0CD9F800D911DCA
:1045900011240E945022CF5FEFCFDF91CF91089579
:1045A0006F927F928F929F92AF92BF92CF92DF9243
:1045B000EF92FF920F931F93CF93DF93C0E0D5E06C
:1045C0008091850CC81778F48091830C9091840CAD
:1045D000CD9F800D911D1124FC01248121110E9489
:1045E0003D1FCF5FEDCFC0E0D5E08091850CC817AF
:1045F00078F48091830C9091840CCD9F800D911D57
:104600001124FC01248121110E944E1FCF5FEDCFA8
:1046100010E05BE0752E8091990C181708F057C0D8
:10462000C091970CD091980C179DC00DD11D1124ED
:1046300060E0CE010E9450226E01F7E0CF0ED11C47
:104640005601612C912C812C8D8188151904D9F08B
:10465000D4F0F50181915F0100E0E82EF12C80FF9C
:1046600006C041E0662D600FCE010E94671DF594E3
:10467000E7948E2D0F5F083081F7FFEF8F1A9F0AA6
:1046800088E0680EE1CF912CF12CE12C8D818E1504
:104690001F04D9F0D4F0F60181916F0100E0A82E3B
:1046A000B12C80FD06C040E0692D600FCE010E9454
:1046B000671DB594A7948A2D0F5F083081F7FFEF2F
:1046C000EF1AFF0A88E0980EE1CF1F5FA4CF10E039
:1046D00006E080918D0C1817E0F4C0918B0CD091FE
:1046E0008C0C109FC00DD11D112460E0CE010E94E2
:1046F000C51E4C815D8170E060E0CE010E94861E87
:104700004C815D816FEF7FEFCE010E94861E1F5F9F
:10471000E0CFC0E0DEE18091820CC81728F5A091BF
:10472000800CB091810CCD9FA00DB11D11245D9620
:104730008C915D978823B1F056968D919C915797F7
:1047400023E0969587952A95E1F714969C938E938E
:104750001397E0917E0CF0917F0C309719F06D91DA
:104760007C911995CF5FD7CFDF91CF911F910F919A
:10477000FF90EF90DF90CF90BF90AF909F908F9081
:104780007F906F9008950E947508882359F081E00A
:104790008093131A8093141A8091151A9091161A07
:1047A0000C9425451092141A90E080E00895CF9360
:1047B0000E94C323C82F0E94C32361E08F3F91054D
:1047C00019F0009729F460E08C2FCF910C948B099D
:1047D000BC018C2FCF910C94F5090E94C3239091BA
:1047E0001514891768F42091131430911414A90139
:1047F0006EE0869F400D511D1124CA010C947D1B53
:1048000008950F931F930E94C32390911514891745
:1048100008F04DC0E0911314F09114149EE0899FAC
:10482000E00DF11D11248081882309F440C0A2818C
:10483000B3811C961D921D921D921C921F9750963B
:104840001D921D921D921C925397D4961D921D92FB
:104850001D921C92D79794961D921D921D921C92A8
:10486000979754961D921D921D921C92579784857E
:104870008823E9F082819381428550E051954195EA
:104880005109052E000C660B770BFC01008911897C
:1048900022893389401751076207730741F0408B23
:1048A000518B628B738B1F910F910C9478191F9110
:1048B0000F9108958F929F92AF92BF92CF92DF9205
:1048C000EF92FF921F93CF93DF930E94C3237C014B
:1048D0000E94C323BC018091A50C8E151F0409F012
:1048E0000CF4A8C027E12E9DC0012F9D900D11242E
:1048F000C091A30CD091A40CC80FD91FCD80DE802D
:104900000D2C000CEE08FF0889809A80092C000C01
:10491000AA08BB082F813885032E000C440B550BC9
:104920002C193D094E095F09072E000C880B990BC5
:10493000681979098A099B090E944F472B813C819C
:10494000032E000C440B550B281939094A095B0941
:104950000E94EC46BA01A9014C0D5D1D6E1D7F1D24
:10496000052E000C660B770B8D859E85AF85B8896B
:1049700084179507A607B70709F45CC04D875E87C3
:104980006F87788B8985811155C08A85803308F0BF
:104990004FC0188161E0812F0E94B9098A85282FB4
:1049A00030E0F901EE0FFF1FE20FF31FEE5AFC4E4D
:1049B0001F739081907C912B90831B861C862CE02A
:1049C000622F0E945F47829FB001112430E020E0F7
:1049D000AB01420F531FFA01EE0FFF1FE40FF51F4B
:1049E000EE5AFC4E908196FD16C02F5F3F4F2C3043
:1049F000310571F7813051F51092800082E080938B
:104A000081001092850010928400B19A80916F000D
:104A1000826080936F00EA858E2F90E0FC01EE0F9C
:104A2000FF1FE80FF91FEE5AFC4E808180648083DF
:104A300081E08987DF91CF911F91FF90EF90DF9008
:104A4000CF90BF90AF909F908F900895823061F487
:104A50001092900080939100109295001092940013
:104A600088BB80937100D7CF833069F41092A00087
:104A700082E08093A1001092A5001092A40089BB4F
:104A800080937200C8CF8111C6CF1092200182E0BE
:104A90008093210110922501109224018ABB8093FA
:104AA0007300B9CFEF92FF921F93CF93DF930E94D1
:104AB000C323EC010E94C6087C010E94D90822E1B0
:104AC0002C9FC0012D9F900D1124C0919C0CD09162
:104AD0009D0CC80FD91F8E858823A1F010E089890D
:104AE000811781F0412F60E0CE010E949F16488916
:104AF000B701149F600D711D1124CE010E94FE1696
:104B00001F5FEDCFDF91CF911F91FF90EF90089540
:104B10000E94C323892B49F010920D1410920E1499
:104B200010920F141092101408950E94240B609399
:104B30000D1470930E1480930F1490931014089515
:104B400020918A1830918B188217930710F40C94D7
:104B5000D64680E008950F931F93CF93DF938C0187
:104B6000EB01F801808191819C012F5F3F4F3183E0
:104B700020830E94A02528813981A9014F5F5F4FC2
:104B80005983488321573B4EF9018083288139811D
:104B9000283EF3E03F0760F48A3319F722573B4E73
:104BA000F901108281E0DF91CF911F910F9108955B
:104BB00080E0F9CFCF92DF92EF92FF920F931F9395
:104BC000CF93DF938C01C0908A18D0908B18C62F9A
:104BD000D0E0F801808191817C01FFEFEF1AFF0A9C
:104BE000F801F182E0820E94A025CE14DF0480F05B
:104BF000082E000C990B8C179D0759F781E0DF9167
:104C0000CF911F910F91FF90EF90DF90CF9008957B
:104C100080E0F5CFAF92BF92CF92DF92EF92FF92FA
:104C20000F931F93CF93DF9300D01F92CDB7DEB7C2
:104C30005C0119821A821B821C82CE0101967C01C2
:104C400010E000E06C01F501808191819C012F5FF3
:104C50003F4F318320830E94A025F7018083F80114
:104C60008E3241F00F5F1F4F8FEFE81AF80A0430C1
:104C7000110549F7EC0DFD1D1082C6010E94254566
:104C80000F900F900F900F90DF91CF911F910F9188
:104C9000FF90EF90DF90CF90BF90AF900895FB0111
:104CA00001900020E9F73197AF01461B570BDC015B
:104CB000ED91FC910280F381E02D199480914919C6
:104CC0008823A1F060911C1A80911A1A90911B1AE6
:104CD0000E94300B80915119882341F06DE773E0F9
:104CE00080911A1A90911B1A0E944F261092501907
:104CF0001092491980E008958F929F92AF92BF92CF
:104D0000EF92FF920F931F93CF93DF93CDB7DEB750
:104D1000A1970FB6F894DEBF0FBECDBF7C01FA019C
:104D2000CB0119A2223008F42AE08E010F5D1F4F3B
:104D3000822E912CB12CA12CBF01A50194010E94BF
:104D40001E47F901CA016A300CF5605DD8016E9307
:104D50008D01232B242B252B79F790E080E01097F1
:104D600021F0BD01C7010E944F26A1960FB6F8940D
:104D7000DEBF0FBECDBFDF91CF911F910F91FF908E
:104D8000EF90BF90AF909F908F900895695CDECFB9
:104D9000CF93909149199923A9F0C82F60911D1ABA
:104DA00080911A1A90911B1A0E94300B4C2F50E0E0
:104DB00070E060E02AE080911A1A90911B1ACF915E
:104DC0000C947C26CF91089590914919911110C0AF
:104DD00091E09093491990935019482F50E070E05A
:104DE00060E02AE080911A1A90911B1A0C947C269C
:104DF0000895CF93DF939091491991110EC0EB0163
:104E00000E94E42680914919882319F0CE010E945E
:104E1000370BDF91CF910C945E2680E0DF91CF912C
:104E200008950E94240B60930D1470930E148093C8
:104E30000F14909310146BE57DE085E00C94F92637
:104E40000F931F93CF93DF931092850C1092960CC3
:104E500010920C149091A00CE091A10CF091A20C76
:104E600080E0981721F0168A8F5F7796FACF10921C
:104E7000A00C3091A50CA091A30CB091A40C20E043
:104E80003217D1F019968C911997882391F01A96C0
:104E9000EC911A978E2F90E0FC01EE0FFF1FE80FA8
:104EA000F91FEE5AFC4E80818F7B808319961C92ED
:104EB00019972F5F5796E4CF1092A50C9091151477
:104EC000E0911314F091141480E0981721F01082EF
:104ED0008F5F3E96FACF1092151490917704E0916F
:104EE0009C0CF0919D0C80E0981731F026852111E3
:104EF00016868F5F7296F8CF109277041092820C0C
:104F000090917A04E0919E0CF0919F0C80E09817AC
:104F100031F02085211110868F5F3996F8CF1092DD
:104F20007A049091990CE091970CF091980C80E0A4
:104F3000981721F016828F5F3B96FACF1092990C4A
:104F400010E006E080918D0C1817A0F4C0918B0C36
:104F5000D0918C0C109FC00DD11D11248B8180FF2E
:104F600007C062E08A810E94B9098B818E7F8B83A2
:104F70001F5FE8CF10928D0C20918A0C30E0E091F9
:104F8000880CF091890C90E080E02817390769F0CF
:104F90001082A181B28112964C911297442311F094
:104FA00012961C9201963396F0CF10928A0C1092B2
:104FB000091410920814109212141092E712109211
:104FC000E6126FE57DE085E0DF91CF911F910F91B3
:104FD0000C94F92662E67DE08FE00C94F92620918E
:104FE000E6123091E712820F931F9093E71280939D
:104FF000E6128034964040F062EF7EE085E00E9449
:10500000F92690E080E00895C9018A55934F0895EC
:1050100081E08093121465E67DE081E10C94F9262D
:10502000CF93DF938AE00E94E42680910814909148
:105030000914892B91F18BE390E00E94A025C82FE1
:1050400080914919882379F060911D1A80911A1A6C
:1050500090911B1A0E94300B6C2F80911A1A90911C
:105060001B1A0E94300BC1E0D0E08091081490918F
:105070000914C817D90788F4CE01CB960E94A02541
:1050800090914919992339F0682F80911A1A9091BB
:105090001B1A0E94300B2196E8CFDF91CF910C9420
:1050A0005E262F923F924F925F926F927F928F92E5
:1050B0009F92AF92BF92CF92DF92EF92FF920F93A7
:1050C0001F93CF93DF9300D000D000D0CDB7DEB7D1
:1050D0005C014B0109831A832B833C834D83870139
:1050E000C98638874E83D5016D907C90E980FA801F
:1050F0002301BEE54B0E511CF20180819181E8161F
:10510000F90609F4ABC0F182E082F70184916301F2
:10511000F1E7CF0ED11CD6018C93F7013196E491C3
:105120001196EC931197F7013296E4911296EC9355
:105130001297F7013396E4911396EC931397F701C6
:105140003496E4911496EC931497F7013596E49114
:105150001596EC931597F7013696E4911696EC9315
:105160001697F7013796E4911796EC931797F70186
:105170003896E4911896EC931897F7013996E491D4
:105180001996EC931997F7013A96E4911A96EC93D5
:105190001A97F7013B96E4911B96EC931B97F70146
:1051A0003C96E4911C96EC931C97F7013D96E49194
:1051B0001D96EC931D97F7013E96E4911E96EC9395
:1051C0001E97F7013F96E4911F96EC931F97F70106
:1051D0007096E4915096EC9361E1C7010E94D3115F
:1051E000F601928B818B63E1C7010E94D311D60136
:1051F00054969C938E93539765E1C7010E94D311F7
:10520000F601968B858BD2018D919C911197892BFC
:1052100029F13D9680819C968C9331966081730133
:10522000EBE8EE0EF11CF7016083930127573F4F27
:10523000F9019081992391F0913009F08AC02950A9
:105240003109F901908189170CF49C93D301AF5770
:10525000BF4F8C91861714F4D7018C93F501808190
:10526000918128E63EE0DC0117963C932E93169739
:10527000B40104960E944B121C01FB80F501808151
:10528000918160E004960E942C10812FAE818A0FDC
:105290009927991F3C01FC01EF19F1097F01802F2B
:1052A000A8858A0F9927991F2C01F501C080D1800C
:1052B000F4E0CF0ED11C7F826E829C01220D331D43
:1052C0008301A701BC01C6010E94410F81116BC07F
:1052D000D5018D919C9161E004960E942C10D5011E
:1052E000ED91FC911197E359FF4F10828D919C91A4
:1052F0001197FC01EE56FF4F518240828C569F4F12
:10530000FC01718260828114910409F052C0B98558
:10531000BB2309F454C0F50180819181049629963C
:105320000FB6F894DEBF0FBECDBFDF91CF911F91B6
:105330000F91FF90EF90DF90CF90BF90AF909F9034
:105340008F907F906F905F904F903F902F900C9434
:105350005613930125583F4FF9015081FDE76F0E19
:10536000711CF3014081082E000C990B242F042E90
:10537000000C330B250F311D57FD3A95821793070B
:1053800014F4540F5C9346170CF068CFD7014C937C
:1053900065CF00E09101A701B201C6010E94311062
:1053A000FFEFEF1AFF0A8E819F818E159F0589F707
:1053B0008FCFB4018D919C910E944F26A8CF299642
:1053C0000FB6F894DEBF0FBECDBFDF91CF911F9116
:1053D0000F91FF90EF90DF90CF90BF90AF909F9094
:1053E0008F907F906F905F904F903F902F90089597
:1053F000AF92BF92CF92EF92FF920F931F93CF93F2
:10540000DF935C01C0918402D0918502EAE9F2E069
:10541000CC24C3947E010081118122813381448197
:1054200060E873E00E945128E5E9F2E00081118113
:1054300022813381448164E873E0C5010E945128D0
:10544000DF91CF911F910F91FF90EF90CF90BF9080
:10545000AF900895AF92BF92CF92EF92FF920F93C9
:105460001F93CF93DF935C01C0918202D09183029E
:10547000C12C7E0100918602109187022091880242
:105480003091890240918A020E945128EBE8F2E0B3
:105490000081118122813381448168E873E0C50174
:1054A0000E945128DF91CF911F910F91FF90EF90B3
:1054B000CF90BF90AF900895AF92BF92CF92EF92EE
:1054C000FF920F931F93CF93DF935C01C0918402EF
:1054D000D0918502C12C7E01009186021091870235
:1054E000209188023091890240918A020E945128BD
:1054F000EBE8F2E0008111812281338144816CE884
:1055000073E0C5010E945128DF91CF911F910F9147
:10551000FF90EF90CF90BF90AF900895CF93DF931F
:10552000209149192223A1F0EC0160911D1A80916C
:105530001A1A90911B1A0E94300B209749F0BE0155
:1055400080911A1A90911B1ADF91CF910C944F26DB
:10555000DF91CF9108950F931F93CF93DF93C82FBF
:10556000D62F8A018DE10E94E426C8010E948E2A6E
:105570008D2F0E94C8268C2F0E94C826DF91CF91C4
:105580001F910F910C945E260F931F93CF93C82FFA
:105590008B0186E00E94E426C8010E948E2A8C2F8F
:1055A0000E94C826CF911F910F910C945E260F93F5
:1055B0001F93CF93DF93C82FD62F8A018EE10E94CD
:1055C000E426C8010E948E2A8D2F0E94C8268C2FA7
:1055D0000E94C826DF91CF911F910F910C945E26F7
:1055E0000F931F93CF93C82F8B0187E00E94E4266F
:1055F000C8010E948E2A8C2F0E94C826CF911F912D
:105600000F910C945E26CF92DF92EF92FF92CF9390
:10561000DF936C01EB018CE10E94E426CE010E9435
:105620008E2A80914919882321F160911D1A809159
:105630001A1A90911B1A0E94300BC0911A1AD0911D
:105640001B1A0D2C000CEE08FF082AE0B701A6017A
:10565000F7FE0CC06DE2CE010E94300B44275527A7
:10566000BA014C195D096E097F092AE0CE010E943A
:105670007C26DF91CF91FF90EF90DF90CF900C943C
:105680005E26CF93DF93EC0185E00E94E426CE01F5
:105690000E948E2A80914919882321F088E69DE096
:1056A0000E94370BDF91CF910C945E26FB01019095
:1056B0000020E9F73197AF01461B570BDC01ED9154
:1056C000FC910284F385E02D1994CF92DF92EF9242
:1056D000FF920F931F93CF93DF938C01EB01FC019B
:1056E000D0886D2D70E0FE0101900020E9F7CF0118
:1056F00001978C1B9D0B86179707B0F4681B790BDD
:1057000076956795D82EC8010E949F16CC2EEC2E58
:10571000FD2E8E2D8C198D1548F4F70161917F01B6
:10572000C8010E94E616F5CF60E0EDCFDF91CF9182
:105730001F910F91FF90EF90DF90CF900895FC01A3
:10574000A081B18150962C9182AD38E0839FC00139
:105750001124289FA001299F500D112470E060E0C2
:1057600080AD91AD0C94FC48BF92CF92DF92EF9246
:10577000FF920F931F93CF93DF93EC01E62EC42E7D
:10578000D22EFC88FF0C0F2D10E0A80170E060E025
:1057900004960E94FC48EE2DEE0FEC0FFD2FF11D3C
:1057A000C582D48260E08B810E948B090C5F1F4F01
:1057B0000C0F1D1FFF20E1F0F801B2908F0188E06F
:1057C000C82ED12C90E8E92E6B2D6E2189810E9484
:1057D0008B0961E08A810E948B0960E08A810E94C6
:1057E0008B09E694F1E0CF1AD10871F7FA94E2CF71
:1057F00061E08B81DF91CF911F910F91FF90EF902E
:10580000DF90CF90BF900C948B098F929F92AF92B4
:10581000BF92CF92DF92EF92FF920F931F93CF939D
:10582000DF930E94C323EC010E94C323882E0E94B1
:10583000C6085C010E94C3236C010E94C32347E198
:105840004C9F90014D9F300D11240091A10C10919F
:10585000A20C020F131FF8012689222309F43CC071
:10586000C7E0D0E0912C7C01FF24DD246C2F4C2F6D
:105870004F5FC7010C2E02C0959587950A94E2F7F9
:1058800080FF28C0F801A4898A1618F5F501E90DF2
:10589000F11D808187FD80E296010C2E02C03595B6
:1058A00027950A94E2F720FD8068F80190819923FA
:1058B00011F06A1770F4E82FEF77F0E0EE58F14F2F
:1058C0002491911116C087FD2068682DC8010E949F
:1058D000B42B9394219750F6DF91CF911F910F91A4
:1058E000FF90EF90DF90CF90BF90AF909F908F9000
:1058F0000895220F87FD2160A150BB0BAC1BBD0B8F
:10590000A00FB11F14962C9341E0C8010E94E81C1F
:10591000E0CF1F93CF93DF93DC012C9121110CC0BA
:1059200054962C91621700F521E024274CE0DF917A
:10593000CF911F910C94B42B5596EC91F0E0F59516
:10594000E7951E2F411101C01860EC010E94E11C77
:1059500060E8610F40E0CE010E94701CCE01DF9133
:10596000CF911F910C94CA1CDF91CF911F91089584
:105970000F931F93CF93DF93FC0126892223C1F15C
:105980006217B0F5442391F12FEF240F203108F076
:105990002FE0D62F8C01FC01258B8081811110C056
:1059A0008489681720F44AE0C8010E94B42B40E0C3
:1059B0006D2FC801DF91CF911F910F910C94892C0D
:1059C000C0E0413031F02695423009F421E0C22F89
:1059D000C860C8010E94E11C60E86C0F40E0C8018B
:1059E0000E94701CC8010E94CA1CE1CF41E0E2CFB6
:1059F000DF91CF911F910F9108950F931F93CF9334
:105A00000E94C3238C010E94C323C82F0E94C3237A
:105A100097E1909F9001919F300D1124E091A10C8E
:105A2000F091A20C482F6C2FCF01820F931FCF91C2
:105A30001F910F910C94B82C0C94FD2CEF92FF92B7
:105A40000F931F93CF93DF93F82EC0E087E1E82EEA
:105A50008091A00CC817B0F40091A10C1091A20C79
:105A6000CE9D000D111D1124D0E0F80186898D17FF
:105A700039F04F2D6D2FC8010E94892CDF5FF5CFC3
:105A8000CF5FE6CFDF91CF911F910F91FF90EF9005
:105A900008950F931F93CF93DF93EC01062F188186
:105AA0004C89111110C0641748F41F5F20E0412F8A
:105AB000602FCE010E94B42B1830B9F7DF91CF913F
:105AC0001F910F91089550E070E060E004960E94ED
:105AD000FC484C896FEF640FCE01DF91CF911F918D
