:100000000C9444010C946C010C946C010C946C01E4
:100010000C946C010C946C010C946C010C946C01AC
:100020000C946C010C946C010C946C010C948E2754
:100030000C946C010C946C010C946C010C946C018C
:100040000C94DE260C946C010C944E270C942827FB
:100050000C946C010C946C010C946C010C946C016C
:100060000C944A280C946C016E2F61004F4B004F8A
:100070004B004F4B00646F6573206E6F7420666990
:100080007420696E204D656D6F7279004661696CF0
:100090007572652C20454550524F4D2073697A6525
:1000A0002065786365656465642000496E707574C9
:1000B0005368696674657220617272617920646F39
:1000C0006573206E6F742066697420696E746F208A
:1000D0004D656D6F7279004F7574707574536869F2
:1000E0006674657220617272617920646F65732035
:1000F0006E6F742066697420696E746F204D656D33
:100100006F727900537465707065722061727261EC
:100110007920646F6573206E6F742066697420693E
:100120006E746F204D656D6F7279004C656420535D
:1001300065676D656E7420617272617920646F65A8
:1001400073206E6F742066697420696E746F204D21
:10015000656D6F7279004661696C757265206F6EAE
:100160002072656164696E6720636F6E66696700FF
:100170004D6F6269466C6967687420556E6F007ECA
:10018000306D79335B5F707F7B771F0D3D4F47008C
:10019000000000000000000000000000000000005F
:1001A0000000000000000000000000800180257EAB
:1001B000306D79335B5F707F7B00000009000000C9
:1001C000777F4E7E4F475F37307C000E00767E672C
:1001D0007E775B463E000000336D4E1378000800CA
:1001E0007D1F0D3D4F477B373038000600151D67DA
:1001F00073055B0F1C000000276D4E007800004C5B
:100200006F6164696E6720636F6E666967206661FF
:10021000696C65640000000000240027002A0000CB
:10022000000000250028002B00000000002300260D
:10023000002900040404040404040402020202026B
:10024000020303030303030102040810204080019A
:100250000204081020010204081020000000080019
:100260000201000003040700000000000000004439
:100270006576696365427566666572204F7665725C
:10028000666C6F772100692911241FBECFEFD8E07B
:10029000DEBFCDBF12E0A0E0B1E0ECE3F4E602C0C7
:1002A00005900D92A833B107D9F727E0A8E3B2E093
:1002B00001C01D92AF3FB207E1F711E0C4E4D1E005
:1002C00004C02197FE010E949330C334D107C9F7BF
:1002D0000E94002A0C941C320C940000AC01109275
:1002E000E4069091B4078091B307FA01BF01641B43
:1002F000750B2091E40630813093E406931304C01B
:10030000921302C01092E4063081311104C092179A
:1003100021F0CB0108953817D1F33196E7CF0F9331
:100320001F93CF93DF938091A807882309F446C0D9
:10033000D0E0C0E0813029F482E08093A807C8EEC5
:10034000D6E08091A907882341F1209721F4C0913C
:10035000AD07D091AE078E01CE010E946E01892BB0
:1003600029F42196F80180818111F5CFF80180816F
:10037000882309F1C8010E946E01F801E80FF91FF6
:100380008081882311F010823196F093AE07E093BC
:10039000AD071093AC070093AB078091AB0790912A
:1003A000AC07892B59F081E08093A907DF91CF91A9
:1003B0001F910F91089510E000E0EBCF80E0F6CFA1
:1003C0000E948F01882351F081E08093A9078093D8
:1003D000AA078091AB079091AC0708951092AA07E5
:1003E00090E080E00895833081F028F4813099F026
:1003F0008230A9F008958730A9F08830C9F08430A0
:10040000B1F4809180008F7D03C0809180008F7750
:1004100080938000089584B58F7784BD089584B556
:100420008F7DFBCF8091B0008F778093B0000895CF
:100430008091B0008F7DF9CFCF93DF93282F30E0EC
:10044000F901E55AFD4F8491F901E95BFD4FD49123
:10045000F901ED5CFD4FC491CC23A1F081110E9404
:10046000F301EC2FF0E0EE0FFF1FE75DFD4FA591CC
:10047000B491EC91ED2381E090E009F480E0DF910C
:10048000CF91089580E090E0FACF1F93CF93DF9350
:10049000282F30E0F901E55AFD4F8491F901E95B1D
:1004A000FD4FD491F901ED5CFD4FC491CC23A9F02F
:1004B000162F81110E94F301EC2FF0E0EE0FFF1FC9
:1004C000E15EFD4FA591B4918FB7F894EC911111B5
:1004D00008C0D095DE23DC938FBFDF91CF911F91B1
:1004E0000895DE2BF8CFCF93DF9390E0FC01E95B1A
:1004F000FD4F24918D5C9D4FFC0184918823C9F0B0
:1005000090E0880F991FFC01EB5EFD4FA591B4911F
:10051000FC01E15EFD4FC591D49161110DC09FB703
:10052000F8948C91209582238C93888128232883AA
:100530009FBFDF91CF910895623051F49FB7F89437
:100540003C91822F809583238C93E8812E2BEFCFD3
:100550008FB7F894EC912E2B2C938FBFEACF3FB737
:10056000F8948091350390913603A0913703B091B0
:10057000380326B5A89B05C02F3F19F00196A11D91
:10058000B11D3FBFBA2FA92F982F8827BC01CD01DD
:10059000620F711D811D911D42E0660F771F881F3C
:1005A000991F4A95D1F708952FB7F89460913103B8
:1005B0007091320380913303909134032FBF0895DB
:1005C000DC01ED91FC910190F081E02D0994EF9216
:1005D000FF920F931F93CF93DF937C016091B3073A
:1005E0008091B0079091B1070E94E0020091B0079E
:1005F0001091B107E701FE016491662359F0D8011B
:10060000ED91FC910190F081E02DC80109952196B2
:10061000892B89F7DF91CF911F910F91FF90EF9078
:100620000895AF92BF92CF92DF92EF92FF920F9315
:100630001F93CF93DF936C017B018B01040F151F78
:10064000EB015E01AE18BF08C017D10759F06991E0
:10065000D601ED91FC910190F081E02DC601099544
:10066000892B79F7C501DF91CF911F910F91FF90F1
:10067000EF90DF90CF90BF90AF900895FC01538D25
:10068000448D252F30E0842F90E0821B930B54176C
:1006900010F0CF96089501970895FC01918D828DF9
:1006A000981779F0A28DAE0FBF2FB11D5D962C91DA
:1006B000828D8F5F60E60E947330928F822F90E070
:1006C00008958FEF9FEF0895FC01918D828D98170B
:1006D00031F0828DE80FF11D858D90E008958FEF48
:1006E0009FEF0895FC01918D228D892F90E0805A13
:1006F0009F4F821B910960E670E00E947F30089551
:1007000082E296E00E94720321E0892B09F420E046
:10071000822F089580E090E0892B29F00E948003C9
:1007200081110C9400000895FC01A48DA80FB92F2D
:10073000B11DA358BF4F2C91848D90E001968F730B
:100740009927848FA689B7892C93A089B1898C9128
:10075000837080648C93938D848D981306C0028877
:10076000F389E02D80818F7D80830895EF92FF9241
:100770000F931F93CF93DF93EC0181E0888F9B8DC4
:100780008C8D98131AC0E889F989808185FF15C07E
:100790009FB7F894EE89FF896083E889F9898081A1
:1007A0008370806480839FBF81E090E0DF91CF9170
:1007B0001F910F91FF90EF900895F62E0B8D10E092
:1007C0000F5F1F4F0F731127E02E8C8D8E110CC001
:1007D0000FB607FCFACFE889F989808185FFF5CF4C
:1007E000CE010E949403F1CFEB8DEC0FFD2FF11D94
:1007F000E358FF4FF0829FB7F8940B8FEA89FB898B
:1008000080818062CFCFCF93DF93EC01888D8823E6
:10081000B9F0AA89BB89E889F9898C9185FD03C063
:10082000808186FD0DC00FB607FCF7CF8C9185FF48
:10083000F2CF808185FFEDCFCE010E949403E9CFF6
:10084000DF91CF91089508952091BE02260F33279E
:10085000331F21323105ECF420915F03FC0190E05D
:1008600080E0243069F082E00895A091BE022191D9
:10087000AC0144565D4FA40FB52FB11D2C930196CA
:10088000861798F38091BE02680F6093BE0280E0E5
:10089000089581E0089510925F0381E080935E03E4
:1008A0001092390361E082E10E94450261E083E138
:1008B0000E944502E9EBF0E080818E7F8083808199
:1008C0008D7F808388E48093B80085E48093BC00AA
:1008D0000895CF93DF9391E090939B028823B9F022
:1008E000C091B800D091BA008091BC008A7B8093FF
:1008F000BC0060E082E10E94450260E083E10E946A
:1009000045020E944B04D093BA00C093B800DF9117
:10091000CF9108958F929F92AF92BF92CF92DF9224
:10092000EF92FF920F931F93CF93DF93D0918803A1
:10093000D13208F0D7C0182FC09187030E94AF02B0
:100940006B017C0180915F0381116BC082E0809319
:100950005F0310935E038FEF80935D0310925C033F
:10096000D0935B03A7E6B3E0EBE3F3E080E0D813BA
:1009700091C010923A0380913A03CC0FC82BC093D8
:100980003A0380913903813009F088C0109239030D
:100990000E94AF026B017C0180913A038093BB00FF
:1009A0008091610390916203A0916303B09164030D
:1009B000892B8A2B8B2BA1F00E94AF02009161033F
:1009C0001091620320916303309164036C197D09D7
:1009D0008E099F09061717072807390708F442C030
:1009E0008091BC0083FDD8CF85EC8093BC000E9431
:1009F000AF026B017C0180915F03823009F450C02B
:100A000080915D038F3F09F46FC080915D03803258
:100A100009F46CC080915D03803309F469C084E0FF
:100A200026C08091610390916203A0916303B0910D
:100A30006403892B8A2B8B2B09F484CF0E94AF028D
:100A40008090610390906203A0906303B090640370
:100A50006C197D098E099F0986169706A806B906A6
:100A600008F070CF809160030E94690485E01092C5
:100A700066031092880310926503DF91CF911F9156
:100A80000F91FF90EF90DF90CF90BF90AF909F902D
:100A90008F9008959D9191938F5F69CF85EEA5CF3B
:100AA0008091610390916203A0916303B09164030C
:100AB000892B8A2B8B2B09F49ECF0E94AF020091C9
:100AC00061031091620320916303309164036C19F8
:100AD0007D098E099F09061717072807390708F0AF
:100AE0008ACFC0CF81E0C3CF80E0C1CF82E0BFCF4B
:100AF00083E0BDCF81E00C948A04089508950895A1
:100B0000E0919A0280919902E81730F4F0E0E758FA
:100B1000FD4F808190E008958FEF9FEF08959091B1
:100B20009A02809199022FEF3FEF981748F4E92F2E
:100B3000F0E0E758FD4F208130E09F5F90939A02EC
:100B4000C90108958091990290919A02891B990B8D
:100B50000895CF92DF92EF92FF920F931F93CF935E
:100B6000DF937C01CB018A0120916503222389F068
:100B7000EB016B01C40ED51ECC15DD0569F0699142
:100B8000D701ED91FC910190F081E02DC70109950D
:100B9000F3CF642F0E942404C801DF91CF911F91ED
:100BA0000F91FF90EF90DF90CF900895CF93DF9358
:100BB0001F92CDB7DEB76983209165032223F9F038
:100BC00020918803203258F021E030E0FC0133838B
:100BD000228390E080E00F90DF91CF910895809183
:100BE0006603E82FF0E0E959FC4F998190838F5F0D
:100BF000809366038093880381E090E0ECCF61E00E
:100C0000CE0101960E942404F7CF682F8DE096E074
:100C10000C94D605CF93C82F846090E00E940506FF
:100C20008C2F90E08B7FCF910C9405060F931F9330
:100C3000CF93DF938C01C62FD42FFC01848191E0E8
:100C40009093650380938703109266031092880344
:100C5000862F807F842B9585892B0E940A06F0E1E0
:100C6000CF9FC0011124F8019585892B8D2B0E94FF
:100C70000A06DF91CF911F910F910C947A05CF93C3
:100C8000DF93CDB7DEB728970FB6F894DEBF0FBE5F
:100C9000CDBF1A82198220E430E03C832B83FC0113
:100CA000228530E03E832D83205C3F4F38872F83A1
:100CB0002385241710F44FEF420FE42FF0E0EE0FDE
:100CC000FF1FEC0FFD1F2181620F606840E0289636
:100CD0000FB6F894DEBF0FBECDBFDF91CF910C945D
:100CE0001606CF93DF93EC0140E061E00E94160608
:100CF0008BE39FE10197F1F78985882339F040E084
:100D000060E0CE01DF91CF910C943F06DF91CF914F
:100D1000089541E00E94160681E090E00895FC01EC
:100D2000248131E03093650320938703109266039A
:100D300010928803607F8585862B0E940A060C949A
:100D40007A05AF92BF92CF92DF92EF92FF920F930C
:100D50001F93CF93DF936C01FC01848191E090930A
:100D60006503809387031092660310928803EB015A
:100D7000042F10E05B01A00EB11EF12CEE24E394D1
:100D8000CA15DB0541F18991F60195859160807F57
:100D9000892B0E940A06FE0131972081F0E12F0283
:100DA00090011124F60185858160822B0E940A063C
:100DB000F394F7E0FF1520F780E00E948A04F60123
:100DC0008481E092650380938703109266031092FA
:100DD0008803F12CD5CF0E947A05C8010197DF91D5
:100DE000CF911F910F91FF90EF90DF90CF90BF9028
:100DF000AF90089528E0FC012587848191E09093CD
:100E0000650380938703109266031092880388E03D
:100E100090E00E9405060C947A0590E080E0089529
:100E2000CF93DF93FC012381222359F1EC0161E090
:100E300084810E94730261E08D810E9473028B8124
:100E4000843011F08830B1F461E08E810E94730229
:100E500061E08F810E9473028FA58F3F91F061E066
:100E60000E9473026EA581E068278FA5DF91CF9164
:100E70000C944502833011F0863071F761E08E8169
:100E8000E9CFDF91CF910895CF93DF93FC012381C8
:100E90002223A9F0EC010190F081E02D0480F5817E
:100EA000E02D60E009958FA58F3F49F061E00E9439
:100EB00073026EA58FA5DF91CF910C944502DF914F
:100EC000CF910895DC01ED91FC912481358147702B
:100ED0005527662777274150510961097109473025
:100EE00051056105710560F4FA01E758F84F0C945B
:100EF000933083078507870789078B078D078F073F
:100F000061E0F901099465E0FCCF64E0FACF66E0A6
:100F1000F8CF62E0F6CF6AE0F4CF68E0F2CF69E0A4
:100F2000F0CFCF93DF93EC01CB01BA0126E030E0A4
:100F300040E050E00E94003062307105810591056B
:100F400089F16CF46115710581059105D1F061306D
:100F5000710581059105F9F0DF91CF910895643015
:100F600071058105910561F124F1653071058105F7
:100F7000910591F7E881F9810480F581E02D66E023
:100F800006C0E881F9810480F581E02D64E0CE019E
:100F9000DF91CF910994E881F9810480F581E02DFA
:100FA00065E0F5CFE881F9810480F581E02D61E00D
:100FB000EECFE881F9810480F581E02D63E0E7CF91
:100FC000E881F9810480F581E02D62E0E0CFDC0169
:100FD000ED91FC910480F581E02D43705527662743
:100FE0007727423051056105710571F04330510595
:100FF0006105710559F0413051056105710511F028
:1010000065E0099466E0FDCF6AE0FBCF69E0F9CFC7
:10101000CF93DF93EC01CB01BA0123E030E040E055
:1010200050E00E940030613071058105910599F012
:101030006230710581059105A9F0672B682B692B3A
:10104000C1F4E881F9810480F581E02D64E0CE01EE
:10105000DF91CF910994E881F9810480F581E02D39
:1010600061E0F5CFE881F9810480F581E02D62E04F
:10107000EECFDF91CF910895DC01ED91FC910480DA
:10108000F581E02D437055276627772742305105BB
:101090006105710571F0433051056105710559F025
:1010A000413051056105710511F062E0099463E07A
:1010B000FDCF61E0FBCF60E0F9CFCF93DF93EC0190
:1010C000E881F9810480F581E02D8A8160E0811159
:1010D00062E0CE010995E881F9810480F581E02D77
:1010E0008A8161E0811163E0CE0109958CA59DA5FF
:1010F0008230910538F0880F991F880F991F059746
:101100000197F1F7E881F9810480F581E02D8A816A
:1011100060E0811162E0CE01DF91CF910994CF931D
:10112000DF93EC0120E030E0A9016C897D898E8994
:101130009F890E94AE3118162CF4E8A9F9A9DF9115
:10114000CF910994EAA9FBA9FACFCF92DF92EF924F
:10115000FF920F931F93CF93DF93DC011396CC91F3
:10116000C43039F0C83059F1C33019F0C63049F1F4
:10117000C2E08C010C5F1F4FF12CE12CC62ED12C4C
:10118000D1E0F8016481C6010E2C02C095958795C7
:101190000A94E2F780FD6D270F5F1F4F80810E9448
:1011A0004502BFEFEB1AFB0AEC1658F3DF91CF9123
:1011B0001F910F91FF90EF90DF90CF900895C4E0C2
:1011C000D8CFC3E0D6CFDC011396EC911397E9306A
:1011D00008F038C0F0E0E151F74F0C949330F80874
:1011E000FE0804090A0910092209160922091C0926
:1011F000ED91FC910084F185E02D0994ED91FC9135
:101200000284F385E02DF9CFED91FC910484F585FE
:10121000E02DF3CFED91FC910684F785E02DEDCF25
:10122000ED91FC910088F189E02DE7CFED91FC91E3
:101230000288F389E02DE1CFED91FC910488F589D6
:10124000E02DDBCF08954F925F926F927F928F9245
:101250009F92AF92BF92CF92DF92EF92FF920F9345
:101260001F93CF93DF93EC01C888D988EA88FB8865
:101270008C859D85AE85BF85C81AD90AEA0AFB0A06
:101280006C897D898E899F899B01AC010E942C2FDE
:101290004B015C016C8D7D8D8E8D9F8D9B01AC0112
:1012A0000E949A309B01AC01C501B4010E94063135
:1012B0000E947831C114D104E104F10409F0B1C0F5
:1012C00062307105810591050CF0CBC01CA21DA2F6
:1012D0001EA21FA21C8A1D8A1E8A1F8A1CAA1DAA62
:1012E0001EAA1FAADF91CF911F910F91FF90EF903F
:1012F000DF90CF90BF90AF909F908F907F906F9036
:101300005F904F9008951016110612061306B4F45C
:101310006C157D058E059F051CF42A812111A1C045
:101320009B01AC0188279927DC01821B930BA40B3E
:10133000B50B8CAB9DABAEABBFAB93C0011511052C
:101340002105310509F48DC06C157D058E059F05BD
:101350000CF087C08A81882309F483C030952095DA
:10136000109501951F4F2F4F3F4F0CAB1DAB2EAB70
:101370003FAB77C0011511052105310509F471C096
:101380008824992454018C189D08AE08BF0868155C
:1013900079058A059B050CF064C08A81811161C0C2
:1013A000DDCFCCACDDACEEACFFACA7019601C70144
:1013B000B6010E949A302B013C01C501B4010E9484
:1013C000CD2E20E030E040E850E40E942C2F20E0B9
:1013D00030E040E85FE30E949A309B01AC01C3011A
:1013E000B2010E9406319B01AC01C701B6010E9407
:1013F00099303B016C01FE01E05CFF4FE080F18021
:10140000028113819701A8010E94AE31181614F4CD
:1014100073018601C701D8018CAF9DAFAEAFBFAFDE
:101420003AC00CA91DA92EA93FA91C141D041E0415
:101430001F040CF468CF10161106120613060CF0E8
:1014400099CF0027112798010C191D092E093F0972
:1014500060177107820793070CF062CF2A81211170
:101460005FCF8CA89DA8AEA8BFA881149104A10449
:10147000B10409F096CF88AD99ADAAADBBAD8CAFE4
:101480009DAFAEAFBFAF81E01C141D041E041F044E
:101490000CF080E08A833FEF831A930AA30AB30A11
:1014A0008CAA9DAAAEAABFAACCACDDACEEACFFACB8
:1014B000C701B6010E947F316CA37DA38EA39FA3B9
:1014C000A701960160E074E284E799E40E94063186
:1014D0006C8B7D8B8E8B9F8B2A81211103CF905833
:1014E0006C8B7D8B8E8B9F8BFDCECF92DF92EF929C
:1014F000FF920F931F93CF93DF93EC016A017B015F
:1015000020E030E0A901CB01B6010E94C62E87FF82
:1015100004C0F7FAF094F7F8F094A7019601688DEB
:10152000798D8A8D9B8D0E94C62E882309F446C032
:10153000C88ED98EEA8EFB8E8E01005C1F4FA701EC
:10154000960160E074E284E799E40E940631F801B4
:1015500060837183828393838CA99DA9AEA9BFA95F
:10156000181619061A061B064CF56C897D898E899A
:101570009F899B01AC010E942C2F6B017C016C8D1B
:101580007D8D8E8D9F8D9B01AC010E949A309B01B9
:10159000AC01C701B6010E9406310E9478316CABE4
:1015A0007DAB8EAB9FABCE01DF91CF911F910F91A1
:1015B000FF90EF90DF90CF900C942309DF91CF91B3
:1015C0001F910F91FF90EF90DF90CF9008958F9231
:1015D0009F92AF92BF92EF92FF920F931F93CF9380
:1015E0007C018B01C42F0E94D402F801808091807D
:1015F000A280B380DC01CB0188199909AA09BB0933
:101600004C2F50E070E060E084179507A607B707FD
:1016100048F0F70109950E94D402F80160837183B4
:1016200082839383CF911F910F91FF90EF90BF9092
:10163000AF909F908F900895FC0180818823F9F0EE
:1016400084818823E1F08181811119C081E0818347
:1016500082819381FC014089518962897389403676
:1016600059476E4F7F4F59F040E659E76EEF7FEFD5
:10167000FC01408B518B628B738B0C942309089572
:101680004F925F926F927F928F929F92AF92BF9292
:10169000CF92DF92EF92FF920F931F93CF93DF933E
:1016A000D12CA7E1CA2E08E810E0B8E5EB2EB2E095
:1016B000FB2EC4EB4C2E512C612C712C80916C02B2
:1016C000D81608F096C0C0916A02D0916B02DC9CDB
:1016D000C00DD11D112489899A89AB89BC894D859A
:1016E0005E856F85788984179507A607B70709F483
:1016F0007AC0481759076A077B070CF076C0019734
:10170000A109B109898B9A8BAB8BBC8BA989BA894A
:10171000A03282E0B807ACF52B854801821A910807
:1017200027FD9394880C991C880C991C092C000C9B
:10173000AA08BB082C85C701821B910927FD939538
:101740009C01220F331F220F331F032E000C440B6A
:10175000550B281939094A095B09A53BB10514F055
:10176000A4EBB0E0B7FF02C0B0E0A0E00E942A30D6
:10177000A30192010E940030820E931EA41EB51E8A
:10178000D401EA85EC3078F52B85C801821B9109DC
:1017900027FD93959C01220F331F220F331FA217A1
:1017A000B3077CF02C85C701821B910927FD939517
:1017B0009C01220F331F220F331FA217B3070CF413
:1017C0009D0122503109220F331F4FB7F8948E2FFD
:1017D00090E0FC01EE0FFF1FE80FF91FED51FD4FE8
:1017E000328321834FBFD39469CF0196A11DB11DD0
:1017F00089CFDF91CF911F910F91FF90EF90DF90F4
:10180000CF90BF90AF909F908F907F906F905F90A0
:101810004F9008958FE090E00197F1F70895EF92CF
:10182000FF920F931F93CF93DF937C01062FC8E0A5
:10183000D0E010E861E0802F812309F460E0F70137
:1018400081810E94450261E0F70182810E94450288
:1018500060E0F70182810E9445021695219751F7B9
:10186000DF91CF911F910F91FF90EF900895EF922C
:10187000FF920F931F93CF93DF93EC01162FE42E6B
:10188000FF24F394442311F080E8F82E08E060E090
:101890008A810E9445020E940A0C61E08F2D8123FB
:1018A00009F460E089810E9445020E940A0C61E00F
:1018B0008A810E9445020E940A0CEE2071F1110FEC
:1018C000015029F760E08A810E94450260E0898129
:1018D0000E9473020E940A0C61E08A810E94450204
:1018E0000E940A0C89810E941C02182F60E08A81E4
:1018F0000E9445020E940A0C61E089810E947302E5
:101900000E940A0C81E0111101C080E0DF91CF91AB
:101910001F910F91FF90EF9008951695D1CFCF931F
:10192000DF93EC0160E08A810E9445020E940A0C6C
:1019300060E089810E9445020E940A0C61E08A8170
:101940000E9445020E940A0C61E089810E944502C2
:10195000DF91CF910C940A0CCF93DF93EC0161E0FF
:1019600089810E9445020E940A0C61E08A810E94DE
:1019700045020E940A0C60E089810E944502DF91C5
:10198000CF910C940A0CAF92BF92CF92DF92EF925C
:10199000FF920F931F93CF93DF93EC01162F042F29
:1019A000AD800E94AC0C40E060E4CE010E94370C98
:1019B000CE010E948F0C10958D81180FC02ED12C56
:1019C000E12EF12C84E0B12EA81631F0F601EE0DD7
:1019D000FF1DE459FE4FB080CE010E94AC0C60ECBC
:1019E0006B0D40E0CE010E94370C8D81CE0CDF1CC8
:1019F0008C151D0414F4082F011B10E0DD24DA946B
:101A0000D00E0117A1F084E0ED2DE11BA81201C05A
:101A1000E12F8F8198858E0D9F1DE80FF92FF11D05
:101A200041E06081CE010E94370C1F5FEACFCE01FA
:101A3000DF91CF911F910F91FF90EF90DF90CF90AA
:101A4000BF90AF900C948F0CEF92FF920F931F9367
:101A5000CF93DF93FC013481631738F5E22EF42E27
:101A6000062FEC0160E083810E9445021C81112356
:101A700091F01150011309C06F2DCE010E940F0C7F
:101A80006E2DCE010E940F0CF2CF60E0CE010E94BD
:101A90000F0C60E0F6CF61E08B81DF91CF911F9159
:101AA0000F91FF90EF900C944502DF91CF911F9121
:101AB0000F91FF90EF9008951F93CF93DF93DC0178
:101AC00014962C911497621718F52C91211108C0C7
:101AD00021E024274CE0DF91CF911F910C94240D3D
:101AE0001696EC91F0E0F595E7951E2F411101C097
:101AF0001860EC010E94AC0C60E8610F40E0CE0180
:101B00000E94370CCE01DF91CF911F910C948F0C66
:101B1000DF91CF911F9108950F931F93CF93DF9380
:101B2000FC0121852223C9F16217B8F5442399F1FC
:101B3000D62F8C018481681778F42FEF240F203181
:101B400008F02FE0F8012683808181110EC04AE061
:101B50006D2FC8010E94240D40E06D2FC801DF9158
:101B6000CF911F910F910C945C0DC0E0413031F08A
:101B70002695423009F421E0C22FC860C8010E94B6
:101B8000AC0C60E86C0F40E0C8010E94370CC80143
:101B90000E948F0CE1CF41E0E2CFDF91CF911F9106
:101BA0000F910895CF93DF93FC016183D0816F3F44
:101BB00011F461E002C0611105C08D2FDF91CF915A
:101BC0000C944502C62F61E08D2F0E947302ED2F09
:101BD000F0E0E55AFD4FE491E33031F140F4E130BB
:101BE000B9F0E230E1F060E0C7FFE7CFE2CFE730E5
:101BF00031F1E83061F1E430B1F78091800080622A
:101C000080938000D0E0D0938B00C0938A0004C002
:101C100084B5806884BDC7BDDF91CF91089584B538
:101C2000806284BDC8BDF8CF8091800080688093B9
:101C30008000D0E0D0938900C0938800EDCF8091E0
:101C4000B00080688093B000C093B300E5CF80916E
:101C5000B00080628093B000C093B400DDCFEF92FB
:101C6000FF921F93CF93DF93EC01162F8C8180FF9F
:101C700010C0603170F46D837E0184E0E80EF11CC9
:101C8000612F617089910E9445021695EC16FD0640
:101C9000B9F7DF91CF911F91FF90EF900895FC016C
:101CA000842F40815181E0916802F091690209948A
:101CB0004F925F926F927F928F929F92AF92BF925C
:101CC000CF92DF92EF92FF920F931F93CF93DF9308
:101CD000F12C6FE1E62E80916302F81608F0EAC05D
:101CE000C0916102D0916202FE9CC00DD11D1124F1
:101CF0008A81882309F4B2C088810E941C028C0169
:101D000089810E941C026C010E94D4024B015C017B
:101D100081E090E0CD2811F090E080E0880F991FDD
:101D200021E0012B09F020E0922F982B4B8D5C8D48
:101D30006D8D7E8D95018401041B150B260B370BD1
:101D4000B901A801453651056105710508F488C03F
:101D50008885823008F484C08B8E9C8EAD8EBE8EBA
:101D600081508887EE859E1709F445C0888503E376
:101D700010E0873010F401E010E06D8524E0E2020D
:101D8000F0011124492F092E000C550BE42BF52BE3
:101D9000E35AFE4F708170039001719F300D112442
:101DA000062E02C0220F331F0A94E2F7EF85F8894E
:101DB0002E0F3F1F388B2F874C0F5D1FFA01418577
:101DC0004423C1F04B885C886D887E884F8A588E8A
:101DD000698E7A8E8B8A9C8AAD8ABE8A02C03595BE
:101DE00027956A95E2F73A8B298B8C3008F08BE0C7
:101DF0008F5F88879E8709891A898D819E81081740
:101E0000190761F19801281B390BC901E0915F02A4
:101E1000F09160026901CC0CDD1C309709F447C0D9
:101E20006B817C812F5C3F4F23363105D0F597FDC8
:101E30002FC080E00995C00ED11E31E4C3163FE1EA
:101E4000D30654F08F85988983709927988B8F8754
:101E50001A8A198A10E000E01E830D83F3943BCFA9
:101E60004F89588D698D7A8D95018401041B150B5E
:101E7000260B370BB901A801453F5140610571059B
:101E800008F470CF8B8E9C8EAD8EBE8E18866ACF76
:101E900082E00995C8018C199D09803C904E94F20E
:101EA000DBCF97FD02C081E0C5CF83E0F2CF37FDE5
:101EB000F1CFC1CFDF91CF911F910F91FF90EF90A4
:101EC000DF90CF90BF90AF909F908F907F906F905A
:101ED0005F904F900895CF92DF92EF92FF920F9311
:101EE0001F93CF93DF936C017A0180915D029091F3
:101EF0005E02892B31F1D60113968C9100E181FDB0
:101F000008E0EB01CE25DF2510E0C0FF13C0809173
:101F10005D0290915E02892B69F0E0915B02F09185
:101F20005C02309739F0D6014D915C91612F8E2D76
:101F300081700995D695C795F694E7941F5F0113B4
:101F4000E4CFDF91CF911F910F91FF90EF90DF9041
:101F5000CF900895AF92BF92CF92DF92EF92FF920F
:101F60000F931F93CF93DF931F92CDB7DEB7C0902F
:101F70005D02D0905E02C114D10409F43FC0FC019F
:101F8000238130E1B32E21FF02C028E0B22EA62E1D
:101F90008C01F60185818683F12CE12CBA946B2D9E
:101FA000C6010E942F0EF80182810E941C028983C3
:101FB000F80182810E941C028983EE0CFF1C29819A
:101FC00081E090E0211102C090E080E0E82AF92A47
:101FD000B110E4CFF6016681C6010E942F0EF80110
:101FE000648175816E157F0549F0AA2021F0A70153
:101FF000C8010E946B0FF801F582E4820F90DF9117
:10200000CF911F910F91FF90EF90DF90CF90BF90F5
:10201000AF900895CF93DF93C0E0D6E080915A024D
:10202000C81768F4809158029091590261E0CD9FE1
:10203000800D911D11240E94AA0FCF5FEFCFDF9179
:10204000CF910895E0915602F0915702309751F0E8
:10205000DC0114962C911497222321F06D917C9130
:1020600081E009940895E0915602F091570230976B
:1020700051F0DC0114962C911497211104C06D913C
:102080007C9180E0099408950F931F93CF93DF9381
:1020900010E005E080915502181730F5C091530209
:1020A000D0915402109FC00DD11D11248B81882323
:1020B00099F08A810E941C029C81891769F091E045
:1020C000811101C090E09C839B81811107C09923FD
:1020D00019F0CE010E9433101F5FDCCF9923E1F38A
:1020E000CE010E942210F8CFDF91CF911F910F9166
:1020F0000895FC01A08DB0E01396AA0FBB1FA80F96
:10210000B91F868997892D913C91821B930B978BE0
:10211000868B82818E3008F08E5087708064809329
:102120007C0080917A00806480937A0080917A00AC
:1021300086FDFCCF8091780090917900A08DB0E071
:102140001396AA0FBB1FAE0FBF1F8D939C93A08D3C
:10215000B0E01396AA0FBB1FAE0FBF1F86899789E9
:102160002D913C91820F931F978B868B808D8F5F73
:10217000808F808D8770808F0895CF93DF93C0E02C
:10218000DEE180915202C81778F48091500290915C
:102190005102CD9F800D911D1124FC01258D21112F
:1021A0000E947910CF5FEDCFDF91CF910895CF934B
:1021B000DF93C0E0DEE180915202C817C8F5A0911C
:1021C0005002B0915102CD9FA00DB11D11245D961A
:1021D0008C915D97882351F156968D919C915797DC
:1021E00023E0969587952A95E1F713962D913C91DA
:1021F0001497AC01421B530B9A0157FF03C0319552
:102200002195310915964C9115974217130609F03F
:102210006CF414969C938E931397E0914E02F09178
:102220004F02309719F06D917C910995CF5FC3CF24
:10223000DF91CF9108950F931F93CF93DF93109168
:10224000520290914D021917E1F1C0915002D091C4
:1022500051029EE1199FC00DD11D1124209759F004
:1022600090E1FE013696DF011D929A95E9F71F8AEB
:102270001E8A188E1D8E4D838A837983688322235C
:1022800019F062E00E94730208E08D8D882319F036
:10229000CE010E9479100150C1F78E899F8923E0F9
:1022A000969587952A95E1F79C838B8381E08D8FA6
:1022B0008AE79AE190934F0280934E021F5F10933A
:1022C0005202DF91CF911F910F9108950F931F93A9
:1022D000CF93DF93082F162FD42FC8E06D2F661FE2
:1022E0006627661F802F0E944502DD0F61E0812F67
:1022F0000E94450260E0812F0E944502C15071F7A3
:10230000DF91CF911F910F9108950F931F93CF935A
:10231000DF93EC0160E088810E9445020B8110E0B0
:102320000150110950F0EC81FD81E00FF11F408157
:1023300069818A810E946611F3CF61E08881DF9113
:10234000CF911F910F910C944502EF92FF920F9342
:102350001F93CF93DF93182F80930F03C0E08091DA
:102360006F02C817A0F42C2F30E0220F331F80918A
:102370006D0290916E02820F931F60E0111103C0F5
:10238000DC0111966C910E94D20DCF5FE8CFC0E0C6
:102390000AE080917202C817B0F4E0907002F090E9
:1023A0007102C09FE00CF11C1124D0E0F70181857F
:1023B0008D1739F0412F6D2FC7010E945C0DDF5F33
:1023C000F5CFCF5FE6CFC0E0DEE080911303C81702
:1023D000E0F4E0911103F0911203CD9FE00DF11DA7
:1023E00011248081882359F082819381DC01ED9151
:1023F000FC91112331F00190F081E02D0995CF5F20
:10240000E4CF0280F381E02DF9CF00E097E0E92EE0
:1024100080917502081710F5C0917302D091740273
:102420000E9DC00DD11D11241123A1F060E0888103
:102430000E944502FB80FF2039F040E069818A81DB
:102440000E946611FA94F7CF61E088810E944502EC
:102450000F5FDECFCE010E948511FACF00E082E14E
:10246000F82EEE24E39480917802081768F5C09165
:102470007602D09177020F9DC00DD11D112411233A
:10248000D1F01D868C81E0926503809387031092C2
:1024900066031092880390E080E00E9405060E9487
:1024A0007A056E816B7F6E83686040E0CE010E948A
:1024B00016060F5FD8CFCE010E94FA066E81862FD6
:1024C00084608E836C60F1CFDF91CF911F910F916B
:1024D000FF90EF9008959F92AF92BF92CF92DF92BC
:1024E000EF92FF920F931F93CF93DF93EC01C62ED1
:1024F00061E08B810E94450261E08A810E94450271
:1025000010E08D81181708F044C0DB80BC8087E0A4
:10251000E82EF12C00E061E08D2D0E9445028B2D0C
:102520000E941C020E2C01C0880F0A94EAF7082BA7
:1025300060E08D2D0E94450281E0E81AF10858F70D
:10254000A12EB12CEF81F885EA0DFB1DD080D016AD
:10255000F1F0CC20B9F0912E990C990C990CE02E49
:10256000F12C8D2D8E2580FF07C04E2D4170692DD9
:102570006F0DCE010E944F0ED694E694F39488E03E
:10258000F812EFCFEF81F885EA0DFB1D00831F5F86
:10259000B8CF60E08A81DF91CF911F910F91FF90BA
:1025A000EF90DF90CF90BF90AF909F900C9445023A
:1025B000CF93DF93C0E0D9E080916702C81768F439
:1025C000809165029091660261E0CD9F800D911D22
:1025D00011240E946B12CF5FEFCFDF91CF9108954E
:1025E0000E948F01882359F081E08093A90780938E
:1025F000AA078091AB079091AC070C94382E1092EB
:10260000AA0790E080E008950F931F93CF930E9454
:10261000F0128C010E94F012C82F0E94F0129AE072
:10262000909F9001919F300D1124E0917002F091E4
:102630007102482F6C2FCF01820F931FCF911F91F2
:102640000F910C948C0D0C9404136F927F928F92C7
:102650009F92AF92BF92CF92DF92EF92FF920F9331
:102660001F93CF93DF930E94F012EC010E94F012AF
:10267000682E0E94E0014C010E94F0125C010E9451
:10268000F0124AE04C9F90014D9F300D11240091B3
:10269000700210917102020F131FF801218522238D
:1026A00009F449C0C7E0D0E0712C6C01DD24BB24E3
:1026B000E62CEE0CEE0CEE0CF12C6C2F4C2F4F5F39
:1026C000C6010C2E02C0959587950A94E2F780FF0B
:1026D0002FC0F8018481681650F5F401E70DF11D53
:1026E000808187FD80E295010C2E02C035952795EB
:1026F0000A94E2F720FD8068F80195816917B8F423
:10270000E82FEF77F0E0E158FE4F2491F801308197
:10271000A781B08531111EC087FD2068AC0FBD1F99
:10272000AE0DBF1D2C93662DC8010E94240D73941D
:10273000219708F0C2CFDF91CF911F910F91FF90A9
:10274000EF90DF90CF90BF90AF909F908F907F9051
:102750006F900895220F87FD2160492F4150550B3E
:10276000CA018C1B9D0BA80FB91F2C9341E0C80117
:102770000E94C30CDCCFCF93DF930E94F012EC01D8
:102780000E94F012CC0FDD1F20916D0230916E027D
:10279000682FC9018C0F9D1FDF91CF910C94D20D32
:1027A0000E94F01290911303891768F4209111038D
:1027B00030911203A9016EE0869F400D511D112436
:1027C000CA010C941C0B08950F931F930E94F012E2
:1027D00090911303891708F04DC0E0911103F09117
:1027E00012039EE0899FE00DF11D11248081882352
:1027F00009F440C0A281B3811C961D921D921D92C6
:102800001C921F9750961D921D921D921C925397D9
:10281000D4961D921D921D921C92D79794961D924C
:102820001D921D921C92979754961D921D921D9277
:102830001C92579784858823E9F082819381428591
:1028400050E0519541955109052E000C660B770B10
:10285000FC010089118922893389401751076207D9
:10286000730741F0408B518B628B738B1F910F91DB
:102870000C9423091F910F9108958F929F92AF920C
:10288000BF92CF92DF92EF92FF921F93CF93DF938D
:102890000E94F0127C010E94F012BC0180916C0237
:1028A0008E151F0409F00CF4A8C027E12E9DC0016D
:1028B0002F9D900D1124C0916A02D0916B02C80F18
:1028C000D91FCD80DE800D2C000CEE08FF0889801A
:1028D0009A80092C000CAA08BB082F813885032E8A
:1028E000000C440B550B2C193D094E095F09072EAE
:1028F000000C880B990B681979098A099B090E94B9
:1029000063302B813C81032E000C440B550B28199E
:1029100039094A095B090E940030BA01A9014C0D2E
:102920005D1D6E1D7F1D052E000C660B770B8D85C2
:102930009E85AF85B88984179507A607B70709F460
:102940005CC04D875E876F87788B8985811155C004
:102950008A858C3008F04FC0188161E0812F0E9479
:1029600073028A85282F30E0F901EE0FFF1FE20F76
:10297000F31FED51FD4F1F739081907C912B90833D
:102980001B861C862CE0622F0E947330829FB00150
:10299000112430E020E0AB01420F531FFA01EE0F8B
:1029A000FF1FE40FF51FED51FD4F908196FD16C0FE
:1029B0002F5F3F4F2C30310571F781110FC01092FE
:1029C000800082E080938100109285001092840044
:1029D000B19A80916F00826080936F00EA858E2F9C
:1029E00090E0FC01EE0FFF1FE80FF91FED51FD4FC6
:1029F00080818064808381E08987DF91CF911F91FE
:102A0000FF90EF90DF90CF90BF90AF909F908F900E
:102A10000895EF92FF920F931F93CF93DF930E943D
:102A2000F0128C010E94E0017C01EC01FC01DE014E
:102A30008081882349F09091B407891301C03196B1
:102A4000808189933196F3CFAE17BF0710F41D92A2
:102A5000FBCF22E1209FC001219F900D1124C09146
:102A60007602D0917702C80FD91F8E858823A1F0F6
:102A700010E08989811781F0412F60E0CE010E942A
:102A80003F064889B701149F600D711D1124CE01C6
:102A90000E94A1061F5FEDCFDF91CF911F910F9193
:102AA000FF90EF9008950E94F012892B49F0109248
:102AB0000B0310920C0310920D0310920E03089555
:102AC0000E94D40260930B0370930C0380930D0358
:102AD00090930E03089520912006309121068217CD
:102AE000930710F40C94EA2F80E00895AF92BF9200
:102AF000CF92DF92EF92FF920F931F93CF93DF93CA
:102B000000D000D0CDB7DEB75C0119821A821B82DB
:102B10001C82CE0101967C0110E000E06C01F50101
:102B2000808191819C012F5F3F4F318320830E94E0
:102B30006B15F7018083F8018E3241F00F5F1F4F54
:102B40008FEFE81AF80A0430110549F7EC0DFD1D66
:102B50001082C6010E94382E0F900F900F900F9098
:102B6000DF91CF911F910F91FF90EF90DF90CF9069
:102B7000BF90AF900895EF92FF920F931F93CF9362
:102B8000DF93EC0100912006109121068881998144
:102B90007C012FEFE21AF20AF982E8820E946B159B
:102BA0000E151F0540F480E0DF91CF911F910F912A
:102BB000FF90EF900895E0912F05F09130059F016F
:102BC0002F5F3F4F3093300520932F05EF5CFA4F76
:102BD00080832C3D310538F78A33C1F6108281E0BD
:102BE000E3CFEF92FF920F931F93CF93DF93EC010C
:102BF000E0902006F0902106888199818C010F5F7A
:102C00001F4F198308830E946B15E016F10650F0E0
:102C10008A3391F781E0DF91CF911F910F91FF905F
:102C2000EF90089580E0F7CFCF92DF92EF92FF927E
:102C30000F931F93CF93DF930E94F012C82F0E942F
:102C4000F012D82E0E94E0018C010E94F012C82ED2
:102C500061EB71E0C8010E947D2E2AE0C29FE00175
:102C600011240D2D000F000F000F10E0EE24E3944F
:102C7000F12C009709F477C00E94382EA0917002C1
:102C8000B0917102AC0FBD1F19962C911997222398
:102C900009F442C014962C911497D216E8F5BC01A1
:102CA000772715962C911597E22FF0E0AF0123E0DE
:102CB000440F551F2A95E1F7641775076CF593E0EB
:102CC000759567959A95E1F7877017964D915C9188
:102CD00018979C9191112AC09B01200F311FF70179
:102CE00002C0EE0FFF1F8A95E2F7CF01FA01E20F53
:102CF000F31F4081CC20B9F0842B808317968D91EF
:102D00009C911897280F391F41E0460FF901208147
:102D10006D2DCD010E94240D61EB71E090E080E00B
:102D20000E947D2EA6CF80958423E7CF8F5F8830C9
:102D300009F480E03197E61BF70BE40FF51F2081C3
:102D4000A70102C0440F551F8A95E2F7CA01CC20A3
:102D500039F0822B808341E0CD010E94C30CDCCF8F
:102D600080958223F7CFDF91CF911F910F91FF9034
:102D7000EF90DF90CF900895FB0101900020E9F7DC
:102D80003197AF01461B570BDC01ED91FC9102809E
:102D9000F381E02D09948091DF068823A1F06091F2
:102DA000B2078091B0079091B1070E94E002809134
:102DB000E706882341F063EB71E08091B0079091C2
:102DC000B1070E94BC161092E6061092DF0680E062
:102DD00008958F929F92AF92BF92EF92FF920F93BE
:102DE0001F93CF93DF93CDB7DEB7A1970FB6F894BB
:102DF000DEBF0FBECDBF7C01FA01CB0119A222308C
:102E000008F42AE08E010F5D1F4F822E912CB12C09
:102E1000A12CBF01A50194010E943230F901CA0121
:102E20006A300CF5605DD8016E938D01232B242B45
:102E3000252B79F790E080E0109721F0BD01C701C4
:102E40000E94BC16A1960FB6F894DEBF0FBECDBF90
:102E5000DF91CF911F910F91FF90EF90BF90AF90B6
:102E60009F908F900895695CDECFCF939091DF069D
:102E70009923A9F0C82F6091B3078091B007909172
:102E8000B1070E94E0024C2F50E070E060E02AE0C1
:102E90008091B0079091B107CF910C94E916CF9132
:102EA00008959091DF06911110C091E09093DF0694
:102EB0009093E606482F50E070E060E02AE08091B1
:102EC000B0079091B1070C94E9160895CF93DF9362
:102ED0009091DF0691110EC0EB010E945117809175
:102EE000DF06882319F0CE010E94E702DF91CF911F
:102EF0000C94CB1680E0DF91CF9108950097A1F05C
:102F000020912D0530912E05253A41E0340738F403
:102F100044EA51E0421B530B4817590740F46FE64F
:102F200072E085E00E94661790E080E00895820FCD
:102F3000931F90932E0580932D05C90187579C4FB1
:102F400008950E94D40260930B0370930C03809346
:102F50000D0390930E0368E670E085E00C9466170D
:102F60000F931F93CF93DF9390915502E0915302FB
:102F7000F091540280E0981721F013828F5F35960C
:102F8000FACF109255021092630210926F02909144
:102F90007202E0917002F091710280E0981721F0C6
:102FA00011868F5F3A96FACF1092720230916C02BE
:102FB000A0916A02B0916B0220E03217D1F019960D
:102FC0008C911997882391F01A96EC911A978E2F6D
:102FD00090E0FC01EE0FFF1FE80FF91FED51FD4FD0
:102FE00080818F7B808319961C9219972F5F57964B
:102FF000E4CF10926C0290911303E0911103F091D1
:10300000120380E0981721F010828F5F3E96FACF6E
:103010001092130390917802E0917602F09177027A
:1030200080E0981731F02685211116868F5F729601
:10303000F8CF109278021092520290917502E091AE
:103040007302F091740280E0981721F016828F5F6E
:103050003796FACF1092750290916702E09165025F
:10306000F091660280E0981721F016828F5F399602
:10307000FACF1092670210E006E080915A0218170A
:10308000A0F4C0915802D0915902109FC00DD11DDB
:1030900011248B8180FF07C062E08A810E94730245
:1030A0008B818E7F8B831F5FE8CF10925A02109224
:1030B0000A03109209031092100310923005109227
:1030C0002F0510922E0510922D056CE670E085E01C
:1030D000DF91CF911F910F910C9466176FE670E00E
:1030E0008FE00C94661781E08093100362E770E034
:1030F00081E10C946617CF93DF938AE00E94511709
:103100008091090390910A03892B91F18BE390E060
:103110000E946B15C82F8091DF06882379F060919B
:10312000B3078091B0079091B1070E94E0026C2F25
:103130008091B0079091B1070E94E002C1E0D0E019
:103140008091090390910A03C817D90788F4CE012A
:10315000CB960E946B159091DF06992339F0682F6A
:103160008091B0079091B1070E94E0022196E8CFCC
:103170000E94CB1681E080936402DF91CF91089585
:10318000AF92BF92CF92DF92EF92FF920F931F9375
:10319000CF93DF93C0E0D5E080915502C81778F453
:1031A0008091530290915402CD9F800D911D112466
:1031B000FC01238121110E942210CF5FEDCFC0E0DE
:1031C000D5E080915502C81778F480915302909110
:1031D0005402CD9F800D911D1124FC0123812111EA
:1031E0000E943310CF5FEDCF10E069E0C62E8091D2
:1031F00067021817D8F5C0916502D09166021C9D30
:10320000C00DD11D11248E81882371F18091680237
:1032100090916902892B41F160E0CE010E946B120E
:10322000D12CF12CE12C8D818E151F04E9F0E4F0F6
:10323000EF81F885EE0DFF1D808100E0A82EB12CF6
:1032400080FF06C041E06D2D600FCE010E944F0E41
:10325000C501959587950F5F083081F7FFEFEF1A4D
:10326000FF0A88E0D80EDFCF1F5FC1CF10E049E032
:10327000C42E809167021817D8F5C0916502D091CD
:1032800066021C9DC00DD11D11248E81882371F111
:103290008091680290916902892B41F160E0CE0132
:1032A0000E946B12D12CF12CE12C8D818E151F0404
:1032B000E9F0E4F0EF81F885EE0DFF1D808100E07C
:1032C000A82EB12C80FD06C040E06D2D600FCE0110
:1032D0000E944F0EC501959587950F5F083081F7C5
:1032E000EFEFEE1AFE0AF8E0DF0EDFCF1F5FC1CF6F
:1032F00010E006E080915A021817E0F4C0915802DD
:10330000D0915902109FC00DD11D112460E0CE0153
:103310000E94AA0F4C815D8170E060E0CE010E94A6
:103320006B0F4C815D816FEF7FEFCE010E946B0FC1
:103330001F5FE0CFC0E0DEE180915202C81728F5A0
:10334000A0915002B0915102CD9FA00DB11D11244A
:103350005D968C915D978823B1F056968D919C91E6
:10336000579723E0969587952A95E1F714969C93B5
:103370008E931397E0914E02F0914F02309719F01F
:103380006D917C910995CF5FD7CF8091DF06811138
:103390000FC082E20E945117DF91CF911F910F91D0
:1033A000FF90EF90DF90CF90BF90AF900C94CB1632
:1033B000DF91CF911F910F91FF90EF90DF90CF9011
:1033C000BF90AF900895CF93DF932091DF06222323
:1033D000A1F0EC016091B3078091B0079091B10723
:1033E0000E94E002209749F0BE018091B0079091C1
:1033F000B107DF91CF910C94BC16DF91CF91089566
:103400000F931F93CF93DF93909164029923A9F0B8
:103410008A01D62FC82F8DE10E945117C8010E9442
:10342000E3198D2F0E9435178C2F0E943517DF91DD
:10343000CF911F910F910C94CB16DF91CF911F91DB
:103440000F9108950F931F93CF9390916402992346
:1034500081F08B01C82F86E00E945117C8010E949D
:10346000E3198C2F0E943517CF911F910F910C9467
:10347000CB16CF911F910F9108950F931F93CF9368
:10348000DF93909164029923A9F08A01D62FC82F67
:103490008EE10E945117C8010E94E3198D2F0E94EE
:1034A00035178C2F0E943517DF91CF911F910F9107
:1034B0000C94CB16DF91CF911F910F9108950F932C
:1034C0001F93CF9390916402992381F08B01C82FB1
:1034D00087E00E945117C8010E94E3198C2F0E94B7
:1034E0003517CF911F910F910C94CB16CF911F914F
:1034F0000F910895CF92DF92EF92FF92CF93DF93D7
:103500006C01809164028823B9F1EB018CE10E9487
:103510005117CE010E94E3198091DF06882321F123
:103520006091B3078091B0079091B1070E94E002CB
:10353000C091B007D091B1070D2C000CEE08FF0828
:103540002AE0B701A601F7FE0CC06DE2CE010E9491
:10355000E00244275527BA014C195D096E097F091D
:103560002AE0CE010E94E916DF91CF91FF90EF9003
:10357000DF90CF900C94CB16DF91CF91FF90EF901E
:10358000DF90CF900895CF93DF93EC0185E00E9408
:103590005117CE010E94E3198091DF06882321F0A4
:1035A00085E790E00E94E702DF91CF910C94CB1663
:1035B0000F931F93CF93DF93EC011981112389F0AF
:1035C00025E0129FC00111240E947E17909354029F
:1035D00080935302892B09F0F5C086EB91E00E949D
:1035E000C31A1B81812F90E0009779F0880F991FF3
:1035F0000E947E1790936E0280936D02892B09F0D2
:10360000E4C08DEB91E00E94C31A1C810889412F10
:10361000400F5527551FCA01892B99F02AE0249F96
:10362000C001259F900D11240E947E179093710276
:1036300080937002892B09F0CBC084EC91E00E944A
:10364000C31A0F858D81202F280F3327331F09853B
:10365000020F132F111D01151105A1F08EE0382F57
:10366000309FC001319F900D11240E947E179093CE
:10367000120380931103892B09F0AEC08DEC91E009
:103680000E94C31A1E81112389F047E1149FC001D3
:1036900011240E947E1790936B0280936A02892BFB
:1036A00009F09DC085ED91E00E94C31A18850A813A
:1036B000212F200F3327331FC9010097A1F02FE1DD
:1036C000AC01249FC001259F900D11240E947E17FC
:1036D0009093620280936102892B09F083C08BED85
:1036E00091E00E94C31A1F81112389F052E1159FB6
:1036F000C00111240E947E17909377028093760276
:10370000892B09F073C084EE91E00E94C31A1A89D4
:103710000B85212F200F3327331FC9010097A1F0FC
:103720002EE1AC01249FC001259F900D11240E9421
:103730007E179093510280935002892B09F059C053
:1037400088EE91E00E94C31A1A85112389F057E090
:10375000159FC00111240E947E17909374028093DC
:103760007302892B09F049C081EF91E00E94C31ACE
:103770001C85112381F029E0129FC00111240E94B1
:103780007E179093660280936502892BC9F58FEFAF
:1037900091E00E94C31ACE85CC23B9F136E0C39FD5
:1037A000C00111240E947E17909359028093580201
:1037B000892B49F58CE092E0DF91CF911F910F9119
:1037C0000C94C31A109341020CCF109340021DCFEA
:1037D000100F10933F0235CF00933E0253CF10934A
:1037E0003D0264CF100F10933C027DCF10933B023B
:1037F0008ECF100F10934D02A7CF10933A02B8CF7F
:1038000010933902C8CFC0933802DF91CF911F9136
:103810000F910895FB0101900020E9F73197AF0166
:10382000461B570BDC01ED91FC910284F385E02DE2
:103830000994CF92DF92EF92FF920F931F93CF9351
:10384000DF938C01EB01FC01D0886D2D70E0FE014F
:1038500001900020E9F7CF0101978C1B9D0B861783
:103860009707B0F4681B790B76956795D82EC80139
:103870000E943F06CC2EEC2EFD2E8E2D8C198D1520
:1038800048F4F70161917F01C8010E948906F5CFD4
:1038900060E0EDCFDF91CF911F910F91FF90EF90FE
:1038A000DF90CF9008959F92AF92BF92CF92DF9218
:1038B000EF92FF920F931F93CF93DF93CDB7DEB7B5
:1038C000CDB6DEB60E94F0125C010E94F0128C01AF
:1038D0000E94F012982E8DB79EB7801B910B0FB6E9
:1038E000F8949EBF0FBE8DBFADB7BEB711967D01D8
:1038F000EDB7FEB711823296C801029797FD03C05B
:1039000011920197FBCF0E0D1F2D111DE016F10630
:1039100031F00E94F012D8018E938D01F7CF27E08D
:103920002A9DC0012B9D900D1124E0917302F0910E
:103930007402E80FF91F86818823F1F090E08381FB
:103940009817B8F4292F30E0A481B581BD01620F2A
:10395000731FDB014C912E0D3F1DD9018C919920D5
:1039600029F0842BDB018C939F5FE9CF8095842322
:10397000F9CFCF010E9485110FB6F894DEBE0FBEBD
:10398000CDBEDF91CF911F910F91FF90EF90DF900F
:10399000CF90BF90AF909F90089585ED8093BC002D
:1039A0008091610390916203A0916303B0916403DD
:1039B0000796A11DB11D23E0B695A795979587950C
:1039C0002A95D1F72091BC0024FD03C010925F031B
:1039D0000895409161035091620360916303709177
:1039E0006403452B462B472B69F30097A105B105CE
:1039F00041F02AE22A95F1F700C00197A109B10927
:103A0000E1CF809160030C9469044F925F926F92B2
:103A10007F928F929F92AF92BF92CF92DF92EF925E
:103A2000FF92CF93DF93EC016A017B0120E030E04D
:103A3000A901CB01B6010E94C62E87FF04C0F7FA88
:103A4000F094F7F8F0948C8C9D8CAE8CBF8CA70111
:103A50009601C501B4010E94C62E882309F449C00D
:103A60006CA97DA98EA99FA90E94CD2E2B013C0196
:103A7000A7019601C501B4010E9406319B01AC016A
:103A8000C301B2010E942C2F0E9478316CAB7DAB38
:103A90008EAB9FABA701960160E070E080E090E400
:103AA0000E9406310E94B93126E53EE04DE25FE317
:103AB0000E942C2F20E034E244E759E40E942C2F8E
:103AC00068AF79AF8AAF9BAFCC8EDD8EEE8EFF8E66
:103AD000CE01DF91CF91FF90EF90DF90CF90BF901C
:103AE000AF909F908F907F906F905F904F900C94CD
:103AF0002309DF91CF91FF90EF90DF90CF90BF909F
:103B0000AF909F908F907F906F905F904F900895AF
:103B1000EF920F93CF93DF93EC0187E791E09983C6
:103B200088836B831C861D861E861F86188A198AC9
:103B30001A8A1B8A1C8A1D8A1E8A1F8A80E090E0CE
:103B4000A0E8BFE3888F998FAA8FBB8F1C8E1D8E34
:103B50001E8E1F8E88A399A3AAA3BBA31CA21DA27D
:103B60001EA21FA261E070E07DA76CA73FEF3FA7F8
:103B700018A619A61AA61BA64C832D830E83EF82C6
:103B80001EA61CAA1DAA1EAA1FAA18AE19AE1AAEFE
:103B90001BAE1CAE1DAE1EAE1FAEFE01E05CFF4FA5
:103BA00080839183A283B3831A82188619861A862A
:103BB0001B86CE010E94100740E050E060E87FE3E2
:103BC000CE01DF91CF910F91EF900C94051DCF9214
:103BD000DF92EF92FF920F931F93CF93DF930E9498
:103BE000F012D82F0E94F0127C010E94F0128C017A
:103BF00080911303D817C0F580911103909112039F
:103C00009C014EE0D49F200D311D1124E9018881D3
:103C1000882359F0B70190E080E00E94CB2EAB01E1
:103C2000BC018A819B810E94750A88818823E1F00A
:103C3000B80190E080E00E94CB2E6B017C0120E077
:103C400030E0A9010E94C62E882371F0B701A601B9
:103C50008A819B81DF91CF911F910F91FF90EF900F
:103C6000DF90CF900C94051DDF91CF911F910F91A4
:103C7000FF90EF90DF90CF9008958F929F92AF9238
:103C8000BF92CF92DF92EF92FF92CF93DF930E9489
:103C9000F012D82FC82F0E948F01882309F495C0F5
:103CA00081E08093A9078093AA078091AB07909148
:103CB000AC070E94562E6B017C0180911303C8173C
:103CC00008F078C080911103909112039C014EE09E
:103CD000D49F200D311D1124E9018881882309F426
:103CE00069C019828E819F81A885B985C816D906B9
:103CF000EA06FB0609F45EC08A819B81DC011C9602
:103D00008D909D90AD90BC901F972B85222351F0F4
:103D10002D85222339F0ED91FC910280F381E02D75
:103D200009951D868C85882379F0C814D904EA0486
:103D3000FB0454F48E819F81A885B985C816D906E5
:103D4000EA06FB060CF41C868C85811110C08C14CD
:103D50009D04AE04BF045CF48E819F81A885B98563
:103D60008C159D05AE05BF0514F481E08C878A8112
:103D70009B814A852C85429FA0011124052E000CB1
:103D8000660B770B4C0D5D1D6E1D7F1DFC01808841
:103D90009188A288B388481559056A057B0531F0DA
:103DA000408B518B628B738B0E942309CE82DF8202
:103DB000E886F986DF91CF91FF90EF90DF90CF906A
:103DC000BF90AF909F908F9008951092AA07C12C3A
:103DD000D12C760172CF0F931F93CF93DF93FC0109
:103DE0002481621770F4062FEC01108111110EC0AE
:103DF0001F5F20E0412F602FCE010E94240D18305C
:103E0000B9F7DF91CF911F910F910895458150E04F
:103E100070E060E0878190850E940E324D816FEFE7
:103E2000640FCE01DF91CF911F910F910C94C30CC1
:103E30002F923F924F925F926F927F928F929F92BA
:103E4000AF92BF92CF92DF92EF92FF920F931F93A8
:103E5000CF93DF93CDB7DEB765970FB6F894DEBF8B
:103E60000FBECDBF8E010F5F1F4F83E1D8011D92A2
:103E70008A95E9F78091090390910A03892BE1F46F
:103E8000C8010E94D81A65960FB6F894DEBF0FBE1F
:103E9000CDBFDF91CF911F910F91FF90EF90DF90F9
:103EA000CF90BF90AF909F908F907F906F905F90DA
:103EB0004F903F902F9008958BE390E09D8B8C8BDB
:103EC000CE0144960E947615F801E80FF11D80811D
:103ED0008F5F8083CE0144960E94F115F82ECE01AB
:103EE00044960E947615882341F0F110EDCF6CE8DE
:103EF00070E085E00E94661702C0FF20C1F3C80190
:103F00000E94D81A8BE390E09D8B8C8BCE01449657
:103F10000E947615082FF4EF4F2E55245394612CF0
:103F2000712CEFEFE00FE23108F092C0F0E0E556BF
:103F3000F04E0C949330AD1F362203202D20222109
:103F4000EE219B2236222221C523AD2324242820C2
:103F5000A12422212D202820AD23CE0144960E94A9
:103F60007615F090550290914102F916A9F1209131
:103F70002F05309130050091530210915402B5E0A5
:103F8000FB9E000D111D11240115110511F0F80102
:103F90001382D80112968C9312972F5C3A4F2D936F
:103FA0003C9362E00E947302F80182810E941C022D
:103FB00021E0892B09F420E0D80114962C93149762
:103FC00081E013968C938FE59AE19093570280934A
:103FD0005602F394F0925502CE0144960E94BB150E
:103FE000182FCE0144960E947615082F882309F4D5
:103FF0002BC5111196CF10920C0666E571E085E095
:104000000E94661740CFCE0144960E947615F0902C
:104010006F0290914002F916D9F00F2D10E0000FB9
:10402000111F20916D0230916E02020F131F0115B6
:10403000110511F0F8011182D8018C9361E00E9402
:10404000730260E0C8010E94D20DF394F0926F02F7
:10405000CE0144960E94F115C3CFD12C003129F432
:10406000CE0144960E947615D82ECE0144960E9429
:104070007615982ECE0144960E947615B82ECE0164
:1040800044960E947615A82ECE0144960E9476157D
:10409000C82ECE0144960E947615E82E80917202B9
:1040A00090913F028917A1F2009170021091710264
:1040B000BAE08B9F000D111D11240115110531F07F
:1040C000F801148215828FE086831186FD2CD801B9
:1040D000DC9211969C9211971296AC9212971396BD
:1040E000BC921397D1105AC0DE2CB8E0BE1510F464
:1040F00078E0D72EE8E0DE9EC00111240E947E17F2
:10410000D80118969C938E931797892B09F494C025
:104110001496DC92149788E015968C93159761E0BD
:1041200011968C910E94730261E0F80182810E94D5
:10413000730261E0D80113968C910E94730261E0D2
:10414000F80183810E944502D80114968C91F816DB
:1041500008F059C020E04FE06F2DC8010E94240DE7
:10416000F8018081811109C08481F81630F427E0BC
:104170004BE06F2DC8010E94240D20E049E06F2D17
:10418000C8010E94240D6F2DC8010E94EB1E41E062
:104190006F2DC8010E945C0DF394D6CF81E0149678
:1041A0008C93BDEF84E0DB1286E0F801858390E01C
:1041B0000E947E17D80118969C938E931797892B8F
:1041C000D9F161E012968C910E94730261E0F801CE
:1041D00081810E94730261E0D80112968C910E9445
:1041E000450261E0F80181810E94450260E0C8015A
:1041F0000E94EB1E8FE0D80116968C9341E060E0A0
:10420000C8010E945C0DF801E186F12CD8011996D5
:104210008C91F81608F01BC44C2D6F2DC8010E941C
:104220008C0D40E06F2DC8010E945C0D6F2DC80100
:104230000E94EB1EF394EACF6BE271E085E00E94EE
:10424000661706CFCE0144960E947615F82ECE0151
:1042500044960E947615982ECE0144960E947615BB
:10426000E82ECE0144960E947615282E093021F0C2
:1042700010E00F3009F092C0CE0144960E947615EE
:10428000182F0F3009F08AC0CE0144960E9476158F
:10429000082FCE0144960E947615382ECE01449602
:1042A0000E947615882E8091130390913E02891703
:1042B00009F4CECEC0901103D0901203BEE08B9FC4
:1042C000C00CD11C1124C114D10411F0F6011082CC
:1042D00084E490E00E947E175C01892B09F47BC086
:1042E000013009F46AC0023009F46CC0011171C0D8
:1042F000FE1058C0921056C065E0E62E04E0292D4D
:104300004F2D61E0C5010E94881DD6011396BC9215
:10431000AE92129740E050E068EC73E4C5010E9451
:10432000750A40E050E068E474E4F601828193810C
:104330000E94051DD60114961C93149781E01596D2
:104340008C93112321F062E0812F0E947302F60109
:10435000328681E0811001C080E0D6011B968C93EB
:104360001B9781E08C9311961C9211971D968C934C
:104370001D971C968C9300911303112359F0809183
:10438000110390911203BEE00B9F800D911D11242B
:104390000E941C0B0F5F009313035ACE812C312C0B
:1043A00000E081CF0F2D292D422D64E0C5010E9430
:1043B000881DF601B382A282ADCF0F2D292D422D8B
:1043C00068E0A0CF55E0E52E04E0292D4F2D61E0F7
:1043D000EDCFD6011C9264E071E030CFCE0144965F
:1043E0000E94761590916C0220913D02921709F47B
:1043F0002FCEE0916A02F0916B0227E1929FE00DCF
:10440000F11D11243097B9F0209107032C3058F595
:1044100031E0320F30930703228730E0D901AA0F31
:10442000BB1FA20FB31FAD51BD4F28EB3BE012964F
:104430003C932E9311971186158616861786108A3F
:10444000118A128A138A148A1282118244EB50E074
:1044500054834383168215825087478380839F5FEE
:1044600090936C02F5CD2FEF2287E5CFCE014496D5
:104470000E947615E82ECE0144960E947615D82E1D
:1044800080E0083021F4CE0144960E947615F09029
:10449000630290913C02F91609F49ECD20912F05FC
:1044A0003091300500916102109162025FE1F59E4A
:1044B000000D111D11240115110519F0D8011296D6
:1044C0001C92F801168215822F5C3A4F34832383A5
:1044D000E082D18295E0989FF0011124EC5BFE4FC1
:1044E000D801199601900D929A95E1F762E08E2D10
:1044F0000E94730262E0D80111968C910E947302AF
:10450000F8011686108A1786128A118A1086178A71
:10451000108E118E128E438A548A658A768A81E0C3
:10452000828322E23AE13093600220935F02F394A7
:10453000F092630251CDCE0144960E947615E82E8A
:10454000CE0144960E947615F82ECE0144960E9424
:1045500076159091780220913B02921709F478CD5C
:10456000009176021091770232E1939F000D111DA8
:1045700011240115110561F0D80113961C921E92A9
:104580001297E8E3F1E01196FC93EE9319961C92D2
:10459000D8011F96EC921F975096FC925097519617
:1045A0008C93519791E01E969C931E971496EC92D3
:1045B00014971A96FC921A971B968C931B971C962D
:1045C0001C921C971D961C9210929A0210929902AE
:1045D00010926603109288030E944B04EDE7F5E009
:1045E000F093BD02E093BC022EE735E03093C102A8
:1045F0002093C002D80115961C9215971B968C919A
:104600001B97823018F098E015969C93F8019485DA
:10461000992329F0813019F48581846085830E9473
:10462000AF024B015C0182E3C82ED12CE12CF12CAE
:104630000E94AF02681979098A099B09683E734094
:1046400081059105A8F3F1E0CF1AD108E108F1083E
:1046500028EE820E23E0921EA11CB11CC114D104CD
:10466000E104F10429F7D8011D966C91C8010E945C
:104670008F0660E3C8010E948F068BE496E40197E1
:10468000F1F760E3C8010E948F068BE496E401977E
:10469000F1F760E3C8010E948F0683E592E001977D
:1046A000F1F760E2C8010E948F06F801658160623F
:1046B00040E0C8010E94160684E0D80116968C934B
:1046C00040E06CE0C8010E941606C8010E94710615
:1046D00082E0F801878340E066E0C8010E94160688
:1046E00040E062E0C8010E9416068BE39FE101975B
:1046F000F1F7C8010E94FA068CE08093B800D80157
:104700001E968C91882319F1C8010E947106F80148
:104710004189F12C433020F04695FF24FA94F40EA1
:104720004F2D65E172E0C8010E94191CD801519615
:104730008C91823038F041E04F0D60E272E0C801A8
:104740000E94191C40E060E0C8010E943F06809171
:1047500078028F5F809378027BCCCE0144960E94D2
:104760007615182FCE0144960E947615482F609139
:104770002F05709130056F5C7A4F21E00B3009F006
:1047800020E0812F0E941B1127CCCE0144960E946D
:104790007615F82ECE0144960E947615D82ECE01BD
:1047A00044960E947615E82ECE0144960E94761516
:1047B0009091750220913A02921709F449CC009128
:1047C000730210917402B7E09B9F000D111D11241C
:1047D00091E0F8019683F082D182E282838361E0E6
:1047E0008F2D0E94730261E0D80111968C910E9476
:1047F000730261E0F80182810E947302D80113966E
:104800008C9190E00E947E17F80195838483892B18
:10481000C1F080E0D80113969C911397891740F45A
:104820001496ED91FC91E80FF11D10828F5FF2CF8D
:10483000C8010E948511809175028F5F8093750277
:1048400007CC67ED70E0FACCCE0144960E94761555
:10485000F82ECE0144960E947615D82ECE014496AD
:104860000E947615E82ECE0144960E94761590910E
:10487000670220913902921709F4AECB20912F05DF
:10488000309130050091650210916602B9E09B9F5E
:10489000000D111D11240115110511F0F8011682EA
:1048A000D8011296FC9212971396DC9213971496E5
:1048B000EC9214972F5C3A4F11963C932E931596D9
:1048C0008C9361E08F2D0E94730261E0F801838177
:1048D0000E94730262E0D80114968C910E947302C8
:1048E000F801858190E00E947E17D80118969C936C
:1048F0008E931797892BF9F080E0F801958189173D
:1049000040F40780F085E02DE80FF11D10828F5FE5
:10491000F4CF81E0868360E0C8010E946B12E0E082
:10492000FAE1F0936902E0936802809167028F5F79
:104930008093670251CB6BEA70E085E00E946617B6
:104940004BCBCE0144960E947615F82ECE014496AC
:104950000E947615E82ECE0144960E947615082F07
:10496000CE0144960E947615182FCE0144960E94DF
:104970007615E092190600931A0610931B06809391
:104980001C0610921D0609E116E061E0D8018D9128
:104990008D010E947302EDE1F6E0E017F107A9F73F
:1049A00080911D06816080931D0660E089E196E09C
:1049B0000E942F0ECE0144960E94761590915A02C5
:1049C00020913802921709F407CB20912F053091DE
:1049D00030050091580210915902F6E09F9F000D9A
:1049E000111D11240115110559F049E156E05093AC
:1049F0005E0240935D02D80115961C921E92149798
:104A0000F801F2822F5C3A4F318320838130C9F064
:104A1000138262E08F2D0E947302F801838181600E
:104A2000838360E0C8010E94AA0F2DE33AE130932E
:104A30005C0220935B0280915A028F5F80935A023E
:104A4000CBCA82E08383E5CF11111DCAD4CA8091FD
:104A500072028F5F80937202FBCA0E94181F0C942F
:104A60007318FF920F931F93CF93DF938C01EB0189
:104A7000F8800E94EA2FF81621F06F2DC8010E94DD
:104A8000F22FCE01DF91CF911F910F91FF900895EA
:104A9000AF92BF92CF92DF92EF92FF920F931F934C
:104AA000CF93DF930E94E0016C01EC01099000209C
:104AB000E9F72197C81BD90BDD27E0900903F09097
:104AC0000A03C70101968C0F9D1F8E31914008F09B
:104AD00053C05E018FEFA81AB80A2BE3E20EF11C57
:104AE00095012E0D3F1D8091200690912106821781
:104AF000930778F010E000E0B601600F711FC70166
:104B0000800F911F0E9431250F5F1F4F0A151B0553
:104B100098F34091090350910A03C40FD51FD09315
:104B20000A03C09309038091DF06811147C085E025
:104B30000E9451178091DF06882391F06091B3079E
:104B40008091B0079091B1070E94E002AE0170E041
:104B500060E02AE08091B0079091B1070E94E916C9
:104B6000DF91CF911F910F91FF90EF90DF90CF9049
:104B7000BF90AF900C94CB168091DF0681111EC0C0
:104B800085E00E9451178091DF06882349F36091E8
:104B9000B3078091B0079091B1070E94E002C091E5
:104BA000B007D091B1076DE2CE010E94E0022AE089
:104BB00041E050E060E070E0CE01D0CFDF91CF91D6
:104BC0001F910F91FF90EF90DF90CF90BF90AF902B
:104BD0000895CF93DF930E94E001FC0190E3A0E0F1
:104BE000B1E001900D929A95E1F7809120069091A5
:104BF0002106892B29F063E290E080E00E94F22FE9
:104C00008091200690912106C09760F0D0E0C0E02E
:104C1000BE0160507F4F2196CE010E943125CF32D8
:104C2000D105B1F78091DF0681110BC085E00E94AC
:104C3000511780E091E00E94E319DF91CF910C942D
:104C4000CB16DF91CF910895CF93DF930E94D402CA
:104C5000611571058105910511F00E942F2E67E203
:104C600072E082E492E00E9415320E94E02D2FEF64
:104C70003FE040E050E00E940030E2E4F2E093E0E8
:104C8000862F8F7020E3280F2A33D0F5238324E06A
:104C9000769567952A95E1F7915031969111F0CF6D
:104CA0000E94E02D2FEF3FE040E050E00E940030F6
:104CB000E2E4F2E093E0862F8F7020E3280F2A339E
:104CC00010F5278384E0769567958A95E1F79150F2
:104CD00031969111F0CF8091200690912106CB97CB
:104CE00060F0C0E3D0E0BE016E5E7D4FCE010E9459
:104CF00031252196CB33D105B1F7DF91CF910895BE
:104D0000885C8383C4CF895C8783DCCF0E942426A0
:104D10008091DF06811109C08AE00E94511782E468
:104D200092E00E94E3190C94CB1608950F931F9301
:104D3000CF93DF9380E390E00E946B158335D9F524
:104D400081E390E00E946B158E34A9F580912006D6
:104D500090912106CB9770F002E412E0C0E3D0E01E
:104D6000CE010E94EA2FF80181938F012196CB3367
:104D7000D105B1F78AE00E9451178091DF068823A0
:104D800021F080E791E00E94E70280E091E00E943C
:104D9000E31982E492E00E94E31982E392E00E9428
:104DA000E31982E392E00E94E319DF91CF911F9112
:104DB0000F910C94CB160E942426DCCF1F920F92E9
:104DC0000FB60F9211242F933F938F939F93AF931E
:104DD000BF938091310390913203A0913303B0913E
:104DE00034033091300323E0230F2D3758F501961B
:104DF000A11DB11D209330038093310390933203A2
:104E0000A0933303B093340380913503909136031C
:104E1000A0913703B09138030196A11DB11D809375
:104E2000350390933603A0933703B0933803BF91B3
:104E3000AF919F918F913F912F910F900FBE0F9047
:104E40001F90189526E8230F0296A11DB11DD2CF01
:104E50001F920F920FB60F9211242F933F934F93EF
:104E60005F936F937F938F939F93AF93BF93EF93D2
:104E7000FF9382E296E00E949403FF91EF91BF912D
:104E8000AF919F918F917F916F915F914F913F91E2
:104E90002F910F900FBE0F901F9018951F920F9299
:104EA0000FB60F9211242F935F936F937F938F937D
:104EB0009F93AF93BF93EF93FF93E0913206F091EE
:104EC00033068081E0913806F091390682FD24C0D6
:104ED000208180913B0690E0019660E670E00E94A0
:104EE0007F3090913C06981741F0E0913B06F0E04E
:104EF000EE5DF94F258F80933B06FF91EF91BF91B7
:104F0000AF919F918F917F916F915F912F910F90B2
:104F10000FBE0F901F9018958081EFCF1F920F92B8
:104F20000FB60F9211242F933F934F935F936F937C
:104F30007F938F939F93AF93BF93CF93DF93EF9321
:104F4000FF9380910803C0910703D0E087FF24C03E
:104F50001092850010928400809108038F5F8093E7
:104F6000080380910803082E000C990B8C179D07ED
:104F700024F4809108038C30C4F1809184009091D6
:104F80008500049680349C4908F47AC0809184009E
:104F900090918500049676C080910803082E000C3D
:104FA000990B8C179D07C4F6E09108038E2FEE0F26
:104FB000990BFC01EE0FFF1FE80FF91FED51FD4F9C
:104FC000808186FFC9CFE09108038E2FEE0F990BE9
:104FD000FC01EE0FFF1FE80FF91FED51FD4F80811F
:104FE00060E08F730E944502B7CF2091840030911A
:104FF0008500E09108038E2FEE0F990BFC01EE0F58
:10500000FF1FE80FF91FED51FD4F81819281820F43
:10501000931F9093890080938800E09108038E2F5E
:10502000EE0F990BFC01EE0FFF1FE80FF91FED517A
:10503000FD4F808186FF11C0E09108038E2FEE0F97
:10504000990BFC01EE0FFF1FE80FF91FED51FD4F0B
:10505000808161E08F730E944502FF91EF91DF91A3
:10506000CF91BF91AF919F918F917F916F915F9100
:105070004F913F912F910F900FBE0F901F90189559
:1050800080E49CE990938900809388008FEF80935F
:105090000803E3CF1F920F920FB60F9211242F93A4
:1050A0003F934F935F936F937F938F939F93AF93B0
:1050B000BF93EF93FF938091B900887F803609F406
:1050C0004AC0F0F5883209F4A7C018F5803109F418
:1050D0009BC0B8F4882309F4F9C0883009F494C05F
:1050E000FF91EF91BF91AF919F918F917F916F91C0
:1050F0005F914F913F912F910F900FBE0F901F9096
:105100001895883109F488C0803251F780935D0387
:1051100014C0803409F49DC040F48033B9F388335F
:10512000F9F680935D0385ECB0C0803509F485C045
:10513000883509F496C0883499F60E94CD1CD0CFEA
:10514000883909F48CC038F5883729F050F488364E
:1051500011F0803729F683E080935F031092E2021A
:1051600057C0883809F47BC0803919F0803809F0BD
:10517000B7CF8091E202803208F071C0E091E20284
:1051800081E08E0F8093E2028091BB00F0E0EE534D
:10519000FD4F80833DC0803B39F0E0F4803A09F454
:1051A00079C0883A09F09CCF84E080935F03109225
:1051B000BF021092BE02E091BC02F091BD020995BF
:1051C0008091BE0281110FC081E08093BE021092D7
:1051D0009C0209C0803C09F4A6CF883C09F4A3CF07
:1051E000883B09F07DCFE091BF0281E08E0F809374
:1051F000BF02F0E0E456FD4F80818093BB009091A8
:10520000BF028091BE0229C080913A038093BB0007
:1052100085EC8093BC0064CF90915C0380915B032C
:10522000981758F5E0915C0381E08E0F80935C0342
:10523000F0E0E55CFC4F8081E9CFE0915C0381E028
:105240008E0F80935C038091BB00F0E0E55CFC4F27
:10525000808390915C0380915B039817C8F285E886
:10526000D8CFE0915C0381E08E0F80935C03809146
:10527000BB00F0E0E55CFC4F808380915E03811110
:105280005CCF81E08093390384EA8093BC00109264
:105290005F0326CF85EC8093BC0010925F03809162
:1052A000E202803230F4E091E202F0E0EE53FD4F92
:1052B00010826091E20270E0E091C002F091C102C0
:1052C00082EC92E009951092E2020ACF10925D03FF
:1052D00034CF109225061092240688EE93E0A0E0C9
:1052E000B0E08093260690932706A0932806B093FB
:1052F000290621E931E0309323062093220625EC8C
:1053000030E030932F0620932E0624EC30E03093CB
:1053100031062093300620EC30E0309333062093A2
:10532000320621EC30E0309335062093340622EC2F
:1053300030E0309337062093360626EC30E0309389
:1053400039062093380610923B0610923C061092C4
:105350003D0610923E061092100610920F068093A2
:10536000110690931206A0931306B093140683EAD5
:1053700091E090930E0680930D0610921D068FEF1C
:105380008093190680931A0680931B0680931C064F
:1053900010922106109220061092B6071092B507BF
:1053A00082E296E09093B1078093B0071092E706EF
:1053B0008CE28093B3078BE38093B2078FE28093F4
:1053C000B40780E68093E2068FE58093E3061092AF
:1053D000E1061092AC071092AB071092AE07109244
:1053E000AD0781E08093A907E7EBF7E08DEF97E049
:1053F000119211928E179F07D9F71092E606089521
:10540000789484B5826084BD84B5816084BD85B59F
:10541000826085BD85B5816085BD80916E008160AB
:1054200080936E0010928100809181008260809351
:105430008100809181008160809381008091800053
:105440008160809380008091B10084608093B1007E
:105450008091B00081608093B00080917A00846078
:1054600080937A0080917A00826080937A008091A4
:105470007A00816080937A0080917A0080688093BE
:105480007A001092C100E0913206F091330682E07A
:105490008083E0912E06F0912F061082E091300675
:1054A000F091310680E1808310923A06E091360651
:1054B000F091370686E08083E0913406F09135065E
:1054C000808180618083E0913406F091350680818F
:1054D00088608083E0913406F09135068081806891
:1054E0008083E0913406F091350680818F7D808342
:1054F00080E094E0909321068093200681EA97E172
:105500009093B6078093B50784E093E19093B80732
:105510008093B70785E293E19093BA078093B90728
:1055200083E293E19093EC078093EB0784E196E1AB
:105530009093FA078093F9078BEB93E19093BC0764
:105540008093BB078DE39EE19093BE078093BD07D8
:1055500080ED93E19093E2078093E10784EE93E17D
:105560009093E4078093E30787EE9DE19093F6071D
:105570008093F5078DE394E19093C0078093BF0774
:1055800086E996E29093CA078093C9078BE798E172
:105590009093D0078093CF0788E495E29093CE074D
:1055A0008093CD0780EB97E19093D2078093D1074A
:1055B0008EE698E19093D4078093D3078DE295E22D
:1055C0009093D8078093D70789EE95E29093DE07F2
:1055D0008093DD0786E896E29093E0078093DF07EB
:1055E00080EC98E19093E6078093E50783E595E1E9
:1055F0009093DC078093DB0789E095E19093EA07BD
:105600008093E90783E59CE19093EE078093ED0793
:1056100081E08093E70690E080E00E946B15833282
:1056200071F400E011E0D0E0C0E02196CE010E94CC
:10563000EA2FD8018D938D01CF32D105B1F71092A9
:105640000A03109209038BE390E00E946B158F3FD1
:10565000D1F08BE390E0EC0121960E946B1588233A
:1056600091F08091090390910A03019690930A03A7
:1056700080930903CE01C130D44069F76FEF71E028
:1056800085E00E9466170E94181F0E9473180E94EE
:10569000D4026093140370931503809316039093C0
:1056A00017030E94D4026093180370931903809328
:1056B0001A0390931B030E94D4026E5F7F4F8F4F9B
:1056C0009F4F60931C0370931D0380931E03909360
:1056D0001F030E94D4026C5F7F4F8F4F9F4F6093D8
:1056E00020037093210380932203909323030E944D
:1056F000D4026C5F7F4F8F4F9F4F60932403709352
:10570000250380932603909327030E94D4026A5FA7
:105710007F4F8F4F9F4F609328037093290380938F
:105720002A0390932B030E94D402685F7F4F8F4F10
:105730009F4F60932C0370932D0380932E039093BF
:105740002F03662463943EE0532E40E0A42E40E0F5
:10575000B42E772473948091E6068111C2C08091A3
:10576000B0079091B107DC01ED91FC910084F185C7
:10577000E02D0995892B09F4B4C08091B007909170
:10578000B107DC01ED91FC910084F185E02D0995D4
:1057900020E6E22EF12C8036910564F48091B0076A
:1057A0009091B107DC01ED91FC910084F185E02D31
:1057B00009957C01C091B007D091B10798E4892E7A
:1057C00097E0992E640110E000E0E016F10609F080
:1057D00053C0D0E0C0E0EC16FD0609F4BCCFF401E4
:1057E00091914F011092A8073091B4072091E506DE
:1057F0009093E506931304C0921302C01092E5063D
:105800008091E106E82FF0E04091B207E152F94FB4
:10581000941355C0321709F452C01186882321F021
:105820007092A8071092E5061092E1061092AC075C
:105830001092AB071092AE071092AD077092A907B5
:105840008091A807813009F04AC00E94F01280932D
:10585000E0068332F0F52091AA072223D1F1FC0162
:10586000FF27EE0FFF1FE954F84F0190F081E02D64
:10587000309779F1099533C00E94D40268877987FF
:105880008A879B87E881F9810284F385E02DCE0128
:10589000099597FF35C10E94D402288539854A852C
:1058A0005B85621B730B840B950B2C813D814E81B4
:1058B0005F81621773078407950720F38ACF91876A
:1058C0008F5F8093E1069091E306891708F0ACCFD3
:1058D000B7CFE091B507F091B607309759F621960A
:1058E0007ACFC0900B03D0900C03E0900D03F090A2
:1058F0000E0380910F03811109C10E94D4026C191B
:105900007D098E099F09613A7B4B8D40910518F006
:1059100081E00E94A51180911003882309F4E4C05E
:105920004AE064E173E084E490E10E94E70A41E028
:1059300068E173E088E59EE00E94E70A912C80917F
:105940001303981608F0ADC0C0911103D091120353
:10595000959CC00DD11D11248881882309F49BC01A
:105960000A811B81F80184A195A1A6A1B7A1892B69
:105970008A2B8B2B09F440C00E94AF026B017C0183
:10598000F80180A591A5A2A5B3A5B701A601481B62
:10599000590B6A0B7B0B84A195A1A6A1B7A148174F
:1059A00059076A077B0728F184859585A685B78501
:1059B0002281222309F471C00196A11DB11D8487A3
:1059C0009587A687B787D8011C964D915D916D91FB
:1059D0007C911F97ED91FC910680F781E02DC80125
:1059E0000995F801C0A6D1A6E2A6F3A6C8010E94B7
:1059F00023098881882331F18C810E941C029D81BA
:105A0000891701F18D8381111DC088818823D1F010
:105A100089818823B9F0EA81FB8114861586168670
:105A20001786108A118A128A138A14AA15AA16AA2E
:105A300017AA14A215A216A217A2148A158A168AEA
:105A4000178A19828A819B814A852C85429FA001F1
:105A50001124052E000C660B770B0E811F81288503
:105A60003985400F511F621F731FDC011C960D9179
:105A70001D912D913C911F974017510762077307A5
:105A800051F42B85222339F0ED91FC910190F081A6
:105A9000E02D09956D86939452CF0197A109B10924
:105AA0008ECF45E06CE173E080E49BE00E94E70A62
:105AB00042E364E273E087ED90E10E94E70A4AE086
:105AC00060E273E08DEB90E10E94E70A4AE068E251
:105AD00073E088ED92E10E94E70A4AE06CE273E02D
