:100000000C94BD010C94E5010C94E5010C94E50100
:100010000C94E5010C94E5010C94E5010C94E501C8
:100020000C94E5010C94E5010C945F290C94CE2905
:100030000C94E5010C94E5010C94E5010C94E501A8
:100040000C94E5010C94002C0C94E5010C94E50152
:100050000C94E5010C94E5010C94E5010C94152930
:100060000C94E5010C94E5010C94E5010C94E50178
:100070000C94E5010C94E5010C94E5010C94E50168
:100080000C94E5010C94E5010C94E5010C94E50158
:100090000C94BC2C0C94E5010C94E5010C94E50146
:1000A0000C94E5010C94E5010C94E5016E2F6100C0
:1000B0004F4B004F4B004F4B00646F6573206E6FCA
:1000C000742066697420696E204D656D6F727900C9
:1000D0004661696C7572652C20454550524F4D2024
:1000E00073697A6520657863656564656420004995
:1000F0006E7075745368696674657220617272619E
:100100007920646F6573206E6F742066697420694E
:100110006E746F204D656D6F7279004F75747075D8
:1001200074536869667465722061727261792064C3
:100130006F6573206E6F742066697420696E746FCA
:10014000204D656D6F727900537465707065722013
:10015000617272617920646F6573206E6F742066BE
:10016000697420696E746F204D656D6F7279004CF3
:100170006564205365676D656E7420617272617984
:1001800020646F6573206E6F742066697420696ED9
:10019000746F204D656D6F7279004661696C757280
:1001A00065206F6E2072656164696E6720636F6E93
:1001B000666967004D6F6269466C69676874204DB7
:1001C0006963726F00070605040100080A0B0C0D35
:1001D000097E306D79335B5F707F7B771F0D3D4FFC
:1001E00047000000000000000000000000000000C8
:1001F00000000000000000000000000000800180FE
:10020000257E306D79335B5F707F7B0000000900D5
:100210000000777F4E7E4F475F37307C000E0076C0
:100220007E677E775B463E000000336D4E1378009C
:1002300008007D1F0D3D4F477B3730380006001505
:100240001D6773055B0F1C000000276D4E007800D2
:1002500000080B0002020200000904000001020273
:1002600000000524001001052401010104240206F8
:100270000524060001070581031000400904010060
:10028000020A000000070502024000000705830281
:100290004000000403090412010002EF0201404F74
:1002A0001B0692000101020301537061726B4675D7
:1002B0006E00537061726B46756E2050726F204DE8
:1002C0006963726F004C6F6164696E6720636F6E63
:1002D000666967206661696C65640000000000243F
:1002E0000027002A002D0030000000000025002813
:1002F000002B002E00310000000000230026002902
:10030000002C002F0004040404040304050202026C
:10031000020403020202020606060606060404029E
:1003200002020404040802011040804010204080B2
:10033000408008020401804020100201108010203B
:100340004040200000000200090F000003040100EB
:100350000C00000000000000000000000000000091
:1003600000446576696365427566666572204F76FE
:100370006572666C6F772100DB2D11241FBECFEFF5
:10038000DAE0DEBFCDBF12E0A0E0B1E0EAEEFCE6CD
:1003900002C005900D92AC34B107D9F728E0ACE467
:1003A000B2E001C01D92A037B207E1F711E0CDEB3A
:1003B000D1E004C02197FE010E94EA34CC3BD10772
:1003C000C9F70E944C2E0C9473360C940000AC01BB
:1003D000109255079091250880912408FA01BF01D9
:1003E000641B750B2091550730813093550793138B
:1003F00004C0921302C0109255073081311104C01D
:10040000921721F0CB0108953817D1F33196E7CF39
:100410000F931F93CF93DF9380911908882309F4DA
:1004200046C0D0E0C0E0813029F482E08093190812
:10043000C9E5D7E080911A08882341F1209721F47B
:10044000C0911E08D0911F088E01CE010E94E701C5
:10045000892B29F42196F80180818111F5CFF801CB
:100460008081882309F1C8010E94E701F801E80FA3
:10047000F91F8081882311F010823196F0931F08B4
:10048000E0931E0810931D0800931C0880911C081F
:1004900090911D08892B59F081E080931A08DF9113
:1004A000CF911F910F91089510E000E0EBCF80E015
:1004B000F6CF0E940802882351F081E080931A0849
:1004C00080931B0880911C0890911D08089510923C
:1004D0001B0890E080E00895FC018091620388236E
:1004E00011F13FB7F89482E08093E9002091F20087
:1004F000822F90E01816190614F481E090E088230A
:1005000039F0289844E6409361034091F10040831C
:10051000222339F02091F200211103C02BE6209311
:10052000E8003FBF08958FEF9FEF08952FB7F8942D
:1005300083E08093E9009091E800892F807295FF15
:1005400004C09091F20080E4891B2FBF0895809130
:10055000590381110DC082E08093550384E080939C
:100560005603109258031092570381E08093590369
:1005700085E593E0089581508F3008F047C0E82F5B
:10058000F0E0EB53FD4F0C94EA34E202E602D402B1
:10059000DA02DE02060306030603E902EF02F302B3
:1005A000F702FD0206030103809180008F7780939C
:1005B00080000895809180008F7DF9CF8091800028
:1005C000877FF5CF84B58F7784BD089584B58F7DFF
:1005D000FBCF809190008F77809390000895809159
:1005E00090008F7DF9CF80919000877FF5CF80912B
:1005F000C0008F778093C00008958091C0008F7DE8
:10060000F9CF8091C200877F8093C2000895CF9375
:10061000DF93282F30E0F901ED5BFC4F8491F90165
:10062000EC5DFC4FD491F901EB5FFC4FC491CC23FE
:10063000A1F081110E94BB02EC2FF0E0EE0FFF1F32
:10064000E950FD4FA591B491EC91ED2381E090E04C
:1006500009F480E0DF91CF91089580E090E0FACF37
:100660001F93CF93DF93282F30E0F901ED5BFC4F10
:100670008491F901EC5DFC4FD491F901EB5FFC4FE3
:10068000C491CC23A9F0162F81110E94BB02EC2F3C
:10069000F0E0EE0FFF1FE751FD4FA591B4918FB72A
:1006A000F894EC91111108C0D095DE23DC938FBF34
:1006B000DF91CF911F910895DE2BF8CFCF93DF9379
:1006C00090E0FC01EC5DFC4F24918B5F9C4FFC01A2
:1006D00084918823C9F090E0880F991FFC01E552AE
:1006E000FD4FA591B491FC01E751FD4FC591D49107
:1006F00061110DC09FB7F8948C91209582238C9343
:100700008881282328839FBFDF91CF91089562308D
:1007100051F49FB7F8943C91822F809583238C935A
:10072000E8812E2BEFCF8FB7F894EC912E2B2C93E2
:100730008FBFEACF3FB7F894809151039091520355
:10074000A0915303B091540326B5A89B05C02F3F39
:1007500019F00196A11DB11D3FBFBA2FA92F982FE7
:100760008827BC01CD01620F711D811D911D42E0E2
:10077000660F771F881F991F4A95D1F708958F92AA
:100780009F92AF92BF92CF92DF92EF92FF924B0176
:100790005C010E949A036B017C010E949A036C1910
:1007A0007D098E099F09683E734081059105A8F374
:1007B00021E0821A9108A108B10888EEC80E83E0F2
:1007C000D81EE11CF11C81149104A104B10429F785
:1007D000FF90EF90DF90CF90BF90AF909F908F9061
:1007E00008952FB7F89460914D0370914E03809156
:1007F0004F03909150032FBF089540911F035091D4
:10080000200320911D0330911E0342175307B4F4B7
:100810009091E8009570E1F39091E80092FD19C085
:100820008093F10080911F039091200301968F73B4
:100830009927892B19F48EEF8093E80080911F038C
:100840009091200301969093200380931F0381E0F1
:10085000089580E00895EF92FF920F931F93CF9336
:10086000DF93F82E192FE62E042F81E0860F880FD4
:100870000E94FD0383E00E94FD03CF2DD12FEC0EDB
:10088000FD2EF11CCE15DF05B9F007FF13C0FE01E8
:1008900084910E94FD03182F80E00E94FD038123B4
:1008A00021968111EFCFDF91CF911F910F91FF9092
:1008B000EF9008958881EDCF81E0F5CFDF92EF9240
:1008C000FF920F931F93CF93DF93D82E8A01EB01F2
:1008D0007B01E40EF51ECE15DF0559F0D7FE12C0E0
:1008E000FE0184910E94FD0321968111F4CF0FEF48
:1008F0001FEFC801DF91CF911F910F91FF90EF90F3
:10090000DF9008958881EECF0F931F93CF93DF93ED
:100910001F92CDB7DEB782E0898342E450E061E503
:1009200072E080E80E945E040E94A702DC01129639
:100930000D911C910115110589F0D801ED91FC91E3
:100940000280F381E02DBE016F5F7F4FC8010995E2
:1009500097FD04C0F80100851185ECCF89810F90C7
:10096000DF91CF911F910F910895615030F0209148
:10097000F100FC0120830196F8CF289884E680934B
:1009800061030895DC01ED91FC910190F081E02D6F
:100990000994EF92FF920F931F93CF93DF937C0103
:1009A0006091240880912108909122080E94C2043D
:1009B0000091210810912208E701FE01649166234D
:1009C00059F0D801ED91FC910190F081E02DC80122
:1009D00009952196892B89F7DF91CF911F910F916E
:1009E000FF90EF900895AF92BF92CF92DF92EF9277
:1009F000FF920F931F93CF93DF936C017B018B01C9
:100A0000040F151FEB015E01AE18BF08C017D10718
:100A100059F06991D601ED91FC910190F081E02DA2
:100A2000C6010995892B79F7C501DF91CF911F91F7
:100A30000F91FF90EF90DF90CF90BF90AF9008950F
:100A40008F929F92AF92BF92CF92DF92EF92FF92DE
:100A50000F931F93CF93DF936C017B018A018091E9
:100A60000B01882309F45CC080916203882309F498
:100A700057C08091230380FF05C08091E000826011
:100A80008093E000E801B12C8AEFA82E93E0892E34
:100A90002AE3922E209711F4BB20D9F10E949602EE
:100AA00081110AC0AA94AA20D9F161E070E080E027
:100AB00090E00E94BF03EECF8C171D0611F00CF0E2
:100AC0008C2F9FB7F8948092E9002091E80025FDD3
:100AD00002C09FBFDFCF282F30E0C21BD30BF7012E
:100AE000815020F041914093F100FACFE20EF31EC5
:100AF000BB2021F09092E800B12CEBCF8091E80070
:100B000085FDE7CF9092E800BB24B394209709F3CA
:100B1000F3CF5D9884E680932203101611063CF013
:100B200081E090E0F6019383828310E000E0C80149
:100B3000DF91CF911F910F91FF90EF90DF90CF90B9
:100B4000BF90AF909F908F900895CF93DF931F92A7
:100B5000CDB7DEB76983DC01ED91FC910280F381B2
:100B6000E02D41E050E0BE016F5F7F4F09950F908F
:100B7000DF91CF91089583E08093E9008091F200A6
:100B8000882319F08AE38093E80008950E94960272
:100B900090E00895CF93DF931F92CDB7DEB7FC01AD
:100BA0008485958597FD08C02FEF3FEF3587248713
:100BB0000F90DF91CF910895CE0101960E946C02B3
:100BC000019719F4898190E0F3CF8FEF9FEFF0CF79
:100BD0000F931F93CF93DF931F92CDB7DEB78C0196
:100BE000FC018485958597FF0BC0CE0101960E947C
:100BF0006C02019771F4898190E0F80195878487F0
:100C0000F801848595850F90DF91CF911F910F9109
:100C100008958FEF9FEFF1CFFC018485958597FDB7
:100C20000BC09FB7F89482E08093E9008091F200B6
:100C30009FBF90E0019608959FB7F89482E080935B
:100C4000E9008091F2009FBF90E0089508952091FF
:100C5000D202260F3327331F21323105ECF42091C5
:100C60008903FC0190E080E0243069F082E008957F
:100C7000A091D2022191AC0140555D4FA40FB52F38
:100C8000B11D2C930196861798F38091D202680FBC
:100C90006093D20280E0089581E008951092890364
:100CA00081E0809388031092630361E082E00E94F8
:100CB000300361E083E00E943003E9EBF0E08081E3
:100CC0008E7F808380818D7F808388E48093B800CD
:100CD00085E48093BC000895CF93DF9391E09093D7
:100CE000AF028823B9F0C091B800D091BA008091CA
:100CF000BC008A7B8093BC0060E082E00E943003ED
:100D000060E083E00E9430030E944E06D093BA0058
:100D1000C093B800DF91CF9108958F929F92AF92C8
:100D2000BF92CF92DF92EF92FF920F931F93CF93D8
:100D3000DF93D091B203D13208F0D7C0182FC09101
:100D4000B1030E949A036B017C0180918903811198
:100D50006BC082E080938903109388038FEF8093A8
:100D6000870310928603D0938503A1E9B3E0E5E6FB
:100D7000F3E080E0D81391C0109264038091640383
:100D8000CC0FC82BC093640380916303813009F0BA
:100D900088C0109263030E949A036B017C018091CA
:100DA00064038093BB0080918B0390918C03A0918E
:100DB0008D03B0918E03892B8A2B8B2BA1F00E947F
:100DC0009A0300918B0310918C0320918D03309135
:100DD0008E036C197D098E099F09061717072807CE
:100DE000390708F442C08091BC0083FDD8CF85EC60
:100DF0008093BC000E949A036B017C01809189035F
:100E0000823009F450C0809187038F3F09F46FC08E
:100E100080918703803209F46CC08091870380330E
:100E200009F469C084E026C080918B0390918C0303
:100E3000A0918D03B0918E03892B8A2B8B2B09F403
:100E400084CF0E949A0380908B0390908C03A09093
:100E50008D03B0908E036C197D098E099F0986164B
:100E60009706A806B90608F070CF80918A030E9401
:100E70006C0685E0109290031092B20310928F03DB
:100E8000DF91CF911F910F91FF90EF90DF90CF9066
:100E9000BF90AF909F908F9008959D9191938F5F99
:100EA00069CF85EEA5CF80918B0390918C03A091A3
:100EB0008D03B0918E03892B8A2B8B2B09F49ECF47
:100EC0000E949A0300918B0310918C0320918D0353
:100ED00030918E036C197D098E099F09061717073B
:100EE0002807390708F08ACFC0CF81E0C3CF80E060
:100EF000C1CF82E0BFCF83E0BDCF81E00C948D06EF
:100F0000089508950895E091AE028091AD02E8172A
:100F100030F4F0E0E357FD4F808190E008958FEFCB
:100F20009FEF08959091AE028091AD022FEF3FEFB9
:100F3000981748F4E92FF0E0E357FD4F208130E0A7
:100F40009F5F9093AE02C90108958091AD02909188
:100F5000AE02891B990B0895CF92DF92EF92FF9218
:100F60000F931F93CF93DF937C01CB018A012091D4
:100F70008F03222389F0EB016B01C40ED51ECC1523
:100F8000DD0569F06991D701ED91FC910190F08147
:100F9000E02DC7010995F3CF642F0E942706C801F1
:100FA000DF91CF911F910F91FF90EF90DF90CF9045
:100FB0000895CF93DF931F92CDB7DEB76983209159
:100FC0008F032223F9F02091B203203258F021E060
:100FD00030E0FC013383228390E080E00F90DF91CA
:100FE000CF91089580919003E82FF0E0EF56FC4FE9
:100FF000998190838F5F809390038093B20381E007
:1010000090E0ECCF61E0CE0101960E942706F7CF79
:10101000682F8BEE96E00C94D907CF93C82F84608D
:1010200090E00E9408088C2F90E08B7FCF910C9469
:1010300008080F931F93CF93DF938C01C62FD42FF3
:10104000FC01848191E090938F038093B10310920F
:1010500090031092B203862F807F842B9585892B75
:101060000E940D08F0E1CF9FC0011124F801958581
:10107000892B8D2B0E940D08DF91CF911F910F912D
:101080000C947D07CF93DF93CDB7DEB728970FB6CB
:10109000F894DEBF0FBECDBF1A82198220E430E083
:1010A0003C832B83FC01228530E03E832D83205C32
:1010B0003F4F38872F832385241710F44FEF420FBB
:1010C000E42FF0E0EE0FFF1FEC0FFD1F2181620FF8
:1010D000606840E028960FB6F894DEBF0FBECDBF23
:1010E000DF91CF910C941908CF93DF93EC0140E08E
:1010F00061E00E9419088BE39FE10197F1F7898570
:10110000882339F040E060E0CE01DF91CF910C946C
:101110004208DF91CF91089541E00E94190881E0D3
:1011200090E00895FC01248131E030938F032093F7
:10113000B103109290031092B203607F8585862BD5
:101140000E940D080C947D07AF92BF92CF92DF9260
:10115000EF92FF920F931F93CF93DF936C01FC01EB
:10116000848191E090938F038093B1031092900358
:101170001092B203EB01042F10E05B01A00EB11E30
:10118000F12CEE24E394CA15DB0541F18991F601B7
:1011900095859160807F892B0E940D08FE01319713
:1011A0002081F0E12F0290011124F60185858160F4
:1011B000822B0E940D08F394F7E0FF1520F780E0E2
:1011C0000E948D06F6018481E0928F038093B10323
:1011D000109290031092B203F12CD5CF0E947D079C
:1011E000C8010197DF91CF911F910F91FF90EF9070
:1011F000DF90CF90BF90AF90089528E0FC01258745
:10120000848191E090938F038093B10310929003B7
:101210001092B20388E090E00E9408080C947D07C9
:1012200090E080E00895CF93DF93FC012381222397
:1012300059F1EC0161E084810E945E0361E08D81DF
:101240000E945E038B81843011F08830B1F461E03C
:101250008E810E945E0361E08F810E945E038FA5F4
:101260008F3F91F061E00E945E036EA581E06827E8
:101270008FA5DF91CF910C943003833011F086302D
:1012800071F761E08E81E9CFDF91CF910895CF931F
:10129000DF93FC0123812223A9F0EC010190F0816E
:1012A000E02D0480F581E02D60E009958FA58F3F4A
:1012B00049F061E00E945E036EA58FA5DF91CF919A
:1012C0000C943003DF91CF910895DC01ED91FC91F6
:1012D000248135814770552766277727415051096A
:1012E00061097109473051056105710560F4FA0122
:1012F000E458F64F0C94EA34860988098A098C0967
:101300008E099009920961E0F901099465E0FCCF2A
:1013100064E0FACF66E0F8CF62E0F6CF6AE0F4CF9F
:1013200068E0F2CF69E0F0CFCF93DF93EC01CB011F
:10133000BA0126E030E040E050E00E946B346230B9
:1013400071058105910589F16CF4611571058105BF
:101350009105D1F06130710581059105F9F0DF91BA
:10136000CF910895643071058105910561F124F1F3
:10137000653071058105910591F7E881F981048057
:10138000F581E02D66E006C0E881F9810480F581F1
:10139000E02D64E0CE01DF91CF910994E881F981DD
:1013A0000480F581E02D65E0F5CFE881F9810480C6
:1013B000F581E02D61E0EECFE881F9810480F581CF
:1013C000E02D63E0E7CFE881F9810480F581E02D2D
:1013D00062E0E0CFDC01ED91FC910480F581E02D2D
:1013E00043705527662777274230510561057105FF
:1013F00071F0433051056105710559F041305105D7
:101400006105710511F065E0099466E0FDCF6AE0C1
:10141000FBCF69E0F9CFCF93DF93EC01CB01BA01A9
:1014200023E030E040E050E00E946B346130710511
:101430008105910599F06230710581059105A9F04A
:10144000672B682B692BC1F4E881F9810480F58151
:10145000E02D64E0CE01DF91CF910994E881F9811C
:101460000480F581E02D61E0F5CFE881F981048009
:10147000F581E02D62E0EECFDF91CF910895DC01A0
:10148000ED91FC910480F581E02D4370552766278E
:101490007727423051056105710571F043305105E0
:1014A0006105710559F0413051056105710511F073
:1014B00062E0099463E0FDCF61E0FBCF60E0F9CF2B
:1014C000CF93DF93EC01E881F9810480F581E02D71
:1014D0008A8160E0811162E0CE010995E881F9819D
:1014E0000480F581E02D8A8161E0811163E0CE0105
:1014F00009958CA59DA58230910538F0880F991F1C
:10150000880F991F05970197F1F7E881F981048009
:10151000F581E02D8A8160E0811162E0CE01DF91EA
:10152000CF910994CF93DF93EC0120E030E0A90143
:101530006C897D898E899F890E94053618162CF446
:10154000E8A9F9A9DF91CF910994EAA9FBA9FACFFB
:10155000CF92DF92EF92FF920F931F93CF93DF937F
:10156000DC011396CC91C43039F0C83059F1C33046
:1015700019F0C63049F1C2E08C010C5F1F4FF12C0D
:10158000E12CC62ED12CD1E0F8016481C6010E2CCD
:1015900002C0959587950A94E2F780FD6D270F5F4D
:1015A0001F4F80810E943003BFEFEB1AFB0AEC163D
:1015B00058F3DF91CF911F910F91FF90EF90DF9043
:1015C000CF900895C4E0D8CFC3E0D6CFDC01139606
:1015D000EC911397E93008F038C0F0E0EE50F54F89
:1015E0000C94EA34FB0A010B070B0D0B130B250BB4
:1015F000190B250B1F0BED91FC910084F185E02D5B
:101600000994ED91FC910284F385E02DF9CFED91E1
:10161000FC910484F585E02DF3CFED91FC910684D7
:10162000F785E02DEDCFED91FC910088F189E02D5B
:10163000E7CFED91FC910288F389E02DE1CFED91A8
:10164000FC910488F589E02DDBCF08954F925F92DD
:101650006F927F928F929F92AF92BF92CF92DF92C2
:10166000EF92FF920F931F93CF93DF93EC01C88803
:10167000D988EA88FB888C859D85AE85BF85C81A88
:10168000D90AEA0AFB0A6C897D898E899F899B01A8
:10169000AC010E9497334B015C016C8D7D8D8E8D6A
:1016A0009F8D9B01AC010E94F1349B01AC01C501EF
:1016B000B4010E945D350E94CF35C114D104E1040C
:1016C000F10409F0B1C062307105810591050CF09B
:1016D000CBC01CA21DA21EA21FA21C8A1D8A1E8A8C
:1016E0001F8A1CAA1DAA1EAA1FAADF91CF911F91B3
:1016F0000F91FF90EF90DF90CF90BF90AF909F90B1
:101700008F907F906F905F904F9008951016110604
:1017100012061306B4F46C157D058E059F051CF4A6
:101720002A812111A1C09B01AC0188279927DC01E6
:10173000821B930BA40BB50B8CAB9DABAEABBFABBD
:1017400093C0011511052105310509F48DC06C15F3
:101750007D058E059F050CF087C08A81882309F4DA
:1017600083C030952095109501951F4F2F4F3F4F07
:101770000CAB1DAB2EAB3FAB77C00115110521059E
:10178000310509F471C08824992454018C189D08EE
:10179000AE08BF08681579058A059B050CF064C082
:1017A0008A81811161C0DDCFCCACDDACEEACFFAC89
:1017B000A7019601C701B6010E94F1342B013C013B
:1017C000C501B4010E94383320E030E040E850E425
:1017D0000E94973320E030E040E85FE30E94F1345C
:1017E0009B01AC01C301B2010E945D359B01AC01BC
:1017F000C701B6010E94F0343B016C01FE01E05CC0
:10180000FF4FE080F180028113819701A8010E94BF
:101810000536181614F473018601C701D8018CAF80
:101820009DAFAEAFBFAF3AC00CA91DA92EA93FA96D
:101830001C141D041E041F040CF468CF101611069E
:10184000120613060CF099CF0027112798010C19E6
:101850001D092E093F0960177107820793070CF0D5
:1018600062CF2A8121115FCF8CA89DA8AEA8BFA806
:1018700081149104A104B10409F096CF88AD99AD0B
:10188000AAADBBAD8CAF9DAFAEAFBFAF81E01C14B6
:101890001D041E041F040CF080E08A833FEF831AAE
:1018A000930AA30AB30A8CAA9DAAAEAABFAACCAC7B
:1018B000DDACEEACFFACC701B6010E94D6356CA31F
:1018C0007DA38EA39FA3A701960160E074E284E745
:1018D00099E40E945D356C8B7D8B8E8B9F8B2A816A
:1018E000211103CF90586C8B7D8B8E8B9F8BFDCEFF
:1018F000CF92DF92EF92FF920F931F93CF93DF93DC
:10190000EC016A017B0120E030E0A901CB01B601C6
:101910000E94313387FF04C0F7FAF094F7F8F0948F
:10192000A7019601688D798D8A8D9B8D0E94313338
:10193000882309F446C0C88ED98EEA8EFB8E8E01AC
:10194000005C1F4FA701960160E074E284E799E410
:101950000E945D35F80160837183828393838CA933
:101960009DA9AEA9BFA9181619061A061B064CF5A3
:101970006C897D898E899F899B01AC010E94973378
:101980006B017C016C8D7D8D8E8D9F8D9B01AC01DB
:101990000E94F1349B01AC01C701B6010E945D3584
:1019A0000E94CF356CAB7DAB8EAB9FABCE01DF9190
:1019B000CF911F910F91FF90EF90DF90CF900C94FB
:1019C000260BDF91CF911F910F91FF90EF90DF9049
:1019D000CF9008958F929F92AF92BF92EF92FF9215
:1019E0000F931F93CF937C018B01C42F0E94F103AF
:1019F000F80180809180A280B380DC01CB0188193E
:101A00009909AA09BB094C2F50E070E060E08417E7
:101A10009507A607B70748F0F70109950E94F1035B
:101A2000F8016083718382839383CF911F910F911B
:101A3000FF90EF90BF90AF909F908F900895FC0122
:101A400080818823F9F084818823E1F081818111EC
:101A500019C081E0818382819381FC014089518991
:101A600062897389403659476E4F7F4F59F040E67F
:101A700059E76EEF7FEFFC01408B518B628B738BCC
:101A80000C94260B08954F925F926F927F928F92E3
:101A90009F92AF92BF92CF92DF92EF92FF920F93FD
:101AA0001F93CF93DF93D12CA7E1CA2E08E810E053
:101AB000B8E5EB2EB2E0FB2EC4EB4C2E512C612C82
:101AC000712C80918002D81608F096C0C0917E02D9
:101AD000D0917F02DC9CC00DD11D112489899A8987
:101AE000AB89BC894D855E856F857889841795079C
:101AF000A607B70709F47AC0481759076A077B0792
:101B00000CF076C00197A109B109898B9A8BAB8B38
:101B1000BC8BA989BA89A03282E0B807ACF52B85C5
:101B20004801821A910827FD9394880C991C880C0F
:101B3000991C092C000CAA08BB082C85C701821B24
:101B4000910927FD93959C01220F331F220F331F0C
:101B5000032E000C440B550B281939094A095B095F
:101B6000A53BB10514F0A4EBB0E0B7FF02C0B0E0B4
:101B7000A0E00E949534A30192010E946B34820E72
:101B8000931EA41EB51ED401EA85EC3078F52B8592
:101B9000C801821B910927FD93959C01220F331FD9
:101BA000220F331FA217B3077CF02C85C701821BBD
:101BB000910927FD93959C01220F331F220F331F9C
:101BC000A217B3070CF49D0122503109220F331FD5
:101BD0004FB7F8948E2F90E0FC01EE0FFF1FE80F37
:101BE000F91FE950FD4F328321834FBFD39469CF52
:101BF0000196A11DB11D89CFDF91CF911F910F914A
:101C0000FF90EF90DF90CF90BF90AF909F908F901C
:101C10007F906F905F904F9008958FE090E00197D4
:101C2000F1F70895EF92FF920F931F93CF93DF93F5
:101C30007C01062FC8E0D0E010E861E0802F81230E
:101C400009F460E0F70181810E94300361E0F7014F
:101C500082810E94300360E0F70182810E9430039C
:101C60001695219751F7DF91CF911F910F91FF901A
:101C7000EF900895EF92FF920F931F93CF93DF930E
:101C8000EC01162FE42EFF24F394442311F080E896
:101C9000F82E08E061E08A810E945E030E940D0E2A
:101CA00061E08F2D812309F060E089810E945E034D
:101CB0000E940D0E60E08A810E945E030E940D0E5C
:101CC000EE2081F1110F015029F761E08A810E9415
:101CD0005E0360E089810E945E030E940D0E60E059
:101CE0008A810E945E030E940D0E89810E94070373
:101CF000182F811104C061E089810E945E030E9457
:101D00000D0E61E08A810E945E030E940D0E81E04B
:101D1000111101C080E0DF91CF911F910F91FF90D1
:101D2000EF9008951695CFCFCF93DF93EC0161E04C
:101D300089810E945E030E940D0E60E08A810E94EC
:101D40005E030E940D0E60E089810E945E03DF91B8
:101D5000CF910C940D0E61E0FC0181810E945E0325
:101D60000C940D0EAF92BF92CF92DF92EF92FF9242
:101D70000F931F93CF93DF93EC01162F042FAD80A9
:101D80000E94AB0E40E060E4CE010E943A0ECE010C
:101D90000E94940E10958D81180FC02ED12CE12E2B
:101DA000F12C84E0B12EA81631F0F601EE0DFF1DE6
:101DB000E858FE4FB080CE010E94AB0E60EC6B0D78
:101DC00040E0CE010E943A0E8D81CE0CDF1C8C15B6
:101DD0001D0414F4082F011B10E0DD24DA94D00E4A
:101DE0000117A1F084E0ED2DE11BA81201C0E12F45
:101DF0008F8198858E0D9F1DE80FF92FF11D41E011
:101E00006081CE010E943A0E1F5FEACFCE01DF91C2
:101E1000CF911F910F91FF90EF90DF90CF90BF90E7
:101E2000AF900C94940EEF92FF920F931F93CF9369
:101E3000DF93FC013481631738F5E22EF42E062F70
:101E4000EC0160E083810E9430031C81112391F03A
:101E50001150011309C06F2DCE010E94120E6E2D7C
:101E6000CE010E94120EF2CF60E0CE010E94120E4F
:101E700060E0F6CF61E08B81DF91CF911F910F91F0
:101E8000FF90EF900C943003DF91CF911F910F9151
:101E9000FF90EF9008951F93CF93DF93DC0114968A
:101EA0002C911497621718F52C91211108C021E08C
:101EB00024274CE0DF91CF911F910C94130F1696BD
:101EC000EC91F0E0F595E7951E2F411101C01860E7
:101ED000EC010E94AB0E60E8610F40E0CE010E9471
:101EE0003A0ECE01DF91CF911F910C94940EDF91A9
:101EF000CF911F9108950F931F93CF93DF93FC0110
:101F000021852223C9F16217B8F5442399F1D62F10
:101F10008C018481681778F42FEF240F203108F0AA
:101F20002FE0F8012683808181110EC04AE06D2FD9
:101F3000C8010E94130F40E06D2FC801DF91CF91BF
:101F40001F910F910C944B0FC0E0413031F026955A
:101F5000423009F421E0C22FC860C8010E94AB0ED4
:101F600060E86C0F40E0C8010E943A0EC8010E9470
:101F7000940EE1CF41E0E2CFDF91CF911F910F911D
:101F80000895CF93DF93FC016183D0816F3F11F4FB
:101F900061E002C0611105C08D2FDF91CF910C94DB
:101FA0003003C62F61E08D2F0E945E03ED2FF0E01D
:101FB000ED5BFC4FE491E150EF3008F084C0F0E0BD
:101FC000EC51F04F0C94EA34F30FFA0FFF0F0A10A4
:101FD000151063106310631020102B103610411081
:101FE0004E106310561084B5806884BDC7BDDF9164
:101FF000CF91089584B5806284BDC8BDF8CF80912B
:102000008000806880938000D0E0D0938900C093E6
:102010008800EDCF80918000806280938000D0E0C6
:10202000D0938B00C0938A00E2CF809180008860BB
:1020300080938000D0E0D0938D00C0938C00D7CFE8
:1020400080919000806880939000D0E0D0939900B8
:10205000C0939800CCCF80919000806280939000D4
:10206000D0E0D0939B00C0939A00C1CF80919000A4
:10207000886080939000D0E0D0939D00C0939C0036
:10208000B6CF8091C00080688093C0008091C0006E
:102090008F7B8093C000C093CF00A9CF8091C000F8
:1020A00080628093C000C093D000A1CF8091C20015
:1020B00088608093C2008091C2008B7F8093C200B1
:1020C000C093D20094CF60E0C7FF66CF61CFEF929C
:1020D000FF921F93CF93DF93EC01162F8C8180FF2B
:1020E00010C0603170F46D837E0184E0E80EF11C55
:1020F000612F617089910E9430031695EC16FD06E0
:10210000B9F7DF91CF911F91FF90EF900895FC01F7
:10211000842F40815181E0917C02F0917D020994ED
:102120004F925F926F927F928F929F92AF92BF92E7
:10213000CF92DF92EF92FF920F931F93CF93DF9393
:10214000F12C6FE1E62E80917702F81608F0EAC0D4
:10215000C0917502D0917602FE9CC00DD11D112454
:102160008A81882309F4B2C088810E9407038C0108
:1021700089810E9407036C010E94F1034B015C01FD
:1021800081E090E0CD2811F090E080E0880F991F69
:1021900021E0012B09F020E0922F982B4B8D5C8DD4
:1021A0006D8D7E8D95018401041B150B260B370B5D
:1021B000B901A801453651056105710508F488C0CB
:1021C0008885823008F484C08B8E9C8EAD8EBE8E46
:1021D00081508887EE859E1709F445C0888503E302
:1021E00010E0873010F401E010E06D8524E0E20299
:1021F000F0011124492F092E000C550BE42BF52B6F
:10220000E759FE4F708170039001719F300D1124CA
:10221000062E02C0220F331F0A94E2F7EF85F889D9
:102220002E0F3F1F388B2F874C0F5D1FFA01418502
:102230004423C1F04B885C886D887E884F8A588E15
:10224000698E7A8E8B8A9C8AAD8ABE8A02C0359549
:1022500027956A95E2F73A8B298B8C3008F08BE052
:102260008F5F88879E8709891A898D819E810817CB
:10227000190761F19801281B390BC901E09173021C
:10228000F09174026901CC0CDD1C309709F447C051
:102290006B817C812F5C3F4F23363105D0F597FD54
:1022A0002FC080E00995C00ED11E31E4C3163FE176
:1022B000D30654F08F85988983709927988B8F87E0
:1022C0001A8A198A10E000E01E830D83F3943BCF35
:1022D0004F89588D698D7A8D95018401041B150BEA
:1022E000260B370BB901A801453F51406105710527
:1022F00008F470CF8B8E9C8EAD8EBE8E18866ACF02
:1023000082E00995C8018C199D09803C904E94F299
:10231000DBCF97FD02C081E0C5CF83E0F2CF37FD70
:10232000F1CFC1CFDF91CF911F910F91FF90EF902F
:10233000DF90CF90BF90AF909F908F907F906F90E5
:102340005F904F900895CF92DF92EF92FF920F939C
:102350001F93CF93DF936C017A018091710290916A
:102360007202892B31F1D60113968C9100E181FD27
:1023700008E0EB01CE25DF2510E0C0FF13C08091FF
:10238000710290917202892B69F0E0916F02F091D5
:102390007002309739F0D6014D915C91612F8E2DEE
:1023A00081700995D695C795F694E7941F5F011340
:1023B000E4CFDF91CF911F910F91FF90EF90DF90CD
:1023C000CF900895AF92BF92CF92DF92EF92FF929B
:1023D0000F931F93CF93DF931F92CDB7DEB7C090BB
:1023E0007102D0907202C114D10409F43FC0FC0103
:1023F000238130E1B32E21FF02C028E0B22EA62EA9
:102400008C01F60185818683F12CE12CBA946B2D29
:10241000C6010E946710F80182810E940703898328
:10242000F80182810E9407038983EE0CFF1C298139
:1024300081E090E0211102C090E080E0E82AF92AD2
:10244000B110E4CFF6016681C6010E946710F80161
:10245000648175816E157F0549F0AA2021F0A701DE
:10246000C8010E94A311F801F582E4820F90DF9168
:10247000CF911F910F91FF90EF90DF90CF90BF9081
:10248000AF900895CF93DF93C0E0D6E080916E02C5
:10249000C81768F480916C0290916D0261E0CD9F45
:1024A000800D911D11240E94E211CF5FEFCFDF91CB
:1024B000CF910895E0916A02F0916B02309751F04C
:1024C000DC0114962C911497222321F06D917C91BC
:1024D00081E009940895E0916A02F0916B023097CF
:1024E00051F0DC0114962C911497211104C06D91C8
:1024F0007C9180E0099408950F931F93CF93DF930D
:1025000010E005E080916902181730F5C09167026C
:10251000D0916802109FC00DD11D11248B8188239A
:1025200099F08A810E9407039C81891769F091E0E4
:10253000811101C090E09C839B81811107C0992388
:1025400019F0CE010E946B121F5FDCCF9923E1F3DB
:10255000CE010E945A12F8CFDF91CF911F910F91B7
:102560000895DC015896EC915897F0E03396EE0F01
:10257000FF1FE80FF91F56968D919C915797208168
:102580003181821B930B57969C938E93569712968C
:10259000EC911297E23108F0E251F0E0EB53FE4F7C
:1025A000E49190917B008E2F880F880F80729F7D21
:1025B000892B80937B00E770E064E0937C0080913E
:1025C0007A00806480937A0080917A0086FDFCCF47
:1025D00080917800909179005896EC915897F0E0AE
:1025E0003396EE0FFF1FEA0FFB1F918380835896EF
:1025F000EC915897F0E03396EE0FFF1FEA0FFB1FA8
:1026000056968D919C91579720813181820F931F0F
:1026100057969C938E93569758968C9158978F5FA8
:1026200058968C93589758968C91589787705896CF
:102630008C930895CF93DF93C0E0DEE18091660232
:10264000C81778F48091640290916502CD9F800D47
:10265000911D1124FC01258D21110E94B112CF5F23
:10266000EDCFDF91CF910895CF93DF93C0E0DEE10E
:1026700080916602C817C8F5A0916402B091650206
:10268000CD9FA00DB11D11245D968C915D9788237F
:1026900051F156968D919C91579723E09695879589
:1026A0002A95E1F713962D913C911497AC01421BAA
:1026B000530B9A0157FF03C03195219531091596A7
:1026C0004C9115974217130609F06CF414969C93DD
:1026D0008E931397E0916202F0916302309719F0A4
:1026E0006D917C910995CF5FC3CFDF91CF91089514
:1026F0000F931F93CF93DF93109166029091610225
:10270000191709F441C0C0916402D09165029EE19D
:10271000199FC00DD11D1124209759F090E1FE01A1
:102720003696DF011D929A95E9F71F8A1E8A188E48
:102730001D8E4D838A8379836883843051F588E1C7
:102740008A83222321F062E08A810E945E0308E0EE
:102750008D8D882319F0CE010E94B1120150C1F76E
:102760008E899F8923E0969587952A95E1F79C832A
:102770008B8381E08D8F81EE9CE190936302809347
:1027800062021F5F10936602DF91CF911F910F913C
:1027900008958630B1F689E1D3CF0F931F93CF937D
:1027A000DF93082F162FD42FC8E06D2F661F6627E2
:1027B000661F802F0E943003DD0F61E0812F0E9491
:1027C000300360E0812F0E943003C15071F7DF9128
:1027D000CF911F910F9108950F931F93CF93DF9384
:1027E000EC0160E088810E9430030B8110E0015011
:1027F000110950F0EC81FD81E00FF11F40816981EA
:102800008A810E94CD13F3CF61E08881DF91CF915F
:102810001F910F910C943003EF92FF920F931F932F
:10282000CF93DF93182F80932B03C0E08091830216
:10283000C817A0F42C2F30E0220F331F80918102A3
:1028400090918202820F931F60E0111103C0DC019E
:1028500011966C910E94C10FCF5FE8CFC0E00AE0F3
:1028600080918602C817B0F4E0908402F09085024F
:10287000C09FE00CF11C1124D0E0F70181858D1779
:1028800039F0412F6D2FC7010E944B0FDF5FF5CF4D
:10289000CF5FE6CFC0E0DEE080912F03C817E0F401
:1028A000E0912D03F0912E03CD9FE00DF11D112439
:1028B0008081882359F082819381DC01ED91FC9124
:1028C000112331F00190F081E02D0995CF5FE4CF25
:1028D0000280F381E02DF9CF00E097E0E92E8091AE
:1028E0008902081710F5C0918702D09188020E9DC9
:1028F000C00DD11D11241123A1F060E088810E9438
:102900003003FB80FF2039F040E069818A810E941A
:10291000CD13FA94F7CF61E088810E9430030F5FF6
:10292000DECFCE010E94EC13FACF00E082E1F82E58
:10293000EE24E39480918C02081768F5C0918A0216
:10294000D0918B020F9DC00DD11D11241123D1F008
:102950001D868C81E0928F038093B10310929003C7
:102960001092B20390E080E00E9408080E947D0768
:102970006E816B7F6E83686040E0CE010E94190813
:102980000F5FD8CFCE010E94FD086E81862F846034
:102990008E836C60F1CFDF91CF911F910F91FF90EB
:1029A000EF9008959F92AF92BF92CF92DF92EF92F5
:1029B000FF920F931F93CF93DF93EC01C62E61E03C
:1029C0008B810E94300361E08A810E94300310E015
:1029D0008D81181708F044C0DB80BC8087E0E82EAA
:1029E000F12C00E061E08D2D0E9430038B2D0E94C0
:1029F00007030E2C01C0880F0A94EAF7082B60E049
:102A00008D2D0E94300381E0E81AF10858F7A12EBD
:102A1000B12CEF81F885EA0DFB1DD080D016F1F0C6
:102A2000CC20B9F0912E990C990C990CE02EF12C38
:102A30008D2D8E2580FF07C04E2D4170692D6F0DA5
:102A4000CE010E948710D694E694F39488E0F812A1
:102A5000EFCFEF81F885EA0DFB1D00831F5FB8CF34
:102A600060E08A81DF91CF911F910F91FF90EF90ED
:102A7000DF90CF90BF90AF909F900C943003CF9396
:102A8000DF93C0E0D9E080917B02C81768F48091A1
:102A9000790290917A0261E0CD9F800D911D112401
:102AA0000E94D214CF5FEFCFDF91CF9108950E94A3
:102AB0000802882359F081E080931A0880931B084C
:102AC00080911C0890911D080C94A33210921B0851
:102AD00090E080E008950F931F93CF930E945715C5
:102AE0008C010E945715C82F0E9457159AE0909F9D
:102AF0009001919F300D1124E0918402F0918502A4
:102B0000482F6C2FCF01820F931FCF911F910F91F0
:102B10000C947B0F0C946B156F927F928F929F9207
:102B2000AF92BF92CF92DF92EF92FF920F931F93DB
:102B3000CF93DF930E945715EC010E945715682E22
:102B40000E9459024C010E9457155C010E945715C2
:102B50004AE04C9F90014D9F300D1124009184025A
:102B600010918502020F131FF8012185222309F419
:102B700049C0C7E0D0E0712C6C01DD24BB24E62CF9
:102B8000EE0CEE0CEE0CF12C6C2F4C2F4F5FC601AF
:102B90000C2E02C0959587950A94E2F780FF2FC00E
:102BA000F8018481681650F5F401E70DF11D80816C
:102BB00087FD80E295010C2E02C0359527950A9479
:102BC000E2F720FD8068F80195816917B8F4E82FD5
:102BD000EF77F0E0EF52FE4F2491F8013081A781AA
:102BE000B08531111EC087FD2068AC0FBD1FAE0D32
:102BF000BF1D2C93662DC8010E94130F739421975B
:102C000008F0C2CFDF91CF911F910F91FF90EF900D
:102C1000DF90CF90BF90AF909F908F907F906F90FC
:102C20000895220F87FD2160492F4150550BCA019D
:102C30008C1B9D0BA80FB91F2C9341E0C8010E946B
:102C4000B20EDCCFCF93DF930E945715EC010E94A8
:102C50005715CC0FDD1F2091810230918202682F21
:102C6000C9018C0F9D1FDF91CF910C94C10F0E9461
:102C7000571590912F03891768F420912D033091F7
:102C80002E03A9016EE0869F400D511D1124CA013B
:102C90000C941F0D08950F931F930E945715909148
:102CA0002F03891708F04DC0E0912D03F0912E03FA
:102CB0009EE0899FE00DF11D11248081882309F495
:102CC00040C0A281B3811C961D921D921D921C9240
:102CD0001F9750961D921D921D921C925397D49649
:102CE0001D921D921D921C92D79794961D921D9233
:102CF0001D921C92979754961D921D921D921C92A4
:102D0000579784858823E9F082819381428550E03A
:102D1000519541955109052E000C660B770BFC016E
:102D20000089118922893389401751076207730787
:102D300041F0408B518B628B738B1F910F910C94E0
:102D4000260B1F910F9108958F929F92AF92BF9281
:102D5000CF92DF92EF92FF921F93CF93DF930E9467
:102D600057157C010E945715BC01809180028E1579
:102D70001F0409F00CF4A8C027E12E9DC0012F9D6F
:102D8000900D1124C0917E02D0917F02C80FD91FEF
:102D9000CD80DE800D2C000CEE08FF0889809A8023
:102DA000092C000CAA08BB082F813885032E000CC3
:102DB000440B550B2C193D094E095F09072E000CD9
:102DC000880B990B681979098A099B090E94CE34EE
:102DD0002B813C81032E000C440B550B281939091B
:102DE0004A095B090E946B34BA01A9014C0D5D1DB3
:102DF0006E1D7F1D052E000C660B770B8D859E8545
:102E0000AF85B88984179507A607B70709F45CC092
:102E10004D875E876F87788B8985811155C08A853C
:102E20008C3008F04FC0188161E0812F0E945E0352
:102E30008A85282F30E0F901EE0FFF1FE20FF31F04
:102E4000E950FD4F1F739081907C912B90831B86DE
:102E50001C862CE0622F0E94DE34829FB001112478
:102E600030E020E0AB01420F531FFA01EE0FFF1FCD
:102E7000E40FF51FE950FD4F908196FD16C02F5FBE
:102E80003F4F2C30310571F781110FC01092800037
:102E900082E0809381001092850010928400B19AA4
:102EA00080916F00826080936F00EA858E2F90E0A2
:102EB000FC01EE0FFF1FE80FF91FE950FD4F808165
:102EC0008064808381E08987DF91CF911F91FF909B
:102ED000EF90DF90CF90BF90AF909F908F9008952C
:102EE000EF92FF920F931F93CF93DF930E9457159A
:102EF0008C010E9459027C01EC01FC01DE01808101
:102F0000882349F090912508891301C0319680816A
:102F100089933196F3CFAE17BF0710F41D92FBCF04
:102F200022E1209FC001219F900D1124C0918A02AF
:102F3000D0918B02C80FD91F8E858823A1F010E095
:102F40008989811781F0412F60E0CE010E944208FB
:102F50004889B701149F600D711D1124CE010E9494
:102F6000A4081F5FEDCFDF91CF911F910F91FF90CC
:102F7000EF9008950E945715892B49F0109227036E
:102F8000109228031092290310922A0308950E9498
:102F9000F103609327037093280380932903909390
:102FA0002A0308952091FE063091FF0682179307A9
:102FB00010F40C94553480E00895AF92BF92CF92F4
:102FC000DF92EF92FF920F931F93CF93DF9300D086
:102FD00000D0CDB7DEB75C0119821A821B821C8239
:102FE000CE0101967C0110E000E06C01F5018081CA
:102FF00091819C012F5F3F4F318320830E94D21724
:10300000F7018083F8018E3241F00F5F1F4F8FEF81
:10301000E81AF80A0430110549F7EC0DFD1D10827D
:10302000C6010E94A3320F900F900F900F90DF9176
:10303000CF911F910F91FF90EF90DF90CF90BF90B5
:10304000AF900895EF92FF920F931F93CF93DF936A
:10305000EC010091FE061091FF06888199817C01A8
:103060002FEFE21AF20AF982E8820E94D2170E15B7
:103070001F0540F480E0DF91CF911F910F91FF90E9
:10308000EF900895E0918B05F0918C059F012F5FE3
:103090003F4F30938C0520938B05E357FA4F808385
:1030A0002E35314038F78A33C1F6108281E0E3CF04
:1030B000EF92FF920F931F93CF93DF93EC01E09079
:1030C000FE06F090FF06888199818C010F5F1F4FEB
:1030D000198308830E94D217E016F10650F08A3354
:1030E00091F781E0DF91CF911F910F91FF90EF90C9
:1030F000089580E0F7CFCF92DF92EF92FF920F9387
:103100001F93CF93DF930E945715C82F0E94571526
:10311000D82E0E9459028C010E945715C82E64ECCB
:1031200071E0C8010E94E8322AE0C29FE001112448
:103130000D2D000F000F000F10E0EE24E394F12C92
:10314000009709F477C00E94A332A0918402B09145
:103150008502AC0FBD1F19962C911997222309F4F3
:1031600042C014962C911497D216E8F5BC0177272B
:1031700015962C911597E22FF0E0AF0123E0440F54
:10318000551F2A95E1F7641775076CF593E075955F
:1031900067959A95E1F7877017964D915C9118970E
:1031A0009C9191112AC09B01200F311FF70102C091
:1031B000EE0FFF1F8A95E2F7CF01FA01E20FF31F2E
:1031C0004081CC20B9F0842B808317968D919C91FF
:1031D0001897280F391F41E0460FF90120816D2D06
:1031E000CD010E94130F64EC71E090E080E00E943A
:1031F000E832A6CF80958423E7CF8F5F883009F42B
:1032000080E03197E61BF70BE40FF51F2081A70143
:1032100002C0440F551F8A95E2F7CA01CC2039F04D
:10322000822B808341E0CD010E94B20EDCCF8095DD
:103230008223F7CFDF91CF911F910F91FF90EF90F5
:10324000DF90CF900895FB0101900020E9F73197BE
:10325000AF01461B570BDC01ED91FC910280F3811D
:10326000E02D0994809150078823A1F060912308F4
:1032700080912108909122080E94C20480915807F1
:10328000882341F066EC71E080912108909122083A
:103290000E942319109257071092500780E008955A
:1032A0008F929F92AF92BF92EF92FF920F931F93D4
:1032B000CF93DF93CDB7DEB7A1970FB6F894DEBFFB
:1032C0000FBECDBF7C01FA01CB0119A2223008F458
:1032D0002AE08E010F5D1F4F822E912CB12CA12C64
:1032E000BF01A50194010E949D34F901CA016A3011
:1032F0000CF5605DD8016E938D01232B242B252BBB
:1033000079F790E080E0109721F0BD01C7010E949D
:103310002319A1960FB6F894DEBF0FBECDBFDF9183
:10332000CF911F910F91FF90EF90BF90AF909F9022
:103330008F900895695CDECFCF93909150079923C9
:10334000A9F0C82F6091240880912108909122084B
:103350000E94C2044C2F50E070E060E02AE08091AF
:10336000210890912208CF910C945019CF91089583
:1033700090915007911110C091E090935007909355
:103380005707482F50E070E060E02AE08091210864
:10339000909122080C9450190895CF93DF93909147
:1033A000500791110EC0EB010E94B819809150078F
:1033B000882319F0CE010E94C904DF91CF910C94AB
:1033C000321980E0DF91CF9108950097A1F020910C
:1033D000890530918A05273D41E0340738F446EDF0
:1033E00051E0421B530B4817590740F461E673E064
:1033F00085E00E94CD1990E080E00895820F931F30
:1034000090938A0580938905C9018D549C4F089536
:103410000E94F1036093270370932803809329038C
:1034200090932A036CEA70E085E00C94CD190F9319
:103430001F93CF93DF9390916902E0916702F0911F
:10344000680280E0981721F013828F5F3596FACFDB
:103450001092690210927702109283029091860274
:10346000E0918402F091850280E0981721F01186A6
:103470008F5F3A96FACF1092860230918002A09127
:103480007E02B0917F0220E03217D1F019968C9124
:103490001997882391F01A96EC911A978E2F90E045
:1034A000FC01EE0FFF1FE80FF91FE950FD4F80816F
:1034B0008F7B808319961C9219972F5F5796E4CFC4
:1034C0001092800290912F03E0912D03F0912E0332
:1034D00080E0981721F010828F5F3E96FACF10920D
:1034E0002F0390918C02E0918A02F0918B0280E090
:1034F000981731F02685211116868F5F7296F8CFC6
:1035000010928C021092660290918902E0918702DB
:10351000F091880280E0981721F016828F5F37962D
:10352000FACF1092890290917B02E0917902F0919A
:103530007A0280E0981721F016828F5F3996FACFD1
:1035400010927B0210E006E080916E021817A0F442
:10355000C0916C02D0916D02109FC00DD11D11243D
:103560008B8180FF07C062E08A810E945E038B81AD
:103570008E7F8B831F5FE8CF10926E02109226031E
:103580001092250310922C0310928C0510928B053B
:1035900010928A051092890560EB70E085E0DF915A
:1035A000CF911F910F910C94CD1963EB70E08FE0D8
:1035B0000C94CD1981E080932C0366EB70E081E1DF
:1035C0000C94CD19CF93DF938AE00E94B8198091B3
:1035D000250390912603892B91F18BE390E00E94C3
:1035E000D217C82F80915007882379F06091240862
:1035F00080912108909122080E94C2046C2F809132
:103600002108909122080E94C204C1E0D0E080917C
:10361000250390912603C817D90788F4CE01CB96CD
:103620000E94D21790915007992339F0682F80910A
:103630002108909122080E94C2042196E8CF0E949E
:10364000321981E080937802DF91CF910895AF9293
:10365000BF92CF92DF92EF92FF920F931F93CF937F
:10366000DF93C0E0D5E080916902C81778F48091BB
:10367000670290916802CD9F800D911D1124FC017D
:10368000238121110E945A12CF5FEDCFC0E0D5E017
:1036900080916902C81778F480916702909168025E
:1036A000CD9F800D911D1124FC01238121110E94C9
:1036B0006B12CF5FEDCF10E069E0C62E80917B02E8
:1036C0001817D8F5C0917902D0917A021C9DC00DCF
:1036D000D11D11248E81882371F180917C029091FB
:1036E0007D02892B41F160E0CE010E94D214D12CE1
:1036F000F12CE12C8D818E151F04E9F0E4F0EF81AF
:10370000F885EE0DFF1D808100E0A82EB12C80FF12
:1037100006C041E0602F6D0DCE010E948710C501EB
:10372000959587950F5F083081F7FFEFEF1AFF0A35
:1037300088E0D80EDFCF1F5FC1CF10E049E0C42E74
:1037400080917B021817D8F5C0917902D0917A0246
:103750001C9DC00DD11D11248E81882371F1809193
:103760007C0290917D02892B41F160E0CE010E94A4
:10377000D214D12CF12CE12C8D818E151F04E9F08F
:10378000E4F0EF81F885EE0DFF1D808100E0A82EAA
:10379000B12C80FD06C040E0602F6D0DCE010E946F
:1037A0008710C501959587950F5F083081F7EFEF7A
:1037B000EE1AFE0AF8E0DF0EDFCF1F5FC1CF10E088
:1037C00006E080916E021817E0F4C0916C02D0916F
:1037D0006D02109FC00DD11D112460E0CE010E942A
:1037E000E2114C815D8170E060E0CE010E94A31186
:1037F0004C815D816FEF7FEFCE010E94A3111F5FAF
:10380000E0CFC0E0DEE180916602C81728F5A09104
:103810006402B0916502CD9FA00DB11D11245D968B
:103820008C915D978823B1F056968D919C91579716
:1038300023E0969587952A95E1F714969C938E93AD
:103840001397E0916202F0916302309719F06D9145
:103850007C910995CF5FD7CF8091500781110FC020
:1038600082E20E94B819DF91CF911F910F91FF90D2
:10387000EF90DF90CF90BF90AF900C943219DF9112
:10388000CF911F910F91FF90EF90DF90CF90BF905D
:10389000AF900895CF93DF93209150072223A1F09A
:1038A000EC016091240880912108909122080E94E7
:1038B000C204209749F0BE0180912108909122080E
:1038C000DF91CF910C942319DF91CF9108950F933D
:1038D0001F93CF93DF93909178029923A9F08A01E7
:1038E000D62FC82F8DE10E94B819C8010E944A1C2A
:1038F0008D2F0E949C198C2F0E949C19DF91CF91D3
:103900001F910F910C943219DF91CF911F910F915C
:1039100008950F931F93CF9390917802992381F08C
:103920008B01C82F86E00E94B819C8010E944A1C6A
:103930008C2F0E949C19CF911F910F910C943219DA
:10394000CF911F910F9108950F931F93CF93DF9302
:10395000909178029923A9F08A01D62FC82F8EE181
:103960000E94B819C8010E944A1C8D2F0E949C1900
:103970008C2F0E949C19DF91CF911F910F910C9475
:103980003219DF91CF911F910F9108950F931F93DB
:10399000CF9390917802992381F08B01C82F87E013
:1039A0000E94B819C8010E944A1C8C2F0E949C19C1
:1039B000CF911F910F910C943219CF911F910F91BC
:1039C0000895CF92DF92EF92FF92CF93DF936C0135
:1039D000809178028823B9F1EB018CE10E94B8193B
:1039E000CE010E944A1C80915007882321F16091EA
:1039F000240880912108909122080E94C204C0915D
:103A00002108D09122080D2C000CEE08FF082AE0B6
:103A1000B701A601F7FE0CC06DE2CE010E94C20400
:103A200044275527BA014C195D096E097F092AE020
:103A3000CE010E945019DF91CF91FF90EF90DF905F
:103A4000CF900C943219DF91CF91FF90EF90DF90DF
:103A5000CF900895CF93DF93EC0185E00E94B819D1
:103A6000CE010E944A1C80915007882321F089EBE7
:103A700090E00E94C904DF91CF910C9432190F930A
:103A80001F93CF93DF93EC011981112389F025E077
:103A9000129FC00111240E94E5199093680280933F
:103AA0006702892B09F0F5C089EC91E00E942A1D7C
:103AB0001B81812F90E0009779F0880F991F0E9459
:103AC000E5199093820280938102892B09F0E4C06A
:103AD00080ED91E00E942A1D1C810889412F400F32
:103AE0005527551FCA01892B99F02AE0249FC00150
:103AF000259F900D11240E94E519909385028093D3
:103B00008402892B09F0CBC087ED91E00E942A1D29
:103B10000F858D81202F280F3327331F0985020F32
:103B2000132F111D01151105A1F08EE0382F309FC4
:103B3000C001319F900D11240E94E51990932E032E
:103B400080932D03892B09F0AEC080EE91E00E9496
:103B50002A1D1E81112389F047E1149FC001112401
:103B60000E94E51990937F0280937E02892B09F0D1
:103B70009DC088EE91E00E942A1D18850A81212FA0
:103B8000200F3327331FC9010097A1F02FE1AC01AB
:103B9000249FC001259F900D11240E94E519909348
:103BA000760280937502892B09F083C08EEE91E036
:103BB0000E942A1D1F81112389F052E1159FC00127
:103BC00011240E94E51990938B0280938A02892B1D
:103BD00009F073C087EF91E00E942A1D1A890B85B6
:103BE000212F200F3327331FC9010097A1F02EE1A9
:103BF000AC01249FC001259F900D11240E94E5195E
:103C00009093650280936402892B09F059C08BEF71
:103C100091E00E942A1D1A85112389F057E0159F13
:103C2000C00111240E94E5199093880280938702B5
:103C3000892B09F049C084E092E00E942A1D1C856E
:103C4000112381F029E0129FC00111240E94E5197F
:103C500090937A0280937902892BC9F582E192E0F0
:103C60000E942A1DCE85CC23B9F136E0C39FC00146
:103C700011240E94E51990936D0280936C02892BA8
:103C800049F58FE192E0DF91CF911F910F910C9454
:103C90002A1D109355020CCF109354021DCF100F04
:103CA0001093530235CF0093520253CF1093510219
:103CB00064CF100F109350027DCF10934F028ECF20
:103CC000100F10936102A7CF10934E02B8CF10933C
:103CD0004D02C8CFC0934C02DF91CF911F910F913D
:103CE0000895FB0101900020E9F73197AF01461BD1
:103CF000570BDC01ED91FC910284F385E02D0994D2
:103D0000CF92DF92EF92FF920F931F93CF93DF93A7
:103D10008C01EB01FC01D0886D2D70E0FE0101905B
:103D20000020E9F7CF0101978C1B9D0B86179707A1
:103D3000B0F4681B790B76956795D82EC8010E9460
:103D40004208CC2EEC2EFD2E8E2D8C198D1548F4AC
:103D5000F70161917F01C8010E948C08F5CF60E0F6
:103D6000EDCFDF91CF911F910F91FF90EF90DF90FA
:103D7000CF9008959F92AF92BF92CF92DF92EF9231
:103D8000FF920F931F93CF93DF93CDB7DEB7CDB6DE
:103D9000DEB60E9457155C010E9457158C010E94E7
:103DA0005715982E8DB79EB7801B910B0FB6F894C0
:103DB0009EBF0FBE8DBFADB7BEB711967D01EDB7EB
:103DC000FEB711823296C801029797FD03C0119287
:103DD0000197FBCF0E0D1F2D111DE016F10631F0DE
:103DE0000E945715D8018E938D01F7CF27E02A9DA9
:103DF000C0012B9D900D1124E0918702F091880263
:103E0000E80FF91F86818823F1F090E083819817ED
:103E1000B8F4292F30E0A481B581BD01620F731F72
:103E2000DB014C912E0D3F1DD9018C91992029F079
:103E3000842BDB018C939F5FE9CF80958423F9CF9E
:103E4000CF010E94EC130FB6F894DEBE0FBECDBEBC
:103E5000DF91CF911F910F91FF90EF90DF90CF9066
:103E6000BF90AF909F90089585ED8093BC008091A6
:103E70008B0390918C03A0918D03B0918E030796D4
:103E8000A11DB11D23E0B695A795979587952A9515
:103E9000D1F72091BC0024FD03C01092890308953E
:103EA00040918B0350918C0360918D0370918E0330
:103EB000452B462B472B69F30097A105B10541F02F
:103EC0002AE22A95F1F700C00197A109B109E1CFD3
:103ED00080918A030C946C064F925F926F927F924E
:103EE0008F929F92AF92BF92CF92DF92EF92FF920A
:103EF000CF93DF93EC016A017B0120E030E0A90160
:103F0000CB01B6010E94313387FF04C0F7FAF09469
:103F1000F7F8F0948C8C9D8CAE8CBF8CA701960129
:103F2000C501B4010E943133882309F449C06CA94A
:103F30007DA98EA99FA90E9438332B013C01A701BE
:103F40009601C501B4010E945D359B01AC01C3011E
:103F5000B2010E9497330E94CF356CAB7DAB8EAB24
:103F60009FABA701960160E070E080E090E40E94C2
:103F70005D350E94103626E53EE04DE25FE30E948B
:103F8000973320E034E244E759E40E94973368AF66
:103F900079AF8AAF9BAFCC8EDD8EEE8EFF8ECE01D9
:103FA000DF91CF91FF90EF90DF90CF90BF90AF90D7
:103FB0009F908F907F906F905F904F900C94260B06
:103FC000DF91CF91FF90EF90DF90CF90BF90AF90B7
:103FD0009F908F907F906F905F904F900895EF9299
:103FE0000F93CF93DF93EC018AE891E09983888364
:103FF0006B831C861D861E861F86188A198A1A8A5C
:104000001B8A1C8A1D8A1E8A1F8A80E090E0A0E815
:10401000BFE3888F998FAA8FBB8F1C8E1D8E1E8E3B
:104020001F8E88A399A3AAA3BBA31CA21DA21EA294
:104030001FA261E070E07DA76CA73FEF3FA718A625
:1040400019A61AA61BA64C832D830E83EF821EA6EB
:104050001CAA1DAA1EAA1FAA18AE19AE1AAE1BAE24
:104060001CAE1DAE1EAE1FAEFE01E05CFF4F808396
:104070009183A283B3831A82188619861A861B86B7
:10408000CE010E94130940E050E060E87FE3CE01DA
:10409000DF91CF910F91EF900C946C1FCF92DF9234
:1040A000EF92FF920F931F93CF93DF930E945715C8
:1040B000D82F0E9457157C010E9457158C018091C2
:1040C0002F03D817C0F580912D0390912E039C01EA
:1040D0004EE0D49F200D311D1124E90188818823F1
:1040E00059F0B70190E080E00E943633AB01BC018B
:1040F0008A819B810E94780C88818823E1F0B80135
:1041000090E080E00E9436336B017C0120E030E0DB
:10411000A9010E943133882371F0B701A6018A8179
:104120009B81DF91CF911F910F91FF90EF90DF90D6
:10413000CF900C946C1FDF91CF911F910F91FF9046
:10414000EF90DF90CF9008958F929F92AF92BF92A1
:10415000CF92DF92EF92FF92CF93DF930E94571599
:10416000D82FC82F0E940802882309F495C081E047
:1041700080931A0880931B0880911C0890911D0859
:104180000E94C1326B017C0180912F03C81708F097
:1041900078C080912D0390912E039C014EE0D49F16
:1041A000200D311D1124E9018881882309F469C09B
:1041B00019828E819F81A885B985C816D906EA061D
:1041C000FB0609F45EC08A819B81DC011C968D9000
:1041D0009D90AD90BC901F972B85222351F02D858B
:1041E000222339F0ED91FC910280F381E02D0995B5
:1041F0001D868C85882379F0C814D904EA04FB0451
:1042000054F48E819F81A885B985C816D906EA061F
:10421000FB060CF41C868C85811110C08C149D0447
:10422000AE04BF045CF48E819F81A885B9858C158E
:104230009D05AE05BF0514F481E08C878A819B81C2
:104240004A852C85429FA0011124052E000C660B87
:10425000770B4C0D5D1D6E1D7F1DFC0180889188C4
:10426000A288B388481559056A057B0531F0408B53
:10427000518B628B738B0E94260BCE82DF82E88685
:10428000F986DF91CF91FF90EF90DF90CF90BF90B4
:10429000AF909F908F90089510921B08C12CD12C45
:1042A000760172CF0F931F93CF93DF93FC0124818C
:1042B000621770F4062FEC01108111110EC01F5F00
:1042C00020E0412F602FCE010E94130F1830B9F764
:1042D000DF91CF911F910F910895458150E070E0DB
:1042E00060E0878190850E9465364D816FEF640F95
:1042F000CE01DF91CF911F910F910C94B20E2F92AE
:104300003F924F925F926F927F928F929F92AF9265
:10431000BF92CF92DF92EF92FF920F931F93CF93B2
:10432000DF93CDB7DEB765970FB6F894DEBF0FBE4B
:10433000CDBF8E010F5F1F4F83E1D8011D928A957B
:10434000E9F78091250390912603892BE1F4C801B8
:104350000E943F1D65960FB6F894DEBF0FBECDBF1D
:10436000DF91CF911F910F91FF90EF90DF90CF9051
:10437000BF90AF909F908F907F906F905F904F9085
:104380003F902F9008958BE390E09D8B8C8BCE0116
:1043900044960E94DD17F801E80FF11D80818F5FC0
:1043A0008083CE0144960E945818F82ECE01449680
:1043B0000E94DD17882341F0F110EDCF60ED70E031
:1043C00085E00E94CD1902C0FF20C1F3C8010E9400
:1043D0003F1D8BE390E09D8B8C8BCE0144960E9419
:1043E000DD17082FF4EF2F2E33243394412C512C5A
:1043F000EFEFE00FE23108F092C0F0E0EE5FFD4D2C
:104400000C94EA3414228B246A2294227F234324BE
:10441000F0248B247F23FC25E4255B268F22D826DD
:104420007F2394228F22E425CE0144960E94DD173B
:10443000F090690290915502F916A9F120918B052F
:1044400030918C050091670210916802B5E0FB9EE7
:10445000000D111D11240115110511F0F801138231
:10446000D80112968C93129723573A4F2D933C9371
:1044700062E00E945E03F80182810E94070321E04E
:10448000892B09F420E0D80114962C93149781E02D
:1044900013968C9386EC9CE190936B0280936A0256
:1044A000F394F0926902CE0144960E942218182FCC
:1044B000CE0144960E94DD17082F882309F4FBC41F
:1044C000111196CF1092EA066AE971E085E00E9428
:1044D000CD1940CFCE0144960E94DD17F0908302A3
:1044E00090915402F916D9F00F2D10E0000F111F12
:1044F0002091810230918202020F131F01151105D4
:1045000011F0F8011182D8018C9361E00E945E03E2
:1045100060E0C8010E94C10FF394F0928302CE01C3
:1045200044960E945818C3CFF12C003129F4CE01D3
:1045300044960E94DD17F82ECE0144960E94DD17A6
:10454000882ECE0144960E94DD17A82ECE014496F7
:104550000E94DD17982ECE0144960E94DD17B82EDA
:10456000CE0144960E94DD17082F8091860290911B
:1045700053028917A1F2C0908402D0908502BAE05C
:104580008B9FC00CD11C1124C114D10431F0F60151
:10459000148215828FE0868311861F2DD601FC922E
:1045A00011968C92119712969C9212971396AC9238
:1045B000F11053C0F02E093010F078E0F72EB8E07B
:1045C000FB9EC00111240E94E519F60190878783A4
:1045D000892B09F48EC0F48288E0858361E08181B3
:1045E0000E945E0361E0D60112968C910E945E03E8
:1045F00061E0F60183810E945E0361E0D6011396BB
:104600008C910E943003F6018481181708F058C07D
:1046100020E04FE0612FC6010E94130FD6018C915C
:1046200081110AC014968C91181730F427E04BE0E2
:10463000612FC6010E94130F20E049E0612FC601DF
:104640000E94130F612FC6010E94522141E0612F89
:10465000C6010E944B0F1F5FD6CF81E0F601848315
:10466000FDEF84E0FF1286E0D60115968C9390E072
:104670000E94E519F60190878783892BD1F162E0CA
:1046800082810E945E0362E0D60111968C910E94A5
:104690005E0360E0F60182810E94300360E0D60193
:1046A00011968C910E94300360E0C6010E94522155
:1046B0008FE0F601868341E060E0C6010E944B0F67
:1046C000D60119960C9310E0F6018185181708F0B1
:1046D000F5C34B2D612FC6010E947B0F40E0612F77
:1046E000C6010E944B0F612FC6010E9452211F5F1D
:1046F000EBCF6FE671E085E00E94CD1910CFCE01BF
:1047000044960E94DD17F82ECE0144960E94DD17D4
:10471000982ECE0144960E94DD17E82ECE014496D5
:104720000E94DD17682E093021F010E00F3009F0EB
:1047300088C0CE0144960E94DD17182F0F3009F073
:1047400080C0CE0144960E94DD17082FCE0144960A
:104750000E94DD17782ECE0144960E94DD17882E28
:1047600080912F0390915202891709F4D8CEC090FE
:104770002D03D0902E03FEE08F9FC00CD11C11247E
:10478000C114D10411F0D6011C9284E490E00E947F
:10479000E5195C01892B09F473C0013009F462C08A
:1047A000023009F464C0011169C0FE104EC09610B9
:1047B0004CC065E0E62E04E0292D4F2D61E0C501D7
:1047C0000E94EF1FF601B382A28240E050E068EC45
:1047D00073E4C5010E94780C40E050E068E474E4A2
:1047E000D60112968D919C910E946C1FF601148344
:1047F00081E08583112321F062E0812F0E945E0316
:10480000D6011A967C9281E0811001C080E0F60109
:10481000838781E0808311828587848700912F03BD
:10482000112359F080912D0390912E03FEE00F9FEC
:10483000800D911D11240E941F0D0F5F00932F0307
:104840006ECE812C712C00E08BCF0F2D292D462DA3
:1048500064E0C5010E94EF1FD6011396BC92AE9290
:104860001297B3CF0F2D292D462D68E0A8CF55E024
:10487000E52E04E0292D4F2D61E0EBCFF6011082EB
:1048800068E471E038CFCE0144960E94DD17909124
:10489000800220915102921709F441CEE0917E02EC
:1048A000F0917F0227E1929FE00DF11D11243097D6
:1048B000B9F020911B032C3058F531E0320F3093C2
:1048C0001B03228730E0D901AA0FBB1FA20FB31F21
:1048D000A950BD4F28EB3BE012963C932E931197C5
:1048E0001186158616861786108A118A128A138AEF
:1048F000148A1282118244EB50E05483438316825F
:1049000015825087478380839F5F9093800207CEF4
:104910002FEF2287E5CFCE0144960E94DD17D82ED7
:10492000CE0144960E94DD17C82E80E0083021F4A5
:10493000CE0144960E94DD17F090770290915002CC
:10494000F91609F4B0CD20918B0530918C050091BA
:104950007502109176025FE1F59E000D111D112484
:104960000115110519F0D80112961C92F801168252
:10497000158223573A4F34832383D082C18295E036
:10498000989FF0011124E05BFE4FD8011996019029
:104990000D929A95E1F762E08D2D0E945E0362E030
:1049A000D80111968C910E945E03F8011686108A38
:1049B0001786128A118A1086178A108E118E128E0F
:1049C000238A348A458A568A81E0828329E83CE139
:1049D0003093740220937302F394F092770263CDC4
:1049E000CE0144960E94DD17D82ECE0144960E9437
:1049F000DD17F82ECE0144960E94DD1790918C02AF
:104A000020914F02921709F48ACD00918A021091E9
:104A10008B0232E1939F000D111D11240115110528
:104A200061F0D80113961C921E921297E4E4F1E013
:104A30001196FC93EE9319961C92D8011F96DC9266
:104A40001F975096FC92509751968C93519791E0F6
:104A50001E969C931E971496DC9214971A96FC92BD
:104A60001A971B968C931B971C961C921C971D964D
:104A70001C921092AE021092AD021092900310920E
:104A8000B2030E944E06E0E8F7E0F093D102E09313
:104A9000D00221E837E03093D5022093D402D80128
:104AA00015961C9215971B968C911B97823018F0C7
:104AB00098E015969C93F8019485992329F081300C
:104AC00019F485818460858362E370E080E090E082
:104AD0000E94BF03D8011D966C91C8010E949208E4
:104AE00060E3C8010E9492088BE496E40197F1F715
:104AF00060E3C8010E9492088BE496E40197F1F705
:104B000060E3C8010E94920883E592E00197F1F703
:104B100060E2C8010E949208F8016581606240E08D
:104B2000C8010E94190884E0D80116968C9340E0D1
:104B30006CE0C8010E941908C8010E94740882E054
:104B4000F801878340E066E0C8010E94190840E050
:104B500062E0C8010E9419088BE39FE10197F1F719
:104B6000C8010E94FD088CE08093B800D8011E9611
:104B70008C91882319F1C8010E947408F8014189B9
:104B8000F12C433020F04695FF24FA94F40E4F2D7B
:104B900068E272E0C8010E94801ED80151968C9193
:104BA000823038F041E04F0D63E372E0C8010E94AB
:104BB000801E40E060E0C8010E94420880918C02A3
:104BC0008F5F80938C02ABCCCE0144960E94DD17A0
:104BD000182FCE0144960E94DD17482F60918B0557
:104BE00070918C0563577A4F21E00B3009F020E07B
:104BF000812F0E94781357CCCE0144960E94DD1776
:104C0000F82ECE0144960E94DD17C82ECE014496A0
:104C10000E94DD17D82ECE0144960E94DD17909198
:104C2000890220914E02921709F479CC00918702F3
:104C300010918802B7E09B9F000D111D112491E097
:104C4000F8019683F082C182D282838361E08F2D46
:104C50000E945E0361E0D80111968C910E945E0370
:104C600061E0F80182810E945E03D80113968C9165
:104C700090E00E94E519F80195838483892BC1F0A7
:104C800080E0D80113969C911397891740F41496ED
:104C9000ED91FC91E80FF11D10828F5FF2CFC801FA
:104CA0000E94EC13809189028F5F8093890237CC38
:104CB0006BE171E020CDCE0144960E94DD17F82E05
:104CC000CE0144960E94DD17C82ECE0144960E9464
:104CD000DD17D82ECE0144960E94DD1790917B02FD
:104CE00020914D02921709F4DECB20918B05309173
:104CF0008C050091790210917A02B9E09B9F000D1A
:104D0000111D11240115110511F0F8011682D801A9
:104D10001296FC9212971396CC9213971496DC92EB
:104D2000149723573A4F11963C932E9315968C93D4
:104D300061E08F2D0E945E0361E0F80183810E9493
:104D40005E0362E0D80114968C910E945E03F80124
:104D5000858190E00E94E519D80118969C938E9366
:104D60001797892BF9F080E0F8019581891740F4B5
:104D70000780F085E02DE80FF11D10828F5FF4CFE2
:104D800081E0868360E0C8010E94D214E7E6FCE17E
:104D9000F0937D02E0937C0280917B028F5F809391
:104DA0007B0281CB6FEE70E085E00E94CD197BCB5A
:104DB000CE0144960E94DD17F82ECE0144960E9443
:104DC000DD17D82ECE0144960E94DD17082FCE01A4
:104DD00044960E94DD17182FCE0144960E94DD17DD
:104DE000D092F7060093F8061093F9068093FA061E
:104DF0001092FB0607EF16E061E0D8018D918D015E
:104E00000E945E03EBEFF6E0E017F107A9F780914F
:104E1000FB0681608093FB0660E087EF96E00E94CE
:104E20006710CE0144960E94DD1790916E0220918A
:104E30004C02921709F437CB20918B0530918C05E9
:104E400000916C0210916D02F6E09F9F000D111D04
:104E500011240115110559F047EF56E050937202E5
:104E600040937102D80115961C921E921497F80176
:104E7000F28223573A4F318320838130C9F0138265
:104E800062E08F2D0E945E03F8018381816083833D
:104E900060E0C8010E94E21124EA3CE13093700214
:104EA00020936F0280916E028F5F80936E02FBCA27
:104EB00082E08383E5CF11114DCA04CB8091860235
:104EC0008F5F809386022BCB0E947F210C94DA1A8D
:104ED000FF920F931F93CF93DF938C01EB01F88028
:104EE0000E945534F81621F06F2DC8010E945D34E0
:104EF000CE01DF91CF911F910F91FF900895AF9256
:104F0000BF92CF92DF92EF92FF920F931F93CF93B6
:104F1000DF930E9459026C01EC0109900020E9F72F
:104F20002197C81BD90BDD27E0902503F0902603BD
:104F3000C70101968C0F9D1F883B914008F053C01C
:104F40005E018FEFA81AB80A2BE3E20EF11C95015F
:104F50002E0D3F1D8091FE069091FF06821793074C
:104F600078F010E000E0B601600F711FC701800FFC
:104F7000911F0E9468270F5F1F4F0A151B0598F3AA
:104F80004091250350912603C40FD51FD0932603CB
:104F9000C093250380915007811147C085E00E948E
:104FA000B81980915007882391F06091240880916E
:104FB0002108909122080E94C204AE0170E060E0D6
:104FC0002AE080912108909122080E945019DF91D7
:104FD000CF911F910F91FF90EF90DF90CF90BF90F6
:104FE000AF900C9432198091500781111EC085E05A
:104FF0000E94B81980915007882349F360912408D2
:1050000080912108909122080E94C204C091210839
:10501000D09122086DE2CE010E94C2042AE041E054
:1050200050E060E070E0CE01D0CFDF91CF911F91D2
:105030000F91FF90EF90DF90CF90BF90AF900895C9
:10504000CF93DF930E945902FC0190E3ACE0B1E002
:1050500001900D929A95E1F78091FE069091FF06DE
:10506000892B29F063E290E080E00E945D3480911A
:10507000FE069091FF06C09760F0D0E0C0E0BE0150
:10508000645F7E4F2196CE010E946827CF32D10502
:10509000B1F78091500781110BC085E00E94B819CB
:1050A0008CE091E00E944A1CDF91CF910C94321960
:1050B000DF91CF910895CF93DF930E94F1036115A3
:1050C00071058105910511F00E949A326AE372E040
:1050D00086E592E00E946C360E944B322FEF3FE053
:1050E00040E050E00E946B34E6E5F2E093E0862F6A
:1050F0008F7020E3280F2A33D0F5238324E07695A0
:1051000067952A95E1F7915031969111F0CF0E9461
:105110004B322FEF3FE040E050E00E946B34E6E579
:10512000F2E093E0862F8F7020E3280F2A3310F5EA
:10513000278384E0769567958A95E1F791503196BB
:105140009111F0CF8091FE069091FF06CB9760F011
:10515000C0E3D0E0BE016A5D7D4FCE010E946827AA
:105160002196CB33D105B1F7DF91CF910895885CBB
:105170008383C4CF895C8783DCCF0E945B288091C6
:105180005007811109C08AE00E94B81986E592E0B3
:105190000E944A1C0C94321908950F931F93CF93C9
:1051A000DF9380E390E00E94D2178335D9F581E345
:1051B00090E00E94D2178E34A9F58091FE0690915E
:1051C000FF06CB9770F006E512E0C0E3D0E0CE0119
:1051D0000E945534F80181938F012196CB33D1057C
:1051E000B1F78AE00E94B81980915007882321F016
:1051F00084EB91E00E94C9048CE091E00E944A1C7B
:1052000086E592E00E944A1C85E492E00E944A1CD6
:1052100085E492E00E944A1CDF91CF911F910F918B
:105220000C9432190E945B28DCCF1F920F920FB6AC
:105230000F9211242F933F938F939F93AF93BF931C
:1052400080914D0390914E03A0914F03B091500374
:1052500030914C0323E0230F2D3758F50196A11D03
:10526000B11D20934C0380934D0390934E03A09364
:105270004F03B09350038091510390915203A0913A
:105280005303B09154030196A11DB11D80935103A6
:1052900090935203A0935303B0935403BF91AF91E3
:1052A0009F918F913F912F910F900FBE0F901F9064
:1052B000189526E8230F0296A11DB11DD2CF1F928B
:1052C0000F920FB60F9211248F939F938091E1005C
:1052D0009091E100937F9093E10083FF0FC01092C3
:1052E000E90091E09093EB001092EC0092E3909330
:1052F000ED001092620398E09093F00082FF22C0CC
:1053000093E09093E9009091F200992319F09AE3C9
:105310009093E80090912203992341F09091220309
:10532000915090932203911101C05D9A9091610375
:10533000992341F0909161039150909361039111F1
:1053400001C0289A84FF18C08091E2008E7E81609F
:105350008093E2008091E1008F7E8093E100809154
:1053600023038E7E8061809323039F918F910F9002
:105370000FBE0F901F90189580FFF7CF8091E2002D
:105380008E7E80618093E2008091E1008E7E80932A
:10539000E100809123038E7E8160E5CF1F920F9202
:1053A0000FB60F921124CF92DF92EF92FF920F93DC
:1053B0001F932F933F934F935F936F937F938F939D
:1053C0009F93AF93BF93EF93FF93CF93DF93CDB7AB
:1053D000DEB76C97DEBFCDBF1092E9008091E80088
:1053E00083FF25C068E0CE0145960E94B50482EF98
:1053F0008093E8008D8987FF39C09091E80090FF85
:10540000FCCF982F907609F034C19E894F89588D32
:105410002F89F88C911131C0803861F58091240377
:105420008093F1001092F1008EEF8093E8006C966B
:105430000FB6F894DEBF0FBECDBFDF91CF91FF91C5
:10544000EF91BF91AF919F918F917F916F915F91FC
:105450004F913F912F911F910F91FF90EF90DF900F
:10546000CF900F900FBE0F901F9018959EEF9093C6
:10547000E800C7CF1092F100D5CF913059F48111D7
:10548000D3CF4130510581F6809124038D7F8093E5
:105490002403CACF933049F48111C6CF413051055E
:1054A00019F6809124038260F2CF953041F4809107
:1054B000E80080FFFCCF20682093E300B5CF963052
:1054C00009F0A9C00B8D1C8D22E01092E90010920A
:1054D000200310921F03F2122EC010921E0310928E
:1054E0001D030E9484041F8299E09983FA8291E04F
:1054F0009E8390EA98879AEF998720911F033091B5
:105500002003275F3F4F3C832B838D831092E9005C
:105510001092200310921F0310931E0300931D038B
:1055200049E050E0BE016F5F7F4F80E00E945E0463
:105530000E94840479CF10931E0300931D030E94E0
:10554000A702DC0112960D911C910115110509F4B9
:1055500051C1D801ED91FC910480F581E02DBE018F
:105560006B5E7F4FC8010995009709F03EC1F801B5
:1055700000851185EACFF3E0FF120EC08F898823E2
:1055800009F440C0823061F440E862E182EB92E0CD
:105590000E942B04811148CF81E28093EB0047CF1A
:1055A000813029F440E868E089EA92E0F1CF833065
:1055B00099F70E94A702DC011296ED90FC908E01F3
:1055C0000F5F1F4F6801E114F10479F0D701ED91ED
:1055D000FC910680F781E02DB801C7010995080FFD
:1055E000111DF701E084F184EECFD8011C92F60181
:1055F00001900020E9F73197BF016C197D0940E067
:10560000C601C6CF63E972E0FB01449150E080E837
:105610000E945E0409CF973009F4BECF983021F480
:1056200081E08093F10000CF993009F0FDCE8370C6
:1056300009F0B2CFE0E8F1E081E031E096E32191BA
:10564000222371F08093E9003093EB00DF01119782
:105650002C912093EC009093ED008F5F873079F7C9
:105660008EE78093EA001092EA008F8980936203AC
:10567000DBCE8B8D9C8D1092E9001092200310924E
:105680001F0390931E0380931D03898D811192C087
:105690008E899D89913A49F4813209F07DCF47E0A6
:1056A00050E064E071E080E0B3CF913209F074CF54
:1056B000833269F48F89988DB0E0A0E08093000177
:1056C00090930101A0930201B0930301ADCE80320B
:1056D00069F48091E80082FFFCCF67E084E091E00C
:1056E0000E94B5048BEF8093E8009ECE823209F0D1
:1056F0009BCE8F8980930B01EEEFFFE7859194910C
:105700008B3F9C4D51F1E0E0F8E0809104019091D5
:105710000501A0910601B0910701803B9440A105CD
:10572000B105F1F480910B0180FD1AC0EE3F8AE0D3
:10573000F80789F587E797E7918380838091600078
:105740008093210388E19BE00FB6F894A89580939D
:1057500060000FBE9093600067CEEEEFFAE0D5CF09
:10576000808191818737974709F05ECEA895809117
:1057700060008861809360008091210380936000C5
:10578000EE3F2AE0F20789F08091FE0A9091FF0A2D
:105790009183808349CE808191818737980751F228
:1057A0009093FF0A8093FE0AC5CF1092FF0A1092D1
:1057B000FE0A3ACE0E94A702DC0112960D911C91BE
:1057C0000115110509F4E8CED801ED91FC91019085
:1057D000F081E02DBE016B5E7F4FC80109958111FC
:1057E00023CEF80100851185EBCF181619060CF4AD
:1057F0001BCED2CEF1E0FF12BECE67E972E004CF3D
:105800001F920F920FB60F9211242F933F934F9335
:105810005F936F937F938F939F93AF93BF93CF9338
:10582000DF93EF93FF9380911C03C0911B03D0E0A3
:1058300087FF24C0109285001092840080911C0381
:105840008F5F80931C0380911C03082E000C990B22
:105850008C179D0724F480911C038C30C4F1809137
:10586000840090918500049680349C4908F47AC0A5
:105870008091840090918500049676C080911C03ED
:10588000082E000C990B8C179D07C4F6E0911C03A1
:105890008E2FEE0F990BFC01EE0FFF1FE80FF91F83
:1058A000E950FD4F808186FFC9CFE0911C038E2F08
:1058B000EE0F990BFC01EE0FFF1FE80FF91FE950E7
:1058C000FD4F808160E08F730E943003B7CF20913D
:1058D000840030918500E0911C038E2FEE0F990B10
:1058E000FC01EE0FFF1FE80FF91FE950FD4F81810A
:1058F0009281820F931F9093890080938800E0919A
:105900001C038E2FEE0F990BFC01EE0FFF1FE80F0B
:10591000F91FE950FD4F808186FF11C0E0911C0303
:105920008E2FEE0F990BFC01EE0FFF1FE80FF91FF2
:10593000E950FD4F808161E08F730E943003FF9139
:10594000EF91DF91CF91BF91AF919F918F917F9117
:105950006F915F914F913F912F910F900FBE0F90DC
:105960001F90189580E49CE99093890080938800AB
:105970008FEF80931C03E3CF1F920F920FB60F920D
:1059800011242F933F934F935F936F937F938F9344
:105990009F93AF93BF93EF93FF938091B900887F5C
:1059A000803609F44AC0F0F5883209F4A7C018F52A
:1059B000803109F49BC0B8F4882309F4F9C0883019
:1059C00009F494C0FF91EF91BF91AF919F918F9196
:1059D0007F916F915F914F913F912F910F900FBEEB
:1059E0000F901F901895883109F488C0803251F7C4
:1059F0008093870314C0803409F49DC040F4803341
:105A0000B9F38833F9F68093870385ECB0C080350D
:105A100009F485C0883509F496C0883499F60E9447
:105A2000341FD0CF883909F48CC038F5883729F075
:105A300050F4883611F0803729F683E0809389038B
:105A40001092F60257C0883809F47BC0803919F0EB
:105A5000803809F0B7CF8091F602803208F071C02B
:105A6000E091F60281E08E0F8093F6028091BB00F8
:105A7000F0E0EA52FD4F80833DC0803B39F0E0F416
:105A8000803A09F479C0883A09F09CCF84E0809389
:105A900089031092D3021092D202E091D002F091C9
:105AA000D10209958091D20281110FC081E08093CB
:105AB000D2021092B00209C0803C09F4A6CF883C03
:105AC00009F4A3CF883B09F07DCFE091D30281E0B8
:105AD0008E0F8093D302F0E0E055FD4F80818093DC
