:100000000C94DB020C940C030C940C030C940C0366
:100010000C940C030C940C030C940C030C940C0324
:100020000C940C030C940C030C940C030C940C0314
:100030000C940C030C940C030C940C030C940C0304
:100040000C940C030C94D9300C940C030C940C03FA
:100050000C940C030C940C030C940C030C94972F2D
:100060000C940C030C940B300C94E12F0C940C03A7
:100070000C940C030C940C030C940C030C940C03C4
:100080000C94AB300C940C030C940C030C940C03E8
:100090000C940C030C940C030C940C030C9407317B
:1000A0000C940C030C940C030C947D300C940C03F6
:1000B0000C940C030C940C030C940C030C944F3014
:1000C0000C940C030C940C030C940C030C940C0374
:1000D0000C940C030C940C030C940C030C940C0364
:1000E0000C940C030C940D060C9459090C943306D3
:1000F0000C94F4030C940B040C9452090C94A50B6F
:100100000C942F250C940A050C9406040C94442B93
:100110000C9465050C94CB030C94FA0B0C94840B93
:100120000C94DD030C9486090C94A90A0C944106E6
:100130000C94FE030C94B40C0C94350A0C94611FBF
:100140000C940F200C94F8030C94BB0C0C945B05DE
:100150000C94141D0C942E050C94E1280C941F1B78
:100160000C942E0B0C942D090C94240B0C94C90C9C
:100170000C94FB0A0C94A81A0C948E240C945E1B0D
:100180000C9410040C94932F0C94D02A0C94E60336
:100190000C94DB280C94691E0C94801F0C94B112F3
:1001A0000C94B22C0C9451050C94142D0C94020454
:1001B0000C94DF040C9435130C94D9030C94DD0AD1
:1001C0000C944B1B0C94200B0C946F050C94240581
:1001D0000C94260B0C94970C0C94F30E0C94C20CFC
:1001E0000C94EA030C94772D0C94B6280C94E32518
:1001F0000C94CE150C944D170C94A9190C948C2AC0
:100200000C94061B0C94F6040C94B6150C94120571
:100210000C942F090C942C0C0C9494320C942E09F1
:100220000C9447050C9445180C94D90B0C94F003CE
:100230000C94C8060C94321B0C94A60C0C94A629A2
:100240000C942C0B0C94F92D0C94E0030C941A05CF
:100250000C94280B0C94D1030C9477120C944D0A37
:100260000C94E0160C9472280C94C5100C946A1D22
:100270000C94E7040C943F090C94592C0C94D5165B
:100280000C949F0C0C9479050C940C040C94821A19
:100290000C9438050C94800C0C94B11B0C94EC0459
:1002A0000C9430090C9400050C949A190C94D50305
:1002B0000C94E0050C947B060C94D3070C94220B51
:1002C0000C94420C0C94A60A0C94D3250C94222472
:1002D0000C944F130C947B180C94F4160C942A0B6A
:1002E0000C941C060C94AD0C6E2F61004F4B004F0C
:1002F0004B004F4B00646F6573206E6F742066690E
:100300007420696E204D656D6F7279004661696C6D
:100310007572652C20454550524F4D2073697A65A2
:1003200020657863656564656420004D4653746597
:100330007070657220646F6573206E6F74206669DB
:100340007420696E204D656D6F727900437573740A
:100350006F6D20446576696365206973206E6F74E4
:1003600020737570706F7274656420627920746890
:100370006973206669726D77617265207665727344
:10038000696F6E0045464953204C434420646F65B5
:1003900073206E6F742066697420696E204D656DE0
:1003A0006F727900464355204C434420646F657357
:1003B000206E6F742066697420696E204D656D6FC4
:1003C0007279004661696C757265206F6E20726586
:1003D0006164696E6720636F6E666967004B617662
:1003E000204D656761007E306D79335B5F707F7B88
:1003F000771F0D3D4F470000000000000000000087
:1004000000000000000000000000000000000000EC
:100410000000800180257E306D79335B5F707F7BCB
:1004200000000009000000777F4E7E4F475F3730A5
:100430007C000E00767E677E775B463E00000033D0
:100440006D4E13780008007D1F0D3D4F477B373000
:1004500038000600151D6773055B0F1C00000027A0
:100460006D4E007800004465766963654275666686
:100470006572204F766572666C6F7721004C6F61F4
:1004800064696E6720636F6E666967206661696C78
:1004900065640000002100240027002A002D0030A0
:1004A00000330001010000040107010A01000022DD
:1004B00000250028002B002E00310034000201002E
:1004C00000050108010B010000200023002600297F
:1004D000002C002F0032000001000003010601097A
:1004E0000105050505070508080808020202020AB9
:1004F0000A080804040404010101010101010103C7
:1005000003030303030303040707070C0C0C0C0C81
:100510000C0C0C0202020206060606060606060B74
:100520000B0B0B0B0B0B0B010210202008081020EB
:10053000401020408002010201080402010102046F
:10054000081020408080402010080402018004022E
:100550000180402010080402010804020101020485
:100560000810204080010204081020408000000A8A
:100570000B02090C0D0E0807030401000000000027
:10058000000000000000000000000000000000006B
:100590000000000000000000001211100000000028
:1005A000000000000000000000000000000000004B
:1005B00000000000943211241FBECFEFD1E2DEBF55
:1005C000CDBF00E00CBF13E0A0E0B2E0E0EFF7E742
:1005D00000E00BBF02C007900D92A238B107D9F717
:1005E00021E1A2E8B3E001C01D92AA35B207E1F70C
:1005F00012E0CBEDD2E000E006C021970109802F88
:10060000FE010E94693ACA3DD10780E00807A9F7B8
:100610000E942B330C94F63B0C940000AC0110921A
:100620003F1090910F1180910E11FA01BF01641BD0
:10063000750B20913F10308130933F10931304C00D
:10064000921302C010923F103081311104C09217F2
:1006500021F0CB0108953817D1F33196E7CF0F93EE
:100660001F93CF93DF9380910311882309F446C031
:10067000D0E0C0E0813029F482E080930311C3E42C
:10068000D0E180910411882341F1209721F4C09199
:100690000811D09109118E01CE010E940E03892B01
:1006A00029F42196F80180818111F5CFF80180812C
:1006B000882309F1C8010E940E03F801E80FF91F11
:1006C0008081882311F010823196F0930911E09314
:1006D0000811109307110093061180910611909153
:1006E0000711892B59F081E080930411DF91CF919C
:1006F0001F910F91089510E000E0EBCF80E0F6CF5E
:100700000E942F03882351F081E08093041180938D
:10071000051180910611909107110895109205110D
:1007200090E080E00895CF93DF93DC01FD01EC01C0
:100730002881222351F030910F11231301C001961B
:10074000FC0120812D930196F1CFE817F90710F4F1
:100750001192FBCFDF91CF9108958150823108F043
:100760005AC0E82FF0E08827E754FC4F8F4F0C94D5
:10077000693AD903DD03CB03D103D5030B04E003AE
:10078000E603EA03F003F403F803FE0302040B0498
:1007900006040C041004809180008F778093800001
:1007A0000895809180008F7DF9CF80918000877FB0
:1007B000F5CF84B58F7784BD089584B58F7DFBCF49
:1007C0008091B0008F778093B00008958091B00041
:1007D0008F7DF9CF809190008F778093900008955E
:1007E000809190008F7DF9CF80919000877FF5CF29
:1007F0008091A0008F778093A00008958091A00041
:100800008F7DF9CF8091A000877FF5CF8091200167
:100810008F77809320010895809120018F7DF9CFFB
:1008200080912001877FF5CFCF93DF93282F30E091
:10083000F901E359FA4F8491F901E95DFA4FD49136
:10084000F901EF51FB4FC491CC23A1F081110E941B
:10085000AD03EC2FF0E0EE0FFF1FE953FB4FA59126
:10086000B491EC91ED2381E090E009F480E0DF9118
:10087000CF91089580E090E0FACF1F93CF93DF935C
:10088000282F30E0F901E359FA4F8491F901E95D2D
:10089000FA4FD491F901EF51FB4FC491CC23A9F049
:1008A000162F81110E94AD03EC2FF0E0EE0FFF1F19
:1008B000E355FB4FA591B4918FB7F894EC911111CA
:1008C00008C0D095DE23DC938FBFDF91CF911F91BD
:1008D0000895DE2BF8CFCF93DF9390E0FC01E95D24
:1008E000FA4F24918F519B4FFC0184918823C9F0CA
:1008F00090E0880F991FFC01ED56FB4FA591B49134
:10090000FC01E355FB4FC591D49161110DC09FB718
:10091000F8948C91209582238C93888128232883B6
:100920009FBFDF91CF910895623051F49FB7F89443
:100930003C91822F809583238C93E8812E2BEFCFDF
:100940008FB7F894EC912E2B2C938FBFEACF1F9387
:10095000CF93DF93182FEB0161E00E946B04209787
:1009600039F460E0812FDF91CF911F910C943D0409
:10097000CF3FD10511F461E0F5CFE12FF0E0E3596D
:10098000FA4FE491E150E23108F0B3C0F0E088277B
:10099000E353FB4F8F4F0C94693ADF04E704EC04F8
:1009A000F604000579050A0512051A0524052E0529
:1009B00038054705510579055B0565056F0584B563
:1009C000806884BDC7BDDF91CF911F91089584B524
:1009D000806284BDC8BDF7CF80918000806880931D
:1009E0008000D0938900C0938800EDCF8091800073
:1009F000806280938000D0938B00C0938A00E3CF05
:100A000080918000886080938000D0938D00C09397
:100A10008C00D9CF8091B00080688093B000C093E3
:100A2000B300D1CF8091B00080628093B000C093BA
:100A3000B400C9CF80919000806880939000D093DB
:100A40009900C0939800BFCF8091900080628093FE
:100A50009000D0939B00C0939A00B5CF80919000F6
:100A6000886080939000D0939D00C0939C00ABCF92
:100A70008091A00080688093A0008091A0008F7B6F
:100A80008093A000D093A900C093A8009CCF809130
:100A9000A00080628093A000D093AB00C093AA0016
:100AA00092CF8091A00088608093A000D093AD0089
:100AB000C093AC0088CF8091200180688093200192
:100AC000D0932901C09328017ECF809120018062BC
:100AD00080932001D0932B01C0932A0174CF809181
:100AE0002001886080932001D0932D01C0932C01B8
:100AF0006ACFC038D1050CF03ECF33CF3FB7F89462
:100B000080912C0B90912D0BA0912E0BB0912F0B5F
:100B100026B5A89B05C02F3F19F00196A11DB11D58
:100B20003FBFBA2FA92F982F8827BC01CD01620F94
:100B3000711D811D911D42E0660F771F881F991F4F
:100B40004A95D1F708952FB7F8946091280B7091CA
:100B5000290B80912A0B90912B0B2FBF0895DC015C
:100B6000ED91FC910190F081E02D1994EF92FF92AC
:100B70000F931F93CF93DF937C0160910E118091AF
:100B80000B1190910C110E94AF0500910B11109167
:100B90000C11E701FE016491662359F0D801ED9133
:100BA000FC910190F081E02DC80119952196892BC7
:100BB00089F7DF91CF911F910F91FF90EF900895EA
:100BC000AF92BF92CF92DF92EF92FF920F931F935B
:100BD000CF93DF936C017B018B01040F151FEB0199
:100BE0005E01AE18BF08C017D10759F06991D60150
:100BF000ED91FC910190F081E02DC6011995892BB2
:100C000079F7C501DF91CF911F910F91FF90EF9080
:100C1000DF90CF90BF90AF900895FC01538D448D2D
:100C2000252F30E0842F90E0821B930B541710F097
:100C3000CF96089501970895FC01918D828D9817A4
:100C400079F0A28DAE0FBF2FB11D5D962C91828DD4
:100C50008F5F60E60E94273A928F822F90E008957E
:100C60008FEF9FEF0895FC01918D828D981731F0E1
:100C7000828DE80FF11D858D90E008958FEF9FEF35
:100C80000895FC01918D228D892F90E0805A9F4F0D
:100C9000821B910960E670E00E94413A08958DE759
:100CA0009FE00E94410621E0892B09F420E0822F79
:100CB0000895FC01A48DA80FB92FB11DA358BF4FF3
:100CC0002C91848D90E001968F739927848FA6894B
:100CD000B7892C93A089B1898C91837080648C939F
:100CE000938D848D981306C00288F389E02D80814E
:100CF0008F7D80830895EF92FF920F931F93CF9380
:100D0000DF93EC0181E0888F9B8D8C8D98131AC046
:100D1000E889F989808185FF15C09FB7F894EE892D
:100D2000FF896083E889F98980818370806480838A
:100D30009FBF81E090E0DF91CF911F910F91FF90D5
:100D4000EF900895F62E0B8D10E00F5F1F4F0F737D
:100D50001127E02E8C8D8E110CC00FB607FCFACF38
:100D6000E889F989808185FFF5CFCE010E94590677
:100D7000F1CFEB8DEC0FFD2FF11DE358FF4FF0820B
:100D80009FB7F8940B8FEA89FB8980818062CFCF6F
:100D9000CF93DF93EC01888D8823B9F0AA89BB89B2
:100DA000E889F9898C9185FD03C0808186FD0DC09D
:100DB0000FB607FCF7CF8C9185FFF2CF808185FFBE
:100DC000EDCFCE010E945906E9CFDF91CF91089572
:100DD00080E090E0892B29F00E944F0681110E944B
:100DE000000080E090E0892B49F080E090E0892BC2
:100DF00029F00E94000081110E94000080E090E034
:100E0000892B49F080E090E0892B29F00E940000B6
:100E100081110E94000080E090E0892B49F080E081
:100E200090E0892B29F00E94000081110C940000B1
:100E30000895AF92BF92CF92DF92EF92FF920F93FD
:100E40001F93CF93DF936B017A01EC01CB50D54F09
:100E500028813CE0389F8001399F100D1124A0901B
:100E6000F40AB12C27FF1FC0FB0111821082888178
:100E70008F5F888388819801280F311D87FD3A95FF
:100E8000F6012A153B051CF488818C30C4F1808161
:100E90009181049680349C4908F473C0F6018081E6
:100EA0009181049670C088819801280F311D87FDBB
:100EB0003A952A153B05DCF68881A801480F511D9B
:100EC00087FD5A95FA01EE0FFF1FE40FF51FEC594D
:100ED000F54F808186FFCBCF8881F801E80FF11DA7
:100EE00087FDFA95CF01EE0FFF1FE80FF91FEC59B0
:100EF000F54F808160E08F730E943D04B8CF808100
:100F000091812881A801420F511D27FD5A959A0110
:100F1000FA01EE0FFF1FE20FF31FEC59F54F21818D
:100F20003281820F931FF70191838083888198011A
:100F3000280F311D87FD3A95F901EE0FFF1FE20FD3
:100F4000F31FEC59F54F808186FF22C08881080F7E
:100F5000111D87FD1A95F801EE0FFF1FE00FF11F1D
:100F6000EC59F54F808161E08F73DF91CF911F9134
:100F70000F91FF90EF90DF90CF90BF90AF900C94C7
:100F80003D0480E49CE9F701918380838FEF88839F
:100F9000DF91CF911F910F91FF90EF90DF90CF9055
:100FA000BF90AF900895089520913F0A260F3327F0
:100FB000331F21323105ECF42091560BFC0190E0F7
:100FC00080E0243069F082E00895A0913F0A2191E9
:100FD000AC01435E554FA40FB52FB11D2C93019664
:100FE000861798F380913F0A680F60933F0A80E06C
:100FF000089581E008951092560B81E08093550B7F
:101000001092300B61E084E10E943D0461E085E1D3
:101010000E943D04E9EBF0E080818E7F8083808137
:101020008D7F808388E48093B80085E48093BC0042
:101030000895CF93DF9391E090931C0A8823B9F031
:10104000C091B800D091BA008091BC008A7B809397
:10105000BC0060E084E10E943D0460E085E10E9404
:101060003D040E94FB07D093BA00C093B800DF9103
:10107000CF9108958F929F92AF92BF92CF92DF92BD
:10108000EF92FF920F931F93CF93DF93D0917F0B3B
:10109000D13208F0D7C0182FC0917E0B0E947E0578
:1010A0006B017C018091560B81116BC082E08093B3
:1010B000560B1093550B8FEF8093540B1092530BDC
:1010C000D093520BAEE5BBE0E2E3FBE080E0D81347
:1010D00091C01092310B8091310BCC0FC82BC09373
:1010E000310B8091300B813009F088C01092300BA9
:1010F0000E947E056B017C018091310B8093BB00C7
:101100008091580B9091590BA0915A0BB0915B0BA9
:10111000892B8A2B8B2BA1F00E947E050091580B06
:101120001091590B20915A0B30915B0B6C197D0972
:101130008E099F09061717072807390708F442C0C8
:101140008091BC0083FDD8CF85EC8093BC000E94C9
:101150007E056B017C018091560B823009F450C0F2
:101160008091540B8F3F09F46FC08091540B8032F3
:1011700009F46CC08091540B803309F469C084E099
:1011800026C08091580B9091590BA0915A0BB091A9
:101190005B0B892B8A2B8B2B09F484CF0E947E0555
:1011A0008090580B9090590BA0905A0BB0905B0B0D
:1011B0006C197D098E099F0986169706A806B9063F
:1011C00008F070CF8091570B0E94190885E01092AB
:1011D0005D0B10927F0B10925C0BDF91CF911F91F2
:1011E0000F91FF90EF90DF90CF90BF90AF909F90C6
:1011F0008F9008959D9191938F5F69CF85EEA5CFD4
:101200008091580B9091590BA0915A0BB0915B0BA8
:10121000892B8A2B8B2B09F49ECF0E947E0500918F
:10122000580B1091590B20915A0B30915B0B6C1994
:101230007D098E099F09061717072807390708F047
:101240008ACFC0CF81E0C3CF80E0C1CF82E0BFCFE3
:1012500083E0BDCF81E00C943A0808950895089585
:10126000E0911B0A80911A0AE81730F4F0E0E6508A
:10127000F64F808190E008958FEF9FEF0895909151
:101280001B0A80911A0A2FEF3FEF981748F4E92FB5
:10129000F0E0E650F64F208130E09F5F90931B0A0C
:1012A000C901089580911A0A90911B0A891B990B14
:1012B0000895CF92DF92EF92FF920F931F93CF93F7
:1012C000DF937C01CB018A0120915C0B222389F002
:1012D000EB016B01C40ED51ECC15DD0569F06991DB
:1012E000D701ED91FC910190F081E02DC701199596
:1012F000F3CF642F0E94D407C801DF91CF911F91D3
:101300000F91FF90EF90DF90CF900895CF93DF93F0
:101310001F92CDB7DEB7698320915C0B2223F9F0D1
:1013200020917F0B203258F021E030E0FC01338324
:10133000228390E080E00F90DF91CF91089580911B
:101340005D0BE82FF0E0E25AF44F998190838F5FB4
:1013500080935D0B80937F0B81E090E0ECCF61E0A8
:10136000CE0101960E94D407F7CFCF93C82F682FE4
:10137000646088E69FE00E9486096C2F70E06B7FB6
:1013800088E69FE0CF910C9486090F931F93CF932B
:10139000DF938C01C62FD42FFC01848191E09093C0
:1013A0005C0B80937E0B10925D0B10927F0B862F4F
:1013B000807F842B9585892B0E94B509F0E1CF9F12
:1013C000C0011124F8019585892B8D2B0E94B50948
:1013D000DF91CF911F910F910C942A09CF93DF9346
:1013E00000D000D01F921F92CDB7DEB728E0EFE308
:1013F000F2E0DE01119601900D922A95E1F7FC01D1
:101400002385241710F44FEF420F50E0440F551F6F
:1014100021E030E02C0F3D1F420F531FFA012081C5
:10142000620F606840E028960FB6F894DEBF0FBEEA
:10143000CDBFDF91CF910C94C509CF93DF93EC0121
:1014400040E061E00E94C5098BE39FE10197F1F75D
:101450008985882339F040E060E0CE01DF91CF91AB
:101460000C94EE09DF91CF91089541E00E94C509E7
:1014700081E090E00895FC01248131E030935C0B21
:1014800020937E0B10925D0B10927F0B607F858501
:10149000862B0E94B5090C942A09AF92BF92CF9275
:1014A000DF92EF92FF920F931F93CF93DF936C0124
:1014B000FC01848191E090935C0B80937E0B1092F1
:1014C0005D0B10927F0BEB01042F10E05B01A00E6F
:1014D000B11EF12CEE24E394CA15DB0541F189918C
:1014E000F60195859160807F892B0E94B509FE01E8
:1014F00031972081F0E12F0290011124F6018585BA
:101500008160822B0E94B509F394F7E0FF1520F764
:1015100080E00E943A08F6018481E0925C0B80939F
:101520007E0B10925D0B10927F0BF12CD5CF0E9499
:101530002A09C8010197DF91CF911F910F91FF9068
:10154000EF90DF90CF90BF90AF90089590E080E053
:101550000895CF93DF93FC012381222359F1EC01FD
:1015600061E084810E946B0461E08D810E946B04C4
:101570008B81843011F08830B1F461E08E810E945B
:101580006B0461E08F810E946B048FA58F3F91F007
:1015900061E00E946B046EA581E068278FA5DF9152
:1015A000CF910C943D04833011F0863071F761E0E7
:1015B0008E81E9CFDF91CF910895CF93DF93FC0126
:1015C00023812223A9F0EC010190F081E02D048019
:1015D000F581E02D60E019958FA58F3F49F061E01E
:1015E0000E946B046EA58FA5DF91CF910C943D04F2
:1015F000DF91CF910895DC01ED91FC911197248149
:101600003581477055276627772741505109610971
:101610007109473051056105710570F4FA01882799
:10162000EB5EF44F8F4F0C94693A200B220B240B86
:10163000260B280B2A0B2C0B61E0CD01F901199424
:1016400065E0FBCF64E0F9CF66E0F7CF62E0F5CF6D
:101650006AE0F3CF68E0F1CF69E0EFCFCF93DF939B
:10166000EC01CB01BA0126E030E040E050E00E94FE
:10167000B439623071058105910589F16CF4611509
:10168000710581059105D1F06130710581059105E4
:10169000F9F0DF91CF9108956430710581059105CE
:1016A00061F124F1653071058105910591F7E881BB
:1016B000F9810480F581E02D66E006C0E881F981BA
:1016C0000480F581E02D64E0CE01DF91CF91199483
:1016D000E881F9810480F581E02D65E0F5CFE881AE
:1016E000F9810480F581E02D61E0EECFE881F98198
:1016F0000480F581E02D63E0E7CFE881F981048083
:10170000F581E02D62E0E0CFDC01ED91FC910480F9
:10171000F581E02D43705527662777274230510524
:101720006105710571F0433051056105710559F08E
:10173000413051056105710511F065E0199466E0CD
:10174000FDCF6AE0FBCF69E0F9CFCF93DF93EC01E7
:10175000CB01BA0123E030E040E050E00E94B43910
:10176000613071058105910599F06230710581053F
:101770009105A9F0672B682B692BC1F4E881F981E9
:101780000480F581E02D64E0CE01DF91CF911994C2
:10179000E881F9810480F581E02D61E0F5CFE881F1
:1017A000F9810480F581E02D62E0EECFDF91CF91E9
:1017B0000895DC01ED91FC910480F581E02D4370EA
:1017C000552766277727423051056105710571F06D
:1017D000433051056105710559F0413051056105EE
:1017E000710511F062E0199463E0FDCF61E0FBCF79
:1017F00060E0F9CFCF93DF93EC01E881F9810480B9
:10180000F581E02D8A8160E0811162E0CE011995B9
:10181000E881F9810480F581E02D8A8161E0811100
:1018200063E0CE0119958CA59DA58230910538F015
:10183000880F991F880F991F05970197F1F7E88185
:10184000F9810480F581E02D8A8160E0811162E0F8
:10185000CE01DF91CF911994CF93DF93EC0120E07B
:1018600030E0A9016C897D898E899F890E94863B21
:1018700018162CF4E8A9F9A9DF91CF911994EAA9D7
:10188000FBA9FACFCF92DF92EF92FF920F931F93B3
:10189000CF93DF93DC011396CC91C43039F0C8307C
:1018A00059F1C33019F0C63049F1C2E08C010C5F28
:1018B0001F4FF12CE12CC62ED12CD1E0F801648110
:1018C000C6010E2C02C0959587950A94E2F780FD1B
:1018D0006D270F5F1F4F80810E943D04BFEFEB1A01
:1018E000FB0AEC1658F3DF91CF911F910F91FF90F7
:1018F000EF90DF90CF900895C4E0D8CFC3E0D6CF6B
:10190000DC011396EC911397E93008F042C0F0E047
:101910008827E257F34F8F4F0C94693A970C9F0C2E
:10192000A60CAD0CB40CC90CBB0CC90CC20CED91CF
:10193000FC9111970084F185E02DCD011994ED9172
:10194000FC9111970284F385E02DF7CFED91FC9186
:1019500011970484F585E02DF0CFED91FC9111975E
:101960000684F785E02DE9CFED91FC911197008871
:10197000F189E02DE2CFED91FC9111970288F38976
:10198000E02DDBCFED91FC9111970488F589E02DD6
:10199000D4CF08954F925F926F927F928F929F92D1
:1019A000AF92BF92CF92DF92EF92FF920F931F936D
:1019B000CF93DF93EC01C888D988EA88FB888C85AF
:1019C0009D85AE85BF85C81AD90AEA0AFB0A6C89CB
:1019D0007D898E899F899B01AC010E94E0384B0173
:1019E0005C016C8D7D8D8E8D9F8D9B01AC010E9465
:1019F000723A9B01AC01C501B4010E94DE3A0E941B
:101A0000503BC114D104E104F10409F0B1C06230CB
:101A10007105810591050CF0CBC01CA21DA21EA270
:101A20001FA21C8A1D8A1E8A1F8A1CAA1DAA1EAA02
:101A30001FAADF91CF911F910F91FF90EF90DF9040
:101A4000CF90BF90AF909F908F907F906F905F905E
:101A50004F9008951016110612061306B4F46C1573
:101A60007D058E059F051CF42A812111A1C09B01D3
:101A7000AC0188279927DC01821B930BA40BB50BC3
:101A80008CAB9DABAEABBFAB93C00115110521056F
:101A9000310509F48DC06C157D058E059F050CF090
:101AA00087C08A81882309F483C0309520951095DA
:101AB00001951F4F2F4F3F4F0CAB1DAB2EAB3FABD4
:101AC00077C0011511052105310509F471C088247D
:101AD000992454018C189D08AE08BF086815790533
:101AE0008A059B050CF064C08A81811161C0DDCF3D
:101AF000CCACDDACEEACFFACA7019601C701B601E2
:101B00000E94723A2B013C01C501B4010E94813848
:101B100020E030E040E850E40E94E03820E030E08F
:101B200040E85FE30E94723A9B01AC01C301B2013D
:101B30000E94DE3A9B01AC01C701B6010E94713AD6
:101B40003B016C01FE01E05CFF4FE080F18002810F
:101B500013819701A8010E94863B181614F47301A3
:101B60008601C701D8018CAF9DAFAEAFBFAF3AC001
:101B70000CA91DA92EA93FA91C141D041E041F0495
:101B80000CF468CF10161106120613060CF099CF4C
:101B90000027112798010C191D092E093F0960170C
:101BA0007107820793070CF062CF2A8121115FCF62
:101BB0008CA89DA8AEA8BFA881149104A104B1046B
:101BC00009F096CF88AD99ADAAADBBAD8CAF9DAFF6
:101BD000AEAFBFAF81E01C141D041E041F040CF047
:101BE00080E08A833FEF831A930AA30AB30A8CAA80
:101BF0009DAAAEAABFAACCACDDACEEACFFACC701CF
:101C0000B6010E94573B6CA37DA38EA39FA3A7019F
:101C1000960160E074E284E799E40E94DE3A6C8BFE
:101C20007D8B8E8B9F8B2A81211103CF90586C8BDB
:101C30007D8B8E8B9F8BFDCECF92DF92EF92FF92AA
:101C40000F931F93CF93DF93EC016A017B0120E098
:101C500030E0A901CB01B6010E947A3887FF04C0A9
:101C6000F7FAF094F7F8F094A7019601688D798D52
:101C70008A8D9B8D0E947A38882309F446C0C88ECD
:101C8000D98EEA8EFB8E8E01005C1F4FA701960154
:101C900060E074E284E799E40E94DE3AF801608330
:101CA0007183828393838CA99DA9AEA9BFA91816BD
:101CB00019061A061B064CF56C897D898E899F8949
:101CC0009B01AC010E94E0386B017C016C8D7D8D25
:101CD0008E8D9F8D9B01AC010E94723A9B01AC01DD
:101CE000C701B6010E94DE3A0E94503B6CAB7DAB4F
:101CF0008EAB9FABCE01DF91CF911F910F91FF90E3
:101D0000EF90DF90CF900C94CA0CDF91CF911F9190
:101D10000F91FF90EF90DF90CF9008958F929F9258
:101D2000AF92BF92EF92FF920F931F93CF937C01DC
:101D30008B01C42F0E94A305F80180809180A280AE
:101D4000B380DC01CB0188199909AA09BB094C2F82
:101D500050E070E060E084179507A607B70748F0E9
:101D6000F70119950E94A305F801608371838283AE
:101D70009383CF911F910F91FF90EF90BF90AF9001
:101D80009F908F9008952091F8093091F909280FBC
:101D9000391F81E02134364008F080E00895FC01CD
:101DA00080818823F9F084818823E1F08181811189
:101DB00019C081E0818382819381FC01408951892E
:101DC00062897389403659476E4F7F4F59F040E61C
:101DD00059E76EEF7FEFFC01408B518B628B738B69
:101DE0000C94CA0C08954F925F926F927F928F92DB
:101DF0009F92AF92BF92CF92DF92EF92FF920F939A
:101E00001F93CF93DF93D12CA7E1CA2E08E810E0EF
:101E1000B8E5EB2EB2E0FB2EC4EB4C2E512C612C1E
:101E2000712C8091B703D81608F096C0C091B50305
:101E3000D091B603DC9CC00DD11D112489899A89EB
:101E4000AB89BC894D855E856F8578898417950738
:101E5000A607B70709F47AC0481759076A077B072E
:101E60000CF076C00197A109B109898B9A8BAB8BD5
:101E7000BC8BA989BA89A03282E0B807ACF52B8562
:101E80004801821A910827FD9394880C991C880CAC
:101E9000991C092C000CAA08BB082C85C701821BC1
:101EA000910927FD93959C01220F331F220F331FA9
:101EB000032E000C440B550B281939094A095B09FC
:101EC000A53BB10514F0A4EBB0E0B7FF02C0B0E051
:101ED000A0E00E94DE39A30192010E94B439820E73
:101EE000931EA41EB51ED401EA85E03378F52B8538
:101EF000C801821B910927FD93959C01220F331F76
:101F0000220F331FA217B3077CF02C85C701821B59
:101F1000910927FD93959C01220F331F220F331F38
:101F2000A217B3070CF49D0122503109220F331F71
:101F30004FB7F8948E2F90E0FC01EE0FFF1FE80FD3
:101F4000F91FEC59F54F328321834FBFD39469CFEA
:101F50000196A11DB11D89CFDF91CF911F910F91E6
:101F6000FF90EF90DF90CF90BF90AF909F908F90B9
:101F70007F906F905F904F9008958BE891E001976C
:101F8000F1F70895EF92FF920F931F93CF93DF9392
:101F9000EC01162FE42EFF24F394442311F080E883
:101FA000F82E08E061E08A810E946B040E94BD0F58
:101FB00061E08F2D812309F060E089810E946B042C
:101FC0000E94BD0F60E08A810E946B040E94BD0FD9
:101FD000EE2081F1110F015029F761E08A810E9402
:101FE0006B0460E089810E946B040E94BD0F60E079
:101FF0008A810E946B040E94BD0F89810E94140493
:10200000182F811104C061E089810E946B040E9435
:10201000BD0F61E08A810E946B040E94BD0F81E0C8
:10202000111101C080E0DF91CF911F910F91FF90BE
:10203000EF9008951695CFCFCF93DF93EC0161E039
:1020400089810E946B040E94BD0F60E08A810E941A
:102050006B040E94BD0F60E089810E946B04DF91D8
:10206000CF910C94BD0F61E0FC0181810E946B0453
:102070000C94BD0FAF92BF92CF92DF92EF92FF927E
:102080000F931F93CF93DF93EC01162F042FAC888F
:102090000E94331040E060E4CE010E94C20FCE01E6
:1020A0000E941C1010958C89180FC02ED12CE12E87
:1020B000F12C84E0B12EA81631F0F601EE0DFF1DD3
:1020C000E656FD4FB080CE010E94331060EC6B0DE0
:1020D00040E0CE010E94C20F8C89CE0CDF1C8C1513
:1020E0001D0414F4082F011B10E0DD24DA94D00E37
:1020F000EC0EFD1E011781F084E0ED2DE11BA8120E
:1021000001C0E12FEE0DFF2DF11D41E06481CE01F4
:102110000E94C20F1F5FEECFCE01DF91CF911F91C2
:102120000F91FF90EF90DF90CF90BF90AF900C9405
:102130001C10EF92FF921F93CF93DF93EC01162FA9
:102140008C8180FF10C0603170F46D837E0184E06B
:10215000E80EF11C612F617089910E943D04169573
:10216000EC16FD06B9F7DF91CF911F91FF90EF902C
:102170000895DC01842FE091AC03F091AD0330971A
:1021800019F04D915C91199408954F925F926F925E
:102190007F928F929F92AF92BF92CF92DF92EF92F7
:1021A000FF920F931F93CF93DF93F12C6FE1E62EF5
:1021B0008091A803F81608F0EAC0C091A603D09158
:1021C000A703FE9CC00DD11D11248A81882309F428
:1021D000B2C088810E9414048C0189810E94140479
:1021E0006C010E94A3054B015C0181E090E0CD28C9
:1021F00011F090E080E0880F991F21E0012B09F099
:1022000020E0922F982B4B8D5C8D6D8D7E8D9501EE
:102210008401041B150B260B370BB901A8014536A9
:1022200051056105710508F488C08885823008F47D
:1022300084C08B8E9C8EAD8EBE8E81508887EE853D
:102240009E1709F445C0888503E310E0873010F439
:1022500001E010E06D8524E0E202F0011124492F35
:10226000092E000C550BE42BF52BE557FD4F708123
:1022700070039001719F300D1124062E02C0220FB1
:10228000331F0A94E2F7EF85F8892E0F3F1F388B32
:102290002F874C0F5D1FFA0141854423C1F04B8805
:1022A0005C886D887E884F8A588E698E7A8E8B8A7C
:1022B0009C8AAD8ABE8A02C0359527956A95E2F759
:1022C0003A8B298B8C3008F08BE08F5F88879E8754
:1022D00009891A898D819E810817190761F1980172
:1022E000281B390BC901E091A403F091A5036901F2
:1022F000CC0CDD1C309709F447C06B817C812F5CCE
:102300003F4F23363105D0F597FD2FC080E019955A
:10231000C00ED11E31E4C3163FE1D30654F08F85C1
:10232000988983709927988B8F871A8A198A10E069
:1023300000E01E830D83F3943BCF4F89588D698D48
:102340007A8D95018401041B150B260B370BB901FF
:10235000A801453F51406105710508F470CF8B8E8F
:102360009C8EAD8EBE8E18866ACF82E01995C8010C
:102370008C199D09803C904E94F2DBCF97FD02C0F2
:1023800081E0C5CF83E0F2CF37FDF1CFC1CFDF9140
:10239000CF911F910F91FF90EF90DF90CF90BF9062
:1023A000AF909F908F907F906F905F904F90089527
:1023B000CF92DF92EF92FF920F931F93CF93DF9311
:1023C0006C017A018091A2039091A303892B31F1D2
:1023D000D60113968C9100E181FD08E0EB01CE253A
:1023E000DF2510E0C0FF13C08091A2039091A303EA
:1023F000892B69F0E091A003F091A103309739F0A7
:10240000D6014D915C91612F8E2D81701995D695D5
:10241000C795F694E7941F5F0113E4CFDF91CF9146
:102420001F910F91FF90EF90DF90CF900895AF92A2
:10243000BF92CF92DF92EF92FF920F931F93CF93B1
:10244000DF931F92CDB7DEB7C090A203D090A30355
:10245000C114D10409F43FC0FC01238130E1B32E43
:1024600021FF02C028E0B22EA62E8C01F601858144
:102470008683F12CE12CBA946B2DC6010E94991031
:10248000F80182810E9414048983F80182810E94EC
:1024900014048983EE0CFF1C298181E090E0211156
:1024A00002C090E080E0E82AF92AB110E4CFF601FA
:1024B0006681C6010E949910F801648175816E15CC
:1024C0007F0549F0AA2021F0A701C8010E94D81178
:1024D000F801F582E4820F90DF91CF911F910F9167
:1024E000FF90EF90DF90CF90BF90AF900895CF9383
:1024F000DF93C0E0D6E080919F03C81768F4809115
:102500009D0390919E0361E0CD9F800D911D11244C
:102510000E941712CF5FEFCFDF91CF910895E09126
:102520009803F0919903309751F0DC0113962C91A8
:102530001397222321F06D917C9181E019940895E5
:10254000E0919803F0919903309751F0DC011396D4
:102550002C911397211104C06D917C9180E0199406
:1025600008950F931F93CF93DF9310E005E08091C0
:102570009703181730F5C0919503D0919603109FDB
:10258000C00DD11D11248C81882399F08A810E946D
:1025900014049B81891769F091E0811101C090E0DA
:1025A0009B839C81811107C0992319F0CE010E9461
:1025B000A0121F5FDCCF9923E1F3CE010E948F129E
:1025C000F8CFDF91CF911F910F910895FC01A08D5D
:1025D000B0E01396AA0FBB1FA80FB91F8689978971
:1025E0002D913C91821B930B978B868B8281863336
:1025F00008F0865320917B00982F9870277F922BAC
:1026000090937B008770806480937C0080917A0037
:10261000806480937A0080917A0086FDFCCF90914F
:10262000780080917900A08DB0E01396AA0FBB1FAF
:10263000AE0FBF1F8927982789278D939C93A08D64
:10264000B0E01396AA0FBB1FAE0FBF1F86899789F4
:102650002D913C91820F931F978B868B808D8F5F7E
:10266000808F808D8770808F0895CF93DF93C0E037
:10267000DEE180919403C81778F4809192039091E1
:102680009303CD9F800D911D1124FC01258D2111F7
:102690000E94E612CF5FEDCFDF91CF910895CF93E7
:1026A000DF93C0E0DEE180919403C817C8F5A091E4
:1026B0009203B0919303CD9FA00DB11D11245D969F
:1026C0008C915D97882351F156968D919C915797E7
:1026D00023E0969587952A95E1F713962D913C91E5
:1026E0001497AC01421B530B9A0157FF03C031955D
:1026F0002195310915964C9115974217130609F04B
:102700006CF414969C938E931397E0919003F09140
:102710009103309719F06D917C911995CF5FC3CFDC
:10272000DF91CF910895DF92EF92FF920F931F9365
:10273000CF93DF937C01D62FD42EC0E00BE410E0C2
:1027400060E0F70182810E943D04C8010197F1F722
:102750006D2F661F6627661FF70181810E943D0469
:10276000C8010197F1F761E0F70182810E943D0401
:10277000C8010197F1F7CF5FDD0FDC12E1CFDF91E8
:10278000CF911F910F91FF90EF90DF900895AF923E
:10279000BF92CF92DF92EF92FF920F931F93CF934E
:1027A000DF93EC01162F69017A0160E088810E94B5
:1027B0003D0443E060EACE010E949313612F660F4F
:1027C000660F46E0CE010E94931310E09BE4A92E11
:1027D000B12C60E08A810E943D04C5010197F1F7A8
:1027E0006C2D617089810E943D04C5010197F1F74C
:1027F00061E08A810E943D04C5010197F1F71F5FE6
:10280000F694E794D794C7940113E3CF61E08881ED
:10281000DF91CF911F910F91FF90EF90DF90CF90BC
:10282000BF90AF900C943D040F93FC01E60FF11D97
:1028300023A130E050E040E0660F08E00E94C7139B
:102840000F9108959C014D3008F04BE0D901A60F7F
:10285000B11D93969C9193979170E42FF0E0EB5A01
:10286000FD4F8081982B93969C93C9010C9414146E
:10287000CF92DF92EF92FF920F931F93CF93DF934C
:102880008C01EB01683E734010F0C7EED3E08AE0A4
:10289000E82EF12CCE01B7010E94413A6B01482F7E
:1028A00062E0C8010E942214C601B7010E94413AA9
:1028B000482F61E0C8010E942214CE0164E670E056
:1028C0000E94413A462F60E0C801DF91CF911F91ED
:1028D0000F91FF90EF90DF90CF900C942214FC01A9
:1028E00022A92F7BF0E46F9FA0011124242BFC016F
:1028F00022AB24A12E7F622B64A36FE00C941414EE
:102900000F93FC01E60FF11D23A130E050E040E001
:10291000660F08E00E94C7130F9108959C01DC0127
:10292000A60FB11D93969C91939790714E3008F02D
:102930004DE0E42FF0E0E95BFD4F8081982B93960A
:102940009C93C9010C94801420917B0F30917C0FD3
:102950008217930710F40C949E3980E008950F932A
:102960001F93CF93DF938C01EB01F801808191815C
:102970009C012F5F3F4F318320830E94A414288144
:102980003981A9014F5F5F4F598348832058344FE5
:10299000F901808328813981283EF3E03F0760F404
:1029A0008A3319F72158344FF901108281E0DF9101
:1029B000CF911F910F91089580E0F9CFCF92DF92D0
:1029C000EF92FF920F931F93CF93DF938C01C090F0
:1029D0007B0FD0907C0FC62FD0E0F80180819181D1
:1029E0007C01FFEFEF1AFF0AF801F182E0820E94FA
:1029F000A414CE14DF0480F0082E000C990B8C1761
:102A00009D0759F781E0DF91CF911F910F91FF90C2
:102A1000EF90DF90CF90089580E0F5CFBF92CF92F6
:102A2000DF92EF92FF920F931F93CF93DF93EC010E
:102A300060E088810E943D04FB800F2D10E00C5F58
:102A40001F4F0C0F1D1FFF20E1F0F801D2908F01E6
:102A5000C980BA8088E0E82E6D2D661F6627661F44
:102A60008B2D0E943D04DD0C61E08C2D0E943D0405
:102A700060E08C2D0E943D04EA94E110EDCFFA94C1
:102A8000E2CF61E08881DF91CF911F910F91FF909C
:102A9000EF90DF90CF90BF900C943D049F92AF9247
:102AA000BF92CF92DF92EF92FF920F931F93CF933B
:102AB000DF93EC01C62E61E08B810E943D0461E052
:102AC0008A810E943D0410E08D81181708F03FC0F4
:102AD000DB80BC8087E0E82EF12C00E061E08D2DEA
:102AE0000E943D048B2D0E9414040E2C01C0880FFF
:102AF0000A94EAF7082B60E08D2D0E943D0481E0E6
:102B0000E81AF10858F75E01A10EB11CF501D78053
:102B1000D016D9F0CC20B9F0912E990C990C990CC3
:102B2000E02EF12C8D2D8E2580FF07C04E2D41709B
:102B3000692D6F0DCE010E94B910D694E694F394DE
:102B4000F8E0FF12EFCFF50107831F5FBDCF60E014
:102B50008A81DF91CF911F910F91FF90EF90DF90CD
:102B6000CF90BF90AF909F900C943D04CF93DF9394
:102B7000C0E0DBE08091AB03C81768F48091A90343
:102B80009091AA0361E0CD9F800D911D11240E94B8
:102B90004E15CF5FEFCFDF91CF9108956F927F9267
:102BA0008F929F92AF92BF92CF92DF92EF92FF925D
:102BB0000F931F93CF93DF93C0E0D5E080919703ED
:102BC000C81778F48091950390919603CD9F800D5E
:102BD000911D1124FC01248121110E948F12CF5FCD
:102BE000EDCFC0E0D5E080919703C81778F48091CD
:102BF000950390919603CD9F800D911D1124FC01AA
:102C0000248121110E94A012CF5FEDCF10E05BE084
:102C1000752E8091AB03181708F057C0C091A90317
:102C2000D091AA03179DC00DD11D112460E0CE01E3
:102C30000E944E156E01F7E0CF0ED11C5601612C9B
:102C4000912C812C8D8188151904D9F0D4F0F501CF
:102C500081915F0100E0E82EF12C80FF06C041E089
:102C6000662D600FCE010E94B910F594E7948E2D69
:102C70000F5F083081F7FFEF8F1A9F0A88E0680E18
:102C8000E1CF912CF12CE12C8D818E151F04D9F010
:102C9000D4F0F60181916F0100E0A82EB12C80FDE7
:102CA00006C040E0692D600FCE010E94B910B594B6
:102CB000A7948A2D0F5F083081F7FFEFEF1AFF0A04
:102CC00088E0980EE1CF1F5FA4CF10E006E080916E
:102CD0009F031817E0F4C0919D03D0919E03109FAD
:102CE000C00DD11D112460E0CE010E9417124C814D
:102CF0005D8170E060E0CE010E94D8114C815D8161
:102D00006FEF7FEFCE010E94D8111F5FE0CFC0E0D0
:102D1000DEE180919403C81728F5A0919203B09149
:102D20009303CD9FA00DB11D11245D968C915D97ED
:102D30008823B1F056968D919C91579723E09695F4
:102D400087952A95E1F714969C938E931397E091BB
:102D50009003F0919103309719F06D917C91199542
:102D6000CF5FD7CFDF91CF911F910F91FF90EF9061
:102D7000DF90CF90BF90AF909F908F907F906F909B
:102D800008950E942F03882359F081E08093041155
:102D90008093051180910611909107110C94ED37E5
:102DA0001092051190E080E00895CF930E94C11623
:102DB000C82F0E94C116BC018C2FCF910C94A70480
:102DC0000E94C1169091060B891768F42091040B9C
:102DD0003091050BA9016EE0869F400D511D112415
:102DE000CA010C94CF0E08950F931F930E94C11631
:102DF0009091060B891708F04DC0E091040BF091FB
:102E0000050B9EE0899FE00DF11D11248081882330
:102E100009F440C0A281B3811C961D921D921D929F
:102E20001C921F9750961D921D921D921C925397B3
:102E3000D4961D921D921D921C92D79794961D9226
:102E40001D921D921C92979754961D921D921D9251
:102E50001C92579784858823E9F08281938142856B
:102E600050E0519541955109052E000C660B770BEA
:102E7000FC010089118922893389401751076207B3
:102E8000730741F0408B518B628B738B1F910F91B5
:102E90000C94CA0C1F910F9108958F929F92AF923C
:102EA000BF92CF92DF92EF92FF921F93CF93DF9367
:102EB0000E94C1167C010E94C116BC018091B7031B
:102EC0008E151F0409F00CF4A8C027E12E9DC00147
:102ED0002F9D900D1124C091B503D091B603C80F5A
:102EE000D91FCD80DE800D2C000CEE08FF088980F4
:102EF0009A80092C000CAA08BB082F813885032E64
:102F0000000C440B550B2C193D094E095F09072E87
:102F1000000C880B990B681979098A099B090E9492
:102F2000173A2B813C81032E000C440B550B2819BA
:102F300039094A095B090E94B439BA01A9014C0D4B
:102F40005D1D6E1D7F1D052E000C660B770B8D859C
:102F50009E85AF85B88984179507A607B70709F43A
:102F60005CC04D875E876F87788B8985811155C0DE
:102F70008A85803308F04FC0188161E0812F0E945C
:102F80006B048A85282F30E0F901EE0FFF1FE20F56
:102F9000F31FEC59F54F1F739081907C912B908318
:102FA0001B861C862CE0622F0E94273A829FB0016C
:102FB000112430E020E0AB01420F531FFA01EE0F65
:102FC000FF1FE40FF51FEC59F54F908196FD16C0D9
:102FD0002F5F3F4F2C30310571F7813051F5109242
:102FE000800082E08093810010928500109284001E
:102FF000B19A80916F00826080936F00EA858E2F76
:1030000090E0FC01EE0FFF1FE80FF91FEC59F54FA0
:1030100080818064808381E08987DF91CF911F91D7
:10302000FF90EF90DF90CF90BF90AF909F908F90E8
:103030000895823061F41092900080939100109274
:1030400095001092940088BB80937100D7CF833095
:1030500069F41092A00082E08093A1001092A50074
:103060001092A40089BB80937200C8CF8111C6CF93
:103070001092200182E0809321011092250110928C
:1030800024018ABB80937300B9CFEF92FF921F9304
:10309000CF93DF930E94C116EC010E9480037C0154
:1030A0000E94930322E12C9FC0012D9F900D1124BB
:1030B000C091AE03D091AF03C80FD91F8E8588236E
:1030C000A1F010E08989811781F0412F60E0CE01E5
:1030D0000E94EE094889B701149F600D711D1124EB
:1030E000CE010E944D0A1F5FEDCFDF91CF911F915E
:1030F000FF90EF9008950E94C116892B49F010921D
:10310000FE0A1092FF0A1092000B1092010B089514
:103110000E94A3056093FE0A7093FF0A8093000B40
:103120009093010B0895AF92BF92CF92DF92EF92EE
:10313000FF920F931F93CF93DF9300D01F92CDB7D1
:10314000DEB75C0119821A821B821C82CE010196B5
:103150007C0110E000E06C01F501808191819C010F
:103160002F5F3F4F318320830E94A414F701808397
:10317000F8018E3241F00F5F1F4F8FEFE81AF80A07
:103180000430110549F7EC0DFD1D1082C6010E94A7
:10319000ED370F900F900F900F90DF91CF911F910F
:1031A0000F91FF90EF90DF90CF90BF90AF90089578
:1031B000FB0101900020E9F73197AF01461B570B47
:1031C000DC01ED91FC910280F381E02D1994809156
:1031D0003A108823A1F060910D1180910B1190910C
:1031E0000C110E94AF0580914210882341F06FEDD1
:1031F00072E080910B1190910C110E94D8181092DE
:10320000411010923A1080E008958F929F92AF92F1
:10321000BF92EF92FF920F931F93CF93DF93CDB79F
:10322000DEB7A1970FB6F894DEBF0FBECDBF7C010D
:10323000FA01CB0119A2223008F42AE08E010F5DB9
:103240001F4F822E912CB12CA12CBF01A5019401FE
:103250000E94E639F901CA016A300CF5605DD801B7
:103260006E938D01232B242B252B79F790E080E0A2
:10327000109721F0BD01C7010E94D818A1960FB682
:10328000F894DEBF0FBECDBFDF91CF911F910F919C
:10329000FF90EF90BF90AF909F908F900895695CE2
:1032A000DECFCF9390913A109923A9F0C82F609167
:1032B0000E1180910B1190910C110E94AF054C2FB3
:1032C00050E070E060E02AE080910B1190910C11C9
:1032D000CF910C940519CF91089590913A109111C6
:1032E00010C091E090933A1090934110482F50E015
:1032F00070E060E02AE080910B1190910C110C9429
:1033000005190895CF93DF9390913A1091110EC053
:10331000EB010E946D1980913A10882319F0CE01BB
:103320000E94B605DF91CF910C94E71880E0DF9101
:10333000CF9108950E94A3056093FE0A7093FF0A3F
:103340008093000B9093010B68EE72E085E00C9483
:1033500082190F931F93CF93DF93109297031092CC
:10336000A8031092FD0A9091B203E091B303F0918B
:10337000B40380E0981721F0168A8F5F7796FACF12
:103380001092B2033091B703A091B503B091B60388
:1033900020E03217D1F019968C911997882391F07B
:1033A0001A96EC911A978E2F90E0FC01EE0FFF1FFA
:1033B000E80FF91FEC59F54F80818F7B80831996B8
:1033C0001C9219972F5F5796E4CF1092B7039091F4
:1033D000060BE091040BF091050B80E0981721F0AB
:1033E00010828F5F3E96FACF1092060B9091890360
:1033F000E091AE03F091AF0380E0981731F026859D
:10340000211116868F5F7296F8CF10928903109261
:10341000940390918C03E091B003F091B10380E0AC
:10342000981731F02085211110868F5F3996F8CFDB
:1034300010928C039091AB03E091A903F091AA0341
:1034400080E0981721F016828F5F3B96FACF10929A
:10345000AB0310E006E080919F031817A0F4C09121
:103460009D03D0919E03109FC00DD11D11248B810F
:1034700080FF07C062E08A810E946B048B818E7F8F
:103480008B831F5FE8CF10929F0320919C0330E055
:10349000E0919A03F0919B0390E080E028173907B0
:1034A000E1F010824581413061F4A181B281D4966E
:1034B0004C91D497442311F0D4961C9201963696E1
:1034C000EDCF4230D9F7A381B481D3964C91D397F5
:1034D0004423A1F3D3961C92F1CF10929C03109237
:1034E000FA0A1092F90A1092030B1092F90910923D
:1034F000F8096CEE72E085E0DF91CF911F910F919A
:103500000C9482196FEE72E08FE00C948219209176
:10351000F8093091F909820F931F9093F90980936C
:10352000F8098034964040F066E674E085E00E9439
:10353000821990E080E00895C90188549C4F089555
:1035400081E08093030B62EF72E081E10C948219B9
:10355000CF93DF938AE00E946D198091F90A9091D0
:10356000FA0A892B91F18BE390E00E94A414C82FF2
:1035700080913A10882379F060910E1180910B119F
:1035800090910C110E94AF056C2F80910B119091BE
:103590000C110E94AF05C1E0D0E08091F90A909132
:1035A000FA0AC817D90788F4CE01CB960E94A41452
:1035B00090913A10992339F0682F80910B119091D6
:1035C0000C110E94AF052196E8CFDF91CF910C94AA
:1035D000E718CF93DF9320913A102223A1F0EC015A
:1035E00060910E1180910B1190910C110E94AF050A
:1035F000209749F0BE0180910B1190910C11DF9141
:10360000CF910C94D818DF91CF9108950F931F9309
:10361000CF93DF93C82FD62F8A018DE10E946D19B9
:10362000C8010E94E91A8D2F0E9451198C2F0E9407
:103630005119DF91CF911F910F910C94E7180F93BF
:103640001F93CF93C82F8B0186E00E946D19C8018C
:103650000E94E91A8C2F0E945119CF911F910F914E
:103660000C94E7180F931F93CF93DF93C82FD62F97
:103670008A018EE10E946D19C8010E94E91A8D2FFE
:103680000E9451198C2F0E945119DF91CF911F91E7
:103690000F910C94E7180F931F93CF93C82F8B01B2
:1036A00087E00E946D19C8010E94E91A8C2F0E94C0
:1036B0005119CF911F910F910C94E718CF92DF927F
:1036C000EF92FF92CF93DF936C01EB018CE10E94AC
:1036D0006D19CE010E94E91A80913A10882321F1D8
:1036E00060910E1180910B1190910C110E94AF0509
:1036F000C0910B11D0910C110D2C000CEE08FF089D
:103700002AE0B701A601F7FE0CC06DE2CE010E94CF
:10371000AF0544275527BA014C195D096E097F0989
:103720002AE0CE010E940519DF91CF91FF90EF9022
:10373000DF90CF900C94E718CF93DF93EC0185E0F6
:103740000E946D19CE010E94E91A80913A108823D7
:1037500021F085EF92E00E94B605DF91CF910C94A5
:10376000E718FB0101900020E9F73197AF01461BF4
:10377000570BDC01ED91FC910284F385E02D199447
:10378000CF92DF92EF92FF920F931F93CF93DF932D
:103790008C01EB01FC01D0886D2D70E0FE010190E1
:1037A0000020E9F7CF0101978C1B9D0B8617970727
:1037B000B0F4681B790B76956795D82EC8010E94E6
:1037C000EE09CC2EEC2EFD2E8E2D8C198D1548F485
:1037D000F70161917F01C8010E94350AF5CF60E0D1
:1037E000EDCFDF91CF911F910F91FF90EF90DF9080
:1037F000CF90089585ED8093BC008091580B9091F7
:10380000590BA0915A0BB0915B0B0796A11DB11DEE
:1038100023E0B695A795979587952A95D1F720919E
:10382000BC0024FD03C01092560B08954091580B24
:103830005091590B60915A0B70915B0B452B462BA5
:10384000472B69F30097A105B10541F025E32A95BF
:10385000F1F700000197A109B109E1CF8091570B61
:103860000C9419084F925F926F927F928F929F9261
:10387000AF92BF92CF92DF92EF92FF92CF93DF93FE
:10388000EC016A017B0120E030E0A901CB01B60127
:103890000E947A3887FF04C0F7FAF094F7F8F094A2
:1038A0008C8C9D8CAE8CBF8CA7019601C501B40198
:1038B0000E947A38882309F449C06CA97DA98EA991
:1038C0009FA90E9481382B013C01A7019601C501E7
:1038D000B4010E94DE3A9B01AC01C301B2010E9417
:1038E000E0380E94503B6CAB7DAB8EAB9FABA70129
:1038F000960160E070E080E090E40E94DE3A0E9471
:10390000913B26E53EE04DE25FE30E94E03820E097
:1039100034E244E759E40E94E03868AF79AF8AAFF7
:103920009BAFCC8EDD8EEE8EFF8ECE01DF91CF91E0
:10393000FF90EF90DF90CF90BF90AF909F908F90CF
:103940007F906F905F904F900C94CA0CDF91CF9155
:10395000FF90EF90DF90CF90BF90AF909F908F90AF
:103960007F906F905F904F900895EF920F93CF9359
:10397000DF93EC0185EA92E0998388836B831C8650
:103980001D861E861F86188A198A1A8A1B8A1C8A17
:103990001D8A1E8A1F8A80E090E0A0E8BFE3888F1E
:1039A000998FAA8FBB8F1C8E1D8E1E8E1F8E88A393
:1039B00099A3AAA3BBA31CA21DA21EA21FA261E0E1
:1039C00070E07DA76CA73FEF3FA718A619A61AA61F
:1039D0001BA64C832D830E83EF821EA61CAA1DAA54
:1039E0001EAA1FAA18AE19AE1AAE1BAE1CAE1DAE93
:1039F0001EAE1FAEFE01E05CFF4F80839183A28369
:103A0000B3831A82188619861A861B86CE010E94F5
:103A1000A90A40E050E060E87FE3CE01DF91CF915A
:103A20000F91EF900C94321CCF92DF92EF92FF92A5
:103A30000F931F93CF93DF930E94C116D82F0E943C
:103A4000C1167C010E94C1168C018091060BD8170B
:103A5000C0F58091040B9091050B9C014EE0D49F22
:103A6000200D311D1124E9018881882359F0B70107
:103A700090E080E00E947F38AB01BC018A819B818D
:103A80000E941C0E88818823E1F0B80190E080E05C
:103A90000E947F386B017C0120E030E0A9010E9488
:103AA0007A38882371F0B701A6018A819B81DF9162
:103AB000CF911F910F91FF90EF90DF90CF900C94DA
:103AC000321CDF91CF911F910F91FF90EF90DF900B
:103AD000CF9008958F929F92AF92BF92CF92DF9234
:103AE000EF92FF92CF93DF930E94C116D82FC82F79
:103AF0000E942F03882309F495C081E0809304116C
:103B00008093051180910611909107110E940B3846
:103B10006B017C018091060BC81708F078C080917A
:103B2000040B9091050B9C014EE0D49F200D311D9C
:103B30001124E9018881882309F469C019828E81E2
:103B40009F81A885B985C816D906EA06FB0609F43F
:103B50005EC08A819B81DC011C968D909D90AD900A
:103B6000BC901F972B85222351F02D85222339F0FD
:103B7000ED91FC910280F381E02D19951D868C85D5
:103B8000882379F0C814D904EA04FB0454F48E8124
:103B90009F81A885B985C816D906EA06FB060CF4EC
:103BA0001C868C85811110C08C149D04AE04BF044A
:103BB0005CF48E819F81A885B9858C159D05AE0525
:103BC000BF0514F481E08C878A819B814A852C850E
:103BD000429FA0011124052E000C660B770B4C0DA3
:103BE0005D1D6E1D7F1DFC0180889188A288B388B1
:103BF000481559056A057B0531F0408B518B628B66
:103C0000738B0E94CA0CCE82DF82E886F986DF9130
:103C1000CF91FF90EF90DF90CF90BF90AF909F90AB
:103C20008F90089510920511C12CD12C760172CF7E
:103C3000BF92CF92DF92EF92FF920F931F93CF9399
:103C4000DF93EC01E62EC42ED22EFC88FF0C0F2D44
:103C500010E0A80170E060E004960E94E63BEE2DC3
:103C6000EE0FEC0FFD2FF11DC582D48260E08B8139
:103C70000E943D040C5F1F4F0C0F1D1FFF20E1F041
:103C8000F801B2908F0188E0C82ED12C90E8E92E7F
:103C90006B2D6E2189810E943D0461E08A810E9422
:103CA0003D0460E08A810E943D04E694F1E0CF1A71
:103CB000D10871F7FA94E2CF61E08B81DF91CF9167
:103CC0001F910F91FF90EF90DF90CF90BF900C94D9
:103CD0003D048F929F92AF92BF92CF92DF92EF926C
:103CE000FF920F931F93CF93DF930E94C116EC01B5
:103CF0000E94C116882E0E9480035C010E94C1169A
:103D00006C010E94C11647E14C9F90014D9F300D00
:103D100011240091B3031091B403020F131FF80193
:103D20002689222309F43CC0C7E0D0E0912C7C0115
:103D3000FF24DD246C2F4C2F4F5FC7010C2E02C0D7
:103D4000959587950A94E2F780FF28C0F801A48929
:103D50008A1618F5F501E90DF11D808187FD80E2D5
:103D600096010C2E02C0359527950A94E2F720FDA6
:103D70008068F8019081992311F06A1770F4E82F98
:103D8000EF77F0E0EA51FC4F2491911116C087FDC6
:103D90002068682DC8010E94181E9394219750F640
:103DA000DF91CF911F910F91FF90EF90DF90CF9017
:103DB000BF90AF909F908F900895220F87FD216054
:103DC000A150BB0BAC1BBD0BA00FB11F14962C93C5
:103DD00041E0C8010E943A10E0CF1F93CF93DF93D8
:103DE000DC012C9121110CC054962C91621700F526
:103DF00021E024274CE0DF91CF911F910C94181EF5
:103E00005596EC91F0E0F595E7951E2F411101C014
:103E10001860EC010E94331060E8610F40E0CE01B1
:103E20000E94C20FCE01DF91CF911F910C941C1004
:103E3000DF91CF911F9108950F931F93CF93DF933D
:103E4000FC0126892223C1F16217B0F5442391F1C8
:103E50002FEF240F203108F02FE0D62F8C01FC012A
:103E6000258B8081811110C08489681720F44AE075
:103E7000C8010E94181E40E06D2FC801DF91CF914C
:103E80001F910F910C94ED1EC0E0413031F026954A
:103E9000423009F421E0C22FC860C8010E943310EB
:103EA00060E86C0F40E0C8010E94C20FC8010E9488
:103EB0001C10E1CF41E0E2CFDF91CF911F910F9134
:103EC00008950F931F93CF930E94C1168C010E94F7
:103ED000C116C82F0E94C11697E1909F9001919F33
:103EE000300D1124E091B303F091B403482F6C2FEF
:103EF000CF01820F931FCF911F910F910C941C1F24
:103F00000C94611FEF92FF920F931F93CF93DF9357
:103F1000F82EC0E087E1E82E8091B203C817B0F414
:103F20000091B3031091B403CE9D000D111D112417
:103F3000D0E0F80186898D1739F04F2D6D2FC8011B
:103F40000E94ED1EDF5FF5CFCF5FE6CFDF91CF910F
:103F50001F910F91FF90EF9008950F931F93CF93B0
:103F6000DF93EC01062F18814C89111110C06417E2
:103F700048F41F5F20E0412F602FCE010E94181EE1
:103F80001830B9F7DF91CF911F910F91089550E04C
:103F900070E060E004960E94E63B4C896FEF640F8E
:103FA000CE01DF91CF911F910F910C943A100F9396
:103FB0001F93CF93DF93EC0110E004E020E030E0AA
:103FC000A901612FCE010E94C7131F5F1032A9F70C
:103FD000A39680E1FE0111928A95E9F7DF91CF91D6
:103FE0001F910F9108950F931F93CF93DF93EC01CF
:103FF00010E004E020E030E0A901612FCE010E9432
:10400000C7131F5F1032A9F7A39680E1FE0111923A
:104010008A95E9F7DF91CF911F910F9108954F9203
:104020005F926F927F928F929F92AF92BF92CF9248
:10403000DF92EF92FF920F931F93CF93DF930E9433
:10404000C116EC0180919C038C171D0609F00CF43D
:104050007FC20E94C1167C010E9480038C010E94D5
:10406000930326E02C9FC0012D9F900D1124E09119
:104070009A03F0919B03E80FF91F8081882309F4CC
:1040800067C28581813009F0E0C2C181D281C80157
:104090000E94ED378C012FEFE216F20699F4CE0163
:1040A000DF91CF911F910F91FF90EF90DF90CF9014
:1040B000BF90AF909F908F907F906F905F904F9048
:1040C0000C94D71F3EEFE3163FEFF30641F3E114E4
:1040D000F104F9F48AA980688AAB6FE0CE010E94EE
:1040E000141460E0CE010E946F14B801CE01DF917C
:1040F000CF911F910F91FF90EF90DF90CF90BF90E5
:10410000AF909F908F907F906F905F904F900C94A6
:10411000381481E0E816F10449F48AA98F778AAB54
:104120006FE0CE010E94141461E0DCCF22E0E216C1
:10413000F104B1F5083E33E0130710F007EE13E089
:104140007AE0E72EF12CC801B7010E94413A6B01D9
:10415000482F65E0CE010E942214C601B7010E94DB
:10416000413A482F64E0CE010E942214C80164E65F
:1041700070E00E94413A462F63E0CE01DF91CF917B
:104180001F910F91FF90EF90DF90CF90BF90AF9075
:104190009F908F907F906F905F904F900C9422141F
:1041A00083E0E816F10409F061C06801110FEE0820
:1041B000FF0820EAC21626E8D20621E0E206F10452
:1041C00038F06FE9C62E66E8D62EEE24E394F12C83
:1041D0005AE0852E912CA12CB12CC701B601A50166
:1041E00094010E94E63929013A01462F6AE0CE0186
:1041F0000E942214C301B201A50194010E94E63974
:10420000462F69E0CE010E942214C701B60124E6C0
:1042100030E040E050E00E94E639CA01B901A50152
:1042200094010E94E639462F68E0CE010E942214D4
:10423000C701B60128EE33E040E050E00E94E639C5
:10424000CA01B901A50194010E94E639462F67E031
:10425000CE010E942214C701B60120E137E240E0FE
:1042600050E00E94E639422F66E087CF34E0E31643
:10427000F10409F047C089A998A92FA52E7F9E7F38
:104280008E7F003137E21307B4F5013F38ED130795
:104290003CF017FD07C00115110579F598AB08C072
:1042A00001EF18ED11950195110998AB9BA9892B88
:1042B00089AB2FA74CE06EE0CE010E9422144CE0A7
:1042C0006DE0CE010E942214C80164E670E00E94F5
:1042D000553ACB016AE070E00E94553A482F6CE0F5
:1042E000CE010E942214C80168EE73E00E94553A84
:1042F000462F6BE042CF0FE017E23BA9932B98AB20
:10430000832BD6CF85E0E816F10409F045C0802F55
:1043100099A928A93FA54BA90436E4F50D392CF03D
:1043200007FD04C02E7F242B03C08DE981952E7FCD
:1043300028AB9E7F942B99AB31603FA76AE00E9427
:10434000333A182F492F6CE0CE010E942214412FDE
:104350006BE0CE010E94221488A9817088AB89A9E4
:10436000817089AB6DE0CE010E9414146EE0CE0125
:10437000DF91CF911F910F91FF90EF90DF90CF9041
:10438000BF90AF909F908F907F906F905F904F9075
:104390000C94141483E6C6CF26E0E216F104B9F4B7
:1043A0001BE001111AE0412F60E0CE010E942214AF
:1043B000412F61E0CE010E942214412F62E0CE0124
:1043C0000E9422148CA18E7F8CA36FE0D0CF37E0A7
:1043D000E316F10481F41BE001111AE0412F63E0C0
:1043E000CE010E942214412F64E0CE010E942214CB
:1043F000412F65E0C2CE88E0E816F104D1F41BE05D
:1044000001111AE0412F66E0CE010E942214412FD3
:1044100067E0CE010E942214412F68E0CE010E9485
:104420002214412F69E0CE010E942214412F6AE03C
:10443000A4CE29E0E216F104F9F489A9011115C00E
:104440008E7F89AB1BE0412F6BE0CE010E942214CE
:10445000412F6CE0CE010E942214412F6DE0CE016D
:104460000E942214412F6EE088CE816089AB88A91A
:104470008E7F88AB1AE0E7CF3AE0E316F10451F4FF
:104480008EA18E7F91E0011101C090E0892B8EA357
:1044900063E06DCF8BE0E816F10451F488A58E7FC0
:1044A00091E0011101C090E0892B88A765E05FCF02
:1044B0002CE0E216F10451F48EA58E7F91E00111FB
:1044C00001C090E0892B8EA76BE051CF3DE0E31651
:1044D000F10409F085C08CA58E7F9AA99F7D0111FA
:1044E00048C090629AAB81608CA76FE0CE010E94B9
:1044F000141469E0CE010E9414148AA98F7E8AAB3D
:104500008BA58E7F8BA76FE0CE010E94141468E00C
:10451000CE010E9414148AA984608AAB8AA58160A6
:104520008AA76FE0CE010E94141467E0CE010E94BA
:1045300014148AA9877F8AAB89A58E7F89A76FE02B
:10454000CE010E94141466E0CE010E94141418AE2D
:10455000DF91CF911F910F91FF90EF90DF90CF905F
:10456000BF90AF909F908F907F906F905F904F9093
:1045700008959AAB8CA76FE0CE010E94141469E0F5
:10458000CE010E9414148AA980618AAB8BA5816038
:104590008BA76FE0CE010E94141468E0CE010E9448
:1045A00014148AA98B7F8AAB8AA58E7F8AA76FE0B5
:1045B000CE010E94141467E0CE010E9414148AA94F
:1045C00088608AAB89A5816089A76FE0CE010E94CF
:1045D000141466E0CE010E94141481E088AFB8CFB5
:1045E0008EE0E816F10481F48AA98F7721E030E0AB
:1045F000011102C030E020E03695322F2227379596
:104600002795822B8AABE1CE2FE0E216F104B9F4B4
:1046100061E0011101C060E0CE01DF91CF911F91F7
:104620000F91FF90EF90DF90CF90BF90AF909F9051
:104630008F907F906F905F904F900C946F1430E14B
:10464000E316F10409F084CF50CD823009F080CF19
:10465000C381D481C8010E94ED372FEFE216F20624
:1046600099F4CE01DF91CF911F910F91FF90EF90C0
:10467000DF90CF90BF90AF909F908F907F906F9082
:104680005F904F900C94F31F3EEFE3163FEFF3065D
:1046900041F3E114F10409F05AC08C01003187E2C2
:1046A000180710F00FE017E29AE0E92EF12CC8018C
:1046B000B7010E94413A6B01482F63E0CE010E948E
:1046C0008E14C601B7010E94413A482F62E0CE0124
:1046D0000E948E14C80164E670E00E94413ACB014A
:1046E000B7010E94413A482F61E0CE010E948E142A
:1046F000C80168EE73E00E94413A462F60E0CE01A7
:104700000E948E148CA18F7E8CA361E0CE010E944A
:1047100080148DA18F7E8DA362E0CE010E94801453
:104720008EA180618EA363E0CE01DF91CF911F91B6
:104730000F91FF90EF90DF90CF90BF90AF909F9040
:104740008F907F906F905F904F900C94801421E039
:10475000E216F10409F045C08C018031974210F057
:104760000FE017E28AE0E82EF12CC801B7010E94A1
:10477000413A6B01482F63E0CE010E948E14C601BE
:10478000B7010E94413A482F62E0CE010E948E1488
:10479000C80164E670E00E94413ACB01B7010E9473
:1047A000413A482F61E0CE010E948E14C80168EEA4
:1047B00073E00E94413A462F60E0CE010E948E14C1
:1047C0008CA180618CA361E0CE010E9480148DA138
:1047D00080618DA362E0CE010E9480148EA18F7E45
:1047E000A1CF22E0E216F10409F0B2CE892BF1F05C
:1047F00045E060E0CE010E948E144BE061E0CE0106
:104800000E948E144CE062E0CE010E948E144DE0B6
:1048100063E0CE010E948E148CA18F7E8CA361E098
:10482000CE010E9480148DA18F7ED3CF4DE060E039
:10483000CE010E948E144DE061E0CE010E948E14E4
:104840004DE0E1CFFF920F931F93CF93DF930E9430
:10485000C116EC010E9480038C010E94C116F82E43
:1048600029E02C9FC0012D9F900D1124C091B00311
:10487000D091B103C80FD91F8885882391F162EECA
:1048800072E0C8010E94323801E010E0009709F19F
:104890000E94ED379885992391F0982F9770980191
:1048A00001C0220F9A95EAF7869586958695FE01B6
:1048B000E80FF11D8481FF2049F0282B248362EE4C
:1048C00072E090E080E00E943238E0CF209528230B
:1048D000F5CFCE01DF91CF911F910F91FF900C94F6
:1048E0000E15DF91CF911F910F91FF900895FF92C8
:1048F0000F931F93CF93DF938C01EB01F8800E94FD
:104900009E39F81621F06F2DC8010E94A639CE01FC
:10491000DF91CF911F910F91FF900895AF92BF92B9
:10492000CF92DF92EF92FF920F931F93CF93DF937B
:104930000E9480036C01EC0109900020E9F72197A7
:10494000C81BD90BDD27E090F90AF090FA0AC701DD
:1049500001968C0F9D1F883D954008F053C05E0165
:104960008FEFA81AB80A2BE3E20EF11C95012E0D69
:104970003F1D80917B0F90917C0F8217930778F0F9
:1049800010E000E0B601600F711FC701800F911F9A
:104990000E9477240F5F1F4F0A151B0598F3409163
:1049A000F90A5091FA0AC40FD51FD093FA0AC0939E
:1049B000F90A80913A10811147C085E00E946D1973
:1049C00080913A10882391F060910E1180910B1123
:1049D00090910C110E94AF05AE0170E060E02AE0FA
:1049E00080910B1190910C110E940519DF91CF91CC
:1049F0001F910F91FF90EF90DF90CF90BF90AF90FD
:104A00000C94E71880913A1081111EC085E00E9435
:104A10006D1980913A10882349F360910E118091AD
:104A20000B1190910C110E94AF05C0910B11D09108
:104A30000C116DE2CE010E94AF052AE041E050E08A
:104A400060E070E0CE01D0CFDF91CF911F910F9148
:104A5000FF90EF90DF90CF90BF90AF900895CF93ED
:104A6000DF930E948003FC0190E3ABE0B2E0019091
:104A70000D929A95E1F780917B0F90917C0F892B95
:104A800029F063E290E080E00E94A63980917B0FDC
:104A900090917C0FC09760F0D0E0C0E0BE01655FF0
:104AA0007D4F2196CE010E947724CF32D105B1F7F8
:104AB00080913A1081110BC085E00E946D198BE046
:104AC00092E00E94E91ADF91CF910C94E718DF91F0
:104AD000CF910895CF93DF930E94A30561157105CF
:104AE0008105910511F00E94E43783E5809300026F
:104AF0008EE4809301028DE280930202809306028D
:104B000010920A020E9495372FEF3FE040E050E0FC
:104B10000E94B439E0E0F2E093E0862F8F7020E34A
:104B2000280F2A33D0F5238324E0769567952A95BC
:104B3000E1F7915031969111F0CF0E9495372FEF08
:104B40003FE040E050E00E94B439E0E0F2E093E062
:104B5000862F8F7020E3280F2A3310F5278384E0F7
:104B6000769567958A95E1F7915031969111F0CF3E
:104B700080917B0F90917C0FCB9760F0C0E3D0E0E9
:104B8000BE0160537E4FCE010E9477242196CB3325
:104B9000D105B1F7DF91CF910895885C8383C4CFAD
:104BA000895C8783DCCF0E946A2580913A1081114D
:104BB00009C08AE00E946D1980E092E00E94E91A23
:104BC0000C94E71808950F931F93CF93DF9380E31E
:104BD00090E00E94A4148335B9F581E390E00E942F
:104BE000A4148E3489F580917B0F90917C0FCB9724
:104BF00070F000E012E0C0E3D0E0CE010E949E39E8
:104C0000F80181938F012196CB33D105B1F78AE06A
:104C10000E946D1980913A10882321F08DED93E068
:104C20000E94B6058BE092E00E94E91A80E092E0D3
:104C30000E94E91A84EE92E00E94E91ADF91CF9176
:104C40001F910F910C94E7180E946A2580917B0FA9
:104C500090917C0FCC97D8F260E08BE390E00E94BB
:104C6000A639D5CF2F923F924F925F926F927F924B
:104C70008F929F92AF92BF92CF92DF92EF92FF926C
:104C80000F931F93CF93DF93CDB7DEB7AA970FB6DD
:104C9000F894DEBF0FBECDBF8091F90A9091FA0A59
:104CA000892B11F40C947A2F9BE3E92EF12CFAA2B4
:104CB000E9A21CA21BA2CE0181960E949318082F84
:104CC000882311F40C947A2FF8A2EF8ECE014F9620
:104CD0000E9493189E012F5F3F4F290192E1D90155
:104CE0001D929A95E9F78823C9F0F201E80FF11DAA
:104CF00080818F5F80836AE3CE014F960E94DE142D
:104D0000182FCE014F960E949318882361F111113C
:104D1000ECCF6CE073E085E00E948219FE013796CB
:104D2000FEA3EDA3ABE42A2EA6E43A2EEFEFE00FAC
:104D3000E13108F040C2F0E08827EE55F94D8F4F81
:104D40000C94693A7228D02AB628E128A6298C2A20
:104D5000442BD02AA629B22C592C142DDB28772DD0
:104D6000A629E128F92D1123A1F21A81B5E01B9F94
:104D700070011124C7010E94C30E811169C18AEE1E
:104D800092E00E949C1B1C81E12EF12CEE0CFF1C7A
:104D9000C7010E94C30E882309F468C1C7010E949D
:104DA000871A009719F0DC0111961C929093FC0A67
:104DB0008093FB0A109383031D81F988E12FEF0D87
:104DC000FF27FF1F27E12E9F60012F9FD00C11248A
:104DD000C6010E94C30E882309F44DC1C6010E947A
:104DE000871AFC01892B49F08FEF808381838283AE
:104DF0008383148A8FE0858B168AF093B403E09343
:104E0000B3031F0D10938403E8888E812E2D280F85
:104E10003327331FEA84E20EF32EF11C8EE08E9DC1
:104E200060018F9DD00C1124C6010E94C30E8823FF
:104E300009F426C1C6010E94871A009711F0DC010F
:104E40001C929093050B8093040BE09285031F81C5
:104E5000B7E11B9F70011124C7010E94C30E882374
:104E600009F418C1C7010E94871A0097B9F0209170
:104E7000F40A203308F009C131E0320F3093F40A0C
:104E8000FC01228730E0F901EE0FFF1FE20FF31F54
:104E9000EC59F54F28EB3BE0328321839093B60326
:104EA0008093B503109386031985FB80E12FEF0DE6
:104EB000FF27FF1F2FE12E9F60012F9FD00C112491
:104EC000C6010E94C30E882309F4E9C0C6010E94EE
:104ED000871A009719F0DC0112961C929093A70391
:104EE0008093A6031F0D109387031885B2E11B9FC3
:104EF00070011124C7010E94C30E882309F4D4C095
:104F0000C7010E94871AFC01892B41F0138212828B
:104F10008FE792E09183808311861686F093AF032A
:104F2000E093AE03109388031C85EEE11E9F700191
:104F30001124C7010E94C30E882309F4BAC0C70117
:104F40000E94871AFC01892B61F080E19F012A5F92
:104F50003F4FD9011D928A95E9F7178A168A108E5C
:104F6000158EF0939303E093920310938A031B85AD
:104F7000B9E01B9F70011124C7010E94C30E882352
:104F800009F49CC0C7010E94871A009711F0FC0128
:104F900010869093B1038093B00310938B031D850B
:104FA000FBE01F9F70011124C7010E94C30E8823DC
:104FB00009F489C0C7010E94871A009741F0DC01FB
:104FC00016961C92FC011782108611861286909309
:104FD000AA038093A90310938D031F85F6E01F9FFA
:104FE00070011124C7010E94C30E882309F470C008
:104FF000C7010E94871AFC01892B59F01092A30364
:105000001092A20380E493E091838083138215823F
:105010001482F0939E03E0939D0310938E031A89EC
:1050200026E0129F70011124C7010E94C30E88233D
:1050300009F453C0C7010E94871A009711F0DC01E0
:105040001C9290939B0380939A0310938F0366CED8
:10505000C7010E94871A009711F0FC0114829093F7
:10506000960380939503109382038DCE81EF92E097
:105070000E949C1BA1CE88EF92E00E949C1BC4CE94
:1050800081E093E00E949C1BE2CE2FEFDC011A9698
:105090002C9304CF89E093E00E949C1B05CF8FE006
:1050A00093E00E949C1B21CF88E193E00E949C1B0F
:1050B0003BCF8CE193E00E949C1B59CF85E293E0AB
:1050C0000E949C1B6CCF83E393E00E949C1B85CFC6
:1050D00089E493E00E949C1BA2CF82E593E00E94AA
:1050E0009C1B1CCECE0181960E949318F0909703D2
:1050F00090918203F91689F12BA13CA100919503AF
:1051000010919603F5E0FF9E000D111D1124D801AA
:1051100014961C92149712968C9312972058344F21
:105120002D933C9362E00E946B04F80182810E94FF
:10513000140421E0892B09F420E0D80113962C9364
:10514000139781E014968C938BE49BE190939903E1
:1051500080939803F394F0929703BE016D5D7F4FA7
:10516000CE0181960E94AF14182F4DC5CE018196B5
:105170000E949318F090FD0A90918303F916D9F0DC
:105180000F2D10E0000F111F2091FB0A3091FC0A37
:10519000020F131FF8011182808361E00E946B04EB
:1051A000D80111966C91119770E08C910E94A70420
:1051B000F394F092FD0A6AE3CE0181960E94DE1418
:1051C000D3CFB12C003129F4CE0181960E949318DF
:1051D000B82ECE0181960E949318982ECE0181960A
:1051E0000E949318782ECE0181960E949318A82EC3
:1051F000CE0181960E949318882ECE0181960E943E
:105200009318082FF090B20380918403F81699F256
:105210001B2DC090B303D090B403B7E1FB9EC00C2C
:10522000D11C1124F601148A8FE0858B168AB08276
:105230009182A2827382B11045C0802F093008F09C
:1052400088E0D60154968C9361E0892D0E946B040E
:1052500061E0F60182810E946B0461E0D601139641
:105260008C910E946B0461E0F60183810E943D04F1
:10527000D60154968C91181708F04CC020E04FE0EE
:10528000612FC6010E94181EF6018081811109C09C
:105290008489181730F427E04BE0612FC6010E9483
:1052A000181E20E049E0612FC6010E94181E612FE0
:1052B000C6010E94AD1F41E0612FC6010E94ED1E94
:1052C0001F5FD6CFFDEF84E0BF1286E0D601549673
:1052D0008C9362E08A2D0E946B0462E0F60181816A
:1052E0000E946B0460E0D60112968C910E943D04EE
:1052F00060E0F60181810E943D0460E0C6010E94E9
:10530000AD1F8FE0D60155968C9341E060E0C60159
:105310000E94ED1EF601068B10E0D60156968C9188
:10532000181780F4482D612FC6010E941C1F40E011
:10533000612FC6010E94ED1E612FC6010E94AD1FA4
:105340001F5FEBCFF394F092B20335CFCE0181967D
:105350000E949318F82ECE0181960E949318D82EA1
:10536000CE0181960E949318E82ECE0181960E946C
:105370009318A82E093021F010E00F3009F047C033
:10538000CE0181960E949318182F0F3009F03FC06C
:10539000CE0181960E949318082FCE0181960E941B
:1053A0009318B82ECE0181960E949318C82E809132
:1053B000060B90918503891709F4FDCE6090040BCC
:1053C0007090050BBEE08B9F600C711C1124F301E3
:1053D000108284E490E00E94C30E81111CC06BE235
:1053E00073E085E00E9482190091060B112359F0A9
:1053F0008091040B9091050BBEE00B9F800D911DD9
:1054000011240E94CF0E0F5F0093060BD4CEC12C47
:10541000B12C00E0CCCF013009F463C0023009F4B4
:105420006DC00111E1CF84E490E0FE104AC0DA10B3
:1054300048C00E94871A4C01892B49F0E5E0EE2E06
:1054400004E02D2D4F2D61E0C4010E94B51CD30155
:1054500013969C928E92129740E050E068EC73E4B1
:10546000D30112968D919C910E941C0E40E050E059
:1054700068E474E4F301828193810E94321CD301B9
:1054800014961C93149781E015968C93112321F0A8
:1054900062E0812F0E946B04F301B28681E0C110AB
:1054A00001C080E0D3011B968C931B9781E08C9305
:1054B00011961C9211971D968C931D971C968C9398
:1054C00093CF0E94871A4C01892B39F00F2D2D2D77
:1054D0004A2D64E0C4010E94B51CF30193828282CC
:1054E000BBCF84E490E00E94871A4C01892B09F419
:1054F000AECF0F2D2D2D4A2D68E0A6CF84E490E08D
:105500000E94871A4C01892B41F375E0E72E04E0D5
:105510002D2D4F2D61E0DECFCE0181960E94931894
:105520009091B70320918603921709F444CE2091FD
:10553000F40A203398F531E0320F3093F40A422F09
:1055400050E0FA01EE0FFF1FE40FF51FEC59F54F85
:1055500048EB5BE052834183E091B503F091B603E1
:1055600037E1939FE00DF11D1124228711861586E6
:1055700016861786108A118A128A138A148A128252
:10558000118224EB30E03483238316821582308726
:10559000278380839F5F9093B7030DCE2FEFDCCFDF
:1055A000CE0181960E949318D82ECE0181960E943A
:1055B0009318C82E80E0083021F4CE0181960E9415
:1055C0009318F090A80390918703F91609F4C5CDBC
:1055D0002BA13CA10091A6031091A7034FE1F49EDB
:1055E000000D111D1124D80112961C9212971696C7
:1055F0001C921E9215972058344F14963C932E936C
:105600001397DC921196CC92119795E0989FF00138
:105610001124EE59FD4F199601900D929A95E1F7DC
:1056200062E08D2D0E946B0462E0F80181810E948E
:105630006B04D8011E961C921E9750961C921E92C7
:105640001F9752961C921E92519718961C9218976B
:10565000F801178A108E118E128E24EF31E040E08F
:1056600050E053962D933D934D935C93569781E074
:1056700012968C938FE19BE19093A5038093A403F2
:10568000F394F092A80369CDCE0181960E949318FD
:10569000082FCE0181960E949318182FCE01819673
:1056A0000E9493189091890320918803921709F41E
:1056B00082CDC090AE03D090AF03B2E19B9FC00CEF
:1056C000D11C1124F60113821282158216821782D0
:1056D000108611860787108B818B91E09687048353
:1056E000128783871486158610921B0A10921A0A55
:1056F00010925D0B10927F0B0E94FB072DE239E0A8
:1057000030933E0A20933D0A4EE259E05093420AFC
:105710004093410AD60115961C9215971B968C91C1
:105720001B97823018F098E015969C93F6019485AB
:10573000992329F0813019F48581846085830E9442
:105740007E056FA378A789A79AA742E3842E912CA0
:10575000A12CB12C0E947E052FA138A549A55AA5E0
:10576000621B730B840B950B683E7340810591059A
:1057700088F3F1E08F1A9108A108B1082FA138A58C
:1057800049A55AA528513C4F4F4F5F4F2FA338A72B
:1057900049A75AA781149104A104B104D9F6D601EE
:1057A0001D966C91C6010E943B0A60E3C6010E94EF
:1057B0003B0AC1010197F1F760E3C6010E943B0A71
:1057C000C1010197F1F760E3C6010E943B0A83E53E
:1057D00092E00197F1F760E2C6010E943B0AF601F0
:1057E0006581606240E0C6010E94C50984E0D6017F
:1057F00016968C9340E06CE0C6010E94C509C60174
:105800000E941D0A82E0F601878340E066E0C6013F
:105810000E94C50940E062E0C6010E94C5098BE311
:105820009FE10197F1F788E0D6011D968C931D97B3
:1058300014968C9191E090935C0B80937E0B109268
:105840005D0B10927F0B68E088E69FE00E9486095E
:105850000E942A098CE08093B800F601868588238F
:1058600001F1C6010E941D0AD60151961C91133008
:10587000F0F016951150412F6FE573E0C6010E94BC
:10588000C01BF6018189823038F041E0410F6AE6A1
:1058900073E0C6010E94C01B40E060E0C6010E94A8
:1058A000EE09809189038F5F8093890384CC10E097
:1058B000E2CFCE0181960E949318D82ECE01819618
:1058C0000E949318F090940390918A03F91609F4BA
:1058D00044CC2BA13CA190E1ADA1BEA11D929A9513
:1058E000E9F7188E1F8A198E1E8E9EE10091920391
:1058F00010919303F99E000D111D1124F201D8019E
:1059000001900D929A95E1F7F8018583D282205893
:10591000344F3183208362E08D2D0E946B0438E088
:10592000D32ED8015D968C91882319F0C8010E946E
:10593000E612DA94D110F5CFF8018689978923E031
:10594000969587952A95E1F79483838381E0858FE7
:105950002EE53BE13093910320939003F394F09272
:105960009403FBCBCE0181960E949318082FCE01A1
:1059700081960E949318B82ECE0181960E949318AA
:10598000F82ECE0181960E94931810918C0390916D
:105990008B03191709F40FCCC090B003D090B1035A
:1059A00039E0139FC00CD11C112491E0D601189648
:1059B0009C9318970C931196BC9211971296FC9297
:1059C000129713968C9361E0802F0E946B0461E024
:1059D000F60181810E946B0461E0D60112968C91E0
:1059E0000E946B04F60193815601F4E0AF0EB11CE6
:1059F000F50180E0981719F011928F5FFBCFC60177
:105A00000E940E15D60113969C9180E0981729F0FC
:105A1000F50111925F018F5FF9CFC6010E940E154B
:105A20001F5F10938C03C7CBCE0181960E94931801
:105A3000F82ECE0181960E949318C82ECE01819631
:105A40000E949318D82ECE0181960E9493184091FF
:105A5000AB0390918D03491709F47FCB2BA13CA197
:105A6000188619861A861B869BE00091A90310915F
:105A7000AA03499F000D111D11241F82F201D801B4
:105A800001900D929A95E1F7D8011296FC92129727
:105A90001396CC9213971496DC9214972058344F97
:105AA00011963C932E9315968C9361E08F2D0E9456
:105AB0006B0461E0F80183810E946B0460E0D8010F
:105AC00014968C910E946B0481E0F801868360E05B
:105AD000C8010E944E1526E03BE13093AD032093B0
