:100000000C9434020C9465020C9465020C94650205
:100010000C9465020C9465020C9465020C946502C4
:100020000C9465020C9465020C9465020C946502B4
:100030000C9465020C9465020C9465020C946502A4
:100040000C9465020C94AA210C9465020C94650230
:100050000C9465020C9465020C9465020C94441F88
:100060000C9465020C94B81F0C948E1F0C946502BE
:100070000C9465020C9465020C9465020C94650264
:100080000C947C210C9465020C9465020C9465021E
:100090000C9465020C9465020C9465020C94FC1F90
:1000A0000C9465020C9465020C944E210C9465022C
:1000B0000C9465020C9465020C9465020C9420214A
:1000C0000C9465020C9465020C9465020C94650214
:1000D0000C9465020C9465020C9465020C94650204
:1000E0000C9465020C94C4080C940D1A0C9486119F
:1000F0000C94B3090C9420040C94A0150C94B10931
:100100000C9413040C948A090C9445030C94370343
:100110000C9411100C94931A0C9458040C94B81A63
:100120000C94C0070C94BE070C94350B0C94B509C5
:100130000C946C040C9410030C9446040C94561A02
:100140000C94BD090C944A1E0C9438090C94BB09FC
:100150000C94430B0C943C0B0C94F6120C94E0178B
:100160000C9462040C940A030C9434040C943B1118
:100170000C946C090C947B040C9414030C94AF093C
:100180000C94580B0C9413100C94EF1E0C941F033A
:100190000C94680A0C94E11D0C942B050C94BF0779
:1001A0000C944E040C948F040C94890A0C94E81A55
:1001B0000C940F0B0C94EA070C9464060C94C2196F
:1001C0000C94D8210C94AD040C9444150C942A047E
:1001D0000C94A3040C946E180C944A0B0C943303E7
:1001E0000C942F030C94BB0A0C9499040C940B1ED2
:1001F0000C943D030C944B030C941C030C941414AA
:100200000C94DC080C94260B0C94B7090C94D007C2
:100210000C9417080C941E0E0C94C6050C94510BEC
:100220000C94670F0C9441030C948C050C943818B3
:100230000C94D6130C948A120C9485040C945805D3
:100240000C942E0B0C941B040C943E040C94A71CD1
:100250000C94DC0F0C9429030C94E3070C944A03D0
:100260000C9467050C94261D0C94C1070C94501C2B
:100270000C9433140C9429100C9418030C94A112B0
:100280000C94130A0C9413060C9488130C94340ADF
:100290000C9425030C947E050C94AF130C94350933
:1002A0000C944F030C94E31E0C94D10A0C94B909DE
:1002B0000C945711200020004F4B004F4B004F4B28
:1002C000006E2F61007E306D79335B5F707F7B77CE
:1002D0001F0D3D4F4700000000000000000000001F
:1002E000000000000000000000000000000000000E
:1002F00000800180257E306D79335B5F707F7B00ED
:10030000000009000000777F4E7E4F475F37307C4A
:10031000000E00767E677E775B463E000000336D00
:100320004E13780008007D1F0D3D4F477B37303856
:10033000000600151D6773055B0F1C000000276D8C
:100340004E0078000000002100240027002A002D24
:10035000003000330001010000040107010A010020
:10036000002200250028002B002E0031003400025E
:10037000010000050108010B0100002000230026F8
:100380000029002C002F00320000010000030106AC
:10039000010901050505050705080808080202020C
:1003A000020A0A0808040404040101010101010110
:1003B000010303030303030303040707070C0C0CE7
:1003C0000C0C0C0C0C0202020206060606060606BF
:1003D000060B0B0B0B0B0B0B0B010210202008085C
:1003E0001020401020408002010201080402010197
:1003F0000204081020408080402010080402018080
:1004000004020180402010080402010804020101D6
:1004100002040810204080010204081020408000DF
:10042000000A0B02090C0D0E08070304010000006E
:1004300000000000000000000000000000000000BC
:100440000000000000000000000000121110000079
:10045000000000000000000000000000000000009C
:10046000000000000000D82111241FBECFEFD1E210
:10047000DEBFCDBF00E00CBF13E0A0E0B2E0E4E0DF
:10048000F4E600E00BBF02C007900D92A032B10766
:10049000D9F723E1A0E2B3E001C01D92A53DB20768
:1004A000E1F712E0C4E3D2E000E006C021970109C1
:1004B000802FFE010E947F2CC333D10780E0080704
:1004C000A9F70E94FF220C9400320C940000AC01AA
:1004D0001092C0129091901380918F13FA01BF0176
:1004E000641B750B2091C01230813093C01293139E
:1004F00004C0921302C01092C0123081311104C0A6
:10050000921721F0CB0108953817D1F33196E7CF38
:100510000F931F93CF93DF9380918413882309F463
:1005200046C0D0E0C0E0813029F482E0809384139B
:10053000C4ECD2E180918513882341F1209721F406
:10054000C0918913D0918A138E01CE010E94670257
:10055000892B29F42196F80180818111F5CFF801CA
:100560008081882309F1C8010E946702F801E80F21
:10057000F91F8081882311F010823196F0938A133D
:10058000E093891310938813009387138091871346
:1005900090918813892B59F081E080938513DF9126
:1005A000CF911F910F91089510E000E0EBCF80E014
:1005B000F6CF0E948802882351F081E08093851352
:1005C00080938613809187139091881308951092D9
:1005D000861390E080E008958150823108F05AC07F
:1005E000E82FF0E08827E850FD4F8F4F0C947F2CC8
:1005F00018031C030A03100314034A031F032503F3
:1006000029032F03330337033D0341034A03450303
:100610004B034F03809180008F7780938000089573
:10062000809180008F7DF9CF80918000877FF5CF0A
:1006300084B58F7784BD089584B58F7DFBCF80917D
:10064000B0008F778093B00008958091B0008F7DC7
:10065000F9CF809190008F778093900008958091DA
:1006600090008F7DF9CF80919000877FF5CF8091AA
:10067000A0008F778093A00008958091A0008F7DC7
:10068000F9CF8091A000877FF5CF809120018F77EF
:10069000809320010895809120018F7DF9CF809172
:1006A0002001877FF5CFCF93DF93282F30E0F9012A
:1006B000E15EFB4F8491F901E752FC4FD491F901BF
:1006C000ED56FC4FC491CC23A1F081110E94EC02A5
:1006D000EC2FF0E0EE0FFF1FE758FC4FA591B4910F
:1006E000EC91ED2381E090E009F480E0DF91CF917F
:1006F000089580E090E0FACF1F93CF93DF93282FE7
:1007000030E0F901E15EFB4F8491F901E752FC4FC3
:10071000D491F901ED56FC4FC491CC23A9F0162FCA
:1007200081110E94EC02EC2FF0E0EE0FFF1FE15A66
:10073000FC4FA591B4918FB7F894EC91111108C0BA
:10074000D095DE23DC938FBFDF91CF911F91089569
:10075000DE2BF8CFCF93DF9390E0FC01E752FC4F04
:1007600024918D569C4FFC0184918823D1F090E018
:10077000880F991FFC01EB5BFC4FA591B491FC0124
:10078000E15AFC4FC591D491623071F49FB7F8944F
:100790003C91822F809583238C93E8812E2B288394
:1007A0009FBFDF91CF9108958FB7F894EC912E2BD6
:1007B0002C938FBFF6CF1F93CF93DF93182FEB01AE
:1007C00061E00E94AA03209739F460E0812FDF9155
:1007D000CF911F910C947C03CF3FD10511F461E0C0
:1007E000F5CFE12FF0E0E15EFB4FE491E150E23123
:1007F00008F0B3C0F0E08827EF5FFB4F8F4F0C94F9
:100800007F2C13041B0420042A043404AD043E048A
:1008100046044E04580462046C047B048504AD0451
:100820008F049904A30484B5806884BDC7BDDF919B
:10083000CF911F91089584B5806284BDC8BDF7CF64
:1008400080918000806880938000D0938900C0935D
:100850008800EDCF80918000806280938000D093EB
:100860008B00C0938A00E3CF8091800088608093E2
:100870008000D0938D00C0938C00D9CF8091B000C0
:1008800080688093B000C093B300D1CF8091B00056
:1008900080628093B000C093B400C9CF8091900073
:1008A000806880939000D0939900C0939800BFCF48
:1008B00080919000806280939000D0939B00C093C1
:1008C0009A00B5CF80919000886080939000D0937B
:1008D0009D00C0939C00ABCF8091A0008068809366
:1008E000A0008091A0008F7B8093A000D093A900EE
:1008F000C093A8009CCF8091A00080628093A0004C
:10090000D093AB00C093AA0092CF8091A0008860E2
:100910008093A000D093AD00C093AC0088CF8091AD
:100920002001806880932001D0932901C093280181
:100930007ECF80912001806280932001D0932B0193
:10094000C0932A0174CF8091200188608093200198
:10095000D0932D01C0932C016ACFC038D1050CF083
:100960003ECF33CF863308F0865320917B00982FFB
:100970009870277F922B90937B0087708064809380
:100980007C0080917A00806480937A0080917A0064
:1009900086FDFCCF809178009091790008953FB753
:1009A000F8948091F1099091F209A091F309B09126
:1009B000F40926B5A89B05C02F3F19F00196A11D8B
:1009C000B11D3FBFBA2FA92F982F8827BC01CD0199
:1009D000620F711D811D911D42E0660F771F881FF8
:1009E000991F4A95D1F708952FB7F8946091ED09B2
:1009F0007091EE098091EF099091F0092FBF089551
:100A0000DC01ED91FC910190F081E02D1994EF92C1
:100A1000FF920F931F93CF93DF938C017B01D0E064
:100A2000C0E0F701EC0FFD1F6491662361F0D8016F
:100A3000ED91FC910190F081E02DC8011995892B71
:100A400011F02196EECFCE01DF91CF911F910F9142
:100A5000FF90EF900895AF92BF92CF92DF92EF9206
:100A6000FF920F931F93CF93DF936C017B018B0158
:100A7000040F151FEB015E01AE18BF08C017D107A8
:100A800059F06991D601ED91FC910190F081E02D32
:100A9000C6011995892B79F7C501DF91CF911F9177
:100AA0000F91FF90EF90DF90CF90BF90AF9008959F
:100AB000FC01538D448D252F30E0842F90E0821B64
:100AC000930B541710F0CF96089501970895FC01E9
:100AD000918D828D981779F0A28DAE0FBF2FB11D29
:100AE0005D962C91828D8F5F60E60E945F2C928FC5
:100AF000822F90E008958FEF9FEF0895FC01918D74
:100B0000828D981731F0828DE80FF11D858D90E070
:100B100008958FEF9FEF0895FC01918D228D892F0D
:100B200090E0805A9F4F821B910960E670E00E941E
:100B30006B2C08958EEF91E10E948C0521E0892BAA
:100B400009F420E0822F0895FC01A48DA80FB92F8D
:100B5000B11DA358BF4F2C91848D90E001968F73E7
:100B60009927848FA689B7892C93A089B1898C9104
:100B7000837080648C93938D848D981306C0028853
:100B8000F389E02D80818F7D80830895EF92FF921D
:100B90000F931F93CF93DF93EC0181E0888F9B8DA0
:100BA0008C8D98131AC0E889F989808185FF15C05A
:100BB0009FB7F894EE89FF896083E889F98980817D
:100BC0008370806480839FBF81E090E0DF91CF914C
:100BD0001F910F91FF90EF900895F62E0B8D10E06E
:100BE0000F5F1F4F0F731127E02E8C8D8E110CC0DD
:100BF0000FB607FCFACFE889F989808185FFF5CF28
:100C0000CE010E94A405F1CFEB8DEC0FFD2FF11D5D
:100C1000E358FF4FF0829FB7F8940B8FEA89FB8966
:100C200080818062CFCFCF93DF93EC01888D8823C2
:100C3000B9F0AA89BB89E889F9898C9185FD03C03F
:100C4000808186FD0DC00FB607FCF7CF8C9185FF24
:100C5000F2CF808185FFEDCFCE010E94A405E9CFC0
:100C6000DF91CF91089580E090E0892B29F00E94D8
:100C70009A0581110E94000080E090E0892B49F0E4
:100C800080E090E0892B29F00E94000081110E94F1
:100C9000000080E090E0892B49F080E090E0892B13
:100CA00029F00E94000081110E94000080E090E085
:100CB000892B49F080E090E0892B29F00E94000008
:100CC00081110C9400000895089520918E09260F3B
:100CD0003327331F21323105ECF420911B0AFC012C
:100CE00090E080E0243069F082E00895A0918E09C0
:100CF0002191AC014459564FA40FB52FB11D2C932F
:100D00000196861798F380918E09680F60938E097B
:100D100080E0089581E0089510921B0A81E080939D
:100D20001A0A1092F50961E084E10E947C0361E0F7
:100D300085E10E947C03E9EBF0E080818E7F808377
:100D400080818D7F808388E48093B80085E48093E0
:100D5000BC000895CF93DF9391E090936B098823B3
:100D6000B9F0C091B800D091BA008091BC008A7BE4
:100D70008093BC0060E084E10E947C0360E085E138
:100D80000E947C030E948C06D093BA00C093B800E6
:100D9000DF91CF9108958F929F92AF92BF92CF92A1
:100DA000DF92EF92FF920F931F93CF93DF93D09137
:100DB000440AD13208F0D7C0182FC091430A0E94CC
:100DC000CF046B017C0180911B0A81116BC082E012
:100DD00080931B0A10931A0A8FEF8093190A1092BE
:100DE000180AD093170AA3E2BAE0E7EFF9E080E02F
:100DF000D81391C01092F6098091F609CC0FC82B38
:100E0000C093F6098091F509813009F088C01092ED
:100E1000F5090E94CF046B017C018091F609809353
:100E2000BB0080911D0A90911E0AA0911F0AB091EB
:100E3000200A892B8A2B8B2BA1F00E94CF040091D2
:100E40001D0A10911E0A20911F0A3091200A6C1968
:100E50007D098E099F09061717072807390708F427
:100E600042C08091BC0083FDD8CF85EC8093BC004C
:100E70000E94CF046B017C0180911B0A823009F42F
:100E800050C08091190A8F3F09F46FC08091190AF0
:100E9000803209F46CC08091190A803309F469C06A
:100EA00084E026C080911D0A90911E0AA0911F0A1D
:100EB000B091200A892B8A2B8B2B09F484CF0E94B6
:100EC000CF0480901D0A90901E0AA0901F0AB09037
:100ED000200A6C197D098E099F0986169706A806B7
:100EE000B90608F070CF80911C0A0E94AA0685E01E
:100EF0001092220A1092440A1092210ADF91CF9197
:100F00001F910F91FF90EF90DF90CF90BF90AF9027
:100F10009F908F9008959D9191938F5F69CF85EEFB
:100F2000A5CF80911D0A90911E0AA0911F0AB09131
:100F3000200A892B8A2B8B2B09F49ECF0E94CF0489
:100F400000911D0A10911E0A20911F0A3091200A5B
:100F50006C197D098E099F0906171707280739079D
:100F600008F08ACFC0CF81E0C3CF80E0C1CF82E05C
:100F7000BFCF83E0BDCF81E00C94CB0608950895E8
:100F80000895E0916A0980916909E81730F4F0E06A
:100F9000E75BF64F808190E008958FEF9FEF089513
:100FA00090916A09809169092FEF3FEF981748F4F3
:100FB000E92FF0E0E75BF64F208130E09F5F9093F0
:100FC0006A09C90108958091690990916A09891B8C
:100FD000990B0895CF92DF92EF92FF920F931F9398
:100FE000CF93DF937C01CB018A012091210A222338
:100FF00089F0EB016B01C40ED51ECC15DD0569F03F
:101000006991D701ED91FC910190F081E02DC7012C
:101010001995F3CF642F0E946506C801DF91CF9127
:101020001F910F91FF90EF90DF90CF900895CF9395
:10103000DF931F92CDB7DEB769832091210A222367
:10104000F9F02091440A203258F021E030E0FC0110
:101050003383228390E080E00F90DF91CF91089559
:101060008091220AE82FF0E0ED5DF54F99819083A1
:101070008F5F8093220A8093440A81E090E0ECCF56
:1010800061E0CE0101960E946506F7CFCF93C82F8D
:10109000682F646085E49AE00E9417086C2F70E066
:1010A0006B7F85E49AE0CF910C9417080F931F9300
:1010B000CF93DF938C01C62FD42FFC01848191E064
:1010C0009093210A8093430A1092220A1092440AB4
:1010D000862F807F842B9585892B0E944608F0E11E
:1010E000CF9FC0011124F8019585892B8D2B0E947B
:1010F0004608DF91CF911F910F910C94BB07CF93BE
:10110000DF9300D000D01F921F92CDB7DEB728E04A
:10111000E5E4F2E0DE01119601900D922A95E1F7E7
:10112000FC012385261710F46FEF620F70E0660F45
:10113000771F21E030E02C0F3D1F620F731FFB0172
:101140006081606840E028960FB6F894DEBF0FBE5D
:10115000CDBFDF91CF910C945608CF93DF93EC0174
:1011600040E061E00E9456088BE39FE10197F1F7B0
:101170008985882331F060E0CE01DF91CF910C9416
:101180007F08DF91CF91089541E00E94560881E0E9
:1011900090E00895FC01248131E03093210A2093EE
:1011A000430A1092220A1092440A607F8585862B9A
:1011B0000E9446080C94BB07AF92BF92CF92DF9279
:1011C000EF92FF920F931F93CF93DF936C01FC017B
:1011D000848191E09093210A8093430A1092220A1D
:1011E0001092440AEB01042F10E05B01A00EB11E27
:1011F000F12CEE24E394CA15DB0541F18991F60147
:1012000095859160807F892B0E944608FE01319769
:101210002081F0E12F0290011124F6018585816083
:10122000822B0E944608F394F7E0FF1520F780E038
:101230000E94CB06F6018481E092210A8093430A42
:101240001092220A1092440AF12CD5CF0E94BB07BB
:10125000C8010197DF91CF911F910F91FF90EF90FF
:10126000DF90CF90BF90AF90089590E080E0089518
:10127000CF93DF93FC012381222359F1EC0161E03C
:1012800084810E94AA0361E08D810E94AA038B8160
:10129000843011F08830B1F461E08E810E94AA039D
:1012A00061E08F810E94AA038FA58F3F91F061E0DA
:1012B0000E94AA036EA581E068278FA5DF91CF91D8
:1012C0000C947C03833011F0863071F761E08E81DD
:1012D000E9CFDF91CF910895CF93DF93FC01238174
:1012E0002223A9F0EC010190F081E02D0480F5812A
:1012F000E02D60E019958FA58F3F49F061E00E94D5
:10130000AA036EA58FA5DF91CF910C947C03DF918A
:10131000CF910895DC01ED91FC91119724813581E5
:101320004770552766277727415051096109710990
:10133000473051056105710570F4FA018827EC55B5
:10134000F64F8F4F0C947F2CAF09B109B309B50943
:10135000B709B909BB0961E0CD01F901199465E04C
:10136000FBCF64E0F9CF66E0F7CF62E0F5CF6AE04B
:10137000F3CF68E0F1CF69E0EFCFCF93DF93EC01DB
:10138000CB01BA0126E030E040E050E00E94EC2BB7
:10139000623071058105910589F16CF46115710563
:1013A00081059105D1F06130710581059105F9F054
:1013B000DF91CF910895643071058105910561F148
:1013C00024F1653071058105910591F7E881F98176
:1013D0000480F581E02D66E006C0E881F981048093
:1013E000F581E02D64E0CE01DF91CF911994E88181
:1013F000F9810480F581E02D65E0F5CFE881F98180
:101400000480F581E02D61E0EECFE881F981048070
:10141000F581E02D63E0E7CFE881F9810480F58173
:10142000E02D62E0E0CFDC01ED91FC910480F581DC
:10143000E02D437055276627772742305105610517
:10144000710571F0433051056105710559F0413066
:1014500051056105710511F065E0199466E0FDCF55
:101460006AE0FBCF69E0F9CFCF93DF93EC01CB01CA
:10147000BA0123E030E040E050E00E94EC2B613004
:1014800071058105910599F062307105810591051D
:10149000A9F0672B682B692BC1F4E881F9810480DE
:1014A000F581E02D64E0CE01DF91CF911994E881C0
:1014B000F9810480F581E02D61E0F5CFE881F981C3
:1014C0000480F581E02D62E0EECFDF91CF910895A9
:1014D000DC01ED91FC910480F581E02D43705527EE
:1014E00066277727423051056105710571F0433059
:1014F00051056105710559F04130510561057105CE
:1015000011F062E0199463E0FDCF61E0FBCF60E091
:10151000F9CFCF93DF93EC01E881F9810480F58165
:10152000E02D8A8160E0811162E0CE011995E881A9
:10153000F9810480F581E02D8A8161E0811163E009
:10154000CE0119958CA59DA58230910538F0880FA4
:10155000991F880F991F05970197F1F7E881F98185
:101560000480F581E02D8A8160E0811162E0CE0186
:10157000DF91CF911994CF93DF93EC0120E030E01D
:10158000A9016C897D898E899F890E949C2D1816DE
:101590002CF4E8A9F9A9DF91CF911994EAA9FBA944
:1015A000FACFCF92DF92EF92FF920F931F93CF93D8
:1015B000DF93DC011396CC91C43039F0C83059F177
:1015C000C33019F0C63049F1C2E08C010C5F1F4FE7
:1015D000F12CE12CC62ED12CD1E0F8016481C6019A
:1015E0000E2C02C0959587950A94E2F780FD6D2731
:1015F0000F5F1F4F80810E947C03BFEFEB1AFB0A35
:10160000EC1658F3DF91CF911F910F91FF90EF905F
:10161000DF90CF900895C4E0D8CFC3E0D6CFDC01EF
:101620001396EC911397E93008F042C0F0E0882758
:10163000E35EF44F8F4F0C947F2C260B2E0B350B53
:101640003C0B430B580B4A0B580B510BED91FC9183
:1016500011970084F185E02DCD011994ED91FC9155
:1016600011970284F385E02DF7CFED91FC9111974E
:101670000484F585E02DF0CFED91FC91119706845F
:10168000F785E02DE9CFED91FC9111970088F18964
:10169000E02DE2CFED91FC9111970288F389E02DC6
:1016A000DBCFED91FC9111970488F589E02DD4CF23
:1016B00008954F925F926F927F928F929F92AF9216
:1016C000BF92CF92DF92EF92FF920F931F93CF932F
:1016D000DF93EC01C888D988EA88FB888C859D85D2
:1016E000AE85BF85C81AD90AEA0AFB0A6C897D89CA
:1016F0008E899F899B01AC010E94182B4B015C01D4
:101700006C8D7D8D8E8D9F8D9B01AC010E94882CF0
:101710009B01AC01C501B4010E94F42C0E94662D0E
:10172000C114D104E104F10409F0B1C062307105C3
:10173000810591050CF0CBC01CA21DA21EA21FA208
:101740001C8A1D8A1E8A1F8A1CAA1DAA1EAA1FAADD
:10175000DF91CF911F910F91FF90EF90DF90CF908D
:10176000BF90AF909F908F907F906F905F904F90C1
:1017700008951016110612061306B4F46C157D05B3
:101780008E059F051CF42A812111A1C09B01AC018B
:1017900088279927DC01821B930BA40BB50B8CAB1C
:1017A0009DABAEABBFAB93C0011511052105310553
:1017B00009F48DC06C157D058E059F050CF087C062
:1017C0008A81882309F483C030952095109501956E
:1017D0001F4F2F4F3F4F0CAB1DAB2EAB3FAB77C016
:1017E000011511052105310509F471C088249924DA
:1017F00054018C189D08AE08BF08681579058A0544
:101800009B050CF064C08A81811161C0DDCFCCAC36
:10181000DDACEEACFFACA7019601C701B6010E949A
:10182000882C2B013C01C501B4010E94B92A20E09B
:1018300030E040E850E40E94182B20E030E040E81F
:101840005FE30E94882C9B01AC01C301B2010E949E
:10185000F42C9B01AC01C701B6010E94872C3B010F
:101860006C01FE01E05CFF4FE080F180028113819A
:101870009701A8010E949C2D181614F4730186018B
:10188000C701D8018CAF9DAFAEAFBFAF3AC00CA9B6
:101890001DA92EA93FA91C141D041E041F040CF42D
:1018A00068CF10161106120613060CF099CF002708
:1018B000112798010C191D092E093F09601771079E
:1018C000820793070CF062CF2A8121115FCF8CA889
:1018D0009DA8AEA8BFA881149104A104B10409F089
:1018E00096CF88AD99ADAAADBBAD8CAF9DAFAEAF75
:1018F000BFAF81E01C141D041E041F040CF080E027
:101900008A833FEF831A930AA30AB30A8CAA9DAA7B
:10191000AEAABFAACCACDDACEEACFFACC701B60141
:101920000E946D2D6CA37DA38EA39FA3A70196019A
:1019300060E074E284E799E40E94F42C6C8B7D8B68
:101940008E8B9F8B2A81211103CF90586C8B7D8BBE
:101950008E8B9F8BFDCEAF92BF92CF92DF92EF9294
:10196000FF920F931F93CF93DF936B017A01EC01EA
:10197000CB5BD64F28813CE0389F8001399F100D0A
:101980001124A090E10AB12C27FF1FC0FB01118296
:10199000108288818F5F888388819801280F311D8C
:1019A00087FD3A95F6012A153B051CF488818C3099
:1019B000C4F180819181049680349C4908F473C0FD
:1019C000F60180819181049670C088819801280F6A
:1019D000311D87FD3A952A153B05DCF68881A80163
:1019E000480F511D87FD5A95FA01EE0FFF1FE40FB6
:1019F000F51FEF5AF54F808186FFCBCF8881F80124
:101A0000E80FF11D87FDFA95CF01EE0FFF1FE80FDC
:101A1000F91FEF5AF54F808160E08F730E947C03BD
:101A2000B8CF808191812881A801420F511D27FDE7
:101A30005A959A01FA01EE0FFF1FE20FF31FEF5ABA
:101A4000F54F21813281820F931FF70191838083AB
:101A500088819801280F311D87FD3A95F901EE0F15
:101A6000FF1FE20FF31FEF5AF54F808186FF22C060
:101A70008881080F111D87FD1A95F801EE0FFF1FD1
:101A8000E00FF11FEF5AF54F808161E08F73DF9116
:101A9000CF911F910F91FF90EF90DF90CF90BF906B
:101AA000AF900C947C0380E49CE9F70191838083E0
:101AB0008FEF8883DF91CF911F910F91FF90EF906F
:101AC000DF90CF90BF90AF900895DF92EF92FF929A
:101AD0000F931F93CF93DF93D090E10994E1D91630
:101AE00009F44EC0E82FF0E0DF01AC5DBC4F7D0192
:101AF0009C91911145C0062F10E00C5D1C4FF80120
:101B0000908191113DC0FFE1DF9ED0011124ED01D4
:101B1000C853D24F1A821E821D823C832B83888336
:101B20006983AF52B24F95E0949FF0011124E35BBB
:101B3000FD4F01900D929A95E1F762E00E94AA0391
:101B400062E089810E94AA031E86188A1F861A8A6B
:101B5000198A18861F8A188E198E1A8E84EF91E0C2
:101B6000A0E0B0E08B8B9C8BAD8BBE8B81E08A8339
:101B700088E0D7018C93F8018083D394D092E10957
:101B8000DF91CF911F910F91FF90EF90DF9008951B
:101B9000E4E2F3E09191981303C0DF0111971C92E6
:101BA00093E0EA36F907B1F70895FC01DC01AA5B7E
:101BB000BF4F8C918823D1F08181811117C081E0C2
:101BC000818382899389A489B58980369947AE4FEC
:101BD000BF4F61F080E699E7AEEFBFEF828B938B4A
:101BE000A48BB58BCF0102960C94590B0895DC01A0
:101BF000E091B309F091B409309761F013968C919C
:101C00001397882339F04D915C91119712966C913E
:101C100081E019940895DC01E091B309F091B409D1
:101C2000309759F013968C911397811106C04D91FE
:101C30005C91119712966C9119940895EF92FF920E
:101C40000F931F93CF93DF93CCE9D0E18E01F12C5A
:101C5000E12C8091E6098E151F0449F0C8010E940D
:101C6000F70D8FEFE81AF80A0C5F1F4FF2CF10E064
:101C700000E08091E6098017110639F0CE010E943C
:101C80000B0E0F5F1F4F2496F4CFDF91CF911F9162
:101C90000F91FF90EF900895EF92FF920F931F9393
:101CA000CF93DF938B01040F151FEB017C01E61A24
:101CB000F70AC7018C0F9D1F2091FC113091FD1177
:101CC0008217930768F40E94D62B89930C171D077F
:101CD00081F7DF91CF911F910F91FF90EF900895C1
:101CE00080E0F3CF0F931F93CF93DF93082F162F2E
:101CF000D42FC8E06D2F661F6627661F802F0E94B5
:101D00007C03DD0F61E0812F0E947C0360E0812F66
:101D10000E947C03C15071F7DF91CF911F910F9109
:101D20000895EF92FF920F931F93CF93DF931F922B
:101D30001F92CDB7DEB78C0149832A83660F771FC8
:101D4000F801E688F788EE0CFF1CCF01801B910B91
:101D50008E159F0514F41192F8CF8981F801E60FD2
:101D6000F71F81838A81808360E0F80184890E9463
:101D70007C031E141F046CF4F1E0EF1AF108F80163
:101D8000EE0DFF1D4081F801628980890E94720E6C
:101D9000F0CF61E0F80184890F900F90DF91CF912F
:101DA0001F910F91FF90EF900C947C03FC0126890A
:101DB0003789621773073CF420E0411101C021E02C
:101DC0004CE00C94910E0895DF92EF92FF920F93E6
:101DD0001F93CF93DF93D82EC4E3D0E1F12CE12CF5
:101DE000809122038E151F0461F010E0898D811708
:101DF000E9F0612F70E04D2DCE010E94D60E1F5FDD
:101E0000F5CFCCEAD1E110E000E08091210380170A
:101E10001106A1F0DD2079F0198270E060E0888180
:101E20000E94DB030F5F1F4F2296EFCF8FEFE81A60
:101E3000F80A6A96D5CF698170E0F1CFDF91CF9132
:101E40001F910F91FF90EF90DF9008950F931F93D4
:101E5000CF93DF93EC0160E088810E947C030B81CB
:101E600088E0089F8001112408501109083F8FEF76
:101E7000180789F04C815D816E817F81002E04C03E
:101E800076956795579547950A94D2F769818A8127
:101E90000E94720EE9CF61E08881DF91CF911F919E
:101EA0000F910C947C030E948802882359F081E0F2
:101EB0008093851380938613809187139091881364
:101EC0000C94252A1092861390E080E008956F927A
:101ED0007F928F929F92AF92BF92CF92DF92EF92BA
:101EE000FF920F931F93CF93DF930E94530F7C01B8
:101EF0000E94530F8C010E94D9025C010E94530F73
:101F00006C010E94530F2AE12E9DE0012F9DD00D00
:101F10001124CC5CDF4E288D2223A9F1712C48E0DE
:101F20007C01FF2411274E0186E1880E911CDD24DF
:101F300066246A94640EC701062C02C095958795A5
:101F40000A94E2F780FF1CC0F40180819181081798
:101F50001907ACF4F501E70DF11DE081F0E0EB535A
:101F6000FD4F2491C601062C02C0959587950A94D1
:101F7000E2F780FD2068B801CE010E94910E7394B3
:101F8000462D6110D5CF0E94F4046093B50970937B
:101F9000B6098093B7099093B809DF91CF911F914B
:101FA0000F91FF90EF90DF90CF90BF90AF909F90F8
:101FB0008F907F906F9008950F931F93CF93DF932F
:101FC0000E94530F8C010E94530FEC010E94530F8B
:101FD0009AE1909FF001919FF00D1124EC5CFF4E6F
:101FE000908D992379F0918DC91760F4BE01772700
:101FF00026893789621773072CF4282F4AE0CF010E
:102000000E94910E0E94F4046093B5097093B60982
:102010008093B7099093B809DF91CF911F910F91E9
:1020200008950C94DC0FCF930E94530FC82F0E9489
:10203000530FBC018C2F0E94DB030E94F4046093B9
:10204000B5097093B6098093B7099093B809CF91F9
:1020500008958F929F92AF92BF92CF92DF92EF92AC
:10206000FF920F931F93CF93DF930E94530F8C0126
:102070000E94530FBC018091BA098017110609F024
:102080000CF4C0C087E1809FE001819FD00D112436
:10209000CE51D34FCD80DE800D2C000CEE08FF0812
:1020A00089809A80092C000CAA08BB082F813885EA
:1020B000032E000C440B550B2C193D094E095F09EA
:1020C000072E000C880B990B681979098A099B095E
:1020D0000E944F2C2B813C81032E000C440B550B8E
:1020E000281939094A095B090E94EC2BBA01A90198
:1020F0004C0D5D1D6E1D7F1D052E000C660B770BB4
:102100008D859E85AF85B88984179507A607B70783
:1021100009F46EC04D875E876F87788B8985811142
:1021200067C08A85803308F059C0F88061E08F2D40
:102130000E94AA038A85282F30E0F901EE0FFF1FC5
:10214000E20FF31FEF5AF54F2F2D2F739081907CE4
:10215000922B90831B861C862CE0622F0E945F2CA2
:10216000829FB001112430E020E0AB01420F531FE9
:10217000FA01EE0FFF1FE40FF51FEF5AF54F9081A4
:1021800096FD17C02F5F3F4F2C30310571F781301E
:1021900009F045C01092800082E080938100109287
:1021A000850010928400B19A80916F0082608093C4
:1021B0006F0087E1809FF001819FF00D1124EE51A7
:1021C000F34FE2858E2F90E0FC01EE0FFF1FE80F2A
:1021D000F91FEF5AF54F80818064808387E1809FEB
:1021E000F001819FF00D1124EE51F34F81E08187C2
:1021F0000E94F4046093B5097093B6098093B709FF
:102200009093B809DF91CF911F910F91FF90EF90BC
:10221000DF90CF90BF90AF909F908F9008958230C5
:1022200061F41092900080939100109295001092AA
:10223000940088BB80937100BCCF833069F4109206
:10224000A00082E08093A1001092A5001092A4004B
:1022500089BB80937200ADCF8111ABCF109220016A
:1022600082E08093210110922501109224018ABB03
:10227000809373009ECF0E94530F2091D30928179B
:102280001906A1F09CF0880F991FFC01E154F64F4C
:10229000808191810E94D50D0E94F4046093B5095C
:1022A0007093B6098093B7099093B80908950E9476
:1022B000530F2091D3092817190639F134F1880FEB
:1022C000991FFC01E154F64F0190F081E02D168634
:1022D0001786108A118A128A138A148A158A16AAF6
:1022E00017AA10AE11AE16A217A210A611A6168A32
:1022F000178A108E118E0E94F4046093B5097093B2
:10230000B6098093B7099093B8090895AF92BF9228
:10231000CF92DF92EF92FF921F93CF93DF930E94B1
:10232000530F6C010E94D9027C0186E08C9DE00174
:102330008D9DD00D1124CA52D34F8A81882321F15B
:1023400010E05E0185E0A80EB11C6E01A4E0CA0E8B
:10235000D11CF50180818117B9F0612F88819981A5
:102360000E947F0888819981D6014C91B701149F02
:10237000600D711D1124DC01ED91FC910284F38547
:10238000E02D19951F5FE5CF0E94F4046093B50915
:102390007093B6098093B7099093B809DF91CF91F4
:1023A0001F91FF90EF90DF90CF90BF90AF90089576
:1023B000FB0101900020E9F73197AF01461B570B55
:1023C000DC01ED91FC910280F381E02D1994809164
:1023D000BB128823A1F060918E1380918C13909191
:1023E0008D130E9400058091C312882341F064ED93
:1023F00072E080918C1390918D130E94D8111092ED
:10240000C2121092BB1280E008958F929F92AF92F9
:10241000BF92EF92FF920F931F93CF93DF93CDB7AD
:10242000DEB7A1970FB6F894DEBF0FBECDBF7C011B
:10243000FA01CB0119A2223008F42AE08E010F5DC7
:102440001F4F822E912CB12CA12CBF01A50194010C
:102450000E941E2CF901CA016A300CF5605DD8019A
:102460006E938D01232B242B252B79F790E080E0B0
:10247000109721F0BD01C7010E94D811A1960FB697
:10248000F894DEBF0FBECDBFDF91CF911F910F91AA
:10249000FF90EF90BF90AF909F908F900895695CF0
:1024A000DECF9091BB12911110C091E09093BB12BE
:1024B0009093C212482F50E070E060E02AE08091D3
:1024C0008C1390918D130C9405120895CF93DF9384
:1024D0009091BB1291111AC0EB010E945112809190
:1024E000BB12882379F060918F1380918C139091A7
:1024F0008D130E940005BE0180918C1390918D1365
:102500000E940705DF91CF910C94E71180E0DF91E5
:10251000CF9108950E94F4046093B5097093B609B1
:102520008093B7099093B80961EC72E085E00C9450
:10253000661281E08093EB096EEB72E081E10C940E
:102540006612CF93DF930E94F4046093B5097093F1
:10255000B6098093B7099093B8098AE00E94511296
:102560008091FC119091FD11C0E0CC9728F08BE395
:1025700090E00E94D62BC82F8091BB12882379F05F
:1025800060918F1380918C1390918D130E940005A0
:102590006C2F80918C1390918D130E940005C1E0E7
:1025A000D0E08091430990914409C817D907D0F42D
:1025B000CE01CB962091FC113091FD11821793072B
:1025C00078F40E94D62B9091BB12992339F0682F92
:1025D00080918C1390918D130E9400052196E1CF7C
:1025E00080E0F1CFDF91CF910C94E711CF93DF938F
:1025F0000E94F4046093B5097093B6098093B709FB
:102600009093B8090E94D902BC01FC0101900020FE
:10261000E9F73197E81BF90BFF2780914309909167
:102620004409EC01CE0FDF1F9E012F5F3F4F283D75
:10263000354060F5AF014F5F5F4F85599C4F0E9459
:10264000212FD0934409C09343098091BB1281117B
:102650003FC085E00E9451128091BB12882391F007
:1026600060918F1380918C1390918D130E940005BF
:10267000AE0170E060E02AE080918C1390918D13A0
:102680000E940512DF91CF910C94E7118091BB124B
:1026900081111EC085E00E9451128091BB128823D7
:1026A00089F360918F1380918C1390918D130E9408
:1026B0000005C0918C13D0918D136DE2CE010E9464
:1026C00000052AE041E050E060E070E0CE01D8CFA4
:1026D000DF91CF910895CF93DF932091BB122223F6
:1026E000A1F0EC0160918F1380918C1390918D1368
:1026F0000E940005209749F0BE0180918C139091B3
:102700008D13DF91CF910C94D811DF91CF91089563
:102710000F931F93CF93C82F8A0187E00E94511215
:10272000C8010E946B138091BB12882399F06091BD
:102730008F1380918C1390918D130E9400054C2F64
:1027400050E070E060E02AE080918C1390918D134E
:102750000E940512CF911F910F910C94E7110F93D6
:102760001F93CF93C82F8A0186E00E945112C8019F
:102770000E946B138091BB12882399F060918F1394
:1027800080918C1390918D130E9400054C2F50E086
:1027900070E060E02AE080918C1390918D130E948C
:1027A0000512CF911F910F910C94E711CF92DF92F8
:1027B000EF92FF92CF93DF936C01EA018CE10E94CC
:1027C0005112CE010E946B138091BB12882321F11C
:1027D00060918F1380918C1390918D130E9400054E
:1027E000C0918C13D0918D130D2C000CEE08FF08B6
:1027F0002AE0B701A601F7FE0CC06DE2CE010E94EF
:10280000000544275527BA014C195D096E097F0957
:102810002AE0CE010E940512DF91CF91FF90EF9048
:10282000DF90CF900C94E7110E94F4046093B509F7
:102830007093B6098093B7099093B8098AE00E9413
:10284000511280E992E00E946B138BE092E00E94AB
:102850006B1380E092E00E946B1387ED92E00E9480
:102860006B130C94E711FB0101900020E9F73197FD
:10287000AF01461B570BDC01ED91FC910284F385FF
:10288000E02D1994FF920F931F93CF93DF93EC01E8
:102890008B01642F888199810E947F08F12CF801B7
:1028A00001900020E9F73197E01BF10B88819981B5
:1028B0002C8130E02E1B3F0B36952795F216130620
:1028C00031F066EB72E00E940705F394E8CFB8019F
:1028D0000E94D811F12CF80101900020E9F73197FE
:1028E000E01BF10B8C8190E08E1B9F0B96958795DA
:1028F000F816190641F064EB72E0888199810E9414
:102900000705F394E8CFDF91CF911F910F91FF90CE
:10291000089585ED8093BC0080911D0A90911E0A58
:10292000A0911F0AB091200A0796A11DB11D23E0B6
:10293000B695A795979587952A95D1F72091BC00D4
:1029400024FD03C010921B0A089540911D0A509166
:102950001E0A60911F0A7091200A452B462B472BB7
:1029600069F30097A105B10541F025E32A95F1F738
:1029700000000197A109B109E1CF80911C0A0C94D4
:10298000AA064F925F926F927F928F929F92AF9220
:10299000BF92CF92DF92EF92FF92CF93DF93EC0141
:1029A0006A017B0120E030E0A901CB01B6010E9461
:1029B000B22A87FF04C0F7FAF094F7F8F0948C8CF1
:1029C0009D8CAE8CBF8CA7019601C501B4010E94FD
:1029D000B22A882309F449C06CA97DA98EA99FA9B0
:1029E0000E94B92A2B013C01A7019601C501B4013F
:1029F0000E94F42C9B01AC01C301B2010E94182B70
:102A00000E94662D6CAB7DAB8EAB9FABA701960190
:102A100060E070E080E090E40E94F42C0E94A72D1A
:102A200026E53EE04DE25FE30E94182B20E034E211
:102A300044E759E40E94182B68AF79AF8AAF9BAF87
:102A4000CC8EDD8EEE8EFF8ECE01DF91CF91FF908A
:102A5000EF90DF90CF90BF90AF909F908F907F903E
:102A60006F905F904F900C94590BDF91CF91FF9036
:102A7000EF90DF90CF90BF90AF909F908F907F901E
:102A80006F905F904F9008950F931F93CF93DF93B4
:102A90000E94530FEC010E948802882309F44AC067
:102AA00081E08093851380938613809187139091A2
:102AB00088130E94432A2091D3092C171D06A9F1DF
:102AC000A4F1CC0FDD1FC154D64FE881F9811182EA
:102AD000DF01A85BBF4F0D911D912D913C91139784
:102AE0006017710782079307B1F06D937D938D9303
:102AF0009C9313970289138924893589601771077C
:102B00008207930741F0628B738B848B958BCF0187
:102B100002960E94590B0E94F4046093B5097093C9
:102B2000B6098093B7099093B809DF91CF911F91AF
:102B30000F9108951092861360E070E0CB01BBCF37
:102B40004F925F926F927F928F929F92AF92BF92BD
:102B5000EF92FF920F931F93CF93DF930E94530F37
:102B60008C010E94D9025C010E94530F7C0189E014
:102B7000809FE001819FD00D1124CE51D54F8885D3
:102B8000882309F442C06DED72E0C5010E946A2AF3
:102B90002496812C912C54018394009761F10E941A
:102BA000252A488159816A817B812401350104C02D
:102BB000440C551C661C771C8A95D2F7D301C201C0
:102BC0001E141F047CF4842B952BA62BB72B888313
:102BD0009983AA83BB836DED72E090E080E00E9450
:102BE0006A2ADBCF80959095A095B0958423952394
:102BF000A623B723ECCF29E0209FC001219F900D91
:102C000011248E51954F0E94260F0E94F404609368
:102C1000B5097093B6098093B7099093B809DF910D
:102C2000CF911F910F91FF90EF90BF90AF909F9029
:102C30008F907F906F905F904F9008952F923F926A
:102C40004F925F926F927F928F929F92AF92BF92BC
:102C5000CF92DF92EF92FF920F931F93CF93DF9368
:102C600000D000D01F92CDB7DEB7E091D309E98341
:102C7000EA3009F438C16C01DD24F601EC5DFC4F4B
:102C8000E081E11130C17B01FF24F701EC5DFC4FD5
:102C9000E081E11128C11A013324F101EC5DFC4F00
:102CA000E081E11120C1F901FF27FB83EA83EC5D9C
:102CB000FC4FE081E11117C1101611063CF4F80138
:102CC000FF27EC5DFC4FE081E1110DC149015D83FF
:102CD0004C833B012C018CE490E00E94FC2D9F83EF
:102CE0008E835C01F2E0AF0EB11C8AE692E0EE81C9
:102CF000FF819383828384E0858316861786108AFA
:102D0000118A128A138A148A158A168A178A108ED3
:102D1000118E40E050E060E87FE3428F538F648F74
:102D2000758F168E178E10A211A242A353A364A30F
:102D300075A316A217A210A611A681E090E097A78E
:102D400086A78FEF81AB12A613A614A615A68682BE
:102D5000678240868C81818710AA16AA17AA10AEB6
:102D600011AE12AE13AE14AE15AEFE9610821182E5
:102D7000128213828E809F80F2E48F0E911CF401E8
:102D80004083518362837383EE81FF8114821286B4
:102D9000138614861586C5010E94380940E050E06C
:102DA00060E87FE3C5010E94C114EE81FF81EA5B08
:102DB000FF4F0083EE81FF81E95BFF4F81E080835D
:102DC000002321F062E0802F0E94AA03EE81FF81A0
:102DD0001182809120038F5F809320038981E82FE7
:102DE000F0E0EE0FFF1FE154F64F8E819F8191833B
:102DF000808320E030E048EC53E4FC01628D738D69
:102E0000848D958D0E94B22A882309F443C080E006
:102E100090E0A8ECB3E4EE81FF81828F938FA48FC2
:102E2000B58F80E090E4ACE1B5E4F4018083918358
:102E3000A283B383EE81FF8186A997A9A0ADB1AD2E
:102E4000181619061A061B062CF566897789808DD7
:102E5000918D9B01AC010E94182B2B013C01EE814E
:102E6000FF81668D778D80A191A19B01AC010E94AD
:102E7000882C9B01AC01C301B2010E94F42C0E947A
:102E8000662DEE81FF8166AB77AB80AF91AFC50158
:102E90000E94590B40E050E068E474E4C5010E94D0
:102EA000C114F601EC5DFC4F89E08083F701EC5D15
:102EB000FC4F8083F101EC5DFC4F8083EA81FB8154
:102EC000EC5DFC4F8083101611064CF41127F801BD
:102ED000EC5DFC4F80838E819F810E94D50D89819E
:102EE0008F5F8093D30927960FB6F894DEBF0FBE8D
:102EF000CDBFDF91CF911F910F91FF90EF90DF90A9
:102F0000CF90BF90AF909F908F907F906F905F9089
:102F10004F903F902F9008952F923F924F925F9243
:102F20006F927F928F929F92AF92BF92CF92DF92D9
:102F3000EF92FF920F931F93CF93DF93CDB7DEB73E
:102F4000A7970FB6F894DEBF0FBECDBF809143099F
:102F500090914409892B09F472C01F8E1E8EAE0118
:102F6000425E5F4F6FED72E08BE693E00E946E2A47
:102F7000DC012C91222309F462C0FE013796F9A3EB
:102F8000E8A30E94252AFC013197AE01425E5F4F03
:102F9000EB30F10508F053C56FED72E090E0882743
:102FA000EB52F84E8F4F0C947F2CE017931A381881
:102FB0006E18C219561AE81AB81A0D1AA71C501C16
:102FC00080E00E946E2A8C01AE01425E5F4F61EE8E
:102FD00072E090E080E00E946E2A7C01C8010E94AD
:102FE000252A6C01B090E609F4E4BF16E1F08C01EB
:102FF00011270C5D1C4FD8018C91811114C062E027
:103000008C2D0E94AA03B4E0BB9EF0011124E4566B
:10301000FF4EF182E082C28281E08383F8018083E7
:10302000B394B092E609AE01425E5F4F6FED72E07D
:1030300090E080E00E946E2A009709F0A2CFA79648
:103040000FB6F894DEBF0FBECDBFDF91CF911F91B9
:103050000F91FF90EF90DF90CF90BF90AF909F9037
:103060008F907F906F905F904F903F902F9008953A
:1030700080E00E946E2A8C01AE01425E5F4F61EEDD
:1030800072E090E080E00E946E2AC8010E94252A2A
:103090007C01D0902103F8E2DF1629F28C01112780
:1030A0000C5D1C4FD8018C918111BDCF61E08E2D3C
:1030B0000E94AA0370E060E08E2D0E94DB03ED2DDC
:1030C000F0E0EE0FFF1FE455FE4EE082118283E038
:1030D000F8018083D394D0922103A5CF80E00E9491
:1030E0006E2A8C01AE01425E5F4F6FED72E090E0A0
:1030F00080E00E946E2A7C01AE01425E5F4F6FED60
:1031000072E090E080E00E946E2A6C01AE01425EA7
:103110005F4F6FED72E090E080E00E946E2A5C01EC
:10312000AE01425E5F4F6FED72E090E080E00E9482
:103130006E2A4C01AE01425E5F4F61EE72E090E09C
:1031400080E00E946E2AC5010E94252AA82EC40193
:103150000E94252A3C01C6010E94252A4C01C70174
:103160000E94252A7C01C8010E94252A6C01B0908A
:103170002203F4E0BF1609F456CF99279C012C5D79
:103180003C4F3DA32CA3D9018C9181114CCFC4019C
:103190009927FC01EC5DFC4FFFA3EEA38081811118
:1031A00042CF970133273BA32AA3F901EC5DFC4FE3
:1031B0008081811138CF2B2C312C3AE1B39E8001D4
:1031C00011240C5C1F4EC3019927D8015196DC9243
:1031D000CE92509753969C928E9252975596FC920F
:1031E000EE9254979C01215031092830310510F09E
:1031F00088E090E0BAE1B29D9001B39D300D1124BA
:10320000F901EC5CFF4E7F014F01F6E18F0E911C3E
:10321000D70157969C938E93569761E08C2D0E9410
:10322000AA0361E0F70182890E94AA0361E0D70145
:1032300054968C910E94AA0361E0F70184890E9450
:103240007C03D7015196DC92CE925097D12CC12CA1
:10325000F40180819181C816D9069CF520E04FE0E9
:10326000B601C8010E94910ED4018D919C91C8169F
:10327000D90634F427E04BE0B601C8010E94910E54
:1032800020E049E0B601C8010E94910EF40180815E
:103290009181C816D90664F44424439420E0442D57
:1032A000B601C8010E94910E4394F9E04F12F6CF87
:1032B00041E0B601C8010E94D60E2FEFC21AD20A11
:1032C000C7CF81E0D70158968C93589759966C9246
:1032D000F12CE12CBAE1B29D6001B39DD00C112418
:1032E000F601EC5CFF4E6F013F01F9E16F0E711CBE
:1032F000460128E1820E911C36E1C30ED11CD30198
:103300008C918E151F0471F1F4019081992379F04D
:10331000E81668F4B7017727D6018D919C9168175C
:1033200079072CF42A2D4AE0C8010E94910E40E052
:10333000B701C8010E94D60EF60180819181E8167E
:10334000F90664F44424439420E0442DB701C801F5
:103350000E94910E4394F9E04F12F6CF2FEFE21A3C
:10336000F20ACDCF84E0ACA1BDA18C93EAA1FBA170
:10337000EC5DFC4F8083EEA1FFA18083B394B092FB
:10338000220351CE80E00E946E2A8C01AE01425E83
:103390005F4F6FED72E090E080E00E946E2A7C014A
:1033A000AE01425E5F4F6FED72E090E080E00E9400
:1033B0006E2A6C01AE01425E5F4F6FED72E090E0ED
:1033C00080E00E946E2A5C01AE01425E5F4F6FEDAD
:1033D00072E090E080E00E946E2AAE01425E5F4F94
:1033E00061EE72E090E080E00E946E2AC5010E94CA
:1033F000252A5C01C6010E94252A6C01C7010E9492
:10340000252A7C01C8010E94252A10E000E09501D0
:10341000A601B7010E941E1606CE80E00E946E2A09
:103420004C01AE01425E5F4F6FED72E090E080E0D4
:103430000E946E2A7C01AE01425E5F4F6FED72E02A
:1034400090E080E00E946E2A6C01AE01425E5F4F08
:103450006FED72E090E080E00E946E2A5C01AE01A8
:10346000425E5F4F6FED72E090E080E00E946E2A56
:103470008C01AE01425E5F4F61EE72E090E080E051
:103480000E946E2AC8010E94252A8C01C5010E9453
:10349000252A5C01C6010E94252A6C01C7010E94F1
:1034A000252A7C01C4010E94252AB1CF80E00E9418
:1034B0006E2A8C01AE01425E5F4F61EE72E090E0D9
:1034C00080E00E946E2AC8010E94252A9C019091EA
:1034D000BA099A3009F4A7CDD901BB27AC5DBC4F1E
:1034E0008C918111A0CD47E1949FF0011124EE5100
:1034F000F34F1186158616861786108A118A128A4E
:10350000138A148A1282118244EB50E0548343835D
:103510001682158250874783208386E08C939F5FB5
:103520009093BA0980CD80E00E946E2A7C01AE01A2
:10353000425E5F4F6FED72E090E080E00E946E2A85
:103540006C01AE01425E5F4F61EE72E090E080E0A0
:103550000E946E2A8C01C6010E94252AD82EC7011E
:103560000E94252A980140E06D2D0E94650D5BCDDB
:1035700080E00E946E2A7C01AE01425E5F4F6FEDDB
:1035800072E090E080E00E946E2A6C01AE01425E23
:103590005F4F6FED72E090E080E00E946E2A5C0168
:1035A000AE01425E5F4F61EE72E090E080E00E940B
:1035B0006E2A8C01C5010E94252AB82EC6010E94E0
:1035C000252AD82EC7010E94252A98014B2DCCCF41
:1035D00080E00E946E2A8C01AE01425E5F4F6FED6B
:1035E00072E090E080E00E946E2A7C01AE01425EB3
:1035F0005F4F6FED72E090E080E00E946E2A6C01F8
:10360000AE01425E5F4F61EE72E090E080E00E94AA
:103610006E2AC6010E94252AC82EC7010E94252AAB
:10362000982EC8010E94252A882ED090230352E0AC
:10363000D51609F4F8CC87E08093380380933903DA
:10364000ED2CF12CA6E0DA9EC0011124FC01EA5217
:10365000F34F5F0183829482C5828EE090E00E94E6
:10366000FC2D8C01DC0113961C921E921297E4E84B
:10367000F2E01196FC93EE9319961C92D5011196E7
:103680009C938E9381E012968C93F80184829286AB
:10369000C3861486158610926A09109269091092E1
:1036A000220A1092440A0E948C062EEB37E03093D7
:1036B0008D0920938C094FEB57E05093910940936B
:1036C0009009D80115961C9215971B968C911B9703
:1036D000823018F098E015969C93F8019485992310
:1036E00029F0813019F48581846085830E94CF049C
:1036F0002B013C0192E3892E912CA12CB12C0E942C
:10370000CF046419750986099709683E73408105DD
:103710009105A8F3F1E08F1A9108A108B10828EEED
:10372000420E23E0521E611C711C81149104A104FD
:10373000B10429F7D8011D966C91C8010E94CA08EE
:1037400060E3C8010E94CA088BE496E40197F1F790
:1037500060E3C8010E94CA088BE496E40197F1F780
:1037600060E3C8010E94CA0883E592E00197F1F77F
:1037700060E2C8010E94CA08F8016581606240E009
:10378000C8010E94560884E0D80116968C9340E048
:103790006CE0C8010E945608C8010E94AD0882E092
:1037A000F801878340E066E0C8010E94560840E0C7
:1037B00062E0C8010E9456088BE39FE10197F1F790
:1037C00086E08E9D80018F9D100D11240A52134FAB
:1037D000D801ED91FC9188E08587848191E09093F8
:1037E000210A8093430A1092220A1092440A68E048
:1037F00085E49AE00E9417080E94BB078CE0809342
:10380000B800F8018281882309F444C08081918145
:103810000E94AD08D80115966C91C12C633078F0E8
:10382000669570E090E080E00E94B92A20E030E0E8
:1038300040E85FE30E94872C0E946D2DC62E86E033
:10384000B82EDB9C800111240A52134F4C2D63EEDD
:1038500072E0C8010E944214BE9CF001BF9CF00DB2
:103860001124EA52F34F8581823038F041E04C0D4B
:103870006DEE72E0C8010E94421486E08E9DF00158
:103880008F9DF00D1124EA52F34F60E08081918109
:103890000E947F08809123038F5F80932303C3CB13
:1038A00080E00E946E2A7C01AE01425E5F4F6FEDA8
:1038B00072E090E080E00E946E2A6C01AE01425EF0
:1038C0005F4F61EE72E090E080E00E946E2A8C0112
:1038D000C6010E94252AB82EC7010E94252A6C0124
:1038E000A090DA09B0E1AB1609F49DCB9927FC0151
:1038F000EC5DFC4F7F018081811195CB80E1A8A117
:10390000B9A11D928A95E9F7188E1F8A198EBE8279
:10391000CB821A8309831D821C8262E08C2D0E9457
:10392000AA038C2D0E94B2048DE18A9DD00111243E
:10393000AA5FB44FFE01319601900D928A95E1F78E
:103940008BE0F7018083A394A092DA096CCB80E02E
:103950000E946E2A8C01AE01425E5F4F6FED72E0F5
:1039600090E080E00E946E2A7C01AE01425E5F4FD3
:103970006FED72E090E080E00E946E2A6C01AE0173
:10398000425E5F4F6FED72E090E080E00E946E2A31
:103990005C01AE01425E5F4F61EE72E090E080E05C
:1039A0000E946E2AC5010E94252AB82EC6010E94D7
:1039B000252AD82EC7010E94252AF82EC8010E9468
:1039C000252AE0906A03F4E0EF1609F42CCB29E0F5
:1039D000E29E800111240E51154F91E0D8011896F6
:1039E0009C9318978C931196FC9211971296DC92E7
:1039F00012971396BC9261E00E94AA0361E0F8015D
:103A000081810E94AA0361E0D80112968C910E94E4
:103A1000AA03F8011482158216821782C8010E9437
:103A2000260FD80114961D921D921D921C92179775
:103A3000C8010E94260FE394E0926A03F4CA61EE83
:103A400072E090E080E00E946E2AEDCA0E948C171E
:103A50000C949912FF920F931F93CF93DF9381E001
:103A60000E94C80D1092E60988E00E94C80D1092CD
:103A7000E10983E00E94C80D1092210384E00E94B6
:103A8000C80DE091220390E080E02E2F30E04AE163
:103A9000E49FF0011124E45BFF4E2817390719F069
:103AA00010820196FACF109222038091BA0950E059
:103AB00040E0682F70E0C7E18C9FC00111248E5157
:103AC000934FDC0119960A9664177507A9F02C919B
:103AD000222379F0EC01E8812E2F30E0F901EE0F7E
:103AE000FF1FE20FF31FEF5AF54F20812F7B20833A
:103AF0001C924F5F5F4FE8CF86E00E94C80D109286
:103B0000BA09D0E0C0E08091D30990E08C179D07FE
:103B100059F0880F991FFC01E154F64F8081918183
:103B20000E94982E2196EFCF89E00E94C80D109236
:103B3000D30910E000E086E0F82E8091230390E0A6
:103B40008017910791F0F89EE001F99ED00D1124A5
:103B5000CA52D34F8A81882329F0888199810E9493
:103B6000982E1A820F5F1F4FE8CF87E00E94C80D82
:103B7000109223038BE00E94C80D1092DA09E091A5
:103B80006A0390E080E02E2F30E0D9E0ED9FF00155
:103B90001124E651F54F2817390729F040814111CA
:103BA00010820196F8CF10926A0310924409109285
:103BB00043091092EB09DF91CF911F910F91FF9074
:103BC00008950E942A1D68EB72E085E00C9466124D
:103BD000DF92EF92FF920F931F93CF93DF938C01AD
:103BE000EB017B01E40EF51ED990C8010E94D62B93
:103BF000D81621F06D2DC8010E94DE2B0F5F1F4FDC
:103C0000EC16FD0689F7DF91CF911F910F91FF9080
:103C1000EF90DF900895CF93DF931F921F92CDB75F
:103C2000DEB70E94D902FC0190E3ABE0B2E0019064
:103C30000D929A95E1F783E290E09A8389838091CF
:103C4000FC119091FD11029748F041E050E0BE0157
:103C50006F5F7F4F90E080E00E94E81D8091FC1133
:103C60009091FD11C19740F04FE250E06BE072E09F
:103C700081E090E00E94E81D85E00E9451128BE0F7
:103C800092E00E946B130E94E7110F900F90DF915A
:103C9000CF9108958091FC119091FD11843196404F
:103CA00040F048ED55E06BE673E08BE390E00E9456
:103CB000E81D6BEB72E08FE00C946612CF92DF92FE
:103CC000EF92FF92CF93C82F4BE050E060E072E09C
:103CD00080E390E00E944C0EC11109C08091000267
:103CE000833529F4809101028E3409F466C080E0A6
:103CF0000E94B204BC01990F880B990B61157105E4
:103D00008105910511F00E941C2A0E94CD29CC2426
:103D1000CA942FE0D22EE12CF12CA70196010E942B
:103D2000EC2B7F936F938EEF92E09F938F9380E0C5
:103D300092E09F938F930E942A2F0E94CD29A70182
:103D400096010E94EC2B7F936F9387E093E09F9303
:103D50008F9387E092E09F938F930E942A2F8DB7D5
:103D60009EB70C960FB6F8949EBF0FBE8DBF809184
:103D7000FC119091FD11CC9700F14BE050E060E018
:103D800072E080E390E00E94E81DC11116C08091AE
:103D9000FC119091FD11CC9780F08BE390E00E9494
:103DA000D62B882351F060E08BE390E0CF91FF9019
:103DB000EF90DF90CF900C94DE2BCF91FF90EF909F
:103DC000DF90CF90089581E00E945E1E8AE00E94FD
:103DD000511280E092E00E946B130C94E711CF9394
:103DE000DF931F92CDB7DEB780E090E19093FD1195
:103DF0008093FC1110926B0380E00E945E1EE4E24F
:103E0000F3E0119283E0EA36F807D9F70E94F40450
:103E10006093B5097093B6098093B7099093B80978
:103E20000E942A1D48ED55E06BE673E08BE390E0BD
:103E30000E944C0E8BE693E0FC0101900020E9F714
:103E4000CF018C56934090934409809343090E947C
:103E50008C170E949912198241E050E0BE016F5FF9
:103E60007F4F90E080E00E944C0E8981833241F4C4
:103E70004FE250E06BE072E081E090E00E944C0E77
:103E80000F90DF91CF9108951F920F920FB60F926E
:103E900011242F933F938F939F93AF93BF93809160
:103EA000ED099091EE09A091EF09B091F0093091E0
:103EB000EC0923E0230F2D3758F50196A11DB11D04
:103EC0002093EC098093ED099093EE09A093EF09FC
:103ED000B093F0098091F1099091F209A091F30952
:103EE000B091F4090196A11DB11D8093F109909341
:103EF000F209A093F309B093F409BF91AF919F9198
:103F00008F913F912F910F900FBE0F901F9018959A
:103F100026E8230F0296A11DB11DD2CF1F920F924A
:103F20000FB60F9211240BB60F922F933F934F931E
:103F30005F936F937F938F939F93AF93BF93EF9311
:103F4000FF938EEF91E10E94A405FF91EF91BF9145
:103F5000AF919F918F917F916F915F914F913F9121
:103F60002F910F900BBE0F900FBE0F901F901895C2
:103F70001F920F920FB60F9211240BB60F922F9330
:103F80005F936F937F938F939F93AF93BF93EF93C1
:103F9000FF93E0910E12F0910F128081E0911412C4
:103FA000F091151282FD26C020818091171290E0B9
:103FB000019660E670E00E946B2C909118129817A1
:103FC00041F0E0911712F0E0E250FE4E258F809311
:103FD0001712FF91EF91BF91AF919F918F917F91B8
:103FE0006F915F912F910F900BBE0F900FBE0F90AE
:103FF0001F9018958081EDCF1F920F920FB60F92F0
:1040000011240BB60F922F933F934F935F936F93AF
:104010007F938F939F93AF93BF93EF93FF93809181
:10402000B900887F803609F44DC008F040C088325E
:1040300009F4A9C028F5803109F49DC0C8F488238B
:1040400009F4FBC0883009F496C0FF91EF91BF914D
:10405000AF919F918F917F916F915F914F913F9120
:104060002F910F900BBE0F900FBE0F901F901895C1
:10407000883109F488C0803241F78093190A14C04E
:10408000803409F49DC040F48033B9F38833E9F6F5
:104090008093190A85ECB0C0803509F485C0883555
:1040A00009F496C0883489F60E948914CECF8839E5
:1040B00009F48CC038F5883729F050F4883611F0AF
:1040C000803719F683E080931B0A1092B20957C01B
:1040D000883809F47BC0803919F0803809F0B5CFF1
:1040E0008091B209803208F071C0E091B20981E09C
:1040F0008E0F8093B2098091BB00F0E0EE56F64F30
:1041000080833DC0803B39F0E0F4803A09F479C007
:10411000883A09F09ACF84E080931B0A10928F09A5
:1041200010928E09E0918C09F0918D09199580917A
:104130008E0981110FC081E080938E0910926C0965
:1041400009C0803C09F4A6CF883C09F4A3CF883B82
:1041500009F07BCFE0918F0981E08E0F80938F096A
:10416000F0E0E459F64F80818093BB0090918F0975
:1041700080918E0929C08091F6098093BB0085EC5F
:104180008093BC0062CF9091180A8091170A98170B
:1041900058F5E091180A81E08E0F8093180AF0E03C
:1041A000E950F64F8081E9CFE091180A81E08E0F47
:1041B0008093180A8091BB00F0E0E950F64F8083AD
:1041C0009091180A8091170A9817C8F285E8D8CFFD
:1041D000E091180A81E08E0F8093180A8091BB004D
:1041E000F0E0E950F64F808380911A0A81115CCF8C
:1041F00081E08093F50984EA8093BC0010921B0A49
:1042000024CF85EC8093BC0010921B0A8091B209E8
:10421000803230F4E091B209F0E0EE56F64F1082B1
:104220006091B20970E0E0919009F091910982E902
:1042300099E019951092B20908CF1092190A34CF5B
:104240001F920F920FB60F9211240BB60F922F935D
:104250003F934F935F936F937F938F939F93AF930E
:10426000BF93EF93FF9348E251E064E271E090E086
:1042700080E00E94AB0CFF91EF91BF91AF919F91B5
:104280008F917F916F915F914F913F912F910F90FF
:104290000BBE0F900FBE0F901F9018951F920F929C
:1042A0000FB60F9211240BB60F922F933F934F939B
:1042B0005F936F937F938F939F93AF93BF93EF938E
:1042C000FF9348EA50E064EA70E083E090E00E94E7
:1042D000AB0CFF91EF91BF91AF919F918F917F9127
:1042E0006F915F914F913F912F910F900BBE0F9067
:1042F0000FBE0F901F9018951F920F920FB60F923E
:1043000011240BB60F922F933F934F935F936F93AC
:104310007F938F939F93AF93BF93EF93FF9348E95E
:1043200050E064E970E082E090E00E94AB0CFF9105
:10433000EF91BF91AF919F918F917F916F915F911D
:104340004F913F912F910F900BBE0F900FBE0F908A
:104350001F9018951F920F920FB60F9211240BB653
:104360000F922F933F934F935F936F937F938F930E
:104370009F93AF93BF93EF93FF9348E850E064E8B7
:1043800070E081E090E00E94AB0CFF91EF91BF9153
:10439000AF919F918F917F916F915F914F913F91DD
:1043A0002F910F900BBE0F900FBE0F901F9018957E
:1043B000DF92EF92FF920F931F93CF93DF931092B0
:1043C00001121092001288EE93E0A0E0B0E080931A
:1043D000021290930312A0930412B093051224EBDF
:1043E00032E03093FF112093FE1125EC30E0309342
:1043F0000B1220930A1224EC30E030930D1220931C
:104400000C1220EC30E030930F1220930E1221ECAE
:1044100030E0309311122093101222EC30E03093F0
:1044200013122093121226EC30E0309315122093D1
:104430001412109217121092181210921912109250
:104440001A121092480A1092470A8093490A9093D0
:104450004A0AA0934B0AB0934C0A86EC92E09093E0
:10446000460A8093450A10929213109291138EEF90
:1044700091E190938D1380938C131092C3128CE270
:1044800080938F138BE380938E138FE2809390132E
:1044900080E68093BE128FE58093BF121092BD120A
:1044A000109288131092871310928A131092891316
:1044B00081E080938513E3E9F3E11192119283E1A6
:1044C000EF3CF807D1F71092C2121092FD11109232
:1044D000FC11CCEAD1E10CEF11E1FF24F394F88256
:1044E000198261E081E00E94AA03698170E08881FD
:1044F0000E94DB0322960C171D0789F7CCE9D0E157
:1045000011E06CE0E62E63E0F62E1A83F982E88271
:104510001B8362E081E00E94AA032496A1E1CC3AC9
:10452000DA0799F710924C101092661010928010D2
:1045300010929A10E8ECFDE084E390E112827F96FD
:104540008E179F07D9F7E2EEFCE02FEF48EB5BE018
:104550008091E10A803308F050C091E0980F909369
:10456000E10A828790E0DC01AA0FBB1FA80FB91FE8
:10457000AF5AB54F12965C934E9311977796BDE064
:10458000E83CFB0729F71092D80C1092DE0CC6E02D
:10459000DBE040E1D42E52E0E52EFF24F39403E16A
:1045A00013E0FE013696DF018D2D1D928A95E9F705
:1045B0001F8A1E8A188EED82FA82198308831C8254
:1045C0001B8262E081E00E94AA038A810E94B204F9
:1045D0006D96ACE0C63DDA0721F71092EA0A109218
:1045E000F30A1092FC0A1092050BDF91CF911F91F4
:1045F0000F91FF90EF90DF9008952287BFCFCF9368
:10460000DF9300D01F92CDB7DEB7789484B5826077
:1046100084BD84B5816084BD85B5826085BD85B566
:10462000816085BD80916E00816080936E001092E4
:10463000810080918100826080938100809181005F
:1046400081608093810080918000816080938000F0
:104650008091B10084608093B1008091B00081604E
:104660008093B0008091910082608093910080914E
:10467000910081608093910080919000816080938F
:1046800090008091A10082608093A1008091A100A0
:1046900081608093A1008091A00081608093A00040
:1046A00080912101826080932101809121018160AC
:1046B000809321018091200181608093200180916D
:1046C0007A00846080937A0080917A00826080937F
:1046D0007A0080917A00816080937A0080917A00DC
:1046E000806880937A001092C100E0910E12F091E0
:1046F0000F1282E08083E0910A12F0910B12108277
:10470000E0910C12F0910D1280E18083109216124C
:10471000E0911212F091131286E08083E091101262
:10472000F0911112808180618083E0911012F091EC
:104730001112808188608083E0911012F091111233
:10474000808180688083E0911012F0911112808145
:104750008F7D80838AE892E19093921380939113E6
:1047600081E190E1909394138093931387E69FE007
:1047700090939613809395138CED9FE09093C813BC
:104780008093C71383E190E19093981380939713DC
:1047900084E495E190939A138093991389E290E1D0
:1047A00090939C1380939B1384E194E19093A613C0
:1047B0008093A51381EA92E19093AC138093AB139D
:1047C00086EF92E19093AA138093A91381EE9DE165
:1047D0009093AE138093AD138AE49EE19093B0134F
:1047E0008093AF1386E29DE19093B4138093B3134B
:1047F0008BE09EE19093BA138093B91383EE9EE110
:104800009093BC138093BB138BE391E19093BE1301
:104810008093BD1387E591E19093C0138093BF13FC
:104820008EE19EE09093C2138093C1138FEE9EE1C0
:104830009093C4138093C31386E891E19093C613B9
:104840008093C51380EA95E19093CA138093C913AE
:1048500088E893E19093B4098093B3098FEA93E1D8
:104860009093E0098093DF0986ED93E19093D50959
:104870008093D40981E08093C3120E94EF1E0E94AE
:10488000F4046C5F7F4F8F4F9F4F6093DB097093F1
:10489000DC098093DD099093DE090E94F4046C5FCB
:1048A0007F4F8F4F9F4F6093D6097093D7098093A6
:1048B000D8099093D9090E94F4046093E709709392
:1048C000E8098093E9099093EA090E94F4046E5F75
:1048D0007F4F8F4F9F4F6093E2097093E30980935E
:1048E000E4099093E5090E94F4046093BB09709376
:1048F000BC098093BD099093BE0988E5282E82E00B
:10490000382E94EB892E912CA12CB12C5524539444
:104910008091C2128111CEC080918C1390918D1321
:10492000DC01ED91FC910084F185E02D1995892B36
:1049300009F4C0C080918C1390918D13DC01ED912E
:10494000FC910084F185E02D199500E6E02EF12C14
:104950008036910564F480918C1390918D13DC0165
:10496000ED91FC910084F185E02D19957C0160901A
:104970008C1370908D137A82698214E2C12E13E138
:10498000D12E360110E000E0E016F10659F10E9448
:10499000F404A981BA8118966D937D938D939C93AD
:1049A0001B97A981BA81ED91FC9111970284F3853F
:1049B000E02DCD01199597FF8EC40E94F404E98182
:1049C000FA812085318542855385621B730B840BE8
:1049D000950B2481358146815781621773078407BF
:1049E0009507F8F21A82198269807A80E614F70432
:1049F00009F48ECFD6019D916D01109284133091F0
:104A000090132091C1129093C112931304C092137A
:104A100002C01092C1128091BD12E82FF0E04091C7
:104A20008E13E554FD4E941330C0321771F1118688
:104A3000882321F0509284131092C1121092BD125B
:104A4000109288131092871310928A131092891370
:104A50005092851380918413813031F50E94530F59
:104A60008093BC128E31D0F4209186132223B1F0B2
:104A7000FC01FF27EE0FFF1FED56FC4E0190F08169
:104A8000E02D309759F019950FC091878F5F809373
:104A9000BD129091BF12891788F6DCCFE091911377
:104AA000F0919213309779F7E981FA813196FA8380
:104AB000E9839ACFC090B509D090B609E090B709C4
:104AC000F090B8098091B90981110BC40E94F404D7
:104AD0006C197D098E099F09613A7B4B8D409105C8
:104AE00028F081E08093B9090E94E40E8091EB09DF
:104AF000882309F4EDC30E94F4040091E7091091A2
:104B0000E8092091E9093091EA09601B710B820BD9
:104B1000930B6A30710581059105D8F10E94F40468
:104B20006093E7097093E8098093E9099093EA0993
:104B30002CE930E13A83298310E000E08091E60916
:104B40008017110631F1A981BA8112968C910E94C9
:104B50005303E981FA819381891771F091E0811102
:104B600001C090E0A981BA8113969C93139781119B
:104B70000BC0CD010E940B0E0F5F1F4FE981FA8120
:104B80003496FA83E983DACF89819A810E94F70DFE
:104B9000F3CF0E94F4040091E2091091E3092091FF
:104BA000E4093091E509601771078207930709F45A
:104BB0004EC10E94F4046093E2097093E30980936C
:104BC000E4099093E50928EC3DE03C832B831A82AD
:104BD00019820FE18091E10949805A8084151504FA
:104BE00009F435C1AB81BC8112968C911297882350
:104BF00009F4EBC08C910E9453036C01EB81FC81A2
:104C000081810E9453037C010E94F404AB01BC012A
:104C100081E090E0EF2811F090E080E0880F991F8C
:104C200021E0CD2809F020E0F22EF82AEB81FC816A
:104C3000838D948DA58DB68D2A013B01481A590AA2
:104C40006A0A7B0AD301C20185369105A105B10527
:104C500008F4C7C08085823008F4C3C0438F548FE6
:104C6000658F768F81508087EB81FC81A685FA164F
:104C700009F467C0D084F6E066246394712CFD15B6
:104C800018F4F3E36F2E712CEB81FC81E584F4E0E2
:104C9000AF02D0011124EF2D0F2C000CFF0BAE2B17
:104CA000BF2BA056BD4FAC911A2F93011203C00128
:104CB000139F900D11240E2C02C0880F991F0A9487
:104CC000E2F7AB81BC811F962D913C915097820FEA
:104CD000931F50969C938E931F9749805A80049DF2
:104CE0009001059D300D11242853324FE20FF31F20
:104CF0002185222319F153964D905D906D907C9003
:104D0000569757964D925D926D927C925A97FD01FF
:104D1000438B548B658B768B02C095958795EA946F
:104D2000E2F7928B818B8D2D8C3008F08BE0DD24A7
:104D3000D394D80EAB81BC811896DC92EB81FC81B8
:104D4000F686AB81BC815196ED90FC9052971596FA
:104D50008D919C911697E816F906B9F1F701E81BB9
:104D6000F90BCF01E091DF09F091E0096C01CC0C67
:104D7000DD1C309709F468C013964D915C9114972F
:104D80009C012F5C3F4F2336310508F052C097FD40
:104D900042C06C9180E01995CE0CDF1CB1E4CB16BB
:104DA000BFE1DB0664F0EB81FC818785908983702D
:104DB0009927908B8787128A118AF12CE12CAB817D
:104DC000BC811696FC92EE921597E981FA81319694
:104DD000FA83E9832B813C81215E3F4F3C832B8307
:104DE000F9CEEB81FC818789908DA18DB28D2A014E
:104DF0003B01481A590A6A0A7B0AD301C201853F5E
:104E00009140A105B10508F42FCF438F548F658FD2
:104E1000768F108629CFAB81BC8111966C9182E090
:104E20001995C7018C199D09803C904E0CF4BBCF9D
:104E3000C6CFAB81BC8197FD03C06C9181E0ABCF45
:104E400011966C9183E0ECCF97FDEBCFA5CF0E943C
:104E5000F4040091DB091091DC092091DD09309107
:104E6000DE09601B710B820B930B6A3071058105A3
:104E7000910508F471C046E05BE05A834983F12C48
:104E8000E12C4DE1742E8091DA098E151F0409F48E
:104E900059C07E9C60017F9CD00C112486010A5F62
:104EA000144FD8015896EC91F0E03396EE0FFF1FA7
:104EB000EC0DFD1DEA5FF44FA981BA8156962D9144
:104EC0003C91579780819181281B390B57963C93D1
:104ED0002E93569712968C910E94B204D801589640
:104EE000EC915897F0E03396EE0FFF1FEC0DFD1D8F
:104EF000EA5FF44F918380835896EC91F0E033960B
:104F0000EE0FFF1FEC0DFD1DEA5FF44FA981BA8182
:104F100056968D919C91579720813181820F931FD6
:104F200057969C938E935697F801808D8F5F808F54
:104F3000808D8770808FFFEFEF1AFF0A5D96BA832E
:104F4000A983A1CF0E94F4046093DB097093DC096C
:104F50008093DD099093DE090E94F4040091D60944
:104F60001091D7092091D8093091D909601B710B94
:104F7000820B930B623371058105910508F44DC0D6
:104F80000E94F4046093D6097093D7098093D809DE
:104F90009093D90926E03BE03A83298310E000E0B2
:104FA0008091DA0980171106C1F1A981BA8156965C
:104FB0008D919C91579773E0969587957A95E1F737
:104FC00013962D913C91FC01E21BF30B9F01F7FF1F
:104FD00003C0319521953109A981BA8115964C916B
:104FE00015974217130609F084F414969C938E9338
:104FF0001397E091D409F091D509309731F04D9194
:105000005C91119712966C9119950F5F1F4FE98172
:10501000FA817D96FA83E983C3CF6FEBC62E69E0F0
:10502000D62EF12CE12C8091D3098E151F0409F4A2
:105030008BC0D6014D905D906D015A824982F2017C
:1050400086A197A1A0A5B1A5892B8A2B8B2B09F44A
:105050003FC00E94CF042B013C01E981FA8182A567
:1050600093A5A4A5B5A5B301A201481B590B6A0BD2
:105070007B0B86A197A1A0A5B1A5481759076A0780
:105080007B0730F186859785A089B1892481222309
:1050900009F454C00196A11DB11D86879787A08B86
:1050A000B18BA981BA811E964D915D916D917C91D4
:1050B00051978D010E5F1F4FC8010E940F0BE981B0
:1050C000FA8142A653A664A675A6C8010E94590B90
:1050D000E981FA81EA5BFF4F80810E945303E981F5
:1050E000FA81E95BFF4F9081891721F1808381115B
:1050F00021C0A981BA8111968C9111978823D1F092
:10510000FD0116861786108A118A52961D921D92ED
:105110001D921C92559716AA17AA10AE11AE96961C
:105120001D921D921D921C929997168A178A108EB5
:10513000118E1182FFEFEF1AFF0A75CF0197A109B7
:10514000B109E981FA81A9CF0E94F4040091BB0959
:105150001091BC092091BD093091BE09601B710BF3
:10516000820B930B663071058105910508F4B0C080
:105170000E94F4046093BB097093BC098093BD093D
:105180009093BE0952EE652E5CE0752E10E000E0B3
:105190008091BA098017110609F49AC0F301818938
:1051A0009289A389B4894585568567857089841756
:1051B0009507A607B70709F481C0481759076A077A
:1051C0007B070CF081C00197A109B109818B928BFB
:1051D000A38BB48BF301A189B289A032F2E0BF079F
:1051E000C4F5F301238598E8C92ED12CC21AD10841
:1051F00027FDD394CC0CDD1CCC0CDD1C0D2C000C3D
:10520000EE08FF0824852101421A510827FD539416
:105210009201220F331F220F331F032E000C440B69
:10522000550B2C193D094E095F09A53BB10514F03A
:10523000A4EBB0E0B7FF02C0B0E0A0E00E94162CE3
:10524000A50194010E94EC2BC20ED31EE41EF51E94
:10525000D601F3015285503388F5238578E8472E2F
:10526000512C421A510827FD53949201220F331FEB
:10527000220F331FA217B3077CF02485C101821BC4
:10528000910927FD93959C01220F331F220F331F95
:10529000A217B3070CF49D0122503109220F331FCE
:1052A0004FB7F894852F90E0FC01EE0FFF1FE80F39
:1052B000F91FEF5AF54F328321834FBF0F5F1F4F06
:1052C00097E1690E711C64CF0196A11DB11D7ECFBF
:1052D0000E9433061BCBD3018D933D010F5F1F4FFF
:1052E00053CB0E94F4046C197D098E099F09603A22
:1052F0007B4B8D40910508F0F9CB1092B90980E005
:10530000F3CB8F929F92AF92BF92CF92DF92EF92A8
:10531000FF92CF93DF93EC01688179818A819B8131
:10532000611571058105910521F464E279ED8BE544
:1053300097E02DE133EF41E050E00E94EC2B490172
:105340005A019B01AC01A7EAB1E40E940B2C6B014E
:105350007C01ACEEB4EFA50194010E94192CC60E9D
:10536000D71EE81EF91EF7FE06C081E0C81AD10854
:10537000E10880E8F80AC882D982EA82FB82C70184
:10538000B6019F77DF91CF91FF90EF90DF90CF90A4
:10539000BF90AF909F908F9008958F929F92AF9201
:1053A000BF92CF92DF92EF92FF9260913B02709199
:1053B0003C0280913D0290913E026115710581058C
:1053C000910521F464E279ED8BE597E02DE133EF6F
:1053D00041E050E00E94EC2B49015A019B01AC01D5
:1053E000A7EAB1E40E940B2C6B017C01ACEEB4EF98
:1053F000A50194010E94192CC60ED71EE81EF91EA5
:10540000F7FE06C081E0C81AD108E10880E8F80A72
:10541000C0923B02D0923C02E0923D02F0923E02EA
:10542000C701B6019F77FF90EF90DF90CF90BF90BC
:10543000AF909F908F90089560933B0270933C02D1
:1054400080933D0290933E020895FC01882799279E
:10545000E89421912032E9F3293010F02E30C8F37E
:105460002B3241F02D3239F4689404C00E94AA2AEC
:10547000820F911D219120532A30C0F31EF4909584
:1054800081959F4F08951F93FC0199278827BC01A0
:10549000E89411911032E9F3193010F01E30C8F37E
:1054A0001B3251F01D3249F4689406C00E94952ABF
:1054B000610F711D811D911D119110531A30B0F3B0
:1054C0003EF490958095709561957F4F8F4F9F4FDB
:1054D0001F9108954FEC53E10C946E2AFA01A191AB
:1054E000B081009719F41097E1F0CD01DC01CD01F6
:1054F0000D90002011F4C00113C0FB012191222363
:1055000019F02015D9F7F3CFFB012191201519F4DB
:105510001E92119606C02223C1F70D900020A1F71C
:10552000D001FA01A193B0830895592F482F372F46
:10553000262F660F771F881F991F660F771F881FFA
:10554000991F620F731F841F951F660F771F881F97
:10555000991F08957AE0979F902D879F802D910D38
:10556000112408950E94F42A08F481E00895E89433
:1055700009C097FB3EF490958095709561957F4F9B
:105580008F4F9F4F9923A9F0F92F96E9BB27939549
:10559000F695879577956795B795F111F8CFFAF459
:1055A000BB0F11F460FF1BC06F5F7F4F8F4F9F4F8A
:1055B00016C0882311F096E911C0772321F09EE8E8
:1055C000872F762F05C0662371F096E8862F70E04E
:1055D00060E02AF09A95660F771F881FDAF7880F28
:1055E0009695879597F90895990F0008550FAA0B7E
:1055F000E0E8FEEF16161706E807F907C0F01216E6
:105600001306E407F50798F0621B730B840B950BE8
:1056100039F40A2661F0232B242B252B21F408953D
:105620000A2609F4A140A6958FEF811D811D0895DA
:105630000E942B2B0C949C2B0E948E2B38F00E94E6
:10564000952B20F0952311F00C94852B0C948B2B2B
:1056500011240C94D02B0E94AD2B70F3959FC1F3B5
:10566000950F50E0551F629FF001729FBB27F00D10
:10567000B11D639FAA27F00DB11DAA1F649F662765
:10568000B00DA11D661F829F2227B00DA11D621FB4
:10569000739FB00DA11D621F839FA00D611D221F6E
:1056A000749F3327A00D611D231F849F600D211D52
:1056B000822F762F6A2F11249F5750409AF0F1F0D5
:1056C00088234AF0EE0FFF1FBB1F661F771F881F3E
:1056D00091505040A9F79E3F510580F00C94852BC6
:1056E0000C94D02B5F3FE4F3983ED4F386957795E6
:1056F0006795B795F795E7959F5FC1F7FE2B880FE4
:10570000911D9695879597F9089597F99F6780E879
:1057100070E060E008959FEF80EC089500240A9403
:105720001616170618060906089500240A9412167C
:105730001306140605060895092E0394000C11F4AF
:10574000882352F0BB0F40F4BF2B11F460FF04C05C
:105750006F5F7F4F8F4F9F4F089557FD9058440FB5
:10576000551F59F05F3F71F04795880F97FB991FC0
:1057700061F09F3F79F0879508951216130614067D
:10578000551FF2CF4695F1DF08C01616170618060A
:10579000991FF1CF86957105610508940895E894E5
:1057A000BB2766277727CB0197F90895F999FECF94
:1057B00092BD81BDF89A992780B50895262FF99951
:1057C000FECF1FBA92BD81BD20BD0FB6F894FA9AE4
:1057D000F99A0FBE01960895052E97FB1EF40094CA
:1057E0000E94032C57FD07D00E941E2C07FC03D0FB
:1057F0004EF40C94032C50954095309521953F4FD5
:105800004F4F5F4F089590958095709561957F4FAC
:105810008F4F9F4F08950E94402CA59F900DB49FDD
:10582000900DA49F800D911D11240895B7FF0C9435
:105830000B2C0E940B2C821B930B0895A1E21A2EB5
:10584000AA1BBB1BFD010DC0AA1FBB1FEE1FFF1F24
:10585000A217B307E407F50720F0A21BB30BE40B74
:10586000F50B661F771F881F991F1A9469F76095BB
:105870007095809590959B01AC01BD01CF01089575
:10588000A29FB001B39FC001A39F700D811D112481
:10589000911DB29F700D811D1124911D0895DB0192
:1058A0008F939F930E940B2CBF91AF91A29F800D6D
:1058B000911DA39F900DB29F900D11240895991BE7
:1058C00079E004C0991F961708F0961B881F7A95F7
:1058D000C9F780950895AA1BBB1B51E107C0AA1FF9
:1058E000BB1FA617B70710F0A61BB70B881F991F81
:1058F0005A95A9F780959095BC01CD010895EE0FBA
:10590000FF1F881F8BBF0790F691E02D1994505808
:10591000BB27AA270E949F2C0C949C2B0E948E2BA5
:1059200038F00E94952B20F039F49F3F19F426F4AB
:105930000C948B2B0EF4E095E7FB0C94852BE92F50
:105940000E94AD2B58F3BA176207730784079507B7
:1059500020F079F4A6F50C94CF2B0EF4E0950B2EE5
:10596000BA2FA02D0B01B90190010C01CA01A001B1
:105970001124FF27591B99F0593F50F4503E68F10C
:105980001A16F040A22F232F342F4427585FF3CF4D
:10599000469537952795A795F0405395C9F77EF41E
:1059A0001F16BA0B620B730B840BBAF09150A1F067
:1059B000FF0FBB1F661F771F881FC2F70EC0BA0FED
:1059C000621F731F841F48F4879577956795B79575
:1059D000F7959E3F08F0B0CF9395880F08F0992770
:1059E000EE0F9795879508950E94082D0C949C2B97
:1059F0000E94952B58F00E948E2B40F029F45F3FB7
:105A000029F00C94852B51110C94D02B0C948B2BDA
:105A10000E94AD2B68F39923B1F3552391F3951BA5
:105A2000550BBB27AA2762177307840738F09F5FBF
:105A30005F4F220F331F441FAA1FA9F335D00E2E2C
:105A40003AF0E0E832D091505040E695001CCAF799
:105A50002BD0FE2F29D0660F771F881FBB1F26175C
:105A600037074807AB07B0E809F0BB0B802DBF0133
:105A7000FF2793585F4F3AF09E3F510578F00C9402
:105A8000852B0C94D02B5F3FE4F3983ED4F386959E
:105A900077956795B795F7959F5FC9F7880F911D23
:105AA0009695879597F90895E1E0660F771F881F0F
:105AB000BB1F621773078407BA0720F0621B730BC2
:105AC000840BBA0BEE1F88F7E09508950E946D2DA8
:105AD0006894B1110C94D02B08950E94B52B88F0D6
