:100000000C947D010C94A5010C94A5010C94A50100
:100010000C94A5010C94A5010C94A5010C94A501C8
:100020000C94A5010C94A5010C94A5010C94F52247
:100030000C94A5010C94A5010C94A5010C94A501A8
:100040000C9426210C94A5010C9496210C947021FB
:100050000C94A5010C94A5010C94A5010C94A50188
:100060000C94D6210C94A5016E2F61004F4B004FCC
:100070004B004F4B00427574746F6E20646F657354
:10008000206E6F742066697420696E204D656D6FF7
:100090007279004F757470757420646F6573206E8B
:1000A0006F742066697420696E204D656D6F72797A
:1000B00000375365676D656E7420646F6573206EDD
:1000C0006F742066697420696E204D656D6F72795A
:1000D0002100536572766F20646F6573206E6F74B4
:1000E0002066697420696E204D656D6F72792100FC
:1000F0004C434420646F6573206E6F74206669748E
:1001000020696E204D656D6F72792100416E616CC2
:100110006F67496E20646F6573206E6F7420666927
:100120007420696E204D656D6F7279004F75747023
:1001300075745368696674657220646F6573206EA8
:100140006F742066697420696E204D656D6F7279D9
:1001500000496E7075745368696674657220646FC7
:100160006573206E6F742066697420696E204D651A
:100170006D6F7279004661696C757265206F6E20D3
:1001800072656164696E6720636F6E6669670045BA
:100190006E636F6465727320646F6573206E6F7435
:1001A0002066697420696E204D656D6F7279007EDE
:1001B000306D79335B5F707F7B771F0D3D4F47005C
:1001C000000000000000000000000000000000002F
:1001D0000000000000000000000000800180257E7B
:1001E000306D79335B5F707F7B0000000900000099
:1001F000777F4E7E4F475F37307C000E00767E67FC
:100200007E775B463E000000336D4E137800080099
:100210007D1F0D3D4F477B373038000600151D67A9
:1002200073055B0F1C000000276D4E007800004D29
:10023000465374657070657220646F6573206E6FCD
:10024000742066697420696E204D656D6F72790047
:100250005374657070657220646F6573206E6F747F
:100260002066697420696E204D656D6F727921007A
:10027000446576696365427566666572204F76658A
:1002800072666C6F7721004C6F6164696E672063E2
:100290006F6E666967206661696C656400000000C6
:1002A00000240027002A0000000000250028002B61
:1002B00000000000002300260029000404040404B8
:1002C0000404040202020202020303030303030103
:1002D00002040810204080010204081020010204DA
:1002E00008102000000008000201000003040700BD
:1002F0000000000000000000B12311241FBECFEF5A
:10030000D8E0DEBFCDBF11E0A0E0B1E0ECE6FEE555
:1003100002C005900D92A83FB107D9F727E0A8EFDA
:10032000B1E001C01D92A03DB207E1F711E0CDE7B9
:10033000D1E004C02197FE010E94182BCC37D107D1
:10034000C9F70E944A240C94342F0C940000AC018D
:100350001092BF0690918F0780918E07FA01BF011E
:10036000641B750B2091BF0630813093BF06931339
:1003700004C0921302C01092BF063081311104C034
:10038000921721F0CB0108953817D1F33196E7CFBA
:100390000F931F93CF93DF9380918307882309F4F2
:1003A00046C0D0E0C0E0813029F482E0809383072A
:1003B000C3ECD6E080918407882341F1209721F493
:1003C000C0918807D09189078E01CE010E94A701B4
:1003D000892B29F42196F80180818111F5CFF8014C
:1003E0008081882309F1C8010E94A701F801E80F64
:1003F000F91F8081882311F010823196F0938907CC
:10040000E0938807109387070093860780918607FB
:1004100090918707892B59F081E080938407DF91C1
:10042000CF911F910F91089510E000E0EBCF80E095
:10043000F6CF0E94C801882351F081E080938407A1
:100440008093850780918607909187070895109281
:10045000850790E080E00895833081F028F48130B2
:1004600099F08230A9F008958730A9F08830C9F05A
:100470008430B1F4809180008F7D03C08091800032
:100480008F7780938000089584B58F7784BD089519
:1004900084B58F7DFBCF8091B0008F778093B000C3
:1004A00008958091B0008F7DF9CFCF93DF93282FEF
:1004B00030E0F901ED51FD4F8491F901E153FD4F19
:1004C000D491F901E554FD4FC491CC23A1F08111E1
:1004D0000E942C02EC2FF0E0EE0FFF1FEF54FD4FB7
:1004E000A591B491EC91ED2381E090E009F480E0D6
:1004F000DF91CF91089580E090E0FACF1F93CF93E2
:10050000DF93282F30E0F901ED51FD4F8491F9017F
:10051000E153FD4FD491F901E554FD4FC491CC2333
:10052000A9F0162F81110E942C02EC2FF0E0EE0FA3
:10053000FF1FE955FD4FA591B4918FB7F894EC9149
:10054000111108C0D095DE23DC938FBFDF91CF91CE
:100550001F910895DE2BF8CFCF93DF9390E0FC013D
:10056000E153FD4F249185549D4FFC0184918823D4
:10057000C9F090E0880F991FFC01E356FD4FA5914B
:10058000B491FC01E955FD4FC591D49161110DC0A5
:100590009FB7F8948C91209582238C93888128238F
:1005A00028839FBFDF91CF910895623051F49FB7A8
:1005B000F8943C91822F809583238C93E8812E2B95
:1005C000EFCF8FB7F894EC912E2B2C938FBFEACFFF
:1005D0001F93CF93DF93182FEB0161E00E94AC02D1
:1005E000209739F460E0812FDF91CF911F910C9417
:1005F0007E02CF3FD10511F461E0F5CFE12FF0E0AD
:10060000ED51FD4FE491E33031F140F4E130B1F0D0
:10061000E230E1F0C038D1057CF7E4CFE73029F1D2
:10062000E83059F1E430B1F7809180008062809326
:100630008000D0938B00C0938A0004C084B580688A
:1006400084BDC7BDDF91CF911F91089584B58062AD
:1006500084BDC8BDF7CF8091800080688093800002
:10066000D0938900C0938800EDCF8091B00080685E
:100670008093B000C093B300E5CF8091B00080625A
:100680008093B000C093B400DDCF8E3008F08E5060
:100690008770806480937C0080917A00806480936E
:1006A0007A0080917A0086FDFCCF8091780090914D
:1006B000790008953FB7F89480917604909177047B
:1006C000A0917804B091790426B5A89B05C02F3F6E
:1006D00019F00196A11DB11D3FBFBA2FA92F982F68
:1006E0008827BC01CD01620F711D811D911D42E063
:1006F000660F771F881F991F4A95D1F708952FB766
:10070000F8946091720470917304809174049091D4
:1007100075042FBF0895DC01ED91FC910190F081EB
:10072000E02D0994AF92BF92CF92DF92EF92FF92A9
:100730000F931F93CF93DF936C017B018B01040F09
:10074000151FEB015E01AE18BF08C017D10759F0A5
:100750006991D601ED91FC910190F081E02DC601E7
:100760000995892B79F7C501DF91CF911F910F91E1
:10077000FF90EF90DF90CF90BF90AF900895FC0175
:10078000538D448D252F30E0842F90E0821B930BF6
:10079000541710F0CF96089501970895FC01918D9C
:1007A000828D981779F0A28DAE0FBF2FB11D5D9687
:1007B0002C91828D8F5F60E60E94F82A928F822FA3
:1007C00090E008958FEF9FEF0895FC01918D828D49
:1007D000981731F0828DE80FF11D858D90E0089516
:1007E0008FEF9FEF0895FC01918D228D892F90E06E
:1007F000805A9F4F821B910960E670E00E94042B93
:1008000008958DEF95E00E94F30321E0892B09F410
:1008100020E0822F089580E090E0892B29F00E944B
:10082000010481110C9400000895FC01A48DA80F0F
:10083000B92FB11DA358BF4F2C91848D90E0019624
:100840008F739927848FA689B7892C93A089B18942
:100850008C91837080648C93938D848D981306C0E3
:100860000288F389E02D80818F7D80830895EF9247
:10087000FF920F931F93CF93DF93EC0181E0888F5A
:100880009B8D8C8D98131AC0E889F989808185FF2A
:1008900015C09FB7F894EE89FF896083E889F989CC
:1008A00080818370806480839FBF81E090E0DF91CE
:1008B000CF911F910F91FF90EF900895F62E0B8D21
:1008C00010E00F5F1F4F0F731127E02E8C8D8E11DC
:1008D0000CC00FB607FCFACFE889F989808185FF43
:1008E000F5CFCE010E941504F1CFEB8DEC0FFD2F5B
:1008F000F11DE358FF4FF0829FB7F8940B8FEA8900
:10090000FB8980818062CFCFCF93DF93EC01888D0C
:100910008823B9F0AA89BB89E889F9898C9185FD7A
:1009200003C0808186FD0DC00FB607FCF7CF8C9108
:1009300085FFF2CF808185FFEDCFCE010E941504A7
:10094000E9CFDF91CF91089508952091FE03260FFE
:100950003327331F21323105ECF42091A004FC0130
:1009600090E080E0243069F082E00895A091FE03D9
:100970002191AC0144525C4FA40FB52FB11D2C93B3
:100980000196861798F38091FE03680F6093FE032B
:1009900080E0089581E008951092A00481E08093A2
:1009A0009F0410927A0461E082E10E947E0261E07D
:1009B00083E10E947E02E9EBF0E080818E7F8083FC
:1009C00080818D7F808388E48093B80085E4809364
:1009D000BC000895CF93DF9391E09093DB038823CD
:1009E000B9F0C091B800D091BA008091BC008A7B68
:1009F0008093BC0060E082E10E947E0260E083E1BF
:100A00000E947E020E94CC04D093BA00C093B8002A
:100A1000DF91CF9108958F929F92AF92BF92CF9224
:100A2000DF92EF92FF920F931F93CF93DF93D091BA
:100A3000C904D13208F0D7C0182FC091C8040E9451
:100A40005A036B017C018091A00481116BC082E08C
:100A50008093A00410939F048FEF80939E041092C4
:100A60009D04D0939C04A8EAB4E0ECE7F4E080E0B5
:100A7000D81391C010927B0480917B04CC0FC82BBB
:100A8000C0937B0480917A04813009F088C0109271
:100A90007A040E945A036B017C0180917B0480934D
:100AA000BB008091A2049091A304A091A404B091F2
:100AB000A504892B8A2B8B2BA1F00E945A0300914D
:100AC000A2041091A3042091A4043091A5046C19F0
:100AD0007D098E099F09061717072807390708F4AB
:100AE00042C08091BC0083FDD8CF85EC8093BC00D0
:100AF0000E945A036B017C018091A004823009F4AA
:100B000050C080919E048F3F09F46FC080919E0475
:100B1000803209F46CC080919E04803309F469C06E
:100B200084E026C08091A2049091A304A091A40423
:100B3000B091A504892B8A2B8B2B09F484CF0E94BA
:100B40005A038090A2049090A304A090A404B090B3
:100B5000A5046C197D098E099F0986169706A806BB
:100B6000B90608F070CF8091A1040E94EA0485E0E4
:100B70001092A7041092C9041092A604DF91CF919D
:100B80001F910F91FF90EF90DF90CF90BF90AF90AB
:100B90009F908F9008959D9191938F5F69CF85EE7F
:100BA000A5CF8091A2049091A304A091A404B09138
:100BB000A504892B8A2B8B2B09F49ECF0E945A0304
:100BC0000091A2041091A3042091A4043091A504E3
:100BD0006C197D098E099F09061717072807390721
:100BE00008F08ACFC0CF81E0C3CF80E0C1CF82E0E0
:100BF000BFCF83E0BDCF81E00C940B05089508952D
:100C00000895E091DA038091D903E81730F4F0E019
:100C1000E754FC4F808190E008958FEF9FEF089597
:100C20009091DA038091D9032FEF3FEF981748F4A2
:100C3000E92FF0E0E754FC4F208130E09F5F909374
:100C4000DA03C90108958091D9039091DA03891BD1
:100C5000990B0895CF92DF92EF92FF920F931F931B
:100C6000CF93DF937C01CB018A012091A60422233C
:100C700089F0EB016B01C40ED51ECC15DD0569F0C2
:100C80006991D701ED91FC910190F081E02DC701B0
:100C90000995F3CF642F0E94A504C801DF91CF917D
:100CA0001F910F91FF90EF90DF90CF900895CF9319
:100CB000DF931F92CDB7DEB769832091A60422236C
:100CC000F9F02091C904203258F021E030E0FC0115
:100CD0003383228390E080E00F90DF91CF910895DD
:100CE0008091A704E82FF0E0E855FB4F99819083AD
:100CF0008F5F8093A7048093C90481E090E0ECCFDC
:100D000061E0CE0101960E94A504F7CFCF93C82FD2
:100D1000682F646088EE95E00E9457066C2F70E0A3
:100D20006B7F88EE95E0CF910C9457060F931F933D
:100D3000CF93DF938C01C62FD42FFC01848191E0E7
:100D40009093A6048093C8041092A7041092C9043B
:100D5000862F807F842B9585892B0E948606F0E163
:100D6000CF9FC0011124F8019585892B8D2B0E94FE
:100D70008606DF91CF911F910F910C94FB05CF93C5
:100D8000DF93CDB7DEB728970FB6F894DEBF0FBE5E
:100D9000CDBF28E0EFE3F1E0DE01119601900D9266
:100DA0002A95E1F7FC012385241710F44FEF420F39
:100DB00050E0440F551F21E030E02C0F3D1F420F43
:100DC000531FFA012081620F606840E028960FB639
:100DD000F894DEBF0FBECDBFDF91CF910C94960685
:100DE000CF93DF93EC0140E061E00E9496068BE335
:100DF0009FE10197F1F78985882339F040E060E0B1
:100E0000CE01DF91CF910C94BF06DF91CF91089571
:100E100041E00E94960681E090E00895FC01248163
:100E200031E03093A6042093C8041092A7041092D6
:100E3000C904607F8585862B0E9486060C94FB057D
:100E4000AF92BF92CF92DF92EF92FF920F931F93D8
:100E5000CF93DF936C01FC01848191E09093A60411
:100E60008093C8041092A7041092C904EB01042FC8
:100E700010E05B01A00EB11EF12CEE24E394CA1524
:100E8000DB0541F18991F60195859160807F892B81
:100E90000E948606FE0131972081F0E12F02900129
:100EA0001124F60185858160822B0E948606F394C9
:100EB000F7E0FF1520F780E00E940B05F601848122
:100EC000E092A6048093C8041092A7041092C9046B
:100ED000F12CD5CF0E94FB05C8010197DF91CF917E
:100EE0001F910F91FF90EF90DF90CF90BF90AF9048
:100EF000089590E080E00895CF93DF93FC01238173
:100F0000222359F1EC0161E084810E94AC0261E08E
:100F10008D810E94AC028B81843011F08830B1F455
:100F200061E08E810E94AC0261E08F810E94AC0280
:100F30008FA58F3F91F061E00E94AC026EA581E029
:100F400068278FA5DF91CF910C947E02833011F03A
:100F5000863071F761E08E81E9CFDF91CF910895FE
:100F6000CF93DF93FC0123812223A9F0EC010190B0
:100F7000F081E02D0480F581E02D60E009958FA5DA
:100F80008F3F49F061E00E94AC026EA58FA5DF9112
:100F9000CF910C947E02DF91CF910895DC01ED9109
:100FA000FC9124813581477055276627772741506A
:100FB000510961097109473051056105710560F4F6
:100FC000FA01EB51F84F0C94182BEF07F107F307D8
:100FD000F507F707F907FB0761E0F901099465E0F8
:100FE000FCCF64E0FACF66E0F8CF62E0F6CF6AE0CB
:100FF000F4CF68E0F2CF69E0F0CFCF93DF93EC015C
:10100000CB01BA0126E030E040E050E00E944E2AD9
:10101000623071058105910589F16CF461157105E6
:1010200081059105D1F06130710581059105F9F0D7
:10103000DF91CF910895643071058105910561F1CB
:1010400024F1653071058105910591F7E881F981F9
:101050000480F581E02D66E006C0E881F981048016
:10106000F581E02D64E0CE01DF91CF910994E88114
:10107000F9810480F581E02D65E0F5CFE881F98103
:101080000480F581E02D61E0EECFE881F9810480F4
:10109000F581E02D63E0E7CFE881F9810480F581F7
:1010A000E02D62E0E0CFDC01ED91FC910480F58160
:1010B000E02D43705527662777274230510561059B
:1010C000710571F0433051056105710559F04130EA
:1010D00051056105710511F065E0099466E0FDCFE9
:1010E0006AE0FBCF69E0F9CFCF93DF93EC01CB014E
:1010F000BA0123E030E040E050E00E944E2A613027
:1011000071058105910599F06230710581059105A0
:10111000A9F0672B682B692BC1F4E881F981048061
:10112000F581E02D64E0CE01DF91CF910994E88153
:10113000F9810480F581E02D61E0F5CFE881F98146
:101140000480F581E02D62E0EECFDF91CF9108952C
:10115000DC01ED91FC910480F581E02D4370552771
:1011600066277727423051056105710571F04330DC
:1011700051056105710559F0413051056105710551
:1011800011F062E0099463E0FDCF61E0FBCF60E025
:10119000F9CFCF93DF93EC01E881F9810480F581E9
:1011A000E02D8A8160E0811162E0CE010995E8813D
:1011B000F9810480F581E02D8A8161E0811163E08D
:1011C000CE0109958CA59DA58230910538F0880F38
:1011D000991F880F991F05970197F1F7E881F98109
:1011E0000480F581E02D8A8160E0811162E0CE010A
:1011F000DF91CF910994CF93DF93EC0120E030E0B1
:10120000A9016C897D898E899F890E94332C1816CB
:101210002CF4E8A9F9A9DF91CF910994EAA9FBA9D7
:10122000FACFCF92DF92EF92FF920F931F93CF935B
:10123000DF93DC011396CC91C43039F0C83059F1FA
:10124000C33019F0C63049F1C2E08C010C5F1F4F6A
:10125000F12CE12CC62ED12CD1E0F8016481C6011D
:101260000E2C02C0959587950A94E2F780FD6D27B4
:101270000F5F1F4F80810E947E02BFEFEB1AFB0AB7
:10128000EC1658F3DF91CF911F910F91FF90EF90E3
:10129000DF90CF900895C4E0D8CFC3E0D6CFDC0173
:1012A0001396EC911397E93008F038C0F0E0E55A56
:1012B000F64F0C94182B64096A09700976097C09A9
:1012C0008E0982098E098809ED91FC910084F185CF
:1012D000E02D0994ED91FC910284F385E02DF9CF86
:1012E000ED91FC910484F585E02DF3CFED91FC9117
:1012F0000684F785E02DEDCFED91FC910088F18912
:10130000E02DE7CFED91FC910288F389E02DE1CF4C
:10131000ED91FC910488F589E02DDBCF08954F9283
:101320005F926F927F928F929F92AF92BF92CF9275
:10133000DF92EF92FF920F931F93CF93DF93EC0115
:10134000C888D988EA88FB888C859D85AE85BF854D
:10135000C81AD90AEA0AFB0A6C897D898E899F8995
:101360009B01AC010E947A294B015C016C8D7D8D43
:101370008E8D9F8D9B01AC010E941F2B9B01AC01A8
:10138000C501B4010E948B2B0E94FD2BC114D10416
:10139000E104F10409F0B1C06230710581059105E5
:1013A0000CF0CBC01CA21DA21EA21FA21C8A1D8A6B
:1013B0001E8A1F8A1CAA1DAA1EAA1FAADF91CF91EE
:1013C0001F910F91FF90EF90DF90CF90BF90AF9063
:1013D0009F908F907F906F905F904F900895101620
:1013E000110612061306B4F46C157D058E059F05D3
:1013F0001CF42A812111A1C09B01AC0188279927E7
:10140000DC01821B930BA40BB50B8CAB9DABAEAB7D
:10141000BFAB93C0011511052105310509F48DC03D
:101420006C157D058E059F050CF087C08A81882389
:1014300009F483C030952095109501951F4F2F4FCB
:101440003F4F0CAB1DAB2EAB3FAB77C00115110569
:101450002105310509F471C08824992454018C18A0
:101460009D08AE08BF08681579058A059B050CF034
:1014700064C08A81811161C0DDCFCCACDDACEEAC43
:10148000FFACA7019601C701B6010E941F2B2B01DB
:101490003C01C501B4010E941B2920E030E040E876
:1014A00050E40E947A2920E030E040E85FE30E94A7
:1014B0001F2B9B01AC01C301B2010E948B2B9B012E
:1014C000AC01C701B6010E941E2B3B016C01FE015D
:1014D000E05CFF4FE080F180028113819701A80159
:1014E0000E94332C181614F473018601C701D80129
:1014F0008CAF9DAFAEAFBFAF3AC00CA91DA92EA94E
:101500003FA91C141D041E041F040CF468CF101600
:101510001106120613060CF099CF00271127980127
:101520000C191D092E093F096017710782079307DF
:101530000CF062CF2A8121115FCF8CA89DA8AEA8A4
:10154000BFA881149104A104B10409F096CF88AD1D
:1015500099ADAAADBBAD8CAF9DAFAEAFBFAF81E0D3
:101560001C141D041E041F040CF080E08A833FEF4E
:10157000831A930AA30AB30A8CAA9DAAAEAABFAA89
:10158000CCACDDACEEACFFACC701B6010E94042CC4
:101590006CA37DA38EA39FA3A701960160E074E2D4
:1015A00084E799E40E948B2B6C8B7D8B8E8B9F8BB9
:1015B0002A81211103CF90586C8B7D8B8E8B9F8B52
:1015C000FDCE8F929F92AF92BF92EF92FF920F93B8
:1015D0001F93CF937C018B01C42F0E947F03F801DE
:1015E00080809180A280B380DC01CB0188199909A9
:1015F000AA09BB094C2F50E070E060E08417950702
:10160000A607B70748F0F70109950E947F03F80184
:101610006083718382839383CF911F910F91FF9099
:10162000EF90BF90AF909F908F900895209191037D
:1016300030919203280F311D81E02D32314008F0A6
:1016400080E00895FC0184818823E1F0818181118B
:1016500019C081E0818382819381FC014089518995
:1016600062897389403659476E4F7F4F59F040E683
:1016700059E76EEF7FEFFC01408B518B628B738BD0
:101680000C948F0908954F925F926F927F928F9280
:101690009F92AF92BF92DF92EF92FF920F931F93B0
:1016A000CF93DF93D12C08E810E0B8E5EB2EB2E041
:1016B000FB2EC4EB4C2E512C612C712C80916402BA
:1016C000D81608F096C0ED2DF0E0EE0FFF1FE05A9F
:1016D000FD4FC081D18189899A89AB89BC894D85AB
:1016E0005E856F85788984179507A607B70709F483
:1016F0007AC0481759076A077B070CF076C0019734
:10170000A109B109898B9A8BAB8BBC8BA989BA894A
:10171000A03282E0B807ACF52B854801821A910807
:1017200027FD9394880C991C880C991C092C000C9B
:10173000AA08BB082C85C701821B910927FD939538
:101740009C01220F331F220F331F032E000C440B6A
:10175000550B281939094A095B09A53BB10514F055
:10176000A4EBB0E0B7FF02C0B0E0A0E00E94782A8E
:10177000A30192010E944E2A820E931EA41EB51E42
:10178000D401EA85EC3078F52B85C801821B9109DC
:1017900027FD93959C01220F331F220F331FA217A1
:1017A000B3077CF02C85C701821B910927FD939517
:1017B0009C01220F331F220F331FA217B3070CF413
:1017C0009D0122503109220F331F4FB7F8948E2FFD
:1017D00090E0FC01EE0FFF1FE80FF91FED56FC4FE4
:1017E000328321834FBFD39469CF0196A11DB11DD0
:1017F00089CFDF91CF911F910F91FF90EF90DF90F4
:10180000BF90AF909F908F907F906F905F904F9020
:101810000895EF92FF921F93CF93DF93EC01162F61
:101820008C8180FF10C0603170F46D837E0184E094
:10183000E80EF11C612F617089910E947E0216955D
:10184000EC16FD06B9F7DF91CF911F91FF90EF9055
:101850000895E0915302F0915402309729F0DC0191
:101860004D915C9181E00994089541110BC0E09184
:101870005302F0915402309729F0DC014D915C91B4
:1018800080E009940C94290C4F925F926F927F92A2
:101890008F929F92AF92BF92CF92DF92FF920F935F
:1018A0001F93CF93DF93F12C80914D02F81608F02F
:1018B000EEC0EF2DF0E0EE0FFF1FE55CFD4FC081A5
:1018C000D1818A81882309F4B3C088810E9455029E
:1018D0008C0189810E9455026C010E947F034B019B
:1018E0005C0181E090E0CD2811F090E080E0880F6D
:1018F000991F21E0012B09F020E0922F982B4B8DAE
:101900005C8D6D8D7E8D95018401041B150B260B5E
:10191000370BB901A801453651056105710508F479
:1019200089C08885823008F485C08B8E9C8EAD8EF0
:10193000BE8E81508887EE859E1709F445C0888544
:1019400003E310E0873010F401E010E06D8524E03F
:10195000E202F0011124492F092E000C550BE42B53
:10196000F52BE158FE4F708170039001719F300D8F
:101970001124062E02C0220F331F0A94E2F7EF85CE
:10198000F8892E0F3F1F388B2F874C0F5D1FFA01F0
:1019900041854423C1F04B885C886D887E884F8ADE
:1019A000588E698E7A8E8B8A9C8AAD8ABE8A02C0D6
:1019B000359527956A95E2F73A8B298B8C3008F09C
:1019C0008BE08F5F88879E8709891A898D819E8128
:1019D0000817190769F19801281B390BC901E09113
:1019E0003902F0913A026901CC0CDD1C309709F400
:1019F0004BC04B815C812F5C3F4F23363105E0F5B6
:101A000097FD30C0688180E00995C00ED11E31E499
:101A1000C3163FE1D30654F08F85988983709927C8
:101A2000988B8F871A8A198A10E000E01E830D8335
:101A3000F3943ACF4F89588D698D7A8D9501840141
:101A4000041B150B260B370BB901A801453F51406C
:101A50006105710508F46FCF8B8E9C8EAD8EBE8EA6
:101A6000188669CF698182E00995C8018C199D09A2
:101A7000803C904E8CF2DACF97FD03C0688181E004
:101A8000C3CF698183E0F0CF37FDEFCFBECFDF91C9
:101A9000CF911F910F91FF90DF90CF90BF90AF90AB
:101AA0009F908F907F906F905F904F900895DC0192
:101AB000842F2091370230913802232B49F0E09196
:101AC0003502F0913602309719F04D915C910994EE
:101AD00008955F926F927F928F929F92AF92BF9282
:101AE000CF92DF92EF92FF920F931F93CF93DF93EA
:101AF0001F92CDB7DEB7912CCC24C394D12C80910A
:101B00003402981608F096C0A0903702B0903802C0
:101B1000A114B10409F487C0E92DF0E0EE0FFF1F16
:101B2000E05DFD4F00811181F801838160E1862E27
:101B300081FF02C058E0852E82FD49C0F5018581F4
:101B40008683F12CE12C8A94682DC5010E94090C32
:101B5000F80182810E9455028983F80182810E94E6
:101B600055028983EE0CFF1C298181E090E0211150
:101B700002C090E080E0E82AF92A8110E4CFF50164
:101B80006681C5010E94090CF801A480B580EA14A1
:101B9000FB0409F448C0838138E0532E81FD02C064
:101BA00020E1522EAE24BF243701812CA0FE06C0B6
:101BB000462D4170682DC8010E94570DB694A79418
:101BC0007694679483945810F1CFF8012AC0F801F5
:101BD00082810E9455023C0141E0892B09F440E0DA
:101BE000F5018581682D0E94F82A692F760102C0CF
:101BF000EE0CFF1C9A95E2F7F801848195818E2105
:101C00009F2121E0892B09F420E0421719F0C80137
:101C10000E94570DF80184819581672831F0E82AE8
:101C2000F92AF582E48293946ACFE094F094E82252
:101C3000F922CBCF0F90DF91CF911F910F91FF90A1
:101C4000EF90DF90CF90BF90AF909F908F907F905C
:101C50006F905F900895DC01E0912E02F0912F02C9
:101C6000309761F013968C911397882339F04D913A
:101C70005C91119712966C9181E009940895DC01B2
:101C8000E0912E02F0912F02309759F013968C912B
:101C90001397811106C04D915C91119712966C912A
:101CA000099408951F93CF93DF9310E080912D0244
:101CB0001817F0F4E12FF0E0EE0FFF1FE75FFD4F84
:101CC000C081D1818A810E9455029B81891751F080
:101CD00091E0811101C090E09B83811105C0CE018C
:101CE0000E943F0E1F5FE2CFCE010E942B0EFACF63
:101CF000DF91CF911F9108951F93CF93DF9310E051
:101D0000809108021817D0F5E12FF0E0EE0FFF1FC9
:101D1000E450FE4FC081D181E88DF0E03396EE0FA4
:101D2000FF1FEC0FFD1F8E899F8920813181821B4F
:101D3000930B9F8B8E8B8A810E944503E88DF0E088
:101D40003396EE0FFF1FEC0FFD1F91838083E88D0C
:101D5000F0E03396EE0FFF1FEC0FFD1F8E899F8979
:101D600020813181820F931F9F8B8E8B888D8F5F97
:101D7000888F888D8770888F1F5FC2CFDF91CF914A
:101D80001F910895CF93C0E080910802C817B8F55D
:101D9000EC2FF0E0EE0FFF1FE450FE4FA081B18169
:101DA00056968D919C91579723E0969587952A9505
:101DB000E1F713962D913C911497AC01421B530B04
:101DC0009A0157FF03C031952195310915964C9121
:101DD00015974217130609F084F414969C938E937A
:101DE0001397E091FA01F091FB01309731F04D919A
:101DF0005C91119712966C910995CF5FC5CFCF91E9
:101E000008950E947F0360934A0470934B0480936B
:101E10004C0490934D040895FF920F931F93CF931A
:101E2000DF93F82E062FC7E0D0E010E061E0802FAE
:101E30000E947E028F2D0E9455020C2E01C0880F39
:101E40000A94EAF7182B60E0802F0E947E02219707
:101E500068F7812FDF91CF911F910F91FF90089527
:101E60009F92AF92BF92CF92DF92EF92FF920F9329
:101E70001F93CF93DF9300E080915202081708F080
:101E800041C0E02FF0E0EE0FFF1FE25BFD4FC0818D
:101E9000D18161E08B810E947E0261E08A810E9493
:101EA0007E0210E08D81181738F56B818C810E94BD
:101EB0000C0FC82E5E01A10EB11CF501D7808D1547
:101EC000C9F0912E990C990C990CE82EF12C8D2DBE
:101ED0008E2580FF07C04E2D4170692D6F0DCE01FC
:101EE0000E94350CD694E694F394F8E0FF12EFCFFD
:101EF000F501C7821F5FD6CF60E08A810E947E0213
:101F00000F5FBACFDF91CF911F910F91FF90EF90AC
:101F1000DF90CF90BF90AF909F9008957F928F9267
:101F20009F92AF92BF92CF92DF92EF92FF920F9368
:101F30001F93CF93DF93C0E080912D02C81760F408
:101F4000EC2FF0E0EE0FFF1FE75FFD4F80819181E6
:101F50000E942B0ECF5FF0CFC0E080912D02C817FA
:101F600060F4EC2FF0E0EE0FFF1FE75FFD4F808184
:101F700091810E943F0ECF5FF0CF10E0809152021E
:101F8000181708F071C0E12FF0E0EE0FFF1FE25BC1
:101F9000FD4FC081D18161E08B810E947E0261E0B2
:101FA0008A810E947E027E0187E0E80EF11C5701C3
:101FB000D12CC12C8D818C151D0461F05CF06B81DE
:101FC0008C810E940C0FF50181935F01FFEFCF1A06
:101FD000DF0AF0CF60E08A810E947E024701712C07
:101FE000D12CC12C8D818C151D04D1F0CCF0F401C5
:101FF00081914F0100E0A82EB12C80FF05C0672D14
:10200000600FCE010E94290CB594A7948A2D0F5F12
:10201000083089F7FFEFCF1ADF0A88E0780EE2CFA9
:10202000D12C912C812C8D8188151904D9F0D4F0F4
:10203000F70181917F0100E0A82EB12C80FD06C040
:1020400040E06D2D600FCE010E94350CB594A79431
:102050008A2D0F5F083081F7FFEF8F1A9F0A88E003
:10206000D80EE1CF1F5F8ACFDF91CF911F910F91E3
:10207000FF90EF90DF90CF90BF90AF909F908F90A8
:102080007F900C94010F0F931F93CF93DF93082F32
:10209000162FD42FC8E06D2F661F6627661F802F6E
:1020A0000E947E02DD0F61E0812F0E947E0260E0CF
:1020B000812F0E947E02C15071F7DF91CF911F9155
:1020C0000F910895EF92FF920F931F93CF93DF9399
:1020D00000D0CDB7DEB78C0149832A83660F771F06
:1020E000F801E688F788EE0CFF1CCF01801B910BEE
:1020F0008E159F0514F41192F8CF8981F801E60F2F
:10210000F71F81838A81808360E0F80184890E94BF
:102110007E021E141F046CF4F1E0EF1AF108F801BE
:10212000EE0DFF1D4081F801628980890E944310F5
:10213000F0CF61E0F80184890F900F90DF91CF918B
:102140001F910F91FF90EF900C947E0277FD0DC0D0
:10215000FC0126893789621773073CF420E041119E
:1021600001C021E04CE00C9462100895FF920F939F
:102170001F93CF93DF93F82EC0E080915D02C817C4
:10218000B8F4EC2FF0E0EE0FFF1FE25AFD4F008194
:102190001181D0E0F801808D8D1741F06D2F70E036
:1021A0004F2DC8010E94A610DF5FF4CFCF5FE5CFAF
:1021B000DF91CF911F910F91FF9008950F931F937F
:1021C000CF93DF93FC01208D2223F9F06217E8F40E
:1021D000062F10E04423B1F0EC0186899789081797
:1021E00019073CF42FEF240F4AE0B801CF010E94F9
:1021F000621040E0B801CE01DF91CF911F910F91A5
:102200000C94A61041E0B801F7CFDF91CF911F9158
:102210000F910895FF920F931F93CF93DF93EC01DB
:1022200060E088810E947E02FB800F2D10E00C5F31
:102230001F4F0C0F1D1FFF2049F0F80142918F0125
:1022400069818A810E944310FA94F5CF61E0888108
:10225000DF91CF911F910F91FF900C947E020E940D
:10226000C801882359F081E0809384078093850713
:1022700080918607909187070C9486281092850795
:1022800090E080E008951F93CF93DF930E942F1179
:10229000EC010E942F11182F0E942F11CC0FDD1F6F
:1022A000C25ADD4F482F612F888199810E94DE102C
:1022B000DF91CF911F910C94010F0C9443117F92E9
:1022C0008F929F92AF92BF92CF92DF92EF92FF9246
:1022D0000F931F93CF93DF930E942F11EC010E9465
:1022E0002F118C010E9419024C010E942F115C01D8
:1022F0000E942F11CC0FDD1FC25ADD4FE880F980FC
:10230000F701208D222381F1C7E0D0E0712C6C0110
:10231000DD241127BB244C2F4F5F96010C2E02C0E9
:10232000359527950A94E2F720FF1CC0F70126890E
:10233000378902171307ACF4F401E70DF11DE081B2
:10234000F0E0E155FE4F2491B5010C2E02C07595C9
:1023500067950A94E2F760FD2068B801C7010E9402
:10236000621073942197B8F6DF91CF911F910F916E
:10237000FF90EF90DF90CF90BF90AF909F908F90A5
:102380007F900C94010FCF930E942F11C82F0E94B1
:102390002F11BC018C2F0E94E802CF910C94010FE9
:1023A0000E942F11209154042817190661F05CF047
:1023B000880F991FFC01E05BFB4F808191810E9497
:1023C000220B0C94010F08950E942F1120915404A8
:1023D0002817190611F10CF1880F991FFC01E05B19
:1023E000FB4F0190F081E02D0280F381E02D1486F7
:1023F000158616861786108A118A128A138A14AADD
:1024000015AA16AA17AA14A215A216A217A2148A10
:10241000158A168A178A0C94010F08958F929F923D
:10242000AF92BF92CF92DF92EF92FF921F93CF9322
:10243000DF930E942F11EC010E942F11BC018091AB
:1024400064028C171D0609F00CF4B0C0CC0FDD1F20
:10245000C05ADD4F0990D881C02DCD80DE800D2C73
:10246000000CEE08FF0889809A80092C000CAA084D
:10247000BB082F813885032E000C440B550B2C19FB
:102480003D094E095F09072E000C880B990B68194E
:1024900079098A099B090E94E82A2B813C81032E35
:1024A000000C440B550B281939094A095B090E9495
:1024B0004E2ABA01A9014C0D5D1D6E1D7F1D052E12
:1024C000000C660B770B8D859E85AF85B8898417C8
:1024D0009507A607B70709F45CC04D875E876F872D
:1024E000788B8985811155C08A858C3008F04FC062
:1024F000188161E0812F0E94AC028A85282F30E08C
:10250000F901EE0FFF1FE20FF31FED56FC4F1F7393
:102510009081907C912B90831B861C862CE0622FEF
:102520000E94F82A829FB001112430E020E0AB0124
:10253000420F531FFA01EE0FFF1FE40FF51FED5678
:10254000FC4F908196FD16C02F5F3F4F2C30310518
:1025500071F781110FC01092800082E0809381009A
:102560001092850010928400B19A80916F00826071
:1025700080936F00EA858E2F90E0FC01EE0FFF1F25
:10258000E80FF91FED56FC4F80818064808381E065
:102590008987DF91CF911F91FF90EF90DF90CF90CF
:1025A000BF90AF909F908F900C94010FDF91CF91CF
:1025B0001F91FF90EF90DF90CF90BF90AF909F90D2
:1025C0008F900895EF92FF920F931F93CF93DF9315
:1025D0000E942F118C010E9419027C01EC01FC0168
:1025E000DE018081882349F090918F07891301C013
:1025F0003196808189933196F3CFAE17BF0710F4DF
:102600001D92FBCF000F111FF801EB5AFD4F008107
:102610001181F80186858823B1F0C0E0F801818935
:102620008C1789F04C2F60E0C8010E94BF06F801AA
:102630004089B701C49F600D711D1124C8010E941B
:102640002007CF5FEBCFDF91CF911F910F91FF90CC
:10265000EF900C94010F2091FB053091FC0582173F
:10266000930710F40C94382A80E00895EF92FF92BB
:102670000F931F93CF93DF938B01040F151FEB0173
:102680007C01E61AF70AC7018C0F9D1F0E942B13CD
:102690008993C017D107B9F7DF91CF911F910F919F
:1026A000FF90EF9008950F931F93CF93DF938C01CA
:1026B000EB01F801808191819C012F5F3F4F3183B5
:1026C00020830E942B1328813981A9014F5F5F4F1E
:1026D0005983488326533B4FF901808328813981F0
:1026E0002C3D310560F48A3321F727533B4FF90124
:1026F000108281E0DF91CF911F910F91089580E0CA
:10270000F9CFEF92FF920F931F93CF93DF93EC01DA
:10271000E090FB05F090FC05888199818C010F5FAA
:102720001F4F198308830E942B13E016F10650F007
:102730008A3391F781E0DF91CF911F910F91FF9044
:10274000EF90089580E0F7CFAF92BF92CF92DF92E3
:10275000EF92FF920F931F93CF93DF9300D000D09F
:10276000CDB7DEB75C0119821A821B821C82CE01B2
:1027700001967C0110E000E06C01F50180819181FF
:102780009C012F5F3F4F318320830E942B13F70161
:102790008083F8018E3241F00F5F1F4F8FEFE81AF0
:1027A000F80A0430110549F7EC0DFD1D1082C60131
:1027B0000E9486280F900F900F900F90DF91CF917D
:1027C0001F910F91FF90EF90DF90CF90BF90AF904F
:1027D0000895FB0101900020E9F73197AF01461BF6
:1027E000570BDC01ED91FC910280F381E02D0994FF
:1027F0008091BA068823A1F060918D0780918B07A4
:1028000090918C070E948B038091C206882341F02F
:102810006DEC71E080918B0790918C070E94E91319
:102820001092C1061092BA0680E008958F929F928E
:10283000AF92BF92EF92FF920F931F93CF93DF93CC
:10284000CDB7DEB7A1970FB6F894DEBF0FBECDBFF0
:102850007C01FA01CB0119A2223008F42AE08E0192
:102860000F5D1F4F822E912CB12CA12CBF01A50111
:1028700094010E94B72AF901CA016A300CF5605D23
:10288000D8016E938D01232B242B252B79F790E013
:1028900080E0109721F0BD01C7010E94E913A196C5
:1028A0000FB6F894DEBF0FBECDBFDF91CF911F9161
:1028B0000F91FF90EF90BF90AF909F908F900895F1
:1028C000695CDECFCF939091BA069923A9F0C82F07
:1028D00060918E0780918B0790918C070E948B03EB
:1028E0004C2F50E070E060E02AE080918B079091DF
:1028F0008C07CF910C941614CF9108959091BA063D
:10290000911110C091E09093BA069093C106482FA0
:1029100050E070E060E02AE080918B0790918C0796
:102920000C9416140895EF92FF920F931F93CF9378
:10293000DF939091BA0691112BC08B010E947E14F7
:102940008091BA068823E1F060918E0780918B0711
:1029500090918C070E948B03E0908B07F0908C077E
:10296000E801FE016491662359F0D701ED91FC91D5
:102970000190F081E02DC70109952196892B89F7F7
:10298000DF91CF911F910F91FF90EF900C94F8136E
:1029900080E0DF91CF911F910F91FF90EF9008950C
:1029A0000E947F0360934A0470934B0480934C040D
:1029B00090934D0468E670E085E00C9493141F93A7
:1029C000CF93DF9310922D0210924D021092490482
:1029D00080915D02882329F0E0915E02F0915F0210
:1029E000108E10925D0230916402C0E6D2E020E0C9
:1029F0003217D1F0A991B99119968C911997882322
:102A000089F01A96EC911A978E2F90E0FC01EE0F48
:102A1000FF1FE80FF91FED56FC4F80818F7B8083ED
:102A200019961C922F5FE4CF109264028091540497
:102A3000882361F0E0915004F091510410828230BB
:102A400028F0E0915204F091530410821092540443
:102A50009091F801E5E5F2E080E0981759F0A19136
:102A6000B1911E962C911E97222311F01E961C9256
:102A70008F5FF3CF1092F801109208029091F90144
:102A8000E9E5F2E080E0981759F0A191B19118962C
:102A90002C911897222311F018961C928F5FF3CF78
:102AA0001092F90190915202EEE4F2E080E0981762
:102AB00059F0A191B19116962C911697222311F0FD
:102AC00016961C928F5FF3CF1092520210E0E091A5
:102AD00034021E1798F4F0E0EE0FFF1FE05DFD4F8B
:102AE000C081D1818B8180FF07C062E08A810E9412
:102AF000AC028B818E7F8B831F5FE9CF10923402F3
:102B0000109224041092230410924F041092920306
:102B1000109291036CE670E085E0DF91CF911F91F8
:102B20000C9493146FE670E08FE00C949314209152
:102B3000910330919203820F932F911D90939203F2
:102B4000809391038C32914040F060E772E085E021
:102B50000E94931490E080E00895C9018B599D4F25
:102B60000895CF92DF92EF92FF920F931F93CF932E
:102B7000DF9390914D02993009F45EC07901142FD2
:102B8000C62ED82E8FE10E94160B81110DC06FE862
:102B900071E085E0DF91CF911F910F91FF90EF9051
:102BA000DF90CF900C9493148FE10E949715EC0165
:102BB000892B09F01A8200914D02E02FF0E0EE0F10
:102BC000FF1FE55CFD4FD183C0831E821D82FC8206
:102BD000EB82D882C98285E0819FF0011124EA59F5
:102BE000FE4FDE01199601900D928A95E1F762E0A1
:102BF0008D2D0E94AC0262E089810E94AC021E868B
:102C0000188A1F861A8A198A18861F8A188E198EA2
:102C10001A8E84EF91E0A0E0B0E08B8B9C8BAD8BA3
:102C2000BE8B81E08A838DEB96E190933A0280938C
:102C300039020F5F00934D02DF91CF911F910F91E9
:102C4000FF90EF90DF90CF90089581E080934F0444
:102C500062E770E081E10C949314CF93DF930E94BC
:102C6000010F8AE00E947E14809123049091240435
:102C7000892B91F18BE390E00E942B13C82F809158
:102C8000BA06882379F060918E0780918B07909126
:102C90008C070E948B036C2F80918B0790918C077F
:102CA0000E948B03C1E0D0E0809123049091240422
:102CB000C817D90788F4CE01CB960E942B139091A8
:102CC000BA06992339F0682F80918B0790918C0771
:102CD0000E948B032196E8CFDF91CF910C94F813DB
:102CE000CF93DF932091BA062223A1F0EC016091EB
:102CF0008E0780918B0790918C070E948B03209701
:102D000049F0BE0180918B0790918C07DF91CF91A4
:102D10000C94E913DF91CF9108950E94010F8AE08E
:102D20000E947E1487E591E00E9470168BE091E08E
:102D30000E94701680E091E00E94701680ED91E094
:102D40000E9470160C94F8130F931F93CF93DF9388
:102D5000C82FD62F8A018DE10E947E14C8010E94DF
:102D600070168D2F0E9462148C2F0E946214DF91C6
:102D7000CF911F910F910C94F8130F931F93CF9342
:102D8000C82F8A0186E00E947E14C8010E94701636
:102D90008C2F0E946214CF911F910F910C94F81305
:102DA0000F931F93CF93DF93C82FD62F8A018EE105
:102DB0000E947E14C8010E9470168D2F0E9462141A
:102DC0008C2F0E946214DF91CF911F910F910C9470
:102DD000F8130F931F93CF93C82F8A0187E00E94A7
:102DE0007E14C8010E9470168C2F0E946214CF912D
:102DF0001F910F910C94F813CF92DF92EF92FF92F4
:102E0000CF93DF936C01EA018CE10E947E14CE0126
:102E10000E9470168091BA06882321F160918E0776
:102E200080918B0790918C070E948B03C0918B0738
:102E3000D0918C070D2C000CEE08FF082AE0B7019A
:102E4000A601F7FE0CC06DE2CE010E948B03442761
:102E50005527BA014C195D096E097F092AE0CE0198
:102E60000E941614DF91CF91FF90EF90DF90CF90EA
:102E70000C94F813FB0101900020E9F73197AF01A2
:102E8000461B570BDC01ED91FC910284F385E02D8C
:102E90000994CF92DF92EF92FF920F931F93CF93FB
:102EA000DF938C01EB01FC01D0886D2D70E0FE01F9
:102EB00001900020E9F7CF0101978C1B9D0B86172D
:102EC0009707B0F4681B790B76956795D82EC801E3
:102ED0000E94BF06CC2EEC2EFD2E8E2D8C198D154A
:102EE00048F4F70161917F01C8010E940807F5CFFE
:102EF00060E0EDCFDF91CF911F910F91FF90EF90A8
:102F0000DF90CF90089585ED8093BC008091A2045E
:102F10009091A304A091A404B091A5040796A11DCB
:102F2000B11D23E0B695A795979587952A95D1F77A
:102F30002091BC0024FD03C01092A004089540918C
:102F4000A2045091A3046091A4047091A504452BA0
:102F5000462B472B69F30097A105B10541F025E306
:102F60002A95F1F700000197A109B109E1CF8091FD
:102F7000A1040C94EA044F925F926F927F928F9219
:102F80009F92AF92BF92CF92DF92EF92FF92CF9338
:102F9000DF93EC016A017B0120E030E0A901CB0165
:102FA000B6010E94142987FF04C0F7FAF094F7F8DD
:102FB000F0948C8C9D8CAE8CBF8CA7019601C501C2
:102FC000B4010E941429882309F449C06CA97DA981
:102FD0008EA99FA90E941B292B013C01A7019601E4
:102FE000C501B4010E948B2B9B01AC01C301B2014E
:102FF0000E947A290E94FD2B6CAB7DAB8EAB9FAB00
:10300000A701960160E070E080E090E40E948B2BC5
:103010000E943E2C26E53EE04DE25FE30E947A29C5
:1030200020E034E244E759E40E947A2968AF79AF9E
:103030008AAF9BAFCC8EDD8EEE8EFF8ECE01DF9100
:10304000CF91FF90EF90DF90CF90BF90AF909F9087
:103050008F907F906F905F904F900C948F09DF91CD
:10306000CF91FF90EF90DF90CF90BF90AF909F9067
:103070008F907F906F905F904F9008958F929F9266
:10308000AF92BF92CF92DF92EF92FF920F931F9376
:10309000CF93DF9390915404923009F49DC0C22ED7
:1030A000D42EA62EB82E8AE00E94160B811111C0D4
:1030B00060E572E085E0DF91CF911F910F91FF9065
:1030C000EF90DF90CF90BF90AF909F908F900C9437
:1030D00093148AE00E9497157C01009711F0FC017F
:1030E0001082E0915404F0E0EE0FFF1FE05BFB4F15
:1030F000F182E08284E40E94160B81117AC06FE2B3
:1031000072E085E00E949314F0905404EF2DF0E0FB
:10311000EE0FFF1FE05BFB4FC080D180F601C28144
:10312000D38120E030E048EC53E4688D798D8A8DBE
:103130009B8D0E9414298823E9F180E090E0A8EC9F
:10314000B3E4888F998FAA8FBB8F80E090E4ACE1C5
:10315000B5E4FE01E05CFF4F80839183A283B383DB
:103160008CA99DA9AEA9BFA9181619061A061B0697
:103170000CF56C897D898E899F899B01AC010E9429
:103180007A294B015C016C8D7D8D8E8D9F8D9B010D
:10319000AC010E941F2B9B01AC01C501B4010E9430
:1031A0008B2B0E94FD2B6CAB7DAB8EAB9FABCE010E
:1031B0000E948F0940E050E068E474E4F6018281E7
:1031C00093810E94BB17101611061CF4C6010E94C1
:1031D000220BF394F0925404DF91CF911F910F9141
:1031E000FF90EF90DF90CF90BF90AF909F908F9027
:1031F000089584E4CA1072C0DB1070C00E94971555
:10320000EC01892B09F459C083E991E09983888303
:1032100081E08B831C861D861E861F86188A198A6C
:103220001A8A1B8A1C8A1D8A1E8A1F8A80E090E0E7
:10323000A0E8BFE3888F998FAA8FBB8F1C8E1D8E4D
:103240001E8E1F8E88A399A3AAA3BBA31CA21DA296
:103250001EA21FA221E030E03DA72CA72FEF2FA731
:1032600018A619A61AA61BA6DC82CD8224E02E83FE
:1032700025E02F831EA61CAA1DAA1EAA1FAA18AEEF
:1032800019AE1AAE1BAE1CAE1DAE1EAE1FAEFE01B9
:10329000E05CFF4F80839183A283B3831A821886F8
:1032A00019861A861B86CE010E947C0740E050E0FA
:1032B00060E87FE3CE010E94BB17F701D383C2838E
:1032C000048381E08583002321F062E0802F0E9447
:1032D000AC0281E0F7018083118216CF0E9497151E
:1032E000EC01892B51F383E991E09983888384E091
:1032F0008B831C861D861E861F86188A198A1A8A49
:103300001B8A1C8A1D8A1E8A1F8A80E090E0A0E822
:10331000BFE3888F998FAA8FBB8F1C8E1D8E1E8E48
:103320001F8E88A399A3AAA3BBA31CA21DA21EA2A1
:103330001FA221E030E03DA72CA72FEF2FA718A652
:1033400019A61AA61BA6CC82AD82BE82DF8292CFBE
:103350002F923F924F925F926F927F928F929F92A5
:10336000AF92BF92CF92DF92EF92FF920F931F9393
:10337000CF93DF9300D000D0CDB7DEB78091230488
:1033800090912404892B09F430C58BE390E09A8353
:1033900089831C821B82CE0101960E94A41388237C
:1033A00009F423C528EF222E25E0322E34EBA32E7C
:1033B000B12CEFEFE80FCE010196EE3008F09CC083
:1033C0000E2E000CFF0BE951F64E0C94182BF5193C
:1033D000F51B491A7F1A5A1BA51B191C061C811BB9
:1033E000901D421D001E7C1A6B1E0E94A413982E75
:1033F00080912D028231A1F184E00E94160B65E7D5
:1034000070E0882309F41AC4EB80FC8084E00E94F9
:1034100097158C01009789F0DC0112969C92129707
:10342000C70186539B4F11969C938E9381E0139610
:103430008C9362E0892D0E94AC0280912D02E82FCE
:10344000F0E0EE0FFF1FE75FFD4F1183008329EED1
:1034500036E130932F0220932E028F5F80932D024E
:10346000BE016D5F7F4FCE0101960E945313182F4E
:10347000CE0101960E94A413882309F4B3C411114C
:1034800098CF1092A50565E771E085E00E9493143E
:10349000ACC40E94A413F82E80914904823151F1EA
:1034A00082E00E94160B63E970E0882309F456C39A
:1034B00082E00E9497158C01009779F0FC01F08260
:1034C000118261E08F2D0E94AC02D80111966C919F
:1034D000119770E08C910E94E80280914904E82FD6
:1034E000F0E0EE0FFF1FEB5DFB4F118300838F5F5A
:1034F00080934904CE0101960E948113B8CF0E94A7
:10350000A413482ECE0101960E94A413682ECE016A
:1035100001960E94A413582ECE0101960E94A41376
:10352000882ECE0101960E94A413782E80915D0210
:10353000813001F389E10E94160B61EB70E0882372
:1035400009F40CC389E10E9497158C01009711F0D2
:10355000FC01108EE42C042C000CFF0890905D02FE
:10356000E92DF0E0EE0FFF1FE25AFD4F11830083BB
:10357000D8015196FC92EE925097852D550C990BDF
:1035800053969C938E935297862D660C990B559665
:103590009C938E935497E72DE150FF0B389708F4D6
:1035A0005CC088E090E0D80157969C938E93569724
:1035B00061E0842D0E94AC0261E0F80182890E94E2
:1035C000AC0261E0D80154968C910E94AC0261E09B
:1035D000F80184890E947E02D8015196FC92EE92F5
:1035E0005097F12CE12CF80186899789E816F906A5
:1035F000B4F520E04FE0B701C8010E946210D80185
:1036000056968D919C91E816F90634F427E04BE02C
:10361000B701C8010E94621020E049E0B701C8016B
:103620000E946210F80186899789E816F90664F409
:103630006624639420E0462DB701C8010E94621001
:103640006394F9E06F12F6CF41E0B701C8010E9420
:10365000A6102FEFE21AF20AC6CF872DA3CF708EE5
:10366000712CF801808D781608F5482D672DC8015A
:103670000E94DE10E72CF12C40E0B701C8010E9447
:10368000A610D80156968D919C91E816F90664F41F
:103690006624639420E0462DB701C8010E946210A1
:1036A0006394B9E06B12F6CF7394DBCF939490924E
:1036B0005D0220CF0E94A413F82ECE0101960E9435
:1036C000A413182FCE0101960E94A413082FCE0137
:1036D00001960E94A413E82ECE0101960E94A41325
:1036E0002E2DEE0C330B402F000F550B612F110FB9
:1036F000770B10E000E08F2DFF0C990B0E943E1815
:10370000F9CE0E94A413F82ECE0101960E94A413B4
:10371000182FCE0101960E94A413E82ECE01019627
:103720000E94A413982ECE0101960E94A413082E85
:10373000000C990B292D990C330B4E2DEE0C550BCB
:10374000612F110F770B8C01D6CF0E94A413182F75
:1037500080916402823009F4CDCE87E10E94160B7D
:1037600062ED70E0882309F4F9C187E10E949715A2
:10377000FC01892BB9F08091B7038C3098F591E06A
:10378000980F9093B703828790E0DC01AA0FBB1FCC
:10379000A80FB91FAD56BC4F88EB9BE012969C93C7
:1037A0008E93119780916402A82FB0E0AA0FBB1FDF
:1037B000A05ABD4FED93FC93118615861686178689
:1037C000108A118A128A138A148A12821182B48290
:1037D000A38216821582B086A78210838F5F8093A2
:1037E000640288CE8FEF8287DDCF0E94A413182F4A
:1037F000CE0101960E94A4132B813C8126533B4F9E
:1038000040E0682F812F0E94B1152ACE0E94A41398
:10381000182FCE0101960E94A413082FCE01019605
:103820000E94A4132B813C8126533B4F482F602FCD
:10383000E9CF0E94A413982ECE0101960E94A413F2
:10384000E82ECE0101960E94A413F82E8091F80173
:10385000823009F44FCE82E10E94160B60EF70E0D7
:10386000882309F47BC182E10E9497158C0100979F
:1038700041F0FC01138212822BE431E0318320837A
:103880001186E091F801F0E0EE0FFF1FEB5AFD4FBB
:1038900011830083D8011F969C921F975096EC923B
:1038A00050975196FC92519781E01E968C931E97EB
:1038B00014969C9214971A96EC921A971B96FC9267
:1038C0001B971C961C921C971D961C921092DA0353
:1038D0001092D9031092A7041092C9040E94CC043C
:1038E000EEEFF5E0F093FD03E093FC032FEF35E0FE
:1038F0003093010420930004D80115961C9215976B
:103900001B968C911B97823018F098E015969C932B
:10391000F8019485992329F0813019F48581846018
:1039200085830E945A036B017C0142E3442E512C93
:10393000612C712C0E945A036C197D098E099F0914
:10394000683E734081059105A8F3F1E04F1A5108D4
:103950006108710828EEC20E23E0D21EE11CF11CA2
:10396000411451046104710429F7D8011D966C912A
:10397000C8010E940E0760E3C8010E940E078BE495
:1039800096E40197F1F760E3C8010E940E078BE40B
:1039900096E40197F1F760E3C8010E940E0783E502
:1039A00092E00197F1F760E2C8010E940E07F8016A
:1039B0006581606240E0C8010E94960684E0D801FB
:1039C00016968C9340E06CE0C8010E949606C801F0
:1039D0000E94F00682E0F801878340E066E0C801BB
:1039E0000E94960640E062E0C8010E9496068BE3C2
:1039F0009FE10197F1F788E0D8011D968C931D9700
:103A000014968C9191E09093A6048093C804109230
:103A1000A7041092C90468E088EE95E00E9457065A
:103A20000E94FB058CE08093B800F801868588230E
:103A300019F1C8010E94F006D80151964C91F12C61
:103A4000433020F04695FF24FA94F40E4F2D66ED96
:103A500071E0C8010E944917F8018189823038F06D
:103A600041E04F0D61EE71E0C8010E94491740E04E
:103A700060E0C8010E94BF068091F8018F5F8093CB
:103A8000F80138CD0E94A413982ECE0101960E9411
:103A9000A413882E80910802863009F4E1CC8DE1D0
:103AA0000E94160B6CE071E0882309F4C7C0EB801C
:103AB000FC808DE10E9497158C01892BE9F080E153
:103AC000F8013696DF011D928A95E9F7F801178A09
:103AD000168A108E85829282C70186539B4F9183EE
:103AE00080831482138262E0892D0E94AC02D80187
:103AF00012968C910E94450380910802E82FF0E015
:103B0000EE0FFF1FE450FE4F11830083ECEFF6E150
:103B1000F093FB01E093FA018F5F80930802A0CC41
:103B20000E94A413882ECE0101960E94A413582E41
:103B3000CE0101960E94A413682ECE0101960E9428
:103B4000A413782E8091F901823009F4D3CC89E056
:103B50000E94160B811106C06CE271E085E00E94A4
:103B60009314C8CC89E00E9497158C019090F901BC
:103B7000E92CF12CEE0CFF1CF701E75AFD4F918365
:103B8000808381E0D80118968C9318978C921196B7
:103B90005C92119712966C92129713967C9261E048
:103BA000882D0E94AC0261E0F80181810E94AC0284
:103BB00061E0D80112968C910E94AC02F8019381C9
:103BC000349680E0981719F011928F5FFBCFC801EF
:103BD0000E940A11F701E75AFD4F80819181DC01B3
:103BE00013963C91FC01349620E0321719F01192A3
:103BF0002F5FFBCF0E940A1193949092F9017ACC27
:103C00000E94A413682ECE0101960E94A413D82E00
:103C1000CE0101960E94A413482ECE0101960E9467
:103C2000A413582E80915202823009F419CC8BE0F3
:103C30000E94160B811106C061E571E085E00E94CB
:103C400093140ECC8B809C808BE00E9497158C0186
:103C5000009731F0FC0116821782108611861286B9
:103C600070905202E72CF12CEE0CFF1C9701225BA6
:103C70003D4F7901D9010D931C93F8016282D382E3
:103C80004482C40186539B4F91838083558261E0B7
:103C9000862D0E94AC0261E0D80113968C910E949F
:103CA000AC0260E0F80184810E94AC0281E0D8019E
:103CB00016968C93D701ED91FC9117821086118690
:103CC0001286E4EAF6E1F0935402E093530273940F
:103CD00070925202C5CB0E94A413882ECE01019689
:103CE0000E94A413F82ECE0101960E94A413082F5F
:103CF000CE0101960E94A413182FCE0101960E94B6
:103D0000A413F092F4050093F5051093F605809343
:103D1000F7051092F80504EF15E061E0D8018D91E8
:103D20008D010E94AC0220163106B9F78091F8058A
:103D300081608093F80560E084EF95E00E94090CB3
:103D4000CE0101960E94A413782E80913402823015
:103D500009F486CBEB80FC8086E00E9497158C01ED
:103D6000009759F0E4EFF5E0F0933802E093370262
:103D7000DC0115961C921E92149790903402E92D46
:103D8000F0E0EE0FFF1FE05DFD4F11830083F801AF
:103D90008282C70186539B4F91838083F1E07F1617
:103DA000E9F0D80113961C9262E0882D0E94AC02C3
:103DB000D80113968C91139715961C921E92149706
:103DC0008B7F816013968C93E0EDF6E1F0933602E1
:103DD000E093350293949092340242CB82E0F80152
:103DE0008383E2CF112309F44CCB0F900F900F90F7
:103DF0000F90DF91CF911F910F91FF90EF90DF9087
:103E0000CF90BF90AF909F908F907F906F905F907A
:103E10004F903F902F9008950E94A8190C9425165A
:103E20000F931F93CF93DF930E942F11EC010E94F9
:103E3000C8018823F1F181E080938407809385078E
:103E400080918607909187070E94A42820915404AE
:103E50002C171D06A1F19CF1CC0FDD1FC05BDB4FC1
:103E6000E881F981118206811781208531856017EB
:103E7000710782079307B9F06683778380879187FC
:103E80000280F381E02D008911892289338960172E
:103E900071078207930739F0608B718B828B938B4C
:103EA000CF010E948F09DF91CF911F910F910C9448
:103EB000010F1092850760E070E0CB01C7CFDF9162
:103EC000CF911F910F910895FF920F931F93CF935E
:103ED000DF930E942F11EC010E9419028C010E94B5
:103EE0002F11F82ECC0FDD1FC75ADD4F0990D88156
:103EF000C02D8885882369F168EE71E0C8010E94B1
:103F0000CB2801E010E0009709F10E9486289885EF
:103F1000992391F0982F9770980101C0220F9A95DC
:103F2000EAF7869586958695FE01E80FF11D848156
:103F3000FF2049F0282B248368EE71E090E080E0B8
:103F40000E94CB28E0CF20952823F5CFCE010E94F8
:103F50000A11DF91CF911F910F91FF900C94010FE7
:103F6000DF92EF92FF920F931F93CF93DF938C0119
:103F7000EB017B01E40EF51ED990C8010E94382A9E
:103F8000D81621F06D2DC8010E94402A0F5F1F4FE7
:103F9000EC16FD0689F7DF91CF911F910F91FF90ED
:103FA000EF90DF900895CF93DF930E94010F0E945E
:103FB0001902BC01EC0109900020E9F72197C81B08
:103FC000D90BDD272091230430912404C9010196E7
:103FD0008C0F9D1F8E319140E0F5AE014F5F5F4F1A
:103FE000C901CB96FA01E80FF91F2091FB0530912A
:103FF000FC05E217F30710F40E94B01F4091230460
:1040000050912404C40FD51FD0932404C0932304DB
:104010008091BA0681113FC085E00E947E14809194
:10402000BA06882391F060918E0780918B0790915A
:104030008C070E948B03AE0170E060E02AE0809163
:104040008B0790918C070E941614DF91CF910C94EE
:10405000F8138091BA0681111EC085E00E947E147B
:104060008091BA06882389F360918E0780918B072F
:1040700090918C070E948B03C0918B07D0918C0785
:104080006DE2CE010E948B032AE041E050E060E047
:1040900070E0CE01D8CFDF91CF910895CF93DF9319
:1040A00000D0CDB7DEB70E941902FC0190E3ABE06F
:1040B000B1E001900D929A95E1F783E290E09A8346
:1040C00089838091FB059091FC05029748F041E0BF
:1040D00050E0BE016F5F7F4F90E080E00E94B01F14
:1040E0008091FB059091FC05C19740F04FE250E0B4
:1040F0006BE071E081E090E00E94B01F8091BA0611
:10410000811109C085E00E947E148BE091E00E943D
:1041100070160E94F8130F900F90DF91CF910895C1
:10412000CF92DF92EF92FF92CF93C82F4BE050E0F7
:1041300060E071E080E390E00E943613C11109C095
:1041400080910001833529F4809101018E3409F4B6
:1041500066C08EE00E944503BC01990F880B990B45
:10416000611571058105910511F00E947D280E945D
:104170002E28CC24CA942FE0D22EE12CF12CA701BA
:1041800096010E944E2A7F936F938AEE91E09F934F
:104190008F9380E091E09F938F930E94932C0E94D5
:1041A0002E28A70196010E944E2A7F936F9383EFDA
:1041B00091E09F938F9387E091E09F938F930E946C
:1041C000932C8DB79EB70C960FB6F8949EBF0FBE7A
:1041D0008DBF8091FB059091FC05CC9700F14BE0E1
:1041E00050E060E071E080E390E00E94B01FC111F8
:1041F00016C08091FB059091FC05CC9780F08BE375
:1042000090E00E94382A882351F060E08BE390E030
:10421000CF91FF90EF90DF90CF900C94402ACF91F8
:10422000FF90EF90DF90CF90089581E00E94902062
:104230008091BA06811109C08AE00E947E1480E054
:1042400091E00E9470160C94F81308951F920F923B
:104250000FB60F9211242F933F938F939F93AF9399
:10426000BF938091720490917304A0917404B091F3
:1042700075043091710423E0230F2D3758F5019612
:10428000A11DB11D20937104809372049093730457
:10429000A0937404B0937504809176049091770490
:1042A000A0917804B09179040196A11DB11D80936D
:1042B000760490937704A0937804B0937904BF9127
:1042C000AF919F918F913F912F910F900FBE0F90C3
:1042D0001F90189526E8230F0296A11DB11DD2CF7D
:1042E0001F920F920FB60F9211242F933F934F936B
:1042F0005F936F937F938F939F93AF93BF93EF934E
:10430000FF938DEF95E00E941504FF91EF91BF910F
:10431000AF919F918F917F916F915F914F913F915D
:104320002F910F900FBE0F901F9018951F920F9214
:104330000FB60F9211242F935F936F937F938F93F8
:104340009F93AF93BF93EF93FF93E0910D06F0918E
:104350000E068081E0911306F091140682FD24C0C0
:1043600020818091160690E0019660E670E00E9440
:10437000042B90911706981741F0E0911606F0E093
:10438000E350FA4F258F80931606FF91EF91BF916E
:10439000AF919F918F917F916F915F912F910F902E
:1043A0000FBE0F901F9018958081EFCF1F920F9234
:1043B0000FB60F9211242F933F934F935F936F93F8
:1043C0007F938F939F93AF93BF93EF93FF938091CE
:1043D000B900887F803609F44AC0F0F5883209F4C4
:1043E000A7C018F5803109F49BC0B8F4882309F4FC
:1043F000F9C0883009F494C0FF91EF91BF91AF915B
:104400009F918F917F916F915F914F913F912F91EC
:104410000F900FBE0F901F901895883109F488C037
:10442000803251F780939E0414C0803409F49DC0FB
:1044300040F48033B9F38833F9F680939E0485EC19
:10444000B0C0803509F485C0883509F496C0883439
:1044500099F60E948317D0CF883909F48CC038F5BB
:10446000883729F050F4883611F0803729F683E038
:104470008093A0041092220457C0883809F47BC0AE
:10448000803919F0803809F0B7CF8091220480324A
:1044900008F071C0E091220481E08E0F8093220425
:1044A0008091BB00F0E0EE5FFB4F80833DC0803B1E
:1044B00039F0E0F4803A09F479C0883A09F09CCFE9
:1044C00084E08093A0041092FF031092FE03E09119
:1044D000FC03F091FD0309958091FE0381110FC04B
:1044E00081E08093FE031092DC0309C0803C09F454
:1044F000A6CF883C09F4A3CF883B09F07DCFE0919B
:10450000FF0381E08E0F8093FF03F0E0E452FC4F45
:1045100080818093BB009091FF038091FE0329C0AE
:1045200080917B048093BB0085EC8093BC0064CFBA
:1045300090919D0480919C04981758F5E0919D04FA
:1045400081E08E0F80939D04F0E0E458FB4F808162
:10455000E9CFE0919D0481E08E0F80939D048091CE
:10456000BB00F0E0E458FB4F808390919D04809164
:104570009C049817C8F285E8D8CFE0919D0481E0AB
:104580008E0F80939D048091BB00F0E0E458FB4FB8
:10459000808380919F0481115CCF81E080937A04B5
:1045A00084EA8093BC001092A00426CF85EC80930F
:1045B000BC001092A00480912204803230F4E0917B
:1045C0002204F0E0EE5FFB4F10826091220470E065
:1045D000E0910004F091010482E094E009951092CA
:1045E00022040ACF10929E0434CF1F920F920FB66E
:1045F0000F9211242F933F934F935F936F937F9369
:104600008F939F93AF93BF93CF93DF93EF93FF93DA
:104610008091B803C091B703D0E087FF24C0109207
:104620008500109284008091B8038F5F8093B80357
:104630008091B803082E000C990B8C179D0724F469
:104640008091B8038C30C4F18091840090918500F2
:10465000049680349C4908F47AC08091840090913B
:104660008500049676C08091B803082E000C990B43
:104670008C179D07C4F6E091B8038E2FEE0F990BAF
:10468000FC01EE0FFF1FE80FF91FED56FC4F808174
:1046900086FFC9CFE091B8038E2FEE0F990BFC0176
:1046A000EE0FFF1FE80FF91FED56FC4F808160E011
:1046B0008F730E947E02B7CF2091840030918500D5
:1046C000E091B8038E2FEE0F990BFC01EE0FFF1F48
:1046D000E80FF91FED56FC4F81819281820F931FE5
:1046E0009093890080938800E091B8038E2FEE0F9D
:1046F000990BFC01EE0FFF1FE80FF91FED56FC4F61
:10470000808186FF11C0E091B8038E2FEE0F990BC8
:10471000FC01EE0FFF1FE80FF91FED56FC4F8081E3
:1047200061E08F730E947E02FF91EF91DF91CF9144
:10473000BF91AF919F918F917F916F915F914F91B9
:104740003F912F910F900FBE0F901F90189580E40E
:104750009CE990938900809388008FEF8093B80341
:10476000E3CF109200061092FF0588EE93E0A0E0E0
:10477000B0E08093010690930206A0930306B093E5
:1047800004062DEA31E03093FE052093FD0525EC6B
:1047900030E030930A062093090624EC30E0309391
:1047A0000C0620930B0620EC30E030930E0620938D
:1047B0000D0621EC30E03093100620930F0622EC1A
:1047C00030E0309312062093110626EC30E030934F
:1047D00014062093130610921606109217061092D4
:1047E0001806109219061092EB051092EA058093B4
:1047F000EC059093ED05A093EE05B093EF058FEBDC
:1048000091E09093E9058093E8051092F8058FEF09
:104810008093F4058093F5058093F6058093F70562
:1048200080E094E09093FC058093FB051092910743
:10483000109290078DEF95E090938C0780938B07F3
:104840001092C2068CE280938E078BE380938D07D3
:104850008FE280938F0780E68093BD068FE580937B
:10486000BE061092BC06109287071092860710921F
:1048700089071092880781E080938407E2E9F7E0D6
:104880008EEC97E0119211928E179F07D9F7109234
:10489000C1060895CF93DF931F92CDB7DEB778940A
:1048A00084B5826084BD84B5816084BD85B5826035
:1048B00085BD85B5816085BD80916E0081608093E6
:1048C0006E0010928100809181008260809381004F
:1048D000809181008160809381008091800081605F
:1048E000809380008091B10084608093B1008091BA
:1048F000B00081608093B00080917A0084608093E2
:104900007A0080917A00826080937A0080917A00A8
:10491000816080937A0080917A00806880937A0029
:104920001092C100E0910D06F0910E0682E08083A6
:10493000E0910906F0910A061082E0910B06F091D1
:104940000C0680E1808310921506E0911106F0912B
:10495000120686E08083E0910F06F09110068081B8
:1049600080618083E0910F06F0911006808188605D
:104970008083E0910F06F09110068081806880832B
:10498000E0910F06F091100680818F7D808380ED8D
:1049900094E1909391078093900783E491E1909341
:1049A0009307809392078FE591E190939507809309
:1049B00094078DE591E19093C7078093C60783EC38
:1049C00091E1909397078093960780E19FE1909300
:1049D00099078093980780ED91E19093BD078093AC
:1049E000BC0784EE91E19093BF078093BE078EE0F1
:1049F00092E190939B0780939A078DE896E19093BC
:104A0000A5078093A4078DE296E19093AB0780936E
:104A1000AA0783ED9FE19093A9078093A8078FEDE4
:104A200094E19093AD078093AC0782E995E1909370
:104A3000AF078093AE078CE09FE19093B30780931C
:104A4000B2078EE490E29093B9078093B80785E1AE
:104A500091E29093BB078093BA078EE89FE0909312
:104A6000C1078093C00782EE92E19093C5078093BF
:104A7000C40784E69FE19093C9078093C80781E04B
:104A80008093C20680E00E9490200E94010F19824C
:104A900041E050E0BE016F5F7F4F90E080E00E94F8
:104AA00036138981833241F44FE250E06BE071E0CC
:104AB00081E090E00E943613E090FB05F090FC0549
:104AC00010922404109223048BE390E08C010F5F7A
:104AD0001F4F0E942B13482F209123043091240450
:104AE000C90101969093240480932304E016F106F3
:104AF00008F0FBC067E872E085E00E9493140E9412
:104B00007F036093550470935604809357049093E9
:104B100058040E947F036093590470935A04809351
:104B20005B0490935C040E947F036E5F7F4F8F4F06
:104B30009F4F60935D0470935E0480935F04909335
:104B400060040E947F036C5F7F4F8F4F9F4F609385
:104B500061047093620480936304909364040E94E0
:104B60007F036C5F7F4F8F4F9F4F609365047093FF
:104B7000660480936704909368040E947F036A5FD1
:104B80007F4F8F4F9F4F6093690470936A048093A7
:104B90006B0490936C040E947F03685F7F4F8F4F7C
:104BA0009F4F60936D0470936E0480936F04909395
:104BB000700460E0662E60E0762E44244394552411
:104BC00053948091C1068111D6C080918B0790913A
:104BD0008C07DC01ED91FC910084F185E02D0995B5
:104BE000892B09F4C8C080918B0790918C07DC0158
:104BF000ED91FC910084F185E02D099550E6C52EDC
:104C0000D12C8036910564F480918B0790918C07AC
:104C1000DC01ED91FC910084F185E02D09956C019A
:104C200000918B0710918C0743E2842E47E0942E6D
:104C30005401F12CE12CCE14DF0409F062C010E025
:104C400000E0C016D10609F4BCCFD4019D914D01FE
:104C50001092830730918F072091C0069093C00671
:104C6000931304C0921302C01092C0068091BC0638
:104C7000E82FF0E040918D07E654F94F941367C098
:104C8000321709F464C01186882321F050928307FB
:104C90001092C0061092BC061092870710928607E9
:104CA0001092890710928807509284078091830799
:104CB000813009F05DC00E942F118093BB068E31B8
:104CC00008F04FC020918507222309F44AC0FC0157
:104CD000FF27EE0FFF1FEE56F84F0190F081E02DF9
:104CE000309709F43EC0099543C0C8014111EECE8A
:104CF00030932404209323040E94A8190E942516AF
:104D0000FECE0E947F03F8016087718782879387B8
:104D1000D801ED91FC910284F385E02DC80109953D
:104D200097FF25C10E947F03F801208531854285C8
:104D30005385621B730B840B950B2481358146814F
:104D40005781621773078407950710F378CF91870F
:104D50008F5F8093BC069091BE06891708F09ACFAA
:104D6000A5CFE0919007F0919107309709F0BBCF64
:104D70000F5F1F4F66CFC0904A04D0904B04E09065
:104D80004C04F0904D0480914E048111F7C00E94B4
:104D90007F036C197D098E099F09613A7B4B8D4019
:104DA0009105D8F040924E0410E080914904181704
:104DB00088F4E12FF0E0EE0FFF1FEB5DFB4F019059
:104DC000F081E02D118270E060E080810E94E802B5
:104DD0001F5FEBCF81E00E94B61080914F048823C3
:104DE00009F4B9C04AE065E574E082E59EE00E94FE
:104DF000E10A41E069E574E084E49CE00E94E10A94
:104E0000D12C80915404D81608F082C0ED2DF0E02A
:104E1000EE0FFF1FE05BFB4FE080F180F7010281A6
:104E20001381F80184A195A1A6A1B7A1892B8A2B92
:104E30008B2BE9F10E945A034B015C01F80180A51C
:104E400091A5A2A5B3A5B501A401481B590B6A0BF6
:104E50007B0B84A195A1A6A1B7A1481759076A07A2
:104E60007B0728F184859585A685B7852281222335
:104E700009F44AC00196A11DB11D84879587A687B4
:104E8000B787D8011C964D915D916D917C911F97CC
:104E9000ED91FC910680F781E02DC8010995F8019C
:104EA00080A691A6A2A6B3A6C8010E948F09D70129
:104EB00014968C910E945502F7019581891701F192
:104EC000858381111DC081818823D1F00280F38107
:104ED000E02D1486158616861786108A118A128A86
:104EE000138A14AA15AA16AA17AA14A215A216A202
:104EF00017A2148A158A168A178AD70111961C924E
:104F0000D3947FCF80E067CF0197A109B109B5CFD6
:104F100045E06DE574E083E49BE00E94E10A42E332
:104F200065E674E082EC9EE00E94E10A4AE061E6F8
:104F300074E08CE79EE00E94E10A4AE069E674E0D2
:104F400080E39FE00E94E10A4AE06DE674E089E6B2
:104F50009DE00E94E10A6114710409F432CE0E94BE
:104F60000104882309F42DCE0E9400002ACEF50109
:104F700081935F01FFEFEF1AFF0A5DCE0E947F036E
:104F80006C197D098E099F09603A7B4B8D40910514
:104F900008F023CF10924E0410E0809149041817B6
:104FA00008F0B0CFE12FF0E0EE0FFF1FEB5DFB4FFD
:104FB0000190F081E02D618170E080810E94E80223
:104FC0001F5FEBCF8F929F92AF92BF92CF92DF92F3
:104FD000EF92FF92CF93DF93EC01688179818A8110
:104FE0009B81611571058105910521F464E279EDDC
:104FF0008BE597E02DE133EF41E050E00E944E2A2F
:1050000049015A019B01AC01A7EAB1E40E946D2A53
:105010006B017C01ACEEB4EFA50194010E947B2AE8
:10502000C60ED71EE81EF91EF7FE06C081E0C81A9C
:10503000D108E10880E8F80AC882D982EA82FB82B6
:10504000C701B6019F77DF91CF91FF90EF90DF907E
:10505000CF90BF90AF909F908F9008958F929F9226
:10506000AF92BF92CF92DF92EF92FF9260913B019D
:1050700070913C0180913D0190913E016115710557
:105080008105910521F464E279ED8BE597E02DE14E
:1050900033EF41E050E00E944E2A49015A019B0142
:1050A000AC01A7EAB1E40E946D2A6B017C01ACEE71
:1050B000B4EFA50194010E947B2AC60ED71EE81EFC
:1050C000F91EF7FE06C081E0C81AD108E10880E8A1
:1050D000F80AC0923B01D0923C01E0923D01F0926F
:1050E0003E01C701B6019F77FF90EF90DF90CF9010
:1050F000BF90AF909F908F90089560933B01709305
:105100003C0180933D0190933E010895FC01882766
:105110009927E89421912032E9F3293010F02E30BC
:10512000C8F32B3241F02D3239F4689404C00E9448
:105130000C29820F911D219120532A30C0F31EF4B7
:10514000909581959F4F08951F93FC01992788277B
:10515000BC01E89411911032E9F3193010F01E30BF
:10516000C8F31B3251F01D3249F4689406C00E9406
:10517000F728610F711D811D911D119110531A3077
:10518000B0F33EF490958095709561957F4F8F4F69
:105190009F4F1F9108954EEC57E00E94D02808952C
:1051A000FA01A191B081009719F41097E1F0CD01B7
:1051B000DC01CD010D90002011F4C00113C0FB01F2
:1051C0002191222319F02015D9F7F3CFFB0121916A
:1051D000201519F41E92119606C02223C1F70D90D6
:1051E0000020A1F7D001FA01A193B0830895592FAF
:1051F000482F372F262F660F771F881F991F660F9E
:10520000771F881F991F620F731F841F951F660FDA
:10521000771F881F991F08957AE0979F902D879F89
:10522000802D910D112408950E94562908F481E0E3
:105230000895E89409C097FB3EF490958095709589
:1052400061957F4F8F4F9F4F9923A9F0F92F96E9D2
:10525000BB279395F695879577956795B795F11147
:10526000F8CFFAF4BB0F11F460FF1BC06F5F7F4FE4
:105270008F4F9F4F16C0882311F096E911C07723F6
:1052800021F09EE8872F762F05C0662371F096E8FF
:10529000862F70E060E02AF09A95660F771F881FCE
:1052A000DAF7880F9695879597F90895990F000872
:1052B000550FAA0BE0E8FEEF16161706E807F907E8
:1052C000C0F012161306E407F50798F0621B730B83
:1052D000840B950B39F40A2661F0232B242B252B04
:1052E00021F408950A2609F4A140A6958FEF811DA7
:1052F000811D08950E948D290C94FE290E94F02999
:1053000038F00E94F72920F0952311F00C94E7293A
:105310000C94ED2911240C94322A0E940F2A70F368
:10532000959FC1F3950F50E0551F629FF001729F4A
:10533000BB27F00DB11D639FAA27F00DB11DAA1F59
:10534000649F6627B00DA11D661F829F2227B00DA6
:10535000A11D621F739FB00DA11D621F839FA00D31
:10536000611D221F749F3327A00D611D231F849F81
:10537000600D211D822F762F6A2F11249F575040D8
:105380009AF0F1F088234AF0EE0FFF1FBB1F661F53
:10539000771F881F91505040A9F79E3F510580F01C
:1053A0000C94E7290C94322A5F3FE4F3983ED4F33F
:1053B000869577956795B795F795E7959F5FC1F7C0
:1053C000FE2B880F911D9695879597F9089597F96B
:1053D0009F6780E870E060E008959FEF80EC08959B
:1053E00000240A94161617061806090608950024C4
:1053F0000A9412161306140605060895092E03943E
:10540000000C11F4882352F0BB0F40F4BF2B11F4B1
:1054100060FF04C06F5F7F4F8F4F9F4F089557FD10
:105420009058440F551F59F05F3F71F04795880F12
:1054300097FB991F61F09F3F79F0879508951216A9
:1054400013061406551FF2CF4695F1DF08C0161655
:1054500017061806991FF1CF869571056105089406
:105460000895E894BB2766277727CB0197F908951D
:10547000F999FECF92BD81BDF89A992780B508951C
:10548000262FF999FECF1FBA92BD81BD20BD0FB660
:10549000F894FA9AF99A0FBE01960895052E97FB93
:1054A0001EF400940E94652A57FD07D00E94B72A77
:1054B00007FC03D04EF40C94652A50954095309526
:1054C00021953F4F4F4F5F4F089590958095709570
:1054D00061957F4F8F4F9F4F08950E94D92AA59FB6
:1054E000900DB49F900DA49F800D911D11240895DF
:1054F000B7FF0C946D2A0E946D2A821B930B0895AE
:105500002F923F924F925F926F927F928F929F92D3
:10551000AF92BF92CF92DF92EF92FF920F931F93C1
:10552000CF93DF93CDB7DEB7CA1BDB0B0FB6F89472
:10553000DEBF0FBECDBF09942A88398848885F84B2
:105540006E847D848C849B84AA84B984C884DF8023
:10555000EE80FD800C811B81AA81B981CE0FD11D07
:105560000FB6F894DEBF0FBECDBFED010895A1E2E6
:105570001A2EAA1BBB1BFD010DC0AA1FBB1FEE1FCD
:10558000FF1FA217B307E407F50720F0A21BB30B18
:10559000E40BF50B661F771F881F991F1A9469F794
:1055A00060957095809590959B01AC01BD01CF01F0
:1055B0000895A29FB001B39FC001A39F700D811DEC
:1055C0001124911DB29F700D811D1124911D08950C
:1055D000DB018F939F930E946D2ABF91AF91A29F91
:1055E000800D911DA39F900DB29F900D11240895E1
:1055F000991B79E004C0991F961708F0961B881F25
:105600007A95C9F780950895AA1BBB1B51E107C085
:10561000AA1FBB1FA617B70710F0A61BB70B881F42
:10562000991F5A95A9F780959095BC01CD010895D1
:10563000EE0FFF1F0590F491E02D09945058BB2701
:10564000AA270E94362B0C94FE290E94F02938F0DC
:105650000E94F72920F039F49F3F19F426F40C94A6
:10566000ED290EF4E095E7FB0C94E729E92F0E9461
:105670000F2A58F3BA17620773078407950720F0BB
:1056800079F4A6F50C94312A0EF4E0950B2EBA2F7E
:10569000A02D0B01B90190010C01CA01A001112438
:1056A000FF27591B99F0593F50F4503E68F11A16E4
:1056B000F040A22F232F342F4427585FF3CF469575
:1056C00037952795A795F0405395C9F77EF41F1697
:1056D000BA0B620B730B840BBAF09150A1F0FF0F61
:1056E000BB1F661F771F881FC2F70EC0BA0F621F4D
:1056F000731F841F48F4879577956795B795F7953D
:105700009E3F08F0B0CF9395880F08F09927EE0FD1
:105710009795879508950E949F2B0C94FE290E94CF
:10572000F72958F00E94F02940F029F45F3F29F052
:105730000C94E72951110C94322A0C94ED290E9403
:105740000F2A68F39923B1F3552391F3951B550B59
:10575000BB27AA2762177307840738F09F5F5F4F44
:10576000220F331F441FAA1FA9F335D00E2E3AF083
:10577000E0E832D091505040E695001CCAF72BD09B
:10578000FE2F29D0660F771F881FBB1F26173707EC
:105790004807AB07B0E809F0BB0B802DBF01FF271E
:1057A00093585F4F3AF09E3F510578F00C94E729EB
:1057B0000C94322A5F3FE4F3983ED4F386957795B4
:1057C0006795B795F7959F5FC9F7880F911D9695D7
:1057D000879597F90895E1E0660F771F881FBB1F33
:1057E000621773078407BA0720F0621B730B840BE0
:1057F000BA0BEE1F88F7E09508950E94042C689478
:10580000B1110C94322A08950E94172A88F09F57EC
:1058100098F0B92F9927B751B0F0E1F0660F771FD4
:10582000881F991F1AF0BA95C9F714C0B13091F0CA
:105830000E94312AB1E008950C94312A672F782F05
:105840008827B85F39F0B93FCCF38695779567958F
:10585000B395D9F73EF490958095709561957F4FFB
:105860008F4F9F4F08950E94562908F48FEF089597
:1058700019F416F40C94ED290C947E2C0E94172A2E
:10588000B8F39923C9F3B6F39F57550B87FF0E94CE
:105890008C2C0024A0E640EA9001805856959795FC
:1058A00028F4805C660F771F881F20F026173707C3
:1058B000480730F4621B730B840B202931294A2BD3
:1058C000A69517940794202531254A2758F7660F87
:1058D000771F881F20F026173707480730F4620B20
:1058E000730B840B200D311D411DA09581F7B9016B
:1058F000842F9158880F9695879508959F3F31F092
:10590000915020F4879577956795B795880F911DED
:105910009695879597F9089591505040660F771F97
:10592000881FD2F70895AEE0B0E0E9E9FCE20C94FC
:105930008E2A0D891E8986E08C831A8309838FEF56
:105940009FE79E838D83AE01475E5F4F6F89788DA1
:10595000CE0101960E94B62C2F813885020F131FAD
:10596000F80110822E96E4E00C94AA2AABE0B0E095
:10597000ECEBFCE20C94802A7C013B018A01FC01E7
:1059800017821682838181FFC8C1CE0101965C0116
:10599000F7019381F30193FD859193FF81913F017D
:1059A000882309F453C1853239F493FD859193FF1F
:1059B00081913F01853229F4B70190E00E94A62E23
:1059C000E7CF912C212C312CFFE1F31538F08B32ED
:1059D00011F190F4803209F1833229F137FC3CC097
:1059E00020ED280F2A3050F536FE20C08AE0989E20
:1059F000200D1124922E06C08D3291F0803371F764
:105A0000689430F8F30193FD859193FF81913F01F4
:105A10008111DACF21C0689431F8689432F8F2CF5E
:105A2000689433F8EFCF689434F8ECCFEAE02E9E18
:105A3000200D1124222E689435F8E4CF8E3229F4FB
:105A400036FC04C1689436F8DDCF8C3619F46894BE
:105A500037F8D8CF8836B1F2982F9F7D9554933080
:105A6000E0F08336A1F18337C1F1833509F063C0DB
:105A70002801F2E04F0E511CF801C080D180692D41
:105A800070E036FC02C06FEF7FEFC6010E94902EDF
:105A90004C01689437F882010AC00C5F1F4FFFE386
:105AA000F98388248394912C6501E89437F833FEB8
:105AB0002DC0522C8114910471F5552009F468CF42
:105AC000B70180E290E00E94A62E5A94F6CFF8012A
:105AD000808189830E5F1F4FE4CF2801F2E04F0ED3
