:100000000C940D020C9435020C9435020C943502BC
:100010000C9435020C9435020C9435020C94350284
:100020000C9435020C9435020C945E250C94CD256D
:100030000C9435020C9435020C9435020C94350264
:100040000C9435020C94FF270C9435020C94350265
:100050000C9435020C9435020C9435020C94142542
:100060000C9435020C9435020C9435020C94350234
:100070000C9435020C9435020C9435020C94350224
:100080000C9435020C9435020C9435020C94350214
:100090000C94BB280C9435020C9435020C94350258
:1000A0000C9435020C9435020C9435026E2F6100CD
:1000B0004F4B004F4B004F4B00427574746F6E20D6
:1000C000646F6573206E6F742066697420696E209A
:1000D0004D656D6F7279004F757470757420646F23
:1000E0006573206E6F742066697420696E204D659B
:1000F0006D6F727900375365676D656E7420646F3C
:100100006573206E6F742066697420696E204D657A
:100110006D6F72792100536572766F20646F65731D
:10012000206E6F742066697420696E204D656D6F56
:10013000727921004C434420646F6573206E6F74A4
:100140002066697420696E204D656D6F727921009B
:10015000416E616C6F67496E20646F6573206E6FCE
:10016000742066697420696E204D656D6F72790028
:100170004F75747075745368696674657220646F26
:100180006573206E6F742066697420696E204D65FA
:100190006D6F727900496E70757453686966746525
:1001A0007220646F6573206E6F74206669742069B5
:1001B0006E204D656D6F727900446967496E4D75AB
:1001C0007820646F6573206E6F742066697420698F
:1001D0006E204D656D6F7279004661696C75726550
:1001E000206F6E2072656164696E6720636F6E6652
:1001F0006967004D6F6269466C69676874204D6974
:1002000063726F00070605040100080A0B0C0D0954
:10021000456E636F6465727320646F6573206E6FE3
:10022000742066697420696E204D656D6F72790067
:100230007E306D79335B5F707F7B771F0D3D4F475D
:1002400000000000000000000000000000000000AE
:100250000000000000000000000000008001802578
:100260007E306D79335B5F707F7B0000000900009A
:1002700000777F4E7E4F475F37307C000E00767EE2
:10028000677E775B463E000000336D4E13780008B2
:10029000007D1F0D3D4F477B373038000600151D90
:1002A0006773055B0F1C000000276D4E007800008F
:1002B0004D465374657070657220646F6573206E6F
:1002C0006F742066697420696E204D656D6F727958
:1002D000005374657070657220646F6573206E6F73
:1002E000742066697420696E204D656D6F72792186
:1002F00000446576696365427566666572204F766F
:100300006572666C6F772100080B00020202000024
:100310000904000001020200000524001001052468
:1003200001010104240206052406000107058103DA
:1003300010004009040100020A0000000705020243
:100340004000000705830240000004030904120175
:100350000002EF0201404F1B06920001010203015F
:10036000537061726B46756E00537061726B4675A7
:100370006E2050726F204D6963726F004C6F616424
:10038000696E6720636F6E666967206661696C6578
:10039000640000000000240027002A002D00300027
:1003A00000000000250028002B002E003100000076
:1003B00000002300260029002C002F000404040460
:1003C00004030405020202020403020202020606FA
:1003D00006060606040402020204040408020110D0
:1003E000408040102040804080080204018040206E
:1003F000100201108010204040200000000200097F
:100400000F0000030401000C0000000000000000C9
:1004100000000000000000000D2A11241FBECFEFD5
:10042000DAE0DEBFCDBF12E0A0E0B1E0E4EDFBE634
:1004300002C005900D92A031B107D9F728E0A0E1E4
:10044000B2E001C01D92A63AB207E1F712E0CDE09A
:10045000D2E004C02197FE010E94C531CC30D10703
:10046000C9F70E949A2A0C94E8350C940000AC015C
:1004700010928B0790915B0880915A08FA01BF0196
:10048000641B750B20918B07308130938B0793137E
:1004900004C0921302C010928B073081311104C046
:1004A000921721F0CB0108953817D1F33196E7CF99
:1004B0000F931F93CF93DF9380914F08882309F404
:1004C00046C0D0E0C0E0813029F482E080934F083C
:1004D000CFE8D7E080915008882341F1209721F49C
:1004E000C0915408D09155088E01CE010E94370268
:1004F000892B29F42196F80180818111F5CFF8012B
:100500008081882309F1C8010E943702F801E80FB1
:10051000F91F8081882311F010823196F0935508DD
:10052000E0935408109353080093520880915208A6
:1005300090915308892B59F081E080935008DF9106
:10054000CF911F910F91089510E000E0EBCF80E074
:10055000F6CF0E945802882351F081E08093500822
:1005600080935108809152089091530808951092F9
:10057000510890E080E00895FC0180910F058823E8
:1005800011F13FB7F89482E08093E9002091F200E6
:10059000822F90E01816190614F481E090E0882369
:1005A00039F0289844E640930E054091F1004083CD
:1005B000222339F02091F200211103C02BE6209371
:1005C000E8003FBF08958FEF9FEF08952FB7F8948D
:1005D00083E08093E9009091E800892F807295FF75
:1005E00004C09091F20080E4891B2FBF0895809190
:1005F000060581110DC082E08093020584E080939E
:100600000305109205051092040581E0809306050C
:1006100082E095E0089581508F3008F047C0E82FC0
:10062000F0E0EB5EFC4F0C94C5313203360324033B
:100630002A032E0356035603560339033F0343038D
:1006400047034D0356035103809180008F778093B9
:1006500080000895809180008F7DF9CF8091800087
:10066000877FF5CF84B58F7784BD089584B58F7D5E
:10067000FBCF809190008F778093900008958091B8
:1006800090008F7DF9CF80919000877FF5CF80918A
:10069000C0008F778093C00008958091C0008F7D47
:1006A000F9CF8091C200877F8093C2000895CF93D5
:1006B000DF93282F30E0F901E650FC4F8491F901D7
:1006C000E552FC4FD491F901E454FC4FC491CC2382
:1006D000A1F081110E940B03EC2FF0E0EE0FFF1F41
:1006E000E255FC4FA591B491EC91ED2381E090E0AF
:1006F00009F480E0DF91CF91089580E090E0FACF97
:100700001F93CF93DF93282F30E0F901E650FC4F81
:100710008491F901E552FC4FD491F901E454FC4F66
:10072000C491CC23A9F0162F81110E940B03EC2F4A
:10073000F0E0EE0FFF1FE056FC4FA591B4918FB78C
:10074000F894EC91111108C0D095DE23DC938FBF93
:10075000DF91CF911F910895DE2BF8CFCF93DF93D8
:1007600090E0FC01E552FC4F249184549C4FFC0125
:1007700084918823C9F090E0880F991FFC01EE5600
:10078000FC4FA591B491FC01E056FC4FC591D4916A
:1007900061110DC09FB7F8948C91209582238C93A2
:1007A0008881282328839FBFDF91CF9108956230ED
:1007B00051F49FB7F8943C91822F809583238C93BA
:1007C000E8812E2BEFCF8FB7F894EC912E2B2C9342
:1007D0008FBFEACF1F93CF93DF93182FEB0161E018
:1007E0000E94AE03209739F460E0812FDF91CF9112
:1007F0001F910C948003CF3FD10511F461E0F5CF38
:10080000E12FF0E0E650FC4FE491E150EF3008F0CA
:100810007FC0F0E0E25FFB4F0C94C5311D0425045E
:100820002A0434043E0488048804880448045204DA
:100830005C046604730488047B0484B5806884BD0A
:10084000C7BDDF91CF911F91089584B5806284BDAB
:10085000C8BDF7CF80918000806880938000D093DE
:100860008900C0938800EDCF8091800080628093E2
:100870008000D0938B00C0938A00E3CF80918000EA
:10088000886080938000D0938D00C0938C00D9CF76
:1008900080919000806880939000D0939900C093DD
:1008A0009800CFCF80919000806280939000D09389
:1008B0009B00C0939A00C5CF809190008860809380
:1008C0009000D0939D00C0939C00BBCF8091C0004E
:1008D00080688093C0008091C0008F7B8093C000AF
:1008E000C093CF00AECF8091C00080628093C000E3
:1008F000C093D000A6CF8091C20088608093C200D0
:100900008091C2008B7F8093C200C093D20099CFA8
:10091000C038D1050CF072CF67CF3FB7F894809103
:10092000FE049091FF04A0910005B091010526B549
:10093000A89B05C02F3F19F00196A11DB11D3FBF17
:10094000BA2FA92F982F8827BC01CD01620F711DE6
:10095000811D911D42E0660F771F881F991F4A95E0
:10096000D1F708958F929F92AF92BF92CF92DF926C
:10097000EF92FF924B015C010E948D046B017C01A0
:100980000E948D046C197D098E099F09683E734091
:1009900081059105A8F321E0821A9108A108B10808
:1009A00088EEC80E83E0D81EE11CF11C811491046E
:1009B000A104B10429F7FF90EF90DF90CF90BF9092
:1009C000AF909F908F9008952FB7F8946091FA049C
:1009D0007091FB048091FC049091FD042FBF089559
:1009E0004091A3045091A4042091A1043091A20449
:1009F00042175307B4F49091E8009570E1F3909199
:100A0000E80092FD19C08093F1008091A3049091B9
:100A1000A40401968F739927892B19F48EEF809384
:100A2000E8008091A3049091A40401969093A404FB
:100A30008093A30481E0089580E00895DF92EF920F
:100A4000FF920F931F93CF93DF93D82E8A01EB0170
:100A50007B01E40EF51ECE15DF0559F0D7FE12C05E
:100A6000FE0184910E94F00421968111F4CF0FEFD2
:100A70001FEFC801DF91CF911F910F91FF90EF9071
:100A8000DF9008958881EECF0F931F93CF93DF936C
:100A90001F92CDB7DEB782E0898342E450E068E080
:100AA00073E080E80E941E050E94F702DC011296A6
:100AB0000D911C910115110589F0D801ED91FC9162
:100AC0000280F381E02DBE016F5F7F4FC801099561
:100AD00097FD04C0F80100851185ECCF89810F9046
:100AE000DF91CF911F910F910895615030F02091C7
:100AF000F100FC0120830196F8CF289884E68093CA
:100B00000E050895DC01ED91FC910190F081E02D3E
:100B10000994EF92FF920F931F93CF93DF938C0171
:100B20007B01D0E0C0E0F701EC0FFD1F649166236C
:100B300061F0D801ED91FC910190F081E02DC801A8
:100B40000995892B11F02196EECFCE01DF91CF913F
:100B50001F910F91FF90EF900895AF92BF92CF92A7
:100B6000DF92EF92FF920F931F93CF93DF936C016D
:100B70007B018B01040F151FEB015E01AE18BF084E
:100B8000C017D10759F06991D601ED91FC91019000
:100B9000F081E02DC6010995892B79F7C501DF9118
:100BA000CF911F910F91FF90EF90DF90CF90BF906A
:100BB000AF9008958F929F92AF92BF92CF92DF92A3
:100BC000EF92FF920F931F93CF93DF936C017B0102
:100BD0008A0180912101882309F45CC080910F056E
:100BE000882309F457C08091A70480FF05C0809135
:100BF000E00082608093E000E801B12C8AEFA82E2B
:100C000093E0892E2AE3922E209711F4BB20D9F18C
:100C10000E94E60281110AC0AA94AA20D9F161E0DB
:100C200070E080E090E00E94B204EECF8C171D06C9
:100C300011F00CF08C2F9FB7F8948092E90020916E
:100C4000E80025FD02C09FBFDFCF282F30E0C21B88
:100C5000D30BF701815020F041914093F100FACF7E
:100C6000E20EF31EBB2021F09092E800B12CEBCFF6
:100C70008091E80085FDE7CF9092E800BB24B39413
:100C8000209709F3F3CF5D9884E68093A6041016AD
:100C900011063CF081E090E0F6019383828310E03E
:100CA00000E0C801DF91CF911F910F91FF90EF906D
:100CB000DF90CF90BF90AF909F908F900895CF938B
:100CC000DF931F92CDB7DEB76983DC01ED91FC9114
:100CD0000280F381E02D41E050E0BE016F5F7F4F65
:100CE00009950F90DF91CF91089583E08093E900FB
:100CF0008091F200882319F08AE38093E800089538
:100D00000E94E60290E00895CF93DF931F92CDB743
:100D1000DEB7FC018485958597FD08C02FEF3FEF76
:100D2000358724870F90DF91CF910895CE010196EA
:100D30000E94BC02019719F4898190E0F3CF8FEFF4
:100D40009FEFF0CF0F931F93CF93DF931F92CDB7F9
:100D5000DEB78C01FC018485958597FF0BC0CE0121
:100D600001960E94BC02019771F4898190E0F8011C
:100D700095878487F801848595850F90DF91CF91C1
:100D80001F910F9108958FEF9FEFF1CFFC018485A4
:100D9000958597FD0BC09FB7F89482E08093E9009A
:100DA0008091F2009FBF90E0019608959FB7F8945C
:100DB00082E08093E9008091F2009FBF90E0089567
:100DC000089520915604260F3327331F2132310511
:100DD000ECF420913605FC0190E080E0243069F0CD
:100DE00082E00895A09156042191AC014C5C5B4FC8
:100DF000A40FB52FB11D2C930196861798F38091FF
:100E00005604680F6093560480E0089581E00895C9
:100E10001092360581E0809335051092100561E04F
:100E200082E00E94800361E083E00E948003E9EB9E
:100E3000F0E080818E7F808380818D7F808388E455
:100E40008093B80085E48093BC000895CF93DF932E
:100E500091E0909333048823B9F0C091B800D09109
:100E6000BA008091BC008A7B8093BC0060E082E085
:100E70000E94800360E083E00E9480030E940807D4
:100E8000D093BA00C093B800DF91CF9108958F92AC
:100E90009F92AF92BF92CF92DF92EF92FF920F9309
:100EA0001F93CF93DF93D0915F05D13208F0D7C065
:100EB000182FC0915E050E948D046B017C0180910A
:100EC000360581116BC082E080933605109335059D
:100ED0008FEF8093340510923305D0933205AEE343
:100EE000B5E0E2E1F5E080E0D81391C01092110581
:100EF00080911105CC0FC82BC0931105809110056E
:100F0000813009F088C0109210050E948D046B0199
:100F10007C01809111058093BB00809138059091F0
:100F20003905A0913A05B0913B05892B8A2B8B2B73
:100F3000A1F00E948D04009138051091390520918F
:100F40003A0530913B056C197D098E099F090617FA
:100F500017072807390708F442C08091BC0083FDB9
:100F6000D8CF85EC8093BC000E948D046B017C017E
:100F700080913605823009F450C0809134058F3F4E
:100F800009F46FC080913405803209F46CC08091FF
:100F90003405803309F469C084E026C080913805A7
:100FA00090913905A0913A05B0913B05892B8A2B88
:100FB0008B2B09F484CF0E948D048090380590908B
:100FC0003905A0903A05B0903B056C197D098E0952
:100FD0009F0986169706A806B90608F070CF80917B
:100FE00037050E94260785E010923D0510925F05A7
:100FF00010923C05DF91CF911F910F91FF90EF90E0
:10100000DF90CF90BF90AF909F908F9008959D916B
:1010100091938F5F69CF85EEA5CF80913805909130
:101020003905A0913A05B0913B05892B8A2B8B2B72
:1010300009F49ECF0E948D04009138051091390566
:1010400020913A0530913B056C197D098E099F0965
:10105000061717072807390708F08ACFC0CF81E0A5
:10106000C3CF80E0C1CF82E0BFCF83E0BDCF81E0BE
:101070000C944707089508950895E09132048091F3
:101080003104E81730F4F0E0EF5EFB4F808190E030
:1010900008958FEF9FEF089590913204809131046D
:1010A0002FEF3FEF981748F4E92FF0E0EF5EFB4F8A
:1010B000208130E09F5F90933204C90108958091B0
:1010C000310490913204891B990B0895CF92DF92DD
:1010D000EF92FF920F931F93CF93DF937C01CB018D
:1010E0008A0120913C05222389F0EB016B01C40E9B
:1010F000D51ECC15DD0569F06991D701ED91FC9104
:101100000190F081E02DC7010995F3CF642F0E9473
:10111000E106C801DF91CF911F910F91FF90EF90F1
:10112000DF90CF900895CF93DF931F92CDB7DEB7B6
:10113000698320913C052223F9F020915F0520323C
:1011400058F021E030E0FC013383228390E080E01E
:101150000F90DF91CF91089580913D05E82FF0E049
:10116000E25CFA4F998190838F5F80933D05809375
:101170005F0581E090E0ECCF61E0CE0101960E9436
:10118000E106F7CFCF93C82F682F646081E297E024
:101190000E9493086C2F70E06B7F81E297E0CF9103
:1011A0000C9493080F931F93CF93DF938C01C62F5A
:1011B000D42FFC01848191E090933C0580935E05DF
:1011C00010923D0510925F05862F807F842B9585B8
:1011D000892B0E94C208F0E1CF9FC0011124F801C1
:1011E0009585892B8D2B0E94C208DF91CF911F918D
:1011F0000F910C943708CF93DF93CDB7DEB72897C4
:101200000FB6F894DEBF0FBECDBF28E0E6E5F1E0F3
:10121000DE01119601900D922A95E1F7FC012385DC
:10122000241710F44FEF420F50E0440F551F21E0F8
:1012300030E02C0F3D1F420F531FFA012081620F37
:10124000606840E028960FB6F894DEBF0FBECDBFB1
:10125000DF91CF910C94D208CF93DF93EC0140E063
:1012600061E00E94D2088BE39FE10197F1F7898545
:10127000882339F040E060E0CE01DF91CF910C94FB
:10128000FB08DF91CF91089541E00E94D20881E0F0
:1012900090E00895FC01248131E030933C052093D7
:1012A0005E0510923D0510925F05607F8585862B57
:1012B0000E94C2080C943708AF92BF92CF92DF927F
:1012C000EF92FF920F931F93CF93DF936C01FC017A
:1012D000848191E090933C0580935E0510923D05DA
:1012E00010925F05EB01042F10E05B01A00EB11E10
:1012F000F12CEE24E394CA15DB0541F18991F60146
:1013000095859160807F892B0E94C208FE013197EC
:101310002081F0E12F0290011124F6018585816082
:10132000822B0E94C208F394F7E0FF1520F780E0BB
:101330000E944707F6018481E0923C0580935E0598
:1013400010923D0510925F05F12CD5CF0E94370811
:10135000C8010197DF91CF911F910F91FF90EF90FE
:10136000DF90CF90BF90AF90089590E080E0089517
:10137000CF93DF93FC012381222359F1EC0161E03B
:1013800084810E94AE0361E08D810E94AE038B8157
:10139000843011F08830B1F461E08E810E94AE0398
:1013A00061E08F810E94AE038FA58F3F91F061E0D5
:1013B0000E94AE036EA581E068278FA5DF91CF91D3
:1013C0000C948003833011F0863071F761E08E81D8
:1013D000E9CFDF91CF910895CF93DF93FC01238173
:1013E0002223A9F0EC010190F081E02D0480F58129
:1013F000E02D60E009958FA58F3F49F061E00E94E4
:10140000AE036EA58FA5DF91CF910C948003DF9181
:10141000CF910895DC01ED91FC91248135814770D5
:1014200055276627772741505109610971094730CF
:1014300051056105710560F4FA01EF5DF54F0C94FB
:10144000C5312B0A2D0A2F0A310A330A350A370A09
:1014500061E0F901099465E0FCCF64E0FACF66E051
:10146000F8CF62E0F6CF6AE0F4CF68E0F2CF69E04F
:10147000F0CFCF93DF93EC01CB01BA0126E030E04F
:1014800040E050E00E940F31623071058105910506
:1014900089F16CF46115710581059105D1F0613018
:1014A000710581059105F9F0DF91CF9108956430C0
:1014B00071058105910561F124F1653071058105A2
:1014C000910591F7E881F9810480F581E02D66E0CE
:1014D00006C0E881F9810480F581E02D64E0CE0149
:1014E000DF91CF910994E881F9810480F581E02DA5
:1014F00065E0F5CFE881F9810480F581E02D61E0B8
:10150000EECFE881F9810480F581E02D63E0E7CF3B
:10151000E881F9810480F581E02D62E0E0CFDC0113
:10152000ED91FC910480F581E02D437055276627ED
:101530007727423051056105710571F0433051053F
:101540006105710559F0413051056105710511F0D2
:1015500065E0099466E0FDCF6AE0FBCF69E0F9CF72
:10156000CF93DF93EC01CB01BA0123E030E040E000
:1015700050E00E940F31613071058105910599F0AD
:101580006230710581059105A9F0672B682B692BE5
:10159000C1F4E881F9810480F581E02D64E0CE0199
:1015A000DF91CF910994E881F9810480F581E02DE4
:1015B00061E0F5CFE881F9810480F581E02D62E0FA
:1015C000EECFDF91CF910895DC01ED91FC91048085
:1015D000F581E02D43705527662777274230510566
:1015E0006105710571F0433051056105710559F0D0
:1015F000413051056105710511F062E0099463E025
:10160000FDCF61E0FBCF60E0F9CFCF93DF93EC013A
:10161000E881F9810480F581E02D8A8160E0811103
:1016200062E0CE010995E881F9810480F581E02D21
:101630008A8161E0811163E0CE0109958CA59DA5A9
:101640008230910538F0880F991F880F991F0597F0
:101650000197F1F7E881F9810480F581E02D8A8115
:1016600060E0811162E0CE01DF91CF910994CF93C8
:10167000DF93EC0120E030E0A9016C897D898E893F
:101680009F890E94E03218162CF4E8A9F9A9DF918D
:10169000CF910994EAA9FBA9FACFCF92DF92EF92FA
:1016A000FF920F931F93CF93DF93DC011396CC919E
:1016B000C43039F0C83059F1C33019F0C63049F19F
:1016C000C2E08C010C5F1F4FF12CE12CC62ED12CF7
:1016D000D1E0F8016481C6010E2C02C09595879572
:1016E0000A94E2F780FD6D270F5F1F4F80810E94F3
:1016F0008003BFEFEB1AFB0AEC1658F3DF91CF9192
:101700001F910F91FF90EF90DF90CF900895C4E06C
:10171000D8CFC3E0D6CFDC011396EC911397E93014
:1017200008F038C0F0E0E956F44F0C94C531A00B36
:10173000A60BAC0BB20BB80BCA0BBE0BCA0BC40B7F
:10174000ED91FC910084F185E02D0994ED91FC91DF
:101750000284F385E02DF9CFED91FC910484F585A9
:10176000E02DF3CFED91FC910684F785E02DEDCFD0
:10177000ED91FC910088F189E02DE7CFED91FC918E
:101780000288F389E02DE1CFED91FC910488F58981
:10179000E02DDBCF08954F925F926F927F928F92F0
:1017A0009F92AF92BF92CF92DF92EF92FF920F93F0
:1017B0001F93CF93DF93EC01C888D988EA88FB8810
:1017C0008C859D85AE85BF85C81AD90AEA0AFB0AB1
:1017D0006C897D898E899F899B01AC010E943B3079
:1017E0004B015C016C8D7D8D8E8D9F8D9B01AC01BD
:1017F0000E94CC319B01AC01C501B4010E9438327A
:101800000E94AA32C114D104E104F10409F0B1C06C
:1018100062307105810591050CF0CBC01CA21DA2A0
:101820001EA21FA21C8A1D8A1E8A1F8A1CAA1DAA0C
:101830001EAA1FAADF91CF911F910F91FF90EF90E9
:10184000DF90CF90BF90AF909F908F907F906F90E0
:101850005F904F9008951016110612061306B4F407
:101860006C157D058E059F051CF42A812111A1C0F0
:101870009B01AC0188279927DC01821B930BA40BE9
:10188000B50B8CAB9DABAEABBFAB93C001151105D7
:101890002105310509F48DC06C157D058E059F0568
:1018A0000CF087C08A81882309F483C03095209585
:1018B000109501951F4F2F4F3F4F0CAB1DAB2EAB1B
:1018C0003FAB77C0011511052105310509F471C041
:1018D0008824992454018C189D08AE08BF08681507
:1018E00079058A059B050CF064C08A81811161C06D
:1018F000DDCFCCACDDACEEACFFACA7019601C701EF
:10190000B6010E94CC312B013C01C501B4010E94FB
:10191000DC2F20E030E040E850E40E943B3020E043
:1019200030E040E85FE30E94CC319B01AC01C30191
:10193000B2010E9438329B01AC01C701B6010E947E
:10194000CB313B016C01FE01E05CFF4FE080F18098
:10195000028113819701A8010E94E032181614F445
:1019600073018601C701D8018CAF9DAFAEAFBFAF89
:101970003AC00CA91DA92EA93FA91C141D041E04C0
:101980001F040CF468CF10161106120613060CF093
:1019900099CF0027112798010C191D092E093F091D
:1019A00060177107820793070CF062CF2A8121111B
:1019B0005FCF8CA89DA8AEA8BFA881149104A104F4
:1019C000B10409F096CF88AD99ADAAADBBAD8CAF8F
:1019D0009DAFAEAFBFAF81E01C141D041E041F04F9
:1019E0000CF080E08A833FEF831A930AA30AB30ABC
:1019F0008CAA9DAAAEAABFAACCACDDACEEACFFAC63
:101A0000C701B6010E94B1326CA37DA38EA39FA330
:101A1000A701960160E074E284E799E40E943832FD
:101A20006C8B7D8B8E8B9F8B2A81211103CF9058DD
:101A30006C8B7D8B8E8B9F8BFDCE8F929F92AF9206
:101A4000BF92EF92FF920F931F93CF937C018B0174
:101A5000C42F0E94E404F80180809180A280B380AA
:101A6000DC01CB0188199909AA09BB094C2F50E068
:101A700070E060E084179507A607B70748F0F70104
:101A800009950E94E404F801608371838283938343
:101A9000CF911F910F91FF90EF90BF90AF909F90CB
:101AA0008F90089520910F0430911004280F311D5C
:101AB00081E02139314008F080E00895FC01848103
:101AC0008823E1F08181811119C081E081838281C5
:101AD0009381FC0140895189628973894036594755
:101AE0006E4F7F4F59F040E659E76EEF7FEFFC01F4
:101AF000408B518B628B738B0C94CB0B08954F9260
:101B00005F926F927F928F929F92AF92BF92DF927D
:101B1000EF92FF920F931F93CF93DF93D12C08E89E
:101B200010E0B8E5EB2EB2E0FB2EC4EB4C2E512CAE
:101B3000612C712C80917E02D81608F096C0ED2D94
:101B4000F0E0EE0FFF1FE858FD4FC081D181898979
:101B50009A89AB89BC894D855E856F8578898417A4
:101B60009507A607B70709F47AC0481759076A0707
:101B70007B070CF076C00197A109B109898B9A8B7C
:101B8000AB8BBC8BA989BA89A03282E0B807ACF5CF
:101B90002B854801821A910827FD9394880C991C83
:101BA000880C991C092C000CAA08BB082C85C701BD
:101BB000821B910927FD93959C01220F331F220F51
:101BC000331F032E000C440B550B281939094A0901
:101BD0005B09A53BB10514F0A4EBB0E0B7FF02C070
:101BE000B0E0A0E00E943931A30192010E940F31C0
:101BF000820E931EA41EB51ED401EA85EC3078F542
:101C00002B85C801821B910927FD93959C01220F0A
:101C1000331F220F331FA217B3077CF02C85C70197
:101C2000821B910927FD93959C01220F331F220FE0
:101C3000331FA217B3070CF49D0122503109220F64
:101C4000331F4FB7F8948E2F90E0FC01EE0FFF1F6B
:101C5000E80FF91FE558FB4F328321834FBFD39420
:101C600069CF0196A11DB11D89CFDF91CF911F9141
:101C70000F91FF90EF90DF90BF90AF909F908F906B
:101C80007F906F905F904F900895EF92FF921F9317
:101C9000CF93DF93EC01162F8C8180FF10C0603151
:101CA00070F46D837E0184E0E80EF11C612F617099
:101CB00089910E9480031695EC16FD06B9F7DF9115
:101CC000CF911F91FF90EF900895DC01842FE09158
:101CD0006B02F0916C02309719F04D915C91099470
:101CE00008954F925F926F927F928F929F92AF92E0
:101CF000BF92CF92DF92FF920F931F93CF93DF9308
:101D0000F12C80916502F81608F0EEC0EF2DF0E09E
:101D1000EE0FFF1FED5AFD4FC081D1818A818823CC
:101D200009F4B3C088810E9457038C0189810E9405
:101D300057036C010E94E4044B015C0181E090E0D8
:101D4000CD2811F090E080E0880F991F21E0012B51
:101D500009F020E0922F982B4B8D5C8D6D8D7E8D40
:101D600095018401041B150B260B370BB901A80143
:101D7000453651056105710508F489C088858230B2
:101D800008F485C08B8E9C8EAD8EBE8E8150888768
:101D9000EE859E1709F445C0888503E310E087307F
:101DA00010F401E010E06D8524E0E202F00111245E
:101DB000492F092E000C550BE42BF52BE957FE4F4C
:101DC000708170039001719F300D1124062E02C0A6
:101DD000220F331F0A94E2F7EF85F8892E0F3F1F79
:101DE000388B2F874C0F5D1FFA0141854423C1F0CA
:101DF0004B885C886D887E884F8A588E698E7A8E73
:101E00008B8A9C8AAD8ABE8A02C0359527956A95D1
:101E1000E2F73A8B298B8C3008F08BE08F5F888754
:101E20009E8709891A898D819E810817190769F192
:101E30009801281B390BC901E0915102F09152021F
:101E40006901CC0CDD1C309709F44BC04B815C81DF
:101E50002F5C3F4F23363105E0F597FD30C0688198
:101E600080E00995C00ED11E31E4C3163FE1D306D0
:101E700054F08F85988983709927988B8F871A8A59
:101E8000198A10E000E01E830D83F3943ACF4F8946
:101E9000588D698D7A8D95018401041B150B260BD5
:101EA000370BB901A801453F51406105710508F4A0
:101EB0006FCF8B8E9C8EAD8EBE8E188669CF69815A
:101EC00082E00995C8018C199D09803C904E8CF2E6
:101ED000DACF97FD03C0688181E0C3CF698183E0D9
:101EE000F0CF37FDEFCFBECFDF91CF911F910F9194
:101EF000FF90DF90CF90BF90AF909F908F907F909A
:101F00006F905F904F900895CF92DF92EF92FF9283
:101F10000F931F93CF93DF936C017A0180914F024F
:101F200090915002892B31F1D60113968C9100E1EA
:101F300081FD08E0EB01CE25DF2510E0C0FF13C0D6
:101F400080914F0290915002892B69F0E0914D02EF
:101F5000F0914E02309739F0D6014D915C91612F8E
:101F60008E2D81700995D695C795F694E7941F5FDD
:101F70000113E4CFDF91CF911F910F91FF90EF906C
:101F8000DF90CF900895AF92BF92CF92DF92EF9201
:101F9000FF920F931F93CF93DF931F92CDB7DEB7BE
:101FA000C0904F02D0905002C114D10409F43FC038
:101FB000FC01238130E1B32E21FF02C028E0B22EC4
:101FC000A62E8C01F60185818683F12CE12CBA9432
:101FD0006B2DC6010E94450EF80182810E945703B5
:101FE0008983F80182810E9457038983EE0CFF1CCC
:101FF000298181E090E0211102C090E080E0E82A90
:10200000F92AB110E4CFF6016681C6010E94450E9F
:10201000F801648175816E157F0549F0AA2021F0D1
:10202000A701C8010E94840FF801F582E4820F9095
:10203000DF91CF911F910F91FF90EF90DF90CF90A4
:10204000BF90AF900895CF93C0E080914C02C81725
:1020500068F4EC2FF0E0EE0FFF1FEA5BFD4F61E04C
:10206000808191810E94C30FCF5FEFCFCF91089500
:10207000DC01E0914402F0914502309761F0139643
:102080008C911397882339F04D915C91119712969A
:102090006C9181E009940895DC01E0914402F09193
:1020A0004502309759F013968C911397811106C011
:1020B0004D915C91119712966C91099408951F931C
:1020C000CF93DF9310E0809143021817F0F4E12FD3
:1020D000F0E0EE0FFF1FE15EFD4FC081D1818A81EC
:1020E0000E9457039B81891751F091E0811101C033
:1020F00090E09B83811105C0CE010E944C101F5FB0
:10210000E2CFCE010E943810FACFDF91CF911F911C
:102110000895DC015896EC915897F0E03396EE0F55
:10212000FF1FE80FF91F56968D919C9157972081BC
:102130003181821B930B57969C938E9356971296E0
:10214000EC911297E23108F0E251F0E0EC5FFD4FC4
:10215000E49190917B008E2F880F880F80729F7D75
:10216000892B80937B00E770E064E0937C00809192
:102170007A00806480937A0080917A0086FDFCCF9B
:1021800090917800809179005896EC915897F0E002
:102190003396EE0FFF1FEA0FFB1F89279827892729
:1021A000918380835896EC915897F0E03396EE0F28
:1021B000FF1FEA0FFB1F56968D919C915797208128
:1021C0003181820F931F57969C938E935697589602
:1021D0008C9158978F5F58968C93589758968C91FE
:1021E0005897877058968C930895CF93C0E080914C
:1021F0001E02C81760F4EC2FF0E0EE0FFF1FEC5E3C
:10220000FD4F808191810E948910CF5FF0CFCF91E7
:102210000895CF93C0E080911E02C817B8F5EC2F47
:10222000F0E0EE0FFF1FEC5EFD4FA081B1815696EE
:102230008D919C91579723E0969587952A95E1F784
:1022400013962D913C911497AC01421B530B9A01AC
:1022500057FF03C031952195310915964C9115977B
:102260004217130609F084F414969C938E931397E7
:10227000E0911202F0911302309731F04D915C9190
:10228000119712966C910995CF5FC5CFCF910895A4
:102290000E94E4046093D0047093D1048093D2042C
:1022A0009093D30408950F931F93CF93DF93082F38
:1022B000162FD42FC8E06D2F661F6627661F802F4C
:1022C0000E948003DD0F61E0812F0E94800360E0A7
:1022D000812F0E948003C15071F7DF91CF911F9130
:1022E0000F910895EF92FF920F931F93CF93DF9377
:1022F00000D0CDB7DEB78C0149832A83660F771FE4
:10230000F801E688F788EE0CFF1CCF01801B910BCB
:102310008E159F0514F41192F8CF8981F801E60F0C
:10232000F71F81838A81808360E0F80184890E949D
:1023300080031E141F046CF4F1E0EF1AF108F80199
:10234000EE0DFF1D4081F801628980890E945311C2
:10235000F0CF61E0F80184890F900F90DF91CF9169
:102360001F910F91FF90EF900C94800377FD0DC0AB
:10237000FC0126893789621773073CF420E041117C
:1023800001C021E04CE00C9472110895FF920F936C
:102390001F93CF93DF93F82EC0E080917502C8178A
:1023A000B8F4EC2FF0E0EE0FFF1FEA58FD4F00816C
:1023B0001181D0E0F801808D8D1741F06D2F70E014
:1023C0004F2DC8010E94B611DF5FF4CFCF5FE5CF7C
:1023D000DF91CF911F910F91FF9008950F931F935D
:1023E000CF93DF93FC01208D2223F9F06217E8F4EC
:1023F000062F10E04423B1F0EC0186899789081775
:1024000019073CF42FEF240F4AE0B801CF010E94D6
:10241000721140E0B801CE01DF91CF911F910F9171
:102420000C94B61141E0B801F7CFDF91CF911F9125
:102430000F910895FF920F931F93CF93DF93EC01B9
:1024400060E088810E948003FB800F2D10E00C5F0C
:102450001F4F0C0F1D1FFF2049F0F80142918F0103
:1024600069818A810E945311FA94F5CF61E08881D5
:10247000DF91CF911F910F91FF900C9480039F9259
:10248000AF92BF92CF92DF92EF92FF920F931F9382
:10249000CF93DF93EC01C62E61E08B810E94800315
:1024A00061E08A810E94800310E08D81181708F096
:1024B0003FC0DB80BC8087E0E82EF12C00E061E0CB
:1024C0008D2D0E9480038B2D0E9457030E2C01C07E
:1024D000880F0A94EAF7082B60E08D2D0E94800394
:1024E00081E0E81AF10858F75E01A10EB11CF50170
:1024F000D780D016D9F0CC20B9F0912E990C990C38
:10250000990CE02EF12C8D2D8E2580FF07C04E2DCD
:102510004170692D6F0DCE010E94650ED694E69430
:10252000F394F8E0FF12EFCFF50107831F5FBDCFF3
:1025300060E08A81DF91CF911F910F91FF90EF9022
:10254000DF90CF90BF90AF909F900C948003CF937B
:10255000C0E080916A02C81768F4EC2FF0E0EE0F3B
:10256000FF1FEA59FD4F61E0808191810E943F1277
:10257000CF5FEFCFCF9108957F928F929F92AF92CE
:10258000BF92CF92DF92EF92FF920F931F93CF9360
:10259000DF93C0E080914302C81760F4EC2FF0E0B5
:1025A000EE0FFF1FE15EFD4F808191810E94381088
:1025B000CF5FF0CFC0E080914302C81760F4EC2FEA
:1025C000F0E0EE0FFF1FE15EFD4F808191810E94E0
:1025D0004C10CF5FF0CF10E080916A02181708F01E
:1025E00057C0E12FF0E0EE0FFF1FEA59FD4FC08109
:1025F000D18160E0CE010E943F126E0187E0C80EDB
:10260000D11C4601712CF12CE12C8D818E151F04FB
:10261000D9F0D4F0F40181914F0100E0A82EB12C43
:1026200080FF06C041E0672D600FCE010E94650E5D
:10263000B594A7948A2D0F5F083081F7FFEFEF1A4A
:10264000FF0A88E0780EE1CFF12C912C812C8D814E
:1026500088151904D9F0D4F0F60181916F0100E0DA
:10266000A82EB12C80FD06C040E06F2D600FCE017A
:102670000E94650EB594A7948A2D0F5F083081F7EC
:10268000FFEF8F1A9F0A88E0F80EE1CF1F5FA4CFFB
:102690000E94481110E080914C021817E0F4E12FDD
:1026A000F0E0EE0FFF1FEA5BFD4FC081D18160E0DB
:1026B000CE010E94C30F4C815D8170E060E0CE01CD
:1026C0000E94840F4C815D816FEF7FEFCE010E94ED
:1026D000840F1F5FE0CFC0E080911E02C81718F57D
:1026E000EC2FF0E0EE0FFF1FEC5EFD4FA081B181FB
:1026F00056968D919C91579723E0969587952A95AC
:10270000E1F714969C938E931397E0911202F09147
:102710001302309731F04D915C91119712966C91A4
:102720000995CF5FD9CFDF91CF911F910F91FF9086
:10273000EF90DF90CF90BF90AF909F908F907F9061
:1027400008950E945802882359F081E08093500830
:102750008093510880915208909153080C94472F10
:102760001092510890E080E008951F93CF93DF937B
:102770000E94A113EC010E94A113182F0E94A11323
:10278000CC0FDD1FCA58DD4F482F612F88819981FA
:102790000E94EE11DF91CF911F910C9448110C947F
:1027A000B5137F928F929F92AF92BF92CF92DF929A
:1027B000EF92FF920F931F93CF93DF930E94A11389
:1027C000EC010E94A1138C010E94A9024C010E94FD
:1027D000A1135C010E94A113CC0FDD1FCA58DD4F6D
:1027E000E880F980F701208D222381F1C7E0D0E055
:1027F000712C6C01DD241127BB244C2F4F5F9601F7
:102800000C2E02C0359527950A94E2F720FF1CC0D4
:10281000F7012689378902171307ACF4F401E70D95
:10282000F11DE081F0E0E05DFD4F2491B5010C2E3B
:1028300002C0759567950A94E2F760FD2068B801BB
:10284000C7010E94721173942197B8F6DF91CF915E
:102850001F910F91FF90EF90DF90CF90BF90AF90BE
:102860009F908F907F900C944811CF930E94A1135A
:10287000C82F0E94A113BC018C2F0E94EA03CF91A4
:102880000C9448110E94A1132091DC04821760F47B
:10289000FC01FF27EE0FFF1FEA52FB4F8081918161
:1028A0000E945E0D0C94481108950F931F930E948F
:1028B000A1132091DC04821708F047C0FC01FF2718
:1028C000EE0FFF1FEA52FB4FA081B1811296ED91EE
:1028D000FC9113971486158616861786108A118A1E
:1028E000128A138A14AA15AA16AA17AA14A215A244
:1028F00016A217A2148A158A168A178A1C968C911A
:102900001C978823F1F012968D919C9113971A963B
:102910004C9150E0519541955109052E000C660BE4
:10292000770BFC01008911892289338940175107EF
:102930006207730731F0408B518B628B738B0E945F
:10294000CB0B1F910F910C9448111F910F9108957B
:102950008F929F92AF92BF92CF92DF92EF92FF92AF
:102960001F93CF93DF930E94A113EC010E94A11348
:10297000BC0180917E028C171D0609F00CF4B0C0DA
:10298000CC0FDD1FC858DD4F0990D881C02DCD80F8
:10299000DE800D2C000CEE08FF0889809A80092C3F
:1029A000000CAA08BB082F813885032E000C440BAD
:1029B000550B2C193D094E095F09072E000C880B99
:1029C000990B681979098A099B090E94A9312B8101
:1029D0003C81032E000C440B550B281939094A0978
:1029E0005B090E940F31BA01A9014C0D5D1D6E1DDE
:1029F0007F1D052E000C660B770B8D859E85AF85A0
:102A0000B88984179507A607B70709F45CC04D87F6
:102A10005E876F87788B8985811155C08A858C3058
:102A200008F04FC0188161E0812F0E94AE038A85B3
:102A3000282F30E0F901EE0FFF1FE20FF31FE558DA
:102A4000FB4F1F739081907C912B90831B861C867B
:102A50002CE0622F0E94B931829FB001112430E036
:102A600020E0AB01420F531FFA01EE0FFF1FE40FEE
:102A7000F51FE558FB4F908196FD16C02F5F3F4F25
:102A80002C30310571F781110FC01092800082E067
:102A9000809381001092850010928400B19A8091F9
:102AA0006F00826080936F00EA858E2F90E0FC01BA
:102AB000EE0FFF1FE80FF91FE558FB4F8081806480
:102AC000808381E08987DF91CF911F91FF90EF9004
:102AD000DF90CF90BF90AF909F908F900C94481153
:102AE000DF91CF911F91FF90EF90DF90CF90BF903B
:102AF000AF909F908F900895EF92FF920F931F9346
:102B0000CF93DF930E94A1138C010E94A9027C0144
:102B1000EC01FC01DE018081882349F090915B0883
:102B2000891301C03196808189933196F3CFAE1716
:102B3000BF0710F41D92FBCF000F111FF801E359DE
:102B4000FD4F00811181F80186858823B1F0C0E036
:102B5000F80181898C1789F04C2F60E0C8010E9430
:102B6000FB08F8014089B701C49F600D711D112455
:102B7000C8010E945C09CF5FEBCFDF91CF911F911D
:102B80000F91FF90EF900C944811209134073091F1
:102B900035078217930710F40C94F93080E00895FC
:102BA0000F931F93CF93DF938C01EB01F80180818A
:102BB00091819C012F5F3F4F318320830E94C51577
:102BC00028813981A9014F5F5F4F59834883205A7B
:102BD0003A4FF9018083288139812E35F1E03F0792
:102BE00060F48A3319F7215A3A4FF901108281E0D3
:102BF000DF91CF911F910F91089580E0F9CFEF926F
:102C0000FF920F931F93CF93DF93EC01E090340773
:102C1000F0903507888199818C010F5F1F4F1983D0
:102C200008830E94C515E016F10650F08A3391F72B
:102C300081E0DF91CF911F910F91FF90EF90089568
:102C400080E0F7CFAF92BF92CF92DF92EF92FF92E8
:102C50000F931F93CF93DF9300D000D0CDB7DEB793
:102C60005C0119821A821B821C82CE0101967C01B2
:102C700010E000E06C01F501808191819C012F5FE3
:102C80003F4F318320830E94C515F7018083F801EF
:102C90008E3241F00F5F1F4F8FEFE81AF80A0430B1
:102CA000110549F7EC0DFD1D1082C6010E94472F4A
:102CB0000F900F900F900F90DF91CF911F910F9178
:102CC000FF90EF90DF90CF90BF90AF900895FB0101
:102CD00001900020E9F73197AF01461B570BDC014B
:102CE000ED91FC910280F381E02D0994809186079B
:102CF0008823A1F060915908809157089091580855
:102D00000E94820580918E07882341F06CED71E06E
:102D100080915708909158080E94671610928D076D
:102D20001092860780E008958F929F92AF92BF9293
:102D3000EF92FF920F931F93CF93DF93CDB7DEB740
:102D4000A1970FB6F894DEBF0FBECDBF7C01FA018C
:102D5000CB0119A2223008F42AE08E010F5D1F4F2B
:102D6000822E912CB12CA12CBF01A50194010E94AF
:102D70007831F901CA016A300CF5605DD8016E93B3
:102D80008D01232B242B252B79F790E080E01097E1
:102D900021F0BD01C7010E946716A1960FB6F894F5
:102DA000DEBF0FBECDBFDF91CF911F910F91FF907E
:102DB000EF90BF90AF909F908F900895695CDECFA9
:102DC000CF93909186079923A9F0C82F60915A0854
:102DD00080915708909158080E9482054C2F50E02E
:102DE00070E060E02AE08091570890915808CF91F8
:102DF0000C949416CF91089590918607911110C06C
:102E000091E09093860790938D07482F50E070E0F3
:102E100060E02AE080915708909158080C9494162D
:102E20000895CF93DF939091860791111AC0EB011B
:102E30000E94FC1680918607882379F060915A08D9
:102E400080915708909158080E948205BE01809198
:102E50005708909158080E948905DF91CF910C94F2
:102E6000761680E0DF91CF9108950E94E40460938C
:102E7000D0047093D1048093D2049093D3046CEA6D
:102E800070E085E00C9411171F93CF93DF9310929D
:102E90004302109265021092CF048091750288233C
:102EA00029F0E0917602F0917702108E109275026F
:102EB00030917E02C8E7D2E020E03217D1F0A9912C
:102EC000B99119968C911997882389F01A96EC91EB
:102ED0001A978E2F90E0FC01EE0FFF1FE80FF91FED
:102EE000E558FB4F80818F7B808319961C922F5F62
:102EF000E4CF10927E029091DC04E6EDF4E080E0F5
:102F0000981729F0A191B1911C928F5FF9CF10927F
:102F1000DC0490911002EDE6F2E080E0981759F0A1
:102F2000A191B1911E962C911E97222311F01E960D
:102F30001C928F5FF3CF1092100210921E0290919C
:102F40001102E1E7F2E080E0981759F0A191B19108
:102F500018962C911897222311F018961C928F5FC7
:102F6000F3CF1092110280916A02882361F0E09100
:102F70006602F09167021682823028F0E0916802C2
:102F8000F0916902168210926A0210E0E0914C0200
:102F90001E1798F4F0E0EE0FFF1FEA5BFD4FC081B3
:102FA000D1818B8180FF07C062E08A810E94AE03DD
:102FB0008B818E7F8B831F5FE9CF10924C02109222
:102FC000AA041092A9041092D50410921004109231
:102FD0000F0460EB70E085E0DF91CF911F910C94BE
:102FE000111763EB70E08FE00C94111720910F0420
:102FF00030911004820F932F911D909310048093B1
:103000000F048039914040F061EF72E085E00E944A
:10301000111790E080E00895C90181589D4F0895EF
:10302000CF92DF92EF92FF920F931F93CF93DF9394
:1030300090916502993009F45EC07901142FC62E73
:10304000D82E8FE10E94520D81110DC060E172E017
:1030500085E0DF91CF911F910F91FF90EF90DF906E
:10306000CF900C9411178FE10E94F617EC01892B79
:1030700009F01A8200916502E02FF0E0EE0FFF1FC9
:10308000ED5AFD4FD183C0831E821D82FC82EB82EC
:10309000D882C98285E0819FF0011124E259FE4F58
:1030A000DE01199601900D928A95E1F762E08D2D6F
:1030B0000E94AE0362E089810E94AE031E86188AD8
:1030C0001F861A8A198A18861F8A188E198E1A8ED8
:1030D00084EF91E0A0E0B0E08B8B9C8BAD8BBE8B3E
:1030E00081E08A8385E099E19093520280935102B6
:1030F0000F5F00936502DF91CF911F910F91FF90B9
:10310000EF90DF90CF90089581E08093D50466EB37
:1031100070E081E10C941117CF93DF930E94481166
:103120008AE00E94FC168091A9049091AA04892B40
:1031300091F18BE390E00E94C515C82F809186071E
:10314000882379F060915A08809157089091580827
:103150000E9482056C2F80915708909158080E9418
:103160008205C1E0D0E08091A9049091AA04C8171B
:10317000D90788F4CE01CB960E94C5159091860799
:10318000992339F0682F80915708909158080E9430
:1031900082052196E8CFDF91CF910C947616CF93DC
:1031A000DF93209186072223A1F0EC0160915A0859
:1031B00080915708909158080E948205209749F005
:1031C000BE018091570890915808DF91CF910C94DF
:1031D0006716DF91CF9108950F931F93CF93DF93DD
:1031E000C82FD62F8A018DE10E94FC16C8010E94CB
:1031F000CF188D2F0E94E0168C2F0E94E016DF91D1
:10320000CF911F910F910C9476160F931F93CF932C
:10321000C82F8A0186E00E94FC16C8010E94CF18C0
:103220008C2F0E94E016CF911F910F910C9476166F
:103230000F931F93CF93DF93C82FD62F8A018EE170
:103240000E94FC16C8010E94CF188D2F0E94E01624
:103250008C2F0E94E016DF91CF911F910F910C945B
:1032600076160F931F93CF93C82F8A0187E00E9491
:10327000FC16C8010E94CF188C2F0E94E016CF9137
:103280001F910F910C947616CF92DF92EF92FF92DE
:10329000CF93DF936C01EA018CE10E94FC16CE0112
:1032A0000E94CF1880918607882321F160915A08E7
:1032B00080915708909158080E948205C091570844
:1032C000D09158080D2C000CEE08FF082AE0B70139
:1032D000A601F7FE0CC06DE2CE010E9482054427D4
:1032E0005527BA014C195D096E097F092AE0CE0104
:1032F0000E949416DF91CF91FF90EF90DF90CF90D6
:103300000C947616FB0101900020E9F73197AF018C
:10331000461B570BDC01ED91FC910284F385E02DF7
:103320000994CF92DF92EF92FF920F931F93CF9366
:10333000DF938C01EB01FC01D0886D2D70E0FE0164
:1033400001900020E9F7CF0101978C1B9D0B861798
:103350009707B0F4681B790B76956795D82EC8014E
:103360000E94FB08CC2EEC2EFD2E8E2D8C198D1577
:1033700048F4F70161917F01C8010E944409F5CF2B
:1033800060E0EDCFDF91CF911F910F91FF90EF9013
:10339000DF90CF90089585ED8093BC008091380533
:1033A00090913905A0913A05B0913B050796A11D72
:1033B000B11D23E0B695A795979587952A95D1F7E6
:1033C0002091BC0024FD03C0109236050895409161
:1033D00038055091390560913A0570913B05452BB0
:1033E000462B472B69F30097A105B10541F025E372
:1033F0002A95F1F700000197A109B109E1CF809169
:1034000037050C9426074F925F926F927F928F92AE
:103410009F92AF92BF92CF92DF92EF92FF92CF93A3
:10342000DF93EC016A017B0120E030E0A901CB01D0
:10343000B6010E94D52F87FF04C0F7FAF094F7F881
:10344000F0948C8C9D8CAE8CBF8CA7019601C5012D
:10345000B4010E94D52F882309F449C06CA97DA925
:103460008EA99FA90E94DC2F2B013C01A701960188
:10347000C501B4010E9438329B01AC01C301B20105
:103480000E943B300E94AA326CAB7DAB8EAB9FABEF
:10349000A701960160E070E080E090E40E9438327D
:1034A0000E94EB3226E53EE04DE25FE30E943B30B6
:1034B00020E034E244E759E40E943B3068AF79AF42
:1034C0008AAF9BAFCC8EDD8EEE8EFF8ECE01DF916C
:1034D000CF91FF90EF90DF90CF90BF90AF909F90F3
:1034E0008F907F906F905F904F900C94CB0BDF91FB
:1034F000CF91FF90EF90DF90CF90BF90AF909F90D3
:103500008F907F906F905F904F900895EF920F9300
:10351000CF93DF93EC0182EA91E0998388836B83F8
:103520001C861D861E861F86188A198A1A8A1B8A7F
:103530001C8A1D8A1E8A1F8A80E090E0A0E8BFE3F3
:10354000888F998FAA8FBB8F1C8E1D8E1E8E1F8E0B
:1035500088A399A3AAA3BBA31CA21DA21EA21FA25B
:1035600061E070E07DA76CA73FEF3FA718A619A602
:103570001AA61BA64C832D830E83EF821EA61CAABF
:103580001DAA1EAA1FAA18AE19AE1AAE1BAE1CAEFB
:103590001DAE1EAE1FAEFE01E05CFF4F8083918327
:1035A000A283B3831A82188619861A861B86CE01D7
:1035B0000E94B80940E050E060E87FE3CE01DF916F
:1035C000CF910F91EF900C94031A8F929F92AF922C
:1035D000BF92CF92DF92EF92FF920F931F93CF9300
:1035E000DF930E94A113EC010E94A1138C010E94A1
:1035F000A1137C018091DC04C81708F078C0DD2796
:10360000CC0FDD1FCA52DB4FC880D980F601C281C2
:10361000D381B80190E080E00E94DA2F4B015C0179
:10362000288D398D4A8D5B8D0E94D52F8823F1F12D
:10363000888E998EAA8EBB8E8E01005C1F4FA501CD
:10364000940160E074E284E799E40E943832F80162
:1036500060837183828393838CA99DA9AEA9BFA93E
:10366000181619061A061B060CF56C897D898E89B9
:103670009F899B01AC010E943B304B015C016C8D2A
:103680007D8D8E8D9F8D9B01AC010E94CC319B0165
:10369000AC01C501B4010E9438320E94AA326CAB61
:1036A0007DAB8EAB9FABCE010E94CB0BB70190E000
:1036B00080E00E94DA2F4B015C0120E030E0A9019C
:1036C0000E94D52F882399F0B501A401F6018281CB
:1036D0009381DF91CF911F910F91FF90EF90DF9039
:1036E000CF90BF90AF909F908F900C94031ADF9172
:1036F000CF911F910F91FF90EF90DF90CF90BF90EF
:10370000AF909F908F9008954F925F926F927F92AB
:103710008F929F92AF92BF92CF92DF92EF92FF92E1
:103720000F931F93CF93DF93D02E9091DC049330AF
:1037300009F44AC00E2DB22EE42E162FF82E8EE07C
:103740000E94520D811115C061ED72E085E0DF919C
:10375000CF911F910F91FF90EF90DF90CF90BF908E
:10376000AF909F908F907F906F905F904F900C9450
:1037700011178EE00E94F617EC01892B09F01882D0
:10378000E091DC04F0E0EE0FFF1FEA52FB4FD18323
:10379000C08384E40E94520D811127C060EB72E067
:1037A00085E00E941117C091DC04DD2051F0EC2F60
:1037B000F0E0EE0FFF1FEA52FB4F808191810E94E3
:1037C0005E0DCF5FC093DC04DF91CF911F910F910D
:1037D000FF90EF90DF90CF90BF90AF909F908F9031
:1037E0007F906F905F904F900895013009F48EC0E4
:1037F00028F0023009F496C01882D5CF84E4FE1078
:103800000EC01B110CC00E94F6174C01892B99F0B9
:1038100095E0E92E04E0212F4F2D61E009C00E94C0
:10382000F6174C01892B39F00F2D212F4B2D64E019
:10383000C4010E94861A9B828A82EA80FB8020E073
:1038400030E048EC53E4F701608D718D828D938DEB
:103850000E94D52F882309F440C080E090E0A8ECB6
:10386000B3E4F701808F918FA28FB38F80E090E453
:10387000ACE1B5E4E05CFF4F80839183A283B38326
:10388000F70184A995A9A6A9B7A9181619061A06B9
:103890001B061CF564897589868997899B01AC0193
:1038A0000E943B302B013C01F701648D758D868DA4
:1038B000978D9B01AC010E94CC319B01AC01C301EF
:1038C000B2010E9438320E94AA32F70164AB75AB94
:1038D00086AB97ABC7010E94CB0B40E050E068E499
:1038E00074E48A819B810E94031ADC8281E08D83CB
:1038F000DD2021F062E08D2D0E94AE03CA86AB86EA
:1039000081E0888319828D878C874DCF84E40E9463
:10391000F6174C01892B09F48ECF0F2D212F4B2D3B
:1039200068E086CF84E46FCF2F923F924F925F92F0
:103930006F927F928F929F92AF92BF92CF92DF92BF
:10394000EF92FF920F931F93CF93DF9300D000D09D
:10395000CDB7DEB78091A9049091AA04892B09F410
:103960004AC58BE390E09A8389831C821B82CE0137
:1039700001960E942216882309F43DC53BE4832E5C
:1039800036E4932E42E6442E41E0542E54EB652E4D
:10399000712CEFEFE80FCE010196EF3008F0A4C0D4
:1039A0000E2E000CFF0BE952F34E0C94C531E61CB1
:1039B000091F411D771D521EB91E2D1F1A1F731E90
:1039C000912034200121741D64218E1E0E94221634
:1039D000D82E809143028231D9F184E00E94520DA9
:1039E00069EB70E0882309F4B7C4EB80FC8084E0C5
:1039F0000E94F6178C010097C1F0DC011296DC9250
:103A00001297C701805A9A4F8D939C9362E08D2D37
:103A10000E94AE03F80182810E94570321E0892BA6
:103A200009F420E0D80113962C9380914302E82FEB
:103A3000F0E0EE0FFF1FE15EFD4F1183008321E3F5
:103A400039E130934502209344028F5F8093430213
:103A5000BE016D5F7F4FCE0101960E94D015182FD9
:103A6000CE0101960E942216882309F4C1C41111C7
:103A700090CF1092BD0669ED71E085E00E941117AC
:103A8000BAC40E942216F82E8091CF04823151F1DF
:103A900082E00E94520D67ED70E0882309F45FC355
:103AA00082E00E94F6178C01009779F0FC01F08209
:103AB000118261E08F2D0E94AE03D80111966C91A6
:103AC000119770E08C910E94EA038091CF04E82F57
:103AD000F0E0EE0FFF1FE555FB4F118300838F5F72
:103AE0008093CF04CE0101960E94FF15B8CF0E94AB
:103AF0002216282ECE0101960E942216A82ECE0153
:103B000001960E942216382ECE0101960E9422169E
:103B1000C82ECE0101960E942216B82E8091750201
:103B2000813001F389E10E94520D65EF70E0882336
:103B300009F415C389E10E94F6178C01009711F072
:103B4000FC01108EE22C022C000CFF08D0907502B4
:103B5000ED2DF0E0EE0FFF1FEA58FD4F11830083BB
:103B6000D8015196FC92EE925097832D330C990B0D
:103B700053969C938E9352978A2DAA0C990B559627
:103B80009C938E935497EB2DE150FF0B389708F4DC
:103B90005CC088E090E0D80157969C938E9356972E
:103BA00061E0822D0E94AE0361E0F80182890E94EB
:103BB000AE0361E0D80154968C910E94AE0361E09F
:103BC000F80184890E948003D8015196FC92EE92FC
:103BD0005097F12CE12CF80186899789E816F906AF
:103BE000B4F520E04FE0B701C8010E947211D8017E
:103BF00056968D919C91E816F90634F427E04BE037
:103C0000B701C8010E94721120E049E0B701C80164
:103C10000E947211F80186899789E816F90664F402
:103C2000AA24A39420E04A2DB701C8010E94721172
:103C3000A394F9E0AF12F6CF41E0B701C8010E94AA
:103C4000B6112FEFE21AF20AC6CF8B2DA3CFB08E9A
:103C5000B12CF801808DB81608F54C2D6B2DC801DC
:103C60000E94EE11EB2CF12C40E0B701C8010E943C
:103C7000B611D80156968D919C91E816F90664F418
:103C8000AA24A39420E04A2DB701C8010E94721112
:103C9000A394B9E0AB12F6CFB394DBCFD394D09218
:103CA000750220CF0E942216182FCE0101960E9485
:103CB0002216F82ECE0101960E942216D82ECE0191
:103CC00001960E942216B82ECE0101960E9422165D
:103CD000A12CC12CE12C00E02B2D4D2D6F2D812F1F
:103CE0000E94841BFFCE0E942216182FCE0101963F
:103CF0000E942216F82ECE0101960E942216D82E7E
:103D0000CE0101960E942216B82ECE0101960E9485
:103D10002216A12CC12CE12C082FDECF0E942216E6
:103D2000182FCE0101960E942216F82ECE01019680
:103D30000E942216D82ECE0101960E942216B82E7D
:103D4000CE0101960E942216082FCE0101960E94F4
:103D50002216E82ECE0101960E942216C82ECE0110
:103D600001960E942216AA24A3948111B5CFA12CFA
:103D7000B3CF0E942216182F80917E02833009F45F
:103D8000B1CE87E10E94520D66E171E0882309F40B
:103D9000E6C187E10E94F617FC01892BB9F08091FA
:103DA0009F048C3098F591E0980F90939F04828740
:103DB00090E0DC01AA0FBB1FA80FB91FA558BB4F8D
:103DC00088EB9BE012969C938E93119780917E02D4
:103DD000A82FB0E0AA0FBB1FA858BD4FED93FC93CE
:103DE0001186158616861786108A118A128A138AFA
:103DF000148A1282118274826382168215827086FE
:103E0000678210838F5F80937E026CCE8FEF8287F4
:103E1000DDCF0E942216182FCE0101960E94221695
:103E20002B813C81205A3A4F40E0682F812F0E941D
:103E300010180ECE0E942216182FCE0101960E9455
:103E40002216082FCE0101960E9422162B813C815A
:103E5000205A3A4F482F602FE9CF0E942216D82EC1
:103E6000CE0101960E942216E82ECE0101960E94F4
:103E70002216F82E80911002823009F433CE82E1AE
:103E80000E94520D64E371E0882309F468C182E165
:103E90000E94F6178C01009731F0FC011382128208
:103EA000518240821186E0911002F0E0EE0FFF1F78
:103EB000E359FD4F11830083D8011F96DC921F97B1
:103EC0005096EC9250975196FC92519781E01E9635
:103ED0008C931E971496DC9214971A96EC921A976C
:103EE0001B96FC921B971C961C921C971D961C926D
:103EF000109232041092310410923D0510925F0529
:103F00000E940807EAE3F8E0F0935504E0935404B4
:103F10002BE338E03093590420935804D8011596C8
:103F20001C9215971B968C911B97823018F098E085
:103F300015969C93F8019485992329F0813019F402
:103F400085818460858362E370E080E090E00E9478
:103F5000B204D8011D966C91C8010E944A0960E321
:103F6000C8010E944A09C4010197F1F760E3C80142
:103F70000E944A09C4010197F1F760E3C8010E9459
:103F80004A0983E592E00197F1F760E2C8010E94D7
:103F90004A09F8016581606240E0C8010E94D208C8
:103FA00084E0D80116968C9340E06CE0C8010E9432
:103FB000D208C8010E942C0982E0F801878340E002
:103FC00066E0C8010E94D20840E062E0C8010E9499
:103FD000D2088BE39FE10197F1F788E0D8011D96A5
:103FE0008C931D9714968C9191E090933C0580934F
:103FF0005E0510923D0510925F0568E081E297E052
:104000000E9493080E9437088CE08093B800F80162
:104010008685882319F1C8010E942C09D801519680
:104020004C91F12C433020F04695FF24FA94F40E85
:104030004F2D6FED71E0C8010E949119F80181893F
:10404000823038F041E04F0D6AEE71E0C8010E9405
:10405000911940E060E0C8010E94FB0880911002C5
:104060008F5F809310023ECD0E942216D82ECE0183
:1040700001960E942216C82E80911E02853009F4F6
:10408000E7CC8DE10E94520D60E571E0882309F4D0
:1040900063C1EB80FC808DE10E94F6178C01892BB7
:1040A00061F180E1F8013696DF011D928A95E9F70A
:1040B000F801178A168A108EC582D282C701805AEB
:1040C0009A4F9183808362E08D2D0E94AE0358E069
:1040D000F52EC8010E948910FA94F110FACFD80188
:1040E00056968D919C91579743E0969587954A9562
:1040F000E1F714969C938E93139780911E02E82FFC
:10410000F0E0EE0FFF1FEC5EFD4F11830083E4E44F
:10411000F9E1F0931302E09312028F5F80931E0285
:1041200097CC0E942216C82ECE0101960E9422161C
:10413000382ECE0101960E942216A82ECE0101969D
:104140000E942216B82E80911102823009F4CACC46
:1041500089E00E94520D811106C060E771E085E0A0
:104160000E941117BFCC89E00E94F6178C01D090F5
:104170001102ED2CF12CEE0CFF1CF701EF58FD4F56
:104180009183808381E0D80118968C931897CC9204
:1041900011963C9211971296AC9212971396BC927C
:1041A00061E08C2D0E94AE0361E0F80181810E94E4
:1041B000AE0361E0D80112968C910E94AE03F80123
:1041C0009381349680E0981719F011928F5FFBCF9E
:1041D000C8010E941A12F701EF58FD4F80819181AA
:1041E000DC0113963C91FC01349620E0321719F063
:1041F00011922F5FFBCF0E941A12D394D09211021A
:1042000071CC0E942216D82ECE0101960E94221651
:10421000A82ECE0101960E942216B82ECE0101963C
:104220000E942216C82E80916A02823009F410CCB6
:104230008BE00E94520D65E971E0882309F48CC07F
:10424000EB80FC808BE00E94F6178C01009731F028
:10425000FC0116821782108611861286E0916A028E
:10426000F0E0EE0FFF1FEA59FD4F11830083F801C4
:10427000D282A382B482C701805A9A4F91838083ED
:10428000C58261E08D2D0E94AE0361E0D8011396D6
:104290008C910E94AE0360E0F80184810E94AE031D
:1042A00081E0D80116968C9360E0C8010E943F120D
:1042B000ECEEF8E1F0936C02E0936B0280916A02FD
:1042C0008F5F80936A02C4CB0E942216D82ECE0143
:1042D00001960E942216F82ECE0101960E94221607
:1042E000082FCE0101960E942216182FCE010196AA
:1042F0000E942216F0922D0700932E0710932F078D
:1043000080933007109231070DE217E061E0D80189
:104310008D918D010E94AE03E1E3F7E0E017F10714
:10432000A9F78091310781608093310760E08DE2C9
:1043300097E00E94450ECE0101960E942216C82EDB
:1043400080914C02833009F483CB86E00E94520DA9
:10435000811106C069EB71E085E00E94111778CBEE
:10436000EB80FC8086E00E94F6178C01009759F0E4
:104370002DE237E03093500220934F02DC01159676
:104380001C921E921497E0914C02F0E0EE0FFF1F7A
:10439000EA5BFD4F11830083F801D282C701805A86
:1043A0009A4F91838083F1E0CF16F1F0D8011396F4
:1043B0001C9262E08D2D0E94AE03D80113968C9161
:1043C0001397816013968C9360E0C8010E94C30F1D
:1043D000E8E1F9E1F0934E02E0934D0280914C0246
:1043E0008F5F80934C0234CB82E0F8018383E1CF6E
:1043F000112309F43ECB0F900F900F900F90DF9197
:10440000CF911F910F91FF90EF90DF90CF90BF90D1
:10441000AF909F908F907F906F905F904F903F9064
:104420002F9008950E94941C0C9484188F929F9250
:10443000AF92BF92CF92DF92EF92FF92CF93DF9332
:104440000E94A113EC01B82E0E945802882309F49F
:104450008FC081E08093500880935108809152086A
:10446000909153080E94652F6B017C018091DC04C0
:10447000B81608F083C0DD27CC0FDD1FCA52DB4F12
:104480000990D881C02D19828E819F81A885B98518
:10449000C816D906EA06FB0609F45EC08A819B812C
:1044A000DC011C968D909D90AD90BC901F972B8544
:1044B000222351F02D85222339F0ED91FC910280C9
:1044C000F381E02D09951D868C85882379F0C81429
:1044D000D904EA04FB0454F48E819F81A885B98530
:1044E000C816D906EA06FB060CF41C868C858111D9
:1044F00010C08C149D04AE04BF045CF48E819F81B7
:10450000A885B9858C159D05AE05BF0514F481E01D
:104510008C878A819B814A852C85429FA00111242A
:10452000052E000C660B770B4C0D5D1D6E1D7F1D5F
:10453000FC0180889188A288B388481559056A05CE
:104540007B0531F0408B518B628B738B0E94CB0BC0
:10455000CE82DF82E886F986DF91CF91FF90EF90DF
:10456000DF90CF90BF90AF909F908F900C944811A8
:1045700010925108C12CD12C760178CFDF91CF91C8
:10458000FF90EF90DF90CF90BF90AF909F908F9073
:104590000895FF920F931F93CF93DF930E94A1136F
:1045A000EC010E94A9028C010E94A113F82ECC0FED
:1045B000DD1FCF58DD4F0990D881C02D8885882315
:1045C00069F161EF71E0C8010E948C2F01E010E0F9
:1045D000009709F10E94472F9885992391F0982F11
:1045E0009770980101C0220F9A95EAF786958695F3
:1045F0008695FE01E80FF11D8481FF2049F0282BEC
:10460000248361EF71E090E080E00E948C2FE0CF86
:1046100020952823F5CFCE010E941A12DF91CF9169
:104620001F910F91FF900C944811FF920F931F93CD
:10463000CF93DF938C01EB01F8800E94F930F816DC
:1046400021F06F2DC8010E940131CE01DF91CF9181
:104650001F910F91FF900895AF92BF92CF92DF927A
:10466000EF92FF920F931F93CF93DF930E94481115
:104670000E94A9026C01EC0109900020E9F7219742
:10468000C81BD90BDD27E090A904F090AA04C7014C
:1046900001968C0F9D1F883B914008F053C05E012E
:1046A0008FEFA81AB80A2BE3E20EF11C95012E0D2C
:1046B0003F1D80913407909135078217930778F05A
:1046C00010E000E0B601600F711FC701800F911F5D
:1046D0000E9415230F5F1F4F0A151B0598F3409189
:1046E000A9045091AA04C40FD51FD093AA04C09363
:1046F000A90480918607811147C085E00E94FC16BD
:1047000080918607882391F060915A08809157081C
:10471000909158080E948205AE0170E060E02AE0A6
:1047200080915708909158080E949416DF91CF917C
:104730001F910F91FF90EF90DF90CF90BF90AF90BF
:104740000C9476168091860781111EC085E00E9428
:10475000FC1680918607882349F360915A0880915E
:104760005708909158080E948205C0915708D0912F
:1047700058086DE2CE010E9482052AE041E050E037
:1047800060E070E0CE01D0CFDF91CF911F910F910B
:10479000FF90EF90DF90CF90BF90AF900895CF93B0
:1047A000DF930E94A902FC0190E3A2E2B1E0019034
:1047B0000D929A95E1F78091340790913507892BF6
:1047C00029F063E290E080E00E940131809134079B
:1047D00090913507C09760F0D0E0C0E0BE016E5DFB
:1047E0007E4F2196CE010E941523CF32D105B1F71D
:1047F0008091860781110BC085E00E94FC1682E241
:1048000091E00E94CF18DF91CF910C947616DF9142
:10481000CF9108954F925F926F927F928F929F9265
:10482000AF92BF92CF92DF92EF92FF92CF93DF933E
:104830000E94E404611571058105910511F00E9443
:104840003E2F0E94EF2E2B013C010E94EF2E4B01C8
:104850005C01CC24CA948FE0D82EE12CF12CC3014A
:10486000B201A70196010E940F317F936F93C5019A
:10487000B401A70196010E940F317F936F9383EFDC
:1048800091E09F938F9380E091E09F938F930E949C
:1048900047338DB79EB708960FB6F8949EBF0FBEEC
:1048A0008DBF8091340790913507CB9760F0C0E3BE
:1048B000D0E0BE0160537F4FCE010E9415232196A8
:1048C000CB33D105B1F7DF91CF91FF90EF90DF901F
:1048D000CF90BF90AF909F908F907F906F905F90A0
:1048E0004F9008950E940A2480918607811109C083
:1048F0008AE00E94FC1680E091E00E94CF180C94A0
:1049000076160895EF92FF920F931F93CF93DF9344
:1049100080E390E00E94C515833509F048C081E32B
:1049200090E00E94C5158E3409F049C0809134078B
:1049300090913507CB9770F000E011E0C0E3D0E034
:10494000CE010E94F930F80181938F012196CB337B
:10495000D105B1F70E9448118AE00E94FC168091AF
:104960008607882381F060915A08809157089091BA
:1049700058080E94820563EF71E08091570890917A
:1049800058080E94890582E291E00E94CF1880E0D9
:1049900091E00E94CF1889E092E00E94CF18DF9149
:1049A000CF911F910F91FF90EF900C947616893460
:1049B00031F481E390E00E94C515843471F00E94C7
:1049C0000A248091340790913507CC9718F260E063
:1049D0008BE390E00E940131BDCF60E072E080E0A7
:1049E00091E00E94403388E1E82E87E0F82ED0E085
:1049F000C0E004E012E0F70181917F011F928F93E4
:104A00001F930F93CE018D5F9E4F9F938F930E94B4
:104A1000473322960F900F900F900F900F900F90AA
:104A2000C231D10541F796CF1F920F920FB60F9268
:104A300011242F933F938F939F93AF93BF938091B4
:104A4000FA049091FB04A091FC04B091FD04309114
:104A5000F90423E0230F2D3758F50196A11DB11D50
:104A60002093F9048093FA049093FB04A093FC0430
:104A7000B093FD048091FE049091FF04A091000585
:104A8000B09101050196A11DB11D8093FE04909384
:104A9000FF04A0930005B0930105BF91AF919F91D2
:104AA0008F913F912F910F900FBE0F901F901895EF
:104AB00026E8230F0296A11DB11DD2CF1F920F929F
:104AC0000FB60F9211248F939F938091E1009091E4
:104AD000E100937F9093E10083FF0FC01092E90003
:104AE00091E09093EB001092EC0092E39093ED0034
:104AF00010920F0598E09093F00082FF22C093E09F
:104B00009093E9009091F200992319F09AE3909321
:104B1000E8009091A604992341F09091A604915049
:104B20009093A604911101C05D9A90910E0599236E
:104B300041F090910E05915090930E05911101C096
:104B4000289A84FF18C08091E2008E7E8160809355
:104B5000E2008091E1008F7E8093E1008091A704C4
:104B60008E7E80618093A7049F918F910F900FBEDE
:104B70000F901F90189580FFF7CF8091E2008E7EF6
:104B800080618093E2008091E1008E7E8093E1005D
:104B90008091A7048E7E8160E5CF1F920F920FB6A1
:104BA0000F921124CF92DF92EF92FF920F931F93F7
:104BB0002F933F934F935F936F937F938F939F9325
:104BC000AF93BF93EF93FF93CF93DF93CDB7DEB750
:104BD0006C97DEBFCDBF1092E9008091E80083FFA3
:104BE00025C068E0CE0145960E94750582EF80934E
:104BF000E8008D8987FF39C09091E80090FFFCCFD5
:104C0000982F907609F034C19E894F89588D2F894D
:104C1000F88C911131C0803861F58091A80480939F
:104C2000F1001092F1008EEF8093E8006C960FB6C1
:104C3000F894DEBF0FBECDBFDF91CF91FF91EF9112
:104C4000BF91AF919F918F917F916F915F914F91A4
:104C50003F912F911F910F91FF90EF90DF90CF9098
:104C60000F900FBE0F901F9018959EEF9093E80045
:104C7000C7CF1092F100D5CF913059F48111D3CF25
:104C80004130510581F68091A8048D7F8093A8045E
:104C9000CACF933049F48111C6CF4130510519F67E
:104CA0008091A8048260F2CF953041F48091E800B1
:104CB00080FFFCCF20682093E300B5CF963009F049
:104CC000A9C00B8D1C8D22E01092E9001092A40463
:104CD0001092A304F2122EC01092A2041092A1040A
:104CE0000E9444051F8299E09983FA8291E09E8395
:104CF00090EA98879AEF99872091A3043091A404B1
:104D0000275F3F4F3C832B838D831092E9001092E5
:104D1000A4041092A3041093A2040093A10449E0F8
:104D200050E0BE016F5F7F4F80E00E941E050E9431
:104D3000440579CF1093A2040093A1040E94F702C6
:104D4000DC0112960D911C910115110509F451C158
:104D5000D801ED91FC910480F581E02DBE016B5EE0
:104D60007F4FC8010995009709F03EC1F801008501
:104D70001185EACFF3E0FF120EC08F89882309F472
:104D800040C0823061F440E862E189E693E00E942D
:104D9000DA29811148CF81E28093EB0047CF81303F
:104DA00029F440E868E080E693E0F1CF833099F79A
:104DB0000E94F702DC011296ED90FC908E010F5FCD
:104DC0001F4F6801E114F10479F0D701ED91FC91D6
:104DD0000680F781E02DB801C7010995080F111D64
:104DE000F701E084F184EECFD8011C92F601019026
:104DF0000020E9F73197BF016C197D0940E0C60139
:104E0000C6CF6AE473E0FB01449150E080E80E9461
:104E10001E0509CF973009F4BECF983021F481E008
:104E20008093F10000CF993009F0FDCE837009F036
:104E3000B2CFE8E9F1E081E031E096E3219122236D
:104E400071F08093E9003093EB00DF0111972C9112
:104E50002093EC009093ED008F5F873079F78EE719
:104E60008093EA001092EA008F8980930F05DBCED1
:104E70008B8D9C8D1092E9001092A4041092A304D3
:104E80009093A2048093A104898D811192C08E8990
:104E90009D89913A49F4813209F07DCF47E050E095
:104EA0006AE171E080E0B3CF913209F074CF8332D0
:104EB00069F48F89988DB0E0A0E0809316019093FB
:104EC0001701A0931801B0931901ADCE803269F497
:104ED0008091E80082FFFCCF67E08AE191E00E94C8
:104EE00075058BEF8093E8009ECE823209F09BCE51
:104EF0008F8980932101EEEFFFE7859194918B3F9D
:104F00009C4D51F1E0E0F8E080911A0190911B0175
:104F1000A0911C01B0911D01803B9440A105B105F9
:104F2000F1F48091210180FD1AC0EE3F8AE0F8077C
:104F300089F587E797E7918380838091600080936C
:104F4000A50488E19BE00FB6F894A89580936000D3
:104F50000FBE9093600067CEEEEFFAE0D5CF808170
:104F600091818737974709F05ECEA89580916000C0
:104F70008861809360008091A50480936000EE3F7B
:104F80002AE0F20789F08091FE0A9091FF0A91834E
:104F9000808349CE808191818737980751F2909321
:104FA000FF0A8093FE0AC5CF1092FF0A1092FE0AF4
:104FB0003ACE0E94F702DC0112960D911C91011568
:104FC000110509F4E8CED801ED91FC910190F08132
:104FD000E02DBE016B5E7F4FC8010995811123CE84
:104FE000F80100851185EBCF181619060CF41BCEBD
:104FF000D2CEF1E0FF12BECE6EE473E004CF1F927A
:105000000F920FB60F9211242F933F934F935F93FC
:105010006F937F938F939F93AF93BF93CF93DF93C0
:10502000EF93FF938091A004C0919F04D0E087FF8D
:1050300024C010928500109284008091A0048F5F9C
:105040008093A0048091A004082E000C990B8C176B
:105050009D0724F48091A0048C30C4F180918400D9
:1050600090918500049680349C4908F47AC0809120
:10507000840090918500049676C08091A004082E4B
:10508000000C990B8C179D07C4F6E091A0048E2F9D
:10509000EE0F990BFC01EE0FFF1FE80FF91FE5580B
:1050A000FB4F808186FFC9CFE091A0048E2FEE0FC9
:1050B000990BFC01EE0FFF1FE80FF91FE558FB4F9E
:1050C000808160E08F730E948003B7CF20918400BD
:1050D00030918500E091A0048E2FEE0F990BFC011A
:1050E000EE0FFF1FE80FF91FE558FB4F81819281FA
:1050F000820F931F9093890080938800E091A00411
:105100008E2FEE0F990BFC01EE0FFF1FE80FF91F1A
:10511000E558FB4F808186FF11C0E091A0048E2FDF
:10512000EE0F990BFC01EE0FFF1FE80FF91FE5587A
:10513000FB4F808161E08F730E948003FF91EF91AC
:10514000DF91CF91BF91AF919F918F917F916F919F
:105150005F914F913F912F910F900FBE0F901F9035
:10516000189580E49CE990938900809388008FEFE4
:105170008093A004E3CF1F920F920FB60F921124D9
:105180002F933F934F935F936F937F938F939F934F
:10519000AF93BF93EF93FF938091B900887F8036E0
:1051A00009F44AC0F0F5883209F4A7C018F5803137
:1051B00009F49BC0B8F4882309F4F9C0883009F4D5
:1051C00094C0FF91EF91BF91AF919F918F917F918B
:1051D0006F915F914F913F912F910F900FBE0F9064
:1051E0001F901895883109F488C0803251F7809358
:1051F000340514C0803409F49DC040F48033B9F301
:105200008833F9F68093340585ECB0C0803509F415
:1052100085C0883509F496C0883499F60E94CB1968
:10522000D0CF883909F48CC038F5883729F050F48C
:10523000883611F0803729F683E080933605109286
:105240007A0457C0883809F47BC0803919F0803857
:1052500009F0B7CF80917A04803208F071C0E091F4
:105260007A0481E08E0F80937A048091BB00F0E095
:10527000E65AFB4F80833DC0803B39F0E0F4803A32
:1052800009F479C0883A09F09CCF84E08093360510
:105290001092570410925604E0915404F091550472
:1052A00009958091560481110FC081E080935604C6
:1052B0001092340409C0803C09F4A6CF883C09F45C
:1052C000A3CF883B09F07DCFE091570481E08E0F9A
:1052D00080935704F0E0EC5CFB4F80818093BB002F
:1052E000909157048091560429C0809111058093B4
:1052F000BB0085EC8093BC0064CF90913305809116
:105300003205981758F5E091330581E08E0F8093B0
:105310003305F0E0EE5EFA4F8081E9CFE09133058E
:1053200081E08E0F809333058091BB00F0E0EE5E4C
:10533000FA4F808390913305809132059817C8F217
:1053400085E8D8CFE091330581E08E0F8093330557
:105350008091BB00F0E0EE5EFA4F808380913505CE
:1053600081115CCF81E08093100584EA8093BC00BA
:105370001092360526CF85EC8093BC00109236053E
:1053800080917A04803230F4E0917A04F0E0E65AB9
:10539000FB4F108260917A0470E0E0915804F09124
:1053A00059048AE594E0099510927A040ACF109284
:1053B000340534CFEF92FF920F931F93CF93DF9377
:1053C000F82E192FE62E042F81E0860F880F0E94F9
:1053D000F00483E00E94F004CF2DD12FEC0EFD2EBF
:1053E000F11CCE15DF05B9F007FF13C0FE01849153
:1053F0000E94F004182F80E00E94F004812321967F
:105400008111EFCFDF91CF911F910F91FF90EF901E
:1054100008958881EDCF81E0F5CF10923907109281
:10542000380788EE93E0A0E0B0E080933A079093CD
:105430003B07A0933C07B0933D078CEB91E0909322
:105440003707809336078FEF9FEF90934307809342
:105450004207A8E1B7E090E080E041E2FC013E961F
:1054600021E030E08630910510F430E020E0E20FDA
:10547000F31F40935700E491ED9301968930910515
:1054800069F7109224071092230788EE93E0A0E0BA
:10549000B0E08093250790932607A0932707B09349
:1054A00028078EEC91E090932207809321071092B9
:1054B00031078FEF80932D0780932E0780932F075E
:1054C00080933007109235071092340710925D08D0
:1054D00010925C0886E397E09093580880935708F1
:1054E00010928E078CE280935A088BE380935908C0
:1054F0008FE280935B0880E6809389078FE5809335
:105500008A0710928807109253081092520810923E
:1055100055081092540881E080935008EEE5F8E0B9
:1055200084EA98E0119211928E179F07D9F7109292
:105530008D070895789484B5826084BD84B58160B8
:1055400084BD85B5826085BD85B5816085BD80914E
:105550006E00816080936E001092810080918100C6
:1055600082608093810080918100816080938100BE
:1055700080918000816080938000809191008260A2
:10558000809391008091910081608093910080913F
:1055900090008160809390008091C100846080932E
:1055A000C1008091C10082608093C1008091C100E0
:1055B00081608093C1008091C30081608093C300AB
:1055C0008091C00082608093C0008091C2008160A1
:1055D0008093C20080917A00846080937A008091E9
:1055E0007A00826080937A0080917A008160809353
:1055F0007A0080917A00806880937A0010920F057B
:105600001092A8041092A7048091D7008160809323
:10561000D70080EA8093D80089B5806189BD89B5BB
:10562000826089BD09B400FEFDCF61E070E080E0DA
:1056300090E00E94B2048091D8008F7C80618093BA
:10564000D8008091E000807F8093E0008091E100AD
:105650008E7E8093E1008DE08093E200559A209A3F
:105660008FEF9FEF909343078093420780E094E091
:10567000909335078093340785E397E190935D0815
:1056800080935C0885EB93E190935F0880935E08BC
:1056900081ED93E190936108809360088FEC93E132
:1056A000909393088093920885E394E19093630824
:1056B0008093620886E192E2909365088093640883
:1056C00082E494E1909389088093880885E594E1C9
:1056D00090938B0880938A0885EE9AE190939D08B9
:1056E00080939C0888EA94E1909367088093660809
:1056F00082E894E290937108809370088CE898E1B6
:1057000090937708809376088CE293E290937508E3
:105710008093740884E497E19093790880937808E3
:1057200081EF97E190937B0880937A0882E192E27F
:1057300090937F0880937E088FEC93E29093850886
:105740008093840882E794E2909387088093860888
:105750008CEB92E190938D0880938C088CE795E117
:10576000909391088093900889EC92E29093950829
:105770008093940881E080938E070E94481190E006
:1057800080E00E94C51500913407109135078332DF
:1057900099F40033110580F0F2E2EF2EF1E0FF2ED4
:1057A000D0E0C0E02196CE010E94F930D7018D9360
:1057B0007D01CF32D105B1F71092AA041092A9044D
:1057C0008BE390E0EC0121960E94C515882309F433
:1057D00009C18091A9049091AA0401969093AA040A
:1057E0008093A904CE010C171D0760F76CE773E0E6
:1057F00085E00E9411170E94E4046093DD04709319
:10580000DE048093DF049093E0040E94E40460933C
:10581000E1047093E2048093E3049093E4040E9413
:10582000E4046E5F7F4F8F4F9F4F6093E50470934A
:10583000E6048093E7049093E8040E94E4046C5F1C
:105840007F4F8F4F9F4F6093E9047093EA048093DA
:10585000EB049093EC040E94E4046C5F7F4F8F4F45
:105860009F4F6093ED047093EE048093EF04909348
:10587000F0040E94E4046A5F7F4F8F4F9F4F609354
:10588000F1047093F2048093F3049093F4040E9463
:10589000E404685F7F4F8F4F9F4F6093F5047093D0
:1058A000F6048093F7049093F804662463945524D7
:1058B0005394E0E0AE2EE0E0BE2E77247394809106
:1058C0008D078111C9C08091570890915808DC015B
:1058D000ED91FC910084F185E02D0995892B09F467
:1058E000BBC08091570890915808DC01ED91FC9164
:1058F0000084F185E02D099570E6E72EF12C8036C5
:10590000910564F48091570890915808DC01ED915D
:10591000FC910084F185E02D09957C01C091570828
:10592000D09158086FEE862E67E0962E640110E045
:1059300000E0E016F10609F05AC0D0E0C0E0EC1635
:10594000FD0609F4BCCFF40191914F0110924F086C
:1059500030915B0820918C0790938C07931304C0BF
:10596000921302C010928C0780918807E82FF0E014
:1059700040915908EA57F84F94135CC0321709F464
:1059800059C01186882321F070924F0810928C071D
:1059900010928807109253081092520810925508DE
:1059A000109254087092500880914F08813009F08D
:1059B00051C00E94A11380938707833208F044C02E
:1059C00020915108222309F43FC0FC01FF27EE0F6C
:1059D000FF1FE25AF74F0190F081E02D3097A1F1BF
:1059E000099538C00E94941C0E94841804CF0E941C
:1059F000E404688779878A879B87E881F981028434
:105A0000F385E02DCE01099597FF73C10E94E40450
:105A1000288539854A855B85621B730B840B950B42
:105A20002C813D814E815F81621773078407950742
:105A300020F383CF91878F5F8093880790918A07A7
:105A4000891708F0A5CFB0CFE0915C08F0915D0810
:105A5000309731F6219673CFC090D004D090D10406
:105A6000E090D204F090D3048091D404811147C116
:105A70000E94E4046C197D098E099F09613A7B4BF1
:105A80008D40910508F450C05092D404C0E080913C
:105A9000CF04C81788F4EC2FF0E0EE0FFF1FE55598
:105AA000FB4F0190F081E02D118270E060E0808179
:105AB0000E94EA03CF5FEBCF81E00E94C611C0E0F5
:105AC0008091DC04C81780F5EC2FF0E0EE0FFF1F8B
:105AD000EA52FB4F0190F081E02D82819381DC013D
