:100000000C941C030C944D030C944D030C944D0361
:100010000C944D030C944D030C944D030C944D0320
:100020000C944D030C944D030C944D030C944D0310
:100030000C944D030C944D030C944D030C944D0300
:100040000C944D030C9423270C944D030C944D03F6
:100050000C944D030C944D030C944D030C94BD244F
:100060000C944D030C9431250C9407250C944D03EE
:100070000C944D030C944D030C944D030C944D03C0
:100080000C94F5260C944D030C944D030C944D03E5
:100090000C944D030C944D030C944D030C94752556
:1000A0000C944D030C944D030C94C7260C944D03F3
:1000B0000C944D030C944D030C944D030C94992611
:1000C0000C944D030C944D030C944D030C944D0370
:1000D0000C944D030C944D030C944D030C944D0360
:1000E0000C944D030C9411040C9494210C948A0AE2
:1000F0000C948C050C9479230C94390B0C94040407
:100100000C941F040C9475230C9465220C948E0897
:100110000C9427050C94EC110C94AC240C940D0C4D
:100120000C94FA050C94D8110C948C0A0C94060AC1
:100130000C9478050C94F31F0C948E0A0C944B05C8
:100140000C94B9080C9417040C943D0A0C9495096E
:100150000C94220C0C94FC030C9429040C94820A39
:100160000C941D050C948F080C94FF0B0C944D06F9
:100170000C94F8030C9426150C94050B0C94840A2B
:100180000C948B130C940D040C9419150C945B0AAD
:100190000C94F70B0C94880A0C9458200C943C1186
:1001A0000C9432040C94E40A0C94140C0C949008F3
:1001B0000C94321E0C94EB1A0C940E050C947811CE
:1001C0000C94AD090C94E6080C948D080C94BE199F
:1001D0000C9407040C94060C0C94A41F0C94011AA4
:1001E0000C94A0050C9413050C9433040C943C1B44
:1001F0000C9475180C94980E0C94C21E0C94B314A5
:100200000C94BF1A0C943A150C948F1E0C941B047A
:100210000C94CD220C94860A0C945A0B0C94B208C0
:100220000C9482050C94A20B0C9406050C94E00B24
:100230000C945F050C9495060C9433070C9451278D
:100240000C948C0B0C94290C0C9425040C943905FB
:100250000C9400040C94A61A0C9466180C94FE1AC4
:100260000C9445200C949F080C948F1A0C949605BE
:100270000C946D200C9499140C94731B0C94A01383
:100280000C9436060C9423190C9437040C948A0FA2
:100290000C946E050C9431050C942D040C94F321F0
:1002A0000C94D21A0C94E2060C94CD230C94641690
:1002B0000C94CD1F0C945B060C9441050C946415B2
:1002C0000C941B0C0C9455050C94C71E0C94B5147F
:1002D0000C94090A0C9427060C94F2030C94800ADF
:1002E0006E2F61004F4B004F4B004F4B0042757417
:1002F000746F6E20646F6573206E6F74206669740E
:1003000020696E204D656D6F7279004F7574707540
:100310007420646F6573206E6F7420666974206941
:100320006E204D656D6F727900375365676D656E30
:100330007420646F6573206E6F7420666974206921
:100340006E204D656D6F72792100536572766F2056
:10035000646F6573206E6F742066697420696E2007
:100360004D656D6F727921004C434420646F657355
:10037000206E6F742066697420696E204D656D6F04
:1003800072792100416E616C6F67496E20646F6500
:1003900073206E6F742066697420696E204D656DE0
:1003A0006F7279004F7574707574536869667465FF
:1003B0007220646F6573206E6F74206669742069A3
:1003C0006E204D656D6F727900496E70757453685B
:1003D000696674657220646F6573206E6F74206641
:1003E000697420696E204D656D6F72790046616990
:1003F0006C757265206F6E2072656164696E67202E
:10040000636F6E66696700456E636F646572732023
:10041000646F6573206E6F742066697420696E2046
:100420004D656D6F7279007E306D79335B5F707FE3
:100430007B771F0D3D4F47000000000000000000CB
:1004400000000000000000000000000000000000AC
:10045000000000800180257E306D79335B5F707F06
:100460007B00000009000000777F4E7E4F475F371A
:10047000307C000E00767E677E775B463E00000093
:10048000336D4E13780008007D1F0D3D4F477B37BD
:100490003038000600151D6773055B0F1C00000057
:1004A000276D4E007800004D46537465707065727C
:1004B00020646F6573206E6F742066697420696EA6
:1004C000204D656D6F727900537465707065722090
:1004D000646F6573206E6F742066697420696E2086
:1004E0004D656D6F7279210044657669636542756B
:1004F00066666572204F766572666C6F7721004C78
:100500006F6164696E6720636F6E666967206661FC
:10051000696C65640000002100240027002A002D7A
:10052000003000330001010000040107010A01004E
:10053000002200250028002B002E0031003400028C
:10054000010000050108010B010000200023002626
:100550000029002C002F00320000010000030106DA
:10056000010901050505050705080808080202023A
:10057000020A0A080804040404010101010101013E
:10058000010303030303030303040707070C0C0C15
:100590000C0C0C0C0C0202020206060606060606ED
:1005A000060B0B0B0B0B0B0B0B010210202008088A
:1005B00010204010204080020102010804020101C5
:1005C00002040810204080804020100804020180AE
:1005D0000402018040201008040201080402010105
:1005E000020408102040800102040810204080000E
:1005F000000A0B02090C0D0E08070304010000009D
:1006000000000000000000000000000000000000EA
:1006100000000000000000000000001211100000A7
:1006200000000000000000000000000000000000CA
:10063000000000000000512711241FBECFEFD1E2BF
:10064000DEBFCDBF00E00CBF12E0A0E0B2E0E8EEFC
:10065000F5E600E00BBF02C007900D92AA3FB1077C
:10066000D9F723E1AAEFB2E001C01D92A739B20782
:10067000E1F713E0CCE1D3E000E006C021970109E7
:10068000802FFE010E949F2ECB31D10780E008070A
:10069000A9F70E94E8270C94F2320C940000AC01F8
:1006A000109286129091561380915513FA01BF0152
:1006B000641B750B20918612308130938612931340
:1006C00004C0921302C0109286123081311104C00E
:1006D000921721F0CB0108953817D1F33196E7CF67
:1006E0000F931F93CF93DF9380914A13882309F4CC
:1006F00046C0D0E0C0E0813029F482E080934A1304
:10070000CAE8D2E180914B13882341F1209721F46C
:10071000C0914F13D09150138E01CE010E944F0310
:10072000892B29F42196F80180818111F5CFF801F8
:100730008081882309F1C8010E944F03F801E80F66
:10074000F91F8081882311F010823196F0935013A5
:10075000E0934F1310934E1300934D1380914D135C
:1007600090914E13892B59F081E080934B13DF91C8
:10077000CF911F910F91089510E000E0EBCF80E042
:10078000F6CF0E947003882351F081E080934B13D1
:1007900080934C1380914D1390914E1308951092B5
:1007A0004C1390E080E008958150823108F05AC0E7
:1007B000E82FF0E08827E052FC4F8F4F0C949F2EDB
:1007C00000040404F203F803FC03320407040D04DC
:1007D000110417041B041F042504290432042D04EA
:1007E00033043704809180008F77809380000895D0
:1007F000809180008F7DF9CF80918000877FF5CF39
:1008000084B58F7784BD089584B58F7DFBCF8091AB
:10081000B0008F778093B00008958091B0008F7DF5
:10082000F9CF809190008F77809390000895809108
:1008300090008F7DF9CF80919000877FF5CF8091D8
:10084000A0008F778093A00008958091A0008F7DF5
:10085000F9CF8091A000877FF5CF809120018F771D
:10086000809320010895809120018F7DF9CF8091A0
:100870002001877FF5CFCF93DF93282F30E0F90158
:10088000E151FA4F8491F901E755FA4FD491F901FA
:10089000ED59FA4FC491CC23A1F081110E94D403E9
:1008A000EC2FF0E0EE0FFF1FE75BFA4FA591B4913C
:1008B000EC91ED2381E090E009F480E0DF91CF91AD
:1008C000089580E090E0FACF1F93CF93DF93282F15
:1008D00030E0F901E151FA4F8491F901E755FA4FFF
:1008E000D491F901ED59FA4FC491CC23A9F0162FF8
:1008F00081110E94D403EC2FF0E0EE0FFF1FE15DA9
:10090000FA4FA591B4918FB7F894EC91111108C0EA
:10091000D095DE23DC938FBFDF91CF911F91089597
:10092000DE2BF8CFCF93DF9390E0FC01E755FA4F31
:1009300024918D599A4FFC0184918823C9F090E04D
:10094000880F991FFC01EB5EFA4FA591B491FC0151
:10095000E15DFA4FC591D49161110DC09FB7F89434
:100960008C91209582238C938881282328839FBF94
:10097000DF91CF910895623051F49FB7F8943C9184
:10098000822F809583238C93E8812E2BEFCF8FB716
:10099000F894EC912E2B2C938FBFEACF1F93CF931B
:1009A000DF93182FEB0161E00E949204209739F445
:1009B00060E0812FDF91CF911F910C946404CF3FB1
:1009C000D10511F461E0F5CFE12FF0E0E151FA4FEC
:1009D000E491E150E23108F0B3C0F0E08827EC5038
:1009E000FB4F8F4F0C949F2E06050E0513051D051A
:1009F0002705A0053105390541054B0555055F055E
:100A00006E057805A00582058C05960584B580687D
:100A100084BDC7BDDF91CF911F91089584B58062D9
:100A200084BDC8BDF7CF809180008068809380002E
:100A3000D0938900C0938800EDCF809180008062C0
:100A400080938000D0938B00C0938A00E3CF809185
:100A50008000886080938000D0938D00C0938C00CC
:100A6000D9CF8091B00080688093B000C093B3006C
:100A7000D1CF8091B00080628093B000C093B40069
:100A8000C9CF80919000806880939000D0939900A6
:100A9000C0939800BFCF80919000806280939000B7
:100AA000D0939B00C0939A00B5CF8091900088604E
:100AB00080939000D0939D00C0939C00ABCF809119
:100AC000A00080688093A0008091A0008F7B80931D
:100AD000A000D093A900C093A8009CCF8091A00053
:100AE00080628093A000D093AB00C093AA0092CF05
:100AF0008091A00088608093A000D093AD00C09347
:100B0000AC0088CF80912001806880932001D09331
:100B10002901C09328017ECF8091200180628093BB
:100B20002001D0932B01C0932A0174CF8091200122
:100B3000886080932001D0932D01C0932C016ACF4F
:100B4000C038D1050CF03ECF33CF863308F0865342
:100B500020917B00982F9870277F922B90937B0099
:100B60008770806480937C0080917A008064809399
:100B70007A0080917A0086FDFCCF80917800909178
:100B8000790008953FB7F8948091830B9091840B7E
:100B9000A091850BB091860B26B5A89B05C02F3F71
:100BA00019F00196A11DB11D3FBFBA2FA92F982F93
:100BB0008827BC01CD01620F711D811D911D42E08E
:100BC000660F771F881F991F4A95D1F708952FB791
:100BD000F89460917F0B7091800B8091810B9091C4
:100BE000820B2FBF0895DC01ED91FC910190F08103
:100BF000E02D1994AF92BF92CF92DF92EF92FF92C5
:100C00000F931F93CF93DF936C017B018B01040F34
:100C1000151FEB015E01AE18BF08C017D10759F0D0
:100C20006991D601ED91FC910190F081E02DC60112
:100C30001995892B79F7C501DF91CF911F910F91FC
:100C4000FF90EF90DF90CF90BF90AF900895FC01A0
:100C5000538D448D252F30E0842F90E0821B930B21
:100C6000541710F0CF96089501970895FC01918DC7
:100C7000828D981779F0A28DAE0FBF2FB11D5D96B2
:100C80002C91828D8F5F60E60E947F2E928F822F43
:100C900090E008958FEF9FEF0895FC01918D828D74
:100CA000981731F0828DE80FF11D858D90E0089541
:100CB0008FEF9FEF0895FC01918D228D892F90E099
:100CC000805A9F4F821B910960E670E00E948B2E34
:100CD000089584EC91E10E945B0621E0892B09F4E0
:100CE00020E0822F0895FC01A48DA80FB92FB11D1B
:100CF000A358BF4F2C91848D90E001968F73992754
:100D0000848FA689B7892C93A089B1898C9183702F
:100D100080648C93938D848D981306C00288F38928
:100D2000E02D80818F7D80830895EF92FF920F9355
:100D30001F93CF93DF93EC0181E0888F9B8D8C8D87
:100D400098131AC0E889F989808185FF15C09FB77B
:100D5000F894EE89FF896083E889F989808183703E
:100D6000806480839FBF81E090E0DF91CF911F91ED
:100D70000F91FF90EF900895F62E0B8D10E00F5F0E
:100D80001F4F0F731127E02E8C8D8E110CC00FB6E4
:100D900007FCFACFE889F989808185FFF5CFCE017C
:100DA0000E947306F1CFEB8DEC0FFD2FF11DE35880
:100DB000FF4FF0829FB7F8940B8FEA89FB898081FF
:100DC0008062CFCFCF93DF93EC01888D8823B9F079
:100DD000AA89BB89E889F9898C9185FD03C0808146
:100DE00086FD0DC00FB607FCF7CF8C9185FFF2CFC3
:100DF000808185FFEDCFCE010E947306E9CFDF91A0
:100E0000CF91089580E090E0892B29F00E94690637
:100E100081110E94000080E090E0892B49F080E081
:100E200090E0892B29F00E94000081110E940000AF
:100E300080E090E0892B49F080E090E0892B29F058
:100E40000E94000081110E94000080E090E0892B48
:100E500049F080E090E0892B29F00E940000811188
:100E60000C940000089508952091CF0A260F33278F
:100E7000331F21323105ECF42091AD0BFC0190E0E1
:100E800080E0243069F082E00895A091CF0A21919A
:100E9000AC014355554FA40FB52FB11D2C930196AE
:100EA000861798F38091CF0A680F6093CF0A80E08D
:100EB000089581E008951092AD0B81E08093AC0B12
:100EC0001092870B61E084E10E94640461E085E197
:100ED0000E946404E9EBF0E080818E7F8083808152
:100EE0008D7F808388E48093B80085E48093BC0084
:100EF0000895CF93DF9391E09093AC0A8823B9F0E3
:100F0000C091B800D091BA008091BC008A7B8093D8
:100F1000BC0060E084E10E94640460E085E10E941E
:100F200064040E945B07D093BA00C093B800DF91BD
:100F3000CF9108958F929F92AF92BF92CF92DF92FE
:100F4000EF92FF920F931F93CF93DF93D091D60B25
:100F5000D13208F0D7C0182FC091D50B0E94C2051E
:100F60006B017C018091AD0B81116BC082E080939D
:100F7000AD0B1093AC0B8FEF8093AB0B1092AA0BC1
:100F8000D093A90BA5EBBBE0E9E8FBE080E0D81328
:100F900091C01092880B8091880BCC0FC82BC09306
:100FA000880B8091870B813009F088C01092870BE5
:100FB0000E94C2056B017C018091880B8093BB006D
:100FC0008091AF0B9091B00BA091B10BB091B20B8F
:100FD000892B8A2B8B2BA1F00E94C2050091AF0BAD
:100FE0001091B00B2091B10B3091B20B6C197D09AF
:100FF0008E099F09061717072807390708F442C00A
:101000008091BC0083FDD8CF85EC8093BC000E940A
:10101000C2056B017C018091AD0B823009F450C098
:101020008091AB0B8F3F09F46FC08091AB0B803286
:1010300009F46CC08091AB0B803309F469C084E083
:1010400026C08091AF0B9091B00BA091B10BB091E5
:10105000B20B892B8A2B8B2B09F484CF0E94C205FB
:101060008090AF0B9090B00BA090B10BB090B20BF2
:101070006C197D098E099F0986169706A806B90680
:1010800008F070CF8091AE0B0E94790785E0109236
:10109000B40B1092D60B1092B30BDF91CF911F912E
:1010A0000F91FF90EF90DF90CF90BF90AF909F9007
:1010B0008F9008959D9191938F5F69CF85EEA5CF15
:1010C0008091AF0B9091B00BA091B10BB091B20B8E
:1010D000892B8A2B8B2B09F49ECF0E94C20500918D
:1010E000AF0B1091B00B2091B10B3091B20B6C197A
:1010F0007D098E099F09061717072807390708F089
:101100008ACFC0CF81E0C3CF80E0C1CF82E0BFCF24
:1011100083E0BDCF81E00C949A0708950895089567
:10112000E091AB0A8091AA0AE81730F4F0E0E657A4
:10113000F54F808190E008958FEF9FEF0895909193
:10114000AB0A8091AA0A2FEF3FEF981748F4E92FD6
:10115000F0E0E657F54F208130E09F5F9093AB0AB7
:10116000C90108958091AA0A9091AB0A891B990B35
:101170000895CF92DF92EF92FF920F931F93CF9338
:10118000DF937C01CB018A012091B30B222389F0EC
:10119000EB016B01C40ED51ECC15DD0569F069911C
:1011A000D701ED91FC910190F081E02DC7011995D7
:1011B000F3CF642F0E943407C801DF91CF911F91B4
:1011C0000F91FF90EF90DF90CF900895CF93DF9332
:1011D0001F92CDB7DEB769832091B30B2223F9F0BC
:1011E0002091D60B203258F021E030E0FC0133830F
:1011F000228390E080E00F90DF91CF91089580915D
:10120000B40BE82FF0E0EB54F44F998190838F5F9B
:101210008093B40B8093D60B81E090E0ECCF61E03B
:10122000CE0101960E943407F7CFCF93C82F682FC5
:1012300064608FEA91E10E94E6086C2F70E06B7F9A
:101240008FEA91E1CF910C94E6080F931F93CF930F
:10125000DF938C01C62FD42FFC01848191E0909301
:10126000B30B8093D50B1092B40B1092D60B862F34
:10127000807F842B9585892B0E941509F0E1CF9FF3
:10128000C0011124F8019585892B8D2B0E94150929
:10129000DF91CF911F910F910C948A08CF93DF9328
:1012A00000D000D01F921F92CDB7DEB728E0EFE349
:1012B000F2E0DE01119601900D922A95E1F7FC0112
:1012C0002385241710F44FEF420F50E0440F551FB1
:1012D00021E030E02C0F3D1F420F531FFA01208107
:1012E000620F606840E028960FB6F894DEBF0FBE2C
:1012F000CDBFDF91CF910C942509CF93DF93EC0103
:1013000040E061E00E9425098BE39FE10197F1F73E
:101310008985882339F040E060E0CE01DF91CF91EC
:101320000C944E09DF91CF91089541E00E94250968
:1013300081E090E00895FC01248131E03093B30B0B
:101340002093D50B1092B40B1092D60B607F85853D
:10135000862B0E9415090C948A08AF92BF92CF92F7
:10136000DF92EF92FF920F931F93CF93DF936C0165
:10137000FC01848191E09093B30B8093D50B109284
:10138000B40B1092D60BEB01042F10E05B01A00E02
:10139000B11EF12CEE24E394CA15DB0541F18991CD
:1013A000F60195859160807F892B0E941509FE01C9
:1013B00031972081F0E12F0290011124F6018585FB
:1013C0008160822B0E941509F394F7E0FF1520F746
:1013D00080E00E949A07F6018481E092B30B80932B
:1013E000D50B1092B40B1092D60BF12CD5CF0E94D6
:1013F0008A08C8010197DF91CF911F910F91FF904B
:10140000EF90DF90CF90BF90AF90089590E080E094
:101410000895CF93DF93FC012381222359F1EC013E
:1014200061E084810E94920461E08D810E949204B7
:101430008B81843011F08830B1F461E08E810E949C
:10144000920461E08F810E9492048FA58F3F91F0FA
:1014500061E00E9492046EA581E068278FA5DF916C
:10146000CF910C946404833011F0863071F761E001
:101470008E81E9CFDF91CF910895CF93DF93FC0167
:1014800023812223A9F0EC010190F081E02D04805A
:10149000F581E02D60E019958FA58F3F49F061E05F
:1014A0000E9492046EA58FA5DF91CF910C946404E5
:1014B000DF91CF910895DC01ED91FC91119724818A
:1014C00035814770552766277727415051096109B3
:1014D0007109473051056105710570F4FA018827DB
:1014E000EB58F54F8F4F0C949F2E800A820A840A86
:1014F000860A880A8A0A8C0A61E0CD01F9011994EA
:1015000065E0FBCF64E0F9CF66E0F7CF62E0F5CFAE
:101510006AE0F3CF68E0F1CF69E0EFCFCF93DF93DC
:10152000EC01CB01BA0126E030E040E050E00E943F
:101530000C2E623071058105910589F16CF46115FD
:10154000710581059105D1F0613071058105910525
:10155000F9F0DF91CF91089564307105810591050F
:1015600061F124F1653071058105910591F7E881FC
:10157000F9810480F581E02D66E006C0E881F981FB
:101580000480F581E02D64E0CE01DF91CF911994C4
:10159000E881F9810480F581E02D65E0F5CFE881EF
:1015A000F9810480F581E02D61E0EECFE881F981D9
:1015B0000480F581E02D63E0E7CFE881F9810480C4
:1015C000F581E02D62E0E0CFDC01ED91FC9104803B
:1015D000F581E02D43705527662777274230510566
:1015E0006105710571F0433051056105710559F0D0
:1015F000413051056105710511F065E0199466E00F
:10160000FDCF6AE0FBCF69E0F9CFCF93DF93EC0128
:10161000CB01BA0123E030E040E050E00E940C2E04
:10162000613071058105910599F062307105810580
:101630009105A9F0672B682B692BC1F4E881F9812A
:101640000480F581E02D64E0CE01DF91CF91199403
:10165000E881F9810480F581E02D61E0F5CFE88132
:10166000F9810480F581E02D62E0EECFDF91CF912A
:101670000895DC01ED91FC910480F581E02D43702B
:10168000552766277727423051056105710571F0AE
:10169000433051056105710559F04130510561052F
:1016A000710511F062E0199463E0FDCF61E0FBCFBA
:1016B00060E0F9CFCF93DF93EC01E881F9810480FA
:1016C000F581E02D8A8160E0811162E0CE011995FB
:1016D000E881F9810480F581E02D8A8161E0811142
:1016E00063E0CE0119958CA59DA58230910538F057
:1016F000880F991F880F991F05970197F1F7E881C7
:10170000F9810480F581E02D8A8160E0811162E039
:10171000CE01DF91CF911994CF93DF93EC0120E0BC
:1017200030E0A9016C897D898E899F890E94BC2F38
:1017300018162CF4E8A9F9A9DF91CF911994EAA918
:10174000FBA9FACFCF92DF92EF92FF920F931F93F4
:10175000CF93DF93DC011396CC91C43039F0C830BD
:1017600059F1C33019F0C63049F1C2E08C010C5F69
:101770001F4FF12CE12CC62ED12CD1E0F801648151
:10178000C6010E2C02C0959587950A94E2F780FD5C
:101790006D270F5F1F4F80810E946404BFEFEB1A1B
:1017A000FB0AEC1658F3DF91CF911F910F91FF9038
:1017B000EF90DF90CF900895C4E0D8CFC3E0D6CFAC
:1017C000DC011396EC911397E93008F042C0F0E089
:1017D0008827E251F44F8F4F0C949F2EF70BFF0B8D
:1017E000060C0D0C140C290C1B0C290C220CED9171
:1017F000FC9111970084F185E02DCD011994ED91B4
:10180000FC9111970284F385E02DF7CFED91FC91C7
:1018100011970484F585E02DF0CFED91FC9111979F
:101820000684F785E02DE9CFED91FC9111970088B2
:10183000F189E02DE2CFED91FC9111970288F389B7
:10184000E02DDBCFED91FC9111970488F589E02D17
:10185000D4CF08954F925F926F927F928F929F9212
:10186000AF92BF92CF92DF92EF92FF920F931F93AE
:10187000CF93DF93EC01C888D988EA88FB888C85F0
:101880009D85AE85BF85C81AD90AEA0AFB0A6C890C
:101890007D898E899F899B01AC010E94382D4B0167
:1018A0005C016C8D7D8D8E8D9F8D9B01AC010E94A6
:1018B000A82E9B01AC01C501B4010E94142F0E9407
:1018C000862FC114D104E104F10409F0B1C06230E3
:1018D0007105810591050CF0CBC01CA21DA21EA2B2
:1018E0001FA21C8A1D8A1E8A1F8A1CAA1DAA1EAA44
:1018F0001FAADF91CF911F910F91FF90EF90DF9082
:10190000CF90BF90AF909F908F907F906F905F909F
:101910004F9008951016110612061306B4F46C15B4
:101920007D058E059F051CF42A812111A1C09B0114
:10193000AC0188279927DC01821B930BA40BB50B04
:101940008CAB9DABAEABBFAB93C0011511052105B0
:10195000310509F48DC06C157D058E059F050CF0D1
:1019600087C08A81882309F483C03095209510951B
:1019700001951F4F2F4F3F4F0CAB1DAB2EAB3FAB15
:1019800077C0011511052105310509F471C08824BE
:10199000992454018C189D08AE08BF086815790574
:1019A0008A059B050CF064C08A81811161C0DDCF7E
:1019B000CCACDDACEEACFFACA7019601C701B60123
:1019C0000E94A82E2B013C01C501B4010E94D92C14
:1019D00020E030E040E850E40E94382D20E030E084
:1019E00040E85FE30E94A82E9B01AC01C301B20155
:1019F0000E94142F9B01AC01C701B6010E94A72EC3
:101A00003B016C01FE01E05CFF4FE080F180028150
:101A100013819701A8010E94BC2F181614F47301BA
:101A20008601C701D8018CAF9DAFAEAFBFAF3AC042
:101A30000CA91DA92EA93FA91C141D041E041F04D6
:101A40000CF468CF10161106120613060CF099CF8D
:101A50000027112798010C191D092E093F0960174D
:101A60007107820793070CF062CF2A8121115FCFA3
:101A70008CA89DA8AEA8BFA881149104A104B104AC
:101A800009F096CF88AD99ADAAADBBAD8CAF9DAF37
:101A9000AEAFBFAF81E01C141D041E041F040CF088
:101AA00080E08A833FEF831A930AA30AB30A8CAAC1
:101AB0009DAAAEAABFAACCACDDACEEACFFACC70110
:101AC000B6010E948D2F6CA37DA38EA39FA3A701B7
:101AD000960160E074E284E799E40E94142F6C8B15
:101AE0007D8B8E8B9F8B2A81211103CF90586C8B1D
:101AF0007D8B8E8B9F8BFDCEAF92BF92CF92DF926C
:101B0000EF92FF920F931F93CF93DF936B017A01B4
:101B1000EC01CA57D54F28813CE0389F8001399F9E
:101B2000100D1124A090850AB12C27FF1FC0FB01C6
:101B30001182108288818F5F888388819801280FA5
:101B4000311D87FD3A95F6012A153B051CF4888165
:101B50008C30C4F180819181049680349C4908F4D2
:101B600073C0F60180819181049670C088819801CC
:101B7000280F311D87FD3A952A153B05DCF6888133
:101B8000A801480F511D87FD5A95FA01EE0FFF1F5E
:101B9000E40FF51FEB50F64F808186FFCBCF888195
:101BA000F801E80FF11D87FDFA95CF01EE0FFF1F39
:101BB000E80FF91FEB50F64F808160E08F730E94B1
:101BC0006404B8CF808191812881A801420F511D02
:101BD00027FD5A959A01FA01EE0FFF1FE20FF31F3E
:101BE000EB50F64F21813281820F931FF7019183D1
:101BF000808388819801280F311D87FD3A95F9016E
:101C0000EE0FFF1FE20FF31FEB50F64F808186FFB0
:101C100022C08881080F111D87FD1A95F801EE0F6B
:101C2000FF1FE00FF11FEB50F64F808161E08F73D3
:101C3000DF91CF911F910F91FF90EF90DF90CF90A8
:101C4000BF90AF900C94640480E49CE9F701918309
:101C500080838FEF8883DF91CF911F910F91FF9049
:101C6000EF90DF90CF90BF90AF9008958F929F92AA
:101C7000AF92BF92EF92FF920F931F93CF937C018D
:101C80008B01C42F0E94E705F80180809180A2801B
:101C9000B380DC01CB0188199909AA09BB094C2F33
:101CA00050E070E060E084179507A607B70748F09A
:101CB000F70119950E94E705F8016083718382831B
:101CC0009383CF911F910F91FF90EF90BF90AF90B2
:101CD0009F908F9008952091F3093091F409280F77
:101CE000311D81E02D3D354008F080E00895FC0174
:101CF00084818823E1F08181811119C081E0818391
:101D000082819381FC0140895189628973894036BF
:101D100059476E4F7F4F59F040E659E76EEF7FEF1E
:101D2000FC01408B518B628B738B0C942A0C0895B1
:101D30004F925F926F927F928F929F92AF92BF92DB
:101D4000DF92EF92FF920F931F93CF93DF93D12CEB
:101D500008E810E0B8E5EB2EB2E0FB2EC4EB4C2E09
:101D6000512C612C712C80911604D81608F096C065
:101D7000ED2DF0E0EE0FFF1FEE5FFB4FC081D18134
:101D800089899A89AB89BC894D855E856F857889FB
:101D900084179507A607B70709F47AC048175907AB
:101DA0006A077B070CF076C00197A109B109898BFE
:101DB0009A8BAB8BBC8BA989BA89A03282E0B80719
:101DC000ACF52B854801821A910827FD9394880C65
:101DD000991C880C991C092C000CAA08BB082C859E
:101DE000C701821B910927FD93959C01220F331F88
:101DF000220F331F032E000C440B550B28193909F1
:101E00004A095B09A53BB10514F0A4EBB0E0B7FFAC
:101E100002C0B0E0A0E00E94362EA30192010E9411
:101E20000C2E820E931EA41EB51ED401EA85E0334B
:101E300078F52B85C801821B910927FD93959C019C
:101E4000220F331F220F331FA217B3077CF02C85FC
:101E5000C701821B910927FD93959C01220F331F17
:101E6000220F331FA217B3070CF49D012250310932
:101E7000220F331F4FB7F8948E2F90E0FC01EE0F26
:101E8000FF1FE80FF91FEB50F64F328321834FBF3E
:101E9000D39469CF0196A11DB11D89CFDF91CF9158
:101EA0001F910F91FF90EF90DF90BF90AF909F90A8
:101EB0008F907F906F905F904F900895EF92FF9278
:101EC0001F93CF93DF93EC01162F8C8180FF10C0FE
:101ED000603170F46D837E0184E0E80EF11C612FA7
:101EE000617089910E9464041695EC16FD06B9F79D
:101EF000DF91CF911F91FF90EF900895DC01842F27
:101F0000E091EB03F091EC03309719F04D915C9167
:101F1000199408954F925F926F927F928F929F9241
:101F2000AF92BF92CF92DF92FF920F931F93CF9306
:101F3000DF93F12C8091E103F81608F0EEC0EF2D4D
:101F4000F0E0EE0FFF1FE754FC4FC081D1818A8182
:101F5000882309F4B3C088810E943B048C018981E5
:101F60000E943B046C010E94E7054B015C0181E08B
:101F700090E0CD2811F090E080E0880F991F21E0DB
:101F8000012B09F020E0922F982B4B8D5C8D6D8DED
:101F90007E8D95018401041B150B260B370BB901AF
:101FA000A801453651056105710508F489C0888589
:101FB000823008F485C08B8E9C8EAD8EBE8E815093
:101FC0008887EE859E1709F445C0888503E310E0F5
:101FD000873010F401E010E06D8524E0E202F001AA
:101FE0001124492F092E000C550BE42BF52BE0583A
:101FF000FD4F708170039001719F300D1124062EEA
:1020000002C0220F331F0A94E2F7EF85F8892E0FE2
:102010003F1F388B2F874C0F5D1FFA0141854423EA
:10202000C1F04B885C886D887E884F8A588E698E97
:102030007A8E8B8A9C8AAD8ABE8A02C03595279596
:102040006A95E2F73A8B298B8C3008F08BE08F5F32
:1020500088879E8709891A898D819E8108171907AB
:1020600069F19801281B390BC901E091B703F09180
:10207000B8036901CC0CDD1C309709F44BC04B81CF
:102080005C812F5C3F4F23363105E0F597FD30C072
:10209000688180E01995C00ED11E31E4C3163FE17E
:1020A000D30654F08F85988983709927988B8F87F2
:1020B0001A8A198A10E000E01E830D83F3943ACF48
:1020C0004F89588D698D7A8D95018401041B150BFC
:1020D000260B370BB901A801453F51406105710539
:1020E00008F46FCF8B8E9C8EAD8EBE8E188669CF16
:1020F000698182E01995C8018C199D09803C904E38
:102100008CF2DACF97FD03C0688181E0C3CF69818B
:1021100083E0F0CF37FDEFCFBECFDF91CF911F919E
:102120000F91FF90DF90CF90BF90AF909F908F90D6
:102130007F906F905F904F900895CF92DF92EF92D3
:10214000FF920F931F93CF93DF936C017A018091DD
:10215000B5039091B603892B31F1D60113968C917A
:1021600000E181FD08E0EB01CE25DF2510E0C0FF96
:1021700013C08091B5039091B603892B69F0E0916B
:10218000B303F091B403309739F0D6014D915C91CF
:10219000612F8E2D81701995D695C795F694E79489
:1021A0001F5F0113E4CFDF91CF911F910F91FF903B
:1021B000EF90DF90CF900895AF92BF92CF92DF92D1
:1021C000EF92FF920F931F93CF93DF931F92CDB7A0
:1021D000DEB7C090B503D090B603C114D10409F4A2
:1021E0003FC0FC01238130E1B32E21FF02C028E073
:1021F000B22EA62E8C01F60185818683F12CE12C6E
:10220000BA946B2DC6010E945E0FF80182810E9474
:102210003B048983F80182810E943B048983EE0C90
:10222000FF1C298181E090E0211102C090E080E054
:10223000E82AF92AB110E4CFF6016681C6010E94AE
:102240005E0FF801648175816E157F0549F0AA2043
:1022500021F0A701C8010E949D10F801F582E482D7
:102260000F90DF91CF911F910F91FF90EF90DF9032
:10227000CF90BF90AF900895CF93C0E08091B2030C
:10228000C81768F4EC2FF0E0EE0FFF1FE655FC4F87
:1022900061E0808191810E94DC10CF5FEFCFCF9110
:1022A0000895DC01E091A803F091A903309761F053
:1022B00013968C911397882339F04D915C91119767
:1022C00012966C9181E019940895DC01E091A803C5
:1022D000F091A903309759F013968C9113978111BF
:1022E00006C04D915C91119712966C9119940895C6
:1022F0001F93CF93DF9310E08091A7031817F0F49A
:10230000E12FF0E0EE0FFF1FE15EFC4FC081D181B5
:102310008A810E943B049B81891751F091E08111D1
:1023200001C090E09B83811105C0CE010E94651120
:102330001F5FE2CFCE010E945111FACFDF91CF9102
:102340001F910895CF93DF93EC01E88DF0E0339671
:10235000EE0FFF1FEC0FFD1F8E899F8920813181B9
:10236000821B930B9F8B8E8B8A810E94A505E88D23
:10237000F0E03396EE0FFF1FEC0FFD1F918380837B
:10238000E88DF0E03396EE0FFF1FEC0FFD1F8E89F6
:102390009F8920813181820F931F9F8B8E8B888D27
:1023A0008F5F888F888D8770888FDF91CF91089598
:1023B000CF93C0E080911E03C81760F4EC2FF0E0CB
:1023C000EE0FFF1FE250FD4F808191810E94A2110C
:1023D000CF5FF0CFCF910895CF93C0E080911E03DF
:1023E000C817B8F5EC2FF0E0EE0FFF1FE250FD4FDD
:1023F000A081B18156968D919C91579723E0969537
:1024000087952A95E1F713962D913C911497AC018D
:10241000421B530B9A0157FF03C031952195310997
:1024200015964C9115974217130609F084F41496EB
:102430009C938E931397E091FC02F091FD023097EC
:1024400031F04D915C91119712966C911995CF5F77
:10245000C5CFCF9108950E94E7056093470B709315
:10246000480B8093490B90934A0B08950F931F9349
:10247000CF93DF93082F162FD42FC8E06D2F661F40
:102480006627661F802F0E946404DD0F61E0812FA4
:102490000E94640460E0812F0E946404C15071F7BF
:1024A000DF91CF911F910F910895EF92FF920F93BB
:1024B0001F93CF93DF931F921F92CDB7DEB78C018E
:1024C00049832A83660F771FF801E688F788EE0CA8
:1024D000FF1CCF01801B910B8E159F0514F41192E8
:1024E000F8CF8981F801E60FF71F81838A81808305
:1024F00060E0F80184890E9464041E141F046CF4D7
:10250000F1E0EF1AF108F801EE0DFF1D4081F8012E
:10251000628980890E943612F0CF61E0F8018489D7
:102520000F900F90DF91CF911F910F91FF90EF903F
:102530000C94640477FD0DC0FC012689378962176D
:1025400073073CF420E0411101C021E04CE00C9401
:1025500055120895FF920F931F93CF93DF93F82E98
:10256000C0E08091F903C817B8F4EC2FF0E0EE0F4B
:10257000FF1FE650FC4F00811181D0E0F801808DF3
:102580008D1741F06D2F70E04F2DC8010E949A12F7
:10259000DF5FF4CFCF5FE5CFDF91CF911F910F9138
:1025A000FF9008950F931F93CF93DF93FC01208D2D
:1025B0002223F9F06217E8F4062F10E04423B1F06B
:1025C000EC0186899789081719073CF42FEF240F2F
:1025D0004AE0B801CF010E94551240E0B801CE0197
:1025E000DF91CF911F910F910C949A1241E0B801A5
:1025F000F7CFDF91CF911F910F910895FF920F9325
:102600001F93CF93DF93EC0160E088810E94640404
:10261000FB800F2D10E00C5F1F4F0C0F1D1FFF20C4
:1026200049F0F80142918F0169818A810E94361236
:10263000FA94F5CF61E08881DF91CF911F910F91DE
:10264000FF900C9464049F92AF92BF92CF92DF925E
:10265000EF92FF920F931F93CF93DF93EC01C62E5F
:1026600061E08B810E94640461E08A810E946404BD
:1026700010E08D81181708F03FC0DB80BC8087E038
:10268000E82EF12C00E061E08D2D0E9464048B2D7A
:102690000E943B040E2C01C0880F0A94EAF7082B15
:1026A00060E08D2D0E94640481E0E81AF10858F77B
:1026B0005E01A10EB11CF501D780D016D9F0CC2057
:1026C000B9F0912E990C990C990CE02EF12C8D2DCE
:1026D0008E2580FF07C04E2D4170692D6F0DCE01F4
:1026E0000E947E0FD694E694F394F8E0FF12EFCFA9
:1026F000F50107831F5FBDCF60E08A81DF91CF9135
:102700001F910F91FF90EF90DF90CF90BF90AF900F
:102710009F900C946404CF93C0E08091EA03C817A3
:1027200068F4EC2FF0E0EE0FFF1FEE51FC4F61E07C
:10273000808191810E942313CF5FEFCFCF910895C5
:102740007F928F929F92AF92BF92CF92DF92EF9241
:10275000FF920F931F93CF93DF93C0E08091A70365
:10276000C81760F4EC2FF0E0EE0FFF1FE15EFC4FA6
:10277000808191810E945111CF5FF0CFC0E08091A4
:10278000A703C81760F4EC2FF0E0EE0FFF1FE15E27
:10279000FC4F808191810E946511CF5FF0CF10E0E6
:1027A0008091EA03181708F057C0E12FF0E0EE0F10
:1027B000FF1FEE51FC4FC081D18160E0CE010E942D
:1027C00023136E0187E0C80ED11C4601712CF12C39
:1027D000E12C8D818E151F04D9F0D4F0F401819184
:1027E0004F0100E0A82EB12C80FF06C041E0672D0C
:1027F000600FCE010E947E0FB594A7948A2D0F5FC3
:10280000083081F7FFEFEF1AFF0A88E0780EE1CF7A
:10281000F12C912C812C8D8188151904D9F0D4F0DC
:10282000F60181916F0100E0A82EB12C80FD06C059
:1028300040E06F2D600FCE010E947E0FB594A794EB
:102840008A2D0F5F083081F7FFEF8F1A9F0A88E00B
:10285000F80EE1CF1F5FA4CF0E942B1210E08091F1
:10286000B2031817E0F4E12FF0E0EE0FFF1FE6557A
:10287000FC4FC081D18160E0CE010E94DC104C8110
:102880005D8170E060E0CE010E949D104C815D8111
:102890006FEF7FEFCE010E949D101F5FE0CFC0E081
:1028A00080911E03C81718F5EC2FF0E0EE0FFF1F04
:1028B000E250FD4FA081B18156968D919C91579722
:1028C00023E0969587952A95E1F714969C938E932D
:1028D0001397E091FC02F091FD02309731F04D9199
:1028E0005C91119712966C911995CF5FD9CFDF91BA
:1028F000CF911F910F91FF90EF90DF90CF90BF90FD
:10290000AF909F908F907F9008950E9470038823CE
:1029100059F081E080934B1380934C1380914D13B9
:1029200090914E130C94452C10924C1390E080E043
:1029300008951F93CF93DF930E948514EC010E94AA
:102940008514182F0E948514CC0FDD1FC650DC4F54
:10295000482F612F888199810E94D212DF91CF91F7
:102960001F910C942B120C9499147F928F929F922A
:10297000AF92BF92CF92DF92EF92FF920F931F938D
:10298000CF93DF930E948514EC010E9485148C0183
:102990000E94C1034C010E9485145C010E948514B1
:1029A000CC0FDD1FC650DC4FE880F980F701208D89
:1029B000222381F1C7E0D0E0712C6C01DD241127C6
:1029C000BB244C2F4F5F96010C2E02C035952795E6
:1029D0000A94E2F720FF1CC0F70126893789021705
:1029E0001307ACF4F401E70DF11DE081F0E0E95DBF
:1029F000FB4F2491B5010C2E02C0759567950A9482
:102A0000E2F760FD2068B801C7010E945512739477
:102A10002197B8F6DF91CF911F910F91FF90EF9022
:102A2000DF90CF90BF90AF909F908F907F900C944D
:102A30002B12CF930E948514C82F0E948514BC01CD
:102A40008C2F0E94CE04CF910C942B120E948514DF
:102A50002091610B2817190661F05CF0880F991F0F
:102A6000FC01E35BF44F808191810E94770E0C940E
:102A70002B1208950E9485142091610B28171906C6
:102A800011F10CF1880F991FFC01E35BF44F0190E9
:102A9000F081E02D0280F381E02D148615861686E4
:102AA0001786108A118A128A138A14AA15AA16AADE
:102AB00017AA14A215A216A217A2148A158A168A9A
:102AC000178A0C942B1208958F929F92AF92BF9207
:102AD000CF92DF92EF92FF921F93CF93DF930E94EA
:102AE0008514EC010E948514BC01809116048C179A
:102AF0001D0609F00CF4DCC0CC0FDD1FCE5FDB4FF0
:102B00000990D881C02DCD80DE800D2C000CEE0800
:102B1000FF0889809A80092C000CAA08BB082F8125
:102B20003885032E000C440B550B2C193D094E091A
:102B30005F09072E000C880B990B681979098A091F
:102B40009B090E946F2E2B813C81032E000C440BAD
:102B5000550B281939094A095B090E940C2EBA0144
:102B6000A9014C0D5D1D6E1D7F1D052E000C660B11
:102B7000770B8D859E85AF85B88984179507A60745
:102B8000B70709F45CC04D875E876F87788B8985AE
:102B9000811155C08A85803308F04FC0188161E0EB
:102BA000812F0E9492048A85282F30E0F901EE0FD0
:102BB000FF1FE20FF31FEB50F64F1F739081907CC5
:102BC000912B90831B861C862CE0622F0E947F2E07
:102BD000829FB001112430E020E0AB01420F531F6F
:102BE000FA01EE0FFF1FE40FF51FEB50F64F908137
:102BF00096FD16C02F5F3F4F2C30310571F78130A5
:102C000059F51092800082E0809381001092850037
:102C100010928400B19A80916F00826080936F005F
:102C2000EA858E2F90E0FC01EE0FFF1FE80FF91FE1
:102C3000EB50F64F80818064808381E08987DF914B
:102C4000CF911F91FF90EF90DF90CF90BF90AF900A
:102C50009F908F900C942B12823061F41092900010
:102C600080939100109295001092940088BB8093FD
:102C70007100D6CF833069F41092A00082E0809377
:102C8000A1001092A5001092A40089BB809372004D
:102C9000C7CF8111C5CF1092200182E0809321011E
:102CA00010922501109224018ABB80937300B8CF43
:102CB000DF91CF911F91FF90EF90DF90CF90BF9069
:102CC000AF909F908F900895EF92FF920F931F9374
:102CD000CF93DF930E9485148C010E94C1037C0175
:102CE000EC01FC01DE018081882349F090915613AC
:102CF000891301C03196808189933196F3CFAE1745
:102D0000BF0710F41D92FBCF000F111FF801E35114
:102D1000FC4F00811181F80186858823B1F0C0E065
:102D2000F80181898C1789F04C2F60E0C8010E945E
:102D30004E09F8014089B701C49F600D711D11242F
:102D4000C8010E94AD09CF5FEBCFDF91CF911F91FA
:102D50000F91FF90EF900C942B122091C2113091A3
:102D6000C3118217930710F40C94F62D80E0089598
:102D70000F931F93CF93DF938C01EB01F8018081B8
:102D800091819C012F5F3F4F318320830E94AD16BC
:102D900028813981A9014F5F5F4F598348832952A8
:102DA000344FF901808328813981283EF3E03F07C1
:102DB00060F48A3319F72A52344FF901108281E006
:102DC000DF91CF911F910F91089580E0F9CFEF929D
:102DD000FF920F931F93CF93DF93EC01E090C2110A
:102DE000F090C311888199818C010F5F1F4F198367
:102DF00008830E94AD16E016F10650F08A3391F771
:102E000081E0DF91CF911F910F91FF90EF90089596
:102E100080E0F7CFAF92BF92CF92DF92EF92FF9216
:102E20000F931F93CF93DF9300D01F92CDB7DEB7E0
:102E30005C0119821A821B821C82CE0101967C01E0
:102E400010E000E06C01F501808191819C012F5F11
:102E50003F4F318320830E94AD16F7018083F80134
:102E60008E3241F00F5F1F4F8FEFE81AF80A0430DF
:102E7000110549F7EC0DFD1D1082C6010E94452C7D
:102E80000F900F900F900F90DF91CF911F910F91A6
:102E9000FF90EF90DF90CF90BF90AF900895DF92BA
:102EA000EF92FF920F931F93CF93DF938C019C01BE
:102EB000240F351F8091C2119091C311821793077F
:102EC000E0F0EB017B01E40EF51ED990C8010E94F1
:102ED000F62DD81621F06D2DC8010E94FE2D0F5F32
:102EE0001F4FEC16FD0689F781E0DF91CF911F910E
:102EF0000F91FF90EF90DF90089580E0F6CFFB01F7
:102F000001900020E9F73197AF01461B570BDC0118
:102F1000ED91FC910280F381E02D19948091811252
:102F20008823A1F060915413809152139091531310
:102F30000E94F30580918912882341F06EEC72E0C3
:102F400080915213909153130E947F171092881210
:102F50001092811280E008958F929F92AF92BF925B
:102F6000EF92FF920F931F93CF93DF93CDB7DEB70E
:102F7000A1970FB6F894DEBF0FBECDBF7C01FA015A
:102F8000CB0119A2223008F42AE08E010F5D1F4FF9
:102F9000822E912CB12CA12CBF01A50194010E947D
:102FA0003E2EF901CA016A300CF5605DD8016E93BE
:102FB0008D01232B242B252B79F790E080E01097AF
:102FC00021F0BD01C7010E947F17A1960FB6F894AA
:102FD000DEBF0FBECDBFDF91CF911F910F91FF904C
:102FE000EF90BF90AF909F908F900895695CDECF77
:102FF000CF93909181129923A9F0C82F6091551316
:1030000080915213909153130E94F3054C2F50E07E
:1030100070E060E02AE08091521390915313CF91B9
:103020000C94AC17CF91089590918112911110C01A
:1030300091E09093811290938812482F50E070E0B5
:1030400060E02AE080915213909153130C94AC17D6
:103050000895EF92FF920F931F93CF93DF93909178
:10306000811291112BC08B010E9414188091811242
:103070008823E1F06091551380915213909153137E
:103080000E94F305E0905213F0905313E801FE0103
:103090006491662359F0D701ED91FC910190F08184
:1030A000E02DC70119952196892B89F7DF91CF91E2
:1030B0001F910F91FF90EF900C948E1780E0DF919D
:1030C000CF911F910F91FF90EF9008950E94E70517
:1030D0006093470B7093480B8093490B90934A0B76
:1030E00060EE72E085E00C9429181F93CF93DF9374
:1030F0001092A7031092E1031092460B9091F903EE
:10310000EAEFF3E080E0981731F0A191B191589681
:103110001C928F5FF8CF1092F90330911604C2E031
:10312000D4E020E03217D1F0A991B99119968C9191
:103130001997882389F01A96EC911A978E2F90E0B0
:10314000FC01EE0FFF1FE80FF91FEB50F64F8081D7
:103150008F7B808319961C922F5FE4CF1092160408
:103160009091610BEDE4FBE080E0981729F0A191CC
:10317000B1911C928F5FF9CF1092610B9091FA027E
:10318000EDEEF3E080E0981759F0A191B1911E9611
:103190002C911E97222311F01E961C928F5FF3CF65
:1031A0001092FA0210921E039091FB02E1EFF3E0FD
:1031B00080E0981759F0A191B19118962C91189729
:1031C000222311F018961C928F5FF3CF1092FB020E
:1031D0009091EA03E2EEF3E080E0981731F0A191DC
:1031E000B19116961C928F5FF8CF1092EA0310E00F
:1031F000E091B2031E1798F4F0E0EE0FFF1FE655C2
:10320000FC4FC081D1818B8180FF07C062E08A8141
:103210000E9492048B818E7F8B831F5FE9CF109277
:10322000B2031092F50A1092F40A10924C0B10920D
:10323000F4091092F30964EE72E085E0DF91CF911A
:103240001F910C94291867EE72E08FE00C942918F6
:103250002091F3093091F409820F932F911D9093DF
:10326000F4098093F3098C3D954040F068EE74E0DA
:1032700085E00E94291890E080E00895C901895EE8
:103280009B4F0895CF92DF92EF92FF920F931F937F
:10329000CF93DF939091E103943109F45EC07901FB
:1032A000142FC62ED82E8FE10E946B0E81110DC0F7
:1032B00067E074E085E0DF91CF911F910F91FF905F
:1032C000EF90DF90CF900C9429188FE10E9428197D
:1032D000EC01892B09F01A820091E103E02FF0E064
:1032E000EE0FFF1FE754FC4FD183C0831E821D8267
:1032F000FC82EB82D882C98285E0819FF001112493
:10330000E959FD4FDE01199601900D928A95E1F77A
:1033100062E08D2D0E94920462E089810E949204F5
:103320001E86188A1F861A8A198A18861F8A188E7E
:10333000198E1A8E84EF91E0A0E0B0E08B8B9C8B0D
:10334000AD8BBE8B81E08A838FEB9AE19093B803BB
:103350008093B7030F5F0093E103DF91CF911F913B
:103360000F91FF90EF90DF90CF90089581E08093D0
:103370004C0B6AEE72E081E10C942918CF93DF9335
:103380000E942B128AE00E9414188091F40A9091F6
:10339000F50A892B91F18BE390E00E94AD16C82FBE
:1033A00080918112882379F0609155138091521396
:1033B000909153130E94F3056C2F809152139091BA
:1033C00053130E94F305C1E0D0E08091F40A90917C
:1033D000F50AC817D90788F4CE01CB960E94AD161E
:1033E00090918112992339F0682F80915213909116
:1033F00053130E94F3052196E8CFDF91CF910C94EF
:103400008E17CF93DF930E942B120E94C103BC0141
:10341000EC0109900020E9F72197C81BD90BDD27A3
:103420008091F40A9091F50A9C012F5F3F4F2C0F79
:103430003D1F283D354088F5AE014F5F5F4FCB966D
:103440000E944F174091F40A5091F50AC40FD51FFE
:10345000D093F50AC093F40A8091811281113FC084
:1034600085E00E94141880918112882391F0609168
:10347000551380915213909153130E94F305AE019E
:1034800070E060E02AE080915213909153130E9403
:10349000AC17DF91CF910C948E178091811281111E
:1034A0001EC085E00E94141880918112882389F340
:1034B0006091551380915213909153130E94F3051C
:1034C000C0915213D09153136DE2CE010E94F305C7
:1034D0002AE041E050E060E070E0CE01D8CFDF911B
:1034E000CF910895CF93DF93209181122223A1F0F1
:1034F000EC016091551380915213909153130E94E7
:10350000F305209749F0BE01809152139091531317
:10351000DF91CF910C947F17DF91CF9108950E9496
:103520002B128AE00E94141887E592E00E94721A1A
:103530008BE092E00E94721A80E092E00E94721A80
:1035400081ED92E00E94721A0C948E170F931F93D4
:10355000CF93DF93C82FD62F8A018DE10E941418D4
:10356000C8010E94721A8D2F0E94F8178C2F0E949A
:10357000F817DF91CF911F910F910C948E170F9335
:103580001F93CF93C82F8A0186E00E941418C801A8
:103590000E94721A8C2F0E94F817CF911F910F91E1
:1035A0000C948E170F931F93CF93DF93C82FD62FB2
:1035B0008A018EE10E941418C8010E94721A8D2F90
:1035C0000E94F8178C2F0E94F817DF91CF911F915E
:1035D0000F910C948E170F931F93CF93C82F8A01CE
:1035E00087E00E941418C8010E94721A8C2F0E9452
:1035F000F817CF911F910F910C948E17CF92DF92F5
:10360000EF92FF92CF93DF936C01EA018CE10E946D
:103610001418CE010E94721A80918112882321F120
:103620006091551380915213909153130E94F305AA
:10363000C0915213D09153130D2C000CEE08FF08CB
:103640002AE0B701A601F7FE0CC06DE2CE010E9490
:10365000F30544275527BA014C195D096E097F0906
:103660002AE0CE010E94AC17DF91CF91FF90EF903E
:10367000DF90CF900C948E17CF93DF931F921F9201
:10368000CDB7DEB70E94C103FC0190E3ABE0B2E02E
:1036900001900D929A95E1F783E290E09A838983F5
:1036A00041E050E0BE016F5F7F4F90E080E00E94FC
:1036B0004F174FE250E06BE072E081E090E00E9433
:1036C0004F1780918112811109C085E00E94141862
:1036D0008BE092E00E94721A0E948E170F900F905A
:1036E000DF91CF910895FB0101900020E9F7319718
:1036F000AF01461B570BDC01ED91FC910284F38571
:10370000E02D1994CF92DF92EF92FF920F931F93C7
:10371000CF93DF938C01EB01FC01D0886D2D70E01D
:10372000FE0101900020E9F7CF0101978C1B9D0B52
:1037300086179707B0F4681B790B76956795D82E96
:10374000C8010E944E09CC2EEC2EFD2E8E2D8C1918
:103750008D1548F4F70161917F01C8010E94950918
:10376000F5CF60E0EDCFDF91CF911F910F91FF90EA
:10377000EF90DF90CF90089585ED8093BC0080910D
:10378000AF0B9091B00BA091B10BB091B20B07961B
:10379000A11DB11D23E0B695A795979587952A950C
:1037A000D1F72091BC0024FD03C01092AD0B089509
:1037B0004091AF0B5091B00B6091B10B7091B20B77
:1037C000452B462B472B69F30097A105B10541F026
:1037D00025E32A95F1F700000197A109B109E1CF8E
:1037E0008091AE0B0C9479074F925F926F927F920B
:1037F0008F929F92AF92BF92CF92DF92EF92FF9201
:10380000CF93DF93EC016A017B0120E030E0A90156
:10381000CB01B6010E94D22C87FF04C0F7FAF094C6
:10382000F7F8F0948C8C9D8CAE8CBF8CA701960120
:10383000C501B4010E94D22C882309F449C06CA9A7
:103840007DA98EA99FA90E94D92C2B013C01A7011B
:103850009601C501B4010E94142F9B01AC01C30164
:10386000B2010E94382D0E94862F6CAB7DAB8EABCF
:103870009FABA701960160E070E080E090E40E94B9
:10388000142F0E94C72F26E53EE04DE25FE30E9421
:10389000382D20E034E244E759E40E94382D68AF27
:1038A00079AF8AAF9BAFCC8EDD8EEE8EFF8ECE01D0
:1038B000DF91CF91FF90EF90DF90CF90BF90AF90CE
:1038C0009F908F907F906F905F904F900C942A0CF8
:1038D000DF91CF91FF90EF90DF90CF90BF90AF90AE
:1038E0009F908F907F906F905F904F9008958F92F0
:1038F0009F92AF92BF92CF92DF92EF92FF920F937F
:103900001F93CF93DF939091610B9A3009F49DC080
:10391000C22ED42EA62EB82E8AE00E946B0E8111E4
:1039200011C068EC74E085E0DF91CF911F910F9199
:10393000FF90EF90DF90CF90BF90AF909F908F90CF
:103940000C9429188AE00E9428197C01009711F034
:10395000FC011082E091610BF0E0EE0FFF1FE35BD2
:10396000F44FF182E08284E40E946B0E81117AC0F0
:1039700067EA74E085E00E942918F090610BEF2D52
:10398000F0E0EE0FFF1FE35BF44FC080D180F60143
:10399000C281D38120E030E048EC53E4688D798D1A
:1039A0008A8D9B8D0E94D22C8823E9F180E090E0E3
:1039B000A8ECB3E4888F998FAA8FBB8F80E090E446
:1039C000ACE1B5E4FE01E05CFF4F80839183A2830C
:1039D000B3838CA99DA9AEA9BFA9181619061A060A
:1039E0001B060CF56C897D898E899F899B01AC0132
:1039F0000E94382D4B015C016C8D7D8D8E8D9F8DCD
:103A00009B01AC010E94A82E9B01AC01C501B40131
:103A10000E94142F0E94862F6CAB7DAB8EAB9FABA8
:103A2000CE010E942A0C40E050E068E474E4F60104
:103A3000828193810E94F41B101611061CF4C601AA
:103A40000E94770EF394F092610BDF91CF911F915A
:103A50000F91FF90EF90DF90CF90BF90AF909F902D
:103A60008F90089584E4CA1072C0DB1070C00E9469
:103A70002819EC01892B09F459C084E992E0998353
:103A8000888381E08B831C861D861E861F86188A8C
:103A9000198A1A8A1B8A1C8A1D8A1E8A1F8A80E03C
:103AA00090E0A0E8BFE3888F998FAA8FBB8F1C8E10
:103AB0001D8E1E8E1F8E88A399A3AAA3BBA31CA232
:103AC0001DA21EA21FA221E030E03DA72CA72FEFD0
:103AD0002FA718A619A61AA61BA6DC82CD8224E061
:103AE0002E8325E02F831EA61CAA1DAA1EAA1FAA8C
:103AF00018AE19AE1AAE1BAE1CAE1DAE1EAE1FAE7A
:103B0000FE01E05CFF4F80839183A283B3831A821E
:103B1000188619861A861B86CE010E94090A40E083
:103B200050E060E87FE3CE010E94F41BF701D383ED
:103B3000C283048381E08583002321F062E0802F2B
:103B40000E94920481E0F7018083118216CF0E94C7
:103B50002819EC01892B51F384E992E09983888339
:103B600084E08B831C861D861E861F86188A198A10
:103B70001A8A1B8A1C8A1D8A1E8A1F8A80E090E08E
:103B8000A0E8BFE3888F998FAA8FBB8F1C8E1D8EF4
:103B90001E8E1F8E88A399A3AAA3BBA31CA21DA23D
:103BA0001EA21FA221E030E03DA72CA72FEF2FA7D8
:103BB00018A619A61AA61BA6CC82AD82BE82DF82E9
:103BC00092CF2F923F924F925F926F927F928F92FD
:103BD0009F92AF92BF92CF92DF92EF92FF920F939C
:103BE0001F93CF93DF9300D01F92CDB7DEB78091A4
:103BF000F40A9091F50A892B09F460C58BE390E0F3
:103C00009A8389831C821B82CE0101960E940A1727
:103C1000882309F453C56BE4E62E66E4F62E7BE4B4
:103C2000272E72E0372EE4EBCE2ED12CEFEFE80FEB
:103C3000EE3008F0A7C00E2E000CFF0B8827EC5DBD
:103C4000F14E8F4F0C949F2E321E45208F1EC71EA3
:103C5000A41FF31F6D205820CD1FF321942165224E
:103C6000C21ECD22CE0101960E940A17982E809185
:103C7000A7038434D9F184E00E946B0E6DEE72E0EC
:103C8000882309F442C4AB80BC8084E00E942819D8
:103C90008C010097C1F0DC0112969C921297C5012D
:103CA0008952944F8D939C9362E0892D0E949204D7
:103CB000F80182810E943B0421E0892B09F420E075
:103CC000D80113962C938091A703E82FF0E0EE0F14
:103CD000FF1FE15EFC4F118300832BEE3AE130932E
:103CE000A9032093A8038F5F8093A703BE016D5F94
:103CF0007F4FCE0101960E94B816182FCE01019673
:103D00000E940A17882309F4D6C411118FCF10928C
:103D1000BE0F6DEE73E085E00E942918CFC4CE017E
:103D200001960E940A17B82E8091460B883251F1F5
:103D300082E00E946B0E6BE073E0882309F473C38A
:103D400082E00E9428198C01009779F0FC01B08272
:103D5000118261E08B2D0E949204D80111966C9122
:103D6000119770E08C910E94CE048091460BE82F51
:103D7000F0E0EE0FFF1FEA50F54F118300838F5FD5
:103D80008093460BCE0101960E94E716B6CFCE0176
:103D900001960E940A17482ECE0101960E940A172A
:103DA000682ECE0101960E940A17582ECE01019668
:103DB0000E940A17882ECE0101960E940A17782EBB
:103DC0008091F9038430F1F289E10E946B0E69E27F
:103DD00073E0882309F427C389E10E9428198C0124
:103DE000009711F0FC01108EA42C042C000CBB08D1
:103DF0009090F903E92DF0E0EE0FFF1FE650FC4F25
:103E000011830083D8015196BC92AE925097852DB4
:103E1000550C990B53969C938E935297862D660C56
:103E2000990B55969C938E935497E72DE150FF0B79
:103E3000389708F45CC088E090E0D80157969C93CE
:103E40008E93569761E0842D0E94920461E0F80100
:103E500082890E94920461E0D80154968C910E945C
:103E6000920461E0F80184890E946404D8015196AB
:103E7000BC92AE925097B12CA12CF80186899789FB
:103E8000A816B906B4F520E04FE0B501C8010E94BC
:103E90005512D80156968D919C91A816B90634F406
:103EA00027E04BE0B501C8010E94551220E049E02F
:103EB000B501C8010E945512F80186899789A81694
:103EC000B90664F46624639420E0462DB501C80168
:103ED0000E9455126394F9E06F12F6CF41E0B501EC
:103EE000C8010E949A122FEFA21AB20AC6CF872DDC
:103EF000A3CF708E712CF801808D781608F5482DAF
:103F0000672DC8010E94D212A72CB12C40E0B50148
:103F1000C8010E949A12D80156968D919C91A816BC
:103F2000B90664F46624639420E0462DB501C80107
:103F30000E9455126394B9E06B12F6CF7394DBCFF5
:103F400093949092F9031ECFCE0101960E940A1716
:103F5000B82ECE0101960E940A17182FCE010196A5
:103F60000E940A17082FCE0101960E940A17A82E58
:103F7000CE0101960E940A172A2DAA0C330B402F5E
:103F8000000F550B612F110F770B10E000E08B2D08
:103F9000BB0C990B0E94771CF5CECE0101960E94B6
:103FA0000A17B82ECE0101960E940A17182FCE01CB
:103FB00001960E940A17A82ECE0101960E940A17A8
:103FC000982ECE0101960E940A17082E000C990B1C
:103FD000292D990C330B4A2DAA0C550B612F110F6B
:103FE000770B8C01D4CFCE0101960E940A17182FAF
:103FF000809116048A3009F4C5CE87E10E946B0EC9
:104000006AE473E0882309F40EC287E10E9428194C
:10401000FC01892BB9F08091850A803398F591E0F5
:10402000980F9093850A828790E0DC01AA0FBB1F4E
:10403000A80FB91FAB50B64F88EB9BE012969C932C
:104040008E93119780911604A82FB0E0AA0FBB1F82
:10405000AE5FBB4FED93FC931186158616861786CF
:10406000108A118A128A138A148A12821182D482C7
:10407000C38216821582D086C78210838F5F809399
:10408000160480CE8FEF8287DDCFCE0101960E948D
:104090000A17182FCE0101960E940A172B813C8126
:1040A0002952344F40E0682F812F0E9442191ECEC2
:1040B000CE0101960E940A17182FCE0101960E9488
:1040C0000A17082FCE0101960E940A172B813C8106
:1040D0002952344F482F602FE7CFCE0101960E941E
:1040E0000A17982ECE0101960E940A17A82ECE011B
:1040F00001960E940A17B82E8091FA02823009F4C4
:1041000041CE82E10E946B0E68E673E0882309F4D9
:104110008AC182E10E9428198C01009731F0FC01CC
:1041200013821282318220821186E091FA02F0E03D
:10413000EE0FFF1FE351FC4F11830083D8011F9640
:104140009C921F975096AC9250975196BC92519763
:1041500081E01E968C931E9714969C9214971A9643
:10416000AC921A971B96BC921B971C961C921C979C
:104170001D961C921092AB0A1092AA0A1092B40BD0
:104180001092D60B0E945B07EDE8F8E0F093CE0AA0
:10419000E093CD0A2EE838E03093D20A2093D10A7A
:1041A000D80115961C9215971B968C911B978230FF
:1041B00018F098E015969C93F8019485992329F0BE
:1041C000813019F48581846085830E94C2052B01AA
:1041D0003C0162E3862E912CA12CB12C0E94C205D9
:1041E0006419750986099709683E73408105910530
:1041F000A8F3F1E08F1A9108A108B10828EE420E49
:1042000023E0521E611C711C81149104A104B104AD
:1042100029F7D8011D966C91C8010E949B0960E3A3
:10422000C8010E949B09C7010197F1F760E3C8012B
:104230000E949B09C7010197F1F760E3C8010E9442
:104240009B0983E592E00197F1F760E2C8010E94C3
:104250009B09F8016581606240E0C8010E94250960
:1042600084E0D80116968C9340E06CE0C8010E946F
:104270002509C8010E947D0982E0F801878340E09A
:1042800066E0C8010E94250940E062E0C8010E9482
:1042900025098BE39FE10197F1F788E0D8011D968E
:1042A0008C931D9714968C9191E09093B30B80930F
:1042B000D50B1092B40B1092D60B68E08FEA91E107
:1042C0000E94E6080E948A088CE08093B800F801FA
:1042D0008685882319F1C8010E947D09D80151966D
:1042E0004C91B12C433020F04695BB24BA94B40EC7
:1042F0004B2D67ED72E0C8010E94821BF801818995
:10430000823038F041E04B0D62EE72E0C8010E944D
:10431000821B40E060E0C8010E944E098091FA02D1
:104320008F5F8093FA022ECDCE0101960E940A176C
:10433000982ECE0101960E940A17882E80911E03A6
:10434000803109F4D3CC8DE10E946B0E64E873E0F8
:10435000882309F4DAC0AB80BC808DE10E94281963
:104360008C01892B61F180E1F8013696DF011D9205
:104370008A95E9F7F801178A168A108E858292824B
:10438000C5018952944F9183808362E0892D0E94F8
:10439000920458E0B52EC8010E94A211BA94B1103F
:1043A000FACFD80156968D919C91579743E09695F8
:1043B00087954A95E1F714969C938E931397809175
:1043C0001E03E82FF0E0EE0FFF1FE250FD4F1183B8
:1043D0000083EEEFFAE1F093FD02E093FC028F5FC1
:1043E00080931E0383CCCE0101960E940A17882E6B
:1043F000CE0101960E940A17582ECE0101960E9406
:104400000A17682ECE0101960E940A17782E809115
:10441000FB02843009F4B6CC89E00E946B0E811156
:1044200006C064EA73E085E00E942918ABCC89E0FD
:104430000E9428198C019090FB02A92CB12CAA0C87
:10444000BB1CF501EF50FC4F9183808381E0D801C4
:1044500018968C9318978C9211965C9211971296DD
:104460006C92129713967C9261E0882D0E949204C0
:1044700061E0F80181810E94920461E0D801129606
:104480008C910E949204F8019381349680E09817F1
:1044900019F011928F5FFBCFC8010E94FE12F50147
:1044A000EF50FC4F80819181DC0113963C91FC011F
:1044B000349620E0321719F011922F5FFBCF0E9443
:1044C000FE1293949092FB025DCCCE0101960E9465
:1044D0000A17982ECE0101960E940A17682ECE0167
:1044E00001960E940A17782ECE0101960E940A17A3
:1044F000882E8091EA03843009F4F8CB8BE00E9487
:104500006B0E811106C069EC73E085E00E942918EA
:10451000EDCBAB80BC808BE00E9428198C0100970A
:1045200031F0FC0116821782108611861286E09106
:10453000EA03F0E0EE0FFF1FEE51FC4F1183008302
:10454000F801928263827482C5018952944F9183EB
:104550008083858261E0892D0E94920461E0D80108
:1045600013968C910E94920460E0F80184810E946D
:10457000920481E0D80116968C9360E0C8010E94F5
:104580002313E6EAFAE1F093EC03E093EB03809166
:10459000EA038F5F8093EA03A9CBCE0101960E94C4
:1045A0000A17982ECE0101960E940A17B82ECE0146
:1045B00001960E940A17082FCE0101960E940A1741
:1045C000182FCE0101960E940A17B092BB110093DA
:1045D000BC111093BD118093BE111092BF110BEB53
:1045E00011E161E0D8018D918D010E949204EFEB01
:1045F000F1E1E017F107A9F78091BF118160809385
:10460000BF1160E08BEB91E10E945E0FCE0101963D
:104610000E940A17882E8091B203843009F466CB79
:10462000AB80BC8086E00E9428198C01009759F06D
:104630002BEB31E13093B6032093B503DC011596E3
:104640001C921E921497E091B203F0E0EE0FFF1F50
:10465000E655FC4F11830083F8019282C50189520F
:10466000944F91838083F1E08F1609F1D80113965E
:104670001C9262E0892D0E949204D80113968C91BD
:104680001397816013968C9360E0C8010E94DC1040
:10469000F8011582148222ED3AE13093B40320939D
:1046A000B3038091B2038F5F8093B2031FCB82E08C
:1046B000F8018383DECF112309F429CB0F900F90EB
:1046C0000F900F90DF91CF911F910F91FF90EF907E
:1046D000DF90CF90BF90AF909F908F907F906F9022
:1046E0005F904F903F902F9008950E94E11D0C9491
:1046F000B6190F931F93CF93DF930E948514EC019B
:104700000E9470038823F1F181E080934B13809322
:104710004C1380914D1390914E130E94632C209165
:10472000610B2C171D06A1F19CF1CC0FDD1FC35BA3
:10473000D44FE881F9811182068117812085318566
:104740006017710782079307B9F0668377838087C4
:1047500091870280F381E02D0089118922893389B4
:10476000601771078207930739F0608B718B828B1A
:10477000938BCF010E942A0CDF91CF911F910F9153
:104780000C942B1210924C1360E070E0CB01C7CF59
:10479000DF91CF911F910F910895FF920F931F9377
:1047A000CF93DF930E948514EC010E94C1038C011A
:1047B0000E948514F82ECC0FDD1FCF50DC4F0990DE
:1047C000D881C02D8885882369F169EE72E0C8011F
:1047D0000E948A2C01E010E0009709F10E94452C0C
:1047E0009885992391F0982F9770980101C0220F16
:1047F0009A95EAF7869586958695FE01E80FF11D54
:104800008481FF2049F0282B248369EE72E090E038
:1048100080E00E948A2CE0CF20952823F5CFCE019E
:104820000E94FE12DF91CF911F910F91FF900C9487
:104830002B12CF92DF92EF92FF921F93CF93DF93D1
:10484000182F8091C2119091C311CB9780F030E066
:10485000E32E32E0F32EC0E3D0E0CE010E94AD168D
:10486000F70181937F012196CB33D105B1F7111167
:1048700009C080910002833529F4809101028E34B1
:1048800009F462C086E30E94A505BC01990F880B5C
:10489000990B611571058105910511F00E943C2C61
:1048A0000E94ED2BCC24CA942FE0D22EE12CF12CC7
:1048B000A70196010E940C2E7F936F938BEE92E0DE
:1048C0009F938F9380E092E09F938F930E941C3080
:1048D0000E94ED2BA70196010E940C2E7F936F93EF
:1048E00084EF92E09F938F9387E092E09F938F9362
:1048F0000E941C304BE050E060E072E080E390E00A
:104900000E944F178DB79EB70C960FB6F8949EBFB6
:104910000FBE8DBF111118C08091C2119091C311AB
:10492000CC9790F08BE390E00E94F62D882361F005
:1049300060E08BE390E0DF91CF911F91FF90EF90CB
:10494000DF90CF900C94FE2DDF91CF911F91FF90BF
:10495000EF90DF90CF90089581E00E94192480911C
:104960008112811109C08AE00E94141880E092E04F
:104970000E94721A0C948E1708951F920F920FB610
:104980000F9211242F933F938F939F93AF93BF93D5
:1049900080917F0B9091800BA091810BB091820B45
:1049A00030917E0B23E0230F2D3758F50196A11D82
:1049B000B11D20937E0B80937F0B9093800BA0936F
:1049C000810BB093820B8091830B9091840BA0910B
:1049D000850BB091860B0196A11DB11D8093830BB1
:1049E0009093840BA093850BB093860BBF91AF91EE
:1049F0009F918F913F912F910F900FBE0F901F901D
:104A0000189526E8230F0296A11DB11DD2CF1F9243
:104A10000F920FB60F9211240BB60F922F933F9364
:104A20004F935F936F937F938F939F93AF93BF93B6
:104A3000EF93FF9384EC91E10E947306FF91EF9155
:104A4000BF91AF919F918F917F916F915F914F91A6
:104A50003F912F910F900BBE0F900FBE0F901F90A4
:104A600018951F920F920FB60F9211240BB60F924A
:104A70002F935F936F937F938F939F93AF93BF9386
:104A8000EF93FF93E091D411F091D5118081E091E3
:104A9000DA11F091DB1182FD26C020818091DD11B9
:104AA00090E0019660E670E00E948B2E9091DE11FE
:104AB000981741F0E091DD11F0E0EC53FE4E258FA8
:104AC0008093DD11FF91EF91BF91AF919F918F91F5
:104AD0007F916F915F912F910F900BBE0F900FBE42
:104AE0000F901F9018958081EDCF1F920F920FB6F7
:104AF0000F9211240BB60F922F933F934F935F9316
:104B00006F937F938F939F93AF93BF93EF93FF9395
:104B10008091B900887F803609F44DC008F040C00C
:104B2000883209F4A9C028F5803109F49DC0C8F481
:104B3000882309F4FBC0883009F496C0FF91EF91F7
:104B4000BF91AF919F918F917F916F915F914F91A5
:104B50003F912F910F900BBE0F900FBE0F901F90A3
:104B60001895883109F488C0803241F78093AB0BE7
:104B700014C0803409F49DC040F48033B9F3883305
:104B8000E9F68093AB0B85ECB0C0803509F485C0A5
:104B9000883509F496C0883489F60E94BC1BCECFB4
:104BA000883909F48CC038F5883729F050F48836F4
:104BB00011F0803719F683E08093AD0B1092F30A61
:104BC00057C0883809F47BC0803919F0803809F063
:104BD000B5CF8091F30A803208F071C0E091F30AFA
:104BE00081E08E0F8093F30A8091BB00F0E0ED52DC
:104BF000F54F80833DC0803B39F0E0F4803A09F402
:104C000079C0883A09F09ACF84E08093AD0B109276
:104C1000D00A1092CF0AE091CD0AF091CE0A1995F0
:104C20008091CF0A81110FC081E08093CF0A10924A
:104C3000AD0A09C0803C09F4A6CF883C09F4A3CF93
:104C4000883B09F07BCFE091D00A81E08E0F809302
:104C5000D00AF0E0E355F54F80818093BB0090913E
:104C6000D00A8091CF0A29C08091880B8093BB0025
:104C700085EC8093BC0062CF9091AA0B8091A90B28
:104C8000981758F5E091AA0B81E08E0F8093AA0B3C
:104C9000F0E0E757F44F8081E9CFE091AA0B81E083
:104CA0008E0F8093AA0B8091BB00F0E0E757F44F82
:104CB00080839091AA0B8091A90B9817C8F285E880
:104CC000D8CFE091AA0B81E08E0F8093AA0B809140
:104CD000BB00F0E0E757F44F80838091AC0B81116B
:104CE0005CCF81E08093870B84EA8093BC001092B4
:104CF000AD0B24CF85EC8093BC001092AD0B80915E
:104D0000F30A803230F4E091F30AF0E0ED52F54F0F
:104D100010826091F30A70E0E091D10AF091D20A1A
:104D200083ED9AE019951092F30A08CF1092AB0B1D
:104D300034CF1F920F920FB60F9211240BB60F9221
:104D40002F933F934F935F936F937F938F939F9393
:104D5000AF93BF93EF93FF9348E251E064E271E0B9
:104D600090E080E00E947C0DFF91EF91BF91AF91A8
:104D70009F918F917F916F915F914F913F912F9173
:104D80000F900BBE0F900FBE0F901F9018951F92A3
:104D90000F920FB60F9211240BB60F922F933F93E1
:104DA0004F935F936F937F938F939F93AF93BF9333
:104DB000EF93FF9348EA50E064EA70E083E090E00C
:104DC0000E947C0DFF91EF91BF91AF919F918F91C8
:104DD0007F916F915F914F913F912F910F900BBEFB
:104DE0000F900FBE0F901F9018951F920F920FB645
:104DF0000F9211240BB60F922F933F934F935F9313
:104E00006F937F938F939F93AF93BF93EF93FF9392
:104E100048E950E064E970E082E090E00E947C0D97
:104E2000FF91EF91BF91AF919F918F917F916F9182
:104E30005F914F913F912F910F900BBE0F900FBE3E
:104E40000F901F9018951F920F920FB60F9211247A
:104E50000BB60F922F933F934F935F936F937F9374
:104E60008F939F93AF93BF93EF93FF9348E850E0E6
:104E700064E870E081E090E00E947C0DFF91EF918A
:104E8000BF91AF919F918F917F916F915F914F9162
:104E90003F912F910F900BBE0F900FBE0F901F9060
:104EA00018951092C7111092C61188EE93E0A0E0F9
:104EB000B0E08093C8119093C911A093CA11B09328
:104EC000CB112EEA32E03093C5112093C41125ECAA
:104ED00030E03093D1112093D01124EC30E03093A6
:104EE000D3112093D21120EC30E03093D5112093D0
:104EF000D41121EC30E03093D7112093D61122EC5D
:104F000030E03093D9112093D81126EC30E0309363
:104F1000DB112093DA111092DD111092DE11109244
:104F2000DF111092E0111092B2111092B111809322
:104F3000B3119093B411A093B511B093B61180EC56
:104F400092E09093B0118093AF111092BF118FEF48
:104F50008093BB118093BC118093BD118093BE11CF
:104F60001092C3111092C21110925813109257133D
:104F700084EC91E190935313809352131092891211
:104F80008CE2809355138BE3809354138FE28093CC
:104F9000561380E6809384128FE5809385121092D9
:104FA000831210924E1310924D13109250131092C0
:104FB0004F1381E080934B13E9E5F3E185E993E139
:104FC000119211928E179F07D9F7109288120895A7
:104FD000789484B5826084BD84B5816084BD85B5D4
:104FE000826085BD85B5816085BD80916E008160E0
:104FF00080936E0010928100809181008260809386
:105000008100809181008160809381008091800087
:105010008160809380008091B10084608093B100B2
:105020008091B00081608093B00080919100826097
:105030008093910080919100816080939100809194
:1050400090008160809390008091A10082608093A5
:10505000A1008091A10081608093A1008091A000B7
:1050600081608093A0008091210182608093210162
:1050700080912101816080932101809120018160D4
:105080008093200180917A00846080937A008091DF
:105090007A00826080937A0080917A0081608093A8
:1050A0007A0080917A00806880937A001092C10023
:1050B000E091D411F091D51182E08083E091D0117C
:1050C000F091D1111082E091D211F091D31180E1D1
:1050D00080831092DC11E091D811F091D91186E013
:1050E0008083E091D611F091D71180818061808317
:1050F000E091D611F091D711808188608083E09192
:10510000D611F091D711808180688083E091D6110B
:10511000F091D71180818F7D808380E090E1909322
:10512000C3118093C21186E698E19093581380933F
:10513000571389E994E190935A138093591385EB9F
:1051400094E190935C1380935B1383EB94E19093D1
:105150008E1380938D1389E195E190935E13809374
:105160005D1389E793E29093601380935F1386E267
:1051700095E190938413809383138AE395E1909350
:1051800086138093851384E695E190936213809350
:1051900061138FE89AE190936C1380936B138EEBFD
:1051A00099E1909372138093711381E09AE1909347
:1051B000701380936F1385E798E190937413809335
:1051C000731383E299E1909376138093751385E7C7
:1051D00093E290937A13809379138CE39BE19093FD
:1051E000801380937F138CEA94E2909382138093D0
:1051F000811380EA93E1909388138093871384E668
:1052000096E190938C1380938B138DEC93E29093A3
:10521000901380938F1381E08093891280E00E9425
:1052200019240E942B120091C2111091C311011573
:105230001105C9F090E080E00E94AD16833299F428
:105240000033110580F06BE0E62E62E0F62ED0E030
:10525000C0E02196CE010E94AD16D7018D937D014D
:10526000CF32D105B1F71092F50A1092F40A8BE310
:1052700090E0EC0121960E94AD16482F2091F40A8F
:105280003091F50AC90101969093F50A8093F40ACA
:105290000C171D0708F0F6C06FEF74E085E00E9460
:1052A00029180E94E7056093620B7093630B80934B
:1052B000640B9093650B0E94E7056093660B7093F7
:1052C000670B8093680B9093690B0E94E7056E5FF4
:1052D0007F4F8F4F9F4F60936A0B70936B0B809340
:1052E0006C0B90936D0B0E94E7056C5F7F4F8F4FA7
:1052F0009F4F60936E0B70936F0B8093700B909326
:10530000710B0E94E7056C5F7F4F8F4F9F4F60933B
:10531000720B7093730B8093740B9093750B0E94B8
:10532000E7056A5F7F4F8F4F9F4F6093760B7093B7
:10533000770B8093780B9093790B0E94E705685F59
:105340007F4F8F4F9F4F60937A0B70937B0B8093AF
:105350007C0B90937D0BAA24A394BB24B3948091DF
:1053600088128111D1C08091521390915313DC01A6
:10537000ED91FC910084F185E02D1995892B09F4BC
:10538000C3C08091521390915313DC01ED91FC91B5
:105390000084F185E02D199550E6E52EF12C80363C
:1053A000910564F48091521390915313DC01ED91B7
:1053B000FC910084F185E02D19957C01C091521378
:1053C000D09153134AEEC42E42E1D42E460110E090
:1053D00000E0E016F10609F061C0D0E0C0E0EC1694
:1053E000FD0609F4BCCFF60191916F0110924A13AA
:1053F000309156132091871290938712931304C013
:10540000921302C01092871280918312E82FF0E06D
:1054100040915413EF57FD4E941363C0321709F4B3
:1054200060C01186882321F0B0924A13109287122F
:105430001092831210924E1310924D13109250132B
:1054400010924F13B0924B1380914A13813009F0A0
:1054500059C00E948514809382128E3108F04BC08F
:1054600020914C13222309F446C0FC01FF27EE0FC4
:10547000FF1FE75AFC4E0190F081E02D3097D9F1E3
:10548000199540C0CE014111F4CE3093F50A209316
:10549000F40A0E94E11D0E94B61903CF0E94E7059D
:1054A000688779878A879B87E881F9810284F385F9
:1054B000E02DCE01199597FF1AC10E94E705488497
:1054C00059846A847B8464197509860997094C801C
:1054D0005D806E807F80641575058605970520F3D5
:1054E0007CCF91878F5F809383129091851289176B
:1054F00008F09ECFA9CFE0915713F0915813309741
:1055000009F0BECF21966BCFC090470BD090480BCF
:10551000E090490BF0904A0B80914B0B8111EDC04C
:105520000E94E7056C197D098E099F09613A7B4B42
:105530008D409105D8F0A0924B0BC0E08091460BB6
:10554000C81788F4EC2FF0E0EE0FFF1FEA50F54F7C
:105550000190F081E02D118270E060E080810E9476
:10556000CE04CF5FEBCF81E00E94AA1280914C0B5A
:10557000882309F4B9C04AE062E67BE088E791E15C
:105580000E94360E41E066E67BE08AE89FE00E94DA
:10559000360EF12C8091610BF81608F082C0EF2DC9
:1055A000F0E0EE0FFF1FE35BF44F00811181D801A3
:1055B0001296CD91DC918CA19DA1AEA1BFA1892BAA
:1055C0008A2B8B2BC1F10E94C2052B013C0188A5BF
:1055D00099A5AAA5BBA5B301A201481B590B6A0B4B
:1055E0007B0B8CA19DA1AEA1BFA1481759076A07EB
:1055F0007B0708F18C859D85AE85BF852A81222396
:1056000009F44BC00196A11DB11D8C879D87AE8703
:10561000BF874C855D856E857F85E881F981068031
:10562000F781E02DCE01199548A659A66AA67BA65A
:10563000CE010E942A0CF80184810E943B04D8010B
:1056400015969C911597891721F115968C931597AE
:1056500081111FC011968C9111978823D1F0129659
:10566000ED91FC9113971486158616861786108A7D
:10567000118A128A138A14AA15AA16AA17AA14A2A2
:1056800015A216A217A2148A158A168A178A1196CD
:105690001C92F3947FCF80E067CF0197A109B109F5
:1056A000B4CF45E06AE67BE088E99EE00E94360ED2
:1056B00042E362E77BE08CEE91E10E94360E4AE025
:1056C0006EE67BE088ED91E10E94360E4AE066E7E7
:1056D0007BE08BE893E10E94360E4AE06AE77BE0CC
:1056E0008CE391E10E94360E0E94020738CEF4014D
:1056F00081934F010F5F1F4F6CCE0E94E7056C191D
:105700007D098E099F09603A7B4B8D40910508F019
:105710002DCF10924B0BC0E08091460BC81708F0BC
:10572000BACFEC2FF0E0EE0FFF1FEA50F54F0190DB
:10573000F081E02D618170E080810E94CE04CF5F16
:10574000EBCF8F929F92AF92BF92CF92DF92EF9268
:10575000FF92CF93DF93EC01688179818A819B81ED
:10576000611571058105910521F464E279ED8BE500
:1057700097E02DE133EF41E050E00E940C2E49010B
:105780005A019B01AC01A7EAB1E40E942B2E6B01E8
:105790007C01ACEEB4EFA50194010E94392EC60E37
:1057A000D71EE81EF91EF7FE06C081E0C81AD10810
:1057B000E10880E8F80AC882D982EA82FB82C70140
:1057C000B6019F77DF91CF91FF90EF90DF90CF9060
:1057D000BF90AF909F908F9008958F929F92AF92BD
:1057E000BF92CF92DF92EF92FF9260913B02709155
:1057F0003C0280913D0290913E0261157105810548
:10580000910521F464E279ED8BE597E02DE133EF2A
:1058100041E050E00E940C2E49015A019B01AC016D
:10582000A7EAB1E40E942B2E6B017C01ACEEB4EF31
:10583000A50194010E94392EC60ED71EE81EF91E3E
:10584000F7FE06C081E0C81AD108E10880E8F80A2E
:10585000C0923B02D0923C02E0923D02F0923E02A6
:10586000C701B6019F77FF90EF90DF90CF90BF9078
:10587000AF909F908F90089560933B0270933C028D
:1058800080933D0290933E020895FC01882799275A
:10589000E89421912032E9F3293010F02E30C8F33A
:1058A0002B3241F02D3239F4689404C00E94CA2C86
:1058B000820F911D219120532A30C0F31EF4909540
:1058C00081959F4F08951F93FC0199278827BC015C
:1058D000E89411911032E9F3193010F01E30C8F33A
:1058E0001B3251F01D3249F4689406C00E94B52C59
:1058F000610F711D811D911D119110531A30B0F36C
:105900003EF490958095709561957F4F8F4F9F4F96
:105910001F91089545E953E10C948E2CFA01A19151
:10592000B081009719F41097E1F0CD01DC01CD01B1
:105930000D90002011F4C00113C0FB01219122231E
:1059400019F02015D9F7F3CFFB012191201519F497
:105950001E92119606C02223C1F70D900020A1F7D8
:10596000D001FA01A193B0830895592F482F372F02
:10597000262F660F771F881F991F660F771F881FB6
:10598000991F620F731F841F951F660F771F881F53
:10599000991F08957AE0979F902D879F802D910DF4
:1059A000112408950E94142D08F481E00895E894CC
:1059B00009C097FB3EF490958095709561957F4F57
:1059C0008F4F9F4F9923A9F0F92F96E9BB27939505
:1059D000F695879577956795B795F111F8CFFAF415
:1059E000BB0F11F460FF1BC06F5F7F4F8F4F9F4F46
:1059F00016C0882311F096E911C0772321F09EE8A4
:105A0000872F762F05C0662371F096E8862F70E009
:105A100060E02AF09A95660F771F881FDAF7880FE3
:105A20009695879597F90895990F0008550FAA0B39
:105A3000E0E8FEEF16161706E807F907C0F01216A1
:105A40001306E407F50798F0621B730B840B950BA4
:105A500039F40A2661F0232B242B252B21F40895F9
:105A60000A2609F4A140A6958FEF811D811D089596
:105A70000E944B2D0C94BC2D0E94AE2D38F00E943C
:105A8000B52D20F0952311F00C94A52D0C94AB2D81
:105A900011240C94F02D0E94CD2D70F3959FC1F32D
:105AA000950F50E0551F629FF001729FBB27F00DCC
:105AB000B11D639FAA27F00DB11DAA1F649F662721
:105AC000B00DA11D661F829F2227B00DA11D621F70
:105AD000739FB00DA11D621F839FA00D611D221F2A
