:100000000C9424010C944C010C944C010C944C0164
:100010000C944C010C944C010C944C010C944C012C
:100020000C944C010C944C010C94860D0C94F80D1E
:100030000C944C010C944C010C944C010C944C010C
:100040000C944C010C9410110C944C010C944C0128
:100050000C944C010C944C010C944C010C94D12345
:100060000C944C010C944C010C944C010C944C01DC
:100070000C944C010C944C010C944C010C944C01CC
:100080000C944C010C944C010C944C010C944C01BC
:100090000C948D160C944C010C944C010C944C0156
:1000A0000C944C010C944C010C944C01E911EF118F
:1000B000F511FB11011207120D1248134F135613BD
:1000C0005D1364137B136B137B1372139C1A781CE0
:1000D000E31A191B911B231CCB1C991CD61B6D22E8
:1000E00070225F226322692291229122912274223E
:1000F00078227C228222862291228C22F522FA22E8
:10010000FF22092313235D235D235D231D23272362
:1001100031233B2348235D235023070605040100B8
:10012000080A0B0C0D094F4B004F4B004F4B006E54
:100130002F6100080B000202020100090400000107
:10014000020200000524001001052401010104241D
:10015000020605240600010705810310004009047A
:100160000100020A00000007050202400000070526
:1001700083024000000403090412010002EF02019F
:10018000404F1B0692000101020301537061726B24
:1001900046756E00537061726B46756E2050726FBB
:1001A000204D6963726F0000000000250028002BBD
:1001B000002E003100000000002300260029002C42
:1001C000002F0004040404040304050202020204D4
:1001D00003020202020606060606060404020202E2
:1001E0000404040802011040804010204080408038
:1001F00008020401804020100201108010204040BD
:10020000200000000200090F0000030401000C00A0
:1002100000000000000000000000000000000020BE
:1002200000526F636B732100200020004D6F6269E4
:10023000666C696768740000000000240027002ACB
:10024000002D00300000FA2811241FBECFEFDAE0A5
:10025000DEBFCDBF12E0A0E0B1E0ECEDF5E602C0FC
:1002600005900D92AC39B107D9F728E0ACE9B2E0BE
:1002700001C01D92A338B207E1F711E0C4E2D1E05A
:1002800004C02197FE010E94282EC332D107C9F76E
:100290000E941B240C94EC320C940000E8E6F4E07D
:1002A0009081981301C01082319694E0EE37F907DF
:1002B000B9F708950F931F93CF93DF93CEE7D6E05E
:1002C00000E010E080917E0490E00817190739F0F3
:1002D000CE010E941C160F5F1F4F2C96F3CFDF91AB
:1002E000CF911F910F910895FF920F931F93CF937A
:1002F000DF9381E00E944E0110927E0488E00E940C
:100300004E011092960483E00E944E011092670401
:1003100084E00E944E0100E010E0C0916604D0E04D
:10032000C017D10789F0CC0FDD1FCC0FDD1FC658D9
:10033000D94F8A81882329F0888199810E94C62E0D
:100340001A820F5F1F4FE9CF1092660480916504F7
:1003500020E030E0482F50E06BE1869FC00111247F
:1003600088529B4FDC011996EC012A9642175307DD
:1003700099F06C91662369F0E881F0E0BF01660FA7
:10038000771FE60FF71FE955FB4F60816F7B608396
:100390001C922F5F3F4FEACF86E00E944E011092E1
:1003A0006504C0E0D0E08091950490E08C179D0733
:1003B00059F0880F991FFC01EF56FB4F8081918106
:1003C0000E94C62E2196EFCF89E00E944E01109226
:1003D000950400E010E086E0F82E8091640490E03F
:1003E0008017910791F0F89EE001F99ED00D11243D
:1003F000C453DB4F8A81882329F0888199810E9428
:10040000C62E1A820F5F1F4FE8CF87E00E944E0171
:10041000109264041092A1021092A002109297040C
:10042000DF91CF911F910F91FF9008950E94C523F6
:1004300060938D0470938E0480938F049093900446
:100440008AE090E00E94762182EA92E00E94CD212B
:100450000C948B210E94C52360938D0470938E04AD
:1004600080938F04909390048AE090E00E9476211C
:1004700080E091E00E94CD218FE191E00E94CD21AA
:1004800084E191E00E94CD2188E991E00E94CD2194
:100490000C948B210E94A8202091950430E08217B3
:1004A000930734F5880F991FFC01EF56FB4F01901D
:1004B000F081E02D158616861786108A118A128A19
:1004C000138A148A15AA16AA17AA10AE15A216A284
:1004D00017A210A6158A168A178A108E0E94C523A5
:1004E00060938D0470938E0480938F049093900496
:1004F00008958F929F92AF92BF92CF92DF92FF9218
:100500000F931F93CF93DF93CDB7DEB765970FB6E9
:10051000F894DEBF0FBECDBF0E94A8205C010E94F0
:10052000BC206C0186E08A9D80018B9D100D1124FA
:10053000D801A453BB4F12968C9112978823A9F12E
:100540001A8219829E012D5F3F4F83E1F9011192BA
:100550008A95E9F7F12C8D014D01F5E08F0E911C84
:100560005D0184E0A80EB11CF40180818F15E9F0D3
:100570006F2DF801808191810E94CF20F50180814B
:10058000482F50E0B6018F9D600D711D1124CE01E2
:1005900001960E941A30BE016F5F7F4FF801808183
:1005A00091810E946110F394DFCF0E94C523609374
:1005B0008D0470938E0480938F04909390046596BD
:1005C0000FB6F894DEBF0FBECDBFDF91CF911F9164
:1005D0000F91FF90DF90CF90BF90AF909F908F9042
:1005E00008954F925F926F927F928F929F92AF92F7
:1005F000BF92CF92DF92EF92FF920F931F93CF9310
:10060000DF930E94A8208C010E94A820BC01809149
:10061000650490E0081719070CF0C4C08BE1809FB7
:10062000E001819FD00D1124C852DB4FCD80DE80C8
:100630000D2C000CEE08FF0889809A80092C000C14
:10064000AA08BB082F813885C901330FAA0BBB0B41
:100650009C01AD012C193D094E095F09CB01770FB3
:10066000AA0BBB0BBC01CD01681979098A099B094A
:100670000E940C2E2B813C812901330F66087708DC
:10068000A3019201281939094A095B090E94582CD3
:10069000C20ED31EE41EF51E0D2C000CEE08FF0842
:1006A0008D859E85AF85B8898C159D05AE05BF05E6
:1006B00009F46EC0CD86DE86EF86F88A89858111C1
:1006C00067C08A858C3008F059C0F88061E08F2DB2
:1006D0000E9492228A85E82FF0E09F01220F331FAB
:1006E000E20FF31FE955FB4F9F2D9F732081207C64
:1006F000F22EF92AF0821B861C866CE00E941C2ECA
:100700009CE0899FB001112440E050E09B01240F40
:10071000351FF901EE0FFF1F2E0F3F1FF901E9559D
:10072000FB4F908196FD16C04F5F5F4F4C305105D7
:1007300069F781110FC01092800082E080938100E0
:100740001092850010928400B19A80916F008260AF
:1007500080936F008BE1809FF001819FF00D112449
:10076000E852FB4FE285F0E0CF01880F991FE80FB8
:10077000F91FE955FB4F8081806480838BE1809F66
:10078000F001819FF00D1124E852FB4F81E0818739
:100790000E94C52360938D0470938E0480938F0410
:1007A00090939004DF91CF911F910F91FF90EF9064
:1007B000DF90CF90BF90AF909F908F907F906F9081
:1007C0005F904F9008950E94A8202091950430E0FA
:1007D000821793079CF4880F991FFC01EF56FB4F7B
:1007E000808191810E9431200E94C52360938D04F5
:1007F00070938E0480938F049093900408950F93C8
:100800001F93CF93DF930E94A820EC010E945320F6
:10081000882361F081E080932C0880932D088091DB
:100820002E0890912F080E94A12A05C010922D0831
:1008300060E070E0CB012091950430E0C217D3074F
:10084000A4F5CC0FDD1FCF56DB4FE881F981118273
:10085000DF01AE5ABF4F0D911D912D913C91139721
:100860006017710782079307B1F06D937D938D93A5
:100870009C93139701891289238934896017710722
:100880008207930741F0618B728B838B948BCF012E
:1008900002960E94C8140E94C52360938D04709331
:1008A0008E0480938F0490939004DF91CF911F91D9
:1008B0000F9108950F931F93CF93DF930E94A82069
:1008C000EC010E94A8208C010E94A820282FFE0184
:1008D000EE0FFF1FEE0FFF1FE658F94F82818823AE
:1008E00091F08381081778F4B8017727808191818E
:1008F000FC01EA5AFF4F40815181641775071CF4CF
:100900004AE00E94B8180E94C52360938D0470933A
:100910008E0480938F0490939004DF91CF911F9168
:100920000F9108950C945A04CF930E94A820C82FC9
:100930000E94A820BC018C2F0E94CE220E94C523B9
:1009400060938D0470938E0480938F049093900431
:10095000CF9108950E94C52360938D0470938E04F7
:1009600080938F04909390046FE271E085E090E0B3
:100970000C94A92181E0809397046CE271E081E1FD
:1009800090E00C94A92140E051E062EA72E08BE330
:1009900090E00E940A2269E271E08FE090E00C94FE
:1009A000A9210E94740166E271E085E090E00C9458
:1009B000A9210F931F93CF93C82F8A0186E090E05F
:1009C0000E947621C8010E94CD218091A207882330
:1009D00099F06091360880913308909134080E9414
:1009E00036104C2F50E060E070E02AE08091330830
:1009F000909134080E94FB20CF911F910F910C948D
:100A00008B210F931F93CF93C82F8A0187E090E02B
:100A10000E947621C8010E94CD218091A2078823DF
:100A200099F06091360880913308909134080E94C3
:100A300036104C2F50E060E070E02AE080913308DF
:100A4000909134080E94FB20CF911F910F910C943C
:100A50008B21CF92DF92EF92FF92CF93DF93F82E0C
:100A60004BE050E064E171E080E390E00E94751992
:100A7000F11009C080911401833529F4809115018A
:100A80008E3409F472C0EAE1F1E0E49180917B00D8
:100A9000E3FB992790F9C92F90E0D92F35E0CC0FCF
:100AA000DD1F3A95E1F78F7DC82BC0937B00E7707F
:100AB000E064E0937C0080917A00806480937A0007
:100AC00080917A0086FDFCCF60917800809179005A
:100AD00070E0782B072E000C880B990B61157105BF
:100AE0008105910511F00E947A2A0E942C2ACC24BB
:100AF000CA942FE0D22EE12CF12CA70196010E947E
:100B0000582C7F936F938BE792E09F938F9384E1B0
:100B100091E09F938F930E9439300E942C2AA70165
:100B200096010E94582C7F936F9384E892E09F93E4
:100B30008F938BE191E09F938F930E9439308DB713
:100B40009EB70C960FB6F8949EBF0FBE8DBF4BE0BC
:100B500050E064E171E080E390E0DF91CF91FF909D
:100B6000EF90DF90CF900C940A22DF91CF91FF900D
:100B7000EF90DF90CF90089581E00E9429058AE0F0
:100B800090E00E94762184E191E00E94CD210C94B6
:100B90008B21CF93DF93CDB7DEB728970FB6F894AC
:100BA000DEBF0FBECDBF0E94BC20BC01CE010196AE
:100BB0000E94C21F40E350E06FE171E0CE01019658
:100BC0000E94E82183E290E098878F8341E050E023
:100BD000BE01695F7F4F80E090E00E940A224FE2F1
:100BE00050E06FE171E081E090E00E940A2285E030
:100BF00090E00E9476218FE191E00E94CD210E9439
:100C00008B2189819A810E94C62E28960FB6F8946E
:100C1000DEBF0FBECDBFDF91CF9108956F927F925F
:100C20008F929F92AF92BF92CF92DF92EF92FF92FC
:100C30000F931F93CF93DF9300D000D000D0CDB798
:100C4000DEB70E94A8208C010E94A8207C010E948F
:100C5000BC206C010E94A8204C010E94A8205C01CD
:100C6000000F111F000F111F0658194FD8011296BF
:100C70008C91882309F459C0B601CE0101960E94D7
:100C8000C21FFF24370183E0660C771C8A95E1F7C9
:100C9000D12C48E0BB249924CC24CA94C40E6C2DDA
:100CA00070E0C5010C2C02C0959587950A94E2F777
:100CB00080FF34C08D2D90E02D813E8182179307F7
:100CC00050F429813A812115310529F0F901E80F05
:100CD000F91FE08101C0E0E0D8018D919C91DC0119
:100CE000AA5ABF4F2D913C91E216F306B4F4F0E0FE
:100CF000E056FE4F2081F4010C2C02C0F595E795DB
:100D00000A94E2F7E0FD2068680F791FFB01E60D09
:100D1000F71D208BB7010E94B818D3944C2DC11039
:100D2000BBCF89819A810E94C62E0E94C523609301
:100D30008D0470938E0480938F0490939004269674
:100D40000FB6F894DEBF0FBECDBFDF91CF911F91DC
:100D50000F91FF90EF90DF90CF90BF90AF909F905A
:100D60008F907F906F900895CF93DF9300D000D045
:100D700000D0CDB7DEB762EA72E0CE0101960E94E4
:100D8000C21FCE0101960E94461A89819A810E9453
:100D9000C62E0E94BA0426960FB6F894DEBF0FBE88
:100DA000CDBFDF91CF9108950F931F93CF93DF9322
:100DB00000D000D000D0CDB7DEB70E94C52360932D
:100DC0008D0470938E0480938F04909390040E94FE
:100DD000BC20BC01CE0101960E94C21F6091A002FE
:100DE0007091A1024D815E818B01040F151F40E0BF
:100DF00051E0401B510B423051055CF16E557D4F67
:100E0000CE0101960E94E8211093A1020093A00256
:100E10008091A207811135C085E090E00E94762183
:100E20008091A207882391F0609136088091330861
:100E3000909134080E943610A801110F660B770BB1
:100E400080913308909134080E9444210E948B21A4
:100E500018C08091A207811114C085E090E00E9423
:100E600076218091A207882389F3609136088091CA
:100E70003308909134080E9436104FEF5FEFBA01AB
:100E8000DFCF89819A810E94C62E26960FB6F894EC
:100E9000DEBF0FBECDBFDF91CF911F910F9108959F
:100EA000CF93DF9300D000D000D0CDB7DEB7209134
:100EB0009E0230919F0280919C0290919D02281782
:100EC000390721F410929D0210929C0280919C029D
:100ED00090919D0290939F0280939E021092A20295
:100EE00080E00E942905E8E6F4E0119244E0EE3744
:100EF000F407D9F70E94C52360938D0470938E0484
:100F000080938F04909390040E94740140E051E01C
:100F100062EA72E08BE390E00E947519E2EAF2E087
:100F200080E090E0382F292F811541E0940749F0A7
:100F3000419101964111F6CF3093A0022093A10276
:100F400004C09093A1028093A00262EA72E0CE01F5
:100F500001960E94C21FCE0101960E94461A898105
:100F60009A810E94C62E0E94BA04198241E050E084
:100F7000BE016F5F7F4F80E090E00E94751989810C
:100F8000833241F44FE250E06FE171E081E090E0A4
:100F90000E94751926960FB6F894DEBF0FBECDBF1E
:100FA000DF91CF910895DF92EF92FF920F931F93FD
:100FB000CF93DF93D82ECAE7D6E0E12CF12C8091B5
:100FC000660490E0E816F90691F010E08B81811735
:100FD00049F0612F70E04D2D888199810E9462193E
:100FE0001F5FF4CF8FEFE81AF80A2496E8CFCEE31C
:100FF000D7E000E010E08091670490E0081719073F
:1010000079F0DD2021F0198260E070E002C0698192
:1010100070E088810E94CE220F5F1F4F2296EBCF97
:10102000DF91CF911F910F91FF90EF90DF90089586
:101030005F926F927F928F929F92AF92BF92CF9268
:10104000DF92EF92FF920F931F93CF93DF93CDB771
:10105000DEB7CB55D1090FB6F894DEBF0FBECDBFBA
:101060007090960494E0791609F4E6C0E82FF0E059
:10107000DF01A859BB4F7D019C919111DDC0E62F86
:10108000F0E0DF01A859BB4F6D019C919111D4C0D4
:10109000642E562E682FA72CB12CFE01349687E4BF
:1010A000DF011D928A95E9F788E290E06C969FAF88
:1010B0008EAF6C971B828BE58A9D40018B9D900CB7
:1010C00011248401025F1A4F3397D80101900D92C9
:1010D0008A95E1F7F801E45BFF4F108211821282DA
:1010E0001382329731832083F80160835182E85A5A
:1010F000FF4F4083C4018F5E9A4F0E943022652DBE
:10110000C401865E9A4F0E943022D80155961C92E7
:10111000559757961C921E92569759961C921E925E
:101120005897F801128E138E148E158E88EE93E068
:10113000A0E0B0E0868F978FA0A3B1A3D401A05DFB
:10114000BA4F85E0869DF0011124EB59FE4F0190C6
:101150000D928A95E1F70E94C523F801E05CFF4FEC
:1011600060837183828393832BE5729EF001112447
:10117000EB5CFA4F20E0119211921192119260876C
:101180007187828793872F5F2330A9F78BE58A9D2C
:10119000F0018B9DF00D1124E25FFA4F17AEDF01D5
:1011A000AC5BBF4F26EA30E011963C932E9348E1AA
:1011B0005CEF6FEF7FEF428F538F648F758F48EE38
:1011C00053E060E070E0468F578F60A371A31896DC
:1011D0004D915C91BA0106A002C0759567950A947D
:1011E000E2F72689378923703327262B372B378B55
:1011F000268B518F408F91E0928320919604829F9D
:10120000C0011124825F9A4FFC01E05BFF4F49ED62
:1012100054E0518340833296518340833296518308
:10122000408332965183408388E0F7018083D60162
:101230008C932F5F20939604C55ADF4F0FB6F89416
:10124000DEBF0FBECDBFDF91CF911F910F91FF90F9
:10125000EF90DF90CF90BF90AF909F908F907F9056
:101260006F905F9008952F923F924F925F926F928E
:101270007F928F929F92AF92BF92CF92DF92EF9226
:10128000FF920F931F93CF93DF93CDB7DEB72A97CB
:101290000FB6F894DEBF0FBECDBFE0919504E230EB
:1012A00009F4EDC1FC01FF27DF01A859BB4FBA8348
:1012B000A983EC91E111E3C1FB01FF27DF01A859EC
:1012C000BB4FBC83AB83EC91E111D9C1FA01FF277D
:1012D000DF01A859BB4FBE83AD83EC91E111CFC1B3
:1012E000F901FF27DF01A859BB4FB887AF83EC9105
:1012F000E111C5C1101611063CF4F801FF27E859A9
:10130000FB4FE081E111BBC149017A015B016C0136
:1013100086E590E00E942E2E9A8789873C01F2E0B4
:101320006F0E711C82E891E0A985BA8513969C9393
:101330008E93129784E014968C931497FD01158672
:1013400016861786108A51961D921D921D921C9228
:101350005497158A168A178A108E212C312C80E812
:10136000482E8FE3582E59962D923D924D925C92C5
:101370005C97158E168E178E10A291962D923D9227
:101380004D925C92949715A216A217A210A681E026
:1013900090E096A785A78FEF80AB99961D921D923E
:1013A0001D921C929C9715968C9215971696AC924E
:1013B00016971796CC9217971896EC92189715AA2D
:1013C00016AA17AA10AED9961D921D921D921C92B4
:1013D000DC97FD9610821182128213825D01B1E4C6
:1013E000AB0EB11CF5012082318242825382E98525
:1013F000FA85EB5BFF4F1082A985BA8519961C927E
:1014000019971A961C921A971B961C921B971C965A
:101410001C92C3010E94520DE985FA85C58CD68CB9
:10142000E78CF0A0A2019101C701B6010E940C2B2C
:10143000882339F1E985FA8565A976A987A990AD50
:101440000E94132BA70196010E94722B0E94D12D9E
:10145000A985BA85D5966D937D938D939C93D897E6
:1014600086E896E6A9E6B9E4E985FA8581AF92AF08
:10147000A3AFB4AF258E368E478E50A2C3010E9413
:10148000C81449E852E0602FE984FA84B6E4EB0E10
:10149000F11CC7010E947516E985FA8511828091B9
:1014A000F303E82FF0E0EE0FFF1FE151FC4F298519
:1014B0003A85318320838F5F8093F3038EE793E136
:1014C000D70119969C938E9318971B969C938E9395
:1014D0001A97E0919504F0E0EE0FFF1FEF56FB4FD7
:1014E0003183208320E030E048EC53E4E985FA853D
:1014F000618D728D838D948D0E940C2B882309F44D
:1015000045C080E090E0A8ECB3E4E985FA85818FDE
:10151000928FA38FB48F80E090E4ACE1B5E4F50145
:1015200080839183A283B383E985FA8585A996A9EF
:10153000A7A9B0AD181619061A061B063CF5658951
:1015400076898789908D9B01AC010E94722B6B017B
:101550007C01A985BA855D966D917D918D919C9157
:1015600090979B01AC010E94F32C9B01AC01C70139
:10157000B6010E945F2D0E94D12DE985FA8565ABE9
:1015800076AB87AB90AFC3010E94C814E09195047D
:10159000F0E0EE0FFF1FEF56FB4F208131813A87BD
:1015A0002987D9015D96CD90DD90ED90FC909097C4
:1015B00020E030E048E454E4C701B6010E940C2B5F
:1015C0008823C1F1E985FA8565A976A987A990AD37
:1015D0000E94132B4B015C0120E030E048E454E40E
:1015E000C701B6010E945F2D9B01AC01C501B4018A
:1015F0000E94722B0E94D12DA985BA85D5966D9334
:101600007D938D939C93D89781E098E0A4E0B7E414
:10161000E985FA8581AF92AFA3AFB4AF80E090E0E7
:10162000A8E4B4E4858F968FA78FB0A3CF0102966C
:101630000E94C81489E0A981BA818C93EB81FC8156
:101640008083AD81BE818C93EF81F88580831016F5
:10165000110684F41127F801E859FB4F8083E091CB
:101660009504F0E0EE0FFF1FEF56FB4F8081918154
:101670000E943120809195048F5F809395042A9673
:101680000FB6F894DEBF0FBECDBFDF91CF911F9193
:101690000F91FF90EF90DF90CF90BF90AF909F9011
:1016A0008F907F906F905F904F903F902F90089514
:1016B0004091EB035091EC032091E9033091EA0350
:1016C00042175307B4F49091E8009570E1F39091BC
:1016D000E80092FD19C08093F1008091EB03909196
:1016E000EC0301968F739927892B19F48EEF809361
:1016F000E8008091EB039091EC0301969093EC034A
:101700008093EB0381E0089580E00895DF92EF92EB
:10171000FF920F931F93CF93DF93D82EF92EE42ED1
:10172000062F10E0C8010196880F0E94580B83E035
:101730000E94580BCD2DDF2D0C0F1D1FC017D10798
:1017400089F0E7FE03C0FE01849101C088810E94F8
:10175000580BF82E80E00E94580B8F2121968111A2
:10176000EDCF01C081E0DF91CF911F910F91FF90EC
:10177000EF90DF900895DF92EF92FF920F931F9307
:10178000CF93DF93D82E8A017B01E40EF51EEB0187
:10179000CE15DF0571F0D7FE03C0FE01849101C0B4
:1017A00088810E94580B21968111F2CF8FEF9FEF15
:1017B00001C0C801DF91CF911F910F91FF90EF9071
:1017C000DF900895615030F02091F100FC012083FA
:1017D0000196F8CF289884E6809357040895CF9215
:1017E000DF92EF92FF920F931F93CF93DF936C01E1
:1017F0007A018B01C0E0D0E0CE15DF0581F0D80181
:101800006D918D01D601ED91FC910190F081E02D5B
:10181000C6010995892B11F02196EECF7E01C701F3
:10182000DF91CF911F910F91FF90EF90DF90CF90BC
:101830000895CF93DF931F92CDB7DEB76983DC01A4
:10184000ED91FC910280F381E02D41E050E0BE017A
:101850006F5F7F4F09950F90DF91CF91089583E0DF
:101860008093E9008091F200882319F08AE3809345
:10187000E8000895FC018485958597FD0BC09FB70E
:10188000F89482E08093E9008091F2009FBF90E09D
:10189000019608959FB7F89482E08093E9008091C3
:1018A000F2009FBF90E008950F931F93CF93DF93B3
:1018B0001F92CDB7DEB782E0898342E450E063E354
:1018C00071E080E80E94BB0B0E94DA19DC011296DD
:1018D0000D911C9113970115110589F0D801ED9117
:1018E000FC910280F381E02DBE016F5F7F4FC80144
:1018F000099597FD04C0F80100851185ECCF898119
:101900000F90DF91CF911F910F9108958F929F9229
:10191000AF92BF92CF92DF92EF92FF920F931F93FD
:10192000CF93DF936C017B018A0180915A01882358
:1019300009F45CC080915804882309F457C0809151
:101940008B0480FF05C08091E00082608093E000FE
:10195000E801B12C8AEFA82E93E0892E2AE3922E7B
:10196000209711F4BB20D9F10E94C91981110AC036
:10197000AA94AA20D9F161E070E080E090E00E9492
:101980008B23EECF282F30E0C217D3070CF48C2F17
:101990009FB7F8948092E9002091E80025FF1DC0D0
:1019A000282F30E0C21BD30BF701815020F041916A
:1019B0004093F100FACFE20EF31EBB2019F0909293
:1019C000E8000AC08091E80085FD07C09092E80019
:1019D000BB24B394209709F0B12C9FBFC1CF5D9871
:1019E00084E68093EE031016110644F081E090E047
:1019F000F6019383828380E090E001C0C801DF910B
:101A0000CF911F910F91FF90EF90DF90CF90BF90FB
:101A1000AF909F908F9008950E94C91990E008950B
:101A20000F931F93CF93DF931F92CDB7DEB78C0137
:101A3000FC018485958597FF0EC0CE0101960E941A
:101A40009B19019719F4898190E002C08FEF9FEFF5
:101A5000F80195878487F801848595850F90DF913B
:101A6000CF911F910F910895CF93DF931F92CDB720
:101A7000DEB7FC018485958597FD05C02FEF3FEF0C
:101A8000358724870BC0CE0101960E949B190197D0
:101A900019F4898190E002C08FEF9FEF0F90DF91E2
:101AA000CF910895CF93DF93FC012281222359F136
:101AB000EC0161E083810E94922261E08C810E94AE
:101AC00092228A81843011F0883039F461E08D816E
:101AD0000E94922261E08E8106C0833011F0863030
:101AE00021F461E08D810E9492228EA58F3F59F0F2
:101AF00061E00E9492226DA581E068278EA5DF91AA
:101B0000CF910C94171ADF91CF9108951F920F92E5
:101B10000FB60F9211248F939F938091E1009091C3
:101B2000E100937F9093E10083FF0FC01092E900E2
:101B300091E09093EB001092EC0092E39093ED0013
:101B40001092580498E09093F00082FF20C093E038
:101B50009093E9009091F200992319F09AE3909301
:101B6000E8009091EE03992339F09091EE039150A3
:101B70009093EE03992389F190915704992339F0BA
:101B800090915704915090935704992341F184FF09
:101B900010C08091E2008E7E81608093E20080918F
:101BA000E1008F7E8093E10080918B048E7E8061C6
:101BB00011C080FF16C08091E2008E7E806180930C
:101BC000E2008091E1008E7E8093E10080918B04A1
:101BD0008E7E816080938B0404C05D9ACDCF289A5D
:101BE000D6CF9F918F910F900FBE0F901F90189599
:101BF0001F920F920FB60F921124CF92DF92EF92A5
:101C0000FF920F931F932F933F934F935F936F9385
:101C10007F938F939F93AF93BF93EF93FF93CF9354
:101C2000DF93CDB7DEB76C97DEBFCDBF1092E90072
:101C30008091E80083FFFBC168E0CE0145960E94D9
:101C4000E20B82EF8093E8008D8987FF05C09091B9
:101C5000E80090FFFCCF03C09EEF9093E800982F20
:101C6000907609F0C6C09E894F89588D2F89F88CCF
:101C700091110CC0803829F480918C048093F1007C
:101C800002C01092F1001092F10045C1913051F460
:101C9000811141C14130510509F03DC180918C0451
:101CA0008D7F0BC0933061F4811135C141305105F6
:101CB00009F031C180918C04826080938C042BC127
:101CC000953049F48091E80080FFFCCF822F806836
:101CD0008093E30020C1963009F05EC00B8D1C8D0F
:101CE00022E01092E9001092EC031092EB03F21242
:101CF00032C01092EA031092E9030E94540C99E05A
:101D0000BE016F5F7F4FDB01E92F1D92EA95E9F776
:101D10009983FA8291E09E8390EA98879AEF998757
:101D20002091EB033091EC03275F3F4F3C832B83E3
:101D30008D831092E9001092EC031092EB03109344
:101D4000EA030093E90349E050E080E00E94BB0B06
:101D50000E94540CE0C01093EA030093E9030E9430
:101D6000DA19DC0112960D911C91139701151105DA
:101D700009F4BBC0D801ED91FC910480F581E02D00
:101D8000BE016B5E7F4FC8010995009709F0C7C07F
:101D9000F80100851185EACF973009F445C19830E4
:101DA00021F481E08093F100B6C0993009F0B3C00E
:101DB000837009F039C1E1E2F2E081E031E096E3BD
:101DC0002081211109C08EE78093EA001092EA0079
:101DD0008F89809358049FC08093E9003093EB0073
:101DE00021912093EC009093ED008F5F873041F7B5
:101DF000EACF8B8D9C8D1092E9001092EC0310922B
:101E0000EB039093EA038093E903898D811153C01A
:101E10008E899D89913A49F4813209F005C147E0E4
:101E200050E063E571E080E0BBC0913209F0FCC096
:101E3000833269F48F89988DA0E0B0E080934F01E0
:101E400090935001A0935101B093520164C080322D
:101E500069F48091E80082FFFCCF67E083E591E0C0
:101E60000E94E20B8BEF8093E80055C0823209F0AC
:101E700052C08F8980935A01EEEFFFE785919491CC
:101E80008B3F9C4D19F0E0E0F8E002C0EEEFFAE085
:101E90008091530190915401A0915501B091560148
:101EA000803B9440A105B10509F09EC080915A0184
:101EB00080FF79C099C00E94DA19FC010281138168
:101EC0000115110509F4B0C0D801ED91FC91019004
:101ED000F081E02DBE016B5E7F4FC8010995811135
:101EE0001AC0F80100851185EBCFF1E0FF1609F467
:101EF0004EC0F3E0FF1298C08F89882309F44AC0CE
:101F0000823089F440E862E184E991E00E94860B26
:101F1000882309F489C08EEF8093E80088C01816E2
:101F20001906CCF381C0813029F440E868E08BE8E1
:101F300091E0ECCF833009F077C00E94DA19DC0120
:101F40001296ED90FC9013978E010F5F1F4F680162
:101F5000E114F10479F0D701ED91FC910680F7814D
:101F6000E02DB801C7010995080F111DF701E084A4
:101F7000F184EECFD8011C92F60101900020E9F720
:101F80003197BF016C197D0940E0C601BFCF69E7F9
:101F900071E002C065E771E0FB01449150E080E828
:101FA0000E94BB0BB8CFEE3F2AE0F20751F08081D0
:101FB00091818737A7E79A0721F09093FF0A8093D2
:101FC000FE0A87E797E79183808380916000809382
:101FD000ED039BE088E10FB6F894A895809360002C
:101FE0000FBE9093600097CF80819181873797478C
:101FF00009F091CFA895809160008861809360007E
:102000008091ED0380936000EE3FBAE0FB0739F06A
:102010008091FE0A9091FF0A918380837CCF109279
:10202000FF0A1092FE0A77CF81E28093EB006C9654
:102030000FB6F894DEBF0FBECDBFDF91CF91FF91F9
:10204000EF91BF91AF919F918F917F916F915F9130
:102050004F913F912F911F910F91FF90EF90DF9043
:10206000CF900F900FBE0F901F901895DC01ED914F
:10207000FC910190F081E02D0994EF92FF920F9373
:102080001F93CF93DF938C017B01C0E0D0E0F70179
:10209000EC0FFD1F6491662361F0D801ED91FC9176
:1020A0000190F081E02DC8010995892B11F021964E
:1020B000EECFCE01DF91CF911F910F91FF90EF9066
:1020C00008956115710579F0FB0101900020E9F791
:1020D0003197AF01461B570BDC01ED91FC9102805B
:1020E000F381E02D099480E090E00895CF93FC0106
:1020F000C48121E02093C603C093E80310926104D9
:10210000109260048385682B89E994E00E943F1453
:1021100090916004913208F045C080915F04811174
:10212000FCCF82E080935F0481E080935E048FEFB8
:102130008093C5031092C4039093C303A7ECB3E04C
:10214000E3EAF3E080E0981721F02D9121938F5F6F
:10215000FACF1092A2038091A203CC0FC82BC09398
:10216000A20380915D04813061F410925D0480913E
:10217000A2038093BB008091BC0083FDF8CF85EC67
:1021800001C085EE8093BC0080915F048230E1F352
:102190008091C5038F3F31F08091C503803211F0EB
:1021A0008091C50310926104109260041092C603DE
:1021B000CF9108950F931F93CF938C01C62F0E9448
:1021C00076106C2F6460C8010E9476106C2F6B7FB4
:1021D000C8010E94761083EC90E00197F1F7CF914F
:1021E0001F910F9108950F931F93CF93DF938C014D
:1021F000C62FD42F607F642B0E94DA1080E1C89F25
:10220000B00111246D2BC801DF91CF911F910F9167
:102210000C94DA1041E00E94F31081E090E0089500
:102220001F920F920FB60F9211242F933F934F934B
:102230005F936F937F938F939F93AF93BF93EF932E
:10224000FF938091E70387FF05C0109285001092ED
:1022500084001BC02091E703022E000C330B8091F9
:10226000CB0490E02817390784F48091E703082E07
:10227000000C990BFC01EE0FFF1F8E0F9F1FFC013E
:10228000E955FB4F808186FD15C08091E7038F5F84
:102290008093E7032091E703022E000C330B80911B
:1022A000CB0490E028173907C4F48091E7038C3001
:1022B00064F113C08091E703082E000C990BFC0118
:1022C000EE0FFF1F8E0F9F1FFC01E955FB4F808112
:1022D00060E08F730E94171AD8CF8091840090918C
:1022E0008500049680349C4918F480E49CE905C07C
:1022F000809184009091850004969093890080934A
:1023000088008FEF8093E7033BC0209184003091D9
:1023100085008091E703082E000C990BFC01EE0F5D
:10232000FF1F8E0F9F1FFC01E955FB4F818192819A
:10233000820F931F90938900809388008091E70318
:10234000082E000C990BFC01EE0FFF1F8E0F9F1F34
:10235000FC01E955FB4F808186FF12C08091E703A5
:10236000082E000C990BFC01EE0FFF1F8E0F9F1F14
:10237000FC01E955FB4F808161E08F730E94171AC1
:10238000FF91EF91BF91AF919F918F917F916F914D
:102390005F914F913F912F910F900FBE0F901F9023
:1023A0001895CF93DF934770552766277727FA0153
:1023B0003197EC01A881B981E730F10520F4EA5AA0
:1023C000FF4F0C94282E1496ED91FC91159761E027
:1023D00029C01496ED91FC91159765E023C01496E1
:1023E000ED91FC91159764E01DC01496ED91FC9160
:1023F000159766E017C01496ED91FC91159762E071
:1024000011C01496ED91FC9115976AE00BC01496DB
:10241000ED91FC91159768E005C01496ED91FC9143
:10242000159769E0DF91CF910994CF93DF93EC0189
:10243000CB01BA0126E030E040E050E00E94582C89
:10244000623071058105910559F18CF461157105B2
:1024500081059105F1F06130710581059105C1F5A6
:10246000E881F9810480F581E02D65E02DC06430BC
:1024700071058105910511F1D4F065307105810573
:10248000910531F5E881F9810480F581E02D66E060
:102490001BC0E881F9810480F581E02D64E014C05F
:1024A000E881F9810480F581E02D61E00DC0E881CB
:1024B000F9810480F581E02D63E006C0E881F981AF
:1024C0000480F581E02D62E0CE01DF91CF91099487
:1024D000DF91CF9108954370552766277727DC0158
:1024E000ED91FC910480F581E02D423051056105AC
:1024F000710571F0433051056105710559F04130A6
:1025000051056105710511F065E005C066E003C085
:102510006AE001C069E00994CF93DF93EC01CB013D
:10252000BA0123E030E040E050E00E94582C6130D6
:1025300071058105910581F0623071058105910574
:1025400091F0672B682B692BC1F4E881F981048035
:10255000F581E02D64E00DC0E881F9810480F5810A
:10256000E02D61E006C0E881F9810480F581E02D6D
:1025700062E0CE01DF91CF910994DF91CF91089570
:102580004370552766277727DC01ED91FC91048085
:10259000F581E02D423051056105710571F0433040
:1025A00051056105710559F041305105610571050D
:1025B00011F062E005C063E003C061E001C060E0CB
:1025C00009940F931F93CF93DF93EC01E881F98176
:1025D0000480F581E02D8C010D5B1F4FD8018C919B
:1025E000811102C060E001C062E0CE010995E8817E
:1025F000F9810480F581E02DD8018C91811102C010
:1026000061E001C063E0CE0109958BA59CA58230F5
:10261000910538F0880F991F880F991F059701972A
:10262000F1F7E881F9810480F581E02DD8018C91E2
:10263000811102C060E001C062E0CE01DF91CF9164
:102640001F910F910994CF93DF93EC0120E030E0CC
:10265000A9016B897C898D899E890E94072E181695
:102660001CF4EFA5F8A902C0E9A9FAA9DF91CF915E
:1026700009940F931F93DC011296EC910E2F10E03A
:1026800009301105C0F5F801E35AFF4F0C94282ECC
:10269000DC01ED91FC910084F185E02D29C0DC0185
:1026A000ED91FC910284F385E02D22C0DC01ED91D7
:1026B000FC910484F585E02D1BC0DC01ED91FC91BB
:1026C0000684F785E02D14C0DC01ED91FC910088B3
:1026D000F189E02D0DC0DC01ED91FC910288F389B8
:1026E000E02D06C0DC01ED91FC910488F589E02D18
:1026F0001F910F9109941F910F910895CF93DF932C
:1027000081112DC02091F30330E0AFEEB3E080E003
:1027100090E0821793071CF5ED91FD91EF01CA5BE4
:10272000DF4F4A81641319C081818823C1F0158667
:1027300016861786108A118A128A138A148A15AA95
:1027400016AA17AA10AE15A216A217A210A6158ACD
:10275000168A178A108E118202C00196DACFDF9195
:10276000CF91089585ED8093BC008091BC0084FDDD
:10277000FCCF10925F04089540913404262F30E07E
:10278000240F311D21323105DCF420915F04243007
:10279000C9F4FC0180E090E0861758F430913404CD
:1027A0002191DC01AC5EBB4FA30FB11D2C930196B0
:1027B000F3CF80913404680F6093340480E008956F
:1027C00081E0089582E00895089508950895E091C4
:1027D000630480916204E81730F4F0E0EC50FC4FA1
:1027E000808190E008958FEF9FEF089590916304AA
:1027F00080916204981750F4E92FF0E0EC50FC4F00
:10280000208130E09F5F9093630402C02FEF3FEF81
:10281000C90108958091620490E020916304821BB5
:1028200091090895CF92DF92EF92FF920F931F9339
:10283000CF93DF937C01CB018A012091C603222331
:1028400089F0EB016B01C40ED51ECC15DD0569F0D6
:102850006991D701ED91FC910190F081E02DC701C4
:102860000995F3CF642F0E94BC13C801DF91CF916B
:102870001F910F91FF90EF90DF90CF900895CF932D
:10288000DF931F92CDB7DEB769832091C603222361
:10289000D1F020916004203240F021E030E0FC01D2
:1028A0003383228380E090E015C080916104E82F9B
:1028B000F0E0E953FC4F998190838F5F809361042E
:1028C0008093600405C061E0CE0101960E94BC13B4
:1028D00081E090E00F90DF91CF910895089580E01E
:1028E00090E00895CF92DF92EF92FF920F931F93A3
:1028F000CF93DF93EC019A81943041F0983031F01E
:10290000933031F0963021F012E003C014E001C0A2
:1029100013E02396E12CF12CC62ED12C01E0C60148
:102920000E2C02C0959587950A94E2F76C8180FD84
:10293000602789910E94171A8FEFE81AF80AE116AA
:1029400070F3DF91CF911F910F91FF90EF90DF9087
:10295000CF900895CF93DF93FC0122812223A9F029
:10296000EC010190F081E02D0480F581E02D60E024
:1029700009958EA58F3F49F061E00E9492226DA5D6
:102980008EA5DF91CF910C94171ADF91CF91089506
:102990004F925F926F927F928F929F92AF92BF926F
:1029A000CF92DF92EF92FF920F931F93CF93DF931B
:1029B000EC018F849888A988BA888B859C85AD8521
:1029C000BE85881A990AAA0ABB0A6B897C898D89F7
:1029D0009E899B01AC010E94722B6B017C016B8D67
:1029E0007C8D8D8D9E8D9B01AC010E94F32C9B01F3
:1029F000AC01C701B6010E945F2D0E94D12D811448
:102A00009104A104B10499F4623071058105910526
:102A10000CF079C01BA21CA21DA21EA21B8A1C8A3C
:102A20001D8A1E8A1BAA1CAA1DAA1EAAF4C00BA9D5
:102A30001CA92DA93EA9FE01ED5BFF4F1814190436
:102A40001A041B04FCF410161106120613064CF4AB
:102A5000681579058A059B054CF52081211153C025
:102A600025C0011511052105310509F44CC0681573
:102A700079058A059B050CF046C08081882309F4FE
:102A800042C036C01016110612061306ECF40027D9
:102A900011279801081919092A093B0960177107BC
:102AA000820793071CF42081222369F19B01AC016A
:102AB00088279927DC01821B930BA40BB50B8BABEA
:102AC0009CABADABBEAB1FC0011511052105310597
:102AD000D1F0CC24DD247601C818D908EA08FB0817
:102AE0006C157D058E059F0574F4808181110BC0E6
:102AF00030952095109501951F4F2F4F3F4F0BABF1
:102B00001CAB2DAB3EABCBA8DCA8EDA8FEA88E017C
:102B10000D5B1F4FC114D104E104F10491F48FA99E
:102B200098ADA9ADBAAD8BAF9CAFADAFBEAF81E0F4
:102B3000181419041A041B040CF080E0F8018083B7
:102B40003EC08BAC9CACADACBEACA5019401C50144
:102B5000B4010E94F32C2B013C01C701B6010E9475
:102B6000132B20E030E040E850E40E94722B20E07C
:102B700030E040E85FE30E94F32C9B01AC01C3010D
:102B8000B2010E945F2D9B01AC01C501B4010E94FE
:102B9000F22C2B013C01FE01FF9680809180A280E7
:102BA000B3809401A5010E94072E181614F4420167
:102BB0005301C401D5018BAF9CAFADAFBEAFFFEFEA
:102BC000CF1ADF0AEF0AFF0ACBAADCAAEDAAFEAAF7
:102BD000CBACDCACEDACFEACC701B6010E94D82D8D
:102BE0006BA37CA38DA39EA3A701960160E074E272
:102BF00084E799E40E945F2D6B8B7C8B8D8B9E8B81
:102C0000F8012081211107C0DC01CB01B0588B8B6A
:102C10009C8BAD8BBE8BDF91CF911F910F91FF905D
:102C2000EF90DF90CF90BF90AF909F908F907F906C
:102C30006F905F904F900895DC0113968C911397DD
:102C400081110CC01896ED91FC911997309731F0D5
:102C50004D915C91119712966C910CC01A96ED9162
:102C6000FC911B97309739F04D915C91119712961A
:102C70006C9181E009940895CF92DF92EF92FF92D8
:102C8000CF93DF93EC010E94C5236B017C018C8103
:102C90009D81AE81BF81A7019601281B390B4A0B8C
:102CA0005B0B2B30310541055105C0F08A810E9434
:102CB000EE19CC82DD82EE82FF829B81891771F052
:102CC00091E0811101C090E09B83CE01DF91CF9113
:102CD000FF90EF90DF90CF900C941C16DF91CF9176
:102CE000FF90EF90DF90CF900895CF93DF93EC01AA
:102CF0006A835983488381E08B830E94C5236C8358
:102D00007D838E839F8360E08A810E94922261E0AE
:102D10008A81DF91CF910C94171A1F920F920FB6F0
:102D20000F9211242F933F934F935F936F937F9351
:102D30008F939F93AF93BF93EF93FF938091B900CD
:102D4000887F803609F49CC068F5883209F45BC03E
:102D500090F4803109F454C038F4882309F4F6C0A3
:102D6000883009F44DC0F6C0883109F44CC0803277
:102D700009F45DC0EFC0803409F468C048F48033C2
:102D800009F455C0883309F0E5C08093C503D8C065
:102D9000803509F44FC0883509F45DC0883409F0E6
:102DA000D9C0D6C0883909F4C7C0A8F4883709F457
:102DB00067C038F4883609F463C0803709F460C00E
:102DC000C9C0883809F4B8C0803909F45FC08038B8
:102DD00009F0C0C05BC0803B09F486C038F4803A7B
:102DE00009F466C0883A09F47FC0B4C0803C09F495
:102DF000A7C0883C09F4A4C0883B09F48AC0AAC0D3
:102E00008091A20310C09091C4038091C3039817CE
:102E100070F5E091C40381E08E0F8093C403F0E06D
:102E2000ED55FC4F80818093BB0085EC86C080937C
:102E3000C5038EC0E091C40381E08E0F8093C4036C
:102E40008091BB00F0E0ED55FC4F80839091C4036E
:102E50008091C3036EC0E091C40381E08E0F809324
:102E6000C4038091BB00F0E0ED55FC4F808380915E
:102E70005E0481116DC081E080935D0484EA61C0CD
:102E800083E080935F0410925604CFCF8091560464
:102E9000803208F051C0E091560481E08E0F80939B
:102EA00056048091BB00F0E0EA5CFB4F8083BDCF0D
:102EB00085EC8093BC0010925F04809156048032B0
:102EC00030F4E0915604F0E0EA5CFB4F1082609130
:102ED000560470E0E0915904F0915A0486E394E0BE
:102EE00009951092560436C084E080935F041092D6
:102EF000350410923404E0915B04F0915C04099570
:102F000080913404811105C081E0809334041092D3
:102F10001404E091350481E08E0F80933504F0E0D5
:102F2000EC5EFB4F80818093BB00909135048091D3
:102F30003404981708F479CF85E88093BC000AC060
:102F400085EC8093BC0010925F0404C01092C5030E
:102F50000E94B213FF91EF91BF91AF919F918F911A
:102F60007F916F915F914F913F912F910F900FBE85
:102F70000F901F9018958F929F92AF92BF92CF9211
:102F8000DF92EF92FF920F931F93CF93DF93EC01A9
:102F9000B62E0E94C523098D1A8D2B8D3C8D6B0199
:102FA0007C01C01AD10AE20AF30A97018601CD8C8E
:102FB000DE8C0D2C000CEE08FF080C151D052E05EF
:102FC0003F05C4F0288DFE0134E0239FE00DF11D84
:102FD000112410821182128213822F5F288F64873E
:102FE000758786879787698F7A8F8B8F9C8F233021
:102FF00008F0188EB1101DC0288DFE0144E0249FFA
:10300000E00DF11D1124C484D584E684F7849B016E
:10301000AC012C193D094E095F0969017A011216AC
:10302000130614061506D4F0C12CD12C7601C394D6
:1030300015C0FE019E01245F3F4FC080D180E28019
:10304000F3804FEFC41AD40AE40AF40AC192D19271
:10305000E192F1922E173F0781F7CECF6081718107
:10306000828193810E94132B20E030E04AE754E4F0
:103070000E94722B4B015C01C701B6010E94132B09
:103080009B01AC01C501B4010E945F2D6F8F78A335
:1030900089A39AA3DF91CF911F910F91FF90EF9099
:1030A000DF90CF90BF90AF909F908F9008958F92B8
:1030B0009F92AF92BF92CF92DF92EF92FF920F93C7
:1030C0001F93CF93DF93EC0188810E94EE19BB24FC
:1030D000B394892B09F4B12C0E94C5232A8129833A
:1030E000CB80DC80ED80FE800F811885B216B9F0B0
:1030F0009B01AC012C193D094E095F0969017A0158
:10310000012E000C220B330BC016D106E206F3068B
:103110000CF0BA826B837C838D839E831CC0012E4E
:10312000000C220B330B4B015C018C189D08AE0880
:10313000BF0880169106A206B3066CF0DC01CB0135
:10314000801B910BA20BB30B0197A109B1098B83D3
:103150009C83AD83BE83DF91CF911F910F91FF9030
:10316000EF90DF90CF90BF90AF909F908F90089599
:103170002F923F924F925F926F927F928F929F9287
:10318000AF92BF92CF92DF92EF92FF920F931F9375
:10319000CF93DF9300D0CDB7DEB78C0149832A836C
:1031A000660F771FF801EA5AFF4FE080F180EE0CBE
:1031B000FF1CF801CF01801B910B8E159F0514F4A5
:1031C0001192F8CF8981F801E60FF71F81838A8178
:1031D0008083480184E5880E911C60E0F4018081C1
:1031E0000E94171A2801F2E54F0E511C380180E5A4
:1031F000680E711C1E141F043CF5E1E0EE1AF10884
:10320000F801EE0DFF1DA080F2013080F301208057
:1032100087E0C82ED12CB12CB5010C2C02C07595BD
:1032200067950A94E2F76170822D0E94171A61E097
:10323000832D0E94171A60E0832D0E94171AF1E077
:10324000CF1AD10848F7D6CF61E0F40180810F9002
:103250000F90DF91CF911F910F91FF90EF90DF9032
:10326000CF90BF90AF909F908F907F906F905F9026
:103270004F903F902F900C94171ACF92DF92EF92BD
:10328000FF921F93CF93DF937C016B01EB0183E0EF
:10329000CC0FDD1F8A95E1F76096CE0DDF1D11E0A2
:1032A000199220E0412FB601C7010E94B8181F5F94
:1032B0001930B1F7DF91CF911F91FF90EF90DF9020
:1032C000CF90089577FD10C0FC01EA5AFF4F20818E
:1032D00031816217730744F4442311F020E001C0E8
:1032E00021E04CE00C94B8180895CF92DF92EF9251
:1032F000FF920F931F93CF93DF936C017B018A01A1
:10330000C0E0D0E0C017D10760F4B6016C0F7D1F9C
:1033100041E050E0C7018C0F9D1F0E94302C219688
:10332000F1CFC801DF91CF911F910F91FF90EF90E6
:10333000DF90CF90089520915804211103C08FEFA2
:103340009FEF08955FB7F89422E02093E900209161
:10335000F20030E01216130614F421E030E0422FA0
:10336000FC0184E6415038F02898809357049091EE
:10337000F1009193F7CF2115310521F08091F200F2
:10338000882319F05FBFC90108958BE68093E80098
:10339000F9CF2FB7F89483E08093E9009091E8008B
:1033A000892F807295FF04C09091F20080E4891B00
:1033B0002FBF08958091830481110DC082E0809316
:1033C0007F0484E080938004109282041092810430
:1033D00081E0809383048FE794E00895CF93DF9397
:1033E000282F30E0F901EF5FFD4F8491F901EE5194
:1033F000FE4FD491F901ED53FE4FC491CC2391F0CF
:1034000081110E945522EC2FF0E0EE0FFF1FEB54CC
:10341000FE4FA591B491EC91ED2381E090E021F471
:1034200080E002C080E090E0DF91CF9108951F938B
:10343000CF93DF93282F30E0F901EF5FFD4F8491A8
:10344000F901EE51FE4FD491F901ED53FE4FC491B5
:10345000CC23C1F0162F81110E945522EC2FF0E0F1
:10346000EE0FFF1FE955FE4FA591B4919FB7F89459
:10347000111104C08C91D095D82302C0EC91DE2BA1
:10348000DC939FBFDF91CF911F9108952F923F92C0
:103490004F925F926F927F928F929F92AF92BF9264
:1034A000CF92DF92EF92FF920F931F93CF93DF9310
:1034B000CDB7DEB7C751D1400FB6F894DEBF0FBE0F
:1034C000CDBF1A821982FE0133962FEFDF011D92C4
:1034D0002A95E9F7C25FDE4F19821882CE50D1409B
:1034E00040E051E0BE016F5F7F4F0E94E821AE01D6
:1034F000425F5E4F6BE872E0CE0101960E94C82ADF
:10350000FC012081222309F421C527E0422E36E068
:10351000732E0E94832A01978930910508F00AC40E
:103520008A599F4FFC01AE01425F5E4F6BE872E02B
:1035300080E090E00C94282E0E94C82A8C01AE01F5
:10354000425F5E4F6DE872E080E090E00E94C82A22
:103550007C01C8010E94832AD0907E04F0E1DF162E
:1035600009F4F1C38C01112708591B4FD8012C9184
:103570002111E9C3A701682FCE018E5F9E4F0E94E3
:1035800075168CE08D9DD0011124A258B94FFE0113
:10359000EE5FFE4F982F01900D929A95E1F7909172
:1035A0007E04899FF0011124E258F94F21E035E0B3
:1035B000338722873187208781E0D8018C939F5FF2
:1035C00090937E04C0C30E94C82A8C01AE01425F62
:1035D0005E4F6DE872E080E090E00E94C82AC8016A
:1035E0000E94832A7C01D0906704BAE0DB1609F4BC
:1035F000AAC38C01112708591B4FF8018081811142
:10360000A2C361E08E2D0E94922260E070E08E2DB8
:103610000E94CE22ED2DF0E0EE0FFF1FE25CF84F8E
:10362000E082118283E0D8018C93D394D092670416
:103630008AC30E94C82A8C01AE01425F5E4F6BE8CC
:1036400072E080E090E00E94C82A7C01AE01425FF7
:103650005E4F6BE872E080E090E00E94C82A6C0147
:10366000AE01425F5E4F6BE872E080E090E00E9446
:10367000C82A4C01AE01425F5E4F6BE872E080E009
:1036800090E00E94C82A5C01AE01425F5E4F6DE887
:1036900072E080E090E00E94C82AC4010E94832A60
:1036A000682EC5010E94832A1C01C6010E94832A3C
:1036B0006C01C7010E94832A4C01C8010E94832A21
:1036C0007C0150906604B1E05B1609F43CC3992775
:1036D000FC01E859FB4FCE5EDE4FF983E883C2510F
:1036E000D140808181112FC3C60199279C0128599F
:1036F0003B4FCC5EDE4F39832883C451D140D90182
:103700008C91811120C3F401FF27C05FDE4FF98344
:10371000E883C051D140E859FB4F8081811113C328
:103720001FC30E94C82A8C01AE01425F5E4F6BE846
:1037300072E080E090E00E94C82A7C01AE01425F06
:103740005E4F6BE872E080E090E00E94C82A6C0156
:10375000AE01425F5E4F6BE872E080E090E00E9455
:10376000C82A5C01AE01425F5E4F6BE872E080E008
:1037700090E00E94C82AAE01425F5E4F6DE872E0A1
:1037800080E090E00E94C82AC5010E94832A5C0163
:10379000C6010E94832A6C01C7010E94832A7C0112
:1037A000C8010E94832A00E010E047C00E94C82A96
:1037B0004C01AE01425F5E4F6BE872E080E090E04A
:1037C0000E94C82A7C01AE01425F5E4F6BE872E046
:1037D00080E090E00E94C82A6C01AE01425F5E4F1B
:1037E0006BE872E080E090E00E94C82A5C01AE01C4
:1037F000425F5E4F6BE872E080E090E00E94C82A72
:103800008C01AE01425F5E4F6DE872E080E090E0B7
:103810000E94C82AC8010E94832A8C01C5010E9407
:10382000832A5C01C6010E94832A6C01C7010E94A1
:10383000832A7C01C4010E94832A9501A601B70155
:103840000E94330980C20E94C82A8C01AE01425FE7
:103850005E4F6DE872E080E090E00E94C82AC801E7
:103860000E94832AD0906504B2E0DB1609F46BC293
:103870009C013327F901E859FB4F7F012081211179
:1038800062C2FBE1DF9E8001112408521B4FD80168
:1038900019961C921997F801158616861786108AB4
:1038A00051961D921D921D921C92549712961C9235
:1038B0001E921197E4EBF0E01496FC93EE931397AD
:1038C00016961C921E9215971896FC93EE931797D6
:1038D0008C930E94C523D80155966D937D938D934B
:1038E0009C935897F7017082D394D09265042BC2B1
:1038F0000E94C82A7C01AE01425F5E4F6BE872E015
:1039000080E090E00E94C82A6C01AE01425F5E4FE9
:103910006DE872E080E090E00E94C82A8C01C60148
:103920000E94832AD82EC7010E94832A980140E072
:103930002EC00E94C82A7C01AE01425F5E4F6BE838
:1039400072E080E090E00E94C82A6C01AE01425F04
:103950005E4F6BE872E080E090E00E94C82A5C0154
:10396000AE01425F5E4F6DE872E080E090E00E9441
:10397000C82A8C01C5010E94832AB82EC6010E9464
:10398000832AD82EC7010E94832A98014B2D6D2DC2
:103990000E941808D8C10E94C82A8C01AE01425F5B
:1039A0005E4F6BE872E080E090E00E94C82A7C01E4
:1039B000AE01425F5E4F6BE872E080E090E00E94F3
:1039C000C82A6C01AE01425F5E4F6DE872E080E094
:1039D00090E00E94C82AC6010E94832AB82EC7011F
:1039E0000E94832AA82EC8010E94832A982E8091C3
:1039F0006404823009F4A7C140926A0440926B04C7
:103A0000E82EF12C7E9CC0017F9C900D11249C011E
:103A100024533B4F6901D90113969C921397149636
:103A2000AC9214971596BC928CE090E00E942E2EDA
:103A30008C01FC01138212822BE232E0318320835D
:103A40009482A086B1861286A8E0BA2EB386D601EB
:103A500011969C938E9381E012968C93109263043E
:103A600010926204109261041092600410925F043C
:103A700080935E0410925D0461E082E00E94171A58
:103A800061E083E00E94171A8091B9008E7F8093D5
:103A9000B9008091B9008D7F8093B90088E480934C
:103AA000B80085E48093BC00E4EEF3E1F0935C049D
:103AB000E0935B0425EE33E130935A0420935904DC
:103AC000D80115961C92159719968C9119978230EA
:103AD00010F01596BC92F8019285992329F0813057
:103AE00019F485818460858362E370E080E090E072
:103AF0000E948B23D8011B966C91C8010E947610FE
:103B000068EE73E080E090E00E948B2360E3C801E0
:103B10000E94DA108BE496E40197F1F760E3C801A4
:103B20000E94DA108BE496E40197F1F760E3C80194
:103B30000E94DA1083E592E00197F1F760E2C80194
:103B40000E94DA10F8016581606240E0C8010E94BD
:103B5000F31084E0D80116968C9340E06CE0C80125
:103B60000E94F31040E061E0C8010E94F3108BE373
:103B70009FE10197F1F782E0F801878340E066E07A
:103B8000C8010E94F31040E062E0C8010E94F310F7
:103B90008BE39FE10197F1F77E9C80017F9C100DE4
:103BA000112404531B4FD8018D919C9128E0FC01F6
:103BB000238760E00E947610D80112968C911297AC
:103BC000882309F4B1C015966C91159766956150DC
:103BD0008D919C910E94CF20B12C6801B4E0CB0E56
:103BE000D11C4B2D50E0F601208130E0C9010A972D
:103BF00097FD0196959587954817590749F06FE805
:103C000072E0D8018D919C910E946110B394E9CF2C
:103C10007E9C80017F9C100D112404531B4F6CE28D
:103C200072E0F801808191810E943D10B12C680101
:103C3000F4E0CF0ED11C4B2D50E0D6012C9130E09A
:103C4000C9010A9797FD01969595879548175907D9
:103C500049F06AE272E0F801808191810E943D1092
:103C6000B394E9CF7E9C80017F9C100D11240453F6
:103C70001B4FD80115966C91159766958D919C9167
:103C80000E94CF20B12C6801B4E0CB0ED11C4B2D8B
:103C900050E0F601208130E0C901069797FD0196BA
:103CA000959587954817590749F068E272E0D80161
:103CB0008D919C910E943D10B394E9CF7E9C800130
:103CC0007F9C100D112404531B4F61E272E0F80138
:103CD000808191810E943D10B12C6801F4E0CF0EEB
:103CE000D11C4B2D50E0D6012C9130E0C901069734
:103CF00097FD0196959587954817590749F06FE10B
:103D000072E0F801808191810E943D10B394E9CF67
:103D10007E9CF0017F9CF00D1124E453FB4F60E08A
:103D2000808191810E94CF20809164048F5F809375
:103D3000640409C0AE01425F5E4F6DE872E080E04E
:103D400090E00E94C82AAE01425F5E4F6BE872E0CD
:103D500080E090E00E94C82A009709F0DACBF6C014
:103D6000252D30E0CA5EDE4F39832883C651D1400D
:103D700088E590E00E942E2E8C01C1019927F80160
:103D8000E05BFF4FF182E082580132E5A30EB11CE7
:103D9000D501CD92DC926801B4E5CB0ED11CF601C1
:103DA000918280829C01215031092830310508F030
:103DB000CAC04801F6E58F0E911CD4018D939C93E7
:103DC00061E08E2D0E94922261E0F50180810E94C7
:103DD000922261E0D6018C910E94922261E0F6016C
:103DE00080810E94171AD801A05BBF4F1196FC92E8
:103DF000EE92F80170961192AE17BF07E1F7E12C31
:103E0000F12CD4018D919C91E816F9067CF520E007
:103E10004FE0B701C8010E94B818F7FC0CC0F401CC
:103E200080819181E816F90634F427E04BE0B70170
:103E3000C8010E94B81820E049E0B701C8010E94FB
:103E4000B818F7FC0AC0D4018D919C91E816F906C8
:103E500024F4B701C8010E943D1941E0B701C8012F
:103E60000E946219BFEFEB1AFB0ACBCFCA5EDE4F8E
:103E7000E881F981C651D140EE0FFF1FEE0FFF1F01
:103E8000E658F94FDF010D931D9381E08283238271
:103E9000E12CF12C8F0133965F016D01D5018C91DE
:103EA000282F30E02E153F0591F1F60190819923DE
:103EB00099F0E81688F4B7017727D8018D919C9185
:103EC000FC01EA5AFF4F208131816217730724F405
:103ED000262D4AE00E94B81840E0B701F801808121
:103EE00091810E946219F7FC0EC0D8018D919C91BE
:103EF000FC01EA5AFF4F20813181E216F3061CF4DF
:103F0000B7010E943D19BFEFEB1AFB0AC7CF84E04F
:103F1000CE5EDE4FE881F981C251D1408083C05F1F
:103F2000DE4FE881F981C051D140E859FB4F8083D1
:103F3000CC5EDE4FA881B981C451D1408C9353949B
:103F40005092660400CF88E090E033CFC95EDE4F28
:103F50000FB6F894DEBF0FBECDBFDF91CF911F919A
:103F60000F91FF90EF90DF90CF90BF90AF909F9018
:103F70008F907F906F905F904F903F902F9008951B
:103F80000E941530EF92FF920F931F93CF93DF9310
:103F9000EC01198218821B821A821D821C82611513
:103FA0007105B9F17B01FB0101900020E9F7319720
:103FB0008F01061B170BB8016F5F7F4F80E090E009
:103FC0000E944F2F009759F0998388831B830A839F
:103FD0002C813D81232B81F4FC0110820DC088814E
:103FE0009981009711F00E94C62E198218821D82B5
:103FF0001C821B821A820DC01D830C83B70188812D
:104000009981DF91CF911F910F91FF90EF900C94C8
:104010002330DF91CF911F910F91FF90EF90089582
:10402000AC011092A7079091370880913608FA01E9
:10403000BF01641B750BDF012081222381F03091C9
:10404000A7072093A707291304C0931302C0109257
:10405000A70731962C912813EBCF931749F3CB0187
:104060000895FC01DC01A85BBF4F8C918823D1F03F
:104070008181811117C081E0818381899289A3891F
:10408000B48980369947AE4FBF4F61F080E699E71B
:10409000AEEFBFEF818B928BA38BB48BCF010296D7
:1040A0000C94C81408950F931F93CF93DF938091BE
:1040B0002B08882309F442C0813031F482E08093D8
:1040C0002B08CBEAD7E002C0C0E0D0E080912C08FA
:1040D000882351F1209721F4C0913008D091310804
:1040E0008E01CE010E941020892B29F42196F8011F
:1040F00080818111F5CFF8018081882309F1C80101
:104100000E941020F801E80FF91F8081882311F028
:1041100010823196F0933108E0933008902F812F70
:1041200090932E0880932F0880912E0890912F084D
:10413000892B21F081E080932C0805C080E003C02A
:1041400090E080E0EDCFDF91CF911F910F91089526
:104150000E945320882359F081E080932C0880939B
:104160002D0880912E0890912F080C94832A10928C
:104170002D0880E090E008950E945320882351F09C
:1041800081E080932C0880932D0880912E089091D7
:104190002F08089510922D0880E090E00895CF93A5
:1041A000DF93CDB7DEB728970FB6F894DEBF0FBE0A
:1041B000CDBF28E0E3E4F2E0DE01119601900D921C
:1041C0002A95E1F7FC012185261710F46FEF620FA5
:1041D000FE013196E60FF11DE60FF11D608160686A
:1041E00040E028960FB6F894DEBF0FBECDBFDF913A
:1041F000CF910C94F3108F929F92AF92BF92EF9257
:10420000FF920F931F93CF93DF93CDB7DEB7A197A4
:104210000FB6F894DEBF0FBECDBF7C01FA01CB0113
:1042200019A2223008F42AE08E010F5D1F4F822E62
:10423000912CA12CB12CBF01A50194010E94C12C8D
:10424000F901CA01015011096A3014F4605D01C01E
:10425000695CD8016C93232B242B252B61F7B801C3
:10426000C7010E946110A1960FB6F894DEBF0FBE81
:10427000CDBFDF91CF911F910F91FF90EF90BF9035
:10428000AF909F908F900895CF92DF92EF92FF9220
:104290000F931F93CF93DF9377FF1DC06A017B01BC
:1042A000EC016DE20E9436108C0144275527BA01BB
:1042B0004C195D096E097F092AE0CE010E94FB209E
:1042C000800F911FDF91CF911F910F91FF90EF9081
:1042D000DF90CF9008952AE0DF91CF911F910F9149
:1042E000FF90EF90DF90CF900C94FB20AC01809179
:1042F000A20781110FC081E08093A2078093A907D4
:10430000052E000C660B770B8091330890913408D2
:104310000C94442108958091A2078823A1F0609114
:10432000350880913308909134080E9436108091AE
:10433000AA07882341F068E972E0809133089091E0
:1043400034080E9461101092A9071092A20780E021
:104350000895CF93DF932091A20721111AC0EB019A
:104360000E9476218091A207882379F06091360817
:1043700080913308909134080E943610BE018091DC
:104380003308909134080E943D10DF91CF910C9436
:104390008B2180E0DF91CF910895CF93DF9320911F
:1043A000A207222391F0EC01609136088091330836
:1043B000909134080E943610BE018091330890918C
:1043C0003408DF91CF910C946110DF91CF91089563
:1043D0000F931F93CF93DF93FC01C481D581209766
:1043E00019F4FB01108211C0415051094C175D07AF
:1043F00008F4EA018B01FC0160817181AE01C80102
:104400000E942A30C00FD11F1882DF91CF911F91D7
:104410000F910895CF92DF92EF92FF920F931F9327
:10442000CF93DF936C017B018A01C0E0D0E0C0171D
:10443000D10760F4B6016C0F7D1F41E050E0C70169
:104440008C0F9D1F0E94402C2196F1CFC801DF9157
:10445000CF911F910F91FF90EF90DF90CF90089533
:104460001F93CF93DF93EC01162F688385E090E0D4
:1044700098878F8360E0812F0E94922261E0812FD4
:104480000E94171A0E94C5236B837C838D839E83B1
:1044900088810E94EE1921E0892B09F420E02A830B
:1044A0002983DF91CF911F91089590E0FC0131970E
:1044B000EF30F105B0F5E159FF4F0C94282E8091B3
:1044C00080008F7703C0809180008F7D8093800073
:1044D000089580918000877FF9CF84B58F7702C0DF
:1044E00084B58F7D84BD0895809190008F7707C03B
:1044F000809190008F7D03C080919000877F809392
:10450000900008958091C0008F7703C08091C00013
:104510008F7D8093C00008958091C200877F809333
:10452000C2000895CF93DF9390E0FC01EE51FE4F5F
:104530002491FC01ED53FE4F8491882361F190E0BA
:10454000880F991FFC01E95CFD4FC591D491FC01D6
:10455000E955FE4FA591B491611109C09FB7F89438
:104560008881209582238883EC912E230BC06230B2
:1045700061F49FB7F8948881322F30958323888324
:10458000EC912E2B2C939FBF06C08FB7F894E88137
:104590002E2B28838FBFDF91CF9108951F93CF9348
:1045A000DF93182FEB0161E00E949222209711F413
:1045B00060E004C0CF3FD10539F461E0812FDF9185
:1045C000CF911F910C94171AE12FF0E0EF5FFD4F90
:1045D000E4918E2F90E0FC013197EF30F10508F067
:1045E0006CC0E258FF4F0C94282E84B5806884BDBF
:1045F000C7BD68C084B5806284BDC8BD63C08091FA
:104600008000806880938000D0938900C0938800E8
:1046100059C080918000806280938000D0938B008D
:10462000C0938A004FC08091800088608093800092
:10463000D0938D00C0938C0045C08091900080681D
:1046400080939000D0939900C09398003BC08091D4
:104650009000806280939000D0939B00C0939A005A
:1046600031C080919000886080939000D0939D002D
:10467000C0939C0027C08091C00080688093C000D8
:104680008091C0008F7B8093C000C093CF001AC080
:104690008091C00080628093C000C093D00012C09F
:1046A0008091C20088608093C2008091C2008B7F9D
:1046B0008093C200C093D20005C0C038D1050CF071
:1046C0007CCF76CFDF91CF911F9108953FB7F894BB
:1046D00080917B0890917C08A0917D08B0917E0824
:1046E00026B5A89B05C02F3F19F00196A11DB11D4D
:1046F0003FBFBA2FA92F982F8827820F911DA11D88
:10470000B11DBC01CD0142E0660F771F881F991FC4
:104710004A95D1F708958F929F92AF92BF92CF9210
:10472000DF92EF92FF926B017C010E9466234B01A6
:104730005C01C114D104E104F104F1F00E9466238C
:10474000DC01CB0188199909AA09BB09883E93406D
:10475000A105B10570F321E0C21AD108E108F10802
:1047600088EE880E83E0981EA11CB11CC114D104F0
:10477000E104F10419F7DDCFFF90EF90DF90CF90C7
:10478000BF90AF909F908F9008952FB7F89460914D
:104790007708709178088091790890917A082FBFF6
:1047A00008951F920F920FB60F9211242F933F93EB
:1047B0008F939F93AF93BF938091770890917808E0
:1047C000A0917908B0917A083091760823E0230F00
:1047D0002D3720F40196A11DB11D05C026E8230F39
:1047E0000296A11DB11D20937608809377089093BF
:1047F0007808A0937908B0937A0880917B0890910B
:104800007C08A0917D08B0917E080196A11DB11D84
:1048100080937B0890937C08A0937D08B0937E08DA
:10482000BF91AF919F918F913F912F910F900FBEAC
:104830000F901F901895789484B5826084BD84B5DC
:10484000816084BD85B5826085BD85B5816085BD8B
:1048500080916E00816080936E0010928100809143
:1048600081008260809381008091810081608093CB
:104870008100809180008160809380008091910010
:10488000826080939100809191008160809391007B
:10489000809190008160809390008091C10084603D
:1048A0008093C1008091C10082608093C10080919B
:1048B000C10081608093C1008091C30081608093BA
:1048C000C3008091C00082608093C0008091C200CC
:1048D00081608093C20080917A00846080937A0026
:1048E00080917A00826080937A0080917A00816062
:1048F00080937A0080917A00806880937A00109289
:10490000580410928C0410928B048091D70081601F
:104910008093D70080EA8093D80089B5806189BDF3
:1049200089B5826089BD09B400FEFDCF61E070E009
:1049300080E090E00E948B238091D8008F7C806182
:104940008093D8008091E000807F8093E000809188
:10495000E1008E7E8093E1008DE08093E200559A25
:10496000209A8FEF9FEF90935F0780935E078AEA0C
:1049700094E090933908809338088AE594E0909306
:104980003B0880933A088EE096E090933D08809330
:104990003C0882E994E090936F0880936E0884E964
:1049A00094E090933F0880933E088FEF93E09093BC
:1049B00041088093400881EF92E0909343088093F0
:1049C00042088AE292E090934D0880934C0886E179
:1049D00092E0909353088093520884ED96E0909370
:1049E00051088093500881ED94E09093550880938E
:1049F000540883EC94E0909357088093560884EB16
:104A000096E090935B0880935A0889EC95E0909328
:104A10006108809360088CEB95E090936308809325
:104A2000620883EE93E090936508809364088AE4BB
:104A300092E090936708809366088AE591E09093EE
:104A400069088093680880E597E090936B088093ED
:104A50006A0889E792E090936D0880936C0881E082
:104A60008093AA070E945007992493948091A907E4
:104A70008111C3C08091330890913408DC01ED911D
:104A8000FC910084F185E02D0995892B09F4B5C0CE
:104A90008091330890913408DC01ED91FC91008401
:104AA000F185E02D0995803491050CF0A2C080912C
:104AB000330890913408DC01ED91FC910084F1857C
:104AC000E02D09957C01C0913308D09134080BEE9C
:104AD000A02E07E0B02E650100E010E0E016F10620
:104AE00019F4C0E0D0E056C00E94C52368877987DA
:104AF0008A879B87E881F9810284F385E02DCE01C6
:104B0000099597FF51C30E94C523488459846A843C
:104B10007B84DC01CB0184199509A609B7094C8077
:104B20005D806E807F8084159505A605B70510F31E
:104B3000D8CFF50191915F0110922B083091370881
:104B40002091A8079093A807931741F14091350849
:104B50008091A407E82FF0E0EE55F84F941323C09E
:104B6000321709F11186882321F090922B081092B8
:104B7000A8071092A40710922F0810922E081092E6
:104B800031081092300890922C0880912B088130C7
:104B900099F02196CE15DF0564F268CF9213D6CF37
:104BA0001092A807D3CF91878F5F8093A40790912D
:104BB000A6078917F0F6E9CF0E94A8208093A307E3
:104BC0008E3178F420912D08222359F0FC01FF2723
:104BD000EE0FFF1FE65CF74F0190F081E02D30975C
:104BE00031F4E0913808F0913908309791F2099545
:104BF000D0CF90E4E92EF12C66CF809198048111FA
:104C0000DDC20E94C52300918D0410918E04209175
:104C10008F0430919004DC01CB01801B910BA20B1F
:104C2000B30B813A9B4BAD40B10508F0C3C28091F4
:104C30009704882309F4B0C2CEE7D6E000E010E084
:104C400080917E0490E08017910739F0CE010E9498
:104C50003C160F5F1F4F2C96F3CFCEE0D5E005E357
:104C600015E0212C312C8091960490E0821593055B
:104C700009F484C18A81882309F478C1CE0103969E
:104C80000E945718CE010C960E945718DE8421E02E
:104C9000D2268D2D880FDD80D226D82A60E0C8016B
:104CA0000E94BB17CD88DC1409F4A6C07E0146E43F
:104CB000E40EF11CD7016D917D918D919C910E9424
:104CC000D12D65307105B4F0F70160817181828169
:104CD00093810E94D12D603171057CF4D7016D91D3
:104CE0007D918D919C910E94D12D7B01B5E0EB1AB5
:104CF000F10806C0E12CF12C03C0BAE0EB2EF12C38
:104D00008E8D9F8DA8A1B9A18A8C9B8CAC8CBD8CFB
:104D1000BC01CD01681979098A099B096E317105B9
:104D2000810591054CF02EE130E040E050E00E941A
:104D3000582CCA01B90104C061E070E080E090E045
:104D40004701FF0CAA08BB08A50194010E940C2E84
:104D50009B01AC01C501B4010E940C2E9B01AC016A
:104D6000C501B4010E940C2E28EE33E040E050E073
:104D70000E94582C49015A01EFEF8E1A9E0AAE0A82
:104D8000BE0A2C2D44E02402F00111248D2D0D2C9F
:104D9000000C990BE82BF92BED5CFD4F6081062E82
:104DA000000C770B689DA001699D500D789D500DFA
:104DB00011242E893F89420F531F5F8B4E8B5BE579
:104DC000529D9001539D300D1124225F3A4FF901FD
:104DD000E80FF91F82A1882371F061E0C8010E94E9
:104DE000BB178E899F890EA002C0959587950A945E
:104DF000E2F7998F888FDD8A888C998C092C000CBA
:104E0000AA08BB08F80185A196A1A7A1B0A588169C
:104E10009906AA06BB0609F4A9C075016401C81A5F
:104E2000D90AEA0AFB0AF7FE05C044244A94542C26
:104E3000320104C0412C512C32014394B701A60128
:104E4000F7FE07C044275527BA014C195D096E09C2
:104E50007F09D801D2968D919C91D397A0E0B0E0C4
:104E6000481759076A077B0714F5B1E04B16510440
:104E70006104710471F4D8019996ED91FC919A97AF
:104E8000309739F093964D915C919497688180E0CA
:104E900021C0D8019D96ED91FC919E97309751F1DC
:104EA00093964D915C919497698182E022C0B1E024
:104EB0004B1651046104710479F4D8019B96ED916D
:104EC000FC919C97309741F093964D915C9194970B
:104ED000688181E0099534C0D8019F96ED91FC91DD
:104EE000D097309739F093964D915C919497698162
:104EF00083E00995B1E04B1651046104710401F19E
:104F0000472046204520409451F5CC0CDD1CEE1C7A
:104F1000FF1CD501C4018C199D09AE09BF09803C55
:104F2000904EAF4FBF4FDCF48E899F8983709927D5
:104F30009F8B8E8B198E188E812C912C54010FC053
:104F4000CC0CDD1CEE1CFF1CC80CD91CEA1CFB1C85
:104F5000F1E4CF16FFE1DF06E104F1042CF7D801FC
:104F600095968D929D92AD92BC929897BFEF2B1A19
:104F70003B0AC55ADF4F055A1F4F75CE71E9C72E40
:104F800074E0D72EE12CF12C8091950490E08E15E1
:104F90009F0509F452C0F601C191D1916F018DA115
:104FA0009EA1AFA1B8A5892B8A2B8B2BE9F10E947A
:104FB00066234B015C0189A59AA5ABA5BCA5B501EB
:104FC000A401481B590B6A0B7B0B8DA19EA1AFA1BD
:104FD000B8A5481759076A077B0730F1FE01EB5B5C
:104FE000FF4F20818D859E85AF85B889222321F0D2
:104FF0000196A11DB11D03C00197A109B1098D87BB
:105000009E87AF87B88B4D855E856F8578898E01C9
:105010000E5F1F4FC8010E94391389A69AA6ABA63E
:10502000BCA6C8010E94C814CE018A5B9F4F0E9493
:105030003C16FFEFEF1AFF0AA7CFC8EDD4E000E05F
:1050400010E058E8E52EF12C68E5C62E62E0D62E79
:105050008091650490E08017910709F49DC08989CB
:105060009A89AB89BC894D855E856F85788984175F
:105070009507A607B70709F48BC0481759076A07B1
:105080007B0724F40197A109B10903C00196A11D72
:10509000B11D898B9A8BAB8BBC8B0E94C5236D8B0A
:1050A0007E8B8F8B988F89899A89803222E0920734
:1050B0000CF03DC097FD06C0853B91052CF084EBBC
:1050C00090E002C080E090E02B854701821A9108B1
:1050D00027FD9394D401AA0FBB1FAA0FBB1F4D013C
:1050E000BB0FAA08BB082C85A601421B510927FD4E
:1050F00053959A01220F331F220F331FA901330F3B
:10510000660B770B9A01AB01281939094A095B092B
:10511000DC010E94822C24EB30E040E050E00E9451
:10512000582CDA01C901880D991DAA1DBB1D2A85BD
:105130002C3070F53B85A701431B510937FD539572
:10514000440F551F440F551F841795077CF03C856D
:10515000B601631B710937FD7395660F771F660FE4
:10516000771FAC01681779070CF4AB01CA010297ED
:10517000880F991F4FB7F89430E0F901EE0FFF1F29
:105180002E0F3F1FF901E955FB4F928381834FBFDB
:105190000F5F1F4F6B965CCF80E090E0892B09F486
:1051A00063CC0E94000060CCF60181936F010F5F19
:1051B0001F4F94CC81E08093980419C00E94C523AE
:1051C00000918D0410918E0420918F0430919004F1
:1051D000DC01CB01801B910BA20BB30B803A9B4BE4
:1051E000AD40B10508F023CD1092980480E00E94F4
:1051F000D3071DCDFF920F931F93CF93DF93109290
:1052000055071092540788EE93E0A0E0B0E0809339
:10521000560790935707A0935807B09359072FE468
:1052200032E030935307209352072FEF3FEF309334
:105230005F0720935E0710929C0410929B0480935A
:105240009D0490939E04A0939F04B093A0048DE6C8
:1052500092E090939A048093990484E690E090936E
:10526000A6048093A504109239081092380882E5AC
:1052700097E090933408809333081092AA078CE249
:10528000809336088BE3809335088FE2809337084C
:1052900080E48093A5078FE38093A6071092A4076C
:1052A00010922F0810922E08109231081092300898
:1052B00081E080932C08EAE3F8E086E798E0119219
:1052C00011928E179F07D9F71092A907CEE3D7E066
:1052D00002E517E0FF24F394F882198261E081E08F
:1052E0000E949222698170E088810E94CE222296DB
:1052F0000C171D0789F7CEE7D6E041E952E061E0DF
:10530000CE010E9475162C9637E0CE33D307A9F74D
:1053100010927C06EEE0F5E027E488E290E0DF0101
:105320001396ED01322F19923A95E9F7AA5ABF4F19
:105330008D939C931282E55AFF4FC6E0EA37FC0733
:1053400071F78091CB048C3020F08FEF8093E204D2
:1053500013C091E0980F9093CB048093E20490E007
:10536000FC01EE0FFF1F8E0F9F1FFC01E955FB4F45
:1053700088EB9BE0928381838091CB048C3020F07A
:105380008FEF8093FD0413C091E0980F9093CB04AE
:105390008093FD0490E0FC01EE0FFF1F8E0F9F1F16
:1053A000FC01E955FB4F88EB9BE0928381831092CF
:1053B000CE041092D404DF91CF911F910F91FF90F2
:1053C00008958F929F92AF92BF92CF92DF92EF9209
:1053D000FF92CF93DF93EC01688179818A819B8171
:1053E000611571058105910521F464E279ED8BE584
:1053F00097E02DE133EF41E050E00E94582C490145
:105400005A019B01AC01A7EAB1E40E94772C6B0121
:105410007C01ACEEB4EFA50194010E94852CDC0167
:10542000CB018C0D9D1DAE1DBF1DB7FF03C00197A5
:10543000A109B04888839983AA83BB83BC01CD01AD
:105440009F77DF91CF91FF90EF90DF90CF90BF904B
:10545000AF909F908F9008958F929F92AF92BF923E
:10546000CF92DF92EF92FF9260915B0170915C01AD
:1054700080915D0190915E01611571058105910535
:1054800021F464E279ED8BE597E02DE133EF41E023
:1054900050E00E94582C49015A019B01AC01A7EA37
:1054A000B1E40E94772C6B017C01ACEEB4EFA50156
:1054B00094010E94852CDC01CB018C0D9D1DAE1D3D
:1054C000BF1DB7FF03C00197A109B04880935B01DE
:1054D00090935C01A0935D01B0935E01BC01CD018E
:1054E0009F77FF90EF90DF90CF90BF90AF909F900D
:1054F0008F90089560935B0170935C0180935D01D0
:1055000090935E010895FC0188279927E8942191E2
:105510002032E9F3293010F02E30C8F32B3241F05D
:105520002D3239F4689404C00E94042B820F911D1F
:10553000219120532A30C0F31EF4909581959F4FFE
:1055400008951F93FC0199278827BC01E8941191C5
:105550001032E9F3193010F01E30C8F31B3251F04D
:105560001D3249F4689406C00E94EF2A610F711D34
:10557000811D911D119110531A30B0F33EF4909596
:105580008095709561957F4F8F4F9F4F1F91089524
:10559000FA01A191B081009719F41097E1F0CD01C3
:1055A000DC01CD010D90002011F4C00113C0FB01FE
:1055B0002191222319F02015D9F7F3CFFB01219176
:1055C000201519F41E92119606C02223C1F70D90E2
:1055D0000020A1F7D001FA01A193B0830895592FBB
:1055E000482F372F262F660F771F881F991F660FAA
:1055F000771F881F991F620F731F841F951F660FE7
:10560000771F881F991F08957AE0979F902D879F95
:10561000802D910D112408950E944E2B08F481E0F5
:105620000895E89409C097FB3EF490958095709595
:1056300061957F4F8F4F9F4F9923A9F0F92F96E9DE
:10564000BB279395F695879577956795B795F11153
:10565000F8CFFAF4BB0F11F460FF1BC06F5F7F4FF0
:105660008F4F9F4F16C0882311F096E911C0772302
:1056700021F09EE8872F762F05C0662371F096E80B
:10568000862F70E060E02AF09A95660F771F881FDA
:10569000DAF7880F9695879597F90895990F00087E
:1056A000550FAA0BE0E8FEEF16161706E807F907F4
:1056B000C0F012161306E407F50798F0621B730B8F
:1056C000840B950B39F40A2661F0232B242B252B10
:1056D00021F408950A2609F4A140A6958FEF811DB3
:1056E000811D08950E94852B0C94F62B0E94E82BB7
:1056F00038F00E94EF2B20F0952311F00C94DF2B53
:105700000C94E52B11240C942A2C0E94072C70F386
:10571000959FC1F3950F50E0551F629FF001729F56
:10572000BB27F00DB11D639FAA27F00DB11DAA1F65
:10573000649F6627B00DA11D661F829F2227B00DB2
:10574000A11D621F739FB00DA11D621F839FA00D3D
:10575000611D221F749F3327A00D611D231F849F8D
:10576000600D211D822F762F6A2F11249F575040E4
:105770009AF0F1F088234AF0EE0FFF1FBB1F661F5F
:10578000771F881F91505040A9F79E3F510580F028
:105790000C94DF2B0C942A2C5F3FE4F3983ED4F357
:1057A000869577956795B795F795E7959F5FC1F7CC
:1057B000FE2B880F911D9695879597F9089597F977
:1057C0009F6780E870E060E008959FEF80EC0895A7
:1057D00000240A94161617061806090608950024D0
:1057E0000A9412161306140605060895092E03944A
:1057F000000C11F4882352F0BB0F40F4BF2B11F4BE
:1058000060FF04C06F5F7F4F8F4F9F4F089557FD1C
:105810009058440F551F59F05F3F71F04795880F1E
:1058200097FB991F61F09F3F79F0879508951216B5
:1058300013061406551FF2CF4695F1DF08C0161661
:1058400017061806991FF1CF869571056105089412
:105850000895E894BB2766277727CB0197F9089529
:10586000DC01CB01FC01F999FECF06C0F2BDE1BD20
:10587000F89A319600B40D9241505040B8F708950F
:10588000DC01CB0103C02D910E944B2C41505040B4
:10589000D0F70895262FF999FECF1FBA92BD81BD8A
:1058A00020BD0FB6F894FA9AF99A0FBE01960895A2
:1058B000052E97FB1EF400940E946F2C57FD07D015
:1058C0000E94C12C07FC03D04EF40C946F2C509511
:1058D0004095309521953F4F4F4F5F4F08959095DC
:1058E0008095709561957F4F8F4F9F4F08950E94CF
:1058F000E32CA59F900DB49F900DA49F800D911D4A
:1059000011240895B7FF0C94772C0E94772C821BEA
:10591000930B08952F923F924F925F926F927F92D6
:105920008F929F92AF92BF92CF92DF92EF92FF92AF
:105930000F931F93CF93DF93CDB7DEB7CA1BDB0B5B
:105940000FB6F894DEBF0FBECDBF09942A88398800
:1059500048885F846E847D848C849B84AA84B98407
:10596000C884DF80EE80FD800C811B81AA81B98113
:10597000CE0FD11D0FB6F894DEBF0FBECDBFED0127
:105980000895A1E21A2EAA1BBB1BFD010DC0AA1F80
:10599000BB1FEE1FFF1FA217B307E407F50720F098
:1059A000A21BB30BE40BF50B661F771F881F991F13
:1059B0001A9469F760957095809590959B01AC015C
:1059C000BD01CF010895A29FB001B39FC001A39F65
:1059D000700D811D1124911DB29F700D811D112428
:1059E000911D08955058BB27AA270E940A2D0C9498
:1059F000F62B0E94E82B38F00E94EF2B20F039F4B0
:105A00009F3F19F426F40C94E52B0EF4E095E7FB88
:105A10000C94DF2BE92F0E94072C58F3BA1762076A
:105A200073078407950720F079F4A6F50C94292CC8
:105A30000EF4E0950B2EBA2FA02D0B01B9019001A9
:105A40000C01CA01A0011124FF27591B99F0593FED
:105A500050F4503E68F11A16F040A22F232F342F35
:105A60004427585FF3CF469537952795A795F04083
:105A70005395C9F77EF41F16BA0B620B730B840B98
:105A8000BAF09150A1F0FF0FBB1F661F771F881F50
:105A9000C2F70EC0BA0F621F731F841F48F48795A8
:105AA00077956795B795F7959E3F08F0B0CF93959A
:105AB000880F08F09927EE0F9795879508950E9413
:105AC000732D0C94F62B0E94EF2B58F00E94E82BBC
:105AD00040F029F45F3F29F00C94DF2B51110C9416
