:100000000C940D020C9435020C9435020C943502BC
:100010000C9435020C9435020C9435020C94350284
:100020000C9435020C9435020C9424260C949326DF
:100030000C9435020C9435020C9435020C94350264
:100040000C9435020C94C5280C9435020C9435029E
:100050000C9435020C9435020C9435020C94DA257C
:100060000C9435020C9435020C9435020C94350234
:100070000C9435020C9435020C9435020C94350224
:100080000C9435020C9435020C9435020C94350214
:100090000C9481290C9435020C9435020C94350291
:1000A0000C9435020C9435020C9435026E2F6100CD
:1000B0004F4B004F4B004F4B00427574746F6E20D6
:1000C000646F6573206E6F742066697420696E209A
:1000D0004D656D6F7279004F757470757420646F23
:1000E0006573206E6F742066697420696E204D659B
:1000F0006D6F727900375365676D656E7420646F3C
:100100006573206E6F742066697420696E204D657A
:100110006D6F727921004D46537465707065722061
:10012000646F6573206E6F742066697420696E2039
:100130004D656D6F727900537465707065722064DF
:100140006F6573206E6F742066697420696E204D30
:10015000656D6F72792100536572766F20646F65EB
:1001600073206E6F742066697420696E204D656D12
:100170006F72792100456E636F6465727320646FDE
:100180006573206E6F742066697420696E204D65FA
:100190006D6F7279004C434420646F6573206E6FFD
:1001A000742066697420696E204D656D6F727921C7
:1001B00000416E616C6F67496E20646F6573206EDD
:1001C0006F742066697420696E204D656D6F727959
:1001D000004F757470757453686966746572206435
:1001E0006F6573206E6F742066697420696E204D90
:1001F000656D6F727900496E7075745368696674C5
:10020000657220646F6573206E6F74206669742058
:10021000696E204D656D6F727900446967496E4D56
:10022000757820646F6573206E6F74206669742022
:10023000696E204D656D6F7279004661696C7572EB
:1002400065206F6E2072656164696E6720636F6EF2
:10025000666967004D6F6269466C69676874204D16
:100260006963726F00070605040100080A0B0C0D94
:10027000097E306D79335B5F707F7B771F0D3D4F5B
:100280004700000000000000000000000000000027
:10029000000000000000000000000000008001805D
:1002A000257E306D79335B5F707F7B000000090035
:1002B0000000777F4E7E4F475F37307C000E007620
:1002C0007E677E775B463E000000336D4E137800FC
:1002D00008007D1F0D3D4F477B3730380006001565
:1002E0001D6773055B0F1C000000276D4E00780032
:1002F00000446576696365427566666572204F766F
:100300006572666C6F772100080B00020202000024
:100310000904000001020200000524001001052468
:1003200001010104240206052406000107058103DA
:1003300010004009040100020A0000000705020243
:100340004000000705830240000004030904120175
:100350000002EF0201404F1B06920001010203015F
:10036000537061726B46756E00537061726B4675A7
:100370006E2050726F204D6963726F004C6F616424
:10038000696E6720636F6E666967206661696C6578
:10039000640000000000240027002A002D00300027
:1003A00000000000250028002B002E003100000076
:1003B00000002300260029002C002F000404040460
:1003C00004030405020202020403020202020606FA
:1003D00006060606040402020204040408020110D0
:1003E000408040102040804080080204018040206E
:1003F000100201108010204040200000000200097F
:100400000F0000030401000C0000000000000000C9
:100410000000000000000000D32A11241FBECFEF0F
:10042000DAE0DEBFCDBF11E0A0E0B1E0E8E7F7E63B
:1004300002C005900D92A43FB107D9F728E0A4EFC0
:10044000B1E001C01D92A533B207E1F712E0CDE0A3
:10045000D2E004C02197FE010E943832CC30D1078F
:10046000C9F70E94442B0C94BA330C940000AC01E1
:1004700010921A079091EA078091E907FA01BF01EB
:10048000641B750B20911A07308130931A07931360
:1004900004C0921302C010921A073081311104C0B7
:1004A000921721F0CB0108953817D1F33196E7CF99
:1004B0000F931F93CF93DF938091DE07882309F476
:1004C00046C0D0E0C0E0813029F482E08093DE07AE
:1004D000CEE1D7E08091DF07882341F1209721F416
:1004E000C091E307D091E4078E01CE010E9437024C
:1004F000892B29F42196F80180818111F5CFF8012B
:100500008081882309F1C8010E943702F801E80FB1
:10051000F91F8081882311F010823196F093E4074F
:10052000E093E3071093E2070093E1078091E1076E
:100530009091E207892B59F081E08093DF07DF91EA
:10054000CF911F910F91089510E000E0EBCF80E074
:10055000F6CF0E945802882351F081E08093DF0794
:100560008093E0078091E1079091E207089510924F
:10057000E00790E080E00895FC0180910105882368
:1005800011F13FB7F89482E08093E9002091F200E6
:10059000822F90E01816190614F481E090E0882369
:1005A00039F0289844E6409300054091F1004083DB
:1005B000222339F02091F200211103C02BE6209371
:1005C000E8003FBF08958FEF9FEF08952FB7F8948D
:1005D00083E08093E9009091E800892F807295FF75
:1005E00004C09091F20080E4891B2FBF0895809190
:1005F000F80481110DC082E08093F40484E08093BC
:10060000F5041092F7041092F60481E08093F80448
:1006100084EF94E0089581508F3008F047C0E82FB0
:10062000F0E0EB5EFC4F0C943832320336032403C7
:100630002A032E0356035603560339033F0343038D
:1006400047034D0356035103809180008F778093B9
:1006500080000895809180008F7DF9CF8091800087
:10066000877FF5CF84B58F7784BD089584B58F7D5E
:10067000FBCF809190008F778093900008958091B8
:1006800090008F7DF9CF80919000877FF5CF80918A
:10069000C0008F778093C00008958091C0008F7D47
:1006A000F9CF8091C200877F8093C2000895CF93D5
:1006B000DF93282F30E0F901E650FC4F8491F901D7
:1006C000E552FC4FD491F901E454FC4FC491CC2382
:1006D000A1F081110E940B03EC2FF0E0EE0FFF1F41
:1006E000E255FC4FA591B491EC91ED2381E090E0AF
:1006F00009F480E0DF91CF91089580E090E0FACF97
:100700001F93CF93DF93282F30E0F901E650FC4F81
:100710008491F901E552FC4FD491F901E454FC4F66
:10072000C491CC23A9F0162F81110E940B03EC2F4A
:10073000F0E0EE0FFF1FE056FC4FA591B4918FB78C
:10074000F894EC91111108C0D095DE23DC938FBF93
:10075000DF91CF911F910895DE2BF8CFCF93DF93D8
:1007600090E0FC01E552FC4F249184549C4FFC0125
:1007700084918823C9F090E0880F991FFC01EE5600
:10078000FC4FA591B491FC01E056FC4FC591D4916A
:1007900061110DC09FB7F8948C91209582238C93A2
:1007A0008881282328839FBFDF91CF9108956230ED
:1007B00051F49FB7F8943C91822F809583238C93BA
:1007C000E8812E2BEFCF8FB7F894EC912E2B2C9342
:1007D0008FBFEACF1F93CF93DF93182FEB0161E018
:1007E0000E94AE03209739F460E0812FDF91CF9112
:1007F0001F910C948003CF3FD10511F461E0F5CF38
:10080000E12FF0E0E650FC4FE491E150EF3008F0CA
:100810007FC0F0E0E25FFB4F0C9438321D042504EA
:100820002A0434043E0488048804880448045204DA
:100830005C046604730488047B0484B5806884BD0A
:10084000C7BDDF91CF911F91089584B5806284BDAB
:10085000C8BDF7CF80918000806880938000D093DE
:100860008900C0938800EDCF8091800080628093E2
:100870008000D0938B00C0938A00E3CF80918000EA
:10088000886080938000D0938D00C0938C00D9CF76
:1008900080919000806880939000D0939900C093DD
:1008A0009800CFCF80919000806280939000D09389
:1008B0009B00C0939A00C5CF809190008860809380
:1008C0009000D0939D00C0939C00BBCF8091C0004E
:1008D00080688093C0008091C0008F7B8093C000AF
:1008E000C093CF00AECF8091C00080628093C000E3
:1008F000C093D000A6CF8091C20088608093C200D0
:100900008091C2008B7F8093C200C093D20099CFA8
:10091000C038D1050CF072CF67CF3FB7F894809103
:10092000F0049091F104A091F204B091F30426B583
:10093000A89B05C02F3F19F00196A11DB11D3FBF17
:10094000BA2FA92F982F8827BC01CD01620F711DE6
:10095000811D911D42E0660F771F881F991F4A95E0
:10096000D1F708958F929F92AF92BF92CF92DF926C
:10097000EF92FF924B015C010E948D046B017C01A0
:100980000E948D046C197D098E099F09683E734091
:1009900081059105A8F321E0821A9108A108B10808
:1009A00088EEC80E83E0D81EE11CF11C811491046E
:1009B000A104B10429F7FF90EF90DF90CF90BF9092
:1009C000AF909F908F9008952FB7F8946091EC04AA
:1009D0007091ED048091EE049091EF042FBF089583
:1009E0004091950450919604209193043091940481
:1009F00042175307B4F49091E8009570E1F3909199
:100A0000E80092FD19C08093F100809195049091C7
:100A1000960401968F739927892B19F48EEF809392
:100A2000E800809195049091960401969093960425
:100A30008093950481E0089580E00895DF92EF921D
:100A4000FF920F931F93CF93DF93D82E8A01EB0170
:100A50007B01E40EF51ECE15DF0559F0D7FE12C05E
:100A6000FE0184910E94F00421968111F4CF0FEFD2
:100A70001FEFC801DF91CF911F910F91FF90EF9071
:100A8000DF9008958881EECF0F931F93CF93DF936C
:100A90001F92CDB7DEB782E0898342E450E068E080
:100AA00073E080E80E941E050E94F702DC011296A6
:100AB0000D911C910115110589F0D801ED91FC9162
:100AC0000280F381E02DBE016F5F7F4FC801099561
:100AD00097FD04C0F80100851185ECCF89810F9046
:100AE000DF91CF911F910F910895615030F02091C7
:100AF000F100FC0120830196F8CF289884E68093CA
:100B000000050895DC01ED91FC910190F081E02D4C
:100B10000994EF92FF920F931F93CF93DF938C0171
:100B20007B01D0E0C0E0F701EC0FFD1F649166236C
:100B300061F0D801ED91FC910190F081E02DC801A8
:100B40000995892B11F02196EECFCE01DF91CF913F
:100B50001F910F91FF90EF900895AF92BF92CF92A7
:100B6000DF92EF92FF920F931F93CF93DF936C016D
:100B70007B018B01040F151FEB015E01AE18BF084E
:100B8000C017D10759F06991D601ED91FC91019000
:100B9000F081E02DC6010995892B79F7C501DF9118
:100BA000CF911F910F91FF90EF90DF90CF90BF906A
:100BB000AF9008958F929F92AF92BF92CF92DF92A3
:100BC000EF92FF920F931F93CF93DF936C017B0102
:100BD0008A0180911601882309F45CC08091010587
:100BE000882309F457C08091990480FF05C0809143
:100BF000E00082608093E000E801B12C8AEFA82E2B
:100C000093E0892E2AE3922E209711F4BB20D9F18C
:100C10000E94E60281110AC0AA94AA20D9F161E0DB
:100C200070E080E090E00E94B204EECF8C171D06C9
:100C300011F00CF08C2F9FB7F8948092E90020916E
:100C4000E80025FD02C09FBFDFCF282F30E0C21B88
:100C5000D30BF701815020F041914093F100FACF7E
:100C6000E20EF31EBB2021F09092E800B12CEBCFF6
:100C70008091E80085FDE7CF9092E800BB24B39413
:100C8000209709F3F3CF5D9884E6809398041016BB
:100C900011063CF081E090E0F6019383828310E03E
:100CA00000E0C801DF91CF911F910F91FF90EF906D
:100CB000DF90CF90BF90AF909F908F900895CF938B
:100CC000DF931F92CDB7DEB76983DC01ED91FC9114
:100CD0000280F381E02D41E050E0BE016F5F7F4F65
:100CE00009950F90DF91CF91089583E08093E900FB
:100CF0008091F200882319F08AE38093E800089538
:100D00000E94E60290E00895CF93DF931F92CDB743
:100D1000DEB7FC018485958597FD08C02FEF3FEF76
:100D2000358724870F90DF91CF910895CE010196EA
:100D30000E94BC02019719F4898190E0F3CF8FEFF4
:100D40009FEFF0CF0F931F93CF93DF931F92CDB7F9
:100D5000DEB78C01FC018485958597FF0BC0CE0121
:100D600001960E94BC02019771F4898190E0F8011C
:100D700095878487F801848595850F90DF91CF91C1
:100D80001F910F9108958FEF9FEFF1CFFC018485A4
:100D9000958597FD0BC09FB7F89482E08093E9009A
:100DA0008091F2009FBF90E0019608959FB7F8945C
:100DB00082E08093E9008091F2009FBF90E0089567
:100DC000089520914804260F3327331F213231051F
:100DD000ECF420912805FC0190E080E0243069F0DB
:100DE00082E00895A09148042191AC014A5D5B4FD7
:100DF000A40FB52FB11D2C930196861798F38091FF
:100E00004804680F6093480480E0089581E00895E5
:100E10001092280581E0809327051092020561E079
:100E200082E00E94800361E083E00E948003E9EB9E
:100E3000F0E080818E7F808380818D7F808388E455
:100E40008093B80085E48093BC000895CF93DF932E
:100E500091E0909325048823B9F0C091B800D09117
:100E6000BA008091BC008A7B8093BC0060E082E085
:100E70000E94800360E083E00E9480030E940807D4
:100E8000D093BA00C093B800DF91CF9108958F92AC
:100E90009F92AF92BF92CF92DF92EF92FF920F9309
:100EA0001F93CF93DF93D0915105D13208F0D7C073
:100EB000182FC09150050E948D046B017C01809118
:100EC000280581116BC082E08093280510932705C7
:100ED0008FEF8093260510922505D0932405A0E37B
:100EE000B5E0E4E0F5E080E0D81391C0109203058E
:100EF00080910305CC0FC82BC09303058091020598
:100F0000813009F088C0109202050E948D046B01A7
:100F10007C01809103058093BB0080912A0590910C
:100F20002B05A0912C05B0912D05892B8A2B8B2B9D
:100F3000A1F00E948D0400912A0510912B052091AB
:100F40002C0530912D056C197D098E099F09061716
:100F500017072807390708F442C08091BC0083FDB9
:100F6000D8CF85EC8093BC000E948D046B017C017E
:100F700080912805823009F450C0809126058F3F6A
:100F800009F46FC080912605803209F46CC080910D
:100F90002605803309F469C084E026C080912A05C3
:100FA00090912B05A0912C05B0912D05892B8A2BB2
:100FB0008B2B09F484CF0E948D0480902A05909099
:100FC0002B05A0902C05B0902D056C197D098E097C
:100FD0009F0986169706A806B90608F070CF80917B
:100FE00029050E94260785E010922F0510925105D1
:100FF00010922E05DF91CF911F910F91FF90EF90EE
:10100000DF90CF90BF90AF909F908F9008959D916B
:1010100091938F5F69CF85EEA5CF80912A0590913E
:101020002B05A0912C05B0912D05892B8A2B8B2B9C
:1010300009F49ECF0E948D0400912A0510912B0582
:1010400020912C0530912D056C197D098E099F0981
:10105000061717072807390708F08ACFC0CF81E0A5
:10106000C3CF80E0C1CF82E0BFCF83E0BDCF81E0BE
:101070000C944707089508950895E0912404809101
:101080002304E81730F4F0E0ED5FFB4F808190E03F
:1010900008958FEF9FEF0895909124048091230489
:1010A0002FEF3FEF981748F4E92FF0E0ED5FFB4F8B
:1010B000208130E09F5F90932404C90108958091BE
:1010C000230490912404891B990B0895CF92DF92F9
:1010D000EF92FF920F931F93CF93DF937C01CB018D
:1010E0008A0120912E05222389F0EB016B01C40EA9
:1010F000D51ECC15DD0569F06991D701ED91FC9104
:101100000190F081E02DC7010995F3CF642F0E9473
:10111000E106C801DF91CF911F910F91FF90EF90F1
:10112000DF90CF900895CF93DF931F92CDB7DEB7B6
:10113000698320912E052223F9F020915105203258
:1011400058F021E030E0FC013383228390E080E01E
:101150000F90DF91CF91089580912F05E82FF0E057
:10116000E05DFA4F998190838F5F80932F05809384
:10117000510581E090E0ECCF61E0CE0101960E9444
:10118000E106F7CFCF93C82F682F646080EB96E01D
:101190000E9493086C2F70E06B7F80EB96E0CF91FC
:1011A0000C9493080F931F93CF93DF938C01C62F5A
:1011B000D42FFC01848191E090932E0580935005FB
:1011C00010922F0510925105862F807F842B9585D4
:1011D000892B0E94C208F0E1CF9FC0011124F801C1
:1011E0009585892B8D2B0E94C208DF91CF911F918D
:1011F0000F910C943708CF93DF93CDB7DEB72897C4
:101200000FB6F894DEBF0FBECDBF28E0EBE4F1E0EF
:10121000DE01119601900D922A95E1F7FC012385DC
:10122000241710F44FEF420F50E0440F551F21E0F8
:1012300030E02C0F3D1F420F531FFA012081620F37
:10124000606840E028960FB6F894DEBF0FBECDBFB1
:10125000DF91CF910C94D208CF93DF93EC0140E063
:1012600061E00E94D2088BE39FE10197F1F7898545
:10127000882339F040E060E0CE01DF91CF910C94FB
:10128000FB08DF91CF91089541E00E94D20881E0F0
:1012900090E00895FC01248131E030932E052093E5
:1012A000500510922F0510925105607F8585862B81
:1012B0000E94C2080C943708AF92BF92CF92DF927F
:1012C000EF92FF920F931F93CF93DF936C01FC017A
:1012D000848191E090932E058093500510922F0504
:1012E00010925105EB01042F10E05B01A00EB11E1E
:1012F000F12CEE24E394CA15DB0541F18991F60146
:1013000095859160807F892B0E94C208FE013197EC
:101310002081F0E12F0290011124F6018585816082
:10132000822B0E94C208F394F7E0FF1520F780E0BB
:101330000E944707F6018481E0922E0580935005B4
:1013400010922F0510925105F12CD5CF0E9437082D
:10135000C8010197DF91CF911F910F91FF90EF90FE
:10136000DF90CF90BF90AF90089590E080E0089517
:10137000CF93DF93FC012381222359F1EC0161E03B
:1013800084810E94AE0361E08D810E94AE038B8157
:10139000843011F08830B1F461E08E810E94AE0398
:1013A00061E08F810E94AE038FA58F3F91F061E0D5
:1013B0000E94AE036EA581E068278FA5DF91CF91D3
:1013C0000C948003833011F0863071F761E08E81D8
:1013D000E9CFDF91CF910895CF93DF93FC01238173
:1013E0002223A9F0EC010190F081E02D0480F58129
:1013F000E02D60E009958FA58F3F49F061E00E94E4
:10140000AE036EA58FA5DF91CF910C948003DF9181
:10141000CF910895DC01ED91FC91248135814770D5
:1014200055276627772741505109610971094730CF
:1014300051056105710560F4FA01EF5DF54F0C94FB
:1014400038322B0A2D0A2F0A310A330A350A370A95
:1014500061E0F901099465E0FCCF64E0FACF66E051
:10146000F8CF62E0F6CF6AE0F4CF68E0F2CF69E04F
:10147000F0CFCF93DF93EC01CB01BA0126E030E04F
:1014800040E050E00E94B93162307105810591055C
:1014900089F16CF46115710581059105D1F0613018
:1014A000710581059105F9F0DF91CF9108956430C0
:1014B00071058105910561F124F1653071058105A2
:1014C000910591F7E881F9810480F581E02D66E0CE
:1014D00006C0E881F9810480F581E02D64E0CE0149
:1014E000DF91CF910994E881F9810480F581E02DA5
:1014F00065E0F5CFE881F9810480F581E02D61E0B8
:10150000EECFE881F9810480F581E02D63E0E7CF3B
:10151000E881F9810480F581E02D62E0E0CFDC0113
:10152000ED91FC910480F581E02D437055276627ED
:101530007727423051056105710571F0433051053F
:101540006105710559F0413051056105710511F0D2
:1015500065E0099466E0FDCF6AE0FBCF69E0F9CF72
:10156000CF93DF93EC01CB01BA0123E030E040E000
:1015700050E00E94B931613071058105910599F003
:101580006230710581059105A9F0672B682B692BE5
:10159000C1F4E881F9810480F581E02D64E0CE0199
:1015A000DF91CF910994E881F9810480F581E02DE4
:1015B00061E0F5CFE881F9810480F581E02D62E0FA
:1015C000EECFDF91CF910895DC01ED91FC91048085
:1015D000F581E02D43705527662777274230510566
:1015E0006105710571F0433051056105710559F0D0
:1015F000413051056105710511F062E0099463E025
:10160000FDCF61E0FBCF60E0F9CFCF93DF93EC013A
:10161000E881F9810480F581E02D8A8160E0811103
:1016200062E0CE010995E881F9810480F581E02D21
:101630008A8161E0811163E0CE0109958CA59DA5A9
:101640008230910538F0880F991F880F991F0597F0
:101650000197F1F7E881F9810480F581E02D8A8115
:1016600060E0811162E0CE01DF91CF910994CF93C8
:10167000DF93EC0120E030E0A9016C897D898E893F
:101680009F890E94533318162CF4E8A9F9A9DF9119
:10169000CF910994EAA9FBA9FACFCF92DF92EF92FA
:1016A000FF920F931F93CF93DF93DC011396CC919E
:1016B000C43039F0C83059F1C33019F0C63049F19F
:1016C000C2E08C010C5F1F4FF12CE12CC62ED12CF7
:1016D000D1E0F8016481C6010E2C02C09595879572
:1016E0000A94E2F780FD6D270F5F1F4F80810E94F3
:1016F0008003BFEFEB1AFB0AEC1658F3DF91CF9192
:101700001F910F91FF90EF90DF90CF900895C4E06C
:10171000D8CFC3E0D6CFDC011396EC911397E93014
:1017200008F038C0F0E0E956F44F0C943832A00BC2
:10173000A60BAC0BB20BB80BCA0BBE0BCA0BC40B7F
:10174000ED91FC910084F185E02D0994ED91FC91DF
:101750000284F385E02DF9CFED91FC910484F585A9
:10176000E02DF3CFED91FC910684F785E02DEDCFD0
:10177000ED91FC910088F189E02DE7CFED91FC918E
:101780000288F389E02DE1CFED91FC910488F58981
:10179000E02DDBCF08954F925F926F927F928F92F0
:1017A0009F92AF92BF92CF92DF92EF92FF920F93F0
:1017B0001F93CF93DF93EC01C888D988EA88FB8810
:1017C0008C859D85AE85BF85C81AD90AEA0AFB0AB1
:1017D0006C897D898E899F899B01AC010E94E530CF
:1017E0004B015C016C8D7D8D8E8D9F8D9B01AC01BD
:1017F0000E943F329B01AC01C501B4010E94AB3293
:101800000E941D33C114D104E104F10409F0B1C0F8
:1018100062307105810591050CF0CBC01CA21DA2A0
:101820001EA21FA21C8A1D8A1E8A1F8A1CAA1DAA0C
:101830001EAA1FAADF91CF911F910F91FF90EF90E9
:10184000DF90CF90BF90AF909F908F907F906F90E0
:101850005F904F9008951016110612061306B4F407
:101860006C157D058E059F051CF42A812111A1C0F0
:101870009B01AC0188279927DC01821B930BA40BE9
:10188000B50B8CAB9DABAEABBFAB93C001151105D7
:101890002105310509F48DC06C157D058E059F0568
:1018A0000CF087C08A81882309F483C03095209585
:1018B000109501951F4F2F4F3F4F0CAB1DAB2EAB1B
:1018C0003FAB77C0011511052105310509F471C041
:1018D0008824992454018C189D08AE08BF08681507
:1018E00079058A059B050CF064C08A81811161C06D
:1018F000DDCFCCACDDACEEACFFACA7019601C701EF
:10190000B6010E943F322B013C01C501B4010E9487
:10191000863020E030E040E850E40E94E53020E0EE
:1019200030E040E85FE30E943F329B01AC01C3011D
:10193000B2010E94AB329B01AC01C701B6010E940B
:101940003E323B016C01FE01E05CFF4FE080F18024
:10195000028113819701A8010E945333181614F4D1
:1019600073018601C701D8018CAF9DAFAEAFBFAF89
:101970003AC00CA91DA92EA93FA91C141D041E04C0
:101980001F040CF468CF10161106120613060CF093
:1019900099CF0027112798010C191D092E093F091D
:1019A00060177107820793070CF062CF2A8121111B
:1019B0005FCF8CA89DA8AEA8BFA881149104A104F4
:1019C000B10409F096CF88AD99ADAAADBBAD8CAF8F
:1019D0009DAFAEAFBFAF81E01C141D041E041F04F9
:1019E0000CF080E08A833FEF831A930AA30AB30ABC
:1019F0008CAA9DAAAEAABFAACCACDDACEEACFFAC63
:101A0000C701B6010E9424336CA37DA38EA39FA3BC
:101A1000A701960160E074E284E799E40E94AB328A
:101A20006C8B7D8B8E8B9F8B2A81211103CF9058DD
:101A30006C8B7D8B8E8B9F8BFDCE8F929F92AF9206
:101A4000BF92EF92FF920F931F93CF937C018B0174
:101A5000C42F0E94E404F80180809180A280B380AA
:101A6000DC01CB0188199909AA09BB094C2F50E068
:101A700070E060E084179507A607B70748F0F70104
:101A800009950E94E404F801608371838283938343
:101A9000CF911F910F91FF90EF90BF90AF909F90CB
:101AA0008F9008952091010430910204280F311D78
:101AB00081E02139314008F080E00895FC01848103
:101AC0008823E1F08181811119C081E081838281C5
:101AD0009381FC0140895189628973894036594755
:101AE0006E4F7F4F59F040E659E76EEF7FEFFC01F4
:101AF000408B518B628B738B0C94CB0B08954F9260
:101B00005F926F927F928F929F92AF92BF92DF927D
:101B1000EF92FF920F931F93CF93DF93D12C08E89E
:101B200010E0B8E5EB2EB2E0FB2EC4EB4C2E512CAE
:101B3000612C712C80917002D81608F096C0ED2DA2
:101B4000F0E0EE0FFF1FE659FD4FC081D18189897A
:101B50009A89AB89BC894D855E856F8578898417A4
:101B60009507A607B70709F47AC0481759076A0707
:101B70007B070CF076C00197A109B109898B9A8B7C
:101B8000AB8BBC8BA989BA89A03282E0B807ACF5CF
:101B90002B854801821A910827FD9394880C991C83
:101BA000880C991C092C000CAA08BB082C85C701BD
:101BB000821B910927FD93959C01220F331F220F51
:101BC000331F032E000C440B550B281939094A0901
:101BD0005B09A53BB10514F0A4EBB0E0B7FF02C070
:101BE000B0E0A0E00E94E331A30192010E94B9316C
:101BF000820E931EA41EB51ED401EA85EC3078F542
:101C00002B85C801821B910927FD93959C01220F0A
:101C1000331F220F331FA217B3077CF02C85C70197
:101C2000821B910927FD93959C01220F331F220FE0
:101C3000331FA217B3070CF49D0122503109220F64
:101C4000331F4FB7F8948E2F90E0FC01EE0FFF1F6B
:101C5000E80FF91FE359FB4F328321834FBFD39421
:101C600069CF0196A11DB11D89CFDF91CF911F9141
:101C70000F91FF90EF90DF90BF90AF909F908F906B
:101C80007F906F905F904F9008958BE891E001975F
:101C9000F1F70895EF92FF920F931F93CF93DF9385
:101CA000EC01162FE42EFF24F394442311F080E876
:101CB000F82E08E061E08A810E94AE030E94450E82
:101CC00061E08F2D812309F060E089810E94AE03DD
:101CD0000E94450E60E08A810E94AE030E94450E7C
:101CE000EE2081F1110F015029F761E08A810E94F5
:101CF000AE0360E089810E94AE030E94450E60E061
:101D00008A810E94AE030E94450E89810E9457037A
:101D1000182F811104C061E089810E94AE030E94E6
:101D2000450E61E08A810E94AE030E94450E81E06B
:101D3000111101C080E0DF91CF911F910F91FF90B1
:101D4000EF9008951695CFCFCF93DF93EC0161E02C
:101D500089810E94AE030E94450E60E08A810E9444
:101D6000AE030E94450E60E089810E94AE03DF91C0
:101D7000CF910C94450E61E0FC0181810E94AE037D
:101D80000C94450EAF92BF92CF92DF92EF92FF92EA
:101D90000F931F93CF93DF93EC01162F042FAC8882
:101DA0000E94BB0E40E060E4CE010E944A0ECE01CC
:101DB0000E94A40E10958C89180FC02ED12CE12EF4
:101DC000F12C84E0B12EA81631F0F601EE0DFF1DC6
:101DD000E557FE4FB080CE010E94BB0E60EC6B0D4C
:101DE00040E0CE010E944A0E8C89CE0CDF1C8C157F
:101DF0001D0414F4082F011B10E0DD24DA94D00E2A
:101E0000EC0EFD1E011781F084E0ED2DE11BA81200
:101E100001C0E12FEE0DFF2DF11D41E06481CE01E7
:101E20000E944A0E1F5FEECFCE01DF91CF911F912E
:101E30000F91FF90EF90DF90CF90BF90AF900C94F8
:101E4000A40EEF92FF921F93CF93DF93EC01162F16
:101E50008C8180FF10C0603170F46D837E0184E05E
:101E6000E80EF11C612F617089910E948003169524
:101E7000EC16FD06B9F7DF91CF911F91FF90EF901F
:101E80000895DC01842FE0915702F09158023097B9
:101E900019F04D915C91099408954F925F926F9261
:101EA0007F928F929F92AF92BF92CF92DF92FF92DA
:101EB0000F931F93CF93DF93F12C80915102F8166B
:101EC00008F0EAC0EF2DF0E0EE0FFF1FE15CFD4FE0
:101ED000C081D1818A81882309F4B2C088810E949F
:101EE00057038C0189810E9457036C010E94E4040E
:101EF0004B015C0181E090E0CD2811F090E080E0A2
:101F0000880F991F21E0012B09F020E0922F982BD8
:101F10004B8D5C8D6D8D7E8D95018401041B150BA1
:101F2000260B370BB901A80145365105610571052E
:101F300008F488C08885823008F484C08B8E9C8E1B
:101F4000AD8EBE8E81508887EE859E1709F445C000
:101F5000888503E310E0873010F401E010E06D8520
:101F600024E0E202F0011124492F092E000C550B48
:101F7000E42BF52BE458FE4F708170039001719FA4
:101F8000300D1124062E02C0220F331F0A94E2F7EF
:101F9000EF85F8892E0F3F1F388B2F874C0F5D1F61
:101FA000FA0141854423C1F04B885C886D887E88A6
:101FB0004F8A588E698E7A8E8B8A9C8AAD8ABE8AA9
:101FC00002C0359527956A95E2F73A8B298B8C30BC
:101FD00008F08BE08F5F88879E8709891A898D8139
:101FE0009E810817190761F19801281B390BC90157
:101FF000E0913D02F0913E026901CC0CDD1C30976E
:1020000009F447C06B817C812F5C3F4F233631053B
:10201000D0F597FD2FC080E00995C00ED11E31E4A8
:10202000C3163FE1D30654F08F85988983709927B2
:10203000988B8F871A8A198A10E000E01E830D831F
:10204000F3943BCF4F89588D698D7A8D950184012A
:10205000041B150B260B370BB901A801453F514056
:102060006105710508F470CF8B8E9C8EAD8EBE8E8F
:1020700018866ACF82E00995C8018C199D09803CB9
:10208000904E94F2DBCF97FD02C081E0C5CF83E094
:10209000F2CF37FDF1CFC1CFDF91CF911F910F91DB
:1020A000FF90DF90CF90BF90AF909F908F907F90E8
:1020B0006F905F904F900895CF92DF92EF92FF92D2
:1020C0000F931F93CF93DF936C017A0180913B02B2
:1020D00090913C02892B31F1D60113968C9100E14D
:1020E00081FD08E0EB01CE25DF2510E0C0FF13C025
:1020F00080913B0290913C02892B69F0E09139027A
:10210000F0913A02309739F0D6014D915C91612FF0
:102110008E2D81700995D695C795F694E7941F5F2B
:102120000113E4CFDF91CF911F910F91FF90EF90BA
:10213000DF90CF900895AF92BF92CF92DF92EF924F
:10214000FF920F931F93CF93DF931F92CDB7DEB70C
:10215000C0903B02D0903C02C114D10409F43FC0AE
:10216000FC01238130E1B32E21FF02C028E0B22E12
:10217000A62E8C01F60185818683F12CE12CBA9480
:102180006B2DC6010E94210FF80182810E94570326
:102190008983F80182810E9457038983EE0CFF1C1A
:1021A000298181E090E0211102C090E080E0E82ADE
:1021B000F92AB110E4CFF6016681C6010E94210F11
:1021C000F801648175816E157F0549F0AA2021F020
:1021D000A701C8010E945C10F801F582E4820F900B
:1021E000DF91CF911F910F91FF90EF90DF90CF90F3
:1021F000BF90AF900895CF93C0E080913802C81788
:1022000068F4EC2FF0E0EE0FFF1FEE5CFD4F61E095
:10221000808191810E949B10CF5FEFCFCF91089575
:10222000E0913002F0913102309751F0DC011396C9
:102230002C911397222321F06D917C9181E00994D8
:102240000895E0913002F0913102309751F0DC01B5
:1022500013962C911397211104C06D917C9180E00D
:10226000099408951F93CF93DF9310E080912F027C
:102270001817F0F4E12FF0E0EE0FFF1FE55FFD4FC0
:10228000C081D1818A810E9457039B81891751F0B7
:1022900091E0811101C090E09B83811105C0CE01C6
:1022A0000E9421111F5FE2CFCE010E941011FACFD0
:1022B000DF91CF911F910895DC015896EC915897CA
:1022C000F0E03396EE0FFF1FE80FF91F56968D9141
:1022D0009C91579720813181821B930B57969C9339
:1022E0008E9356971296EC911297E23108F0E251D4
:1022F000F0E0EB59FD4FE49190917B008E2F880F19
:10230000880F80729F7D892B80937B00E770E0644B
:10231000E0937C0080917A00806480937A008091C1
:102320007A0086FDFCCF90917800809179005896D4
:10233000EC915897F0E03396EE0FFF1FEA0FFB1F6A
:10234000892798278927918380835896EC915897FD
:10235000F0E03396EE0FFF1FEA0FFB1F56968D91AC
:102360009C91579720813181820F931F57969C93A0
:102370008E93569758968C9158978F5F58968C935A
:10238000589758968C915897877058968C930895C3
:10239000CF93C0E080910A02C81760F4EC2FF0E000
:1023A000EE0FFF1FE850FE4F808191810E945C116B
:1023B000CF5FF0CFCF910895CF93C0E080910A0214
:1023C000C817A0F5EC2FF0E0EE0FFF1FE850FE4F0E
:1023D000A081B18156968D919C91579723E0969557
:1023E00087952A95E1F713962D913C911497AC01AE
:1023F000421B530B9A0157FF03C0319521953109B8
:1024000015964C9115974217130609F06CF4149623
:102410009C938E931397E091F601F091F70130971A
:1024200019F06D917C910995CF5FC8CFCF91089538
:102430000E94E4046093C2047093C3048093C404B4
:102440009093C5040895BF92CF92DF92EF92FF92CE
:102450000F931F93CF93DF93EC0160E088810E947C
:102460008003FB800F2D10E00C5F1F4F0C0F1D1F12
:10247000FF20E1F0F801D2908F01C980BA8088E096
:10248000E82E6D2D661F6627661F8B2D0E94800328
:10249000DD0C61E08C2D0E94800360E08C2D0E9499
:1024A0008003EA94E110EDCFFA94E2CF61E08881F5
:1024B000DF91CF911F910F91FF90EF90DF90CF9020
:1024C000BF900C9480039F92AF92BF92CF92DF9205
:1024D000EF92FF920F931F93CF93DF93EC01C62EE1
:1024E00061E08B810E94800361E08A810E94800309
:1024F00010E08D81181708F03FC0DB80BC8087E0BA
:10250000E82EF12C00E061E08D2D0E9480038B2DE0
:102510000E9457030E2C01C0880F0A94EAF7082B7B
:1025200060E08D2D0E94800381E0E81AF10858F7E1
:102530005E01A10EB11CF501D780D016D9F0CC20D8
:10254000B9F0912E990C990C990CE02EF12C8D2D4F
:102550008E2580FF07C04E2D4170692D6F0DCE0175
:102560000E94410FD694E694F394F8E0FF12EFCF67
:10257000F50107831F5FBDCF60E08A81DF91CF91B6
:102580001F910F91FF90EF90DF90CF90BF90AF9091
:102590009F900C948003CF93C0E080915602C8179F
:1025A00068F4EC2FF0E0EE0FFF1FEE5AFD4F61E0F4
:1025B000808191810E946312CF5FEFCFCF91089508
:1025C0007F928F929F92AF92BF92CF92DF92EF92C3
:1025D000FF920F931F93CF93DF93C0E080912F0260
:1025E000C81760F4EC2FF0E0EE0FFF1FE55FFD4F22
:1025F000808191810E941011CF5FF0CFC0E0809167
:102600002F02C81760F4EC2FF0E0EE0FFF1FE55F1C
:10261000FD4F808191810E942111CF5FF0CF10E0AA
:1026200080915602181708F057C0E12FF0E0EE0F26
:10263000FF1FEE5AFD4FC081D18160E0CE010E94A4
:1026400063126E0187E0C80ED11C4601712CF12C7B
:10265000E12C8D818E151F04D9F0D4F0F401819105
:102660004F0100E0A82EB12C80FF06C041E0672D8D
:10267000600FCE010E94410FB594A7948A2D0F5F81
:10268000083081F7FFEFEF1AFF0A88E0780EE1CFFC
:10269000F12C912C812C8D8188151904D9F0D4F05E
:1026A000F60181916F0100E0A82EB12C80FD06C0DB
:1026B00040E06F2D600FCE010E94410FB594A794AA
:1026C0008A2D0F5F083081F7FFEF8F1A9F0A88E08D
:1026D000F80EE1CF1F5FA4CF0E94181210E0809186
:1026E00038021817E0F4E12FF0E0EE0FFF1FEE5C68
:1026F000FD4FC081D18160E0CE010E949B104C81D2
:102700005D8170E060E0CE010E945C104C815D81D3
:102710006FEF7FEFCE010E945C101F5FE0CFC0E043
:1027200080910A02C81700F5EC2FF0E0EE0FFF1FB2
:10273000E850FE4FA081B18156968D919C9157979C
:1027400023E0969587952A95E1F714969C938E93AE
:102750001397E091F601F091F701309719F06D9120
:102760007C910995CF5FDCCFDF91CF911F910F91C5
:10277000FF90EF90DF90CF90BF90AF909F908F90A1
:102780007F9008950E945802882359F081E0809339
:10279000DF078093E0078091E1079091E2070C94B6
:1027A000F12F1092E00790E080E00895CF930E940F
:1027B000C213C82F0E94C213BC018C2F0E94EA03CF
:1027C000CF910C9418120E94C2132091CE0482174C
:1027D00060F4FC01FF27EE0FFF1FE853FB4F8081E1
:1027E00091810E945E0D0C94181208950F931F930F
:1027F0000E94C2132091CE04821708F047C0FC014A
:10280000FF27EE0FFF1FE853FB4FA081B181129607
:10281000ED91FC9113971486158616861786108AFB
:10282000118A128A138A14AA15AA16AA17AA14A220
:1028300015A216A217A2148A158A168A178A1C9640
:102840008C911C978823F1F012968D919C9113978F
:102850001A964C9150E0519541955109052E000C66
:10286000660B770BFC010089118922893389401797
:1028700051076207730731F0408B518B628B738B6A
:102880000E94CB0B1F910F910C9418121F910F9166
:1028900008958F929F92AF92BF92CF92DF92EF9264
:1028A000FF921F93CF93DF930E94C213EC010E940B
:1028B000C213BC01809170028C171D0609F00CF444
:1028C000B0C0CC0FDD1FC659DD4F0990D881C02D97
:1028D000CD80DE800D2C000CEE08FF0889809A80E8
:1028E000092C000CAA08BB082F813885032E000C88
:1028F000440B550B2C193D094E095F09072E000C9E
:10290000880B990B681979098A099B090E941C3266
:102910002B813C81032E000C440B550B28193909DF
:102920004A095B090E94B931BA01A9014C0D5D1D2C
:102930006E1D7F1D052E000C660B770B8D859E8509
:10294000AF85B88984179507A607B70709F45CC057
:102950004D875E876F87788B8985811155C08A8501
:102960008C3008F04FC0188161E0812F0E94AE03C7
:102970008A85282F30E0F901EE0FFF1FE20FF31FC9
:10298000E359FB4F1F739081907C912B90831B86A2
:102990001C862CE0622F0E942C32829FB0011124F1
:1029A00030E020E0AB01420F531FFA01EE0FFF1F92
:1029B000E40FF51FE359FB4F908196FD16C02F5F82
:1029C0003F4F2C30310571F781110FC010928000FC
:1029D00082E0809381001092850010928400B19A69
:1029E00080916F00826080936F00EA858E2F90E067
:1029F000FC01EE0FFF1FE80FF91FE359FB4F808129
:102A00008064808381E08987DF91CF911F91FF905F
:102A1000EF90DF90CF90BF90AF909F908F900C94ED
:102A20001812DF91CF911F91FF90EF90DF90CF9020
:102A3000BF90AF909F908F900895EF92FF920F9369
:102A40001F93CF93DF930E94C2138C010E94A902AF
:102A50007C01EC01FC01DE018081882349F090912A
:102A6000EA07891301C03196808189933196F3CFAB
:102A7000AE17BF0710F41D92FBCF000F111FF80116
:102A8000E75AFD4F00811181F80186858823B1F056
:102A9000C0E0F80181898C1789F04C2F60E0C801F3
:102AA0000E94FB08F8014089B701C49F600D711DA9
:102AB0001124C8010E945C09CF5FEBCFDF91CF9159
:102AC0001F910F91FF90EF900C9418122091C30664
:102AD0003091C4068217930710F40C94A33180E060
:102AE00008950F931F93CF93DF938C01EB01F801AF
:102AF000808191819C012F5F3F4F318320830E9411
:102B0000661528813981A9014F5F5F4F598348833A
:102B10002E5A3A4FF9018083288139812E35F1E010
:102B20003F0760F48A3319F72F5A3A4FF9011082A0
:102B300081E0DF91CF911F910F91089580E0F9CF4F
:102B4000EF92FF920F931F93CF93DF93EC01E090EE
:102B5000C306F090C406888199818C010F5F1F4FD6
:102B6000198308830E946615E016F10650F08A3337
:102B700091F781E0DF91CF911F910F91FF90EF903E
:102B8000089580E0F7CFAF92BF92CF92DF92EF929D
:102B9000FF920F931F93CF93DF9300D000D0CDB758
:102BA000DEB75C0119821A821B821C82CE0101965B
:102BB0007C0110E000E06C01F501808191819C01B5
:102BC0002F5F3F4F318320830E946615F70180837A
:102BD000F8018E3241F00F5F1F4F8FEFE81AF80AAD
:102BE0000430110549F7EC0DFD1D1082C6010E944D
:102BF000F12F0F900F900F900F90DF91CF911F91B9
:102C00000F91FF90EF90DF90CF90BF90AF9008951D
:102C1000FB0101900020E9F73197AF01461B570BEC
:102C2000DC01ED91FC910280F381E02D099480910B
:102C300015078823A1F06091E8078091E60790913D
:102C4000E7070E94820580911D07882341F067ED08
:102C500071E08091E6079091E7070E9408161092B4
:102C60001C071092150780E008958F929F92AF92F3
:102C7000BF92EF92FF920F931F93CF93DF93CDB745
:102C8000DEB7A1970FB6F894DEBF0FBECDBF7C01B3
:102C9000FA01CB0119A2223008F42AE08E010F5D5F
:102CA0001F4F822E912CB12CA12CBF01A5019401A4
:102CB0000E94EB31F901CA016A300CF5605DD80160
:102CC0006E938D01232B242B252B79F790E080E048
:102CD000109721F0BD01C7010E940816A1960FB6FA
:102CE000F894DEBF0FBECDBFDF91CF911F910F9142
:102CF000FF90EF90BF90AF909F908F900895695C88
:102D0000DECFCF93909115079923A9F0C82F60913A
:102D1000E9078091E6079091E7070E9482054C2F12
:102D200050E070E060E02AE08091E6079091E707CC
:102D3000CF910C943516CF9108959091150791116C
:102D400010C091E09093150790931C07482F50E016
:102D500070E060E02AE08091E6079091E7070C942C
:102D600035160895CF93DF939091150791111AC0EE
:102D7000EB010E949D1680911507882379F06091E0
:102D8000E9078091E6079091E7070E948205BE015E
:102D90008091E6079091E7070E948905DF91CF9126
:102DA0000C94171680E0DF91CF9108950E94E404FF
:102DB0006093C2047093C3048093C4049093C504C9
:102DC0006CEA70E085E00C94B2160F931F93CF93DA
:102DD000DF9310922F02109251021092C104909131
:102DE0006102E2E6F2E080E0981731F0A191B19142
:102DF00056961C928F5FF8CF10926102309170024C
:102E0000CAE6D2E020E03217D1F0A991B991199623
:102E10008C911997882389F01A96EC911A978E2F26
:102E200090E0FC01EE0FFF1FE80FF91FE359FB4F85
:102E300080818F7B808319961C922F5FE4CF109244
:102E400070029091CE04E8ECF4E080E0981729F04D
:102E5000A191B1911C928F5FF9CF1092CE04909105
:102E6000F401E9E5F2E080E0981759F0A191B19101
:102E70001E962C911E97222311F01E961C928F5F96
:102E8000F3CF1092F40110920A029091F501EDE552
:102E9000F2E080E0981759F0A191B19118962C9129
:102EA0001897222311F018961C928F5FF3CF10927F
:102EB000F50180915602882361F0E0915202F09171
:102EC00053021682823028F0E0915402F0915502AC
:102ED000168210925602C0E080913802C817B0F4F2
:102EE000EC2FF0E0EE0FFF1FEE5CFD4F0081118133
:102EF000F801838180FF08C062E082810E94AE03F6
:102F0000F80183818E7F8383CF5FE6CF10923802F2
:102F100010929C0410929B041092C7041092020419
:102F20001092010460EB70E085E0DF91CF911F917A
:102F30000F910C94B21663EB70E08FE00C94B21614
:102F40002091010430910204820F932F911D9093E0
:102F50000204809301048039914040F061EF72E0F7
:102F600085E00E94B21690E080E00895C9018F5874
:102F70009D4F089581E08093C70466EB70E081E186
:102F80000C94B216CF93DF930E9418128AE00E942D
:102F90009D1680919B0490919C04892B91F18BE369
:102FA00090E00E946615C82F80911507882379F05C
:102FB0006091E9078091E6079091E7070E948205FA
:102FC0006C2F8091E6079091E7070E948205C1E08F
:102FD000D0E080919B0490919C04C817D90788F495
:102FE000CE01CB960E94661590911507992339F072
:102FF000682F8091E6079091E7070E94820521964D
:10300000E8CFDF91CF910C941716CF93DF932091E7
:1030100015072223A1F0EC016091E9078091E607F2
:103020009091E7070E948205209749F0BE018091A8
:10303000E6079091E707DF91CF910C940816DF9196
:10304000CF9108950F931F93CF93DF93C82FD62F5F
:103050008A018DE10E949D16C8010E9405188D2FDE
:103060000E9481168C2F0E948116DF91CF911F91B3
:103070000F910C9417160F931F93CF93C82F8B01AA
:1030800086E00E949D16C8010E9405188C2F0E94A0
:103090008116CF911F910F910C9417160F931F93C8
:1030A000CF93DF93C82FD62F8A018EE10E949D1601
:1030B000C8010E9405188D2F0E9481168C2F0E9436
:1030C0008116DF91CF911F910F910C9417160F93DA
:1030D0001F93CF93C82F8B0187E00E949D16C801D4
:1030E0000E9405188C2F0E948116CF911F910F917D
:1030F0000C941716CF92DF92EF92FF92CF93DF934B
:103100006C01EB018CE10E949D16CE010E94051816
:1031100080911507882321F16091E9078091E607E6
:103120009091E7070E948205C091E607D091E707DA
:103130000D2C000CEE08FF082AE0B701A601F7FEEF
:103140000CC06DE2CE010E94820544275527BA01CA
:103150004C195D096E097F092AE0CE010E943516DF
:10316000DF91CF91FF90EF90DF90CF900C941716E6
:10317000FB0101900020E9F73197AF01461B570B87
:10318000DC01ED91FC910284F385E02D0994CF924E
:10319000DF92EF92FF920F931F93CF93DF938C01F7
:1031A000EB01FC01D0886D2D70E0FE010190002044
:1031B000E9F7CF0101978C1B9D0B86179707B0F499
:1031C000681B790B76956795D82EC8010E94FB087D
:1031D000CC2EEC2EFD2E8E2D8C198D1548F4F7017A
:1031E00061917F01C8010E944409F5CF60E0EDCFF5
:1031F000DF91CF911F910F91FF90EF90DF90CF90D3
:10320000089585ED8093BC0080912A0590912B054F
:10321000A0912C05B0912D050796A11DB11D23E0AD
:10322000B695A795979587952A95D1F72091BC00DB
:1032300024FD03C010922805089540912A0550915D
:103240002B0560912C0570912D05452B462B472BA6
:1032500069F30097A105B10541F025E32A95F1F73F
:1032600000000197A109B109E1CF809129050C94D3
:1032700026074F925F926F927F928F929F92AF92AA
:10328000BF92CF92DF92EF92FF92CF93DF93EC0148
:103290006A017B0120E030E0A901CB01B6010E9468
:1032A0007F3087FF04C0F7FAF094F7F8F0948C8C25
:1032B0009D8CAE8CBF8CA7019601C501B4010E9404
:1032C0007F30882309F449C06CA97DA98EA99FA9E4
:1032D0000E9486302B013C01A7019601C501B40173
:1032E0000E94AB329B01AC01C301B2010E94E530E8
:1032F0000E941D336CAB7DAB8EAB9FABA7019601DB
:1033000060E070E080E090E40E94AB320E945E33A7
:1033100026E53EE04DE25FE30E94E53020E034E246
:1033200044E759E40E94E53068AF79AF8AAF9BAFBC
:10333000CC8EDD8EEE8EFF8ECE01DF91CF91FF9091
:10334000EF90DF90CF90BF90AF909F908F907F9045
:103350006F905F904F900C94CB0BDF91CF91FF90CB
:10336000EF90DF90CF90BF90AF909F908F907F9025
:103370006F905F904F900895EF920F93CF93DF93EC
:10338000EC018DE991E0998388836B831C861D860F
:103390001E861F86188A198A1A8A1B8A1C8A1D8A09
:1033A0001E8A1F8A80E090E0A0E8BFE3888F998F93
:1033B000AA8FBB8F1C8E1D8E1E8E1F8E88A399A375
:1033C000AAA3BBA31CA21DA21EA21FA261E070E0C3
:1033D0007DA76CA73FEF3FA718A619A61AA61BA6A4
:1033E0004C832D830E83EF821EA61CAA1DAA1EAA43
:1033F0001FAA18AE19AE1AAE1BAE1CAE1DAE1EAE85
:103400001FAEFE01E05CFF4F80839183A283B383F4
:103410001A82188619861A861B86CE010E94B80960
:1034200040E050E060E87FE3CE01DF91CF910F9163
:10343000EF900C9439198F929F92AF92BF92CF92D6
:10344000DF92EF92FF920F931F93CF93DF930E942F
:10345000C213EC010E94C2138C010E94C2137C01B2
:103460008091CE04C81708F078C0DD27CC0FDD1F8F
:10347000C853DB4FC880D980F601C281D381B8011F
:1034800090E080E00E9484304B015C01288D398DF2
:103490004A8D5B8D0E947F308823F1F1888E998E52
:1034A000AA8EBB8E8E01005C1F4FA501940160E0C7
:1034B00074E284E799E40E94AB32F801608371837F
:1034C000828393838CA99DA9AEA9BFA9181619065A
:1034D0001A061B060CF56C897D898E899F899B01D4
:1034E000AC010E94E5304B015C016C8D7D8D8E8DB1
:1034F0009F8D9B01AC010E943F329B01AC01C50135
:10350000B4010E94AB320E941D336CAB7DAB8EAB1D
:103510009FABCE010E94CB0BB70190E080E00E94F0
:1035200084304B015C0120E030E0A9010E947F3033
:10353000882399F0B501A401F60182819381DF917E
:10354000CF911F910F91FF90EF90DF90CF90BF90A0
:10355000AF909F908F900C943919DF91CF911F916C
:103560000F91FF90EF90DF90CF90BF90AF909F9022
:103570008F9008958F929F92AF92BF92CF92DF92D9
:10358000EF92FF92CF93DF930E94C213EC01B82E0B
:103590000E945802882309F48FC081E08093DF07DE
:1035A0008093E0078091E1079091E2070E940F303D
:1035B0006B017C018091CE04B81608F083C0DD2732
:1035C000CC0FDD1FC853DB4F0990D881C02D198265
:1035D0008E819F81A885B985C816D906EA06FB06A3
:1035E00009F45EC08A819B81DC011C968D909D90C0
:1035F000AD90BC901F972B85222351F02D8522235F
:1036000039F0ED91FC910280F381E02D09951D8642
:103610008C85882379F0C814D904EA04FB0454F497
:103620008E819F81A885B985C816D906EA06FB0652
:103630000CF41C868C85811110C08C149D04AE0482
:10364000BF045CF48E819F81A885B9858C159D058A
:10365000AE05BF0514F481E08C878A819B814A8581
:103660002C85429FA0011124052E000C660B770BC0
:103670004C0D5D1D6E1D7F1DFC0180889188A28808
:10368000B388481559056A057B0531F0408B518B8D
:10369000628B738B0E94CB0BCE82DF82E886F98629
:1036A000DF91CF91FF90EF90DF90CF90BF90AF90E0
:1036B0009F908F900C9418121092E007C12CD12C7F
:1036C000760178CFDF91CF91FF90EF90DF90CF9090
:1036D000BF90AF909F908F900895BF92CF92DF924E
:1036E000EF92FF920F931F93CF93DF93EC01E62E9F
:1036F000C42ED22EFC88FF0C0F2D10E0A80170E024
:1037000060E004960E94B333EE2DEE0FEC0FFD2F18
:10371000F11DC582D48260E08B810E9480030C5F22
:103720001F4F0C0F1D1FFF20E1F0F801B2908F0119
:1037300088E0C82ED12C90E8E92E6B2D6E2189816E
:103740000E94800361E08A810E94800360E08A8198
:103750000E948003E694F1E0CF1AD10871F7FA9441
:10376000E2CF61E08B81DF91CF911F910F91FF90AC
:10377000EF90DF90CF90BF900C9480038F929F9238
:10378000AF92BF92CF92DF92EF92FF920F931F936F
:10379000CF93DF930E94C213EC010E94C213882EC4
:1037A0000E94A9025C010E94C2136C010E94C21314
:1037B000CC0FDD1FCE59DD4F08811981F801268914
:1037C000222309F43CC0C7E0D0E0912C7C01FF2407
:1037D000DD246C2F4C2F4F5FC7010C2E02C0959536
:1037E00087950A94E2F780FF28C0F801A4898A1619
:1037F00018F5F501E90DF11D808187FD80E2960144
:103800000C2E02C0359527950A94E2F720FD8068BA
:10381000F8019081992311F06A1770F4E82FEF777F
:10382000F0E0EF58FD4F2491911117C087FD2068FB
:10383000682DC8010E946D1B9394219750F6DF916B
:10384000CF911F910F91FF90EF90DF90CF90BF909D
:10385000AF909F908F900C941812220F87FD2160DB
:10386000A150BB0BAC1BBD0BA00FB11F14962C932A
:1038700041E0C8010E94C20EDFCF1F93CF93DF93B8
:10388000DC012C9121110CC054962C91621700F58B
:1038900021E024274CE0DF91CF911F910C946D1B08
:1038A0005596EC91F0E0F595E7951E2F411101C07A
:1038B0001860EC010E94BB0E60E8610F40E0CE0191
:1038C0000E944A0ECE01DF91CF911F910C94A40E5D
:1038D000DF91CF911F9108950F931F93CF93DF93A3
:1038E000FC0126892223C1F16217B0F5442391F12E
:1038F0002FEF240F203108F02FE0D62F8C01FC0190
:10390000258B8081811110C08489681720F44AE0DA
:10391000C8010E946D1B40E06D2FC801DF91CF915F
:103920001F910F910C943D1CC0E0413031F0269561
:10393000423009F421E0C22FC860C8010E94BB0ECA
:1039400060E86C0F40E0C8010E944A0EC8010E9466
:10395000A40EE1CF41E0E2CFDF91CF911F910F9113
:1039600008951F93CF93DF930E94C213EC010E942E
:10397000C213182F0E94C213CC0FDD1FCE59DD4F8A
:10398000482F612F888199810E946C1CDF91CF9113
:103990001F910C9418120C94B11CFF920F931F935B
:1039A000CF93DF93F82EC0E080916102C817B0F486
:1039B000EC2FF0E0EE0FFF1FEE59FD4F008111815B
:1039C000D0E0F80186898D1739F04F2D6D2FC80191
:1039D0000E943D1CDF5FF5CFCF5FE6CFDF91CF9137
:1039E0001F910F91FF9008950F931F93CF93DF9333
:1039F000EC01062F18814C89111110C0641748F48E
:103A00001F5F20E0412F602FCE010E946D1B1830F8
:103A1000B9F7DF91CF911F910F91089550E070E0B9
:103A200060E004960E94B3334C896FEF640FCE01BF
:103A3000DF91CF911F910F910C94C20E2F923F9264
:103A40004F925F926F927F928F929F92AF92BF92AE
:103A5000CF92DF92EF92FF920F931F93CF93DF935A
:103A6000CDB7DEB728970FB6F894DEBF0FBECDBF37
:103A700080919B0490919C04892B09F465C68BE38B
:103A800090E09A8389831C821B82CE0101960E945A
:103A9000C315182F882309F457C6212C00E4302EB3
:103AA0000CE1402E05E4502EEFEFE10FE03108F07D
:103AB000A8C00E2E000CFF0BE05AF24E0C943832C8
:103AC000701D6620CE1D061EE11E1220D920662024
:103AD000E11E3722D821A622011E0B23E11E061E5D
:103AE000CE0101960E94C315D82E80912F028231FB
:103AF000D9F184E00E94520D69EB70E0882309F44B
:103B0000D4C5EB80FC8084E00E94A0178C01009754
:103B1000C1F0DC011296DC921297C7018E5A9A4FBF
:103B20008D939C9362E08D2D0E94AE03F8018281FB
:103B30000E94570321E0892B09F420E0D801139655
:103B40002C9380912F02E82FF0E0EE0FFF1FE55F2E
:103B5000FD4F1183008327E638E130933102209333
:103B600030028F5F80932F02BE016D5F7F4FCE01C9
:103B700001960E947115082FCE0101960E94C3156F
:103B8000182F882309F4DDC501118ECF1092AF06DE
:103B90006AE372E085E00E94B216D6C5CE010196B6
:103BA0000E94C315F82E8091C104823151F182E048
:103BB0000E94520D67ED70E0882309F453C082E043
:103BC0000E94A0178C01009779F0FC01F08211820D
:103BD00061E08F2D0E94AE03D80111966C91119770
:103BE00070E08C910E94EA038091C104E82FF0E01C
:103BF000EE0FFF1FE356FB4F118300838F5F80930F
:103C0000C104CE0101960E94A015B5CFC12C103180
:103C100029F4CE0101960E94C315C82ECE0101964B
:103C20000E94C315A82ECE0101960E94C315882EAE
:103C3000CE0101960E94C315B82ECE0101960E94B6
:103C4000C315982ECE0101960E94C315D82E8091DF
:103C500061028430B1F287E10E94520D811106C0E9
:103C600065EF70E085E00E94B216CBCF87E10E943D
:103C7000A0177C01009729F0FC01148A8FE0858B46
:103C8000168A1C2D00916102E02FF0E0EE0FFF1F5D
:103C9000EE59FD4FF182E082D701CC921196AC92A1
:103CA00011971296BC92129713968C92C11046C02F
:103CB0008D2DB8E0BD1508F488E0F701848B61E034
:103CC0008A2D0E94AE0361E0D70112968C910E946A
:103CD000AE0361E0F70183810E94AE0361E0D7018A
:103CE00013968C910E948003F7018489181708F0BD
:103CF0004CC020E04FE0612FC7010E946D1BD7012F
:103D00008C9181110AC054968C91181730F427E0D9
:103D10004BE0612FC7010E946D1B20E049E0612F3D
:103D2000C7010E946D1B612FC7010E94F41C41E076
:103D3000612FC7010E943D1C1F5FD6CFBDEF84E0FD
:103D4000CB1286E0F701848B62E08B2D0E94AE03DC
:103D500062E0D70111968C910E94AE0360E0F701FA
:103D600082810E94800360E0D70111968C910E94AD
:103D7000800360E0C7010E94F41C8FE0F701858B8F
:103D800041E060E0C7010E943D1CD7015696DC92DD
:103D900010E0F7018689181780F4492D612FC701BB
:103DA0000E946C1C40E0612FC7010E943D1C612FE6
:103DB000C7010E94F41C1F5FECCF0F5F00936102EC
:103DC00020CFCE0101960E94C315F82ECE01019698
:103DD0000E94C315B82ECE0101960E94C315E82E8D
:103DE000CE0101960E94C315682E193049F4CE0108
:103DF00001960E94C315182F712CA12C00E013C04E
:103E00001F3009F04AC0CE0101960E94C315082F49
:103E1000CE0101960E94C315A82ECE0101960E94E4
:103E2000C315782E10E08091CE04833009F4E9CEDA
:103E30008EE00E94520D67E371E0882309F412CFEF
:103E40008EE00E94A0176C01009711F0DC011C921B
:103E5000E091CE04F0E0EE0FFF1FE853FB4FD1825C
:103E6000C08284E40E94520D811119C066E171E0A4
:103E700085E00E94B2160091CE04112351F0E02F8C
:103E8000F0E0EE0FFF1FE853FB4F808191810E940D
:103E90005E0D0F5F0093CE04B4CE10E0ADCF0130C5
:103EA00009F4A4C0023009F4ADC00111B8C084E423
:103EB000FE108AC0B61088C00E94A0174C01892B42
:103EC00049F055E0E52E04E02B2D4F2D61E0C401B3
:103ED0000E94BC19F60193828282D60112968D90BF
:103EE0009C9020E030E048EC53E4F401608D718D4B
:103EF000828D938D0E947F30882309F442C080E038
:103F000090E0A8ECB3E4F401808F918FA28FB38F7F
:103F1000E05CFF4F2082318242825382F40184A907
:103F200095A9A6A9B7A9181619061A061B064CF5D5
:103F300064897589868997899B01AC010E94E53067
:103F40006D837E838F839887D4015C966D917D917C
:103F50008D919C915F979B01AC010E943F329B0128
:103F6000AC016D817E818F8198850E94AB320E9469
:103F70001D33F40164AB75AB86AB97ABC4010E94F3
:103F8000CB0B40E050E068E474E4D60112968D91CA
:103F90009C910E943919F601148381E085831123D5
:103FA00021F062E0812F0E94AE03D6011A96AC92F6
:103FB00081E0711001C080E0F601838781E0808399
:103FC00011828587848757CF0E94A0174C01892BC7
:103FD00039F00F2D2B2D462D64E0C4010E94BC1931
:103FE000D60113969C928E92129777CF84E40E940A
:103FF000A0174C01892B09F46DCF0F2D2B2D462DC9
:1040000068E065CF84E40E94A0174C01892B41F33E
:1040100045E0E42E04E02B2D4F2D61E0DECFF601CC
:10402000108229CFCE0101960E94C315182F8091CE
:104030007002833009F4E5CD87E10E94520D67E5F7
:1040400071E0882309F40ECE87E10E94A017FC01DD
:10405000892BB9F0809191048C30A8F591E0980FEC
:1040600090939104828790E0DC01AA0FBB1FA80FF8
:10407000B91FA359BB4F88EB9BE012969C938E937C
:10408000119780917002A82FB0E0AA0FBB1FA6590C
:10409000BD4FED93FC931186158616861786108A00
:1040A000118A128A138A148A1282118224EB30E058
:1040B00034832383168215823087278310838F5F92
:1040C000809370029ECD8FEF8287DBCFCE01019669
:1040D0000E94C315C82ECE0101960E94C315B82EAA
:1040E000D12C183029F4CE0101960E94C315D82E88
:1040F00080915102893009F437CD8FE10E94520D31
:1041000065E771E0882309F4D0C2EB80FC808FE181
:104110000E94A0178C01009719F0DC0112961C92E6
:10412000A0905102EA2DF0E0EE0FFF1FE15CFD4F81
:1041300011830083F80116821582C7018E5A9A4FA7
:1041400094838383C082B18285E08D9DF001112428
:10415000ED5AFE4FD801199601900D928A95E1F71C
:1041600062E08C2D0E94AE0362E0D80111968C9122
:104170000E94AE03F8011686108A1786128A118AE9
:104180001086178A108E118E128E84EF91E0A0E0B7
:10419000B0E0838B948BA58BB68B81E082838BE31D
:1041A00098E190933E0280933D02A394A092510225
:1041B000DBCCCE0101960E94C315D82ECE0101960C
:1041C0000E94C315082FCE0101960E94C315182F17
:1041D0008091F401823009F414CD82E10E94520DE5
:1041E00065E971E0882309F43DCD82E10E94A017C2
:1041F0007C01009761F0DC0113961C921E921297CD
:1042000080E791E011969C938E9319961C92E09111
:10421000F401F0E0EE0FFF1FE75AFD4FF182E0825C
:10422000F701D786008B118B81E08687D4820287C5
:10423000138714861586109224041092230410927A
:104240002F05109251050E9408072AE338E03093A9
:104250004704209346048BE398E090934B048093AB
:104260004A04D70115961C9215971B968C911B97A3
:10427000823018F098E015969C93F7019485992365
:1042800029F0813019F485818460858362E370E0D0
:1042900080E090E00E94B204D7011D966C91C701A6
:1042A0000E944A0960E3C7010E944A098BE496E430
:1042B0000197F1F760E3C7010E944A098BE496E495
:1042C0000197F1F760E3C7010E944A0983E592E094
:1042D0000197F1F760E2C7010E944A09F701658181
:1042E000606240E0C7010E94D20884E0D7011696C0
:1042F0008C9340E06CE0C7010E94D208C7010E9485
:104300002C0982E0F701878340E066E0C7010E9444
:10431000D20840E062E0C7010E94D2088BE39FE12F
:104320000197F1F788E0D7011D968C931D9714969D
:104330008C9191E090932E058093500510922F055B
:104340001092510568E080EB96E00E9493080E946D
:1043500037088CE08093B800F7018685882301F147
:10436000C7010E942C09D70151961C911330F0F01F
:1043700016951150412F6AED71E0C7010E94C718D0
:10438000F7018189823038F041E0410F65EE71E03C
:10439000C7010E94C71840E060E0C7010E94FB0807
:1043A0008091F4018F5F8093F4012BCC10E0E2CF79
:1043B000CE0101960E94C315D82ECE0101960E940F
:1043C000C315C82E80910A02893009F4CDCB8DE146
:1043D0000E94520D61EB71E0882309F466C1EB8005
:1043E000FC808DE10E94A0178C01892B61F180E196
:1043F000F8013696DF011D928A95E9F7F801178AD0
:10440000168A108EC582D282C7018E5A9A4F918326
:10441000808362E08D2D0E94AE0358E0F52EC80126
:104420000E945C11FA94F110FACFD80156968D9142
:104430009C91579743E0969587954A95E1F7149696
:104440009C938E93139780910A02E82FF0E0EE0F71
:10445000FF1FE850FE4F11830083EAE7F8E1F09375
:10446000F701E093F6018F5F80930A027DCBCE01C6
:1044700001960E94C315C82ECE0101960E94C31555
:10448000982ECE0101960E94C315A82ECE0101964A
:104490000E94C315B82E8091F501823009F4B1CB8A
:1044A00089E00E94520D61ED71E0882309F4DACBB6
:1044B00089E00E94A0178C01D090F501ED2CF12C21
:1044C000EE0CFF1CF701E35AFD4F9183808381E0DE
:1044D000D80118968C931897CC9211969C921197AC
:1044E0001296AC9212971396BC9261E08C2D0E94AA
:1044F000AE0361E0F80181810E94AE0361E0D80162
:1045000012968C910E94AE03F8019381349680E05C
:10451000981719F011928F5FFBCFC8010E942312E8
:10452000F701E35AFD4F80819181DC0113963C91A4
:10453000FC01349620E0321719F011922F5FFBCF67
:104540000E942312D394D092F5015BCBCE01019649
:104550000E94C315D82ECE0101960E94C315A82E25
:10456000CE0101960E94C315B82ECE0101960E947D
:10457000C315C82E80915602823009F4F5CA8BE02B
:104580000E94520D66EF71E0882309F48EC0EB8023
:10459000FC808BE00E94A0178C01009731F0FC0199
:1045A00016821782108611861286E0915602F0E07C
:1045B000EE0FFF1FEE5AFD4F11830083F801D282E8
:1045C000A382B482C7018E5A9A4F91838083C58299
:1045D00061E08D2D0E94AE0361E0D80113968C91AD
:1045E0000E94AE0360E0F80184810E94AE0381E086
:1045F000D80116968C9360E0C8010E946312E2E233
:10460000F8E1F0935802E0935702809156028F5FD1
:1046100080935602A9CACE0101960E94C315D82ED6
:10462000CE0101960E94C315F82ECE0101960E947C
:10463000C315082FCE0101960E94C315182FCE0175
:1046400001960E94C315F092BC060093BD0610931C
:10465000BE068093BF061092C0060CEB16E061E028
:10466000D8018D918D010E94AE03E0ECF6E0E017D9
:10467000F107A9F78091C00681608093C00660E0D1
:104680008CEB96E00E94210FCE0101960E94C3158B
:10469000C82E80913802833009F466CA86E00E94F1
:1046A000520D811106C06AE172E085E00E94B216E7
:1046B0005BCAEB80FC8086E00E94A0178C0100970B
:1046C00059F02CEB36E030933C0220933B02DC01A6
:1046D00015961C921E921497E0913802F0E0EE0FAE
:1046E000FF1FEE5CFD4F11830083F801D282C701EA
:1046F0008E5A9A4F91838083F1E0CF16F1F0D80162
:1047000013961C9262E08D2D0E94AE03D801139681
:104710008C911397816013968C9360E0C8010E947E
:104720009B10EEE4F8E1F0933A02E09339028091B5
:1047300038028F5F8093380217CA82E0F8018383C2
:10474000E1CF002309F422CA28960FB6F894DEBF01
:104750000FBECDBFDF91CF911F910F91FF90EF90D2
:10476000DF90CF90BF90AF909F908F907F906F9091
:104770005F904F903F902F9008950E941E1D0C94C3
:10478000BA17FF920F931F93CF93DF930E94C21328
:10479000EC010E94A9028C010E94C213F82ECC0FDA
:1047A000DD1FC35ADD4F0990D881C02D888588232D
:1047B00069F16CEE71E0C8010E94363001E010E052
:1047C000009709F10E94F12F9885992391F0982F75
:1047D0009770980101C0220F9A95EAF78695869501
:1047E0008695FE01E80FF11D8481FF2049F0282BFA
:1047F00024836CEE71E090E080E00E943630E0CFE0
:1048000020952823F5CFCE010E942312DF91CF916E
:104810001F910F91FF900C941812FF920F931F930A
:10482000CF93DF938C01EB01F8800E94A331F8163F
:1048300021F06F2DC8010E94AB31CE01DF91CF91E5
:104840001F910F91FF900895AF92BF92CF92DF9288
:10485000EF92FF920F931F93CF93DF930E94181252
:104860000E94A9026C01EC0109900020E9F7219750
:10487000C81BD90BDD27E0909B04F0909C04C70176
:1048800001968C0F9D1F883B914008F053C05E013C
:104890008FEFA81AB80A2BE3E20EF11C95012E0D3A
:1048A0003F1D8091C3069091C4068217930778F04C
:1048B00010E000E0B601600F711FC701800F911F6B
:1048C0000E940D240F5F1F4F0A151B0598F340919E
:1048D0009B0450919C04C40FD51FD0939C04C0939B
:1048E0009B0480911507811147C085E00E949D16A9
:1048F00080911507882391F06091E9078091E60780
:104900009091E7070E948205AE0170E060E02AE026
:104910008091E6079091E7070E943516DF91CF91CD
:104920001F910F91FF90EF90DF90CF90BF90AF90CD
:104930000C9417168091150781111EC085E00E9406
:104940009D1680911507882349F36091E9078091AE
:10495000E6079091E7070E948205C091E607D09193
:10496000E7076DE2CE010E9482052AE041E050E0B7
:1049700060E070E0CE01D0CFDF91CF911F910F9119
:10498000FF90EF90DF90CF90BF90AF900895CF93BE
:10499000DF930E94A902FC0190E3A7E1B1E001903E
:1049A0000D929A95E1F78091C3069091C406892BE8
:1049B00029F063E290E080E00E94AB318091C30671
:1049C0009091C406C09760F0D0E0C0E0BE01695E7F
:1049D0007E4F2196CE010E940D24CF32D105B1F732
:1049E0008091150781110BC085E00E949D1687E11B
:1049F00091E00E940518DF91CF910C941716DF917A
:104A0000CF910895CF93DF930E94E404611571055F
:104A10008105910511F00E94E82F83E58093000144
:104A20008EE4809301018DE2809302018093060160
:104A300010920A010E94992F2FEF3FE040E050E0D2
:104A40000E94B931E0E0F1E093E0862F8F7020E31F
:104A5000280F2A33D0F5238324E0769567952A958D
:104A6000E1F7915031969111F0CF0E94992F2FEFDD
:104A70003FE040E050E00E94B931E0E0F1E093E037
:104A8000862F8F7020E3280F2A3310F5278384E0C8
:104A9000769567958A95E1F7915031969111F0CF0F
:104AA0008091C3069091C406CB9760F0C0E3D0E03C
:104AB000BE0160537F4FCE010E940D242196CB335F
:104AC000D105B1F7DF91CF910895885C8383C4CF7E
:104AD000895C8783DCCF0E940225809115078111B4
:104AE00009C08AE00E949D1680E091E00E940518AE
:104AF0000C94171608950F931F93CF93DF9380E3C1
:104B000090E00E946615833509F046C081E390E08D
:104B10000E9466158E3409F03FC08091C3069091C3
:104B2000C406CB9770F000E011E0C0E3D0E0CE0106
:104B30000E94A331F80181938F012196CB33D105D7
:104B4000B1F70E9418128AE00E949D168091150705
:104B5000882381F06091E9078091E6079091E7074B
:104B60000E94820564E572E08091E6079091E70774
:104B70000E94890587E191E00E94051880E091E09C
:104B80000E9405188EEE91E00E940518DF91CF91EA
:104B90001F910F910C9417160E9402258091C30655
:104BA0009091C406CC9768F260E08BE390E00E949D
:104BB000AB31C7CF1F920F920FB60F9211242F93D4
:104BC0003F938F939F93AF93BF938091EC04909109
:104BD000ED04A091EE04B091EF043091EB0423E0DA
:104BE000230F2D3758F50196A11DB11D2093EB041D
:104BF0008093EC049093ED04A093EE04B093EF0443
:104C00008091F0049091F104A091F204B091F3042A
:104C10000196A11DB11D8093F0049093F104A0931F
:104C2000F204B093F304BF91AF919F918F913F91A4
:104C30002F910F900FBE0F901F90189526E8230F0D
:104C40000296A11DB11DD2CF1F920F920FB60F92E7
:104C500011248F939F938091E1009091E100937FC5
:104C60009093E10083FF0FC01092E90091E09093D0
:104C7000EB001092EC0092E39093ED00109201058E
:104C800098E09093F00082FF22C093E09093E900B7
:104C90009091F200992319F09AE39093E800909193
:104CA0009804992341F0909198049150909398041E
:104CB000911101C05D9A90910005992341F0909166
:104CC0000005915090930005911101C0289A84FF2E
:104CD00018C08091E2008E7E81608093E200809116
:104CE000E1008F7E8093E100809199048E7E806147
:104CF000809399049F918F910F900FBE0F901F90FA
:104D0000189580FFF7CF8091E2008E7E80618093BE
:104D1000E2008091E1008E7E8093E1008091990411
:104D20008E7E8160E5CF1F920F920FB60F921124F5
:104D3000CF92DF92EF92FF920F931F932F933F93A7
:104D40004F935F936F937F938F939F93AF93BF9393
:104D5000EF93FF93CF93DF93CDB7DEB76C97DEBFB2
:104D6000CDBF1092E9008091E80083FF25C068E084
:104D7000CE0145960E94750582EF8093E8008D89EB
:104D800087FF39C09091E80090FFFCCF982F907674
:104D900009F034C19E894F89588D2F89F88C911163
:104DA00031C0803861F580919A048093F1001092AF
:104DB000F1008EEF8093E8006C960FB6F894DEBF9A
:104DC0000FBECDBFDF91CF91FF91EF91BF91AF911A
:104DD0009F918F917F916F915F914F913F912F9113
:104DE0001F910F91FF90EF90DF90CF900F900FBE2B
:104DF0000F901F9018959EEF9093E800C7CF1092E8
:104E0000F100D5CF913059F48111D3CF4130510504
:104E100081F680919A048D7F80939A04CACF933053
:104E200049F48111C6CF4130510519F680919A0499
:104E30008260F2CF953041F48091E80080FFFCCF92
:104E400020682093E300B5CF963009F0A9C00B8D00
:104E50001C8D22E01092E9001092960410929504A5
:104E6000F2122EC010929404109293040E944405F2
:104E70001F8299E09983FA8291E09E8390EA988755
:104E80009AEF99872091950430919604275F3F4FC0
:104E90003C832B838D831092E9001092960410922C
:104EA0009504109394040093930449E050E0BE01EC
:104EB0006F5F7F4F80E00E941E050E94440579CFFE
:104EC00010939404009393040E94F702DC0112965D
:104ED0000D911C910115110509F451C1D801ED91F5
:104EE000FC910480F581E02DBE016B5E7F4FC8010F
:104EF0000995009709F03EC1F80100851185EACFB8
:104F0000F3E0FF120EC08F89882309F440C082307D
:104F100061F440E862E189E693E00E94A02A8111F1
:104F200048CF81E28093EB0047CF813029F440E8FD
:104F300068E080E693E0F1CF833099F70E94F702B2
:104F4000DC011296ED90FC908E010F5F1F4F6801FF
:104F5000E114F10479F0D701ED91FC910680F7811D
:104F6000E02DB801C7010995080F111DF701E08474
:104F7000F184EECFD8011C92F60101900020E9F7F0
:104F80003197BF016C197D0940E0C601C6CF6AE4C4
:104F900073E0FB01449150E080E80E941E0509CFB8
:104FA000973009F4BECF983021F481E08093F1006E
:104FB00000CF993009F0FDCE837009F0B2CFE3E95C
:104FC000F1E081E031E096E32191222371F08093BA
:104FD000E9003093EB00DF0111972C912093EC0056
:104FE0009093ED008F5F873079F78EE78093EA002A
:104FF0001092EA008F8980930105DBCE8B8D9C8D0A
:105000001092E900109296041092950490939404E3
:1050100080939304898D811192C08E899D89913AE4
:1050200049F4813209F07DCF47E050E06FE071E054
:1050300080E0B3CF913209F074CF833269F48F8965
:10504000988DB0E0A0E080930B0190930C01A093A9
:105050000D01B0930E01ADCE803269F48091E8006D
:1050600082FFFCCF67E08FE091E00E9475058BEF37
:105070008093E8009ECE823209F09BCE8F89809388
:105080001601EEEFFFE7859194918B3F9C4D51F116
:10509000E0E0F8E080910F0190911001A0911101E2
:1050A000B0911201803B9440A105B105F1F48091CB
:1050B000160180FD1AC0EE3F8AE0F80789F587E700
:1050C00097E791838083809160008093970488E1C3
:1050D0009BE00FB6F894A895809360000FBE909364
:1050E000600067CEEEEFFAE0D5CF808191818737FF
:1050F000974709F05ECEA895809160008861809303
:1051000060008091970480936000EE3F2AE0F207F0
:1051100089F08091FE0A9091FF0A9183808349CEA5
:10512000808191818737980751F29093FF0A80938D
:10513000FE0AC5CF1092FF0A1092FE0A3ACE0E94D4
:10514000F702DC0112960D911C910115110509F46D
:10515000E8CED801ED91FC910190F081E02DBE01E7
:105160006B5E7F4FC8010995811123CEF801008540
:105170001185EBCF181619060CF41BCED2CEF1E038
:10518000FF12BECE6EE473E004CF1F920F920FB6F3
:105190000F9211242F933F934F935F936F937F93BD
:1051A0008F939F93AF93BF93CF93DF93EF93FF932F
:1051B00080919204C0919104D0E087FF24C01092A6
:1051C000850010928400809192048F5F80939204F6
:1051D00080919204082E000C990B8C179D0724F4E3
:1051E000809192048C30C4F180918400909185006C
:1051F000049680349C4908F47AC080918400909190
:105200008500049676C080919204082E000C990BBC
:105210008C179D07C4F6E09192048E2FEE0F990B28
:10522000FC01EE0FFF1FE80FF91FE359FB4F8081D0
:1052300086FFC9CFE09192048E2FEE0F990BFC01EF
:10524000EE0FFF1FE80FF91FE359FB4F808160E06D
:105250008F730E948003B7CF209184003091850026
:10526000E09192048E2FEE0F990BFC01EE0FFF1FC1
:10527000E80FF91FE359FB4F81819281820F931F41
:105280009093890080938800E09192048E2FEE0F16
:10529000990BFC01EE0FFF1FE80FF91FE359FB4FBD
:1052A000808186FF11C0E09192048E2FEE0F990B42
:1052B000FC01EE0FFF1FE80FF91FE359FB4F808140
:1052C00061E08F730E948003FF91EF91DF91CF9196
:1052D000BF91AF919F918F917F916F915F914F910E
:1052E0003F912F910F900FBE0F901F90189580E463
:1052F0009CE990938900809388008FEF80939204BB
:10530000E3CF1F920F920FB60F9211242F933F936A
:105310004F935F936F937F938F939F93AF93BF93BD
:10532000EF93FF938091B900887F803609F44AC0DB
:10533000F0F5883209F4A7C018F5803109F49BC054
:10534000B8F4882309F4F9C0883009F494C0FF91B7
:10535000EF91BF91AF919F918F917F916F915F91ED
:105360004F913F912F910F900FBE0F901F90189566
:10537000883109F488C0803251F78093260514C023
:10538000803409F49DC040F48033B9F38833F9F6D2
:105390008093260585ECB0C0803509F485C088353A
:1053A00009F496C0883499F60E940119D0CF883943
:1053B00009F48CC038F5883729F050F4883611F09C
:1053C000803729F683E08093280510926C0457C03B
:1053D000883809F47BC0803919F0803809F0B7CFDC
:1053E00080916C04803208F071C0E0916C0481E01F
:1053F0008E0F80936C048091BB00F0E0E45BFB4F68
:1054000080833DC0803B39F0E0F4803A09F479C0F4
:10541000883A09F09CCF84E08093280510924904D3
:1054200010924804E0914604F09147040995809158
:10543000480481110FC081E0809348041092260433
:1054400009C0803C09F4A6CF883C09F4A3CF883B6F
:1054500009F07DCFE091490481E08E0F80934904EB
:10546000F0E0EA5DFB4F80818093BB00909149049E
:105470008091480429C0809103058093BB0085EC8E
:105480008093BC0064CF90912505809124059817E6
:1054900058F5E091250581E08E0F80932505F0E019
:1054A000EC5FFA4F8081E9CFE091250581E08E0F16
:1054B000809325058091BB00F0E0EC5FFA4F80837C
:1054C00090912505809124059817C8F285E8D8CFDA
:1054D000E091250581E08E0F809325058091BB002A
:1054E000F0E0EC5FFA4F80838091270581115CCF5B
:1054F00081E08093020584EA8093BC001092280525
:1055000026CF85EC8093BC001092280580916C0416
:10551000803230F4E0916C04F0E0E45BFB4F1082E9
:1055200060916C0470E0E0914A04F0914B048CE4CB
:1055300094E0099510926C040ACF1092260534CF9E
:10554000EF92FF920F931F93CF93DF93F82E192FB3
:10555000E62E042F81E0860F880F0E94F00483E07E
:105560000E94F004CF2DD12FEC0EFD2EF11CCE1594
:10557000DF05B9F007FF13C0FE0184910E94F0041B
:10558000182F80E00E94F004812321968111EFCF33
:10559000DF91CF911F910F91FF90EF900895888137
:1055A000EDCF81E0F5CF1092C8061092C70688EEC5
:1055B00093E0A0E0B0E08093C9069093CA06A09360
:1055C000CB06B093CC0627EB31E03093C606209390
:1055D000C5062FEF3FEF3093D2062093D1061092ED
:1055E000B3061092B2068093B4069093B506A093CA
:1055F000B606B093B70689EC91E09093B10680931C
:10560000B0061092C0068FEF8093BC068093BD0653
:105610008093BE068093BF061092C4061092C30604
:105620001092EC071092EB0785EC96E09093E70759
:105630008093E60710921D078CE28093E9078BE3C5
:105640008093E8078FE28093EA0780E6809318074B
:105650008FE580931907109217071092E2071092B6
:10566000E1071092E4071092E30781E08093DF07DF
:10567000EDEEF7E083E398E0119211928E179F0709
:10568000D9F710921C070895789484B5826084BD80
:1056900084B5816084BD85B5826085BD85B5816036
:1056A00085BD80916E00816080936E0010928100B4
:1056B000809181008260809381008091810081606F
:1056C0008093810080918000816080938000809130
:1056D000910082608093910080919100816080931D
:1056E0009100809190008160809390008091C10032
:1056F00084608093C1008091C10082608093C1006A
:105700008091C10081608093C1008091C30081605D
:105710008093C3008091C00082608093C00080911C
:10572000C20081608093C20080917A00846080937F
:105730007A0080917A00826080937A0080917A006A
:10574000816080937A0080917A00806880937A00EB
:105750001092010510929A04109299048091D7003A
:1057600081608093D70080EA8093D80089B58061FA
:1057700089BD89B5826089BD09B400FEFDCF61E0B5
:1057800070E080E090E00E94B2048091D8008F7CAD
:1057900080618093D8008091E000807F8093E0005A
:1057A0008091E1008E7E8093E1008DE08093E200A5
:1057B000559A209A8FEF9FEF9093D2068093D1064F
:1057C00080E094E09093C4068093C30686ED96E152
:1057D0009093EC078093EB0781EB9CE19093EE07AD
:1057E0008093ED078EEB9BE19093F0078093EF079A
:1057F0008BEC9CE1909322088093210886ED93E145
:105800009093F2078093F1078AEB9AE19093F40763
:105810008093F30783EE93E1909318088093170821
:1058200086EF93E190931A08809319088BE19AE12F
:1058300090932C0880932B0889E494E19093F607C9
:105840008093F5078BE795E2909300088093FF071C
:1058500082EC97E1909306088093050884E294E235
:10586000909304088093030885EE96E190930808CE
:10587000809307088BE997E190930A0880930908C1
:105880008DEB93E290930E0880930D0887EC94E2E1
:1058900090931408809313088BE695E29093160872
:1058A0008093150880EE92E190931C0880931B086A
:1058B0008DE195E19093200880931F0881EC93E29D
:1058C000909324088093230881E080931D070E9411
:1058D000181290E080E00E9466150091C3061091B6
:1058E000C406833299F40033110580F0F7E1EF2EFE
:1058F000F1E0FF2ED0E0C0E02196CE010E94A3315E
:10590000D7018D937D01CF32D105B1F710929C0460
:1059100010929B048BE390E0EC0121960E946615A7
:10592000882309F409C180919B0490919C040196FD
:1059300090939C0480939B04CE010C171D0760F785
:105940006CE773E085E00E94B2160E94E404609365
:10595000CF047093D0048093D1049093D2040E941A
:10596000E4046093D3047093D4048093D50490939B
:10597000D6040E94E4046E5F7F4F8F4F9F4F609369
:10598000D7047093D8048093D9049093DA040E94CA
:10599000E4046C5F7F4F8F4F9F4F6093DB047093E5
:1059A000DC048093DD049093DE040E94E4046C5FC9
:1059B0007F4F8F4F9F4F6093DF047093E00480937D
:1059C000E1049093E2040E94E4046A5F7F4F8F4FEA
:1059D0009F4F6093E3047093E4048093E5049093F5
:1059E000E6040E94E404685F7F4F8F4F9F4F6093EF
:1059F000E7047093E8048093E9049093EA04662432
:105A0000639455245394E0E0AE2EE0E0BE2E77245C
:105A1000739480911C078111C9C08091E607909111
:105A2000E707DC01ED91FC910084F185E02D0995FB
:105A3000892B09F4BBC08091E6079091E707DC0150
:105A4000ED91FC910084F185E02D099570E6E72E3B
:105A5000F12C8036910564F48091E6079091E70778
:105A6000DC01ED91FC910084F185E02D09957C012C
:105A7000C091E607D091E7076EE7862E67E0962E85
:105A8000640110E000E0E016F10609F05AC0D0E031
:105A9000C0E0EC16FD0609F4BCCFF40191914F0172
:105AA0001092DE073091EA0720911B0790931B07A5
:105AB000931304C0921302C010921B078091170722
:105AC000E82FF0E04091E807EB5EF84F94135CC0DC
:105AD000321709F459C01186882321F07092DE072D
