:100000001DC200004CC200004AC2000048C20000ED
:1000100046C2000044C2000042C2000040C20000CC
:100020003EC200003CC200003AC2000038C20000DC
:1000300036C2000034C2000032C2000030C20000EC
:100040002EC200000C94580A2AC2000028C20000E8
:1000500026C2000024C2000022C200000C94E52A3F
:100060001EC2000069C300003EC3000018C20000A9
:1000700016C2000014C2000012C2000010C200002C
:100080000C9485090CC200000AC2000008C20000DE
:1000900006C2000004C2000002C200000C942F1E21
:1000A000FEC10000FCC100000C94B208F8C10000C1
:1000B000F6C10000F4C10000F2C1000087C70000D3
:1000C000EEC10000ECC10000EAC10000E8C1000080
:1000D000E6C10000E4C10000E2C10000E0C1000090
:1000E000DEC10000B904C204CB04D404A704B004E8
:1000F000DD0442064B0654065D0666062F066F06B3
:100100002F06390675124F1218128C104010E80F86
:10011000C00E8C0E3D0EBE0DCC12E11E7A1E7A1E54
:100120007A1E7A1E7A1E7A1E7A1EEB1E7A1E7A1E9E
:100130007A1E7A1E7A1E7A1E7A1EEB1E7A1E7A1E8E
:100140007A1E7A1E7A1E7A1E7A1EF31E7A1E7A1E76
:100150007A1E7A1E7A1E7A1E7A1E071F7A1E7A1E51
:100160007A1E7A1E7A1E7A1E7A1EF31E7A1E7A1E56
:100170007A1E7A1E7A1E7A1E7A1EA91E7A1E7A1E90
:100180007A1E7A1E7A1E7A1E7A1EB61E7A1E7A1E73
:100190007A1E7A1E7A1E7A1E7A1EA21E7A1E7A1E77
:1001A0007A1E7A1E7A1E7A1E7A1E341F7A1E7A1ED4
:1001B0007A1E7A1E7A1E7A1E7A1E961E7A1E7A1E63
:1001C0007A1E7A1E7A1E7A1E7A1EBF1E7A1E7A1E2A
:1001D0007A1E7A1E7A1E7A1E7A1ED81E7A1E7A1E01
:1001E0007A1E7A1E7A1E7A1E7A1ED81E7A1E7A1EF1
:1001F0007A1E7A1E7A1E7A1E7A1ED81E7A1E7A1EE1
:100200007A1E7A1E7A1E7A1E7A1ED81E7A1E7A1ED0
:100210007A1E7A1E7A1E7A1E7A1E8D1E7A1E7A1E0B
:100220007A1E7A1E7A1E7A1E7A1E921E7A1E7A1EF6
:100230007A1E7A1E7A1E7A1E7A1E8D1E7A1E7A1EEB
:100240007A1E7A1E7A1E7A1E7A1E921E7A1E7A1ED6
:100250007A1E7A1E7A1E7A1E7A1E121F7A1E7A1E45
:100260007A1E7A1E7A1E7A1E7A1E501E7A1E7A1EF8
:100270007A1E7A1E7A1E7A1E7A1E501E7A1E7A1EE8
:100280007A1E7A1E7A1E7A1E7A1E651E7A1E7A1EC3
:100290007A1E7A1E7A1E7A1E7A1E2E1F7A1E7A1EE9
:1002A0007A1E7A1E7A1E7A1E7A1E2E1FF628FA28C9
:1002B000FE2804290A29F528102916291C29222993
:1002C00028292E2934293A29F52840294629F028B9
:1002D000B729BF29C429CE29D829A529E229EA2985
:1002E000F229FC29062A102A1F2A292AA529332A9D
:1002F0003D2A472A00002200250028002B002E005E
:100300003100340002010000050108010B0100006A
:1003100020002300260029002C002F0032000001BD
:100320000000030106010901050505050705080888
:100330000808020202020A0A08080404040401016F
:100340000101010101010303030303030303040784
:1003500007070C0C0C0C0C0C0C0C0202020206061B
:100360000606060606060B0B0B0B0B0B0B0B01020E
:1003700010202008081020401020408002010201B7
:10038000080402010102040810204080804020106F
:1003900008040201800402018040201008040201C8
:1003A0000804020101020408102040800102040830
:1003B0001020408000000A0B02090C0D0E080703F4
:1003C0000401000000000000000000000000000028
:1003D000000000000000000000000000000000001D
:1003E00012111000000000000000000000000000DA
:1003F000000000000000000000002000526F636B4E
:10040000732100200020004D6F6269666C69676887
:1004100074004F4B004F4B006E2F61004F4B00009C
:10042000002100240027002A002D003000330001A5
:10043000010000040107010A0100803111241FBEE0
:10044000CFEFD1E2DEBFCDBF00E00CBF13E0A0E0F4
:10045000B2E0E4E2F7E700E00BBF02C007900D92C4
:10046000A839B107D9F727E1A8E9B3E001C01D9287
:10047000AF3AB207E1F712E0CEE1D2E000E006C009
:1004800021970109802FFE010E948936CD31D107C5
:1004900080E00807A9F70E942F2B0C94903BB0CD69
:1004A000CF92DF92EF92FF920F931F93CF93DF9340
:1004B0004115510509F16A018C017B01C0E0D0E0D2
:1004C00004C02196CC16DD0669F0D7016D917D013F
:1004D000D801ED91FC910190F081E02DC8011995B2
:1004E000892B79F7CE01DF91CF911F910F91FF906A
:1004F000EF90DF90CF900895C0E0D0E0F3CF0E945E
:1005000092388FEC95E1B4D121E0892B09F420E0F9
:10051000822F0895EF92FF920F931F93CF93DF9353
:10052000EC0181E0888F9B8D8C8D981791F1062FBF
:10053000EB8CF12C8FEFE81AF80A8FE3E822FF2406
:100540001E2D03C00FB607FE1CC08C8D1817D1F3EB
:100550008B8DFE01E80FF11DE358FF4F00839FB71D
:10056000F894EB8EEA89FB898081806280839FBF4B
:1005700081E090E0DF91CF911F910F91FF90EF907C
:100580000895E889F989808185FFDFCFCE0159D4AC
:10059000DCCFE889F989808185FFC9CF9FB7F894BE
:1005A000EE89FF896083E889F9898081837080649E
:1005B00080839FBFDDCFCF93DF93EC01888D8823AD
:1005C000B1F0EA89FB89A889B989808185FF0CC0CF
:1005D0000FB607FCFACF808185FFF7CF8C9185FF9E
:1005E000F4CFCE012ED4EDCF8C9186FFF1CFDF91E9
:1005F000CF910895EF92FF920F931F93CF93DF93C4
:10060000FC011182108213821282158214826115FC
:100610007105B9F17B018C01FB0101900020E9F724
:100620003197EF01C61BD70BBE016F5F7F4F80E094
:1006300090E00E94B237F8010097B1F09183808377
:10064000D383C28324813581232B11F4FC011082D2
:10065000F801D583C483B701DF91CF911F910F912A
:10066000FF90EF900C949F3880819181009711F05A
:100670000E942937F8011182108215821482138298
:100680001282DF91CF911F910F91FF90EF9008950B
:10069000EF92FF920F931F93CF93DF93FB0164912F
:1006A0006623F1F07F018C01C0E0D0E007C0219605
:1006B000F701EC0FFD1F6491662351F0D801ED9115
:1006C000FC910190F081E02DC8011995892B79F7F3
:1006D000CE01DF91CF911F910F91FF90EF90089580
:1006E000C0E0D0E0F5CF1F920F920FB60F92112409
:1006F0000BB60F922F933F934F935F936F937F931C
:100700008F939F93AF93BF93EF93FF938FEC95E1FC
:1007100098D3FF91EF91BF91AF919F918F917F916E
:100720006F915F914F913F912F910F900BBE0F9062
:100730000FBE0F901F9018951F920F920FB60F9239
:1007400011240BB60F922F933F934F935F936F93A8
:100750007F938F939F93AF93BF93CF93EF93FF9329
:10076000E091DF15F091E0158081E091E515F091C1
:10077000E61582FF15C08081FF91EF91CF91BF9167
:10078000AF919F918F917F916F915F914F913F9129
:100790002F910F900BBE0F900FBE0F901F901895CA
:1007A000C0814091E81550E04F5F5F4F9A01ABEA7E
:1007B000BAEA0E9469350024880F991F001C880F2F
:1007C000991F001C892F902D60E6689F9001699FFA
:1007D000300D1124421B530B8091E915841761F2EF
:1007E000E091E815F0E0E153FA4EC58F4093E8152B
:1007F000C3CFFC01238D348D231730F4832F90E079
:10080000821B9109019708958FE390E0821B910963
:10081000830F911D0895FC01918D828D9817B9F079
:10082000828DDF01A80FB11D5D968C91228D2F5F07
:100830009BEA299F912D11249295969596959370F8
:1008400030E6939F20191124228F90E008958FEFB6
:100850009FEF0895FC01918D828D981731F0828D64
:10086000E80FF11D858D90E008958FEF9FEF0895BB
:10087000FC01418D828D50E0405A5F4F481B510969
:100880009A01ABEABAEA0E9469350024880F991FE1
:10089000001C880F991F001C892F902D60E6689F0F
:1008A0009001699F300D1124CA01821B930B08959A
:1008B00080E090E0892B19F024DE81112DC080E0CA
:1008C00090E0892B41F080E090E0892B21F00E949C
:1008D000000081111EC080E090E0892B41F080E093
:1008E00090E0892B21F00E94000081110FC080E070
:1008F00090E0892B51F080E090E0892B31F00E944C
:100900000000882361F00C94000008950E9400000C
:10091000EECF0E940000DFCF0E940000D0CF0895EC
:10092000DC014770552766277727FA013197E730B2
:10093000F10538F0ED91FC910480F581E02D61E046
:1009400019948827EE58FF4F8F4F0C948936ED91FC
:10095000FC9111970480F581E02D6AE0CD01199496
:10096000ED91FC9111970480F581E02D68E0CD01B7
:100970001994ED91FC9111970480F581E02D65E0CB
:10098000CD011994ED91FC9111970480F581E02D32
:1009900064E0CD011994ED91FC9111970480F581EB
:1009A000E02D66E0CD011994ED91FC911197048042
:1009B000F581E02D62E0CD011994ED91FC91119744
:1009C0000480F581E02D69E0CD011994CF93DF9388
:1009D000EC01CB01BA0126E030E040E050E00E949B
:1009E0001B35623071058105910509F44BC0ACF0EF
:1009F000643071058105910521F1D4F165307105EF
:100A00008105910541F5E881F9810480F581E02DAA
:100A100066E0CE01DF91CF911994611571058105D2
:100A20009105E1F06130710581059105A1F4E8813E
:100A3000F9810480F581E02D65E0CE01DF91CF9151
:100A40001994E881F9810480F581E02D62E0CE01FE
:100A5000DF91CF911994DF91CF910895E881F981C9
:100A60000480F581E02D64E0CE01DF91CF911994EF
:100A7000E881F9810480F581E02D63E0CE01DF910A
:100A8000CF911994E881F9810480F581E02D61E02E
:100A9000CE01DF91CF9119944370552766277727B0
:100AA000DC01ED91FC910480F581E02D423051058F
:100AB0006105710581F0433051056105710549F00B
:100AC000413051056105710511F065E0199466E04A
:100AD000199469E019946AE01994CF93DF93EC01BB
:100AE000CB01BA0123E030E040E050E00E941B352A
:100AF000613071058105910501F162307105810553
:100B0000910589F0672B682B692B19F0DF91CF9144
:100B10000895E881F9810480F581E02D64E0CE013B
:100B2000DF91CF911994E881F9810480F581E02D5E
:100B300062E0CE01DF91CF911994E881F9810480C0
:100B4000F581E02D61E0CE01DF91CF9119944370E2
:100B5000552766277727DC01ED91FC910480F5810C
:100B6000E02D423051056105710581F0433051059A
:100B70006105710549F0413051056105710511F0BC
:100B800062E0199463E0199460E0199461E01994AB
:100B90000F931F93CF93DF93EC01E881F9810480D9
:100BA000F581E02D8C010D5B1F4FD8018C918111D7
:100BB0002DC060E0CE011995E881F9810480F581AE
:100BC000E02DD8018C9181111FC061E0CE011995F3
:100BD0008BA59CA58230910538F0880F991F880F4E
:100BE000991F05970197F1F7E881F9810480F58154
:100BF000E02DD8018C9181110BC060E0CE01DF9116
:100C0000CF911F910F91199463E0E0CF62E0D2CFB2
:100C100062E0CE01DF91CF911F910F911994CF9394
:100C2000DF93EC0120E030E0A9016B897C898D899C
:100C30009E890E94763618162CF4EFA5F8A9DF914C
:100C4000CF911994E9A9FAA9DF91CF911994CF9383
:100C5000DF93EC018A8190E08930910518F0DF91F3
:100C6000CF910895FC018827E758FF4F8F4F0C94D0
:100C70008936E881F9810488F589E02DCE01DF917C
:100C8000CF911994E881F9810084F185E02DCE019E
:100C9000DF91CF911994E881F9810284F385E02DE9
:100CA000CE01DF91CF911994E881F9810484F58513
:100CB000E02DCE01DF91CF911994E881F98106846E
:100CC000F785E02DCE01DF91CF911994E881F9816C
:100CD0000088F189E02DCE01DF91CF911994E88150
:100CE000F9810288F389E02DCE01DF91CF9119942B
:100CF000CF93DF93811121C02091C8032223E9F013
:100D0000A091B403B091B503FD01EA5BFF4F82816E
:100D10006817B1F0E6EBF3E030E0220F331F2C54FC
:100D20003C4F08C0A191B191ED01CA5BDF4F8A81B0
:100D3000681731F0E217F307A9F7DF91CF91089513
:100D400011968C9111978823C1F31D961D921D92C7
:100D50001D921C92509751961D921D921D921C92AD
:100D60005497D5961D921D921D921C92D8979596D8
:100D70001D921D921D921C92989755961D921D9240
:100D80001D921C92589711961C92D7CFCF92DF924A
:100D9000EF92FF920F931F93CF93DF93FC01928109
:100DA000943079F1983069F1933041F1963031F116
:100DB00022E0D22EE62EF12C8F010D5F1F4FC0E0F6
:100DC000D0E0CC24C394C7010C2E02C09595879522
:100DD0000A94E2F7F801648180FD6C25F8018191A5
:100DE0008F0110D62196CD1570F3DF91CF911F9111
:100DF0000F91FF90EF90DF90CF90089583E0D82E71
:100E0000D9CF94E0D92ED6CFCF93DF93FC012281A6
:100E1000211103C0DF91CF910895EC010190F08181
:100E2000E02D0480F581E02D60E019958EA58F3FBF
:100E300089F361E00E944C296DA58EA5DF91CF91C9
:100E4000E1C5FC01848DDF01A80FB11DA358BF4F80
:100E50002C91848D90E001968F739927848FA689B9
:100E6000B7892C93A089B1898C91837080648C930D
:100E7000938D848D981308950288F389E02D8081E5
:100E80008F7D80830895CF93FC01C48121E020935E
:100E9000ED03C093120410921D0410921C0483856C
:100EA000682B84ED98E00E94CC1A20911C0421321A
:100EB000E8F580911B048111FCCF82E080931B0434
:100EC00081E080931A048FEF8093EC031092EB0380
:100ED0002093EA03222369F0EEEEF3E0AAECB3E0FC
:100EE000215030E021513C4F81918D93E217F3075F
:100EF000D9F71092C9038091C903CC0FC82BC093B6
:100F0000C903809119048130C9F085EE8093BC003B
:100F100080911B048230E1F38091EC038F3F31F02C
:100F20008091EC03803211F08091EC0310921D044B
:100F300010921C041092ED03CF91089510921904A1
:100F40008091C9038093BB008091BC0083FDF8CFE2
:100F500085EC8093BC00DCCF0F931F93CF938C0163
:100F6000C62F646090DF6C2F6B7FC8018CDF83EC31
:100F700090E00197F1F7CF911F910F910895FF92A3
:100F80000F931F93CF93DF938C01D62FC42F862FFF
:100F9000807FF82EF42A6F2DC80175DF6F2DC801F0
:100FA000DBDF80E1D89FA0011124C42B6C2FC80186
:100FB0006ADF6C2FC801DF91CF911F910F91FF90D5
:100FC000CBCF41E0DCDF81E090E008951F920F92EB
:100FD0000FB60F9211240BB60F922F933F934F939E
:100FE0005F936F937F938F939F93AF93BF93EF9391
:100FF000FF9380910E0487FD9BC020910E04809189
:10100000720990E0022E000C330B281739070CF4FC
:101010006AC020910E042F5F20930E0420910E04CD
:10102000022E000C330B281739070CF040C08091BA
:101030000E048C30E4F5209124013091250180913B
:101040000E04082E000C990BFC01EE0FFF1F8E0FF3
:101050009F1FFC01EE51F74F81819281820F931FF8
:10106000909329018093280180910E04082E000C92
:10107000990BFC01EE0FFF1F8E0F9F1FFC01EE511D
:10108000F74F808186FD5CC0FF91EF91BF91AF91DA
:101090009F918F917F916F915F914F913F912F9190
:1010A0000F900BBE0F900FBE0F901F901895809160
:1010B000240190912501049680349C4968F0809128
:1010C0002401909125010496909329018093280191
:1010D0008FEF80930E04D8CF80E49CE99093290190
:1010E00080932801F5CF20910E04022E000C330BC3
:1010F000F901EE0FFF1F2E0F3F1FF901EE51F74FC1
:10110000208126FF86CF80910E04082E000C990BBB
:10111000FC01EE0FFF1F8E0F9F1FFC01EE51F74FDA
:10112000808160E08F736ED48091720990E071CFFE
:1011300010922501109224018091720990E069CFEC
:1011400080910E04082E000C990BFC01EE0FFF1F7E
:101150008E0F9F1FFC01EE51F74F808161E08F736E
:1011600051D492CF1F920F920FB60F9211240BB64B
:101170000F922F933F934F935F936F937F938F9330
:101180009F93AF93BF93EF93FF938091110487FDDB
:10119000A1C0809111042091720930E0082E000C4A
:1011A000990B8496821793070CF46DC080911104FB
:1011B0008F5F8093110480911104082E000C990B0D
:1011C0008496821793070CF042C0809111048C30F2
:1011D000F4F52091A4003091A50080911104082E0F
:1011E000000C990B8496FC01EE0FFF1F8E0F9F1FC2
:1011F000FC01EE51F74F81819281820F931F9093F2
:10120000A9008093A80080911104082E000C990B6E
:101210008496FC01EE0FFF1F8E0F9F1FFC01EE5105
:10122000F74F808186FD5EC0FF91EF91BF91AF9136
:101230009F918F917F916F915F914F913F912F91EE
:101240000F900BBE0F900FBE0F901F9018958091BE
:10125000A4009091A500049680349C4968F0809188
:10126000A4009091A50004969093A9008093A800F3
:101270008FEF80931104D8CF80E49CE99093A9006C
:101280008093A800F5CF80911104082E000C990BD3
:101290008496FC01EE0FFF1F8E0F9F1FFC01EE5185
:1012A000F74F808186FF82CF80911104082E000CB9
:1012B000990B8496FC01EE0FFF1F8E0F9F1FFC0100
:1012C000EE51F74F808160E08F739CD320917209BB
:1012D00030E06CCF1092A5001092A400209172090A
:1012E00030E064CF80911104082E000C990B849695
:1012F000FC01EE0FFF1F8E0F9F1FFC01EE51F74FF9
:10130000808161E08F737ED38FCF1F920F920FB6D3
:101310000F9211240BB60F922F933F934F935F932D
:101320006F937F938F939F93AF93BF93EF93FF93AD
:101330008091100487FDA1C0809110042091720952
:1013400030E0082E000C990B4896821793070CF496
:101350006DC0809110048F5F809310048091100401
:10136000082E000C990B4896821793070CF042C088
:10137000809110048C30F4F5209194003091950008
:1013800080911004082E000C990B4896FC01EE0F7A
:10139000FF1F8E0F9F1FFC01EE51F74F818192813D
:1013A000820F931F9093990080939800809110046E
:1013B000082E000C990B4896FC01EE0FFF1F8E0FB4
:1013C0009F1FFC01EE51F74F808186FD5EC0FF91AB
:1013D000EF91BF91AF919F918F917F916F915F91AD
:1013E0004F913F912F910F900BBE0F900FBE0F901A
:1013F0001F901895809194009091950004968034E8
:101400009C4968F080919400909195000496909387
:101410009900809398008FEF80931004D8CF80E4D8
:101420009CE99093990080939800F5CF80911004E7
:10143000082E000C990B4896FC01EE0FFF1F8E0F33
:101440009F1FFC01EE51F74F808186FF82CF809174
:101450001004082E000C990B4896FC01EE0FFF1F9C
:101460008E0F9F1FFC01EE51F74F808160E08F735C
:10147000C9D22091720930E06CCF10929500109281
:1014800094002091720930E064CF80911004082EFE
:10149000000C990B4896FC01EE0FFF1F8E0F9F1F4B
:1014A000FC01EE51F74F808161E08F73ABD28FCF9B
:1014B0001F920F920FB60F9211240BB60F922F931B
:1014C0003F934F935F936F937F938F939F93AF93CC
:1014D000BF93EF93FF9380910F0487FDA1C080918C
:1014E0000F042091720930E0082E000C990B0C9625
:1014F000821793070CF46DC080910F048F5F809367
:101500000F0480910F04082E000C990B0C96821783
:1015100093070CF042C080910F048C30F4F52091B9
:1015200084003091850080910F04082E000C990BE7
:101530000C96FC01EE0FFF1F8E0F9F1FFC01EE515A
:10154000F74F81819281820F931F9093890080933E
:10155000880080910F04082E000C990B0C96FC015A
:10156000EE0FFF1F8E0F9F1FFC01EE51F74F808182
:1015700086FD5EC0FF91EF91BF91AF919F918F91DA
:101580007F916F915F914F913F912F910F900BBE83
:101590000F900FBE0F901F9018958091840090912E
:1015A0008500049680349C4968F080918400909175
:1015B0008500049690938900809388008FEF809334
:1015C0000F04D8CF80E49CE9909389008093880031
:1015D000F5CF80910F04082E000C990B0C96FC019E
:1015E000EE0FFF1F8E0F9F1FFC01EE51F74F808102
:1015F00086FF82CF80910F04082E000C990B0C9669
:10160000FC01EE0FFF1F8E0F9F1FFC01EE51F74FE5
:10161000808160E08F73F6D12091720930E06CCF49
:1016200010928500109284002091720930E064CFFE
:1016300080910F04082E000C990B0C96FC01EE0F04
:10164000FF1F8E0F9F1FFC01EE51F74F808161E05D
:101650008F73D8D18FCFCF93DF93EC0161E08B8173
:101660000E944C2961E08C810E944C298A8184303F
:10167000E9F08830D9F0833079F0863069F08EA5B2
:101680008F3F89F061E00E944C296DA581E06827B9
:101690008EA5DF91CF91B6C161E08D810E944C296A
:1016A0008EA58F3F79F7DF91CF91089561E08D810D
:1016B0000E944C2961E08E810E944C29E0CFFC0100
:1016C0002281211101C00895C6CF3F924F925F92AF
:1016D0006F927F928F929F92AF92BF92CF92DF9242
:1016E000EF92FF920F931F93CF93DF93EC018F84C0
:1016F0009888A988BA888B859C85AD85BE85881A0F
:10170000990AAA0ABB0A6B897C898D899E899B01EB
:10171000AC010E9440346B017C016B8D7C8D8D8D02
:101720009E8D9B01AC010E9479359B01AC01C701E4
:10173000B6010E94DD350E94453681149104A10452
:10174000B10409F05DC062307105810591050CF4AA
:10175000D1C0CBA8DCA8EDA8FEA8FE01ED5BFF4F31
:10176000C114D104E104F10409F067C06FA878AC9A
:1017700009AD1AADC301D8018BAF9CAFADAFBEAF01
:1017800033243394181419041A041B040CF0BFC03A
:101790003082C12CD12C76018FEFC81AD80AE80A02
:1017A000F80ACBAADCAAEDAAFEAAB301C8010E94DE
:1017B0004A366BA37CA38DA39EA39301A80160E08E
:1017C00074E284E799E40E94DD35311084C0DC01C5
:1017D000CB01B0588B8B9C8BAD8BBE8BDF91CF91A7
:1017E0001F910F91FF90EF90DF90CF90BF90AF903F
:1017F0009F908F907F906F905F904F903F90089553
:10180000CBA8DCA8EDA8FEA8181419041A041B0420
:101810000CF07FC01C141D041E041F040CF060C0DB
:10182000FE01681579058A059B050CF046C0ED5B45
:10183000FF4F2081222309F442C030808BAC9CAC46
:10184000ADACBEACA5019401C501B4010E947935CF
:101850002B013C01C701B6010E94E13320E030E0DA
:1018600040E850E40E94403420E030E040E85FE38C
:101870000E9479359B01AC01C301B2010E94DD35A4
:101880009B01AC01C501B4010E9478354B015C019C
:10189000FE01FF9660807180028113819301A8018F
:1018A0000E947636181614F434018501C301D8015C
:1018B0008BAF9CAFADAFBEAF6FCFED5BFF4FCC2416
:1018C000DD247601C61AD70AE80AF90ACBAADCAAEF
:1018D000EDAAFEAA45CF6B8B7C8B8D8B9E8B7ECF2A
:1018E000C114D104E104F10409F04EC0FE01ED5B26
:1018F000FF4F3CCF1BA21CA21DA21EA21B8A1C8A4A
:101900001D8A1E8A1BAA1CAA1DAA1EAA67CF312CDB
:101910003FCF1C141D041E041F04A4F4002711272C
:101920009801081919092A093B09FE016017710776
:101930008207930714F6ED5BFF4F2081222309F401
:101940007CCFBDCFC114D104E104F10479F2B0948D
:10195000A09490948094811C911CA11CB11CFE0148
:10196000ED5BFF4F3080681579058A059B050CF00B
:1019700065CF311063CFF094E094D094C094C11C33
:10198000D11CE11CF11C59CFFE01ED5BFF4F3080F3
:10199000681579058A059B050CF050CF332009F4B2
:1019A0004DCFE9CFCF93DF93282F30E0F901EC54EE
:1019B000FC4F8491F901E259FC4FD491F901E85DA3
:1019C000FC4FC491CC23B1F0811119C0EC2FF0E091
:1019D000EE0FFF1FE25FFC4FA591B491EC91ED2358
:1019E00081E090E019F0DF91CF91089580E0DF91E0
:1019F000CF91089580E090E0DF91CF9108950E940B
:101A0000E428E4CF1F93CF93DF93282F30E0F90130
:101A1000EC54FC4F8491F901E259FC4F1491F90107
:101A2000E85DFC4FC491CC23A9F0D62F81111BC0D7
:101A3000EC2FF0E0EE0FFF1FEC50FD4FA591B4919D
:101A40008FB7F894D1110AC09C91E12FE095E9235A
:101A5000EC938FBFDF91CF911F910895EC91E12B13
:101A6000EC938FBFF7CF0E94E428E2CF2F923F92F2
:101A70004F925F926F927F928F929F92AF92BF929E
:101A8000CF92DF92EF92FF920F931F93CF93DF934A
:101A9000CDB7DEB7CF51D4400FB6F894DEBF0FBE3E
:101AA000CDBF1A821982FE0133962FEF33E0DF019A
:101AB000A9011D9241505040E1F7C25FDB4F1982EE
:101AC0001882CE50D44040E054E0BE016F5F7F4F9B
:101AD0000E949A28AE01425F5B4F68E673E0CE0138
:101AE00001960E949733DC012C91222369F1442452
:101AF00043941BE3212E1FE1312E14C0AE01425F3F
:101B00005B4F6AE673E080E090E00E949733AE019D
:101B1000425F5B4F68E673E080E090E00E9497339D
:101B2000009791F00E94513301978B30910530F767
:101B3000FC01AE01425F5B4F68E673E08827EE5719
:101B4000FF4F8F4F0C948936C15EDB4F0FB6F89470
:101B5000DEBF0FBECDBFDF91CF911F910F91FF90E0
:101B6000EF90DF90CF90BF90AF909F908F907F903D
:101B70006F905F904F903F902F90089580E090E09D
:101B80000E9497338C01AE01425F5B4F68E673E0C1
:101B900080E090E00E9497337C01AE01425F5B4F92
:101BA00068E673E080E090E00E9497335C01AE014C
:101BB000425F5B4F68E673E080E090E00E949733FD
:101BC0006C01AE01425F5B4F6AE673E080E090E03B
:101BD0000E949733C6010E945133D82EC5010E943E
:101BE0005133C82EC7010E945133E82EC8010E940C
:101BF0005133F0901304FAE0FF1609F488CF2F2D2B
:101C000030E08901000F111F000F111F000F111F7D
:101C1000020F131F0D58164FD80118964C921897A3
:101C20008C931196EC9211971296CC921297139670
:101C3000DC9261E00E944C2961E0F80181810E9400
:101C40004C2961E0D80112968C910E944C29F80130
:101C50001482158216821782C8010E94A71DD8011E
:101C600014961D921D921D921C921797C8010E94F6
:101C7000A71DF394F09213044ACF80E090E00E94F5
:101C800097334C01AE01425F5B4F68E673E080E042
:101C900090E00E9497337C01AE01425F5B4F68E6A3
:101CA00073E080E090E00E9497336C01AE01425FE8
:101CB0005B4F68E673E080E090E00E9497335C0140
:101CC000AE01425F5B4F68E673E080E090E00E9407
:101CD00097338C01AE01425F5B4F6AE673E080E0B0
:101CE00090E00E949733C8010E9451338C01C501D6
:101CF0000E9451335C01C6010E9451336C01C7013F
:101D00000E9451337C01C4010E9451339501A60108
:101D1000B7010E94D823FBCE80E090E00E94973369
:101D20006C01AE01425F5B4F68E673E080E090E0DB
:101D30000E9497335C01AE01425F5B4F68E673E03F
:101D400080E090E00E9497338C01AE01425F5B4FD0
:101D50006AE673E080E090E00E9497337C01C8015E
:101D60000E945133082FC5010E945133182FC6011C
:101D70000E9451339701402F612F0E943222C7CE1B
:101D800080E090E00E9497338C01AE01425F5B4F90
:101D900068E673E080E090E00E9497337C01AE013A
:101DA000425F5B4F68E673E080E090E00E9497330B
:101DB0006C01AE01425F5B4F6AE673E080E090E049
:101DC0000E949733C6010E945133982EC7010E948A
:101DD0005133882EC8010E945133782E80912004FF
:101DE000823009F494CE97E09093380490933904AC
:101DF000E82EF12C6701CC0CDD1C5601AE0CBF1C8B
:101E0000C501880F991F9C01275F354F5901D901E2
:101E100013967C92139714968C92149715969C9215
:101E20008CE090E00E9491368C01FC0113821282BA
:101E30002DE632E03183208374828086918612867B
:101E400038E0932E9386D50111969C938E9312962B
:101E50004C9210921F0410921E0410921D041092B6
:101E60001C0410921B0440921A041092190461E0A1
:101E700084E1C8DD61E085E1C5DD8091B9008E7F38
:101E80008093B9008091B9008D7F8093B90088E478
:101E90008093B80085E48093BC00EDE6FAE1F0930E
:101EA0001804E09317042EE63AE1309316042093C9
:101EB0001504D80115961C92159719968C911997AF
:101EC000823010F015969C92F8019285992329F0A2
:101ED000813019F485818460858362E370E080E05D
:101EE00090E00E94702AD8011B966C91C8010E9454
:101EF000430768EE73E080E090E00E94702A60E3A0
:101F0000C8010E94430760E3C80126D88BE496E429
:101F10000197F1F760E3C8010E94430760E3C8013D
:101F20001BD88BE496E40197F1F760E3C8010E94A7
:101F3000430760E3C80110D883E592E00197F1F709
:101F400060E2C8010E94430760E2C80105D8F801B9
:101F50006581606240E0C80112D884E0D80116961D
:101F60008C9340E06CE0C8010AD840E061E0C80111
:101F700006D8C1010197F1F782E0F801878340E0BC
:101F800066E0C8010E94BF0740E062E0C8010E940D
:101F9000BF07C1010197F1F786010E0D1F1D000F4C
:101FA000111F075F154FD8018D919C9128E0FC010E
:101FB000238760E00E944307D80112968C91129704
:101FC000811146C3809120048F5F809320049FCDB0
:101FD00080E090E00E9497338C01AE01425F5B4F3E
:101FE0006AE673E080E090E00E949733C8010E94A7
:101FF0005133D0902104BAE0DB1609F488CD9C015E
:102000003327F901EC5DFB4F7F01208121117FCD4A
:10201000FBE1DF9E800111240B5E154FD80119965C
:102020001C921997F801158616861786108A519604
:102030001D921D921D921C92549712961C921E92F4
:102040001197E4EBF0E01496FC93EE931397169639
:102050001C921E9215971896FC93EE9317978C93EB
:102060000E94D92AD80155966D937D938D939C93A8
:10207000589786E0F7018083D394D092210447CD0E
:1020800080E090E00E9497338C01AE01425F5B4F8D
:1020900068E673E080E090E00E9497337C01AE0137
:1020A000425F5B4F68E673E080E090E00E94973308
:1020B0006C01AE01425F5B4F68E673E080E090E048
:1020C0000E9497335C01AE01425F5B4F68E673E0AC
:1020D00080E090E00E949733AE01425F5B4F6AE67A
:1020E00073E080E090E00E949733C5010E94513375
:1020F0005C01C6010E9451336C01C7010E9451333B
:102100007C01C8010E94513300E010E09501A60156
:10211000B7010E94D823FBCC80E090E00E94973367
:102120004C01AE01425F5B4F68E673E080E090E0F7
:102130000E9497338C01AE01425F5B4F68E673E00B
:1021400080E090E00E9497337C01AE01425F5B4FDC
:1021500068E673E080E090E00E9497335C01AE0196
:10216000425F5B4F68E673E080E090E00E94973347
:102170006C01AE01425F5B4F6AE673E080E090E085
:102180000E949733C5010E945133C95EDB4F88839B
:10219000C751D440C6010E9451333C01C7010E947F
:1021A00051337C01C8010E9451336C01C4010E946B
:1021B00051334C01B0912204C05FDB4FB883C05152
:1021C000D440B43009F4A3CC9927FC01EC5DFB4F5B
:1021D000CF5EDB4FF983E883C151D4408081811108
:1021E00096CCC70199279C012C5D3B4FC85EDB4F05
:1021F00039832883C851D440D9018C91811187CC6F
:10220000C6019927FC01EC5DFB4FC45EDB4FF983EF
:10221000E883CC51D4408081811179CC562CC05FA9
:10222000DB4FF881C051D440EF2FF0E0C25EDB4FAE
:10223000F983E883CE51D44088E590E00E9491363E
:102240005C0193013327CB5EDB4F39832883C55173
:10225000D4408C01005B1F4FD8018D929C92FC01F1
:10226000EE5AFF4FC65EDB4FF983E883CA51D44074
:10227000F182E0829C012C5A3F4FCD5EDB4F3983C7
:102280002883C351D440D901CD92DC92CB5EDB4F81
:1022900088819981C551D4400197089708F441C3BA
:1022A00098E080E07501F6E5EF0EF11CD7019C93F4
:1022B00011968C9361E0882D0E944C2961E0C65EE6
:1022C000DB4FE881F981CA51D44080810E944C29BA
:1022D00061E0CD5EDB4FA881B981C351D4408C91C0
:1022E0000E944C2961E0CD5EDB4FE881F981C3514A
:1022F000D440808187DBD8018D929C92F501709645
:1023000011920E171F07E1F7F701808191811816CE
:10231000190694F500E010E019C0D7018D919C9149
:10232000081719070CF4C0C220E049E0B801C50144
:102330000E946E20F70180819181081719070CF423
:10234000A5C20F5F1F4F08171907B4F420E04FE034
:10235000B801C5010E946E2017FFDFCF20E049E0E1
:10236000B801C5010E946E20D7018D919C910F5F2D
:102370001F4F0817190754F3C25EDB4FA881B981BC
:10238000CE51D440AA0FBB1FAA0FBB1FA15CBD4EEC
:10239000FD01A192B19212964C9212975D0123E039
:1023A000A20EB11C13966C921397CB5EDB4F488143
:1023B0005981C551D440452B09F494C200E010E086
:1023C0007D016F012AC0F7018081918117FD1BC03B
:1023D000FC01EA5AFF4F20813181021713079CF458
:1023E00021E04CE0B8010E946E20F70180819181CC
:1023F000FC01EA5AFF4F20813181021713071CF4B8
:10240000B8010E94DB200F5F1F4FD5015C90852D26
:1024100090E08017910709F465C2D6018C9188235A
:1024200091F2051508F447C2D7018D919C91CECF4A
:1024300080E090E00E9497338C01AE01425F5B4FD9
:102440006AE673E080E090E00E949733C8010E9442
:1024500051336C0110912304183209F458CB992799
:10246000FC01EC5DFB4F7F018081811150CB61E06D
:102470008C2D0E944C2960E070E08C2D0E948D29EB
:10248000E12FF0E0EE0FFF1FE158FA4EC0821182FB
:1024900083E0D7018C931F5F1093230438CB80E037
:1024A00090E00E9497336C01AE01425F5B4F68E69B
:1024B00073E080E090E00E9497338C01AE01425FB0
:1024C0005B4F6AE673E080E090E00E9497337C0106
:1024D000C8010E945133182FC6010E945133970141
:1024E00040E0612F0E94322212CB80E090E00E94F7
:1024F00097338C01AE01425F5B4F6AE673E080E088
:1025000090E00E9497336C01C8010E945133F09013
:102510006A04B4E4FB1609F4FACA8C0111270C5DB5
:102520001B4FF80120812111F2CAA601682FCE01AC
:102530008E5F9B4F0E94171E8F2D90E0DC01AA0F2B
:10254000BB1FA80FB91FAA0FBB1FAA0FBB1FA15B00
:10255000BD4E8CE0FE01EE5FFB4F01900D928A951F
:10256000E1F720916A04822F90E0FC01EE0FFF1F3B
:10257000E80FF91FEE0FFF1FEE0FFF1FE15BFD4E8F
:1025800043E851E25387428751874087D8014C92F4
:102590002F5F20936A04BBCA80E090E00E949733CB
:1025A0008C01AE01425F5B4F68E673E080E090E033
:1025B0000E9497337C01AE01425F5B4F6AE673E095
:1025C00080E090E00E9497336C01C7010E94513374
:1025D000682EC8010E9451337C0170901404F5E00C
:1025E0007F1609F494CA8C0111270C5D1B4FD8018A
:1025F0008C9181118CCA0E94D92A4B015C0162E046
:102600008E2D0E944C298E2D0E94512A872D90E0FC
:10261000FC01EE0FFF1FE80FF91FEE0FFF1FEE0F7B
:10262000FF1FE353F64FD182C082E28214821382ED
:1026300085829682A782B08623EC36E13287218795
:102640006386EBE0D801EC937394709214045FCA34
:1026500015966C911597669561508D919C910E948D
:102660008A27F801248130E0C9010A9797FD64C1E7
:1026700095958795892B81F1912C86010E0D1F1D53
:10268000000F111F075F154F580124E0A20EB11C67
:1026900005C09595879548175907F1F0D8018D9198
:1026A0009C91DC01ED91FC910280F381E02D41E0F1
:1026B00050E06CE673E019959394492D50E0F501D4
:1026C000208130E0C9010A9797FFE3CF01969595E5
:1026D00087954817590711F786010E0D1F1D000F2A
:1026E000111F075F154F67E074E0D8018D919C9131
:1026F0000E944803F801248130E0C9010A9797FD40
:1027000021C195958795892B49F1912C86010E0D54
:102710001F1D000F111F075F154F5801F4E0AF0E8A
:10272000B11C05C09595879548175907B9F065E024
:1027300074E0D8018D919C910E9448039394492D97
:1027400050E0F501208130E0C9010A9797FFEACFF8
:102750000196959587954817590749F786010E0DFB
:102760001F1D000F111F075F154FD80115966C91A3
:10277000159766958D919C910E948A27F801248176
:1027800030E0C901069797FDDBC095958795892BA9
:1027900049F1912C86010E0D1F1D000F111F075FBF
:1027A000154F5801F4E0AF0EB11C05C09595879503
:1027B00048175907B9F063E074E0D8018D919C91F6
:1027C0000E9448039394492D50E0F501208130E0A8
:1027D000C901069797FFEACF019695958795481707
:1027E000590749F786010E0D1F1D000F111F075FC6
:1027F000154F6CEF73E0D8018D919C910E944803B6
:10280000F801248130E0C901069797FD97C095959E
:102810008795892B49F1912C86010E0D1F1D000F04
:10282000111F075F154F5801F4E0AF0EB11C05C032
:102830009595879548175907B9F06AEF73E0D80165
:102840008D919C910E9448039394492D50E0F5018D
:10285000208130E0C901069797FFEACF0196959550
:1028600087954817590749F7F601EE0DFF1DEE0F42
:10287000FF1FE75FF54F60E0808191810E948A270A
:10288000809120048F5F8093200441C9B801C50165
:102890000E94DB20F70180819181081719070CF055
:1028A00050CD20E04CE05CCD27E04BE0B801C50105
:1028B0000E946E2039CDB8017727F7018081918180
:1028C000FC01EA5AFF4F20813181621773070CF037
:1028D0007DCDC95EDB4F2881C751D4404AE00E94BC
:1028E0006E20A2CD84E0CF5EDB4FE881F981C1513B
:1028F000D4408083C45EDB4FA881B981CC51D440E1
:102900008C93C85EDB4FE881F981C851D440808345
:10291000C05FDB4F8881C051D4408F5F8093220419
:10292000F6C8CB5EDB4F9881C551D440CA5EDB4F01
:102930008881C651D440B6CC01969ACE019667CF15
:10294000019623CF0196DDCE8F929F92AF92BF92D8
:10295000CF92DF92EF92FF920F931F93CF93DF936B
:102960000E943D277C010E9478275C010E943D2740
:102970008C016701CC0CDD1CCC0CDD1CCC0CDD1CEF
:10298000E601CE0DDF1DCD58D64F8885811117C0C9
:102990000E94D92A609398037093990380939A03B5
:1029A00090939B03DF91CF911F910F91FF90EF9038
:1029B000DF90CF90BF90AF909F908F9008956EE67C
:1029C00073E0C5010E949433009709F442C0249635
:1029D000812C912C5401839414C0488159816A81BF
:1029E0007B81842B952BA62BB72B88839983AA8375
:1029F000BB836EE673E080E090E00E949433009722
:102A000041F10E945133A501940104C0220F331FEC
:102A1000441F551F8A95D2F7DA01C9011016110615
:102A2000E4F280959095A095B095488159816A818E
:102A30007B8184239523A623B72388839983AA8344
:102A4000BB836EE673E080E090E00E9494330097D1
:102A5000C1F6C6018E0D9F1D8D58964F0E94A71D71
:102A600097CF0F931F93CF93DF930E943D27EC01E5
:102A70000E943D278C010E943D27FE01EE0FFF1FA3
:102A8000EE0FFF1FE15CFD4E9281992319F09381B7
:102A9000091778F00E94D92A6093980370939903DC
:102AA00080939A0390939B03DF91CF911F910F9195
:102AB0000895B80177270190F081E02DDF01AA5A2F
:102AC000BF4F2D913C916217730724F7282F4AE0DE
:102AD000CF010E946E20DECFC4CFCF930E943D274E
:102AE000C82F0E943D27BC018C2F0E948D290E9477
:102AF000D92A609398037093990380939A039093D3
:102B00009B03CF9108950E94D92A609398037093F4
:102B1000990380939A0390939B038AE090E00E942C
:102B2000872880918C168823F1F06091601780913E
:102B30005D1790915E170E94BA2780915D17909162
:102B40005E17EDE6F4E001900020E9F73197AF0160
:102B50004D565440DC01ED91FC910280F381E02D53
:102B60006DE674E019950C9429280E94D92A609387
:102B700098037093990380939A0390939B038AE040
:102B800090E00E94872880918C16811102C00C94DD
:102B900029286091601780915D1790915E170E94BF
:102BA000BA2780915D1790915E17E0E0F2E0019006
:102BB0000020E9F73197AF0140505240DC01ED9120
:102BC000FC910280F381E02D60E072E01995809124
:102BD0008C168823E1F26091601780915D179091C7
:102BE0005E170E94BA2780915D1790915E17EFE102
:102BF000F2E001900020E9F73197AF014F515240C8
:102C0000DC01ED91FC910280F381E02D6FE172E037
:102C1000199580918C16882309F4B9CF60916017BB
:102C200080915D1790915E170E94BA2780915D1781
:102C300090915E17E4E1F2E001900020E9F731970E
:102C4000AF0144515240DC01ED91FC910280F381CF
:102C5000E02D64E172E0199580918C16882309F4C7
:102C600096CF6091601780915D1790915E170E94DA
:102C7000BA2780915D1790915E17DC01ED91FC9170
:102C80000280F381E02D46E050E065E772E019959F
:102C90000C9429280E94D92A609398037093990371
:102CA00080939A0390939B0380918C1681110895D1
:102CB00085E090E00E94872880918C16811102C0E7
:102CC0000C9429286091601780915D1790915E1790
:102CD0000E94BA2768E174E080915D1790915E17B9
:102CE0000E9448030C942928EF92FF920F931F93A0
:102CF000CF93DF938DE6E82E88E0F82ECDE6D4E082
:102D00000BE310E00D561440B8016C0F7D1F41E03D
:102D100050E0CE010E9404352196EC16FD06A1F785
:102D200080918C16882339F0DF91CF911F910F91FC
:102D3000FF90EF9008958FE090E00E9487288091A7
:102D40008C16811108C0DF91CF911F910F91FF90D8
:102D5000EF900C9429286091601780915D179091F5
:102D60005E170E94BA2765E174E080915D1790912B
:102D70005E170E944803DF91CF911F910F91FF9042
:102D8000EF900C9429280F931F93CF93DF93EC01BE
:102D90008A018CE190E00E94872880918C16811135
:102DA00006C0DF91CF911F910F910C94292860915B
:102DB000601780915D1790915E170E94BA278091ED
:102DC0005D1790915E170115110581F0F8010190D2
:102DD0000020E9F73197AF01401B510BDC01ED9169
:102DE000FC910280F381E02DB801199580918C1639
:102DF0008823B9F26091601780915D1790915E17FA
:102E00000E94BA27AE01DD0F660B770B80915D172C
:102E100090915E170E945328DF91CF911F910F91DF
:102E20000C9429280F931F93CF93C82F8A0186E013
:102E300090E00E94872880918C16811105C0CF9167
:102E40001F910F910C9429286091601780915D1754
:102E500090915E170E94BA2780915D1790915E173E
:102E60000115110581F0F80101900020E9F7319773
:102E7000AF01401B510BDC01ED91FC910280F3810D
:102E8000E02DB801199580918C168823C1F26091CC
:102E9000601780915D1790915E170E94BA274C2FA2
:102EA00050E060E070E02AE080915D1790915E173D
:102EB0000E94C127CF911F910F910C942928EF9266
:102EC000FF920F931F93CF93DF93C4E2D4E0FE01F0
:102ED00005C0319684E0EA36F80749F080818130F8
:102EE000C1F71082319684E0EA36F807B9F71092FC
:102EF0006A04E4E2F4E005C0319684E0EA36F807BB
:102F000049F080818830C1F71082319684E0EA363A
:102F1000F807B9F71092B103E4E2F4E005C0319686
:102F200084E0EA36F80749F080818330C1F71082E7
:102F3000319684E0EA36F807B9F710922304E4E208
:102F4000F4E005C0319684E0EA36F80749F0808164
:102F50008430C1F71082319684E0EA36F807B9F779
:102F600020912204822F90E00097E9F0E12CF12CCF
:102F7000880F991F880F991F8C01015C1D4EF80165
:102F80008281882341F0808191810E942937F80154
:102F9000128220912204FFEFEF1AFF0A822F90E0A5
:102FA0008E159F0529F7109222044091210450E0CC
:102FB0004115510521F120E030E08BE1849FB00103
:102FC000859F700D11246B5E754FDB011996665F4E
:102FD0007F4F8C91882371F0FB01808190E0FC0190
:102FE000EE0FFF1FE80FF91FEE51F74F80818F7B27
:102FF00080831C922F5F3F4F2417350751F7E4E27F
:10300000F4E005C0319684E0EA36F80749F08081A3
:103010008630C1F71082319684E0EA36F807B9F7B6
:10302000109221048091B00390E0009799F000E0A5
:1030300010E0880F991FFC01E456FC4F80819181BC
:103040000E9429370F5F1F4F8091B00390E08017D7
:10305000910779F7E4E2F4E005C0319684E0EA36BE
:10306000F80749F080818930C1F71082319684E0F9
:10307000EA36F807B9F71092B00320912004822FA6
:1030800090E00097F9F0E12CF12C8C01000F111F5A
:10309000080F191F000F111F075F154FF8018281DC
:1030A000882341F0808191810E942937F8011282A2
:1030B00020912004FFEFEF1AFF0A822F90E08E1577
:1030C0009F0519F7E4E2F4E005C0319684E0EA36A2
:1030D000F80749F080818730C1F71082319684E08B
:1030E000EA36F807B9F71092200405C02196E4E00B
:1030F000CA36DE0749F088818B30C1F718822196E5
:10310000E4E0CA36DE07B9F71092140440911304C4
:1031100050E041155105A1F080E090E0FA01EE0F7A
:10312000FF1FEE0FFF1FEE0FFF1FE40FF51FE55807
:10313000F64F208121111082019684179507C9F757
:103140001092130410926C0410926B041092B2034C
:10315000DF91CF911F910F91FF90EF900895AFDE17
:1031600080918C168111089585E090E00E94872857
:1031700080918C16811102C00C94292860916017EF
:1031800080915D1790915E170E94BA2762E174E00A
:1031900080915D1790915E170E9448030C94292836
:1031A0005F926F927F928F929F92AF92BF92CF92D7
:1031B000DF92EF92FF920F931F93CF93DF9300D094
:1031C00000D0CDB7DEB70E943D278C010E943D277D
:1031D0006C010E9478274C010E943D275C010E94EF
:1031E0003D277C01000F111F000F111F015C1D4EB8
:1031F000D80112968C91811120C00E94D92A609327
:1032000098037093990380939A0390939B03269657
:103210000FB6F894DEBF0FBECDBFDF91CF911F91E7
:103220000F91FF90EF90DF90CF90BF90AF909F9065
:103230008F907F906F905F900895B401CE010196BA
:103240000E94FA02FF24DD244601880C991C880C98
:10325000991C880C991C512C48E03801BB2403C0F0
:10326000412F112361F11FEF140F612F70E0C7018F
:10327000012E02C0959587950A94E2F780FFF0CF62
:10328000852D90E02D813E8182179307A0F529813D
:103290003A812115310579F1F901E80FF91FE08133
:1032A000D3018D919C91DC01AA5ABF4F2D913C9185
:1032B000C216D3064CF05394412F1111D4CF8981FB
:1032C0009A810E94293799CFF0E0E358FD4F208181
:1032D000F501012E02C0F595E7950A94E2F7E0FDAD
:1032E0002068680F791FFB01E80DF91D208BB601DE
:1032F000F5D65394E1CFE0E0D3CFCF93DF9300D066
:1033000000D0CDB7DEB76DE674E0CE0101960E9425
:10331000FA02CE0101960E94360D89819A810E949F
:10332000293781E08093B20380918C16811101C00E
:103330006AD726960FB6F894DEBF0FBECDBFDF91D9
:10334000CF9108950F931F93CF93DF9300D000D0B8
:10335000CDB7DEB70E94D92A609398037093990382
:1033600080939A0390939B030E947827BC01CE011F
:1033700001960E94FA0260916B0470916C044D8179
:103380005E818B01040F151F40E054E0401B510B80
:103390004230510544F163597B4FCE0101960E94A2
:1033A0009A2810936C0400936B0480918C168823E8
:1033B00079F089819A810E94293726960FB6F89470
:1033C000DEBF0FBECDBFDF91CF911F910F9108954A
:1033D00085E090E00E94872880918C16811121C0A1
:1033E0000E942928E6CF80918C168111E2CF85E0DA
:1033F00090E00E94872880918C16882389F3609141
:10340000601780915D1790915E170E94BA274FEF69
:103410005FEFBA0180915D1790915E170E9453286B
:10342000DFCF6091601780915D1790915E170E94C9
:10343000BA27A801110F660B770B80915D17909149
:103440005E170E945328CCCFDC0113968C91139702
:1034500081110CC01896ED91FC911997309731F0BD
:103460004D915C91119712966C9119941A96ED9169
:10347000FC911B97309739F04D915C911197129602
:103480006C9181E0199408954091AD08262F30E0A9
:10349000240F311D2132310534F420911B042430D6
:1034A00021F082E0089581E00895662379F0DC013F
:1034B00080E090E03091AD082D91FC01E357F74F8B
:1034C000E30FF11D208301968617A0F38091AD08CC
:1034D000680F6093AD0880E00895089508950895F9
:1034E000E0911F0480911E04E81730F4F0E0E359E6
:1034F000F74F808190E008958FEF9FEF08959091AE
:103500001F0480911E04981758F4E92FF0E0E35946
:10351000F74F208130E09F5F90931F04C901089509
:103520002FEF3FEFFBCF80911E0490E020911F040E
:10353000821B91090895CF92DF92EF92FF920F9331
:103540001F93CF93DF938C01862F6A012091ED03A7
:103550002223F1F04115510589F0C62FD72F7E01A6
:10356000E40EF51E6991D801ED91FC910190F08176
:10357000E02DC8011995CE15DF05A1F7C601DF9131
:10358000CF911F910F91FF90EF90DF90CF90089512
:10359000642F972F79DFF2CFCF93DF931F92CDB7B0
:1035A000DEB7FC0169839091ED03992309F19091B5
:1035B0001C04903298F480911D04E82FF0E0E25151
:1035C000FC4F998190838F5F80931D0480931C042E
:1035D00081E090E00F90DF91CF91089581E090E03D
:1035E0009383828380E090E00F90DF91CF910895E4
:1035F00061E0CE01019648DF81E090E00F90DF911D
:10360000CF910895089580E090E008950F931F935F
:10361000CF93DF9380916A04882379F00FE412E15D
:10362000C0E0D0E0C80110DF2196045F1F4F8091F9
:103630006A0490E08C179D07A9F7DF91CF911F9145
:103640000F91089581E00E944C238AE090E00E944F
:10365000872880918C168823F1F060916017809103
:103660005D1790915E170E94BA2780915D17909127
:103670005E17E4E1F2E001900020E9F73197AF0135
:1036800044515240DC01ED91FC910280F381E02D28
:1036900064E172E019950C9429284F925F926F9221
:1036A0007F928F929F92AF92BF92CF92DF92EF92D2
:1036B000FF920F931F93CF93DF930E943D278C01BE
:1036C0000E943D272091210430E0021713078CF05F
:1036D000DF91CF911F910F91FF90EF90DF90CF90EE
:1036E000BF90AF909F908F907F906F905F904F9022
:1036F00008952BE1209FE001219FD00D1124CB5E86
:10370000D54FCD80DE800D2C000CEE08FF0889809F
:103710009A80092C000CAA08BB082F813885A901C2
:10372000330F660B770B9A01AB012C193D094E093B
:103730005F09092E000CAA0BBB0BBC01CD01681957
:1037400079098A099B090E947A362B813C812901DB
:10375000330F66087708A3019201281939094A092D
:103760005B090E941B35C20ED31EE41EF51E0D2CF4
:10377000000CEE08FF088D859E85AF85B8898C15F5
:103780009D05AE05BF0539F0CD86DE86EF86F88A49
:103790008985882359F00E94D92A609398037093F1
:1037A000990380939A0390939B0392CF8A858033E9
:1037B00058F08BE1809FF001819FF00D1124EB5EAA
:1037C000F54F81E08187E7CFF88061E08F2D0E947F
:1037D0004C299A85292F30E0F901EE0FFF1FE20FE7
:1037E000F31FEE51F74F8F2D8F732081207CF22E27
:1037F000F82AF0821B861C863BEA939F312D112408
:103800003695369536952CE0329FC0011124AC01D7
:10381000445F5F4FFC01EE0FFF1FE80FF91FEE51F1
:10382000F74F208126FD16C001968417950791F762
:10383000313089F1323019F13330E9F51092A000BE
:1038400082E08093A1001092A5001092A40089BB91
:10385000809372008BE1809FF001819FF00D112415
:10386000EB5EF54F828590E0FC01EE0FFF1FE80F45
:10387000F91FEE51F74F8081806480839ACF1092B8
:10388000900030939100109295001092940038BBF4
:1038900030937100DFCF1092800082E0809381002E
:1038A0001092850010928400B19A80916F0082601E
:1038B00080936F00CFCF3111CDCF1092200182E0E5
:1038C0008093210110922501109224018ABB8093DC
:1038D0007300C0CF0E943D272091B00330E08217D3
:1038E00093070CF00895880F991FFC01E456FC4FD4
:1038F0000190F081E02D158616861786108A118AB0
:10390000128A138A148A15AA16AA17AA10AE15A22B
:1039100016A217A210A6158A168A178A108E0E9460
:10392000D92A609398037093990380939A03909394
:103930009B0308957F928F929F92AF92BF92CF92F6
:10394000DF92EF92FF920F931F93CF93DF93CDB748
:10395000DEB765970FB6F894DEBF0FBECDBF0E94ED
:103960003D278C010E9478276C01F801EE0FFF1FA4
:103970000E0F1F1F000F111FF801E75FF54F828127
:10398000882309F444C01A8219829E012D5F3F4F9B
:1039900083E1D9011D928A95E9F785818823B9F1E0
:1039A000712CCE0101967C018F014F0194E0890EAC
:1039B000911C5F01A5E0AA0EB11C672DF801808162
:1039C00091810E948A27D4018C91482F50E0B60142
:1039D000879D600D711D1124C7010E949638F80162
:1039E00080819181F70101900020E9F73197AF01C3
:1039F0004E195F09DC01ED91FC910280F381E02D0D
:103A0000B70119957394F50180818711D6CF0E9473
:103A1000D92A609398037093990380939A039093A3
:103A20009B0365960FB6F894DEBF0FBECDBFDF9146
:103A3000CF911F910F91FF90EF90DF90CF90BF90AB
:103A4000AF909F908F907F9008950E943D27209186
:103A5000B00330E0821793070CF00895880F991F88
:103A6000FC01E456FC4F808191810E9483260E94D4
:103A7000D92A609398037093990380939A03909343
:103A80009B0308950F931F93CF93DF930E943D27CD
:103A9000EC010E94A426811110C01092571760E01B
:103AA00070E0CB012091B00330E0C217D307B4F02F
:103AB000DF91CF911F910F91089581E08093561768
:103AC0008093571780915817909159170E946E3321
:103AD0002091B00330E0C217D30754F7CC0FDD1F9D
:103AE000C456DC4FE881F9811182DF01AE5ABF4F25
:103AF0000D911D912D913C911397601771078207CD
:103B00009307B1F06D937D938D939C9313970189E7
:103B1000128923893489601771078207930741F05E
:103B2000618B728B838B948BCF0102960E94650B05
:103B30000E94D92A609398037093990380939A0303
:103B400090939B03DF91CF911F910F910895EF9276
:103B5000FF920F931F93CF93DF93EC0160E0888176
:103B60000E94020D0B8110E07801EE0CFF1CEE0CA0
:103B7000FF1CEE0CFF1C4C815D816E817F810E2C41
:103B800004C076956795579547950A94D2F7698151
:103B90008A810E9450270150110988E0E81AF10833
:103BA0000F3F8FEF180739F761E08881DF91CF91E0
:103BB0001F910F91FF90EF900C94020DCF92DF9226
:103BC000EF92FF92CF93DF93EC010E94D92A6B0111
:103BD0007C018C819D81AE81BF81A7019601281B4C
:103BE000390B4A0B5B0B2B3031054105510538F47D
:103BF000DF91CF91FF90EF90DF90CF9008958A8171
:103C00000E94D20CCC82DD82EE82FF829B818917DA
:103C100079F391E0882349F09B83CE01DF91CF9126
:103C2000FF90EF90DF90CF900FCC90E0F5CFCF9347
:103C3000DF93EC016A835983488381E08B830E9480
:103C4000D92A6C837D838E839F8360E08A810E9462
:103C50004C2961E08A81DF91CF910C94020D1F9273
:103C60000F920FB60F9211240BB60F922F933F9322
:103C70004F935F936F937F938F939F93AF93BF9374
:103C8000EF93FF938091B900887F90E0893C910584
:103C900088F5FC018827E357FF4F8F4F0C94893636
:103CA00084E080931B041092AE081092AD08E0915E
:103CB0001704F091180419958091AD08811105C081
:103CC00081E08093AD0810928D08E091AE0881E00C
:103CD0008E0F8093AE08F0E0E357F74F808180931A
:103CE000BB009091AE088091AD089817D8F485EC90
:103CF0008093BC00FF91EF91BF91AF919F918F9105
:103D00007F916F915F914F913F912F910F900BBEDB
:103D10000F900FBE0F901F9018958091CF088032A2
:103D200008F4AAC085E88093BC00E4CFE091EB03DF
:103D300081E08E0F8093EB038091BB00F0E0E653AF
:103D4000FC4F80839091EB038091EA03981750F722
:103D5000CECF80E38093EC0385ED8093BC0080910F
:103D6000BC0084FDFCCF10921B04C4CF88E3809379
:103D7000EC0385EC8093BC0010921B04BBCFE09158
:103D8000EB0381E08E0F8093EB038091BB00F0E0AA
:103D9000E653FC4F808380911A04882309F47CC089
:103DA00085ED8093BC008091BC0084FDFCCFDBCF0F
:103DB00083E080931B041092CF0885EC8093BC00B5
:103DC00099CF1092EC0385ED8093BC008091BC00EC
:103DD00084FDFCCFC8CF8091C9038093BB0085ECE4
:103DE0008093BC0087CF9091EB038091EA039817F2
:103DF00008F45BC080911A04882309F44DC085ED56
:103E00008093BC008091BC0084FDFCCFACCF80E2ED
:103E10008093EC0385ED8093BC008091BC0084FD11
:103E2000FCCFA1CF85EC8093BC0010921B04809145
:103E3000CF08803230F4E091CF08F0E0E155F74F41
:103E400010826091CF0870E0E0911504F0911604A3
:103E50008FEA98E019951092CF084CCF85EC8093AB
:103E6000BC0010921B0446CF85ED8093BC0080916E
:103E7000BC0084FDFCCF77CFE091CF0881E08E0FAE
:103E80008093CF088091BB00F0E0E155F74F80832D
:103E900085EC8093BC002ECF81E08093190484EAE6
:103EA0008093BC0010921B0425CFE091EB0381E0CE
:103EB0008E0F8093EB03F0E0E653FC4F80818093FC
:103EC000BB0085EC8093BC0015CF4F925F926F9240
:103ED0007F92BF92CF92DF92EF92FF920F931F9348
:103EE000CF93DF938C01B62E0E94D92AD801599620
:103EF000CD90DD90ED90FC905C972B013C014C182F
:103F00005D086E087F085D96CD90DC905E970D2C65
:103F1000000CEE08FF084C145D046E047F040CF0E6
:103F200054C05896CC91D0E0BB20A1F0F801980184
:103F3000245F3F4FC080D180E280F380BFEFCB1A77
:103F4000DB0AEB0AFB0AC192D192E192F1922E17A1
:103F50003F0781F7CC0FDD1FCC0FDD1FC00FD11F36
:103F6000CC84DD84EE84FF846C197D098E099F0961
:103F700016161706180619060CF047C00E94E13302
:103F80006B017C01688179818A819B810E94E13388
:103F900020E030E04AE754E40E944034A701960153
:103FA0000E94DD35F801678F70A381A392A3DF9192
:103FB000CF911F910F91FF90EF90DF90CF90BF9026
:103FC0007F906F905F904F900895F801C08D24E02E
:103FD000C29FE00DF11D1124108211821282138202
:103FE000CF5FD8015896CC9364877587868797876B
:103FF000F801618F728F838F948FC33020F0108E01
:10400000C0E0D0E091CFD0E08FCFC12CD12C80E8A0
:10401000E82E8FE3F82EB6CF8F929F92AF92BF9289
:10402000CF92DF92EF92FF921F93CF93DF93EC0139
:1040300088810E94D20C11E0892B09F410E00E94C3
:10404000D92A2A812983121731F1CB80DC80ED80B7
:10405000FE804B015C018C189D08AE08BF08CF8024
:10406000D8840D2C000CEE08FF088C149D04AE04BF
:10407000BF040CF01A836B837C838D839E83DF9156
:10408000CF911F91FF90EF90DF90CF90BF90AF90B6
:104090009F908F900895CF80D8840D2C000CEE084F
:1040A000FF088B809C80AD80BE809B01AC012819ED
:1040B00039094A095B092C153D054E055F05FCF2DF
:1040C000DC01CB018C199D09AE09BF090197A1093B
:1040D000B1098B839C83AD83BE83D1CF8F929F9296
:1040E000AF92BF92CF92DF92EF92FF920F931F9306
:1040F000CF93DF931F921F92CDB7DEB77C01498328
:104100002A83660F771FF701EA5AFF4F008111815A
:10411000000F111F10161106ECF50E0D1F1DF701F3
:1041200011920E171F07E1F78981F701E60FF71FBC
:1041300081838A8180835701F4E5AF0EB11C60E072
:10414000F50180810E94020DC7018E5A9F4F4C01DC
:10415000F701E05BFF4F6F01F80142918F01F4011D
:104160006081F60180819CD6E016F106A9F761E036
:10417000F50180810F900F90DF91CF911F910F91EA
:10418000FF90EF90DF90CF90BF90AF909F908F9077
:104190000C94020D8981F701E60FF71F81838A8154
:1041A00080835701F4E5AF0EB11C60E0F50180811A
:1041B0000E94020DDCCFCF92DF92EF92FF920F931D
:1041C0001F93CF937C016B018B01000F111F000F18
:1041D000111F000F111F005F1F4F0E0D1F1DC1E0AB
:1041E000F80111928F0120E04C2FB601C70176DF54
:1041F000CF5FC930A9F7CF911F910F91FF90EF903A
:10420000DF90CF90089581E190E081D780918C1666
:10421000811101C01EC76091601780915D17909158
:104220005E17A8D66CE174E080915D1790915E17DF
:104230000E9448030EC70F931F93CF93DF93CDB710
:10424000DEB728970FB6F894DEBF0FBECDBF50D6AD
:10425000BC01CE0101960E94FA0240E350E06FE1FA
:1042600072E0CE01019666D783E290E098878F8353
:1042700041E050E060E070E0CE0107960E94043516
:1042800000E010E0C801815E9D4F0F5F1F4F41E0CD
:1042900050E0B8010E9404350F32110599F785E00E
:1042A00090E035D780918C168823E9F060916017F3
:1042B00080915D1790915E175DD680915D1790910A
:1042C0005E17EFE1F2E001900020E9F73197AF01CE
:1042D0004F515240DC01ED91FC910280F381E02DC1
:1042E0006FE172E01995B5D689819A810E942937CC
:1042F00028960FB6F894DEBF0FBECDBFDF91CF91E9
:104300001F910F9108950F931F93CF93C82F8A0188
:1043100087E090E0FCD680918C16811104C0CF918B
:104320001F910F9196C66091601780915D179091D3
:104330005E1720D680915D1790915E1701151105CB
:1043400081F0F80101900020E9F73197AF01401B9F
:10435000510BDC01ED91FC910280F381E02DB8015D
:10436000199580918C168823D1F260916017809105
:104370005D1790915E17FED54C2F50E060E070E025
:104380002AE080915D1790915E17FBD5CF911F9128
:104390000F915FC6EF92FF920F931F93CF93DF931E
:1043A000D82F809122048823A9F10FE312E1E12C98
:1043B000F12CF8014381442319F1C0E008C021E049
:1043C0004CE08CDEF8014381CF5F4C17B9F06C2FC5
:1043D00070E0F80180819181FC01EA5AFF4F208151
:1043E00031816217730784F7DD2349F320E04CE045
:1043F00075DEF8014381CF5F4C13E9CF8091220431
:10440000FFEFEF1AFF0A0C5F1F4F282F30E02E1529
:104410003F0579F6809123048823E9F00FE715E141
:10442000E12CF12C0FC0618170E0808176D7FFEF25
:10443000EF1AFF0A0E5F1F4F8091230490E08E1544
:104440009F0549F0F801DD2371F3118260E070E00F
:10445000808163D7ECCFDF91CF911F910F91FF90B7
:10446000EF9008955F926F927F928F929F92AF929A
:10447000BF92CF92DF92EF92FF920F931F93CF9351
:10448000DF93CDB7DEB7CB55D1090FB6F894DEBFB9
:104490000FBECDBF1091B103143109F4E6C0E82F6F
:1044A000F0E0DF01AC5DBB4F7D019C919111DDC05F
:1044B000E62FF0E0DF01AC5DBB4F6D019C919111E7
:1044C000D4C0042F562E682FA12EB12CFE01349695
:1044D00087E4DF011D928A95E9F788E290E06C9607
:1044E0009FAF8EAF6C971B828BE58A9D40018B9DA1
:1044F000900C1124F401ED5DF44F3F01FE01319663
:10450000D30101900D928A95E1F7F301E45BFF4F2F
:104510001082118212821382329731832083D30159
:104520006C9311965C923E964083C4018A5D944FD1
:1045300028D6652DC401815D944F23D6F301158AD9
:10454000178A168A118E108E128E138E148E158E67
:1045500088EE93E0A0E0B0E0868F978FA0A3B1A390
:10456000D401AB5BB44F402F50E0FA01EE0FFF1FB8
:10457000EE0FFF1F4E0F5F1FFA01E350FD4F85E066
:1045800001900D928A95E1F70E94D92AF301E05C2F
:10459000FF4F60837183828393832BE5129FF00129
:1045A0001124E65BF44F20E01192119211921192C6
:1045B00060877187828793872F5F2330A9F78BE508
:1045C0008A9DF0018B9DF00D1124ED5DF44F17AE27
:1045D000DF01AC5BBF4F26EA30E011963C932E938F
:1045E00048E15CEF6FEF7FEF428F538F648F758FE1
:1045F00048EE53E060E070E0468F578F60A371A3F0
:1046000018964D915C91BA0106A002C07595679508
:104610000A94E2F72689378923703327262B372B14
:10462000378B268B518F408F91E092832091B1037D
:10463000829FC00111248D5D944FFC01E05BFF4F10
:1046400042E157E151834083329651834083329651
:104650005183408332965183408388E0F701808301
:10466000D6018C932F5F2093B103C55ADF4F0FB64D
:10467000F894DEBF0FBECDBFDF91CF911F910F9198
:10468000FF90EF90DF90CF90BF90AF909F908F9072
:104690007F906F905F9008958F929F92AF92BF929C
:1046A000CF92DF92EF92FF920F931F93CF93DF93FE
:1046B000B82E04E112E03FE1C32E32E0D32EE80130
:1046C00080E390E09C01245132407901BE016E0DDF
:1046D0007F1D41E050E0CE010E94F4342196CC16BB
:1046E000DD06A1F7B11005C080911402833509F4ED
:1046F00059C080E0D6D6BC01990F880B990B611583
:1047000071058105910511F00E9448330E94FD3228
:1047100088248A942FE0922EA12CB12CA50194011B
:104720000E941B357F936F9380E793E09F938F9355
:1047300084E192E09F938F930E94B5380E94FD32EE
:10474000A50194010E941B357F936F9389E793E045
:104750009F938F938BE192E09F938F930E94B53844
:104760008DB79EB70C960FB6F8949EBF0FBE8DBF47
:10477000B701600F711F41E050E0C8010E9404358D
:104780000F5F1F4FC016D10699F7DF91CF911F9190
:104790000F91FF90EF90DF90CF90BF90AF909F90E0
:1047A0008F900895809115028E3409F0A2CFEDCF3D
:1047B0002F923F924F925F926F927F928F929F9231
:1047C000AF92BF92CF92DF92EF92FF920F931F931F
:1047D000CF93DF93CDB7DEB72A970FB6F894DEBF3D
:1047E0000FBECDBF49013091B0033A3009F4C5C1C5
:1047F0009C013327F901EC5DFB4F7F0120812111E2
:10480000BCC19B013327F901EC5DFB4FFA83E983BF
:1048100020812111B2C19A013327F901EC5DFB4FD0
:10482000FE83ED8320812111A8C194013327F90172
:10483000EC5DFB4FF887EF83208121119EC110169C
:1048400011063CF4F801FF27EC5DFB4F208121119C
:1048500094C11C830B835A016B018C0186E590E0A7
:104860000E9491369A8789873C0132E0630E711C61
:104870008AE193E0E985FA859383828384E08483E7
:10488000158616861786108A118A128A138A148A48
:10489000158A168A178A108E212C312C80E8482E12
:1048A0008FE3582E218E328E438E548E158E168EA7
:1048B000178E10A221A232A243A254A215A216A2C0
:1048C00017A210A681E090E096A785A78FEF80AB96
:1048D00011A612A613A614A68582C6820783A086F7
:1048E00015AA16AA17AA10AE11AE12AE13AE14AEC8
:1048F000FD961082118212821382C984DA84F1E457
:10490000CF0ED11CF6012082318242825382E9858A
:10491000FA85EB5BFF4F1082E985FA8511861286D6
:1049200013861486C3010E942B0BE985FA85858CBA
:10493000968CA78CB0A0A2019101C501B4010E9480
:10494000DB33882319F1E985FA8565A976A987A95A
:1049500090AD0E94E133A50194010E9440340E9471
:104960004536E985FA8565AB76AB87AB90AF86E8CF
:1049700096E6A9E6B9E481AF92AFA3AFB4AF258EB6
:10498000368E478E50A2C3010E94650B4EE753E05E
:104990006B8109851A850A5B1F4FC80148D9E985D3
:1049A000FA8511828091C803E82FF0E0EE0FFF1F17
:1049B000EC54FC4F29853A85318320838F5F8093A7
:1049C000C80388E796E0F8019187808793878287FC
:1049D0001091B003E12FF0E0EE0FFF1FE456FC4F03
:1049E0003183208320E030E048EC53E4E985FA8508
:1049F000618D728D838D948D0E94DB33882309F441
:104A000053C080E090E0A8ECB3E4E985FA85818F9B
:104A1000928FA38FB48F80E090E4ACE1B5E4F6010F
:104A200080839183A283B383E985FA8585A996A9BA
:104A3000A7A9B0AD181619061A061B06ACF56589AC
:104A400076898789908D9B01AC010E9440344B018F
:104A50005C01E985FA85658D768D878D90A19B0136
:104A6000AC010E9479359B01AC01C501B4010E94E3
:104A7000DD350E944536E985FA8565AB76AB87ABB7
:104A800090AFC3010E94650B1091B003E12FF0E0DD
:104A9000EE0FFF1FE456FC4F208131813A872987B2
:104AA000390132E0630E711CE985FA85858C968C9C
:104AB000A78CB0A020E030E048E454E4C501B40184
:104AC0000E94DB338823A9F1E985FA8565A976A9D7
:104AD00087A990AD0E94E1331B012C0120E030E05A
:104AE00048E454E4C501B4010E94DD359B01AC01EA
:104AF000C201B1010E9440340E944536E985FA8521
:104B000065AB76AB87AB90AF81E098E0A4E0B7E40B
:104B100081AF92AFA3AFB4AF80E090E0A8E4B4E47B
:104B2000858F968FA78FB0A3C3010E94650B10914C
:104B3000B00389E0F7018083E981FA818083ED8108
:104B4000FE818083EF81F88580832B813C81121662
:104B5000130684F4F901FF27EC5DFB4F8083E12FFE
:104B6000F0E0EE0FFF1FE456FC4F80819181CBD027
:104B70001091B0031F5F1093B0032A960FB6F894FC
:104B8000DEBF0FBECDBFDF91CF911F910F91FF9080
:104B9000EF90DF90CF90BF90AF909F908F907F90DD
:104BA0006F905F904F903F902F900895CF92DF923B
:104BB000EF92FF920F931F93CF93DF9300D000D01B
:104BC000CDB7DEB78091D0089091D1082091D2085E
:104BD0003091D3082817390709F48EC09093D30871
:104BE0008093D20810926D0480E056DDE4E2F4E098
:104BF000119224E0EA36F207D9F7DBD460939803E8
:104C00007093990380939A0390939B030E945F177C
:104C10008DE6E82E88E0F82E0DE614E08BE390E0B8
:104C20009C012D5634406901B601600F711F41E0AF
:104C300050E0C8010E94F4340F5F1F4F38E00D367A
:104C4000130791F710926C0410926B0480916D041D
:104C5000882389F0EEE6F4E021E030E081918823BA
:104C600031F09F012D563440EE16FF06B9F7309310
:104C70006C0420936B046DE674E0CE0101960E94F3
:104C8000FA02CE0101960E94360D89819A810E9416
:104C9000293781E08093B20380918C16811101C085
:104CA000B2DA198241E050E060E070E0CE01019696
:104CB0000E94F4348981833279F026960FB6F894F5
:104CC000DEBF0FBECDBFDF91CF911F910F91FF903F
:104CD000EF90DF90CF90089500E010E0C801815E72
:104CE0009D4F0F5F1F4F41E050E0B8010E94F43428
:104CF0000F32110599F7E1CF1092D1081092D00828
:104D000080E090E06BCFFC01E85BFF4F2081222325
:104D100019F0FC0121812111089521E021834189AD
:104D2000528963897489403659476E4F7F4FA1F38A
:104D300040E659E76EEF7FEFFC01418B528B638BAE
:104D4000748B02960C94650B80915517882309F497
:104D50004AC0813071F080915617811189C0A091AD
:104D60005817B0915917AB2BF1F181E0809356178A
:104D7000089582E08093551780915617882379F320
:104D8000A5E9B6E1909161175091601710929116C4
:104D90008C91882329F1FD0140E020E030E00BC038
:104DA0008081851711F131962F5F3F4F80818823D5
:104DB00021F140919116809391169813F1CF941799
:104DC00009F44DC080815813EECF232BB1F48C91A0
:104DD000882331F01196109291168C918111DBCFBE
:104DE000A0E0B0E037C080E008959413EECF319694
:104DF0002F5F3F4F80818111DCCF8C91882381F31D
:104E0000109291168C91FD01882301F140E020E081
:104E100030E00BC08081581729F131962F5F3F4F4A
:104E20008081882359F040919116809391169813B0
:104E3000F1CF9417D1F080815813EFCFFD01E20F2D
:104E4000F31F8081882311F010823196F0935B1755
:104E5000E0935A17B0935917A093581784CF109224
:104E60009116A1CF9417C9F2E9CF10929116D5CF20
:104E7000A0915A17B0915B1785CF66DF811105C0ED
:104E80001092571780E090E0089581E080935617C4
:104E90008093571780915817909159170C9451335C
:104EA000EF92FF920F931F93CF93DF93082F162F4C
:104EB000E42EF12CC7E0D0E0B7010C2E02C07595AE
:104EC00067950A94E2F76170802F0E94020D61E0FD
:104ED000812F0E94020D60E0812F0E94020D219718
:104EE00058F7DF91CF911F910F91FF90EF900895A8
:104EF0002BDF882351F081E080935617809357175A
:104F0000809158179091591708951092571780E083
:104F100090E00895CF93DF93CDB7DEB728970FB613
:104F2000F894DEBF0FBECDBF28E0E0E3F3E0DE0182
:104F3000119601900D922A95E1F7FC012185261723
:104F400010F46FEF620FE62FF0E0EE0FFF1F21E08D
:104F500030E02C0F3D1FE20FF31F6081606840E0DE
:104F600028960FB6F894DEBF0FBECDBFDF91CF916C
:104F70000C94BF07DC01ED91FC910190F081E02DD4
:104F800019948F929F92AF92BF92EF92FF920F93DC
:104F90001F93CF93DF93CDB7DEB7A1970FB6F894E9
:104FA000DEBF0FBECDBF7C01FA01CB0119A22230BA
:104FB00008F446C0822E912CA12CB12C8E010F5DDD
:104FC0001F4F07C0605DD8016C93232B242B252B2A
:104FD00091F0BF01A50194010E944735F901CA0172
:104FE000015011096A3074F3695CD8016C93232B6A
:104FF000242B252B71F70115110541F1F8010190C2
:105000000020E9F73197AF01401B510BD701ED911B
:10501000FC910280F381E02DB801C7011995A1969A
:105020000FB6F894DEBF0FBECDBFDF91CF911F91B9
:105030000F91FF90EF90BF90AF909F908F90089549
:105040002AE0822E912CA12CB12CB8CF80E090E0E8
:10505000E6CF80918C16811106C0109293161092A3
:105060008C1680E0089560915F1780915D17909194
:105070005E1780DF80919416882379F380915D1705
:1050800090915E17DC01ED91FC910280F381E02D9F
:1050900042E050E064E973E0199510929316109283
:1050A0008C1680E00895CF92DF92EF92FF920F93DB
:1050B0001F93CF93DF9377FD0AC02AE0DF91CF9152
:1050C0001F910F91FF90EF90DF90CF905ACF6A0120
:1050D0007B01EC01E881F9810190F081E02D6DE226
:1050E00019958C0144275527BA014C195D096E09A1
:1050F0007F092AE0CE0145DF800F911FDF91CF911C
:105100001F910F91FF90EF90DF90CF900895AC0129
:1051100080918C168111089581E080938C16809384
:105120009316052E000C660B770B80915D179091FE
:105130005E17B9CF0F931F93CF93DF93FC01C48108
:10514000D5812097B9F0415051094C175D0780F087
:105150008B01FC0160817181AE01C8010E94A638FB
:10516000C00FD11F1882DF91CF911F910F91089529
:10517000EA01EECFFB011082DF91CF911F910F91D9
:1051800008951F93CF93DF93EC01162F688385E07A
:1051900090E098878F8360E0812F7ED061E0812F3F
:1051A0000E94020D06D26B837C838D839E8388814F
:1051B0000E94D20C21E0892B09F420E02A83298364
:1051C000DF91CF911F91089590E0FC013197E2317A
:1051D000F10558F48827EA5AFE4F8F4F0C94893610
:1051E00080912001877F80932001089584B58F7777
:1051F00084BD089584B58F7D84BD0895809180001D
:105200008F77809380000895809180008F7D8093B8
:105210008000089580918000877F809380000895AA
:105220008091B0008F778093B00008958091B00096
:105230008F7D8093B0000895809190008F77809348
:1052400090000895809190008F7D80939000089544
:1052500080919000877F8093900008958091A000B6
:105260008F778093A00008958091A0008F7D809318
:10527000A00008958091A000877F8093A0000895EA
:10528000809120018F7780932001089580912001E3
:105290008F7D809320010895CF93DF9390E0FC01F0
:1052A000E259FC4F2491FC01E85DFC4F8491882376
:1052B000B9F090E0880F991FFC01E15EFB4FA591CA
:1052C000B491FC01EC50FD4FC591D491662359F087
:1052D0006230B9F08FB7F894EC91E22BEC938FBF6A
:1052E000DF91CF9108959FB7F8948C91E22FE095CC
:1052F0008E238C932881E223E8839FBFDF91CF9197
:1053000008959FB7F8948C91322F309583238C9316
:10531000E881E22BE8839FBFE3CF1F93CF93DF9316
:10532000182FEB0161E0B8DF2097D1F0CF3FD10516
:1053300079F0E12FF0E0EC54FC4FE4918E2F90E0F7
:10534000FC013197E231F10528F0C038D10544F075
:1053500061E007C08827E859FE4F8F4F0C948936CB
:1053600060E0812FDF91CF911F910C94020D84B5E5
:10537000806884BDC7BDDF91CF911F91089584B52A
:10538000806284BDC8BDF7CF809180008068809323
:105390008000D0938900C0938800EDCF8091800079
:1053A000806280938000D0938B00C0938A00E3CF0B
:1053B00080918000886080938000D0938D00C0939E
:1053C0008C00D9CF8091B00080688093B000C093EA
:1053D000B300D1CF8091B00080628093B000C093C1
:1053E000B400C9CF80919000806880939000D093E2
:1053F0009900C0939800BFCF809190008062809305
:105400009000D0939B00C0939A00B5CF80919000FC
:10541000886080939000D0939D00C0939C00ABCF98
:105420008091A00080688093A0008091A0008F7B75
:105430008093A000D093A900C093A8009CCF809136
:10544000A00080628093A000D093AB00C093AA001C
:1054500092CF8091A00088608093A000D093AD008F
:10546000C093AC0088CF8091200180688093200198
:10547000D0932901C09328017ECF809120018062C2
:1054800080932001D0932B01C0932A0174CF809187
:105490002001886080932001D0932D01C0932C01BE
:1054A0006ACF863308F0865390917B00282F2870AE
:1054B000977F922B90937B008770806480937C0011
:1054C00080917A00806480937A0080917A0086FDD2
:1054D000FCCF809178002091790090E0922B089584
:1054E0000F931F938B019C019FB7F8944091A017D5
:1054F0005091A1176091A2177091A31786B5A89B30
:1055000006C08F3F21F04F5F5F4F6F4F7F4F9FBFB0
:10551000762F652F542F4427480F511D611D711D93
:10552000440F551F661F771F440F551F661F771FB7
:105530000115110521053105C9F1FFB7F8948091D6
:10554000A0179091A117A091A217B091A317E6B54B
:10555000A89B05C0EF3F19F00196A11DB11DFFBF2B
:10556000BA2FA92F982F88278E0F911DA11DB11D2D
:10557000880F991FAA1FBB1F880F991FAA1FBB1F47
:10558000841B950BA60BB70B883E9340A105B10574
:10559000A0F2015011092109310948515C4F6F4FA8
:1055A0007F4F011511052105310539F61F910F9126
:1055B00008952FB7F8946091A5177091A617809160
:1055C000A7179091A8172FBF08951F920F920FB69B
:1055D0000F9211242F933F938F939F93AF93BF9379
:1055E0008091A5179091A617A091A717B091A81721
:1055F0003091A41723E0230F2D3768F126E8230FFD
:105600000296A11DB11D2093A4178093A517909316
:10561000A617A093A717B093A8178091A0179091F1
:10562000A117A091A217B091A3170196A11DB11DBA
:105630008093A0179093A117A093A217B093A317DC
:10564000BF91AF919F918F913F912F910F900FBE7E
:105650000F901F9018950196A11DB11DD4CFCF9327
:10566000DF9300D01F92CDB7DEB7789484B5826007
:1056700084BD84B5816084BD85B5826085BD85B5F6
:10568000816085BD80916E00816080936E00109274
:1056900081008091810082608093810080918100EF
:1056A0008160809381008091800081608093800080
:1056B0008091B10084608093B1008091B0008160DE
:1056C0008093B000809191008260809391008091DE
:1056D000910081608093910080919000816080931F
:1056E00090008091A10082608093A1008091A10030
:1056F00081608093A1008091A00081608093A000D0
:10570000809121018260809321018091210181603B
:1057100080932101809120018160809320018091FC
:105720007A00846080937A0080917A00826080930E
:105730007A0080917A00816080937A0080917A006B
:10574000806880937A001092C100E091DF15F0919B
:10575000E01582E08083E091DB15F091DC1510828A
:10576000E091DD15F091DE1580E180831092E71560
:10577000E091E315F091E41586E08083E091E11576
:10578000F091E215808180618083E091E115F091D4
:10579000E215808188608083E091E115F091E21547
:1057A000808180688083E091E115F091E21580812D
:1057B0008F7D80838AE496E19093631780936217CC
:1057C00081E395E1909365178093641780ED98E1EC
:1057D00090936717809366178CE695E190939917DD
:1057E000809398178DE695E19093691780936817D9
:1057F00082E49DE190936B1780936A178DE49BE19F
:1058000090936D1780936C1785EB95E190937717C4
:105810008093761783E895E190937D1780937C17AA
:1058200082EA99E190937B1780937A178FEA98E147
:1058300090937F1780937E1784E796E1909381176A
:10584000809380178DE799E1909385178093841753
:105850008BE191E290938B1780938A1782E29BE110
:1058600090938D1780938C1785E29DE190938F170D
:1058700080938E178AE69CE19093911780939017FE
:1058800086E09BE1909393178093921786ED95E2C3
:1058900090939517809394178AE99CE190939717BA
:1058A0008093961784EA94E190939B1780939A17BC
:1058B00081E0809394167AD99924939480919316D9
:1058C000882309F47FC18091B303882309F4CAC4F3
:1058D00070DE009198031091990320919A03309102
:1058E0009B03DC01CB01801B910BA20BB30B803A15
:1058F0009B4BAD40B10528F41092B30380E00E94A9
:10590000CA218091B203882309F4CAC480916A0431
:105910008823A9F00FE412E11A821982C8010E94BB
:10592000DE1D29813A812F5F3F4F3A832983045F2F
:105930001F4F80916A0490E08217930779F7809156
:10594000B103882309F445C203E21BE04AE45BE0AB
:105950005A834983A9E3BBE0BC83AB83212C312C60
:1059600017C0BFEF2B1A3B0A055A1F4FE981FA8176
:10597000E55AFF4FFA83E9832B813C81255A3F4F3B
:105980003C832B83282F30E02215330509F421C2F4
:10599000F8019281992329F38B819C8143970E947E
:1059A0000C208B819C810A970E940C20D8011E96A6
:1059B0008C91B1E08B27880FF801C580CB26C82ACF
:1059C00060E089819A810E94651FD8015596DC901C
:1059D000CD1409F495C0AB80BC80B0E3AB0EB11C14
:1059E000EB81FC8160A971A982A993A90E94453627
:1059F000653071050CF4E4C1AB81BC81D0966D912A
:105A00007D918D919C91D3970E94453660317105AF
:105A10000CF010C4F50160817181828193810E9434
:105A20004536655071094B01770FAA08BB08EB8119
:105A3000FC8180859185A285B385448055806680F0
:105A40007780BC01CD0164197509860997096E310B
:105A50007105810591050CF4B7C12EE130E040E0FD
:105A600050E0E9D7C501B4010E947A369B01AC0130
:105A7000C501B4010E947A369B01AC01C501B40195
:105A80000E947A3628EE33E040E050E0D4D7490156
:105A90005A01FFEF8F1A9F0AAF0ABF0A2D2D34E07B
:105AA0002302F00111248C2D0C2C000C990BE82BF7
:105AB000F92BE75AFD4F2081022E000C330B289D55
:105AC000A001299D500D389D500D1124AB81BC8142
:105AD0002D913C911197240F351F2D933C93BBE5DD
