:100000003FC100006EC100006CC100006AC1000069
:1000100068C1000066C1000064C1000062C1000048
:1000200060C100005EC100005CC100005AC1000058
:1000300058C1000056C1000054C1000052C1000068
:1000400050C100000C9410164CC100004AC10000C1
:1000500048C1000046C1000044C100000C94181FB4
:1000600040C100000C9412110C94E9103AC1000038
:1000700038C1000036C1000034C1000032C10000A8
:100080000C94E3152EC100002CC100002AC1000011
:1000900028C1000026C1000024C10000B9C400002E
:1000A00020C100001EC100000C94B6151AC100004A
:1000B00018C1000016C1000014C100000C9489157D
:1000C00010C100000EC100000CC100000AC10000F8
:1000D00008C1000006C1000004C1000002C1000008
:1000E00000C100008A09580BD509110A8C0A0C0BB3
:1000F000AF0B7B0BD611DA11DE11E211E611EA111A
:10010000EE112A13311338133F1346135E134D13A8
:100110005E135413E21DE51DD41DD81DDE1D1C1EEB
:10012000E91DED1DF31DF71DFB1D011E051E091E1A
:100130001C1E0F1E131E171E2000526F636B7321AF
:1001400000200020004D6F6269666C69676874006A
:100150004F4B004F4B004F4B006E2F6100000021B2
:1001600000240027002A002D003000330001010088
:1001700000040107010A0100002200250028002BCD
:10018000002E003100340002010000050108010BBF
:1001900001000020002300260029002C002F00323F
:1001A000000001000003010601090105050505071E
:1001B0000508080808020202020A0A0808040404E2
:1001C000040101010101010101030303030303030E
:1001D00003040707070C0C0C0C0C0C0C0C0202029D
:1001E0000206060606060606060B0B0B0B0B0B0B90
:1001F0000B0102102020080810204010204080022F
:10020000010201080402010102040810204080805C
:1002100040201008040201800402018040201008E0
:1002200004020108040201010204081020408001B8
:100230000204081020408000000A0B02090C0D0E79
:100240000807030401000000000000000000000097
:10025000000000000000000000000000000000009E
:10026000000000121110000000000000000000005B
:100270000000000000000000000000000000292431
:1002800011241FBECFEFD1E2DEBFCDBF00E00CBF17
:1002900013E0A0E0B2E0E0E3FCE500E00BBF02C049
:1002A00007900D92A638B107D9F725E1A6E8B3E08B
:1002B00001C01D92A63DB207E1F711E0C0E4D1E014
:1002C00000E006C021970109802FFE010E940F293E
:1002D000CF33D10780E00807A9F70E94621F0C9472
:1002E000162E8ECE85ED8093BC008091BC0084FDDF
:1002F000FCCF1092EF0708954091C607262F30E0FB
:10030000240F311D21323105DCF42091EF07243018
:10031000C9F4FC0180E090E0861758F43091C607DC
:100320002191DC01AA55B84FA30FB11D2C93019662
:10033000F3CF8091C607680F6093C60780E00895E9
:1003400081E0089582E00895089508950895E09168
:10035000F3078091F207E81730F4F0E0EA57F84F1E
:10036000808190E008958FEF9FEF08959091F307BB
:100370008091F207981750F4E92FF0E0EA57F84F10
:10038000208130E09F5F9093F30702C02FEF3FEF93
:10039000C90108958091F20790E02091F307821B34
:1003A00091090895CF92DF92EF92FF920F931F93DE
:1003B000CF93DF937C01CB018A0120917308222324
:1003C00089F0EB016B01C40ED51ECC15DD0561F083
:1003D0006991D701ED91FC910190F081E02DC70169
:1003E0001995F3CF642F88DFC801DF91CF911F915A
:1003F0000F91FF90EF90DF90CF900895CF93DF9310
:100400001F92CDB7DEB76983209173082223D1F004
:100410002091F007203240F021E030E0FC013383EE
:10042000228380E090E014C08091F107E82FF0E093
:10043000EC58F74F998190838F5F8093F1078093F9
:10044000F00704C061E0CE01019656DF81E090E044
:100450000F90DF91CF910895089580E090E0089586
:100460000F931F93CF93DF93C8E4D1E100E010E036
:100470008091470890E00817190739F0CE010E94D3
:100480009E170F5F1F4F2C96F3CFDF91CF911F91D7
:100490000F9108950E940C1F6093480870934908BB
:1004A00080934A0890934B088AE090E00E94C31C16
:1004B00086E893E00E94171D0C94D71C0E940C1F25
:1004C000609348087093490880934A0890934B08BA
:1004D0008AE090E00E94C31C80E092E00E94171D19
:1004E0008FE192E00E94171D84E192E00E94171DA7
:1004F00089E592E00E94171D0C94D71C81E00E94B0
:10050000191A8AE090E00E94C31C84E192E00E94E4
:10051000171D0C94D71C0E94251C20910A0830E05E
:100520008217930734F5880F991FFC01EA50F84FA2
:100530000190F081E02D158616861786108A118AA3
:10054000128A138A148A15AA16AA17AA10AE15A21F
:1005500016A217A210A6158A168A178A108E0E9454
:100560000C1F609348087093490880934A08909341
:100570004B080895CF930E94251CC82F0E94251C6C
:1005800061E0181619060CF060E08C2F0E94451EE1
:100590000E940C1F609348087093490880934A0892
:1005A00090934B08CF9108958F929F92AF92BF92F4
:1005B000CF92DF92FF920F931F93CF93DF93CDB72C
:1005C000DEB765970FB6F894DEBF0FBECDBF0E94B1
:1005D000251C5C010E94381C6C0186E08A9D80010C
:1005E0008B9D100D1124D801A25CB64F12968C91F0
:1005F00012978823A9F11A8219829E012D5F3F4F1D
:1006000083E1F90111928A95E9F7F12C8D014D01F1
:10061000F5E08F0E911C5D0184E0A80EB11CF40181
:1006200080818F15E9F06F2DF801808191810E9402
:100630007A1DF5018081482F50E0B6018F9D600D35
:10064000711D1124CE0101960E941C2BBE016F5F0B
:100650007F4FF801808191810E94D410F394DFCF05
:1006600080918D14811109C085E090E00E94C31C27
:10067000C6010E94171D0E94D71C0E940C1F609388
:1006800048087093490880934A0890934B086596F0
:100690000FB6F894DEBF0FBECDBFDF91CF911F9193
:1006A0000F91FF90DF90CF90BF90AF909F908F9071
:1006B00008954F925F926F927F928F929F92AF9226
:1006C000BF92CF92DF92EF92FF920F931F93CF933F
:1006D000DF930E94251C8C010E94251CBC01809187
:1006E000F50790E0081719070CF0F1C08BE1809F27
:1006F000E001819FD00D1124C65BD64FCD80DE80F6
:100700000D2C000CEE08FF0889809A80092C000C43
:10071000AA08BB082F813885C901330FAA0BBB0B70
:100720009C01AD012C193D094E095F09CB01770FE2
:10073000AA0BBB0BBC01CD01681979098A099B0979
:100740000E94F4282B813C812901330F6608770829
:10075000A3019201281939094A095B090E949527CA
:10076000C20ED31EE41EF51E0D2C000CEE08FF0871
:100770008D859E85AF85B8898C159D05AE05BF0515
:1007800009F46EC0CD86DE86EF86F88A89858111F0
:1007900067C08A85803308F059C0F88061E08F2DEA
:1007A0000E94731E8A85E82FF0E09F01220F331FFD
:1007B000E20FF31FE355F74F9F2D9F732081207C9D
:1007C000F22EF92AF0821B861C866CE00E94032917
:1007D0009CE0899FB001112440E050E09B01240F70
:1007E000351FF901EE0FFF1F2E0F3F1FF901E355D3
:1007F000F74F908196FD16C04F5F5F4F4C3051050B
:1008000069F78130C1F51092800082E08093810009
:100810001092850010928400B19A80916F008260DE
:1008200080936F008BE1809FF001819FF00D112478
:10083000E65BF64FE285F0E0CF01880F991FE80FE5
:10084000F91FE355F74F8081806480838BE1809F9F
:10085000F001819FF00D1124E65BF64F81E0818766
:100860000E940C1F609348087093490880934A08BF
:1008700090934B082CC0823061F4109290008093CA
:100880009100109295001092940088BB80937100A3
:10089000C9CF833069F41092A00082E08093A10058
:1008A0001092A5001092A40089BB80937200BACF69
:1008B0008111B8CF1092200182E080932101109223
:1008C0002501109224018ABB80937300ABCFDF9186
:1008D000CF911F910F91FF90EF90DF90CF90BF903D
:1008E000AF909F908F907F906F905F904F90089502
:1008F0000E94251C20910A0830E08217930764F5B6
:10090000880F991FFC01EA50F84F0190F081E02D0B
:100910008181811117C081E0818381899289A389B6
:10092000B48980369947AE4FBF4F61F080E699E7B2
:10093000AEEFBFEF818B928BA38BB48BCF0102966E
:100940000E943D160E940C1F60934808709349084E
:1009500080934A0890934B0808950F931F93CF9369
:10096000DF930E94251CEC010E94D21B882361F0BA
:1009700081E0809357158093581580915915909177
:100980005A150E94EB2505C01092581560E070E0E2
:10099000CB0120910A0830E0C217D307A4F5CC0F91
:1009A000DD1FCA50D84FE881F9811182DF01AA5BAF
:1009B000BF4F0D911D912D913C91139760177107B9
:1009C00082079307B1F06D937D938D939C9313975A
:1009D0000189128923893489601771078207930777
:1009E00041F0618B728B838B948BCF0102960E94B6
:1009F0003D160E940C1F609348087093490880932D
:100A00004A0890934B08DF91CF911F910F91089561
:100A10001F920F920FB60F9211240BB60F922F93C5
:100A20003F934F935F936F937F938F939F93AF9376
:100A3000BF93EF93FF938091B900887F803609F4CC
:100A40009CC068F5883209F45BC090F4803109F4E9
:100A500054C038F4882309F4F6C0883009F44DC036
:100A6000F5C0883109F44CC0803209F45DC0EEC095
:100A7000803409F468C048F4803309F455C08833E1
:100A800009F0E4C080937208D8C0803509F44FC0E3
:100A9000883509F45DC0883409F0D8C0D6C08839DB
:100AA00009F4C7C0A8F4883709F467C038F4883659
:100AB00009F463C0803709F460C0C8C0883809F4FD
:100AC000B8C0803909F45FC0803809F0BFC05BC08E
:100AD000803B09F486C038F4803A09F466C0883A4D
:100AE00009F47FC0B3C0803C09F4A7C0883C09F476
:100AF000A4C0883B09F48AC0A9C080914F0810C0E7
:100B00009091710880917008981770F5E0917108C4
:100B100081E08E0F80937108F0E0E05BF74F8081F9
:100B20008093BB0085EC86C0809372088EC0E091F4
:100B3000710881E08E0F809371088091BB00F0E016
:100B4000E05BF74F808390917108809170086EC0D0
:100B5000E091710881E08E0F809371088091BB0055
:100B6000F0E0E05BF74F80838091EE0781116DC06C
:100B700081E08093ED0784EA61C083E08093EF0712
:100B80001092E807CFCF8091E807803208F051C07B
:100B9000E091E80781E08E0F8093E8078091BB0029
:100BA000F0E0E853F84F8083BDCF85EC8093BC0024
:100BB0001092EF078091E807803230F4E091E80767
:100BC000F0E0E853F84F10826091E80770E0E091A0
:100BD000E907F091EA0788EC97E019951092E80789
:100BE00035C084E08093EF071092C7071092C607C4
:100BF000E091EB07F091EC0719958091C607811100
:100C000005C081E08093C6071092A607E091C70750
:100C100081E08E0F8093C707F0E0EA55F84F80819E
:100C20008093BB009091C7078091C607981708F47E
:100C300079CF85E88093BC0009C085EC8093BC0027
:100C40001092EF0703C0109272084CDBFF91EF91F6
:100C5000BF91AF919F918F917F916F915F914F91D4
:100C60003F912F910F900BBE0F900FBE0F901F90D2
:100C700018958F929F92AF92BF92CF92DF92EF9290
:100C8000FF920F931F93CF93DF93EC01B62E0E9438
:100C90000C1F098D1A8D2B8D3C8D6B017C01C01AA8
:100CA000D10AE20AF30A97018601CD8CDE8C0D2C65
:100CB000000CEE08FF080C151D052E053F05C4F0BD
:100CC000288DFE0134E0239FE00DF11D11241082D8
:100CD0001182128213822F5F288F6487758786871F
:100CE0009787698F7A8F8B8F9C8F233008F0188EAF
:100CF000B1101DC0288DFE0144E0249FE00DF11DC0
:100D00001124C484D584E684F7849B01AC012C199A
:100D10003D094E095F0969017A011216130614068E
:100D20001506D4F0C12CD12C7601C39415C0FE0158
:100D30009E01245F3F4FC080D180E280F3804FEF5F
:100D4000C41AD40AE40AF40AC192D192E192F1924F
:100D50002E173F0781F7CECF608171818281938109
:100D60000E945B2620E030E04AE754E40E94BA2665
:100D70004B015C01C701B6010E945B269B01AC01DF
:100D8000C501B4010E9457286F8F78A389A39AA345
:100D9000DF91CF911F910F91FF90EF90DF90CF9057
:100DA000BF90AF909F908F9008958F929F92AF9237
:100DB000BF92CF92DF92EF92FF920F931F93CF9348
:100DC000DF93EC0188810E941D1EBB24B394892B04
:100DD00009F4B12C0E940C1F2A812983CB80DC806E
:100DE000ED80FE800F811885B216B9F09B01AC0131
:100DF0002C193D094E095F0969017A01012E000C89
:100E0000220B330BC016D106E206F3060CF0BA82B1
:100E10006B837C838D839E831CC0012E000C220B70
:100E2000330B4B015C018C189D08AE08BF0880167F
:100E30009106A206B3066CF0DC01CB01801B910B7E
:100E4000A20BB30B0197A109B1098B839C83AD83DE
:100E5000BE83DF91CF911F910F91FF90EF90DF90B4
:100E6000CF90BF90AF909F908F9008952F923F9218
:100E70004F925F926F927F928F929F92AF92BF92AA
:100E8000CF92DF92EF92FF920F931F93CF93DF9356
:100E90001F921F92CDB7DEB78C0149832A83660F5C
:100EA000771FF801EA5AFF4FE080F180EE0CFF1C3B
:100EB000F801CF01801B910B8E159F0514F4119240
:100EC000F8CF8981F801E60FF71F81838A8180833B
:100ED000480184E5880E911C60E0F40180810E9445
:100EE000451E2801F2E54F0E511C380180E5680EC1
:100EF000711C1E141F043CF5E1E0EE1AF108F80124
:100F0000EE0DFF1DA080F2013080F301208087E00C
:100F1000C82ED12CB12CB5010C2C02C0759567954B
:100F20000A94E2F76170822D0E94451E61E0832DD4
:100F30000E94451E60E0832D0E94451EF1E0CF1AFD
:100F4000D10848F7D6CF61E0F40180810F900F906F
:100F5000DF91CF911F910F91FF90EF90DF90CF9095
:100F6000BF90AF909F908F907F906F905F904F90C9
:100F70003F902F900C94451ECF92DF92EF92FF92FC
:100F80001F93CF93DF937C016B01EB0183E0CC0FC8
:100F9000DD1F8A95E1F76096CE0DDF1D11E01992F5
:100FA00020E0412FB601C70161DF1F5F1930B9F79B
:100FB000DF91CF911F91FF90EF90DF90CF90089538
:100FC0000F931F93CF93DF930E94251CEC010E9487
:100FD000251C8C010E94251C282FFE01EE0FFF1FEF
:100FE000EE0FFF1FE85CFE4E8281882379F017FD2B
:100FF0000DC080819181FC01EA5AFF4F40815181EF
:10100000041715071CF44AE0B80130DF0E940C1FDA
:10101000609348087093490880934A0890934B085E
:10102000DF91CF911F910F91089577FD0FC0FC01C3
:10103000EA5AFF4F20813181621773073CF4442341
:1010400011F020E001C021E04CE010CF0895CF93D3
:10105000DF93CDB7DEB728970FB6F894DEBF0FBE8B
:10106000CDBF0E94381CBC01CE0101960E945B10CE
:1010700040E350E06FE172E0CE0101960E94321D24
:1010800083E290E098878F8341E050E0BE01695F82
:101090007F4F80E090E00E94541D4FE250E06FE1EE
:1010A00072E081E090E00E94541D85E090E00E9493
:1010B000C31C8FE192E00E94171D0E94D71C8981FA
:1010C0009A810E94AF2928960FB6F894DEBF0FBE12
:1010D000CDBFDF91CF9108956F927F928F929F92B3
:1010E000AF92BF92CF92DF92EF92FF920F931F9336
:1010F000CF93DF9300D000D0CDB7DEB70E94251C80
:101100008C010E94251C7C010E94381C6C010E94ED
:10111000251C4C010E94251C5C01000F111F000FB3
:10112000111F085C1E4ED80112968C91882309F479
:1011300057C0B601CE010196BED7FF24370183E028
:10114000660C771C8A95E1F7D12C48E0BB249924E2
:10115000CC24CA94C40E6C2D70E0C5010C2C02C0C6
:10116000959587950A94E2F780FF33C08D2D90E026
:101170002D813E818217930750F429813A812115F0
:10118000310529F0F901E80FF91FE08101C0E0E025
:10119000D8018D919C91DC01AA5ABF4F2D913C91B1
:1011A000E216F306ACF4F0E0EF59FD4F2081F401B4
:1011B0000C2C02C0F595E7950A94E2F7E0FD206853
:1011C000680F791FFB01E60DF71D208BB7014EDE7E
:1011D000D3944C2DC110BCCF89819A810E94AF2934
:1011E0000E940C1F609348087093490880934A0836
:1011F00090934B0826960FB6F894DEBF0FBECDBF76
:10120000DF91CF911F910F91FF90EF90DF90CF90E2
:10121000BF90AF909F908F907F906F900895CF92E6
:10122000DF92EF92FF920F931F93CF93DF936C01A6
:101230007B018A01C0E0D0E0C017D10760F4B6019D
:101240006C0F7D1F41E050E0C7018C0F9D1F0E9475
:101250006E272196F1CFC801DF91CF911F910F9199
:10126000FF90EF90DF90CF9008952F923F924F9292
:101270005F926F927F928F929F92AF92BF92CF9226
:10128000DF92EF92FF920F931F93CF93DF93CDB72F
:10129000DEB7CB50D4400FB6F894DEBF0FBECDBF43
:1012A0001A821982FE0133962FEF33E0DF01A90184
:1012B0001D9241505040E1F7CC5FDB4F19821882FC
:1012C000C450D44040E054E0BE016F5F7F4F0E94A5
:1012D000321DAE014C5F5B4F68E673E0CE010196B4
:1012E0000E941126DC012C91222309F449C60E9498
:1012F000CE25FC013197AE014C5F5B4FE830F10524
:1013000008F0FAC368E673E08827EE58FF4F8F4F66
:101310000C940F2980E090E00E9411268C01AE0110
:101320004C5F5B4F6AE673E080E090E00E9411261C
:101330005C01C8010E94CE256C0110914708123350
:1013400009F4E0C39927FC01E35FF74F7F01808137
:101350008111D8C3812E912C0E940C1F2B013C01BE
:1013600060E08C2D0E94731E61E08C2D0E94451E52
:101370008CE0889DF001899DF00D1124E85BFE4E04
:10138000B182A082C28281E08383448255826682D8
:10139000778223E838E13387228731872087D70196
:1013A0008C931F5F10934708ADC380E090E00E94CC
:1013B00011268C01AE014C5F5B4F6AE673E080E062
:1013C00090E00E941126C8010E94CE25F0900C08E2
:1013D000B8E2FB1609F496C38C011127035F174F7F
:1013E000F801208121118EC3682FCE018E5F9B4FA3
:1013F0000E949117EF2DF0E0EE0FFF1FE056FC4E1C
:10140000CE5FDB4F88819981C250D4409183808325
:1014100083E0D8018C9380910C088F5F80930C0837
:1014200071C380E090E00E9411268C01AE014C5FF8
:101430005B4F68E673E080E090E00E9411267C013B
:10144000AE014C5F5B4F68E673E080E090E00E9485
:1014500011266C01AE014C5F5B4F68E673E080E0E3
:1014600090E00E9411264C01AE014C5F5B4F68E694
:1014700073E080E090E00E9411265C01AE014C5FB9
:101480005B4F6AE673E080E090E00E941126C401A1
:101490000E94CE25482EC5010E94CE253C01C601E2
:1014A0000E94CE254C01C7010E94CE255C01C801D7
:1014B0000E94CE257C0150900B08B4E05B1609F425
:1014C00021C39927FC01E35FF74FCA5FDB4FF98324
:1014D000E883C650D4408081811114C3C401992788
:1014E0009C01235F374FC85FDB4F39832883C85087
:1014F000D440D9018C91811105C3C5019927FC0104
:10150000E35FF74FC65FDB4FF983E883CA50D440EF
:1015100080818111F7C203C380E090E00E94112610
:101520008C01AE014C5F5B4F68E673E080E090E0B9
:101530000E9411266C01AE014C5F5B4F68E673E0C0
:1015400080E090E00E9411267C01AE014C5F5B4F71
:1015500068E673E080E090E00E9411265C01AE0135
:101560004C5F5B4F68E673E080E090E00E941126DC
:10157000AE014C5F5B4F6AE673E080E090E00E9452
:101580001126C5010E94CE254C01C7010E94CE251F
:101590007C01C6010E94CE255C01C8010E94CE25B7
:1015A0006C0150900A08FAE05F1609F4ABC2992763
:1015B0009C01235F374FCA5FDB4F39832883C650B6
:1015C000D440D9018C9181119DC2C5019927FC019C
:1015D000E35FF74FC85FDB4FF983E883C850D4401F
:1015E000808181118FC2C70199279C01235F374FEA
:1015F000C65FDB4F39832883CA50D440D9018C9110
:10160000811180C2C4019927FC01E35FF74F1F01DC
:101610008081811177C264C380E090E00E9411262E
:101620008C01AE014C5F5B4F6AE673E080E090E0B6
:101630000E941126C8010E94CE25D090F507FAE03D
:10164000DF1609F45FC29C013327A901435F574F9E
:101650007A01DA012C91211155C2BBE1DB9E800198
:101660001124065B164FF80111861586168617861B
:10167000108A118A128A138A148A1282118224EB28
:1016800030E034832383168215823087278380835A
:101690000E940C1FD80155966D937D938D939C935A
:1016A000589726E0F7012083D394D092F5072AC2F9
:1016B00080E090E00E9411267C01AE014C5F5B4F00
:1016C00068E673E080E090E00E9411266C01AE01B4
:1016D0004C5F5B4F6AE673E080E090E00E94112669
:1016E0008C01C6010E94CE25D82EC7010E94CE25AE
:1016F000980140E030C080E090E00E9411267C011B
:10170000AE014C5F5B4F68E673E080E090E00E94C2
:1017100011266C01AE014C5F5B4F68E673E080E020
:1017200090E00E9411265C01AE014C5F5B4F6AE6BF
:1017300073E080E090E00E9411268C01C5010E94B8
:10174000CE25B82EC6010E94CE25D82EC7010E94F4
:10175000CE2598014B2D6D2D0E940B19D3C180E031
:1017600090E00E9411268C01AE014C5F5B4F68E651
:1017700073E080E090E00E9411267C01AE014C5F96
:101780005B4F68E673E080E090E00E9411266C01F8
:10179000AE014C5F5B4F6AE673E080E090E00E9430
:1017A0001126C6010E94CE25B82EC7010E94CE2563
:1017B000A82EC8010E94CE25982E8091F407823071
:1017C00009F4A0C1E82EF12C36E03E9DC0013F9DFA
:1017D000900D1124AC01425C564F6A01DA01139658
:1017E0009C9213971496AC9214971596BC928CE029
:1017F00090E00E9417298C01FC011382128225EED1
:1018000032E0318320839482A086B1861286A8E0DC
:10181000BA2EB386D60111969C938E9381E01296D0
:101820008C931092F3071092F2071092F107109226
:10183000F0071092EF078093EE071092ED0761E03A
:1018400084E10E94451E61E085E10E94451E809171
:10185000B9008E7F8093B9008091B9008D7F80930D
:10186000B90088E48093B80085E48093BC00E4EA82
:10187000F1E0F093EC07E093EB0725EA31E03093D9
:10188000EA072093E907D80115961C921597199637
:101890008C911997823010F01596BC92F8019285C0
:1018A000992329F0813019F485818460858362E36E
:1018B00070E080E090E00E94D41ED8011B966C91ED
:1018C000C8010E94F51468EE73E080E090E00E9489
:1018D000D41E60E3C8010E9459158BE496E4019779
:1018E000F1F760E3C8010E9459158BE496E4019773
:1018F000F1F760E3C8010E94591583E592E0019772
:10190000F1F760E2C8010E945915F8016581606233
:1019100040E0C8010E946F1584E0D80116968C93B0
:1019200040E06CE0C8010E946F1540E061E0C80132
:101930000E946F158BE39FE10197F1F782E0F801B8
:10194000878340E066E0C8010E946F1540E062E0D6
:10195000C8010E946F158BE39FE10197F1F7F6E054
:10196000FE9D8001FF9D100D1124025C164FD801D1
:101970008D919C9128E0FC01238760E00E94F51482
:10198000D80112968C911297882309F4AFC015964E
:101990006C911597669561508D919C910E947A1D6E
:1019A000B12C6801B4E0CB0ED11C4B2D50E0F601F8
:1019B000208130E0C9010A9797FD0196959587959A
:1019C0004817590741F06CE673E0D8018D919C915E
:1019D000EBD3B394EACFB6E0BE9D8001BF9D100D5E
:1019E0001124025C164F65E471E0F8018081918159
:1019F000B7D3B12C6801F4E0CF0ED11C4B2D50E0D1
:101A0000D6012C9130E0C9010A9797FD0196959572
:101A100087954817590741F063E471E0F801808128
:101A200091819ED3B394EACFF6E0FE9D8001FF9DA5
:101A3000100D1124025C164FD80115966C91159764
:101A400066958D919C910E947A1DB12C6801B4E03D
:101A5000CB0ED11C4B2D50E0F601208130E0C901A6
:101A6000069797FD0196959587954817590741F078
:101A700061E471E0D8018D919C9172D3B394EACF67
:101A8000B6E0BE9D8001BF9D100D1124025C164F73
:101A90006AE371E0F8018081918162D3B12C680121
:101AA000F4E0CF0ED11C4B2D50E0D6012C9130E04C
:101AB000C901069797FD019695958795481759078F
:101AC00041F068E371E0F8018081918149D3B394DA
:101AD000EACF26E02E9DF0012F9DF00D1124E25C4F
:101AE000F64F60E0808191810E947A1D8091F40719
:101AF0008F5F8093F40706C06AE673E080E090E0B1
:101B00000E941126AE014C5F5B4F68E673E080E0F7
:101B100090E00E941126009709F0E9CB31C2252CF4
:101B2000312C88E590E00E9417298C01FC01E05BD4
:101B3000FF4FF182E0826C0132E5C30ED11CD60169
:101B40008D929C923496B182A082C301019708972E
:101B500008F0C3C0962D872DF801EA5AFF4F9083F5
:101B6000818361E08E2D0E94731E61E0D6018C910D
:101B70000E94731E61E06801B4E5CB0ED11CF60132
:101B800080810E94731E61E0D6018C910E94451EE7
:101B9000D801A05BBF4F1196FC92EE92F8017096AF
:101BA0001192AE17BF07E1F7E12CF12C6801B6E501
:101BB000CB0ED11CF60180819181E816F90654F50F
:101BC00020E04FE0B701C80151D9F7FC0BC0D601A6
:101BD0008D919C91E816F9062CF427E04BE0B701B3
:101BE000C80144D920E049E0B701C8013FD9F7FC5A
:101BF00009C0F60180819181E816F9061CF4B7014D
:101C0000C801BAD941E0B701C8010FDAFFEFEF1AF6
:101C1000FF0AD0CFF101EE0FFF1FEE0FFF1FE85CB0
:101C2000FE4EDF010D931D9381E082836382E12CE0
:101C3000F12C8F019F012D5F3F4F59016D01D5019F
:101C40008C9190E08E159F0571F1F60180818823BB
:101C500089F0F7FC0FC0D8018D919C91FC01EA5AE4
:101C6000FF4F20813181E216F30624F4242D4AE04F
:101C7000B701FCD840E0B701F80180819181D5D946
:101C8000F7FC0DC0D8018D919C91FC01EA5AFF4FE1
:101C900020813181E216F30614F4B7016DD9BFEF4C
:101CA000EB1AFB0ACCCF84E0CA5FDB4FE881F981F5
:101CB000C650D4408083C65FDB4FA881B981CA502B
:101CC000D4408C93C85FDB4FE881F981C850D44081
:101CD0008083539450920B0815CF98E080E03CCF5E
:101CE0008AE490E00E9417298C013C01B2E06B0E5F
:101CF000711C81EF92E0F8019383828384E08483F6
:101D0000158616861786108A118A128A138A148AF3
:101D1000158A168A178A108E20E030E040E85FE3CB
:101D2000218F328F438F548F158E168E178E10A2EF
:101D300021A332A343A354A315A216A217A210A64F
:101D400081E090E096A785A78FEF80AB11A612A641
:101D500013A614A68582A682C782E08615AA16AAB3
:101D600017AA10AE11AE12AE13AE14AEFD961082CD
:101D70001182128213827801B1E4EB0EF11CF7019B
:101D8000208331834283538334961082D80119967D
:101D90001C9219971A961C921A971B961C921B97C5
:101DA0001C961C92C3018CD5F801858C968CA78C4F
:101DB000B0A020E030E040E85FE3C501B4010E943C
:101DC0005526882331F1D801D5966D917D918D915D
:101DD0009C91D8970E945B26A50194010E94BA2687
:101DE0000E94BF28F80165AB76AB87AB90AF26E8C1
:101DF00036E649E659E421AF32AF43AF54AF20E0B5
:101E000030E040E85FE3258F368F478F50A3C30152
:101E100034D7F8011182E52DF0E0EE0FFF1FEA50F4
:101E2000F84F1183008320E030E046E154E4D8010C
:101E300059966D917D918D919C915C970E9455264C
:101E4000882309F440C080E090E0A6E1B4E4F80102
:101E5000818F928FA38FB48F25E535E540ED54E453
:101E6000D7012D933D934D935C93139785A996A924
:101E7000A7A9B0AD181619061A061B0624F5658920
:101E800076898789908D9B01AC010E94BA266B01EF
:101E90007C01F801658D768D878D90A19B01AC0149
:101EA0000E94F3279B01AC01C701B6010E9457288D
:101EB0000E94BF28D801D5966D937D938D939C93F6
:101EC000D897C301DAD6F801C58CD68CE78CF0A080
:101ED00020E030E041E654E4C701B6010E945526F7
:101EE000882391F1D801D5966D917D918D919C912A
:101EF000D8970E945B264B015C0120E030E041E670
:101F000054E4C701B6010E9457289B01AC01C501EA
:101F1000B4010E94BA260E94BF28F80165AB76ABD7
:101F200087AB90AF24EE35EF48EF56E421AF32AFE8
:101F300043AF54AF80E090E0A1E6B4E4858F968F84
:101F4000A78FB0A3C30199D685E0CA5FDB4FA881F4
:101F5000B981C650D4408C93C85FDB4FE881F981CA
:101F6000C850D4408083C65FDB4FA881B981CA5076
:101F7000D4408C93F1018083539450920A08C2CDCF
:101F8000C55FDB4F0FB6F894DEBF0FBECDBFDF914C
:101F9000CF911F910F91FF90EF90DF90CF90BF9066
:101FA000AF909F908F907F906F905F904F903F90F9
:101FB0002F900895CF92DF92EF92FF920F931F938D
:101FC000CF93DF936C017A018B01C0E0D0E0CE1596
:101FD000DF0581F0D8016D918D01D601ED91FC9165
:101FE0000190F081E02DC6011995892B11F0219601
:101FF000EECF7E01C701DF91CF911F910F91FF902E
:10200000EF90DF90CF9008950E94182B80EF93E11E
:1020100070D121E0892B09F420E0822F0895EF92FE
:10202000FF920F931F93CF93DF93EC0181E0888F92
:102030009B8D8C8D981305C0E889F989808185FD79
:1020400025C0F62E0B8D10E00F5F1F4F0F73112769
:10205000E02E8C8DE8120BC00FB607FCFACFE88992
:10206000F989808185FFF5CFCE017CD4F2CF8B8DAD
:10207000FE01E80FF11DE35AFF4FF0829FB7F8947D
:102080000B8FEA89FB89808180620AC09FB7F89430
:10209000EE89FF896083E889F98980818370806493
:1020A00080839FBF81E090E0DF91CF911F910F91DE
:1020B000FF90EF900895EF92FF920F931F93CF93AD
:1020C000DF93EC01198218821B821A821D821C8206
:1020D00061157105B9F17B01FB0101900020E9F761
:1020E00031978F01061B170BB8016F5F7F4F80E0A0
:1020F00090E00E94382A009759F0998388831B83C7
:102100000A832C813D81232B81F4FC0110820DC0B8
:1021100088819981009711F00E94AF291982188255
:102120001D821C821B821A820DC01D830C83B70185
:1021300088819981DF91CF911F910F91FF90EF904E
:102140000C94252BDF91CF911F910F91FF90EF9071
:102150000895DC01ED91FC910190F081E02D19943E
:10216000EF92FF920F931F93CF93DF938C017B012C
:10217000C0E0D0E0F701EC0FFD1F6491662361F031
:10218000D801ED91FC910190F081E02DC8011995E5
:10219000892B11F02196EECFCE01DF91CF911F91C7
:1021A0000F91FF90EF9008956115710579F0FB0193
:1021B00001900020E9F73197AF01461B570BDC0176
:1021C000ED91FC910280F381E02D199480E090E084
:1021D00008951F920F920FB60F9211240BB60F9213
:1021E0002F933F934F935F936F937F938F939F931F
:1021F000AF93BF93EF93FF9380EF93E1B3D3FF913E
:10220000EF91BF91AF919F918F917F916F915F916E
:102210004F913F912F910F900BBE0F900FBE0F90DB
:102220001F9018951F920F920FB60F9211240BB6A4
:102230000F922F938F939F93EF93FF93E09100144E
:10224000F09101148081E0910614F091071482FD51
:1022500012C09081809109148F5F8F7320910A14AE
:10226000821751F0E0910914F0E0E051FC4E958F97
:102270008093091401C08081FF91EF919F918F910C
:102280002F910F900BBE0F900FBE0F901F901895BF
:10229000FC01538D448D252F30E0842F90E0821B6C
:1022A000930B541710F0CF96089501970895FC01F1
:1022B000918D828D981761F0828DDF01A80FB11D7D
:1022C0005D968C91928D9F5F9F73928F90E00895A1
:1022D0008FEF9FEF0895FC01918D828D981731F05B
:1022E000828DE80FF11D858D90E008958FEF9FEFAF
:1022F0000895FC01918D228D892F90E0805C9F4F85
:10230000821B91098F739927089580E090E0892BB3
:1023100019F07CDE811125C080E090E0892B41F02E
:1023200080E090E0892B21F00E94000081111CC008
:1023300080E090E0892B41F080E090E0892B21F053
:102340000E940000811113C080E090E0892BA1F071
:1023500080E090E0892B81F00E94000081110AC08A
:1023600008950E940000D8CF0E940000E1CF0E9493
:102370000000EACF0C9400000895CF93DF93DC01B6
:102380004770552766277727FA013197CD91DC9161
:102390001197E730F10530F48827E658FF4F8F4F4B
:1023A0000C940F29EC81FD8161E01BC0EC81FD8163
:1023B00065E017C0EC81FD8164E013C0EC81FD8114
:1023C00066E00FC0EC81FD8162E00BC0EC81FD8115
:1023D0006AE007C0EC81FD8168E003C0EC81FD810B
:1023E00069E0CD01DF91CF911994CF93DF93EC0198
:1023F000CB01BA0126E030E040E050E00E94952792
:10240000623071058105910559F18CF461157105F2
:1024100081059105F1F06130710581059105C1F5E6
:10242000E881F9810480F581E02D65E02DC06430FC
:1024300071058105910511F1D4F0653071058105B3
:10244000910531F5E881F9810480F581E02D66E0A0
:102450001BC0E881F9810480F581E02D64E014C09F
:10246000E881F9810480F581E02D61E00DC0E8810B
:10247000F9810480F581E02D63E006C0E881F981EF
:102480000480F581E02D62E0CE01DF91CF911994B7
:10249000DF91CF9108954370552766277727DC0198
:1024A000ED91FC910480F581E02D423051056105EC
:1024B000710571F0433051056105710559F04130E6
:1024C00051056105710511F065E005C066E003C0C6
:1024D0006AE001C069E01994CF93DF93EC01CB016E
:1024E000BA0123E030E040E050E00E9495276130DF
:1024F00071058105910581F06230710581059105B5
:1025000091F0672B682B692BC1F4E881F981048075
:10251000F581E02D64E00DC0E881F9810480F5814A
:10252000E02D61E006C0E881F9810480F581E02DAD
:1025300062E0CE01DF91CF911994DF91CF910895A0
:102540004370552766277727DC01ED91FC910480C5
:10255000F581E02D423051056105710571F0433080
:1025600051056105710559F041305105610571054D
:1025700011F062E005C063E003C061E001C060E00B
:1025800019940F931F93CF93DF93EC01E881F981A6
:102590000480F581E02D8C010D5B1F4FD8018C91DB
:1025A000811102C060E001C062E0CE011995E881AE
:1025B000F9810480F581E02DD8018C91811102C050
:1025C00061E001C063E0CE0119958BA59CA5823026
:1025D000910538F0880F991F880F991F059701976B
:1025E000F1F7E881F9810480F581E02DD8018C9123
:1025F000811102C060E001C062E0CE01DF91CF91A5
:102600001F910F911994CF93DF93EC0120E030E0FC
:10261000A9016B897C898D899E890E94F0281816F2
:102620001CF4EFA5F8A902C0E9A9FAA9DF91CF919E
:1026300019940F931F93DC0112960C91129710E0DE
:1026400009301105D8F5F8018827EF57FF4F8F4F54
:102650000C940F29ED91FC9111970084F185E02DE8
:1026600029C0ED91FC9111970284F385E02D22C0E1
:10267000ED91FC9111970484F585E02D1BC0ED913F
:10268000FC9111970684F785E02D14C0ED91FC9123
:1026900011970088F189E02D0DC0ED91FC91119703
:1026A0000288F389E02D06C0ED91FC911197048812
:1026B000F589E02DCD011F910F9119941F910F9174
:1026C0000895CF92DF92EF92FF920F931F93CF93D3
:1026D000DF936C018B017A01EC01CC56D74F8881D6
:1026E00087FF04C0FB011182108224C02CE02C9DC6
:1026F000C0012D9D900D11242881AC01420F511D68
:1027000027FD5A9520913D0930E04217530794F474
:102710002881AC01420F511D27FD5A959A01FA01FB
:10272000EE0FFF1F2E0F3F1FF901E355F74F2081DA
:1027300026FD19C088818F5F88832CE02C9DC00105
:102740002D9D900D11242881AC01420F511D27FDB4
:102750005A9520913D0930E042175307BCF4288177
:102760002C3044F113C02881820F911D27FD9A95CA
:10277000FC01EE0FFF1F8E0F9F1FFC01E355F74F6B
:10278000808160E08F730E94451ED4CFF801808164
:102790009181049680349C4918F480E49CE904C03B
:1027A000F801808191810496F701918380838FEFF6
:1027B000888345C0F801408151812881BC01620FA6
:1027C000711D27FD7A959B01FB01EE0FFF1F2E0F58
:1027D0003F1FF901E355F74F21813281240F351F47
:1027E000F701318320832881AC01420F511D27FD61
:1027F0005A959A01FA01EE0FFF1F2E0F3F1FF901A4
:10280000E355F74F208126FF1AC02881820F911DC2
:1028100027FD9A95FC01EE0FFF1F8E0F9F1FFC01F5
:10282000E355F74F808161E08F73DF91CF911F9166
:102830000F91FF90EF90DF90CF900C94451EDF91A9
:10284000CF911F910F91FF90EF90DF90CF9008955F
:10285000CF92DF92EF92FF920F931F93CF93DF936C
:10286000EC019A81943041F0983031F0933031F09E
:10287000963021F012E003C014E001C013E023966B
:10288000E12CF12CC62ED12C01E0C6010E2C02C089
:10289000959587950A94E2F76C8180FD6027899170
:1028A0000E94451E8FEFE81AF80AE11670F3DF91D7
:1028B000CF911F910F91FF90EF90DF90CF900895EF
:1028C000CF93DF93FC012281222359F1EC0161E0D7
:1028D00083810E94731E61E08C810E94731E8A8135
:1028E000843011F0883039F461E08D810E94731ECC
:1028F00061E08E8106C0833011F0863021F461E002
:102900008D810E94731E8EA58F3F59F061E00E9459
:10291000731E6DA581E068278EA5DF91CF910C9481
:10292000451EDF91CF910895CF93DF93FC01228163
:102930002223A9F0EC010190F081E02D0480F581C3
:10294000E02D60E019958EA58F3F49F061E00E946F
:10295000731E6DA58EA5DF91CF910C94451EDF915E
:10296000CF910895FC01848DDF01A80FB11DA35AFA
:10297000BF4F2C91848D90E001968F739927848F9F
:10298000A689B7892C93A089B1898C9183708064C2
:102990008C93938D848D981306C00288F389E02D63
:1029A00080818F7D80830895CF93DF93EC01888DA4
:1029B0008823C1F0EA89FB89808185FD05C0A8894B
:1029C000B9898C9186FD0EC00FB607FCF5CF8081CA
:1029D00085FFF2CFA889B9898C9185FFEDCFCE0113
:1029E000C1DFE8CFDF91CF910895CF93FC01C4817F
:1029F00021E020937308C09398081092F107109279
:102A0000F0078385682B8FE998E00E94FE01909182
:102A1000F007913208F045C08091EF078111FCCF9B
:102A200082E08093EF0781E08093EE078FEF809341
:102A300072081092710890937008A4E7B8E0E0E57E
:102A4000F8E080E0981721F02D9121938F5FFACF65
:102A500010924F0880914F08CC0FC82BC0934F089D
:102A60008091ED07813061F41092ED0780914F085D
:102A70008093BB008091BC0083FDF8CF85EC01C042
:102A800085EE8093BC008091EF078230E1F3809166
:102A900072088F3F31F080917208803211F080917E
:102AA00072081092F1071092F00710927308CF91FC
:102AB00008950F931F93CF938C01C62F96DF6C2F31
:102AC0006460C80192DF6C2F6B7FC8018EDF83ECDE
:102AD00090E00197F1F7CF911F910F9108950F9317
:102AE0001F93CF93DF938C01C62FD42F607F642B6D
:102AF000E0DF80E1C89FB00111246D2BC801DF9198
:102B0000CF911F910F91D5CF41E0E9DF81E090E0B7
:102B100008951F920F920FB60F9211240BB60F92C9
:102B20002F933F934F935F936F937F938F939F93D5
:102B3000AF93BF93EF93FF9348E251E064E271E0FB
:102B400080E090E0BEDDFF91EF91BF91AF919F914A
:102B50008F917F916F915F914F913F912F910F9046
:102B60000BBE0F900FBE0F901F9018951F920F92E3
:102B70000FB60F9211240BB60F922F933F934F93E2
:102B80005F936F937F938F939F93AF93BF93EF93D5
:102B9000FF9348EA50E064EA70E083E090E091DD62
:102BA000FF91EF91BF91AF919F918F917F916F9125
:102BB0005F914F913F912F910F900BBE0F900FBEE1
:102BC0000F901F9018951F920F920FB60F9211241D
:102BD0000BB60F922F933F934F935F936F937F9317
:102BE0008F939F93AF93BF93EF93FF9348E950E088
:102BF00064E970E082E090E064DDFF91EF91BF91C5
:102C0000AF919F918F917F916F915F914F913F9184
:102C10002F910F900BBE0F900FBE0F901F90189525
:102C20001F920F920FB60F9211240BB60F922F9393
:102C30003F934F935F936F937F938F939F93AF9344
:102C4000BF93EF93FF9348E850E064E870E081E0C1
:102C500090E037DDFF91EF91BF91AF919F918F9100
:102C60007F916F915F914F913F912F910F900BBE8C
:102C70000F900FBE0F901F9018954F925F926F921A
:102C80007F928F929F92AF92BF92CF92DF92EF92FC
:102C9000FF920F931F93CF93DF93EC018F8498885B
:102CA000A988BA888B859C85AD85BE85881A990AC6
:102CB000AA0ABB0A6B897C898D899E899B01AC011C
:102CC0000E94BA266B017C016B8D7C8D8D8D9E8D53
:102CD0009B01AC010E94F3279B01AC01C701B60127
:102CE0000E9457280E94BF2881149104A104B104B6
:102CF00099F462307105810591050CF079C01BA231
:102D00001CA21DA21EA21B8A1C8A1D8A1E8A1BAA27
:102D10001CAA1DAA1EAAF4C00BA91CA92DA93EA974
:102D2000FE01ED5BFF4F181419041A041B04FCF498
:102D300010161106120613064CF4681579058A055B
:102D40009B054CF52081211153C025C001151105AB
:102D50002105310509F44CC0681579058A059B05E4
:102D60000CF046C08081882309F442C036C010169A
:102D7000110612061306ECF4002711279801081912
:102D800019092A093B0960177107820793071CF488
:102D90002081222369F19B01AC0188279927DC015E
:102DA000821B930BA40BB50B8BAB9CABADABBEAB3B
:102DB0001FC00115110521053105D1F0CC24DD24FA
:102DC0007601C818D908EA08FB086C157D058E0540
:102DD0009F0574F4808181110BC03095209510956A
:102DE00001951F4F2F4F3F4F0BAB1CAB2DAB3EAB95
:102DF000CBA8DCA8EDA8FEA88E010D5B1F4FC11467
:102E0000D104E104F10491F48FA998ADA9ADBAAD54
:102E10008BAF9CAFADAFBEAF81E0181419041A049C
:102E20001B040CF080E0F80180833EC08BAC9CACAE
:102E3000ADACBEACA5019401C501B4010E94F3275D
:102E40002B013C01C701B6010E945B2620E030E067
:102E500040E850E40E94BA2620E030E040E85FE31A
:102E60000E94F3279B01AC01C301B2010E945728C5
:102E70009B01AC01C501B4010E94F2272B013C016A
:102E8000FE01FF9680809180A280B3809401A5010D
:102E90000E94F028181614F442015301C401D50110
:102EA0008BAF9CAFADAFBEAFFFEFCF1ADF0AEF0A1B
:102EB000FF0ACBAADCAAEDAAFEAACBACDCACEDAC37
:102EC000FEACC701B6010E94C4286BA37CA38DA3EE
:102ED0009EA3A701960160E074E284E799E40E9452
:102EE00057286B8B7C8B8D8B9E8BF8012081211159
:102EF00007C0DC01CB01B0588B8B9C8BAD8BBE8B9C
:102F0000DF91CF911F910F91FF90EF90DF90CF90C5
:102F1000BF90AF909F908F907F906F905F904F90F9
:102F20000895CF93DF93EC01862F6883198261E0C7
:102F3000DAD669818881DF91CF91A7C6DC0113962B
:102F40008C91139781110CC01896ED91FC911997F3
:102F5000309731F04D915C91119712966C910CC0A5
:102F60001A96ED91FC911B97309739F04D915C9139
:102F7000119712966C9181E019940895EDE0F8E0B4
:102F80009081981301C01082319698E0E734F907D8
:102F9000B9F7089541D76093480870934908809322
:102FA0004A0890934B0869E571E085E090E01DC503
:102FB000FF920F931F93CF93DF9381E0DFDF109297
:102FC000470888E0DBDF10924C0883E0D7DF1092DF
:102FD0000C0884E0D3DF00E010E0C0910B08D0E0E3
:102FE000C017D10789F0CC0FDD1FCC0FDD1FC85CE7
:102FF000DE4E8A81882329F0888199810E94AF2939
:103000001A820F5F1F4FE9CF10920B088091F507CE
:1030100020E030E0482F50E06BE1869FC001112492
:10302000865B964FDC011996EC012A9642175307EE
:1030300099F06C91662369F0E881F0E0BF01660FBA
:10304000771FE60FF71FE355F74F60816F7B6083B3
:103050001C922F5F3F4FEACF86E090DF1092F5077A
:10306000C0E0D0E080910A0890E08C179D0759F0ED
:10307000880F991FFC01EA50F84F808191810E94CE
:10308000AF292196EFCF85E079DF10920A0800E0A2
:1030900010E086E0F82E8091F40790E08017910709
:1030A00091F0F89EE001F99ED00D1124C25CD64F3C
:1030B0008A81882329F0888199810E94AF291A8208
:1030C0000F5F1F4FE8CF1092F40710929E081092E6
:1030D0009D0810924D08DF91CF911F910F91FF90A5
:1030E000089566DF60E571E085E090E07EC440E031
:1030F00054E066E873E08BE390E0D6D463E571E0DA
:103100008FE090E072C40F931F93CF93C82F8A0172
:1031100087E090E038D4C8018AD480918D14882348
:1031200089F06091611580915E1590915F1511D8BD
:103130004C2F50E060E070E02AE080915E159091A5
:103140005F15A8D3CF911F910F9131C40F931F9397
:10315000CF93C82F8A0186E090E015D4C80167D4C8
:1031600080918D14882391F06091611580915E1596
:1031700090915F150E94A9104C2F50E060E070E024
:103180002AE080915E1590915F1584D3CF911F91B5
:103190000F910DC4DF92EF92FF920F931F93CF9385
:1031A000DF93D82EC8E3D1E1E12CF12C80910B08FC
:1031B00090E0E816F90691F010E08B81811749F054
:1031C000612F70E04D2D888199810E9415081F5F45
:1031D000F4CF8FEFE81AF80A2496E8CFC0EAD3E1DB
:1031E00000E010E080910C0890E00817190759F0F2
:1031F000DD2011F060E001C06981888146D50F5F54
:103200001F4F2296EFCFDF91CF911F910F91FF902B
:10321000EF90DF9008955F926F927F928F929F92CE
:10322000AF92BF92CF92DF92EF92FF920F931F93D4
:10323000CF93DF93CDB7DEB7C855D1090FB6F89459
:10324000DEBF0FBECDBF70904C0894E1791609F433
:10325000D9C0E82FF0E0DF01A35FB74F7D019C915B
:103260009111D0C0E62FF0E0DF01A35FB74F6D01F1
:103270009C919111C7C0642E562E682FA72CB12C9B
:10328000FE01349687E4DF011D928A95E9F71B82DF
:1032900088E58A9D40018B9D900C11248401085A79
:1032A000154F3397D80101900D928A95E1F7F801F7
:1032B000E45BFF4F108211821282138232973183B6
:1032C0002083F80160835182C401855A954F3ED412
:1032D000652DC4018C59954F39D4D80155961C924F
:1032E000559757961C921E92569759961C921E926D
:1032F0005897F801128E138E148E158E88EE93E077
:10330000A0E0B0E0868F978FA0A3B1A3D401A65808
:10331000B54F85E0869DF0011124E95EFC4F0190D8
:103320000D928A95E1F778D5F801E05CFF4F608354
:1033300071838283938328E5729EF0011124E15802
:10334000F54F20E0119211921192119260877187CE
:10335000828793872F5F2330A9F788E58A9DF00144
:103360008B9DF00D1124E85AF54F17AEDF01AC5BD1
:10337000BF4F26EA30E011963C932E9341E050E097
:1033800060E070E0428F538F648F758F4FEF5FEF77
:10339000BA01468F578F60A371A318964D915C9127
:1033A000BA0106A002C0759567950A94E2F72689CE
:1033B000378923703327262B372B378B268B518F5A
:1033C000408F91E0928320914C08829FC00111248C
:1033D000885A954FFC01E05BFF4F46EA58E1518364
:1033E0004083329651834083329651834083329694
:1033F0005183408388E0F7018083D6018C932F5F4F
:1034000020934C08C85ADF4F0FB6F894DEBF0FBEAA
:10341000CDBFDF91CF911F910F91FF90EF90DF9083
:10342000CF90BF90AF909F908F907F906F905F9064
:103430000895CF92DF92EF92FF92F82E4BE050E08A
:1034400064E172E080E390E00E940F09F11009C08E
:1034500080911402833529F4809115028E3409F489
:103460005FC080917B00877F80937B0080E48093A6
:103470007C0080917A00806480937A0080917A0049
:1034800086FDFCCF609178008091790070E0782B08
:10349000072E000C880B990B6115710581059105AC
:1034A00011F00E94C5250E947A25CC24CA942FE0F1
:1034B000D22EE12CF12CA70196010E9495277F9333
:1034C0006F938EE693E09F938F9384E192E09F93B6
:1034D0008F930E943B2B0E947A25A70196010E94A0
:1034E00095277F936F9387E793E09F938F938BE16B
:1034F00092E09F938F930E943B2B8DB79EB70C96C3
:103500000FB6F8949EBF0FBE8DBF4BE050E064E154
:1035100072E080E390E0FF90EF90DF90CF90C4C224
:10352000FF90EF90DF90CF900895CF93DF9300D07E
:1035300000D0CDB7DEB766E873E0CE0101960E94F9
:103540005B10CE0101960E94350989819A810E9403
:10355000AF2981E080934D0866E571E081E190E05C
:1035600044D226960FB6F894DEBF0FBECDBFDF91D2
:10357000CF9108950F931F93CF93DF9300D000D086
:10358000CDB7DEB749D4609348087093490880935B
:103590004A0890934B086CD1BC01CE0101960E9461
:1035A0005B1060919D0870919E084D815E818B013A
:1035B000040F151F40E054E0401B510B42305105F1
:1035C00054F16A577C4F6115710519F0CE010196CF
:1035D00049D210939E0800939D0880918D1481110B
:1035E00031C085E090E0CFD180918D14882389F09F
:1035F0006091611580915E1590915F150E94A910F0
:10360000A801110F660B770B80915E1590915F15E5
:103610008AD1CDD117C080918D14811113C085E05E
:1036200090E0B1D180918D14882399F36091611558
:1036300080915E1590915F150E94A9104FEF5FEF8A
:10364000BA01E2CF89819A810E94AF2926960FB6EE
:10365000F894DEBF0FBECDBFDF91CF911F910F91C8
:103660000895CF93DF9300D000D0CDB7DEB720917F
:103670009B0830919C088091990890919A0828178E
:10368000390721F410929A081092990880919908AC
:1036900090919A0890939C0880939B0810928603BF
:1036A00080E0C7DEEDE0F8E0119248E0E734F4078F
:1036B000D9F7B2D3609348087093490880934A08B9
:1036C00090934B0875DC40E054E066E873E08BE3D0
:1036D00090E00E940F09E6E8F3E080E090E0382FE8
:1036E000292F811544E0940749F041910196411139
:1036F000F6CF30939D0820939E0804C090939E08B7
:1037000080939D0866E873E0CE0101960E945B10ED
:10371000CE0101960E94350989819A810E94AF29C4
:1037200081E080934D08198241E050E0BE016F5F57
:103730007F4F80E090E00E940F098981833241F43D
:103740004FE250E06FE172E081E090E00E940F09EB
:1037500026960FB6F894DEBF0FBECDBFDF91CF9196
:103760000895AC01109292149091621580916115A8
:10377000FA01BF01641B750BDF012081222381F058
:103780003091921420939214291304C0931302C011
:103790001092921431962C912813EBCF931749F382
:1037A000CB0108950F931F93CF93DF93809156150C
:1037B000882309F440C0813031F482E080935615AB
:1037C000C6E9D4E102C0C0E0D0E08091571588235B
:1037D00041F1209721F4C0915B15D0915C158E01C9
:1037E000CE01BFDF892B29F42196F8018081811158
:1037F000F6CFF8018081882301F1C801B2DFF8011A
:10380000E80FF91F8081882311F010823196F09320
:103810005C15E0935B15902F812F90935915809341
:103820005A158091591590915A15892B21F081E0F4
:103830008093571505C080E003C090E080E0EDCF95
:10384000DF91CF911F910F910895ACDF882359F03C
:1038500081E0809357158093581580915915909168
:103860005A150C94CE251092581580E090E00895DA
:1038700099DF882351F081E0809357158093581584
:103880008091591590915A1508951092581580E01D
:1038900090E008958F929F92AF92BF92EF92FF9225
:1038A0000F931F93CF93DF93CDB7DEB7A1970FB6DA
:1038B000F894DEBF0FBECDBF7C01FA01CB0119A287
:1038C000223008F42AE08E010F5D1F4F822E912CCA
:1038D000A12CB12CBF01A50194010E94C127F901BF
:1038E000CA01015011096A3014F4605D01C0695CBD
:1038F000D8016C93232B242B252B61F7B801C7012A
:103900000E94D410A1960FB6F894DEBF0FBECDBFB3
:10391000DF91CF911F910F91FF90EF90BF90AF90EB
:103920009F908F900895CF92DF92EF92FF920F9326
:103930001F93CF93DF9377FF1CC06A017B01EC01DB
:103940006DE20E94A9108C0144275527BA014C1939
:103950005D096E097F092AE0CE019CDF800F911F6F
:10396000DF91CF911F910F91FF90EF90DF90CF905B
:1039700008952AE0DF91CF911F910F91FF90EF9072
:10398000DF90CF9087CFAC0180918D1481110EC054
:1039900081E080938D1480939414052E000C660BA7
:1039A000770B80915E1590915F15BDCF0895809142
:1039B0008D148823A1F06091601580915E1590911F
:1039C0005F150E94A91080919514882341F063E847
:1039D00073E080915E1590915F150E94D410109253
:1039E000941410928D1480E00895CF93DF9320916A
:1039F0008D14211118C0EB01C6DF80918D1488232E
:103A000079F06091611580915E1590915F150E942B
:103A1000A910BE0180915E1590915F150E94B010B3
:103A2000DF91CF91C4CF80E0DF91CF910895CF9304
:103A3000DF9320918D14222391F0EC0160916115A8
:103A400080915E1590915F150E94A910BE01809132
:103A50005E1590915F15DF91CF910C94D410DF919A
:103A6000CF9108950F931F93CF93DF93FC01C481EF
:103A7000D581209719F4FB01108211C041505109E2
:103A80004C175D0708F4EA018B01FC01608171812C
:103A9000AE01C8010E942C2BC00FD11F1882DF91EC
:103AA000CF911F910F910895CF92DF92EF92FF92E5
:103AB0000F931F93CF93DF936C017B018A01C0E0CA
:103AC000D0E0C017D10760F4B6016C0F7D1F41E054
:103AD00050E0C7018C0F9D1F0E947E272196F1CFD9
:103AE000C801DF91CF911F910F91FF90EF90DF9070
:103AF000CF900895CF93DF93CDB7DEB728970FB659
:103B0000F894DEBF0FBECDBF28E0E0E3F3E0DE01B6
:103B1000119601900D922A95E1F7FC012185261757
:103B200010F46FEF620FFE013196E60FF11DE60F04
:103B3000F11D6081606840E028960FB6F894DEBF02
:103B40000FBECDBFDF91CF910C946F151F93CF9314
:103B5000DF93EC01162F688385E090E098878F83D0
:103B600060E0812FC0D061E0812F8FD055D16B8371
:103B70007C838D839E83888160D021E0892B09F42A
:103B800020E02A832983DF91CF911F91089590E04F
:103B9000FC013197E231F10508F04EC08827E65765
:103BA000FF4F8F4F0C940F29809180008F7703C0B7
:103BB000809180008F7D80938000089580918000A7
:103BC000877FF9CF84B58F7702C084B58F7D84BDA0
:103BD00008958091B0008F7703C08091B0008F7DF1
:103BE0008093B0000895809190008F7707C08091F6
:103BF00090008F7D03C080919000877F809390001C
:103C000008958091A0008F7707C08091A0008F7DDC
:103C100003C08091A000877F8093A00008958091C9
:103C200020018F7707C0809120018F7D03C0809194
:103C30002001877F809320010895CF93DF93282F61
:103C400030E0F901E95CFD4F8491F901EF50FE4F3E
:103C5000D491F901E555FE4FC491CC2389F081112F
:103C600096DFEC2FF0E0EE0FFF1FEF56FE4FA59111
:103C7000B491EC91ED2381E090E021F480E002C06A
:103C800080E090E0DF91CF9108951F93CF93DF9371
:103C9000282F30E0F901E95CFD4F8491F901EF50E4
:103CA000FE4FD491F901E555FE4FC491CC23B9F0F4
:103CB000162F81116CDFEC2FF0E0EE0FFF1FE9589B
:103CC000FE4FA591B4919FB7F894111104C08C9147
:103CD000D095D82302C0EC91DE2BDC939FBFDF91FF
:103CE000CF911F910895CF93DF9390E0FC01EF50A7
:103CF000FE4F2491FC01E555FE4F8491882361F12C
:103D000090E0880F991FFC01E35AFE4FC591D491B2
:103D1000FC01E958FE4FA591B491611109C09FB70C
:103D2000F8948881209582238883EC912E230BC000
:103D3000623061F49FB7F8948881322F30958323E5
:103D40008883EC912E2B2C939FBF06C08FB7F894DD
:103D5000E8812E2B28838FBFDF91CF9108953FB745
:103D6000F8948091CE159091CF15A091D015B09177
:103D7000D11526B5A89B05C02F3F19F00196A11DAE
:103D8000B11D3FBFBA2FA92F982F8827820F911DF1
:103D9000A11DB11DBC01CD0142E0660F771F881F38
:103DA000991F4A95D1F708958F929F92AF92BF9233
:103DB000CF92DF92EF92FF926B017C01D0DF4B013B
:103DC0005C01C114D104E104F104E9F0C8DFDC01B5
:103DD000CB0188199909AA09BB09883E9340A1051E
:103DE000B10578F321E0C21AD108E108F10888EEA4
:103DF000880E83E0981EA11CB11CC114D104E104FB
:103E0000F10421F7DECFFF90EF90DF90CF90BF90CD
:103E1000AF909F908F9008952FB7F8946091CA1536
:103E20007091CB158091CC159091CD152FBF089531
:103E30001F920F920FB60F9211242F933F938F93DF
:103E40009F93AF93BF938091CA159091CB15A0918A
:103E5000CC15B091CD153091C91523E0230F2D3726
:103E600020F40196A11DB11D05C026E8230F02967E
:103E7000A11DB11D2093C9158093CA159093CB1530
:103E8000A093CC15B093CD158091CE159091CF1500
:103E9000A091D015B091D1150196A11DB11D8093AF
:103EA000CE159093CF15A093D015B093D115BF9197
:103EB000AF919F918F913F912F910F900FBE0F90D7
:103EC0001F901895789484B5826084BD84B5816014
:103ED00084BD85B5826085BD85B5816085BD8091D5
:103EE0006E00816080936E0010928100809181004D
:103EF0008260809381008091810081608093810045
:103F0000809180008160809380008091B100846006
:103F10008093B1008091B00081608093B000809167
:103F200091008260809391008091910081608093E4
:103F30009100809190008160809390008091A10019
:103F400082608093A1008091A10081608093A10094
:103F50008091A00081608093A00080912101826007
:103F600080932101809121018160809321018091C2
:103F7000200181608093200180917A008460809389
:103F80007A0080917A00826080937A0080917A0032
:103F9000816080937A0080917A00806880937A00B3
:103FA0001092C100E0910014F091011482E080832E
:103FB000E091FC13F091FD131082E091FE13F0915B
:103FC000FF1380E1808310920814E0910414F091B3
:103FD000051486E08083E0910214F091031480813F
:103FE00080618083E0910214F091031480818860E5
:103FF0008083E0910214F0910314808180688083B3
:10400000E0910214F091031480818F7D80838AEC0B
:1040100097E1909364158093631580EE97E09093F9
:104020006615809365158CE698E0909368158093EB
:1040300067158AEB92E090936A15809369158DEA73
:1040400094E090936C1580936B1589E593E09093C1
:104050006E1580936D158EE592E0909378158093A0
:1040600077158AE492E090937E1580937D158AEB14
:104070009AE190937C1580937B1581E798E190936A
:10408000801580937F1587E798E190938215809340
:10409000811585E99AE1909386158093851587E2CD
:1040A00098E090938C1580938B158EE792E0909317
:1040B0008E1580938D1588E794E0909390158093EA
:1040C0008F158BE892E0909392158093911580E381
:1040D00092E0909394158093931581E39BE19093E4
:1040E00096158093951584ED92E0909398158093A2
:1040F0009715B7DA81E08093951499249394809171
:1041000094148111C0C080915E1590915F15DC01FF
:10411000ED91FC910084F185E02D1995892B09F42E
:10412000B2C080915E1590915F15DC01ED91FC911C
:104130000084F185E02D1995803691050CF09FC023
:1041400080915E1590915F15DC01ED91FC910084EA
:10415000F185E02D19957C01C0915E15D0915F1518
:1041600006EFA02E04E1B02E650100E010E0E0169D
:10417000F10619F4C0E0D0E054C04EDE68877987BC
:104180008A879B87E881F9810284F385E02DCE013F
:10419000199597FF39C340DE488459846A847B842B
:1041A000DC01CB0184199509A609B7094C805D8013
:1041B0006E807F8084159505A605B70518F3DACFC4
:1041C000F50191915F011092561530916215209181
:1041D000931490939314931741F14091601580913B
:1041E0008F14E82FF0E0E357FB4E941323C03217EF
:1041F00009F11186882321F090925615109293149C
:1042000010928F1410925A151092591510925C1535
:1042100010925B159092571580915615813099F048
:104220002196CE15DF0564F26ACF9213D6CF109295
:104230009314D3CF91878F5F80938F1490919114B3
:104240008917F0F6E9CF01DB80938E14823378F47E
:1042500020915815222359F0FC01FF27EE0FFF1F74
:10426000EB59FA4E0190F081E02D309731F4E09156
:104270006315F0916415309799F21995D1CF80E6C6
:10428000E82EF12C69CF80914E088111C7C2C4DDA0
:10429000009148081091490820914A0830914B0834
:1042A000DC01CB01801B910BA20BB30B813A9B4B22
:1042B000AD40B10508F0AEC280914D08882309F4E5
:1042C000A0C2C8E4D1E100E010E08091470890E08E
:1042D0008017910739F1A0DD6B017C018C819D81F4
:1042E000AE81BF81A7019601281B390B4A0B5B0BDE
:1042F0002B303105410551058CF08A819EDCCC8242
:10430000DD82EE82FF829B81891741F091E081116D
:1043100001C090E09B83CE010E949E170F5F1F4F4C
:104320002C96D3CFC8E5DAE00FE71AE0212C312C28
:1043300080914C0890E08215930509F45DC18A8153
:10434000882309F451C1CE0103960E94D506CE01FF
:104350000C960E94D506DE8431E0D3268D2D880F81
:10436000DD80D326D82A60E0C8010E943906CD88B6
:10437000DC1409F49EC07E0146E4E40EF11CD70172
:104380006D917D918D919C91FAD665307105A4F067
:10439000F7016081718182819381F1D6603171056D
:1043A00074F4D7016D917D918D919C91E8D67B013C
:1043B000B5E0EB1AF10806C0E12CF12C03C0BAE01D
:1043C000EB2EF12C8E8D9F8DA8A1B9A18A8C9B8C90
:1043D000AC8CBD8CBC01CD01681979098A099B0997
:1043E0006E3171058105910544F02EE130E040E029
:1043F00050E09BD5CA01B90104C061E070E080E0E3
:1044000090E04701FF0CAA08BB08A5019401ECD677
:104410009B01AC01C501B401E7D69B01AC01C5010C
:10442000B401E2D628EE33E040E050E07ED5490109
:104430005A01EFEF8E1A9E0AAE0ABE0A2C2D34E006
:104440002302F00111248D2D0D2C000C990BE82B6B
:10445000F92BE95FFC4F6081062E000C770B689DFD
:10446000A001699D500D789D500D11242E893F8922
:10447000420F531F5F8B4E8B48E5429D9001439D39
:10448000300D1124285A354FF901E80FF91F82A188
:10449000882371F061E0C8010E9439068E899F89E6
:1044A0000EA002C0959587950A94E2F7998F888FA0
:1044B000DD8AC88CD98C0D2C000CEE08FF08F801A1
:1044C00085A196A1A7A1B0A5C816D906EA06FB0644
:1044D00009F48AC046015701881A990AAA0ABB0A38
:1044E000B7FE05C044244A94542C320104C0412C28
:1044F000512C32014394D501C401B7FE07C088276F
:104500009927DC0188199909AA09BB090297A10515
:10451000B10514F5F1E04F1651046104710471F412
:10452000D8019996ED91FC919A97309739F093962E
:104530004D915C919497688180E021C0D8019D964F
:10454000ED91FC919E97309751F193964D915C912E
:104550009497698182E022C0B1E04B165104610456
:10456000710479F4D8019B96ED91FC919C9730975A
:1045700041F093964D915C919497688181E01995F3
:104580002CC0D8019F96ED91FC91D097309739F0CF
:1045900093964D915C919497698183E0199547209A
:1045A000462045204094C9F4880C991CAA1CBB1CC9
:1045B000D701C60188199909AA09BB090097A10565
:1045C000B04859F48E899F89837099279F8B8E8B71
:1045D000198E188EC12CD12C7601D8019596CD92CA
:1045E000DD92ED92FC929897BFEF2B1A3B0AC85AC6
:1045F000DF4F085A1F4F9CCE76EFE72E77E0F72E5D
:1046000000E010E080910A0890E08017910709F41B
:104610004CC0F701C191D1917F018DA19EA1AFA1A5
:10462000B8A5892B8A2B8B2BE9F199DB4B015C0117
:1046300089A59AA5ABA5BCA5B501A401481B590B3A
:104640006A0B7B0B8DA19EA1AFA1B8A54817590796
:104650006A077B0738F1FE01EB5BFF4F20818D85F8
:104660009E85AF85B889222321F00196A11DB11D39
:1046700003C00197A109B1098D879E87AF87B88BC9
:104680006E01F2E0CF0ED11C4D855E856F85788975
:10469000C6010E94191389A69AA6ABA6BCA6C6019C
:1046A0000E943D160F5F1F4FADCFCAE4D9E000E076
:1046B00010E058E8E52EF12C68E5C62E62E0D62E13
:1046C0008091F50790E08017910709F49AC08989D5
:1046D0009A89AB89BC894D855E856F8578898417F9
:1046E0009507A607B70709F488C0481759076A074E
:1046F0007B0724F40197A109B10903C00196A11D0C
:10470000B11D898B9A8BAB8BBC8B86DB6D8B7E8BC3
:104710008F8B988F89899A89803222E092070CF0DA
:104720003BC097FD06C0853B91052CF084EB90E0E3
:1047300002C080E090E02B854701821A910827FD96
:104740009394D401AA0FBB1FAA0FBB1F4D01BB0F2F
:10475000AA08BB082C85A601421B510927FD5395C9
:104760009A01220F331F220F331FA901330F660B4B
:10477000770B9A01AB01281939094A095B09DC0159
:10478000FAD324EB30E040E050E0CFD3DA01C901A6
:10479000880D991DAA1DBB1D2A85203370F53B8508
:1047A000A701431B510937FD5395440F551F440F73
:1047B000551F841795077CF03C85B601631B710972
:1047C00037FD7395660F771F660F771FAC0168176B
:1047D00079070CF4AB01CA010297880F991F4FB7F4
:1047E000F89430E0F901EE0FFF1F2E0F3F1FF90183
:1047F000E355F74F928381834FBF0F5F1F4F6B9637
:104800005FCF0E94851179CCF60181936F010F5F14
:104810001F4FADCC81E080934E0818C0FDDA0091A7
:1048200048081091490820914A0830914B08DC0152
:10483000CB01801B910BA20BB30B803A9B4BAD407D
:10484000B10508F039CD10924E0880E00E94CA18D8
:1048500033CDCF92DF92EF92FF920F931F93CF93BE
:10486000DF931092F3131092F21388EE93E0A0E01E
:10487000B0E08093F4139093F513A093F613B093E4
:10488000F7132CE333E03093F1132093F01325EC6E
:1048900030E03093FD132093FC1324EC30E0309390
:1048A000FF132093FE1320EC30E03093011420938B
:1048B000001421EC30E0309303142093021422EC16
:1048C00030E0309305142093041426EC30E030934C
:1048D0000714209306141092091410920A141092CF
:1048E0000B1410920C141092A2081092A10880933D
:1048F000A3089093A408A093A508B093A6088AE5FE
:1049000093E09093A00880939F0884E690E09093B2
:10491000AC088093AB08109264151092631580EF79
:1049200093E190935F1580935E15109295148CE23D
:10493000809361158BE3809360158FE280936215FD
:1049400080E6809390148FE58093911410928F14D9
:1049500010925A151092591510925C1510925B1511
:1049600081E080935715E5E6F5E11192119225E17A
:10497000E93CF207D1F710929414C0EAD3E100EFBA
:1049800013E161E0CE010E94911722960C171D07DA
:10499000C1F7C8E4D1E170EAE72E73E1F72E11E028
:1049A000ECE7CE2EE3E0DE2E1A83D982C8821B8389
:1049B00033DA6C837D838E839F8360E08A8193D911
:1049C00061E08A8162D92C96EC16FD0669F7109297
:1049D0003A1110923E111092421110924611E8E5E0
:1049E000FAE088E391E127E4DF011396ED01322F2D
:1049F00019923A95E9F71282E85AFF4F8E179F07EE
:104A000099F780913D09AAE4B9E09FEF48EB5BE09C
:104A1000803388F41A968C931A97282F30E0F90186
:104A2000EE0FFF1F2E0F3F1FF901E355F74F528383
:104A300041838F5F03C01A969C931A975B96CAE0D6
:104A4000A835BC0729F780933D09109240091092C0
:104A50004609DF91CF911F910F91FF90EF90DF906A
:104A6000CF9008958F929F92AF92BF92CF92DF9294
:104A7000EF92FF92CF93DF93EC01688179818A8175
:104A80009B81611571058105910521F464E279ED41
:104A90008BE597E02DE133EF41E050E046D249014C
:104AA0005A019B01AC01A7EAB1E45BD26B017C0126
:104AB000ACEEB4EFA501940160D2DC01CB018C0D0A
:104AC0009D1DAE1DBF1DB7FF03C00197A109B048D2
:104AD00088839983AA83BB83BC01CD019F77DF9133
:104AE000CF91FF90EF90DF90CF90BF90AF909F90CD
:104AF0008F9008958F929F92AF92BF92CF92DF9244
:104B0000EF92FF9260914F0270915002809151029A
:104B100090915202611571058105910521F464E2BD
:104B200079ED8BE597E02DE133EF41E050E0FDD1E9
:104B300049015A019B01AC01A7EAB1E412D26B0111
:104B40007C01ACEEB4EFA501940117D2DC01CB01DE
:104B50008C0D9D1DAE1DBF1DB7FF03C00197A109A0
:104B6000B04880934F0290935002A0935102B093AB
:104B70005202BC01CD019F77FF90EF90DF90CF9064
:104B8000BF90AF909F908F90089560934F02709365
:104B9000500280935102909352020895FC0188279D
:104BA0009927E89421912032E9F3293010F02E3032
:104BB000C8F32B3239F02D3231F4689403C06DD034
:104BC000820F911D219120532A30C8F31EF4909535
:104BD00081959F4F08951F93FC0199278827BC0159
:104BE000E89411911032E9F3193010F01E30C8F337
:104BF0001B3249F01D3241F4689405C039D0610F71
:104C0000711D811D911D119110531A30B8F33EF49E
:104C100090958095709561957F4F8F4F9F4F1F9115
:104C20000895FA01A191B081009719F41097E1F06D
:104C3000CD01DC01CD010D90002011F4C00113C0A5
:104C4000FB012191222319F02015D9F7F3CFFB01A5
:104C50002191201519F41E92119606C02223C1F746
:104C60000D900020A1F7D001FA01A193B08308951F
:104C7000592F482F372F262F660F771F881F991F10
:104C8000660F771F881F991F620F731F841F951F60
:104C9000660F771F881F991F08957AE0979F902DC0
:104CA000879F802D910D1124089540D008F481E054
:104CB0000895E89409C097FB3EF49095809570950F
:104CC00061957F4F8F4F9F4F9923A9F0F92F96E958
:104CD000BB279395F695879577956795B795F111CD
:104CE000F8CFFAF4BB0F11F460FF1BC06F5F7F4F6A
:104CF0008F4F9F4F16C0882311F096E911C077237C
:104D000021F09EE8872F762F05C0662371F096E884
:104D1000862F70E060E02AF09A95660F771F881F53
:104D2000DAF7880F9695879597F90895990F0008F7
:104D3000550FAA0BE0E8FEEF16161706E807F9076D
:104D4000C0F012161306E407F50798F0621B730B08
:104D5000840B950B39F40A2661F0232B242B252B89
:104D600021F408950A2609F4A140A6958FEF811D2C
:104D7000811D08950BD078C069D028F06ED018F04E
:104D8000952309F05AC05FC01124A2C07ED0A0F3C1
:104D9000959FD1F3950F50E0551F629FF001729FD0
:104DA000BB27F00DB11D639FAA27F00DB11DAA1FEF
:104DB000649F6627B00DA11D661F829F2227B00D3C
:104DC000A11D621F739FB00DA11D621F839FA00DC7
:104DD000611D221F749F3327A00D611D231F849F17
:104DE000600D211D822F762F6A2F11249F5750406E
:104DF0008AF0E1F088234AF0EE0FFF1FBB1F661F09
:104E0000771F881F91505040A9F79E3F510570F0C1
:104E100014C05EC05F3FECF3983EDCF38695779557
:104E20006795B795F795E7959F5FC1F7FE2B880FBC
:104E3000911D9695879597F9089597F99F6780E852
:104E400070E060E008959FEF80EC089500240A94DC
:104E50001616170618060906089500240A94121655
:104E60001306140605060895092E0394000C11F488
:104E7000882352F0BB0F40F4BF2B11F460FF04C035
:104E80006F5F7F4F8F4F9F4F089557FD9058440F8E
:104E9000551F59F05F3F71F04795880F97FB991F99
:104EA00061F09F3F79F08795089512161306140656
:104EB000551FF2CF4695F1DF08C0161617061806E3
:104EC000991FF1CF86957105610508940895E894BE
:104ED000BB2766277727CB0197F90895DC01CB0123
:104EE000FC01F999FECF06C0F2BDE1BDF89A3196FA
:104EF00000B40D9241505040B8F70895DC01CB0149
:104F000002C02D9105D041505040D8F70895262F6A
:104F1000F999FECF1FBA92BD81BD20BD0FB6F8949E
:104F2000FA9AF99A0FBE01960895052E97FB16F48A
:104F300000940FD057FD05D024D007FC02D046F4D2
:104F400008C050954095309521953F4F4F4F5F4F8A
:104F5000089590958095709561957F4F8F4F9F4FE5
:104F6000089531D0A59F900DB49F900DA49F800D02
:104F7000911D11240895B7FFF4CFF3DF821B930B2B
:104F80000895A1E21A2EAA1BBB1BFD010DC0AA1F8A
:104F9000BB1FEE1FFF1FA217B307E407F50720F0A2
:104FA000A21BB30BE40BF50B661F771F881F991F1D
:104FB0001A9469F760957095809590959B01AC0166
:104FC000BD01CF010895A29FB001B39FC001A39F6F
:104FD000700D811D1124911DB29F700D811D112432
:104FE000911D08955058BB27AA270ED03DCF2EDF24
:104FF00030F033DF20F031F49F3F11F41EF423CF63
:105000000EF4E095E7FB19CFE92F3FDF80F3BA17E5
:10501000620773078407950718F071F49EF557CF60
:105020000EF4E0950B2EBA2FA02D0B01B9019001C3
:105030000C01CA01A0011124FF27591B99F0593F07
:1050400050F4503E68F11A16F040A22F232F342F4F
:105050004427585FF3CF469537952795A795F0409D
:105060005395C9F77EF41F16BA0B620B730B840BB2
:10507000BAF09150A1F0FF0FBB1F661F771F881F6A
:10508000C2F70EC0BA0F621F731F841F48F48795C2
:1050900077956795B795F7959E3F08F0B3CF9395B1
:1050A000880F08F09927EE0F9795879508950CD0F3
:1050B000DBCED3DE40F0CADE30F021F45F3F19F0E2
:1050C000BCCE511105CFBFCEE0DE98F39923C9F3D2
:1050D0005523B1F3951B550BBB27AA2762177307FE
:1050E000840738F09F5F5F4F220F331F441FAA1FB2
:1050F000A9F333D00E2E3AF0E0E830D09150504072
:10510000E695001CCAF729D0FE2F27D0660F771F1F
:10511000881FBB1F261737074807AB07B0E809F001
:10512000BB0B802DBF01FF2793585F4F2AF09E3F96
:10513000510568F082CECCCE5F3FECF3983EDCF3B5
:10514000869577956795B795F7959F5FC9F7880F0F
:10515000911D9695879597F90895E1E0660F771F61
:10516000881FBB1F621773078407BA0720F0621BF2
:10517000730B840BBA0BEE1F88F7E095089504D0EB
:105180006894B111A5CE089588DE88F09F5790F0FD
:10519000B92F9927B751A0F0D1F0660F771F881F5C
:1051A000991F1AF0BA95C9F712C0B13081F08FDE9D
:1051B000B1E008958CCE672F782F8827B85F39F03B
:1051C000B93FCCF3869577956795B395D9F73EF4BB
:1051D00090958095709561957F4F8F4F9F4F089563
:1051E000A5DD08F48FEF0895DB018F939F93B9DE5F
:1051F000BF91AF91A29F800D911DA39F900DB29F73
:10520000900D11240895991B79E004C0991F9617F9
:1052100008F0961B881F7A95C9F780950895EE0FC0
:10522000FF1F881F8BBF0790F691E02D19940F93F5
:105230001F93CF93DF938230910510F482E090E0CA
:10524000E091D415F091D51520E030E0A0E0B0E079
:10525000309719F140815181028113814817590714
:10526000C8F08417950769F4109731F012960C93E3
:10527000129713961C9327C00093D4151093D5153D
:1052800022C02115310519F04217530718F49A016D
:10529000BD01EF01DF01F801DBCF21153105F9F088
:1052A000281B390B2430310580F48A819B816115DC
:1052B000710521F0FB019383828304C09093D5157F
:1052C0008093D415FE01329644C0FE01E20FF31F15
:1052D0008193919322503109398328833AC02091D8
:1052E000D2153091D315232B41F4209155023091E2
:1052F00056023093D3152093D2152091530230914A
:1053000054022115310541F42DB73EB740915702A3
:1053100050915802241B350BE091D215F091D31512
:10532000E217F307A0F42E1B3F0B2817390778F07C
:10533000AC014E5F5F4F2417350748F04E0F5F1FDB
:105340005093D3154093D2158193919302C0E0E01E
:10535000F0E0CF01DF91CF911F910F910895CF938E
:10536000DF93009709F481C0FC0132971382128207
:10537000A091D415B091D515109781F42081318179
:10538000820F931F2091D2153091D315281739071A
:1053900051F5F093D315E093D21567C0ED0120E0ED
:1053A00030E0CE17DF0740F44A815B819E01411552
:1053B0005105F1F0EA01F5CFD383C28340815181D9
:1053C000840F951FC817D90759F488819981840FD4
:1053D000951F0296918380838A819B819383828328
:1053E0002115310529F4F093D515E093D4153DC06E
:1053F000E901FB83EA8349915991C40FD51FEC174A
:10540000FD0761F480819181840F951F0296E90167
:1054100099838883828193819B838A83E0E0F0E093
:1054200012968D919C911397009719F0FD01DC0164
:10543000F7CF8D919C9111979D012E5F3F4F820F69
:10544000931F2091D2153091D3152817390769F48D
:10545000309729F41092D5151092D41502C01382FA
:105460001282B093D315A093D215DF91CF910895F6
:105470006F927F928F929F92AF92BF92CF92DF9264
:10548000EF92FF920F931F93CF93DF93009781F4D6
:10549000CB01DF91CF911F910F91FF90EF90DF90A3
:1054A000CF90BF90AF909F908F907F906F90BFCE26
:1054B000FC01E60FF71F9C0122503109E217F307A8
:1054C00008F4A5C0EC01D9010D911C9111970617A4
:1054D0001707A8F00530110508F497C0C801049714
:1054E0008617970708F491C002501109061B170B85
:1054F000019311936D937C93CF0131DF86C05B01E3
:10550000A01AB10A4C01800E911EA091D415B09141
:10551000D515612C712CE12CF12C109709F446C0A3
:105520008D919C911197A815B905B1F56C0142E0D8
:10553000C40ED11CCA14DB0478F14C018A189B08F4
:10554000640142E0C40ED11C1296BC9012971396CF
:10555000AC91B5E0CB16D10440F0B282A383918226
:105560008082D9016D937C9309C00E5F1F4F800F1D
:10557000911FF90191838083EB2DFA2FE114F1043F
:1055800031F0D7011396FC93EE9312973EC0F0933F
:10559000D515E093D41539C06816790608F43C0196
:1055A0007D0112960D90BC91A02DB7CF8091D215A0
:1055B0009091D31588169906E1F466167706C8F41B
:1055C0008091530290915402009741F48DB79EB799
:1055D0004091570250915802841B950BE817F90728
:1055E000B0F4F093D315E093D215F9017183608381
:1055F0000CC0CB011CDE7C01009749F0A801BE0164
:105600001BD0CE01ACDEC70104C0CE0102C080E0D9
:1056100090E0DF91CF911F910F91FF90EF90DF907D
:10562000CF90BF90AF909F908F907F906F90089594
:1056300081E090E0F894FAC2FB01DC0102C0019025
:105640000D9241505040D8F70895FB01DC010190C4
:105650000D920020E1F70895FB01DC01415050401C
:1056600048F001900D920020C9F701C01D924150F1
:105670005040E0F708950F931F93CF93DF93CDB77A
:10568000DEB72E970FB6F894DEBF0FBECDBF0E89E2
:105690001F8986E08C831A8309838FEF9FE79E839F
:1056A0008D83AE01465E5F4F688D798DCE01019688
:1056B00010D0EF81F885E00FF11F10822E960FB603
:1056C000F894DEBF0FBECDBFDF91CF911F910F9138
:1056D00008952F923F924F925F926F927F928F9296
:1056E0009F92AF92BF92CF92DF92EF92FF920F9371
:1056F0001F93CF93DF93CDB7DEB72B970FB6F894F8
:10570000DEBF0FBECDBF6C017B018A01FC01178299
:105710001682838181FFBFC1CE0101963C01F60153
:105720009381F70193FD859193FF81917F018823F8
:1057300009F4ADC1853239F493FD859193FF8191D0
:105740007F01853221F4B60190E0D6D1E8CF912CCB
:10575000212C312CFFE1F315D8F08B3279F038F49D
:10576000803279F08332A1F4232D20611DC08D3267
:1057700061F0803369F4232D216016C0832D82608F
:10578000382EE32DE4603E2E2AC0F32DF8601DC0B4
:1057900037FC2DC020ED280F2A3040F08E32B9F4AE
:1057A00036FC75C1232D2064322E19C036FE06C08A
:1057B0008AE0989E200D1124922E11C0EAE02E9EC0
:1057C000200D1124222EF32DF0623F2E08C08C36BE
:1057D00021F4832D8068382E02C0883641F4F70109
:1057E00093FD859193FF81917F018111B3CF982F14
:1057F0009F7D9554933028F40C5F1F4F9FE399834E
:105800000DC0833631F0833771F0833509F055C010
:1058100020C0F801808189830E5F1F4F8824839404
:10582000912C530112C02801F2E04F0E511CF801D7
:10583000A080B18036FE03C0692D70E002C06FEF1A
:105840007FEFC5014ED14C018201F32DFF773F2E32
:1058500015C0280122E0420E511CF801A080B18041
:1058600036FE03C0692D70E002C06FEF7FEFC50107
:105870002DD14C01F32DF0683F2E820133FC19C06D
:10588000822D90E088169906A0F4B60180E290E09F
:1058900033D12A94F5CFF50137FC859137FE8191FC
:1058A0005F01B60190E028D121102A9421E0821AEC
:1058B00091088114910479F7E1C0843611F089369A
:1058C00039F5F80137FE07C06081718182819381CB
:1058D0000C5F1F4F08C060817181072E000C880B80
:1058E000990B0E5F1F4FF32DFF763F2E97FF09C0D8
:1058F00090958095709561957F4F8F4F9F4FF06881
:105900003F2E2AE030E0A30133D1882E861844C010
:10591000853731F4232D2F7EB22E2AE030E025C0CA
:10592000932D997FB92E8F36C1F018F4883579F010
:10593000AEC0803719F0883721F0A9C0E92FE061A7
:10594000BE2EB4FE0DC0FB2DF460BF2E09C034FE88
:105950000AC0292F2660B22E06C028E030E005C01C
:1059600020E130E002C020E132E0F801B7FE07C0DC
:1059700060817181828193810C5F1F4F06C06081BD
:10598000718180E090E00E5F1F4FA301F1D0882E5F
:105990008618FB2DFF773F2E36FE0DC0232D2E7F60
:1059A000A22E891458F434FE0BC032FC09C0832D9A
:1059B0008E7EA82E05C0B82CA32C03C0B82C01C025
:1059C000B92CA4FE0FC0FE01E80DF11D80818033CB
:1059D00021F49A2D997EA92E09C0A2FE06C0B39487
:1059E000B39404C08A2D867809F0B394A3FC10C048
:1059F000A0FE06C0B21480F4280C922C9B180DC097
:105A0000B21458F4B60180E290E076D0B394F8CFA7
:105A1000B21418F42B1802C0982C212CA4FE0FC02D
:105A2000B60180E390E068D0A2FE16C0A1FC03C0DE
:105A300088E790E002C088E590E0B6010CC08A2DAE
:105A4000867851F0A1FE02C08BE201C080E2A7FC83
:105A50008DE2B60190E050D0891430F4B60180E3B5
:105A600090E04AD09A94F8CF8A94F301E80DF11DA2
:105A70008081B60190E040D08110F6CF222009F459
:105A80004ECEB60180E290E037D02A94F7CFF601EF
:105A90008681978102C08FEF9FEF2B960FB6F89407
:105AA000DEBF0FBECDBFDF91CF911F910F91FF9051
:105AB000EF90DF90CF90BF90AF909F908F907F90AE
:105AC0006F905F904F903F902F900895FC0105904C
:105AD000615070400110D8F7809590958E0F9F1FF0
