:100000000C947D010C94A5010C94A5010C94A50100
:100010000C94A5010C94A5010C94A5010C94A501C8
:100020000C94A5010C94A5010C94A5010C94351E0B
:100030000C94A5010C94A5010C94A5010C94A501A8
:100040000C94661C0C94A5010C94D61C0C94B01C4A
:100050000C94A5010C94A5010C94A5010C94A50188
:100060000C94161D0C94A5016E2F61004F4B004F90
:100070004B004F4B00427574746F6E20646F657354
:10008000206E6F742066697420696E204D656D6FF7
:100090007279004F757470757420646F6573206E8B
:1000A0006F742066697420696E204D656D6F72797A
:1000B00000375365676D656E7420646F6573206EDD
:1000C0006F742066697420696E204D656D6F72795A
:1000D0002100536572766F20646F6573206E6F74B4
:1000E0002066697420696E204D656D6F72792100FC
:1000F0004C434420646F6573206E6F74206669748E
:1001000020696E204D656D6F72792100416E616CC2
:100110006F67496E20646F6573206E6F7420666927
:100120007420696E204D656D6F7279004F75747023
:1001300075745368696674657220646F6573206EA8
:100140006F742066697420696E204D656D6F7279D9
:1001500000496E7075745368696674657220646FC7
:100160006573206E6F742066697420696E204D651A
:100170006D6F7279004661696C757265206F6E20D3
:1001800072656164696E6720636F6E6669670045BA
:100190006E636F6465727320646F6573206E6F7435
:1001A0002066697420696E204D656D6F7279007EDE
:1001B000306D79335B5F707F7B771F0D3D4F47005C
:1001C000000000000000000000000000000000002F
:1001D0000000000000000000000000800180257E7B
:1001E000306D79335B5F707F7B0000000900000099
:1001F000777F4E7E4F475F37307C000E00767E67FC
:100200007E775B463E000000336D4E137800080099
:100210007D1F0D3D4F477B373038000600151D67A9
:1002200073055B0F1C000000276D4E007800004D29
:10023000465374657070657220646F6573206E6FCD
:10024000742066697420696E204D656D6F72790047
:100250005374657070657220646F6573206E6F747F
:100260002066697420696E204D656D6F727921007A
:10027000446576696365427566666572204F76658A
:1002800072666C6F7721004C6F6164696E672063E2
:100290006F6E666967206661696C656400000000C6
:1002A00000240027002A0000000000250028002B61
:1002B00000000000002300260029000404040404B8
:1002C0000404040202020202020303030303030103
:1002D00002040810204080010204081020010204DA
:1002E00008102000000008000201000003040700BD
:1002F0000000000000000000F11E11241FBECFEF1F
:10030000D8E0DEBFCDBF11E0A0E0B1E0E0EEFBE55C
:1003100002C005900D92A83FB107D9F727E0A8EFDA
:10032000B1E001C01D92A03BB207E1F711E0CDE7BB
:10033000D1E004C02197FE010E94D229CC37D10719
:10034000C9F70E947E1F0C94EE2D0C940000AC01A6
:1003500010929F0690916F0780916E07FA01BF017E
:10036000641B750B20919F06308130939F06931379
:1003700004C0921302C010929F063081311104C054
:10038000921721F0CB0108953817D1F33196E7CFBA
:100390000F931F93CF93DF9380916307882309F412
:1003A00046C0D0E0C0E0813029F482E0809363074A
:1003B000C3EAD6E080916407882341F1209721F4B5
:1003C000C0916807D09169078E01CE010E94A701F4
:1003D000892B29F42196F80180818111F5CFF8014C
:1003E0008081882309F1C8010E94A701F801E80F64
:1003F000F91F8081882311F010823196F0936907EC
:10040000E09368071093670700936607809166077B
:1004100090916707892B59F081E080936407DF9101
:10042000CF911F910F91089510E000E0EBCF80E095
:10043000F6CF0E94C801882351F081E080936407C1
:1004400080936507809166079091670708951092E1
:10045000650790E080E00895833081F028F48130D2
:1004600099F08230A9F008958730A9F08830C9F05A
:100470008430B1F4809180008F7D03C08091800032
:100480008F7780938000089584B58F7784BD089519
:1004900084B58F7DFBCF8091B0008F778093B000C3
:1004A00008958091B0008F7DF9CFCF93DF93282FEF
:1004B00030E0F901ED51FD4F8491F901E153FD4F19
:1004C000D491F901E554FD4FC491CC23A1F08111E1
:1004D0000E942C02EC2FF0E0EE0FFF1FEF54FD4FB7
:1004E000A591B491EC91ED2381E090E009F480E0D6
:1004F000DF91CF91089580E090E0FACF1F93CF93E2
:10050000DF93282F30E0F901ED51FD4F8491F9017F
:10051000E153FD4FD491F901E554FD4FC491CC2333
:10052000A9F0162F81110E942C02EC2FF0E0EE0FA3
:10053000FF1FE955FD4FA591B4918FB7F894EC9149
:10054000111108C0D095DE23DC938FBFDF91CF91CE
:100550001F910895DE2BF8CFCF93DF9390E0FC013D
:10056000E153FD4F249185549D4FFC0184918823D4
:10057000C9F090E0880F991FFC01E356FD4FA5914B
:10058000B491FC01E955FD4FC591D49161110DC0A5
:100590009FB7F8948C91209582238C93888128238F
:1005A00028839FBFDF91CF910895623051F49FB7A8
:1005B000F8943C91822F809583238C93E8812E2B95
:1005C000EFCF8FB7F894EC912E2B2C938FBFEACFFF
:1005D0001F93CF93DF93182FEB0161E00E94AC02D1
:1005E000209739F460E0812FDF91CF911F910C9417
:1005F0007E02CF3FD10511F461E0F5CFE12FF0E0AD
:10060000ED51FD4FE491E33031F140F4E130B1F0D0
:10061000E230E1F0C038D1057CF7E4CFE73029F1D2
:10062000E83059F1E430B1F7809180008062809326
:100630008000D0938B00C0938A0004C084B580688A
:1006400084BDC7BDDF91CF911F91089584B58062AD
:1006500084BDC8BDF7CF8091800080688093800002
:10066000D0938900C0938800EDCF8091B00080685E
:100670008093B000C093B300E5CF8091B00080625A
:100680008093B000C093B400DDCF8E3008F08E5060
:100690008770806480937C0080917A00806480936E
:1006A0007A0080917A0086FDFCCF8091780090914D
:1006B000790008953FB7F89480915D0490915E04AD
:1006C000A0915F04B091600426B5A89B05C02F3FA0
:1006D00019F00196A11DB11D3FBFBA2FA92F982F68
:1006E0008827BC01CD01620F711D811D911D42E063
:1006F000660F771F881F991F4A95D1F708952FB766
:10070000F8946091590470915A0480915B0490911F
:100710005C042FBF0895DC01ED91FC910190F08104
:10072000E02D0994AF92BF92CF92DF92EF92FF92A9
:100730000F931F93CF93DF936C017B018B01040F09
:10074000151FEB015E01AE18BF08C017D10759F0A5
:100750006991D601ED91FC910190F081E02DC601E7
:100760000995892B79F7C501DF91CF911F910F91E1
:10077000FF90EF90DF90CF90BF90AF900895FC0175
:10078000538D448D252F30E0842F90E0821B930BF6
:10079000541710F0CF96089501970895FC01918D9C
:1007A000828D981779F0A28DAE0FBF2FB11D5D9687
:1007B0002C91828D8F5F60E60E94B229928F822FEA
:1007C00090E008958FEF9FEF0895FC01918D828D49
:1007D000981731F0828DE80FF11D858D90E0089516
:1007E0008FEF9FEF0895FC01918D228D892F90E06E
:1007F000805A9F4F821B910960E670E00E94BE29DB
:1008000008958DED95E00E94F30321E0892B09F412
:1008100020E0822F089580E090E0892B29F00E944B
:10082000010481110C9400000895FC01A48DA80F0F
:10083000B92FB11DA358BF4F2C91848D90E0019624
:100840008F739927848FA689B7892C93A089B18942
:100850008C91837080648C93938D848D981306C0E3
:100860000288F389E02D80818F7D80830895EF9247
:10087000FF920F931F93CF93DF93EC0181E0888F5A
:100880009B8D8C8D98131AC0E889F989808185FF2A
:1008900015C09FB7F894EE89FF896083E889F989CC
:1008A00080818370806480839FBF81E090E0DF91CE
:1008B000CF911F910F91FF90EF900895F62E0B8D21
:1008C00010E00F5F1F4F0F731127E02E8C8D8E11DC
:1008D0000CC00FB607FCFACFE889F989808185FF43
:1008E000F5CFCE010E941504F1CFEB8DEC0FFD2F5B
:1008F000F11DE358FF4FF0829FB7F8940B8FEA8900
:10090000FB8980818062CFCFCF93DF93EC01888D0C
:100910008823B9F0AA89BB89E889F9898C9185FD7A
:1009200003C0808186FD0DC00FB607FCF7CF8C9108
:1009300085FFF2CF808185FFEDCFCE010E941504A7
:10094000E9CFDF91CF910895089520917E03260F7E
:100950003327331F21323105ECF420918704FC0149
:1009600090E080E0243069F082E00895A0917E0359
:100970002191AC01445A5C4FA40FB52FB11D2C93AB
:100980000196861798F380917E03680F60937E032B
:1009900080E0089581E008951092870481E08093BB
:1009A00086041092610461E082E10E947E0261E0AF
:1009B00083E10E947E02E9EBF0E080818E7F8083FC
:1009C00080818D7F808388E48093B80085E4809364
:1009D000BC000895CF93DF9391E090935B0388234D
:1009E000B9F0C091B800D091BA008091BC008A7B68
:1009F0008093BC0060E082E10E947E0260E083E1BF
:100A00000E947E020E94CC04D093BA00C093B8002A
:100A1000DF91CF9108958F929F92AF92BF92CF9224
:100A2000DF92EF92FF920F931F93CF93DF93D091BA
:100A3000B004D13208F0D7C0182FC091AF040E9483
:100A40005A036B017C018091870481116BC082E0A5
:100A500080938704109386048FEF8093850410920F
:100A60008404D0938304AFE8B4E0E3E6F4E080E0EC
:100A7000D81391C01092620480916204CC0FC82BED
:100A8000C093620480916104813009F088C01092A3
:100A900061040E945A036B017C018091620480937F
:100AA000BB008091890490918A04A0918B04B0913D
:100AB0008C04892B8A2B8B2BA1F00E945A03009166
:100AC000890410918A0420918B0430918C046C1954
:100AD0007D098E099F09061717072807390708F4AB
:100AE00042C08091BC0083FDD8CF85EC8093BC00D0
:100AF0000E945A036B017C0180918704823009F4C3
:100B000050C0809185048F3F09F46FC080918504A7
:100B1000803209F46CC080918504803309F469C087
:100B200084E026C08091890490918A04A0918B046E
:100B3000B0918C04892B8A2B8B2B09F484CF0E94D3
:100B40005A038090890490908A04A0908B04B090FE
:100B50008C046C197D098E099F0986169706A806D4
:100B6000B90608F070CF809188040E94EA0485E0FD
:100B700010928E041092B00410928D04DF91CF91E8
:100B80001F910F91FF90EF90DF90CF90BF90AF90AB
:100B90009F908F9008959D9191938F5F69CF85EE7F
:100BA000A5CF8091890490918A04A0918B04B09183
:100BB0008C04892B8A2B8B2B09F49ECF0E945A031D
:100BC0000091890410918A0420918B0430918C0447
:100BD0006C197D098E099F09061717072807390721
:100BE00008F08ACFC0CF81E0C3CF80E0C1CF82E0E0
:100BF000BFCF83E0BDCF81E00C940B05089508952D
:100C00000895E0915A0380915903E81730F4F0E019
:100C1000E75CFC4F808190E008958FEF9FEF08958F
:100C200090915A03809159032FEF3FEF981748F4A2
:100C3000E92FF0E0E75CFC4F208130E09F5F90936C
:100C40005A03C90108958091590390915A03891B51
:100C5000990B0895CF92DF92EF92FF920F931F931B
:100C6000CF93DF937C01CB018A0120918D04222355
:100C700089F0EB016B01C40ED51ECC15DD0569F0C2
:100C80006991D701ED91FC910190F081E02DC701B0
:100C90000995F3CF642F0E94A504C801DF91CF917D
:100CA0001F910F91FF90EF90DF90CF900895CF9319
:100CB000DF931F92CDB7DEB7698320918D04222385
:100CC000F9F02091B004203258F021E030E0FC012E
:100CD0003383228390E080E00F90DF91CF910895DD
:100CE00080918E04E82FF0E0E157FB4F99819083CB
:100CF0008F5F80938E048093B00481E090E0ECCF0E
:100D000061E0CE0101960E94A504F7CFCF93C82FD2
:100D1000682F64608FEC95E00E9457066C2F70E09E
:100D20006B7F8FEC95E0CF910C9457060F931F9338
:100D3000CF93DF938C01C62FD42FFC01848191E0E7
:100D400090938D048093AF0410928E041092B0049F
:100D5000862F807F842B9585892B0E948606F0E163
:100D6000CF9FC0011124F8019585892B8D2B0E94FE
:100D70008606DF91CF911F910F910C94FB05CF93C5
:100D8000DF93CDB7DEB728970FB6F894DEBF0FBE5E
:100D9000CDBF28E0EFE3F1E0DE01119601900D9266
:100DA0002A95E1F7FC012385241710F44FEF420F39
:100DB00050E0440F551F21E030E02C0F3D1F420F43
:100DC000531FFA012081620F606840E028960FB639
:100DD000F894DEBF0FBECDBFDF91CF910C94960685
:100DE000CF93DF93EC0140E061E00E9496068BE335
:100DF0009FE10197F1F78985882339F040E060E0B1
:100E0000CE01DF91CF910C94BF06DF91CF91089571
:100E100041E00E94960681E090E00895FC01248163
:100E200031E030938D042093AF0410928E04109221
:100E3000B004607F8585862B0E9486060C94FB0596
:100E4000AF92BF92CF92DF92EF92FF920F931F93D8
:100E5000CF93DF936C01FC01848191E090938D042A
:100E60008093AF0410928E041092B004EB01042F13
:100E700010E05B01A00EB11EF12CEE24E394CA1524
:100E8000DB0541F18991F60195859160807F892B81
:100E90000E948606FE0131972081F0E12F02900129
:100EA0001124F60185858160822B0E948606F394C9
:100EB000F7E0FF1520F780E00E940B05F601848122
:100EC000E0928D048093AF0410928E041092B004CF
:100ED000F12CD5CF0E94FB05C8010197DF91CF917E
:100EE0001F910F91FF90EF90DF90CF90BF90AF9048
:100EF000089590E080E00895CF93DF93FC01238173
:100F0000222359F1EC0161E084810E94AC0261E08E
:100F10008D810E94AC028B81843011F08830B1F455
:100F200061E08E810E94AC0261E08F810E94AC0280
:100F30008FA58F3F91F061E00E94AC026EA581E029
:100F400068278FA5DF91CF910C947E02833011F03A
:100F5000863071F761E08E81E9CFDF91CF910895FE
:100F6000CF93DF93FC0123812223A9F0EC010190B0
:100F7000F081E02D0480F581E02D60E009958FA5DA
:100F80008F3F49F061E00E94AC026EA58FA5DF9112
:100F9000CF910C947E02DF91CF910895DC01ED9109
:100FA000FC9124813581477055276627772741506A
:100FB000510961097109473051056105710560F4F6
:100FC000FA01EB51F84F0C94D229EF07F107F30720
:100FD000F507F707F907FB0761E0F901099465E0F8
:100FE000FCCF64E0FACF66E0F8CF62E0F6CF6AE0CB
:100FF000F4CF68E0F2CF69E0F0CFCF93DF93EC015C
:10100000CB01BA0126E030E040E050E00E94082920
:10101000623071058105910589F16CF461157105E6
:1010200081059105D1F06130710581059105F9F0D7
:10103000DF91CF910895643071058105910561F1CB
:1010400024F1653071058105910591F7E881F981F9
:101050000480F581E02D66E006C0E881F981048016
:10106000F581E02D64E0CE01DF91CF910994E88114
:10107000F9810480F581E02D65E0F5CFE881F98103
:101080000480F581E02D61E0EECFE881F9810480F4
:10109000F581E02D63E0E7CFE881F9810480F581F7
:1010A000E02D62E0E0CFDC01ED91FC910480F58160
:1010B000E02D43705527662777274230510561059B
:1010C000710571F0433051056105710559F04130EA
:1010D00051056105710511F065E0099466E0FDCFE9
:1010E0006AE0FBCF69E0F9CFCF93DF93EC01CB014E
:1010F000BA0123E030E040E050E00E94082961306E
:1011000071058105910599F06230710581059105A0
:10111000A9F0672B682B692BC1F4E881F981048061
:10112000F581E02D64E0CE01DF91CF910994E88153
:10113000F9810480F581E02D61E0F5CFE881F98146
:101140000480F581E02D62E0EECFDF91CF9108952C
:10115000DC01ED91FC910480F581E02D4370552771
:1011600066277727423051056105710571F04330DC
:1011700051056105710559F0413051056105710551
:1011800011F062E0099463E0FDCF61E0FBCF60E025
:10119000F9CFCF93DF93EC01E881F9810480F581E9
:1011A000E02D8A8160E0811162E0CE010995E8813D
:1011B000F9810480F581E02D8A8161E0811163E08D
:1011C000CE0109958CA59DA58230910538F0880F38
:1011D000991F880F991F05970197F1F7E881F98109
:1011E0000480F581E02D8A8160E0811162E0CE010A
:1011F000DF91CF910994CF93DF93EC0120E030E0B1
:10120000A9016C897D898E899F890E94ED2A181613
:101210002CF4E8A9F9A9DF91CF910994EAA9FBA9D7
:10122000FACFCF92DF92EF92FF920F931F93CF935B
:10123000DF93DC011396CC91C43039F0C83059F1FA
:10124000C33019F0C63049F1C2E08C010C5F1F4F6A
:10125000F12CE12CC62ED12CD1E0F8016481C6011D
:101260000E2C02C0959587950A94E2F780FD6D27B4
:101270000F5F1F4F80810E947E02BFEFEB1AFB0AB7
:10128000EC1658F3DF91CF911F910F91FF90EF90E3
:10129000DF90CF900895C4E0D8CFC3E0D6CFDC0173
:1012A0001396EC911397E93008F038C0F0E0E55A56
:1012B000F64F0C94D22964096A09700976097C09F1
:1012C0008E0982098E098809ED91FC910084F185CF
:1012D000E02D0994ED91FC910284F385E02DF9CF86
:1012E000ED91FC910484F585E02DF3CFED91FC9117
:1012F0000684F785E02DEDCFED91FC910088F18912
:10130000E02DE7CFED91FC910288F389E02DE1CF4C
:10131000ED91FC910488F589E02DDBCF08954F9283
:101320005F926F927F928F929F92AF92BF92CF9275
:10133000DF92EF92FF920F931F93CF93DF93EC0115
:10134000C888D988EA88FB888C859D85AE85BF854D
:10135000C81AD90AEA0AFB0A6C897D898E899F8995
:101360009B01AC010E9434284B015C016C8D7D8D8A
:101370008E8D9F8D9B01AC010E94D9299B01AC01F0
:10138000C501B4010E94452A0E94B72AC114D104A4
:10139000E104F10409F0B1C06230710581059105E5
:1013A0000CF0CBC01CA21DA21EA21FA21C8A1D8A6B
:1013B0001E8A1F8A1CAA1DAA1EAA1FAADF91CF91EE
:1013C0001F910F91FF90EF90DF90CF90BF90AF9063
:1013D0009F908F907F906F905F904F900895101620
:1013E000110612061306B4F46C157D058E059F05D3
:1013F0001CF42A812111A1C09B01AC0188279927E7
:10140000DC01821B930BA40BB50B8CAB9DABAEAB7D
:10141000BFAB93C0011511052105310509F48DC03D
:101420006C157D058E059F050CF087C08A81882389
:1014300009F483C030952095109501951F4F2F4FCB
:101440003F4F0CAB1DAB2EAB3FAB77C00115110569
:101450002105310509F471C08824992454018C18A0
:101460009D08AE08BF08681579058A059B050CF034
:1014700064C08A81811161C0DDCFCCACDDACEEAC43
:10148000FFACA7019601C701B6010E94D9292B0123
:101490003C01C501B4010E94D52720E030E040E8BE
:1014A00050E40E94342820E030E040E85FE30E94EE
:1014B000D9299B01AC01C301B2010E94452A9B01BD
:1014C000AC01C701B6010E94D8293B016C01FE01A5
:1014D000E05CFF4FE080F180028113819701A80159
:1014E0000E94ED2A181614F473018601C701D80171
:1014F0008CAF9DAFAEAFBFAF3AC00CA91DA92EA94E
:101500003FA91C141D041E041F040CF468CF101600
:101510001106120613060CF099CF00271127980127
:101520000C191D092E093F096017710782079307DF
:101530000CF062CF2A8121115FCF8CA89DA8AEA8A4
:10154000BFA881149104A104B10409F096CF88AD1D
:1015500099ADAAADBBAD8CAF9DAFAEAFBFAF81E0D3
:101560001C141D041E041F040CF080E08A833FEF4E
:10157000831A930AA30AB30A8CAA9DAAAEAABFAA89
:10158000CCACDDACEEACFFACC701B6010E94BE2A0C
:101590006CA37DA38EA39FA3A701960160E074E2D4
:1015A00084E799E40E94452A6C8B7D8B8E8B9F8B00
:1015B0002A81211103CF90586C8B7D8B8E8B9F8B52
:1015C000FDCE2091350330913603280F311D81E087
:1015D0002D32314008F080E00895FC018481882399
:1015E000E1F08181811119C081E081838281938141
:1015F000FC014089518962897389403659476E4F91
:101600007F4F59F040E659E76EEF7FEFFC01408BCA
:10161000518B628B738B0C948F090895E091FC01C0
:10162000F091FD01309729F0DC014D915C9181E052
:101630000994089541110BC0E091FC01F091FD0166
:10164000309729F0DC014D915C9180E009940C9475
:101650000E0BDC01E091FA01F091FB01309761F093
:1016600013968C911397882339F04D915C911197C3
:1016700012966C9181E009940895DC01E091FA01E1
:10168000F091FB01309759F013968C9113978111CB
:1016900006C04D915C91119712966C910994089532
:1016A0000E947F036093CA037093CB038093CC03A3
:1016B0009093CD0308952091DB053091DC058217CE
:1016C000930710F40C94F22880E00895EF92FF92B3
:1016D0000F931F93CF93DF938B01040F151FEB0123
:1016E0007C01E61AF70AC7018C0F9D1F0E945B0B55
:1016F0008993C017D107B9F7DF91CF911F910F914F
:10170000FF90EF9008950F931F93CF93DF938C0179
:10171000EB01F801808191819C012F5F3F4F318364
:1017200020830E945B0B28813981A9014F5F5F4FA5
:10173000598348832F543B4FF90180832881398195
:101740002C3D310560F48A3321F720553B4FF901D8
:10175000108281E0DF91CF911F910F91089580E079
:10176000F9CFEF92FF920F931F93CF93DF93EC018A
:10177000E090DB05F090DC05888199818C010F5F9A
:101780001F4F198308830E945B0BE016F10650F08F
:101790008A3391F781E0DF91CF911F910F91FF90F4
:1017A000EF90089580E0F7CFFF920F931F93CF93B0
:1017B000DF93F82E062FC7E0D0E010E061E0802F25
:1017C0000E947E028F2D0E9455020C2E01C0880FB0
:1017D0000A94EAF7182B60E0802F0E947E0221977E
:1017E00068F7812FDF91CF911F910F91FF9008959E
:1017F0004F925F926F927F928F929F92AF92BF9221
:10180000CF92DF92EF92FF920F931F93CF93DF93CC
:101810000BE114E07801D0E0C0E080913F048C1728
:101820001D0641F0F701819191917F010E94290BE2
:101830002196F3CFD0E0C0E080913F048C171D06C5
:1018400071F520EDA22E23E0B22EF12CE12C809137
:10185000D4038E151F0409F476C0F501C191D1910E
:101860005F0161E08B810E947E0261E08A810E94BB
:101870007E028E01095F1F4F4801D12CC12C8D8142
:101880008C151D04A1F09CF06B818C810E94D40BFF
:10189000F40181934F01FFEFCF1ADF0AF0CFF80177
:1018A000819191918F010E943D0B2196C5CF60E0FF
:1018B0008A810E947E024801412CD12CC12C8D814D
:1018C0008C151D04D1F0CCF0F40181914F01512C05
:1018D000682E712C80FF05C0642D650DCE010E941D
:1018E0000E0B75946794862D5394F8E05F12F0CF39
:1018F0008FEFC81AD80A4F0EE2CF612C912C812CA1
:101900008D8188151904D9F0D4F0F80181918F01E7
:10191000712CC82ED12C80FD06C040E0672D660DCD
:10192000CE010E941A0BD594C7948C2D7394F8E0C5
:101930007F12EFCF8FEF881A980A6F0EE1CF9FEFDB
:10194000E91AF90A84CFDF91CF911F910F91FF908F
:10195000EF90DF90CF90BF90AF909F908F907F904F
:101960006F905F904F900C94500B0F931F93CF93F9
:10197000DF93082F162FD42FC8E06D2F661F662720
:10198000661F802F0E947E02DD0F61E0812F0E9482
:101990007E0260E0812F0E947E02C15071F7DF91CC
:1019A000CF911F910F910895EF92FF920F931F9384
:1019B000CF93DF9300D0CDB7DEB78C0149832A8364
:1019C000660F771FF801E688F788EE0CFF1CCF0141
:1019D000801B910B8E159F0514F41192F8CF89810D
:1019E000F801E60FF71F81838A81808360E0F801A8
:1019F00084890E947E021E141F046CF4F1E0EF1A29
:101A0000F108F801EE0DFF1D4081F801628980891F
:101A10000E94B50CF0CF61E0F80184890F900F901F
:101A2000DF91CF911F910F91FF90EF900C947E0268
:101A300077FD0DC0FC0126893789621773073CF4D6
:101A400020E0411101C021E04CE00C94D40C089539
:101A5000CF92DF92EF92FF920F931F93CF93DF937A
:101A6000D82F87E0E82E82E0F82E10E000E0809189
:101A7000060280171106A1F0F701C190D1907F01F5
:101A8000C0E0F601808D8C1741F06C2F70E04D2F77
:101A9000C6010E94180DCF5FF4CF0F5F1F4FE7CF35
:101AA000DF91CF911F910F91FF90EF90DF90CF903A
:101AB00008950F931F93CF93DF93FC01208D222372
:101AC000F9F06217E8F4062F10E04423B1F0EC01BE
:101AD00086899789081719073CF42FEF240F4AE0ED
:101AE000B801CF010E94D40C40E0B801CE01DF91D3
:101AF000CF911F910F910C94180D41E0B801F7CFD1
:101B0000DF91CF911F910F910895FF920F931F9333
:101B1000CF93DF93EC0160E088810E947E02FB801E
:101B20000F2D10E00C5F1F4F0C0F1D1FFF2049F001
:101B3000F80142918F0169818A810E94B50CFA9463
:101B4000F5CF61E08881DF91CF911F910F91FF90D8
:101B50000C947E020E94C801882359F081E0809392
:101B600064078093650780916607909167070C94DE
:101B700040271092650790E080E008951F93CF936F
:101B8000DF930E94AA0DEC010E94AA0D182F0E945B
:101B9000AA0DCC0FDD1FC95FDD4F482F612F888153
:101BA00099810E94590DDF91CF911F910C94500B98
:101BB0000C94BE0D8F929F92AF92BF92CF92DF9204
:101BC000EF92FF920F931F93CF93DF930E94AA0D82
:101BD0008C010E94AA0DEC010E9419025C010E9476
:101BE000AA0D6C010E94AA0D000F111FF801E95FF8
:101BF000FD4F00811181F801208D222389F1912C64
:101C000048E07C01FF24DD27DD2488248A94840EAB
:101C1000C701082C02C0959587950A94E2F780FFCA
:101C20001CC0F80186899789C817D907ACF4F5015B
:101C3000E90DF11DE081F0E0E155FE4F2491C60170
:101C4000082C02C0959587950A94E2F780FD2068DC
:101C5000BE01C8010E94D40C9394482D8110D5CFA9
:101C6000DF91CF911F910F91FF90EF90DF90CF9078
:101C7000BF90AF909F908F900C94500BCF930E9489
:101C8000AA0DC82F0E94AA0DBC018C2F0E94E80249
:101C9000CF910C94500B0E94AA0D2091110428178B
:101CA000190661F05CF0880F991FFC01E35FFB4FA0
:101CB000808191810E94ED0A0C94500B08950E943E
:101CC000AA0D209111042817190611F10CF1880FA3
:101CD000991FFC01E35FFB4F0190F081E02D028032
:101CE000F381E02D1486158616861786108A118AD0
:101CF000128A138A14AA15AA16AA17AA14A215A240
:101D000016A217A2148A158A168A178A0C94500BE9
:101D100008958F929F92AF92BF92CF92DF92EF92EF
:101D2000FF921F93CF93DF930E94AA0DEC010E94B4
:101D3000AA0DBC0180910C048C171D0609F00CF44F
:101D4000B0C0CC0FDD1FC85FDB4F0990D881C02D1C
:101D5000CD80DE800D2C000CEE08FF0889809A8073
:101D6000092C000CAA08BB082F813885032E000C13
:101D7000440B550B2C193D094E095F09072E000C29
:101D8000880B990B681979098A099B090E94A22975
:101D90002B813C81032E000C440B550B281939096B
:101DA0004A095B090E940829BA01A9014C0D5D1D71
:101DB0006E1D7F1D052E000C660B770B8D859E8595
:101DC000AF85B88984179507A607B70709F45CC0E3
:101DD0004D875E876F87788B8985811155C08A858D
:101DE0008C3008F04FC0188161E0812F0E94AC0256
:101DF0008A85282F30E0F901EE0FFF1FE20FF31F55
:101E0000EC51FC4F1F739081907C912B90831B862B
:101E10001C862CE0622F0E94B229829FB0011124FF
:101E200030E020E0AB01420F531FFA01EE0FFF1F1D
:101E3000E40FF51FEC51FC4F908196FD16C02F5F0B
:101E40003F4F2C30310571F781110FC01092800087
:101E500082E0809381001092850010928400B19AF4
:101E600080916F00826080936F00EA858E2F90E0F2
:101E7000FC01EE0FFF1FE80FF91FEC51FC4F8081B2
:101E80008064808381E08987DF91CF911F91FF90EB
:101E9000EF90DF90CF90BF90AF909F908F900C9479
:101EA000500BDF91CF911F91FF90EF90DF90CF907B
:101EB000BF90AF909F908F900895EF92FF920F93F5
:101EC0001F93CF930E94AA0D8C010E9419027C01DE
:101ED000000F111FF801E250FE4F00811181F8013F
:101EE00086858823B1F0C0E0F80181898C1789F0DC
:101EF0004C2F60E0C8010E94BF06F8014089B7017D
:101F0000C49F600D711D1124C8010E942007CF5F7E
:101F1000EBCFCF911F910F91FF90EF900C94500B4E
:101F2000AF92BF92CF92DF92EF92FF920F931F93E7
:101F3000CF93DF9300D000D0CDB7DEB75C0119821C
:101F40001A821B821C82CE0101967C0110E000E007
:101F50006C01F501808191819C012F5F3F4F31839E
:101F600020830E945B0BF7018083F8018E3241F0E1
:101F70000F5F1F4F8FEFE81AF80A0430110549F779
:101F8000EC0DFD1D1082C6010E9440270F900F909E
:101F90000F900F90DF91CF911F910F91FF90EF90D5
:101FA000DF90CF90BF90AF900895FB01019000208B
:101FB000E9F73197AF01461B570BDC01ED91FC911E
:101FC0000280F381E02D099480919A068823A1F084
:101FD00060916D0780916B0790916C070E948B0355
:101FE0008091A206882341F06DEC71E080916B072F
:101FF00090916C070E94D50F1092A10610929A063C
:1020000080E008958F929F92AF92BF92EF92FF92DD
:102010000F931F93CF93DF93CDB7DEB7A1970FB682
:10202000F894DEBF0FBECDBF7C01FA01CB0119A22F
:10203000223008F42AE08E010F5D1F4F822E912C72
:10204000B12CA12CBF01A50194010E947129F901B5
:10205000CA016A300CF5605DD8016E938D01232BA7
:10206000242B252B79F790E080E0109721F0BD011B
:10207000C7010E94D50FA1960FB6F894DEBF0FBE20
:10208000CDBFDF91CF911F910F91FF90EF90BF9047
:10209000AF909F908F900895695CDECFCF93909121
:1020A0009A069923A9F0C82F60916E0780916B075B
:1020B00090916C070E948B034C2F50E070E060E021
:1020C0002AE080916B0790916C07CF910C940210DD
:1020D000CF91089590919A06911110C091E090933C
:1020E0009A069093A106482F50E070E060E02AE045
:1020F00080916B0790916C070C9402100895EF92F9
:10210000FF920F931F93CF93DF9390919A069111B3
:102110002BC08B010E946A1080919A068823E1F0FF
:1021200060916E0780916B0790916C070E948B0302
:10213000E0906B07F0906C07E801FE016491662364
:1021400059F0D701ED91FC910190F081E02DC7018C
:1021500009952196892B89F7DF91CF911F910F91D6
:10216000FF90EF900C94E40F80E0DF91CF911F91EE
:102170000F91FF90EF9008950E947F036093CA0330
:102180007093CB038093CC039093CD0368E670E00B
:1021900085E00C947F10CF93DF9310923F04109250
:1021A0001A041092C90380910602882329F0E09155
:1021B0000702F0910802108E1092060240910C0462
:1021C00050E0C8E0D4E030E020E042175307D9F0F7
:1021D000A991B99119968C911997882389F01A962B
:1021E000EC911A978E2F90E0FC01EE0FFF1FE80F85
:1021F000F91FEC51FC4F80818F7B808319961C92D4
:102200002F5F3F4FE2CF10920C048091110490E0B9
:10221000009761F0E0910D04F0910E041082019797
:1022200029F0E0910F04F091100410821092110433
:102230002091F80130E0EEEFF1E090E080E0281727
:10224000390759F0A191B1911E964C911E974423E4
:1022500011F01E961C920196F2CF1092F801109286
:10226000E3032091F90130E0E2E0F2E090E080E069
:102270002817390759F0A191B19118964C911897E8
:10228000442311F018961C920196F2CF1092F90196
:102290002091D40330E0E0EDF3E090E080E082179D
:1022A00093075CF4A191B19116964C911697442333
:1022B00011F016961C920196F2CF1092D403109250
:1022C000A4031092A3031092CF036CE670E085E0A4
:1022D000DF91CF910C947F106FE670E08FE00C944B
:1022E0007F102091350330913603820F932F911D7B
:1022F00090933603809335038C32914040F060E731
:1023000072E085E00E947F1090E080E00895C901AE
:10231000875F9D4F0895CF92DF92EF92FF920F93C8
:102320001F93CF93DF9390911A04933009F45EC00A
:102330007901142FC62ED82E8FE10E94E10A811157
:102340000DC06FE871E085E0DF91CF911F910F9193
:10235000FF90EF90DF90CF900C947F108FE10E9460
:102360007111EC01892B09F01A8200911A04E02FF7
:10237000F0E0EE0FFF1FEC5EFB4FD183C0831E82A7
:102380001D82FC82EB82D882C98285E0819FF001A8
:102390001124EA59FE4FDE01199601900D928A959B
:1023A000E1F762E08D2D0E94AC0262E089810E941B
:1023B000AC021E86188A1F861A8A198A18861F8AF6
:1023C000188E198E1A8E84EF91E0A0E0B0E08B8B0E
:1023D0009C8BAD8BBE8B81E08A8387E992E19093E1
:1023E0001304809312040F5F00931A04DF91CF91BE
:1023F0001F910F91FF90EF90DF90CF90089581E0B3
:102400008093CF0362E770E081E10C947F10CF935B
:10241000DF930E94500B8AE00E946A108091A30310
:102420009091A403892B91F18BE390E00E945B0BC8
:10243000C82F80919A06882379F060916E07809169
:102440006B0790916C070E948B036C2F80916B0738
:1024500090916C070E948B03C1E0D0E08091A303B0
:102460009091A403C817D90788F4CE01CB960E9497
:102470005B0B90919A06992339F0682F80916B0736
:1024800090916C070E948B032196E8CFDF91CF914A
:102490000C94E40FCF93DF9320919A062223A1F0AE
:1024A000EC0160916E0780916B0790916C070E9420
:1024B0008B03209749F0BE0180916B0790916C07C8
:1024C000DF91CF910C94D50FDF91CF9108950E94A9
:1024D000500B8AE00E946A1087E591E00E944A1240
:1024E0008BE091E00E944A1280E091E00E944A1243
:1024F00080ED91E00E944A120C94E40F0F931F9319
:10250000CF93DF93C82FD62F8A018DE10E946A10E6
:10251000C8010E944A128D2F0E944E108C2F0E94DB
:102520004E10DF91CF911F910F910C94E40F0F93F8
:102530001F93CF93C82F8A0186E00E946A10C801BA
:102540000E944A128C2F0E944E10CF911F910F9122
:102550000C94E40F0F931F93CF93C82F8A0187E049
:102560000E946A10C8010E944A128C2F0E944E10CD
:10257000CF911F910F910C94E40FCF92DF92EF92C5
:10258000FF92CF93DF936C01EA018CE10E946A1005
:10259000CE010E944A1280919A06882321F160910F
:1025A0006E0780916B0790916C070E948B03C0911E
:1025B0006B07D0916C070D2C000CEE08FF082AE089
:1025C000B701A601F7FE0CC06DE2CE010E948B039D
:1025D00044275527BA014C195D096E097F092AE085
:1025E000CE010E940210DF91CF91FF90EF90DF901B
:1025F000CF900C94E40FFB0101900020E9F7319794
:10260000AF01461B570BDC01ED91FC910284F38571
:10261000E02D0994CF92DF92EF92FF920F931F93D8
:10262000CF93DF938C01EB01FC01D0886D2D70E01E
:10263000FE0101900020E9F7CF0101978C1B9D0B53
:1026400086179707B0F4681B790B76956795D82E97
:10265000C8010E94BF06CC2EEC2EFD2E8E2D8C19AB
:102660008D1548F4F70161917F01C8010E940807A8
:10267000F5CF60E0EDCFDF91CF911F910F91FF90EB
:10268000EF90DF90CF90089585ED8093BC0080910E
:10269000890490918A04A0918B04B0918C040796D0
:1026A000A11DB11D23E0B695A795979587952A950D
:1026B000D1F72091BC0024FD03C010928704089537
:1026C0004091890450918A0460918B0470918C042C
:1026D000452B462B472B69F30097A105B10541F027
:1026E00025E32A95F1F700000197A109B109E1CF8F
:1026F000809188040C94EA044F925F926F927F92CB
:102700008F929F92AF92BF92CF92DF92EF92FF9201
:10271000CF93DF93EC016A017B0120E030E0A90157
:10272000CB01B6010E94CE2787FF04C0F7FAF094D0
:10273000F7F8F0948C8C9D8CAE8CBF8CA701960121
:10274000C501B4010E94CE27882309F449C06CA9B1
:102750007DA98EA99FA90E94D5272B013C01A70125
:102760009601C501B4010E94452A9B01AC01C30139
:10277000B2010E9434280E94B72A6CAB7DAB8EABAD
:102780009FABA701960160E070E080E090E40E94BA
:10279000452A0E94F82A26E53EE04DE25FE30E94CA
:1027A000342820E034E244E759E40E94342868AF3A
:1027B00079AF8AAF9BAFCC8EDD8EEE8EFF8ECE01D1
:1027C000DF91CF91FF90EF90DF90CF90BF90AF90CF
:1027D0009F908F907F906F905F904F900C948F0997
:1027E000DF91CF91FF90EF90DF90CF90BF90AF90AF
:1027F0009F908F907F906F905F904F9008958F92F1
:102800009F92AF92BF92CF92DF92EF92FF920F937F
:102810001F93CF93DF9390911104923009F49DC0E0
:10282000C22ED42EA62EB82E8AE00E94E10A811173
:1028300011C060E572E085E0DF91CF911F910F91AB
:10284000FF90EF90DF90CF90BF90AF909F908F90D0
:102850000C947F108AE00E9471117C01009711F0A6
:10286000FC011082E0911104F0E0EE0FFF1FE35F26
:10287000FB4FF182E08284E40E94E10A81117AC078
:102880006FE272E085E00E947F10F0901104EF2D5E
:10289000F0E0EE0FFF1FE35FFB4FC080D180F60139
:1028A000C281D38120E030E048EC53E4688D798D1B
:1028B0008A8D9B8D0E94CE278823E9F180E090E0ED
:1028C000A8ECB3E4888F998FAA8FBB8F80E090E447
:1028D000ACE1B5E4FE01E05CFF4F80839183A2830D
:1028E000B3838CA99DA9AEA9BFA9181619061A060B
:1028F0001B060CF56C897D898E899F899B01AC0133
:102900000E9434284B015C016C8D7D8D8E8D9F8DD6
:102910009B01AC010E94D9299B01AC01C501B40106
:102920000E94452A0E94B72A6CAB7DAB8EAB9FAB51
:10293000CE010E948F0940E050E068E474E4F601A3
:10294000828193810E947C13101611061CF4C6012B
:102950000E94ED0AF394F0921104DF91CF911F9140
:102960000F91FF90EF90DF90CF90BF90AF909F902E
:102970008F90089584E4CA1072C0DB1070C00E946A
:102980007111EC01892B09F459C083E891E0998316
:10299000888381E08B831C861D861E861F86188A8D
:1029A000198A1A8A1B8A1C8A1D8A1E8A1F8A80E03D
:1029B00090E0A0E8BFE3888F998FAA8FBB8F1C8E11
:1029C0001D8E1E8E1F8E88A399A3AAA3BBA31CA233
:1029D0001DA21EA21FA221E030E03DA72CA72FEFD1
:1029E0002FA718A619A61AA61BA6DC82CD8224E062
:1029F0002E8325E02F831EA61CAA1DAA1EAA1FAA8D
:102A000018AE19AE1AAE1BAE1CAE1DAE1EAE1FAE7A
:102A1000FE01E05CFF4F80839183A283B3831A821F
:102A2000188619861A861B86CE010E947C0740E014
:102A300050E060E87FE3CE010E947C13F701D3836E
:102A4000C283048381E08583002321F062E0802F2C
:102A50000E94AC0281E0F7018083118216CF0E94B0
:102A60007111EC01892B51F383E891E099838883FC
:102A700084E08B831C861D861E861F86188A198A11
:102A80001A8A1B8A1C8A1D8A1E8A1F8A80E090E08F
:102A9000A0E8BFE3888F998FAA8FBB8F1C8E1D8EF5
:102AA0001E8E1F8E88A399A3AAA3BBA31CA21DA23E
:102AB0001EA21FA221E030E03DA72CA72FEF2FA7D9
:102AC00018A619A61AA61BA6CC82AD82BE82DF82EA
:102AD00092CF2F923F924F925F926F927F928F92FE
:102AE0009F92AF92BF92CF92DF92EF92FF920F939D
:102AF0001F93CF93DF9300D000D0CDB7DEB7809186
:102B0000A3039091A403892B09F4AFC48BE390E055
:102B10009A8389831C821B82CE0101960E94900FAA
:102B2000882309F4A2C414EBA12EB12CEFEFE80F17
:102B3000EC3008F098C00E2E000CFF0BEC55FA4E4E
:102B4000CE0101960C94D229B015AF170316381692
:102B500011175F17D317C017381757190019C7195E
:102B60000E94900F982E80913F04823199F184E069
:102B70000E94E10A65E770E0882309F426C40B810E
:102B80001C8184E00E9471117C01009781F0DC01BE
:102B900012969C9212970F541B4F11961C930E93F2
:102BA00081E013968C9362E0892D0E94AC028091A3
:102BB0003F04E82FF0E0EE0FFF1FE55EFB4FF182D0
:102BC000E082EAEAF2E1F093FB01E093FA018F5F21
:102BD00080933F04BE016D5F7F4FCE0101960E943E
:102BE000830B182FCE0101960E94900F882309F4C1
:102BF00039C411119BCF10928C0565E771E085E017
:102C00000E947F1032C40E94900FF82E8091C90359
:102C1000823149F182E00E94E10A63E970E0882391
:102C200009F463C382E00E9471118C01009771F076
:102C3000DC01FC9211961C9261E08F2D0E94AC0287
:102C4000F801618170E080810E94E8028091C903EF
:102C5000E82FF0E0EE0FFF1FEB55FC4F11830083D0
:102C60008F5F8093C903CE0101960E94B10BB9CF4B
:102C70000E94900F382ECE0101960E94900F582E80
:102C8000CE0101960E94900F482ECE0101960E941F
:102C9000900F682ECE0101960E94900F882E809191
:102CA0000602813001F389E10E94E10A61EB70E0E4
:102CB000882309F41AC389E10E9471118C010097DD
:102CC00019F0DC0158961C92E32C032C000CFF0831
:102CD00090900602E92DF0E0EE0FFF1FE95FFD4F37
:102CE00011830083F801F18AE08A842D440C990B4A
:102CF000938B828B852D550C990B958B848B282D6E
:102D00002150330B2830310508F45CC088E090E096
:102D1000D80157969C938E93569761E0832D0E941D
:102D2000AC0261E0F80182890E94AC0261E0D80146
:102D300054968C910E94AC0261E0F80184890E9453
:102D40007E02D8015196FC92EE925097F12CE12C24
:102D5000F80186899789E816F906B4F520E04FE076
:102D6000B701C8010E94D40CD80156968D919C9150
:102D7000E816F90634F427E04BE0B701C8010E94D9
:102D8000D40C20E049E0B701C8010E94D40CF8013E
:102D900086899789E816F90664F45524539420E04F
:102DA000452DB701C8010E94D40C5394F9E05F127D
:102DB000F6CF41E0B701C8010E94180D2FEFE21ACB
:102DC000F20AC6CF882DA3CF808EF12CE12CF8011A
:102DD000808D8E151F0409F1462D6E2DC8010E94AD
:102DE000590D40E0B701C8010E94180DD801569650
:102DF0008D919C91E816F90664F48824839420E070
:102E0000482DB701C8010E94D40C8394B9E08B12FD
:102E1000F6CFEFEFEE1AFE0ADACF93949092060205
:102E200022CF0E94900FF82ECE0101960E94900FA3
:102E3000182FCE0101960E94900F082FCE01019607
:102E40000E94900FE82ECE0101960E94900F2E2D29
:102E5000EE0C330B402F000F550B612F110F770B2A
:102E600010E000E08F2DFF0C990B0E94FF13FBCEAA
:102E70000E94900FE82ECE0101960E94900F182F0D
:102E8000CE0101960E94900FF82ECE0101960E946D
:102E9000900F982ECE0101960E94900F082E000CE4
:102EA000990B292D990C330B4F2DFF0C550B612FCE
:102EB000110F770B8C018E2DEE0C990BD6CF0E9443
:102EC000900F182F80910C04823009F4CCCE87E14A
:102ED0000E94E10A62ED70E0882309F406C287E1EE
:102EE0000E947111FC01892BB9F0809137038C305D
:102EF00098F591E0980F90933703828790E0DC017A
:102F0000AA0FBB1FA80FB91FAC51BC4F28EB3BE069
:102F100012963C932E93119780910C04A82FB0E049
:102F2000AA0FBB1FA85FBB4FED93FC9311861586BC
:102F300016861786108A118A128A138A148A1282B8
:102F40001182B482A38216821582B086A782108372
:102F50008F5F80930C0487CE8FEF8287DDCF0E9436
:102F6000900F182FCE0101960E94900F2B813C816B
:102F70002F543B4F40E0682F812F0E948B112ACEA7
:102F80000E94900F182FCE0101960E94900F082FDB
:102F9000CE0101960E94900F2B813C812F543B4F14
:102FA000482F602FE9CF0E94900F982ECE010196F6
:102FB0000E94900FE82ECE0101960E94900FF82EED
:102FC0008091F801823009F44ECE82E10E94E10A3C
:102FD00060EF70E0882309F488C182E10E947111DA
:102FE0008C01009761F0DC0113961C921E921297DF
:102FF000EBE4F1E01196FC93EE9319961C92E091AC
:10300000F801F0E0EE0FFF1FE250FE4F1183008346
:10301000D8011F969C921F975096EC92509751960C
:10302000FC92519781E01E968C931E9714969C9269
:1030300014971A96EC921A971B96FC921B971C9663
:103040001C921C971D961C9210925A0310925903C1
:1030500010928E041092B0040E94CC04EEEFF5E0C2
:10306000F0937D03E0937C032FEF35E030938103F1
:1030700020938003D80115961C9215971B968C916E
:103080001B97823018F098E015969C93F801948570
:10309000992329F0813019F48581846085830E9409
:1030A0005A032B013C0132E3C32ED12CE12CF12C2D
:1030B0000E945A036419750986099709683E73408E
:1030C00081059105A8F3F1E0CF1AD108E108F108D4
:1030D00028EE420E23E0521E611C711CC114D10463
:1030E000E104F10429F7D8011D966C91C8010E94F2
:1030F0000E0760E3C8010E940E078BE496E4019777
:10310000F1F760E3C8010E940E078BE496E4019793
:10311000F1F760E3C8010E940E0783E592E0019792
:10312000F1F760E2C8010E940E07F8016581606254
:1031300040E0C8010E94960684E0D80116968C9360
:1031400040E06CE0C8010E949606C8010E94F006AB
:1031500082E0F801878340E066E0C8010E9496069D
:1031600040E062E0C8010E9496068BE39FE1019770
:10317000F1F788E0D8011D968C931D9714968C91D9
:1031800091E090938D048093AF0410928E0410927E
:10319000B00468E08FEC95E00E9457060E94FB05A2
:1031A0008CE08093B800F8018685882319F1C80166
:1031B0000E94F006D80151964C91F12C433020F03A
:1031C0004695FF24FA94F40E4F2D66ED71E0C80188
:1031D0000E940A13F8018189823038F041E04F0DD6
:1031E00061EE71E0C8010E940A1340E060E0C8018E
:1031F0000E94BF068091F8018F5F8093F80133CD64
:103200000E94900F982ECE0101960E94900F882E5A
:103210008091E303863009F4DDCC8DE10E94E10A60
:103220006CE071E0882309F4D0C00B811C818DE132
:103230000E9471117C01009731F1FC013696DF018B
:1032400020E11D922A95E9F7DC0157961C921E9207
:10325000569758961C92589715968C9215971296D9
:103260009C9212970F541B4F11961C930E93149619
:103270001C921E92139762E0892D0E94AC02F70106
:1032800082810E9445038091E303E82FF0E0EE0F76
:10329000FF1FE952FC4FF182E0822DEB32E13093C7
:1032A000D6032093D5038F5F8093E30393CC0E94D2
:1032B000900F882ECE0101960E94900F482ECE01CD
:1032C00001960E94900F582ECE0101960E94900FF9
:1032D000682E8091F901823009F4C5CC89E00E9402
:1032E000E10A811106C06CE271E085E00E947F1066
:1032F000BACC89E00E9471118C019090F901E92CFF
:10330000F12CEE0CFF1CF701EE5FFD4F11830083E3
:1033100081E0D80118968C9318978C9211964C9254
:10332000119712965C92129713966C9261E0882D19
:103330000E94AC0261E0F80181810E94AC0261E070
:10334000D80112968C910E94AC02F80193813496B8
:1033500080E0981719F011928F5FFBCFC8010E948F
:10336000850DF701EE5FFD4F80819181DC011396A1
:103370003C91FC01349620E0321719F011922F5F36
:10338000FBCF0E94850D93949092F9016CCC0E9422
:10339000900F582ECE0101960E94900F282ECE013C
:1033A00001960E94900F382ECE0101960E94900F38
:1033B000482E8091D403823009F40CCC8BE00E941B
:1033C000E10A811106C061E571E085E00E947F108D
:1033D00001CC8B809C808BE00E9471118C01009746
:1033E00031F0FC01168217821086118612866090D9
:1033F000D403E62CF12CEE0CFF1C970120533C4F1C
:103400007901D9010D931C93F801528223823482F1
:10341000C4018F549B4F91838083458261E0852D49
:103420000E94AC0261E0D80113968C910E94AC021C
:1034300060E0F80184810E94AC0281E0D801169618
:103440008C93D701ED91FC9117821086118612861C
:10345000EEE7F2E1F093FD01E093FC0163946092EA
:10346000D403B8CB112309F4C6CB0F900F900F9063
:103470000F90DF91CF911F910F91FF90EF90DF9010
:10348000CF90BF90AF909F908F907F906F905F9004
:103490004F903F902F9008950E9469150C94FF1152
:1034A0000F931F93CF93DF930E94AA0DEC010E940C
:1034B000C8018823F1F181E0809364078093650758
:1034C00080916607909167070E945E272091110402
:1034D0002C171D06A1F19CF1CC0FDD1FC35FDB4F44
:1034E000E881F98111820681178120853185601775
:1034F000710782079307B9F0668377838087918786
:103500000280F381E02D00891189228933896017B7
:1035100071078207930739F0608B718B828B938BD5
:10352000CF010E948F09DF91CF911F910F910C94D1
:10353000500B1092650760E070E0CB01C7CFDF91C0
:10354000CF911F910F910895FF920F931F93CF93E7
:10355000DF930E94AA0DEC010E9419028C010E94C7
:10356000AA0DF82ECC0FDD1FCE5FDD4F0990D8815C
:10357000C02D8885882369F168EE71E0C8010E943A
:10358000852701E010E0009709F10E944027988507
:10359000992391F0982F9770980101C0220F9A9566
:1035A000EAF7869586958695FE01E80FF11D8481E0
:1035B000FF2049F0282B248368EE71E090E080E042
:1035C0000E948527E0CF20952823F5CFCE010E94C9
:1035D000850DDF91CF911F910F91FF900C94500BAF
:1035E000DF92EF92FF920F931F93CF93DF938C01A3
:1035F000EB017B01E40EF51ED990C8010E94F22870
:10360000D81621F06D2DC8010E94FA280F5F1F4FB8
:10361000EC16FD0689F7DF91CF911F910F91FF9076
:10362000EF90DF900895CF93DF930E94500B0E949C
:103630001902BC01EC0109900020E9F72197C81B91
:10364000D90BDD272091A3033091A403C901019672
:103650008C0F9D1F8E319140E0F5AE014F5F5F4FA3
:10366000C901CB96FA01E80FF91F2091DB053091D3
:10367000DC05E217F30710F40E94F01A4091A3034F
:103680005091A403C40FD51FD093A403C093A303E8
:1036900080919A0681113FC085E00E946A10809156
:1036A0009A06882391F060916E0780916B07909144
:1036B0006C070E948B03AE0170E060E02AE080910D
:1036C0006B0790916C070E940210DF91CF910C94D0
:1036D000E40F80919A0681111EC085E00E946A1055
:1036E00080919A06882389F360916E0780916B0719
:1036F00090916C070E948B03C0916B07D0916C076F
:103700006DE2CE010E948B032AE041E050E060E0D0
:1037100070E0CE01D8CFDF91CF910895CF93DF93A2
:1037200000D0CDB7DEB70E941902FC0190E3ABE0F8
:10373000B1E001900D929A95E1F783E290E09A83CF
:1037400089838091DB059091DC05029748F041E088
:1037500050E0BE016F5F7F4F90E080E00E94F01A62
:103760008091DB059091DC05C19740F04FE250E07D
:103770006BE071E081E090E00E94F01A80919A067F
:10378000811109C085E00E946A108BE091E00E94DF
:103790004A120E94E40F0F900F90DF91CF9108958D
:1037A000CF92DF92EF92FF92CF93C82F4BE050E081
:1037B00060E071E080E390E00E94660BC11109C0F7
:1037C00080910001833529F4809101018E3409F440
:1037D00066C08EE00E944503BC01990F880B990BCF
:1037E000611571058105910511F00E9437270E942E
:1037F000E826CC24CA942FE0D22EE12CF12CA7018C
:1038000096010E9408297F936F938AEE91E09F931F
:103810008F9380E091E09F938F930E944D2B0E94A5
:10382000E826A70196010E9408297F936F9383EFF2
:1038300091E09F938F9387E091E09F938F930E94F5
:103840004D2B8DB79EB70C960FB6F8949EBF0FBE4A
:103850008DBF8091DB059091DC05CC9700F14BE0AA
:1038600050E060E071E080E390E00E94F01AC11146
:1038700016C08091DB059091DC05CC9780F08BE33E
:1038800090E00E94F228882351F060E08BE390E002
:10389000CF91FF90EF90DF90CF900C94FA28CF91CA
:1038A000FF90EF90DF90CF90089581E00E94D01BB1
:1038B00080919A06811109C08AE00E946A1080E016
:1038C00091E00E944A120C94E40F08951F920F9207
:1038D0000FB60F9211242F933F938F939F93AF9323
:1038E000BF938091590490915A04A0915B04B091C8
:1038F0005C043091580423E0230F2D3758F50196CE
:10390000A11DB11D209358048093590490935A042B
:10391000A0935B04B0935C0480915D0490915E047D
:10392000A0915F04B09160040196A11DB11D809328
:103930005D0490935E04A0935F04B0936004BF9114
:10394000AF919F918F913F912F910F900FBE0F904C
:103950001F90189526E8230F0296A11DB11DD2CF06
:103960001F920F920FB60F9211242F933F934F93F4
:103970005F936F937F938F939F93AF93BF93EF93D7
:10398000FF938DED95E00E941504FF91EF91BF919B
:10399000AF919F918F917F916F915F914F913F91E7
:1039A0002F910F900FBE0F901F9018951F920F929E
:1039B0000FB60F9211242F935F936F937F938F9382
:1039C0009F93AF93BF93EF93FF93E091ED05F09139
:1039D000EE058081E091F305F091F40582FD24C0AD
:1039E00020818091F60590E0019660E670E00E94EB
:1039F000BE299091F705981741F0E091F605F0E0A7
:103A0000E352FA4F258F8093F605FF91EF91BF9116
:103A1000AF919F918F917F916F915F912F910F90B7
:103A20000FBE0F901F9018958081EFCF1F920F92BD
:103A30000FB60F9211242F933F934F935F936F9381
:103A40007F938F939F93AF93BF93EF93FF93809157
:103A5000B900887F803609F44AC0F0F5883209F44D
:103A6000A7C018F5803109F49BC0B8F4882309F485
:103A7000F9C0883009F494C0FF91EF91BF91AF91E4
:103A80009F918F917F916F915F914F913F912F9176
:103A90000F900FBE0F901F901895883109F488C0C1
:103AA000803251F78093850414C0803409F49DC09E
:103AB00040F48033B9F38833F9F68093850485ECBC
:103AC000B0C0803509F485C0883509F496C08834C3
:103AD00099F60E944413D0CF883909F48CC038F588
:103AE000883729F050F4883611F0803729F683E0C2
:103AF000809387041092A20357C0883809F47BC0D2
:103B0000803919F0803809F0B7CF8091A203803254
:103B100008F071C0E091A20381E08E0F8093A203B0
:103B20008091BB00F0E0EE57FC4F80833DC0803BAE
:103B300039F0E0F4803A09F479C0883A09F09CCF72
:103B400084E08093870410927F0310927E03E091BB
:103B50007C03F0917D03099580917E0381110FC054
:103B600081E080937E0310925C0309C0803C09F4DD
:103B7000A6CF883C09F4A3CF883B09F07DCFE09124
:103B80007F0381E08E0F80937F03F0E0E45AFC4FC7
:103B900080818093BB0090917F0380917E0329C038
:103BA000809162048093BB0085EC8093BC0064CF5D
:103BB0009091840480918304981758F5E0918404CF
:103BC00081E08E0F80938404F0E0ED59FB4F8081FB
:103BD000E9CFE091840481E08E0F8093840480918A
:103BE000BB00F0E0ED59FB4F8083909184048091FD
:103BF00083049817C8F285E8D8CFE091840481E067
:103C00008E0F809384048091BB00F0E0ED59FB4F50
:103C100080838091860481115CCF81E08093610470
:103C200084EA8093BC001092870426CF85EC8093B1
:103C3000BC00109287048091A203803230F4E0919E
:103C4000A203F0E0EE57FC4F10826091A20370E0F7
:103C5000E0918003F091810382E893E0099510924E
:103C6000A2030ACF1092850434CF1F920F920FB691
:103C70000F9211242F933F934F935F936F937F93F2
:103C80008F939F93AF93BF93CF93DF93EF93FF9364
:103C900080913803C0913703D0E087FF24C0109291
:103CA000850010928400809138038F5F80933803E1
:103CB00080913803082E000C990B8C179D0724F473
:103CC000809138038C30C4F18091840090918500FC
:103CD000049680349C4908F47AC0809184009091C5
:103CE0008500049676C080913803082E000C990B4D
:103CF0008C179D07C4F6E09138038E2FEE0F990BB9
:103D0000FC01EE0FFF1FE80FF91FEC51FC4F808103
:103D100086FFC9CFE09138038E2FEE0F990BFC017F
:103D2000EE0FFF1FE80FF91FEC51FC4F808160E0A0
:103D30008F730E947E02B7CF20918400309185005E
:103D4000E09138038E2FEE0F990BFC01EE0FFF1F51
:103D5000E80FF91FEC51FC4F81819281820F931F74
:103D60009093890080938800E09138038E2FEE0FA6
:103D7000990BFC01EE0FFF1FE80FF91FEC51FC4FF0
:103D8000808186FF11C0E09138038E2FEE0F990BD2
:103D9000FC01EE0FFF1FE80FF91FEC51FC4F808173
:103DA00061E08F730E947E02FF91EF91DF91CF91CE
:103DB000BF91AF919F918F917F916F915F914F9143
:103DC0003F912F910F900FBE0F901F90189580E498
:103DD0009CE990938900809388008FEF809338034B
:103DE000E3CF1092E0051092DF0588EE93E0A0E0AB
:103DF000B0E08093E1059093E205A093E305B093D2
:103E0000E4052DEA31E03093DE052093DD0525EC55
:103E100030E03093EA052093E90524EC30E030935C
:103E2000EC052093EB0520EC30E03093EE05209379
:103E3000ED0521EC30E03093F0052093EF0522EC06
:103E400030E03093F2052093F10526EC30E030931A
:103E5000F4052093F3051092F6051092F7051092E1
:103E6000F8051092F9051092D2051092D1058093B1
:103E7000D3059093D405A093D505B093D6058FEBC9
:103E800091E09093D0058093CF0580E094E09093EB
:103E9000DC058093DB0510927107109270078DEDA1
:103EA00095E090936C0780936B071092A2068CE2CA
:103EB00080936E078BE380936D078FE280936F078B
:103EC00080E680939D068FE580939E0610929C0667
:103ED00010926707109266071092690710926807A0
:103EE00081E080936407E2E7F7E01192119287E0A6
:103EF000EE3AF807D1F71092A1060895CF93DF9319
:103F0000CDB7DEB72B970FB6F894DEBF0FBECDBF8F
:103F1000789484B5826084BD84B5816084BD85B5A4
:103F2000826085BD85B5816085BD80916E008160B0
:103F300080936E0010928100809181008260809356
:103F40008100809181008160809381008091800058
:103F50008160809380008091B10084608093B10083
:103F60008091B00081608093B00080917A0084607D
:103F700080937A0080917A00826080937A008091A9
:103F80007A00816080937A0080917A0080688093C3
:103F90007A001092C100E091ED05F091EE0582E00B
:103FA0008083E091E905F091EA051082E091EB054C
:103FB000F091EC0580E180831092F505E091F10528
:103FC000F091F20586E08083E091EF05F091F00535
:103FD000808180618083E091EF05F091F005808120
:103FE00088608083E091EF05F091F0058081806822
:103FF0008083E091EF05F091F00580818F7D8083D3
:104000008CEB90E190937107809370078EEB9DE0AD
:1040100090937307809372078AED9DE090937507E4
:104020008093740788ED9DE09093A7078093A6077F
:104030008EE39EE0909377078093760780E59AE180
:1040400090937907809378078BE49EE090939D0787
:1040500080939C078FE59EE090939F0780939E0737
:1040600089E89EE090937B0780937A0787E692E148
:10407000909385078093840787E092E190938B0764
:1040800080938A0783E19BE1909389078093880757
:104090008BEC90E190938D0780938C078CE691E1F7
:1040A00090938F0780938E078CE49AE19093930707
:1040B000809392078EE89BE19093990780939807ED
:1040C00085E59CE190939B0780939A0788EF9BE09E
:1040D0009093A1078093A0078DE59FE09093A5079B
:1040E0008093A40784EA9AE19093A9078093A80794
:1040F00081E08093A20680E00E94D01B0E94500BBA
:10410000E090DB05F090DC051092A4031092A3036D
:104110008BE390E08C010F5F1F4F0E945B0B482FD9
:104120002091A3033091A403C90101969093A403A5
:104130008093A303E016F10608F026C167E872E059
:1041400085E00E947F10198241E050E0BE016F5F60
:104150007F4F90E080E00E94660B8981833241F4BA
:104160004FE250E06BE071E081E090E00E94660B6E
:104170000E947F0360935404709355048093560407
:10418000909357040E947F036093500470935104EE
:1041900080935204909353040E947F030E947F03F4
:1041A0006C5F7F4F8F4F9F4F609344047093450423
:1041B00080934604909347040E947F036C5F7F4F77
:1041C0008F4F9F4F609348047093490480934A0433
:1041D00090934B040E947F036A5F7F4F8F4F9F4FE6
:1041E000609340047093410480934204909343048D
:1041F0000E947F03685F7F4F8F4F9F4F60934C04F7
:1042000070934D0480934E0490934F0438E5232E11
:1042100032E0332E44EB442E512C612C712C8091D2
:10422000A1068111CFC080916B0790916C07DC01D2
:10423000ED91FC910084F185E02D0995892B09F41D
:10424000C1C080916B0790916C07DC01ED91FC91EE
:104250000084F185E02D099520E6C22ED12C803610
:10426000910564F480916B0790916C07DC01ED91EE
:10427000FC910084F185E02D09956C0100916B079C
:1042800010916C0793E0A92E97E0B92E4501F12C0F
:10429000E12CCE14DF0429F10E947F03F80160872E
:1042A000718782879387D801ED91FC910284F38511
:1042B000E02DC801099597FF12C50E947F03F80100
:1042C0002085318542855385621B730B840B950BCA
:1042D00024813581468157816217730784079507CA
:1042E00010F310E000E0C016D10609F498CFD50114
:1042F0009D915D011092630730916F072091A00698
:104300009093A006931304C0921302C01092A006CB
:1043100080919C06E82FF0E040916D07E656F94F3A
:1043200094133EC03217E1F11186882329F0B1E0E1
:10433000B09363071092A00610929C061092670734
:10434000109266071092690710926807E1E0E09307
:10435000640780916307813091F50E94AA0D8093D4
:104360009B068E3130F520916507222311F1FC0167
:10437000FF27EE0FFF1FEE58F84F0190F081E02D60
:104380003097B9F009951BC0C8014111C3CE3093D5
:10439000A4032093A3030E9469150E94FF11D3CEAA
:1043A00091878F5F80939C0690919E06891720F6D7
:1043B000D0CFE0917007F0917107309719F70F5F38
:1043C0001F4F91CFC090CA03D090CB03E090CC0395
:1043D000F090CD038091CE03811188C40E947F03A9
:1043E0006C197D098E099F09613A7B4B8D409105BF
:1043F000E8F081E08093CE0305EA13E0F12CE12C94
:104400008091C9038E151F0471F0D801ED91FD91C3
:104410008D01118270E060E080810E94E802BFEFB0
:10442000EB1AFB0AEDCF81E00E94280D8091CF03AB
:10443000882309F447C40E947F030091540410911B
:1044400055042091560430915704601B710B820B68
:10445000930B6A30710581059105B8F10E947F03C5
:1044600060935404709355048093560490935704BA
:10447000ABE1CA2EA4E0DA2E10E000E080913F0408
:104480008017110611F1F601E190F1906F01D7014B
:1044900012968C910E945502F7019381891761F061
:1044A00091E0811101C090E0D70113969C93811196
:1044B00008C0C7010E943D0B0F5F1F4FDFCF80E098
:1044C000B3CFC7010E94290BF7CF0E947F03009151
:1044D00050041091510420915204309153046017FC
:1044E00071078207930709F450C10E947F0360930C
:1044F0005004709351048093520490935304F4E158
:104500008F2EF4E09F2EB12CA12C80911A048A15D5
:104510001B0409F43AC1F401C190D1904F01DB862C
:10452000CA86D60112968C911297882309F4E9C0A5
:104530008C910E9455026C01EA85FB8581810E9465
:1045400055027C010E947F03AB01BC0181E090E039
:10455000EF2811F090E080E0880F991F21E0CD282E
:1045600009F020E0022F082BAA85BB855B96CD9031
:10457000DD90ED90FC905E97DB01CA018C199D09DE
:10458000AE09BF0985369105A105B10508F4BDC086
:10459000AA85BB8518968C911897823008F4B5C00F
:1045A000FD01438F548F658F768F81508087AA8558
:1045B000BB851E96EC911E970E1709F461C01896E4
:1045C000DC90B6E0BD1508F0BFC023E330E03B83CC
:1045D0002A83AA85BB851D96EC90B4E0EB02F0011E
:1045E0001124A02F002E000CBB0BEA2BFB2BE7564F
:1045F000FE4FE0811E2F2A813B811203C001139FD1
:10460000900D11249C010E2C02C0220F331F0A941E
:10461000E2F7EA85FB8587859089FC01E20FF31FAD
:10462000F887EF839F01EA85FB85308B2787AE0FE4
:10463000BF1F19962C912223F9F083899489A589AB
:10464000B689878B908FA18FB28F438B548B658BEC
:10465000768B8F81988502C095958795EA94E2F7CD
:10466000928B818B8D2D8C3008F08BE0DD24D394E0
:10467000D80EEA85FB85D086AA85BB851E960C934D
:10468000EA85FB85E188F28885819681E816F9063E
:10469000C1F16701C81AD90AC601E0911204F0916C
:1046A0001304CC0CDD1C309709F46CC0AA85BB85C3
:1046B00013964D915C9114979C012F5C3F4F2336CC
:1046C000310508F054C097FD44C06C9180E0099515
:1046D000CE0CDF1CB1E4CB16BFE1DB0664F0EA854B
:1046E000FB858785908983709927908B8787128AAD
:1046F000118AF12CE12CAA85BB851696FC92EE92CC
:104700001597BFEFAB1ABB0A00CFAA85BB8557969A
:10471000CD90DD90ED90FC905A97DB01CA018C1989
:104720009D09AE09BF09853F9140A105B10508F477
:104730003ECFAA85BB855B964D935D936D937C932D
:104740005E9718961C9233CF81E090E09B838A831A
:1047500040CFAA85BB8511966C9182E00995C7016F
:104760008C199D09803C904E0CF4B9CFC4CFAA851A
:10477000BB8597FD03C06C9181E0A9CF11966C9128
:1047800083E0ECCF97FDEBCFA3CFEDE0F4E0FB832C
:10479000EA83F12CE12C809111048E151F0409F499
:1047A00080C0AA81BB810D911D91BB83AA83F801B2
:1047B000C280D380F60184A195A1A6A1B7A1892BBF
:1047C0008A2B8B2BE9F10E945A034B015C01F60105
:1047D00080A591A5A2A5B3A5B501A401481B590BBD
:1047E0006A0B7B0B84A195A1A6A1B7A14817590715
:1047F0006A077B0728F184859585A685B785228180
:10480000222309F44AC00196A11DB11D8487958712
:10481000A687B787D6011C964D915D916D917C91CD
:104820001F97ED91FC910680F781E02DC601099557
:10483000F60180A691A6A2A6B3A6C6010E948F0982
:10484000D80114968C910E945502F8019581891720
:1048500001F1858381111DC081818823D1F00280FF
:10486000F381E02D1486158616861786108A118A24
:10487000128A138A14AA15AA16AA17AA14A215A294
:1048800016A217A2148A158A168A178AD8011196B9
:104890001C92BFEFEB1AFB0A7ECF0197A109B10969
:1048A000B5CF0E947F0300914C0410914D042091DC
:1048B0004E0430914F04601B710B820B930B6530DB
:1048C00071058105910508F4AEC00E947F036093D5
:1048D0004C0470934D0480934E0490934F0458E021
:1048E000C52E54E0D52EF12CE12C80910C048E15B0
:1048F0001F0409F498C0F601019111916F01F801AC
:1049000081899289A389B48945855685678570898F
:1049100084179507A607B70709F47DC048175907FC
:104920006A077B070CF07BC00197A109B109818B55
:10493000928BA38BB48BF801A189B289A032F2E0EB
:10494000BF07BCF5F801838598E8892E912C881A59
:10495000910887FD9394880C991C880C991C092C4C
:10496000000CAA08BB0884859101281B310987FD2A
:104970003395220F331F220F331F032E000C440BDD
:10498000550B281939094A095B09A53BB10514F0F3
:10499000A4EBB0E0B7FF02C0B0E0A0E00E94322973
:1049A000A30192010E940829820E931EA41EB51E27
:1049B000D401F80122852C3070F5838548E850E059
:1049C000481B510987FD5395CA01880F991F880F0D
:1049D000991FA817B9077CF08485F101E81BF1093C
:1049E00087FDF395CF01880F991F880F991FA8178E
:1049F000B9070CF4CD010297880F991F4FB7F894AF
:104A000030E0F901EE0FFF1FE20FF31FEC51FC4FF6
:104A1000928381834FBFFFEFEF1AFF0A66CF0196A3
:104A2000A11DB11D84CF0E947F0300914804109105
:104A3000490420914A0430914B04601B710B820B96
:104A4000930B623371058105910508F449C00E94FA
:104A50007F03609348047093490480934A049093C1
:104A60004B0467EDE62E63E0F62E10E000E0809147
:104A7000E30380171106A1F1F701A191B1917F0124
:104A800056968D919C91579753E0969587955A9598
:104A9000E1F713962D913C9114976C01C21AD30A39
:104AA0009601D7FE03C031952195310915964C9199
:104AB00015974217130609F084F414969C938E936D
:104AC0001397E091D503F091D603309731F04D91D3
:104AD0005C91119712966C9109950F5F1F4FC7CF8C
:104AE0000E947F03009144041091450420914604E4
:104AF00030914704601B710B820B930B6A30710578
:104B00008105910508F466C00E947F036093440408
:104B100070934504809346049093470447EDC42E58
:104B200043E0D42EF12CE12C8091E3038E151F0479
:104B300009F450C0D6010D911D916D01D801589610
:104B4000EC915897F0E03396EE0FFF1FE00FF11F46
:104B500056968D919C91579720813181821B930BA2
:104B600057969C938E93569712968C910E9445036C
:104B7000D8015896EC915897F0E03396EE0FFF1F4E
:104B8000E00FF11F918380835896EC915897F0E0E5
:104B90003396EE0FFF1FE00FF11F56968D919C91FB
:104BA000579720813181820F931F57969C938E9344
:104BB000569758968C9158978F5F58968C93589724
:104BC00058968C915897877058968C93BFEFEB1A34
:104BD000FB0AAACF0E947F03009140041091410478
:104BE00020914204309143046017710782079307B4
:104BF00009F468C00E947F036093400470934104ED
:104C00008093420490934304E0EDF3E0F887EF8350
:104C1000D12CC12C8091D4038C151D0409F452C0F1
:104C2000AF81B8850D911D91B887AF8361E0F80120
:104C300083810E947E0261E0D80112968C910E94CD
:104C40007E025801B7E0AB0EB11CF12CE12CF8014B
:104C500085818E151F0471F16CF1638184810E943E
:104C6000D40B982ED5018D905D018815F9F0BE2DDD
:104C7000BB0FBB0FBB0FB9878A831E828A81882531
:104C800080FF08C04A8141706985EE816E0FC801BE
:104C90000E941A0B8694FA81F695FA832E812F5F73
:104CA0002E83283059F7F501319790823FEFE31AB0
:104CB000F30ACDCF60E082810E947E02BFEFCB1A63
:104CC000DB0AA8CF80E090E0892B09F4A8CA0E94F3
:104CD0000104882309F4A3CA0E940000A0CAF401B9
:104CE00081934F01FFEFEF1AFF0AD3CA0E947F039F
:104CF0006C197D098E099F09603A7B4B8D409105A7
:104D000008F094CB1092CE03B5EAEB2EB3E0FB2E65
:104D100010E000E08091C9038017110609F4CFCBA1
:104D2000D701ED91FD917D01618170E080810E944C
:104D3000E8020F5F1F4FEECF8F929F92AF92BF920C
:104D4000CF92DF92EF92FF92CF93DF93EC016881D5
:104D500079818A819B81611571058105910521F415
:104D600064E279ED8BE597E02DE133EF41E050E02F
:104D70000E94082949015A019B01AC01A7EAB1E44C
:104D80000E9427296B017C01ACEEB4EFA5019401D0
:104D90000E943529C60ED71EE81EF91EF7FE06C072
:104DA00081E0C81AD108E10880E8F80AC882D982EF
:104DB000EA82FB82C701B6019F77DF91CF91FF9016
:104DC000EF90DF90CF90BF90AF909F908F9008951D
:104DD0008F929F92AF92BF92CF92DF92EF92FF920B
:104DE00060913B0170913C0180913D0190913E01A9
:104DF000611571058105910521F464E279ED8BE57A
:104E000097E02DE133EF41E050E00E94082949018D
:104E10005A019B01AC01A7EAB1E40E9427296B016A
:104E20007C01ACEEB4EFA50194010E943529C60EB9
:104E3000D71EE81EF91EF7FE06C081E0C81AD10889
:104E4000E10880E8F80AC0923B01D0923C01E09270
:104E50003D01F0923E01C701B6019F77FF90EF90B0
:104E6000DF90CF90BF90AF909F908F900895609308
:104E70003B0170933C0180933D0190933E01089566
:104E8000FC0188279927E89421912032E9F3293001
:104E900010F02E30C8F32B3241F02D3239F46894E3
:104EA00004C00E94C627820F911D219120532A30F1
:104EB000C0F31EF4909581959F4F08951F93FC01B8
:104EC00099278827BC01E89411911032E9F3193031
:104ED00010F01E30C8F31B3251F01D3249F46894B3
:104EE00006C00E94B127610F711D811D911D119196
:104EF00010531A30B0F33EF49095809570956195FB
:104F00007F4F8F4F9F4F1F9108954EEA57E00E94A9
:104F10008A270895FA01A191B081009719F410979A
:104F2000E1F0CD01DC01CD010D90002011F4C001B4
:104F300013C0FB012191222319F02015D9F7F3CFDB
:104F4000FB012191201519F41E92119606C022230F
:104F5000C1F70D900020A1F7D001FA01A193B08311
:104F60000895592F482F372F262F660F771F881F38
:104F7000991F660F771F881F991F620F731F841F69
:104F8000951F660F771F881F991F08957AE0979FD6
:104F9000902D879F802D910D112408950E94102837
:104FA00008F481E00895E89409C097FB3EF49095D9
:104FB0008095709561957F4F8F4F9F4F9923A9F0F2
:104FC000F92F96E9BB279395F69587957795679581
:104FD000B795F111F8CFFAF4BB0F11F460FF1BC0C5
:104FE0006F5F7F4F8F4F9F4F16C0882311F096E958
:104FF00011C0772321F09EE8872F762F05C0662306
:1050000071F096E8862F70E060E02AF09A95660FBE
:10501000771F881FDAF7880F9695879597F9089577
:10502000990F0008550FAA0BE0E8FEEF16161706B9
:10503000E807F907C0F012161306E407F50798F021
:10504000621B730B840B950B39F40A2661F0232B3A
:10505000242B252B21F408950A2609F4A140A695B6
:105060008FEF811D811D08950E9447280C94B82858
:105070000E94AA2838F00E94B12820F0952311F050
:105080000C94A1280C94A72811240C94EC280E94BD
:10509000C92870F3959FC1F3950F50E0551F629F8B
:1050A000F001729FBB27F00DB11D639FAA27F00D81
:1050B000B11DAA1F649F6627B00DA11D661F829FA8
:1050C0002227B00DA11D621F739FB00DA11D621F8D
:1050D000839FA00D611D221F749F3327A00D611DAA
:1050E000231F849F600D211D822F762F6A2F11248C
:1050F0009F5750409AF0F1F088234AF0EE0FFF1FBF
:10510000BB1F661F771F881F91505040A9F79E3F15
:10511000510580F00C94A1280C94EC285F3FE4F337
:10512000983ED4F3869577956795B795F795E7956B
:105130009F5FC1F7FE2B880F911D9695879597F974
:10514000089597F99F6780E870E060E008959FEF09
:1051500080EC089500240A9416161706180609060E
:10516000089500240A9412161306140605060895DD
:10517000092E0394000C11F4882352F0BB0F40F465
:10518000BF2B11F460FF04C06F5F7F4F8F4F9F4FA5
:10519000089557FD9058440F551F59F05F3F71F027
:1051A0004795880F97FB991F61F09F3F79F087958E
:1051B0000895121613061406551FF2CF4695F1DF17
:1051C00008C0161617061806991FF1CF86957105A7
:1051D000610508940895E894BB2766277727CB01DB
:1051E00097F90895F999FECF92BD81BDF89A992754
:1051F00080B50895262FF999FECF1FBA92BD81BDC3
:1052000020BD0FB6F894FA9AF99A0FBE0196089548
:10521000052E97FB1EF400940E941F2957FD07D00E
:105220000E94712907FC03D04EF40C941F2950955D
:105230004095309521953F4F4F4F5F4F0895909582
:105240008095709561957F4F8F4F9F4F08950E9475
:105250009329A59F900DB49F900DA49F800D911D43
:1052600011240895B7FF0C9427290E942729821B37
:10527000930B08952F923F924F925F926F927F927D
:105280008F929F92AF92BF92CF92DF92EF92FF9256
:105290000F931F93CF93DF93CDB7DEB7CA1BDB0B02
:1052A0000FB6F894DEBF0FBECDBF09942A883988A7
:1052B00048885F846E847D848C849B84AA84B984AE
:1052C000C884DF80EE80FD800C811B81AA81B981BA
:1052D000CE0FD11D0FB6F894DEBF0FBECDBFED01CE
:1052E0000895A1E21A2EAA1BBB1BFD010DC0AA1F27
:1052F000BB1FEE1FFF1FA217B307E407F50720F03F
:10530000A21BB30BE40BF50B661F771F881F991FB9
:105310001A9469F760957095809590959B01AC0102
:10532000BD01CF010895A29FB001B39FC001A39F0B
:10533000700D811D1124911DB29F700D811D1124CE
:10534000911D0895DB018F939F930E942729BF91A0
:10535000AF91A29F800D911DA39F900DB29F900DC4
:1053600011240895991B79E004C0991F961708F03D
:10537000961B881F7A95C9F780950895AA1BBB1BB9
:1053800051E107C0AA1FBB1FA617B70710F0A61B45
:10539000B70B881F991F5A95A9F780959095BC0166
:1053A000CD010895EE0FFF1F0590F491E02D0994B3
:1053B0005058BB27AA270E94F0290C94B8280E94B5
:1053C000AA2838F00E94B12820F039F49F3F19F440
:1053D00026F40C94A7280EF4E095E7FB0C94A12882
:1053E000E92F0E94C92858F3BA1762077307840788
:1053F000950720F079F4A6F50C94EB280EF4E095CF
:105400000B2EBA2FA02D0B01B90190010C01CA017E
:10541000A0011124FF27591B99F0593F50F4503E29
:1054200068F11A16F040A22F232F342F4427585F1B
:10543000F3CF469537952795A795F0405395C9F733
:105440007EF41F16BA0B620B730B840BBAF09150EB
:10545000A1F0FF0FBB1F661F771F881FC2F70EC08A
:10546000BA0F621F731F841F48F48795779567955D
:10547000B795F7959E3F08F0B0CF9395880F08F049
:105480009927EE0F9795879508950E94592A0C94B5
:10549000B8280E94B12858F00E94AA2840F029F4A8
:1054A0005F3F29F00C94A12851110C94EC280C9426
:1054B000A7280E94C92868F39923B1F3552391F3D3
:1054C000951B550BBB27AA2762177307840738F073
:1054D0009F5F5F4F220F331F441FAA1FA9F335D0D0
:1054E0000E2E3AF0E0E832D091505040E695001C84
:1054F000CAF72BD0FE2F29D0660F771F881FBB1F3E
:10550000261737074807AB07B0E809F0BB0B802D1B
:10551000BF01FF2793585F4F3AF09E3F510578F047
:105520000C94A1280C94EC285F3FE4F3983ED4F34C
:10553000869577956795B795F7959F5FC9F7880F1B
:10554000911D9695879597F90895E1E0660F771F6D
:10555000881FBB1F621773078407BA0720F0621BFE
:10556000730B840BBA0BEE1F88F7E09508950E9429
:10557000BE2A6894B1110C94EC2808950E94D12899
:1055800088F09F5798F0B92F9927B751B0F0E1F004
:10559000660F771F881F991F1AF0BA95C9F714C0B4
:1055A000B13091F00E94EB28B1E008950C94EB2803
:1055B000672F782F8827B85F39F0B93FCCF38695ED
:1055C00077956795B395D9F73EF49095809570954A
:1055D00061957F4F8F4F9F4F08950E94102808F4C8
:1055E0008FEF089519F416F40C94A7280C94382B17
:1055F0000E94D128B8F39923C9F3B6F39F57550BEE
:1056000087FF0E94462B0024A0E640EA90018058C4
:105610005695979528F4805C660F771F881F20F0B9
:1056200026173707480730F4621B730B840B2029B9
:1056300031294A2BA69517940794202531254A270E
:1056400058F7660F771F881F20F02617370748077F
:1056500030F4620B730B840B200D311D411DA0959E
:1056600081F7B901842F9158880F969587950895F1
:105670009F3F31F0915020F4879577956795B795C6
:10568000880F911D9695879597F9089591505040F0
:10569000660F771F881FD2F70895AEE0B0E0E3E50C
:1056A000FBE20C9448290D891E8986E08C831A83BD
:1056B00009838FEF9FE79E838D83AE01475E5F4F27
:1056C0006F89788DCE0101960E94702B2F813885CD
:1056D000020F131FF80110822E96E4E00C94642947
:1056E000ABE0B0E0E6E7FBE20C943A297C013B0139
:1056F0008A01FC0117821682838181FFC8C1CE0115
:1057000001965C01F7019381F30193FD859193FF6D
:1057100081913F01882309F453C1853239F493FD07
:10572000859193FF81913F01853229F4B70190E083
:105730000E94602DE7CF912C212C312CFFE1F31535
:1057400038F08B3211F190F4803209F1833229F173
:1057500037FC3CC020ED280F2A3050F536FE20C023
:105760008AE0989E200D1124922E06C08D3291F071
:10577000803371F7689430F8F30193FD859193FFBE
:1057800081913F018111DACF21C0689431F868948A
:1057900032F8F2CF689433F8EFCF689434F8ECCF56
:1057A000EAE02E9E200D1124222E689435F8E4CFD5
:1057B0008E3229F436FC04C1689436F8DDCF8C367D
:1057C00019F4689437F8D8CF8836B1F2982F9F7DB6
:1057D00095549330E0F08336A1F18337C1F18335DE
:1057E00009F063C02801F2E04F0E511CF801C0809F
:1057F000D180692D70E036FC02C06FEF7FEFC601EB
:105800000E944A2D4C01689437F882010AC00C5F4F
:105810001F4FFFE3F98388248394912C6501E8945A
:1058200037F833FE2DC0522C8114910471F55520A8
:1058300009F468CFB70180E290E00E94602D5A948D
:10584000F6CFF801808189830E5F1F4FE4CF2801D6
:10585000F2E04F0E511CF801C080D180692D70E03C
:1058600036FC02C06FEF7FEFC6010E94552D4C0140
:105870008201D5CFB70180E290E00E94602D2A948A
:105880002814190409F0B0F7CECFF60137FC859142
:1058900037FE81916F01B70190E00E94602D511099
:1058A0005A94F1E08F1A9108BFCF843619F08936E7
:1058B00009F077C0F80137FE6BC060817181828189
:1058C00093810C5F1F4FF32DFF763F2E97FF09C08A
:1058D00090958095709561957F4F8F4F9F4F6894FD
:1058E00037F82AE030E0A5010E94902DC82ECA1892
:1058F0008C2C432C36FE0CC0E89440F8C91440F4BC
:1059000034FE05C032FC03C0F32DFE7E4F2E892CE1
:1059100044FE95C0FE01EC0DF11D8081803309F03D
:1059200087C0242D297E422E842D8870582E43FC5A
:1059300095C040FE8FC09C2C821418F42C0C922C25
:10594000981844FE91C0B70180E390E00E94602D5A
:1059500042FE09C088E790E041FE02C088E590E081
:10596000B7010E94602DC91408F48AC0CA94D12CD2
:105970009FEFC91AD90ACA0CDB1CF60182916F018C
:10598000B70190E00E94602DAC14BD04B1F74FCF79
:1059900060817181072E000C880B990B0E5F1F4FE1
:1059A00092CFD32CE894D4F82AE030E0853739F14F
:1059B000232D297FD22E8F3601F148F48835A9F0A6
:1059C000F701868197812B96E2E10C945629803766
:1059D00049F08837A9F7D4FE02C06894D2F820E1D4
:1059E00030E00DC06894D4F8F6CF34FE03C0822FA7
:1059F0008660D82E20E132E002C028E030E0F801D5
:105A0000D7FE0FC060817181828193810C5F1F4F2F
:105A1000A5010E94902DC82ECA183D2CE89437F895
:105A200067CF6081718190E080E00E5F1F4FF0CF03
:105A300042FC02C0839478CF8394839475CF842DE5
:105A4000867809F471CFF6CFB70180E290E00E942A
:105A5000602D83948214C0F3512C73CF522C5818AC
:105A6000821408F46ECFF8CF842D867809F47BCFAA
:105A70008BE241FE80E247FC8DE2B70190E071CFFE
:105A8000B70180E390E00E94602D9A946CCF8FEF75
:105A90009FEF99CFFC010590615070400110D8F73D
:105AA000809590958E0F9F1F0895FC016150704066
:105AB00001900110D8F7809590958E0F9F1F089543
:105AC0000F931F93CF93DF93182F092FEB018B8137
:105AD00081FD09C01FEF0FEF812F902FDF91CF9134
