:100000000C9475000C949D000C949D000C949D0024
:100010000C949D000C949D000C949D000C949D00EC
:100020000C949D000C949D000C949D000C94451E16
:100030000C949D000C949D000C949D000C949D00CC
:100040000C94FB1D0C949D000C94C91D0C94A31DD5
:100050000C949D000C949D000C949D000C949D00AC
:100060000C94011F0C949D004F4B004F4B004F4BC5
:10007000002000526F636B732100200020004D6F41
:100080006269666C69676874006E2F610000000029
:1000900000240027002A0000000000250028002B73
:1000A00000000000002300260029000404040404CA
:1000B0000404040202020202020303030303030115
:1000C00002040810204080010204081020010204EC
:1000D00008102000000008000201000003040700CF
:1000E0000000000000000000202011241FBECFEF00
:1000F000D8E0DEBFCDBF12E0A0E0B1E0EAEBFEE564
:1001000002C005900D92AA38B107D9F727E0AAE8F6
:10011000B2E001C01D92A53AB207E1F710E0C5E7D1
:10012000D0E004C02197FE010E94B32AC437D10752
:10013000C9F70E9477210C945B2F0C940000AC014E
:100140001092D2069091620780916107FA01BF0177
:10015000641B750B2081222389F03091D2062093F5
:10016000D206291304C0931302C01092D206208134
:10017000281302C0931302C03196E9CFCB01089532
:100180000F931F93CF93DF9380915607882309F431
:1001900046C0D0E0C0E0813029F482E08093560769
:1001A000C6EDD6E080915707882341F1209721F4CE
:1001B000C0915B07D0915C078E01CE010E949F0029
:1001C000892B29F42196F80180818111F5CFF8015E
:1001D0008081882309F1C8010E949F00F801E80F7F
:1001E000F91F8081882311F010823196F0935C070B
:1001F000E0935B0710935A070093590780915907C2
:1002000090915A07892B59F081E080935707DF912D
:10021000CF911F910F91089510E000E0EBCF80E0A7
:10022000F6CF0E94C000882351F081E080935707E9
:10023000809358078091590790915A07089510921A
:10024000580790E080E00895DC01ED91FC91019069
:10025000F081E02D0994EF92FF920F931F93CF93BB
:10026000DF938C017B01D0E0C0E0F701EC0FFD1FB4
:100270006491662361F0D801ED91FC910190F081C9
:10028000E02DC8010995892B11F02196EECFCE0102
:10029000DF91CF911F910F91FF90EF900895AF9252
:1002A000BF92CF92DF92EF92FF920F931F93CF9363
:1002B000DF936C017B018B01040F151FEB015E01C5
:1002C000AE18BF08C017D10759F06991D601ED915A
:1002D000FC910190F081E02DC6010995892B79F7F9
:1002E000C501DF91CF911F910F91FF90EF90DF90AB
:1002F000CF90BF90AF900895FC01538D448D252F72
:1003000030E0842F90E0821B930B541710F0CF96AF
:10031000089501970895FC01918D828D981761F0E1
:10032000A28DAE0FBF2FB11D5D968C91928D9F5FF8
:100330009F73928F90E008958FEF9FEF0895FC01D7
:10034000918D828D981731F0828DE80FF11D858D8A
:1003500090E008958FEF9FEF0895FC01918D228D1D
:10036000892F90E0805C9F4F821B91098F739927A2
:10037000089580E396E00E94AD0121E0892B09F405
:1003800020E0822F089580E090E0892B29F00E94E0
:10039000B90181110C9400000895FC01A48DA80FEF
:1003A000B92FB11DA35ABF4F2C91848D90E00196B7
:1003B0008F739927848FA689B7892C93A089B189D7
:1003C0008C91837080648C93938D848D981306C078
:1003D0000288F389E02D80818F7D80830895EF92DC
:1003E000FF920F931F93CF93DF93EC0181E0888FEF
:1003F0009B8D8C8D98131AC0E889F989808185FFBF
:1004000015C09FB7F894EE89FF896083E889F98960
:1004100080818370806480839FBF81E090E0DF9162
:10042000CF911F910F91FF90EF900895F62E0B8DB5
:1004300010E00F5F1F4F0F731127E02E8C8D8E1170
:100440000CC00FB607FCFACFE889F989808185FFD7
:10045000F5CFCE010E94CD01F1CFEB8DEC0FFD2F3A
:10046000F11DE35AFF4FF0829FB7F8940B8FEA8992
:10047000FB8980818062CFCFCF93DF93EC01888DA1
:100480008823B9F0AA89BB89E889F9898C9185FD0F
:1004900003C0808186FD0DC00FB607FCF7CF8C919D
:1004A00085FFF2CF808185FFEDCFCE010E94CD0187
:1004B000E9CFDF91CF910895833081F028F4813026
:1004C00099F08230A9F008958730A9F08830C9F0FA
:1004D0008430B1F4809180008F7D03C080918000D2
:1004E0008F7780938000089584B58F7784BD0895B9
:1004F00084B58F7DFBCF8091B0008F778093B00063
:1005000008958091B0008F7DF9CFCF93DF93282F8E
:1005100030E0F901ED52FF4F8491F901E154FF4FB2
:10052000D491F901E555FF4FC491CC23A1F081117D
:100530000E945C02EC2FF0E0EE0FFF1FEF55FF4F23
:10054000A591B491EC91ED2381E090E009F480E075
:10055000DF91CF91089580E090E0FACF1F93CF9381
:10056000DF93282F30E0F901ED52FF4F8491F9011C
:10057000E154FF4FD491F901E555FF4FC491CC23CD
:10058000A9F0162F81110E945C02EC2FF0E0EE0F13
:10059000FF1FE956FF4FA591B4918FB7F894EC91E6
:1005A000111108C0D095DE23DC938FBFDF91CF916E
:1005B0001F910895DE2BF8CFCF93DF9390E0FC01DD
:1005C000E154FF4F249185559F4FFC01849188236E
:1005D000C9F090E0880F991FFC01E357FF4FA591E8
:1005E000B491FC01E956FF4FC591D49161110DC042
:1005F0009FB7F8948C91209582238C93888128232F
:1006000028839FBFDF91CF910895623051F49FB747
:10061000F8943C91822F809583238C93E8812E2B34
:10062000EFCF8FB7F894EC912E2B2C938FBFEACF9E
:100630001F93CF93DF93182FEB0161E00E94DC0240
:10064000209739F460E0812FDF91CF911F910C94B6
:10065000AE02CF3FD10511F461E0F5CFE12FF0E01C
:10066000ED52FF4FE491E33031F140F4E130B1F06D
:10067000E230E1F0C038D1057CF7E4CFE73029F172
:10068000E83059F1E430B1F78091800080628093C6
:100690008000D0938B00C0938A0004C084B580682A
:1006A00084BDC7BDDF91CF911F91089584B580624D
:1006B00084BDC8BDF7CF80918000806880938000A2
:1006C000D0938900C0938800EDCF8091B0008068FE
:1006D0008093B000C093B300E5CF8091B0008062FA
:1006E0008093B000C093B400DDCF8E3008F08E5000
:1006F0008770806480937C0080917A00806480930E
:100700007A0080917A0086FDFCCF809178009091EC
:10071000790008953FB7F89480916604909167043A
:10072000A0916804B091690426B5A89B05C02F3F2D
:1007300019F00196A11DB11D3FBFBA2FA92F982F07
:100740008827BC01CD01620F711D811D911D42E002
:10075000660F771F881F991F4A95D1F708958F92CA
:100760009F92AF92BF92CF92DF92EF92FF924B0196
:100770005C010E948A036B017C010E948A036C1950
:100780007D098E099F09683E734081059105A8F394
:1007900021E0821A9108A108B10888EEC80E83E012
:1007A000D81EE11CF11C81149104A104B10429F7A5
:1007B000FF90EF90DF90CF90BF90AF909F908F9081
:1007C00008952FB7F894609162047091630480914A
:1007D0006404909165042FBF08951F93CF93DF9316
:1007E000EC01162F688385E090E098878F8360E0A6
:1007F000812F0E94DC0261E0812F0E94AE020E94E4
:10080000E1036B837C838D839E8388810E948502B4
:1008100021E0892B09F420E02A832983DF91CF91FD
:100820001F9108950895CF93DF93FC012281222325
:1008300059F1EC0161E083810E94DC0261E08C816E
:100840000E94DC028A81843011F08830B1F461E0CA
:100850008D810E94DC0261E08E810E94DC028EA507
:100860008F3F91F061E00E94DC026DA581E0682776
:100870008EA5DF91CF910C94AE02833011F08630BB
:1008800071F761E08D81E9CFDF91CF910895CF932A
:10089000DF93FC0122812223A9F0EC010190F08179
:1008A000E02D0480F581E02D60E009958EA58F3F55
:1008B00049F061E00E94DC026DA58EA5DF91CF9129
:1008C0000C94AE02DF91CF910895DC01ED91FC9183
:1008D0002481358147705527662777274150510974
:1008E00061097109473051056105710560F4FA012C
:1008F000E458FB4F0C94B32A860488048A048C04C1
:100900008E049004920461E0F901099465E0FCCF43
:1009100064E0FACF66E0F8CF62E0F6CF6AE0F4CFA9
:1009200068E0F2CF69E0F0CFCF93DF93EC01CB0129
:10093000BA0126E030E040E050E00E94E328623057
:1009400071058105910589F16CF4611571058105C9
:100950009105D1F06130710581059105F9F0DF91C4
:10096000CF910895643071058105910561F124F1FD
:10097000653071058105910591F7E881F981048061
:10098000F581E02D66E006C0E881F9810480F581FB
:10099000E02D64E0CE01DF91CF910994E881F981E7
:1009A0000480F581E02D65E0F5CFE881F9810480D0
:1009B000F581E02D61E0EECFE881F9810480F581D9
:1009C000E02D63E0E7CFE881F9810480F581E02D37
:1009D00062E0E0CFDC01ED91FC910480F581E02D37
:1009E0004370552766277727423051056105710509
:1009F00071F0433051056105710559F041305105E1
:100A00006105710511F065E0099466E0FDCF6AE0CB
:100A1000FBCF69E0F9CFCF93DF93EC01CB01BA01B3
:100A200023E030E040E050E00E94E32861307105AF
:100A30008105910599F06230710581059105A9F054
:100A4000672B682B692BC1F4E881F9810480F5815B
:100A5000E02D64E0CE01DF91CF910994E881F98126
:100A60000480F581E02D61E0F5CFE881F981048013
:100A7000F581E02D62E0EECFDF91CF910895DC01AA
:100A8000ED91FC910480F581E02D43705527662798
:100A90007727423051056105710571F043305105EA
:100AA0006105710559F0413051056105710511F07D
:100AB00062E0099463E0FDCF61E0FBCF60E0F9CF35
:100AC0000F931F93CF93DF93EC01E881F9810480AA
:100AD000F581E02D8C010D5B1F4FD8018C9160E0FA
:100AE000811162E0CE010995E881F9810480F581E8
:100AF000E02DD8018C9161E0811163E0CE01099570
:100B00008BA59CA58230910538F0880F991F880F1E
:100B1000991F05970197F1F7E881F9810480F58124
:100B2000E02DD8018C9160E0811162E0CE01DF916F
:100B3000CF911F910F910994CF93DF93EC0120E0A7
:100B400030E0A9016B897C898D899E890E94922A57
:100B500018162CF4EFA5F8A9DF91CF910994E9A913
:100B6000FAA9FACFCF92DF92EF92FF920F931F93E1
:100B7000CF93DF93DC011296CC91C43039F0C830AA
:100B800059F1C33019F0C63049F1C2E08C010D5F54
:100B90001F4FF12CE12CC62ED12CD1E0F80164813D
:100BA000C6010E2C02C0959587950A94E2F780FD48
:100BB0006D270F5F1F4F80810E94AE02BFEFEB1ABF
:100BC000FB0AEC1658F3DF91CF911F910F91FF9024
:100BD000EF90DF90CF900895C4E0D8CFC3E0D6CF98
:100BE000DC011296EC911297E93008F038C0F0E081
:100BF000E450FA4F0C94B32A05060B0611061706AB
:100C00001D062F0623062F062906ED91FC91008470
:100C1000F185E02D0994ED91FC910284F385E02D9E
:100C2000F9CFED91FC910484F585E02DF3CFED91A2
:100C3000FC910684F785E02DEDCFED91FC910088C5
:100C4000F189E02DE7CFED91FC910288F389E02D49
:100C5000E1CFED91FC910488F589E02DDBCF08957B
:100C60004F925F926F927F928F929F92AF92BF92BC
:100C7000CF92DF92EF92FF920F931F93CF93DF9368
:100C8000EC018F849888A988BA888B859C85AD856E
:100C9000BE85881A990AAA0ABB0A6B897C898D8944
:100CA0009E899B01AC010E94FD276B017C016B8D2D
:100CB0007C8D8D8D9E8D9B01AC010E947E299B01B8
:100CC000AC01C701B6010E94EA290E945C2A811486
:100CD0009104A104B10409F0B0C06230710581052E
:100CE00091050CF0CDC01BA21CA21DA21EA21B8A46
:100CF0001C8A1D8A1E8A1BAA1CAA1DAA1EAADF9175
:100D0000CF911F910F91FF90EF90DF90CF90BF9008
:100D1000AF909F908F907F906F905F904F900895CD
:100D20001016110612061306B4F4681579058A0523
:100D30009B051CF420812111A3C09B01AC018827D5
:100D40009927DC01821B930BA40BB50B8BAB9CABDF
:100D5000ADABBEAB95C0011511052105310509F4F8
:100D60008FC0681579058A059B050CF089C08081C4
:100D7000882309F485C030952095109501951F4F63
:100D80002F4F3F4F0BAB1CAB2DAB3EAB79C00115CA
:100D900011052105310509F473C0CC24DD24760149
:100DA000C818D908EA08FB086C157D058E059F0553
:100DB0000CF066C08081811163C0DDCF8BAC9CAC30
:100DC000ADACBEACA5019401C501B4010E947E2961
:100DD0002B013C01C701B6010E949E2720E030E0B4
:100DE00040E850E40E94FD2720E030E040E85FE367
:100DF0000E947E299B01AC01C301B2010E94EA2935
:100E00009B01AC01C501B4010E947D292B013C016D
:100E1000FE01FF9680809180A280B3809401A5019D
:100E20000E94922A181614F442015301C401D501FC
:100E30008BAF9CAFADAFBEAF41C00BA91CA92DA914
:100E40003EA9FE01ED5BFF4F181419041A041B04A0
:100E50000CF466CF10161106120613060CF097CF8D
:100E6000002711279801081919092A093B09601759
:100E70007107820793070CF060CF208121115DCFAD
:100E8000CBA8DCA8EDA8FEA88E010D5B1F4FC114F6
:100E9000D104E104F10409F091CF8FA998ADA9AD77
:100EA000BAAD8BAF9CAFADAFBEAF81E018141904E3
:100EB0001A041B040CF080E0F8018083FFEFCF1AC6
:100EC000DF0AEF0AFF0ACBAADCAAEDAAFEAACBAC86
:100ED000DCACEDACFEACC701B6010E94632A6BA38B
:100EE0007CA38DA39EA3A701960160E074E284E732
:100EF00099E40E94EA296B8B7C8B8D8B9E8BF80189
:100F000020812111FCCE90586B8B7C8B8D8B9E8B1E
:100F1000F6CEFC01DC01A85BBF4F8C918823D1F099
:100F20008181811117C081E0818381899289A389A0
:100F3000B48980369947AE4FBF4F61F080E699E79C
:100F4000AEEFBFEF818B928BA38BB48BCF01029658
:100F50000C9430060895CF93DF9381112AC020911D
:100F60000F0430E0ABE0B4E090E080E0821793073C
:100F700004F5ED91FD91EF01CA5BDF4F4A816413E7
:100F80001BC081818823A9F0158616861786108AD2
:100F9000118A128A138A148A15AA16AA17AA10AEE1
:100FA00015A216A217A210A6158A168A178A108EE5
:100FB0001182DF91CF9108950196D8CFDC0113966D
:100FC0008C91139781110CC01896ED91FC91199793
:100FD000309731F04D915C91119712966C91099474
:100FE0001A96ED91FC911B97309739F04D915C91D9
:100FF000119712966C9181E0F2CF08950F931F9391
:10100000CF93DF93C0ECD5E010E000E0809177044F
:101010008017110639F0CE010E94DE070F5F1F4FC7
:101020002C96F4CFDF91CF911F910F910895CF921D
:10103000DF92EF92FF92CF93DF93EC010E94E103E6
:101040006B017C018C819D81AE81BF81A7019601DE
:10105000281B390B4A0B5B0BDA01C9010B97A10561
:10106000B105C0F08A810E948502CC82DD82EE82C9
:10107000FF829B81981771F091E0811101C090E08F
:101080009B83CE01DF91CF91FF90EF90DF90CF90C7
:101090000C94DE07DF91CF91FF90EF90DF90CF901F
:1010A0000895CF93DF93EC016A835983488381E0ED
:1010B0008B830E94E1036C837D838E839F8360E03A
:1010C0008A810E94DC0261E08A81DF91CF910C94D9
:1010D000AE022091E603260F3327331F213231055C
:1010E000ECF420913704FC0190E080E0243069F0BA
:1010F00082E00895A091E6032191AC014C535C4F2E
:10110000A40FB52FB11D2C930196861798F38091EB
:10111000E603680F6093E60380E0089581E0089598
:101120001092370481E0809336041092110461E03C
:1011300082E10E94AE0261E083E10E94AE02E9EB2F
:10114000F0E080818E7F808380818D7F808388E442
:101150008093B80085E48093BC000895CF93DF931B
:1011600091E09093C3038823B9F0C091B800D09167
:10117000BA008091BC008A7B8093BC0060E082E171
:101180000E94AE0260E083E10E94AE020E949008DD
:10119000D093BA00C093B800DF91CF91089508951D
:1011A00008950895E091C2038091C103E81730F4D7
:1011B000F0E0EF55FC4F808190E008958FEF9FEFB6
:1011C00008959091C2038091C1032FEF3FEF9817CC
:1011D00048F4E92FF0E0EF55FC4F208130E09F5FAD
:1011E0009093C203C90108958091C1039091C203F5
:1011F000891B990B0895CF92DF92EF92FF920F9384
:101200001F93CF93DF937C01CB018A0120913D0492
:10121000222389F0EB016B01C40ED51ECC15DD0530
:1012200069F06991D701ED91FC910190F081E02D79
:10123000C7010995F3CF642F0E946908C801DF91A7
:10124000CF911F910F91FF90EF90DF90CF90089575
:10125000CF93DF931F92CDB7DEB7698320913D0412
:101260002223F9F020916004203258F021E030E090
:10127000FC013383228390E080E00F90DF91CF91D7
:10128000089580913E04E82FF0E0E15CFB4F9981E6
:1012900090838F5F80933E048093600481E090E0B0
:1012A000ECCF61E0CE0101960E946908F7CFCF92A2
:1012B000DF92EF92FF920F931F93CF93DF93FC0186
:1012C000C48121E020933D04C0935F0410923E044A
:1012D000109260048385682B89E794E00E942809B6
:1012E000D0916004D13208F092C00E948A036B0151
:1012F0007C0180913704811165C082E080933704BE
:1013000081E0809336048FEF80933504109234048B
:10131000D0933304AFE3B4E0E3E1F4E080E0D8132A
:1013200085C01092120480911204CC0FC82BC09378
:10133000120480911104813009F07CC010921104D4
:101340000E948A036B017C01809112048093BB0090
:101350008091390490913A04A0913B04B0913C04EF
:10136000892B8A2B8B2B99F00E948A0300913904D8
:1013700010913A0420913B0430913C046C197D0992
:101380008E099F090617170728073907E0F1809192
:10139000BC0083FDD9CF85EC8093BC000E948A03FA
:1013A0006B017C0180913704823009F445C0809143
:1013B00035048F3F61F180913504803241F1809195
:1013C000350425C08091390490913A04A0913B04E2
:1013D000B0913C04892B8A2B8B2B09F48ACF0E9475
:1013E0008A030091390410913A0420913B04309112
:1013F0003C046C197D098E099F09061717072807F9
:10140000390708F076CF809138040E94AE08109218
:101410003E041092600410923D04DF91CF911F9121
:101420000F91FF90EF90DF90CF9008959D91919351
:101430008F5F75CF85EEB0CF8091390490913A04DB
:10144000A0913B04B0913C04892B8A2B8B2B09F48F
:10145000A9CF0E948A030091390410913A04209187
:101460003B0430913C046C197D098E099F090617D5
:1014700017072807390708F095CFC5CF90E080E01F
:1014800008958F929F92AF92BF92CF92DF92EF9288
:10149000FF921F93CF93DF93EC01162F0E94E1037D
:1014A000C98CDA8CEB8CFC8C4B015C018C189D0890
:1014B000AE08BF08CD8CDE8C0D2C000CEE08FF08AA
:1014C0008C149D04AE04BF04C4F0288D34E0239F27
:1014D000F0011124EC0FFD1F108211821282138281
:1014E0002F5F288F6487758786879787698F7A8FA4
:1014F0008B8F9C8F233008F0188E1123B9F0FE01DA
:101500009E01245F3F4FC190D190E190F190DF01A7
:1015100014974FEFC41AD40AE40AF40ACD92DD926C
:10152000ED92FC9213972E173F0769F7E88D54E070
:10153000E59FF0011124EC0FFD1FC484D584E684DF
:10154000F7849B01AC012C193D094E095F09690123
:101550007A0160817181828193810E949E2720E0BF
:1015600030E04AE754E40E94FD274B015C01C701CB
:10157000B601161617061806190624F061E070E089
:1015800080E090E00E949E279B01AC01C501B40160
:101590000E94EA296F8F78A389A39AA3DF91CF9144
:1015A0001F91FF90EF90DF90CF90BF90AF909F90F2
:1015B0008F9008958F929F92AF92BF92CF92DF92B9
:1015C000EF92FF920F931F93CF93DF93EC018881EB
:1015D0000E948502BB24B394892B09F4B12C0E948C
:1015E000E1032A812983CB80DC80ED80FE800F819E
:1015F00018852B1519F19B01AC012C193D094E09D9
:101600005F0969017A01012E000C220B330BC01611
:10161000D106E206F3060CF0BA826B837C838D83DD
:101620009E83DF91CF911F910F91FF90EF90DF90FC
:10163000CF90BF90AF909F908F900895012E000C97
:10164000220B330B4B015C018C189D08AE08BF08C0
:1016500075016401C016D106E206F30614F3601B9F
:10166000710B820B930B6150710981099109D5CFE0
:101670005F926F927F928F929F92AF92BF92CF9222
:10168000DF92EF92FF920F931F93CF93DF93CDB72B
:10169000DEB7CB55D1090FB6F894DEBF0FBECDBF74
:1016A0007090760492E0791609F4E4C0E82FF0E037
:1016B000DF01AD56BC4F5D019C919111DBC0E62F5F
:1016C000F0E0DF01AD56BC4F6D019C919111D2C08D
:1016D000642E562E682FFE01349687E4DF011D929A
:1016E0008A95E9F780E092E06C969FAF8EAF6C9799
:1016F0001B828BE5879D7001112487010A5F1A4FB9
:101700003397D80101900D928A95E1F74801BCE426
:101710008B0E911CF4011082118212821382329777
:1017200031832083D8016C9311965C923E9640835E
:10173000C701875F9A4F0E94ED03652DC7018E5E3A
:101740009A4F0E94ED03F801158A178A168A118EA6
:10175000108E128E138E148E158E88EE93E0A0E0FC
:10176000B0E0868F978FA0A3B1A3D701A85DBA4F31
:1017700085E0869DF0011124EF59FE4F01900D92F6
:101780008A95E1F70E94E103F801E05CFF4F608376
:10179000718382839383D80197961D921D921D9227
:1017A0001C929A97F80163AB74AB85AB96AB9B9692
:1017B0001D921D921D921C929E9767AB70AF81AFD8
:1017C00092AF9F961D921D921D921C92D29763AF6D
:1017D00074AF85AF96AF17AEEC5BFF4F86EA90E033
:1017E0009183808380E090E8AFEFBFEFF801828FB4
:1017F000938FA48FB58F8FEF9FE7A0E0B0E0868F27
:10180000978FA0A3B1A3D4014D915C9186A1FA0159
:1018100002C0F595E7958A95E2F7CF01D801569673
:101820002D913C91579723703327822B932B5796FA
:101830009C938E93569759965C934E93589781E05C
:1018400012968C93F801E05BFF4F8AE092E191835E
:1018500080833296918380833296918380833296FF
:101860009183808388E0F5018083D6018C93739403
:1018700070927604C55ADF4F0FB6F894DEBF0FBEE4
:10188000CDBFDF91CF911F910F91FF90EF90DF902F
:10189000CF90BF90AF909F908F907F906F905F9010
:1018A0000895E3E9F3E09191981303C0DF011197E4
:1018B0001C9293E0E13AF907B1F708950E94C00045
:1018C000882359F081E080935707809358078091CF
:1018D000590790915A070C940E271092580790E0E0
:1018E00080E00895CF930E945E0CC82F0E945E0C8A
:1018F000BC018C2F0E9418030E94E10360936A04CC
:1019000070936B0480936C0490936D04CF91089551
:101910008F929F92AF92BF92CF92DF92EF92FF92FF
:101920000F931F93CF93DF930E945E0C8C010E9454
:101930005E0CBC0180916F048017110609F00CF455
:10194000BFC08BE1809FE001819FD00D1124C05367
:10195000DB4FCD80DE800D2C000CEE08FF08898067
:101960009A80092C000CAA08BB082F813885032E09
:10197000000C440B550B2C193D094E095F09072E2D
:10198000000C880B990B681979098A099B090E9438
:10199000972A2B813C81032E000C440B550B2819F0
:1019A00039094A095B090E94E328BA01A9014C0DD3
:1019B0005D1D6E1D7F1D052E000C660B770B8D8542
:1019C0009E85AF85B88984179507A607B70709F4E0
:1019D0006DC04D875E876F87788B8985811166C062
:1019E0008A858C3008F058C0F88061E08F2D0E9405
:1019F000DC028A85282F30E0F901EE0FFF1FE20F8D
:101A0000F31FE957FB4F2F2D2F739081907C922B62
:101A100090831B861C862CE0622F0E94A72A829F3F
:101A2000B001112430E020E0AB01420F531FFA0156
:101A3000EE0FFF1FE40FF51FE957FB4F908196FD56
:101A400016C02F5F3F4F2C30310571F781110FC049
:101A50001092800082E080938100109285001092A5
:101A60008400B19A80916F00826080936F008BE157
:101A7000809FF001819FF00D1124E053FB4FE28520
:101A80008E2F90E0FC01EE0FFF1FE80FF91FE957C2
:101A9000FB4F8081806480838BE1809FF001819F78
:101AA000F00D1124E053FB4F81E081870E94E10398
:101AB00060936A0470936B0480936C0490936D043C
:101AC000DF91CF911F910F91FF90EF90DF90CF901A
:101AD000BF90AF909F908F9008950E945E0C2091D0
:101AE000740428171906A1F09CF0880F991FFC01B7
:101AF000E059FB4F808191810E9489070E94E10398
:101B000060936A0470936B0480936C0490936D04EB
:101B100008950E945E0C209174042817190639F16B
:101B200034F1880F991FFC01E059FB4F0190F081BF
:101B3000E02D158616861786108A118A128A138A56
:101B4000148A15AA16AA17AA10AE15A216A217A2D1
:101B500010A6158A168A178A108E0E94E1036093D8
:101B60006A0470936B0480936C0490936D040895E1
:101B70000F931F93CF938C01C62F0E9457096C2F90
:101B80006460C8010E9457096C2F6B7FC8010E94D6
:101B9000570983EC90E00197F1F7CF911F910F91D6
:101BA00008950F931F93CF93DF938C01D62FC42FEB
:101BB000607F642B0E94B80D80E1D89FB001112492
:101BC0006C2BC801DF91CF911F910F910C94B80D30
:101BD000CF93DF93CDB7DEB728970FB6F894DEBF6B
:101BE0000FBECDBF28E0E9E5F1E0DE0111960190DE
:101BF0000D922A95E1F7FC012185261710F46FEF6D
:101C0000620F70E0660F771F21E030E02C0F3D1F60
:101C1000620F731FFB016081606840E028960FB679
:101C2000F894DEBF0FBECDBFDF91CF910C94D10DE4
:101C300041E00E94D10D81E090E008954F925F92C3
:101C40006F927F928F929F92AF92BF92CF92DF92CC
:101C5000EF92FF920F931F93CF93DF9300D0CDB7F6
:101C6000DEB78C0149832A83660F771FF801EA5A91
:101C7000FF4FE080F180EE0CFF1CF801CF01801BCC
:101C8000910B8E159F0514F41192F8CF8981F801FC
:101C9000E60FF71F81838A818083680184E5C80E7F
:101CA000D11C60E0F60180810E94AE025801F2E58D
:101CB000AF0EB11C480180E5880E911C1E141F0454
:101CC0000CF5E1E0EE1AF108F801EE0DFF1D608061
:101CD000F5015080F401408088E0782E662D661F63
:101CE0006627661F842D0E94AE02660C61E0852D7A
:101CF0000E94AE0260E0852D0E94AE027A947110BF
:101D0000EDCFDCCF61E0F60180810F900F90DF9185
:101D1000CF911F910F91FF90EF90DF90CF90BF90E8
:101D2000AF909F908F907F906F905F904F900C94AA
:101D3000AE02CF92DF92EF92FF921F93CF93DF9389
:101D40007C016B01EB0183E0CC0FDD1F8A95E1F78D
:101D50006096CE0DDF1D11E0199220E0412FB601F3
:101D6000C7010E941E0E1F5F1930B1F7DF91CF919E
:101D70001F91FF90EF90DF90CF900895FC01EA5AF9
:101D8000FF4F20813181621773073CF420E041113D
:101D900001C021E04CE00C941E0E0895DF92EF92FA
:101DA000FF920F931F93CF93DF93D82ECCEBD5E008
:101DB000F12CE12C809191028E151F04A9F4C0E250
:101DC000D6E010E000E0809190028017110609F142
:101DD000DD20E1F0198270E060E088810E94180344
:101DE0000F5F1F4F2296EFCF10E08B81811749F0D4
:101DF000612F70E04D2D888199810E94BE0E1F5F7A
:101E0000F4CF8FEFE81AF80A2496D4CF698170E0F6
:101E1000E4CFDF91CF911F910F91FF90EF90DF9072
:101E200008950F931F93CF93DF930E945E0CEC01F4
:101E30000E945E0C8C010E945E0C282FFE01EE0FAA
:101E4000FF1FEE0FFF1FE454FA4F8281882391F0A9
:101E50008381081778F480819181B8017727FC018C
:101E6000EA5AFF4F40815181641775071CF44AE01C
:101E70000E941E0E0E94E10360936A0470936B043B
:101E800080936C0490936D04DF91CF911F910F911B
:101E900008950C94110F0F931F93CF93DF93FC01C0
:101EA000048115810115110539F4FB011082DF91C0
:101EB000CF911F910F91089541505109401751073B
:101EC00008F48A01EB01FC0160817181A801CE0157
:101ED0000E94AB2CC00FD11F1882E9CFCF92DF92A6
:101EE000EF92FF920F931F93CF93DF936C017B01CF
:101EF0008A01D0E0C0E0B6016C0F7D1F41E050E0E8
:101F0000C7018C0F9D1F0E94CB282196C017D107B7
:101F100090F3CE01DF91CF911F910F91FF90EF9041
:101F2000DF90CF900895CF92DF92EF92FF920F93C0
:101F30001F93CF93DF936C017B018A01D0E0C0E057
:101F4000B6016C0F7D1F41E050E0C7018C0F9D1F53
:101F50000E94BB282196C017D10790F3CE01DF91D4
:101F6000CF911F910F91FF90EF90DF90CF90089548
:101F7000FC0180819181009711F00C94552B0895FC
:101F8000FF920F931F93CF93DF9381E00E94510C38
:101F90001092770488E00E94510C109276048AE037
:101FA0000E94510C1092750483E00E94510C109213
:101FB000900284E00E94510C10E000E0C091910278
:101FC000D0E0C017D10789F0CC0FDD1FCC0FDD1F8B
:101FD000C454DA4F8A81882329F0888199810E942C
:101FE000552B1A820F5F1F4FE9CF109291028091FB
:101FF0006F0450E040E0682F70E02BE1829FC00149
:10200000112480539B4FDC0119960A9664177507BB
:10201000A9F02C91222379F0EC01E8812E2F30E0F9
:10202000F901EE0FFF1FE20FF31FE957FB4F20816D
:102030002F7B20831C924F5F5F4FE8CF86E00E948A
:10204000510C10926F04D0E0C0E08091740490E0D5
:102050008C179D0759F0880F991FFC01E059FB4F21
:10206000808191810E94552B2196EFCF89E00E94BB
:10207000510C1092740410E000E086E0F82E80917C
:10208000920290E08017910791F0F89EE001F99E8E
:10209000D00D1124CC53DB4F8A81882329F088810D
:1020A00099810E94552B1A820F5F1F4FE8CF109223
:1020B000920210928F0210928E0210927804DF9199
:1020C000CF911F910F91FF900895FB010190002087
:1020D000E9F73197AF01461B570BDC01ED91FC91FD
:1020E0000280F381E02D09948091CD068823A1F030
:1020F0006091600780915E0790915F070E942401C4
:102100008091D506882341F06CE572E080915E07EE
:1021100090915F070E9465101092D4061092CD0630
:1021200080E008958F929F92AF92BF92EF92FF92BC
:102130000F931F93CF93DF93CDB7DEB7A1970FB661
:10214000F894DEBF0FBECDBF7C01FA01CB0119A20E
:10215000223008F42AE08E010F5D1F4F822E912C51
:10216000B12CA12CBF01A50194010E944C29F901B9
:10217000CA016A300CF5605DD8016E938D01232B86
:10218000242B252B79F790E080E0109721F0BD01FA
:10219000C7010E946510A1960FB6F894DEBF0FBE6E
:1021A000CDBFDF91CF911F910F91FF90EF90BF9026
:1021B000AF909F908F900895695CDECFCF92DF92B1
:1021C000EF92FF92CF93DF936C0160916107809152
:1021D0005E0790915F070E942401C0915E07D09135
:1021E0005F070D2C000CEE08FF082AE0B701A601DE
:1021F000F7FE0CC06DE2CE010E9424014427552752
:10220000BA014C195D096E097F092AE0CE01DF9100
:10221000CF91FF90EF90DF90CF900C94921020918F
:10222000CD06211110C021E02093CD062093D406C5
:10223000AC01990F660B770B2AE080915E079091B5
:102240005F070C9492100895CF93DF932091CD06F1
:1022500021111AC0EB010E940F118091CD06882335
:1022600079F06091610780915E0790915F070E940D
:102270002401BE0180915E0790915F070E942B01AF
:10228000DF91CF910C94741080E0DF91CF9108958D
:102290000E94E10360936A0470936B0480936C0462
:1022A00090936D0469E870E085E090E00C9424114F
:1022B0000E94C00F68E670E085E090E00C94241165
:1022C00040E051E063E972E08BE390E00E946E0F22
:1022D0006BE670E08FE090E00C94241181E0809335
:1022E00078046EE670E081E190E00C942411CF93C5
:1022F000DF932091CD062223A1F0EC0160916107CC
:1023000080915E0790915F070E942401209749F019
:10231000BE0180915E0790915F07DF91CF910C9491
:102320006510DF91CF9108950E94E10360936A04E4
:1023300070936B0480936C0490936D048AE090E03A
:102340000E940F1180E091E00E9477118FE191E0EF
:102350000E94771184E191E00E94771186E891E074
:102360000E9477110C9474100E94E10360936A0438
:1023700070936B0480936C0490936D048AE090E0FA
:102380000E940F1183E992E00E9477110C9474105F
:102390000F931F93CF93DF93EC018A018BE190E0C1
:1023A0000E940F11C8010E9477118091CD068823E9
:1023B00019F0CE010E94DE10DF91CF911F910F9195
:1023C0000C9474100F931F93CF93C82F8A0187E04A
:1023D00090E00E940F11C8010E9477118091CD06F4
:1023E000882399F06091610780915E0790915F0763
:1023F0000E9424014C2F50E070E060E02AE08091C0
:102400005E0790915F070E949210CF911F910F91EC
:102410000C9474100F931F93CF93C82F8A0186E0FA
:1024200090E00E940F11C8010E9477118091CD06A3
:10243000882399F06091610780915E0790915F0712
:102440000E9424014C2F50E070E060E02AE080916F
:102450005E0790915F070E949210CF911F910F919C
:102460000C947410EF92FF920F931F93CF93DF930E
:10247000EC01198218821B821A821D821C8261154E
:102480007105A9F17B01FB0101900020E9F731976B
:102490008F01061B170BB8016F5F7F4F90E080E044
:1024A0000E94DE2B0097B9F0998388831B830A83EF
:1024B0002C813D81232B11F4FC0110821D830C83A0
:1024C000B70188819981DF91CF911F910F91FF9082
:1024D000EF900C94A42C88819981009711F00E94B0
:1024E000552B198218821D821C821B821A82DF9151
:1024F000CF911F910F91FF90EF9008950F931F932D
:10250000CF93DF9300D000D000D0CDB7DEB70E94CC
:10251000E10360936A0470936B0480936C0490935E
:102520006D040E941101BC01CE0101960E9432127D
:1025300060918E0270918F020D811E81060F171F10
:1025400040E051E0401B510B4230510554F16D56B3
:102550007D4FCE0101960E944B0F10938F02009386
:102560008E028091CD0681110DC085E090E00E9421
:102570000F118091CD06882319F0C8010E94DE104A
:102580000E947410CE0101960E94B80F26960FB6D5
:10259000F894DEBF0FBECDBFDF91CF911F910F9199
:1025A00008958091CD068111EDCF85E090E00E94E5
:1025B0000F118091CD06882319F38FEF9FEFDECFA7
:1025C000CF93DF93CDB7DEB728970FB6F894DEBF71
:1025D0000FBECDBF0E941101BC01CE0101960E9429
:1025E000321240E350E06FE171E0CE0101960E94AB
:1025F0004B0F83E290E098878F8341E050E0BE016B
:10260000695F7F4F90E080E00E946E0F4FE250E0E4
:102610006FE171E081E090E00E946E0F85E090E054
:102620000E940F118FE191E00E9477110E947410B7
:10263000CE0101960E94B80F28960FB6F894DEBF1F
:102640000FBECDBFDF91CF9108956F927F928F9291
:102650009F92AF92BF92CF92DF92EF92FF920F9331
:102660001F93CF93DF9300D000D000D0CDB7DEB75B
:102670000E945E0C8C010E945E0C7C010E94110184
:102680006C010E945E0C4C010E945E0C5C01000F0C
:10269000111F000F111F04541A4FF8018281882363
:1026A00009F458C0B601CE0101960E943212FF24EF
:1026B000370183E0660C771C8A95E1F7D12C48E05E
:1026C000BB249924CC24CA94C40E6C2D70E0C5019F
:1026D0000C2C02C0959587950A94E2F780FF33C0D1
:1026E000F80180819181ED2DF0E02D813E81E2178E
:1026F000F30708F04EC029813A812115310509F40C
:1027000048C0E20FF31FE081DC01AA5ABF4F2D91B0
:102710003C91E216F306B4F4F0E0E257FE4F20815C
:10272000F4010C2C02C0F595E7950A94E2F7E0FD60
:102730002068680F791FFB01E60DF71D208BB7019C
:102740000E941E0ED3944C2DC110BCCFCE01019619
:102750000E94B80F0E94E10360936A0470936B04B7
:1027600080936C0490936D0426960FB6F894DEBFA8
:102770000FBECDBFDF91CF911F910F91FF90EF90D2
:10278000DF90CF90BF90AF909F908F907F906F9091
:102790000895E0E0B9CF85ED8093BC0080913904C5
:1027A00090913A04A0913B04B0913C040796A11D7E
:1027B000B11D23E0B695A795979587952A95D1F7F2
:1027C0002091BC0024FD03C010923704089540916D
:1027D000390450913A0460913B0470913C04452BBC
:1027E000462B472B69F30097A105B10541F025E37E
:1027F0002A95F1F700000197A109B109E1CF809175
:1028000038040C94AE082F923F924F925F926F92D1
:102810007F928F929F92AF92BF92CF92DF92EF9270
:10282000FF920F931F93CF93DF93CDB7DEB72A9715
:102830000FB6F894DEBF0FBECDBFFC01FF27DF014E
:10284000AD56BC4FBA83A983EC91E111B8C1FB012D
:10285000FF27DF01AD56BC4FBC83AB83EC91E11188
:10286000AEC1FA01FF27DF01AD56BC4FBE83AD8379
:10287000EC91E111A4C1F901FF27DF01AD56BC4F76
:10288000B887AF83EC91E1119AC1101611063CF4A0
:10289000F801FF27ED56FC4FE081E11190C13901AD
:1028A0006A014B015C0186E590E00E94B92A9A8793
:1028B00089877C01B2E0EB0EF11C82E192E0E985B0
:1028C000FA859383828384E08483DF0115861686EC
:1028D0001786108A118A128A138A148A158A168A10
:1028E000178A108E212C312C50E8452E5FE3552E8F
:1028F000218E328E438E548E158E168E178E10A218
:1029000021A232A243A254A215A216A217A210A677
:1029100081E090E096A785A78FEF80AB11A612A665
:1029200013A614A665828682A782C08615AA16AA57
:1029300017AA10AE11AE12AE13AE14AEFD961082F1
:102940001182128213826D01F1E4CF0ED11CD601E7
:102950002D923D924D925C921397E985FA85EB5B3F
:10296000FF4F1082E985FA85118612861386148638
:10297000C7010E941304A985BA855D968D909D902C
:10298000AD90BC909097A2019101C501B4010E9445
:102990009727882339F1E985FA8565A976A987A95A
:1029A00090AD0E949E27A50194010E94FD270E94E0
:1029B0005C2AA985BA85D5966D937D938D939C935A
:1029C000D89786E896E6A9E6B9E4E985FA8581AF65
:1029D00092AFA3AFB4AF258E368E478E50A2C701FB
:1029E0000E9430064FE552E0602FA984BA84B6E415
:1029F000AB0EB11CC5010E945108E985FA85118210
:102A000080910F04E82FF0E0EE0FFF1FE55FFB4F12
:102A100029853A85318320838F5F80930F048BEA69
:102A200097E0D50119969C938E9318971B969C93CB
:102A30008E931A9730907404E32DF0E0EE0FFF1F91
:102A4000E059FB4F3183208320E030E048EC53E431
:102A5000E985FA85618D728D838D948D0E9497270B
:102A6000882309F445C080E090E0A8ECB3E4E98550
:102A7000FA85818F928FA38FB48F80E090E4ACE1D0
:102A8000B5E4F60180839183A283B383E985FA8557
:102A900085A996A9A7A9B0AD181619061A061B068E
:102AA0003CF5658976898789908D9B01AC010E94F0
:102AB000FD272B013C01A985BA855D966D917D911D
:102AC0008D919C9190979B01AC010E947E299B0166
:102AD000AC01C301B2010E94EA290E945C2AE98587
:102AE000FA8565AB76AB87AB90AFC7010E94300625
:102AF000A985BA855D964D905D906D907C9090977C
:102B000020E030E048E454E4C301B2010E9497277A
:102B10008823B9F1E985FA8565A976A987A990ADD9
:102B20000E949E274B015C0120E030E048E454E421
:102B3000C301B2010E94EA299B01AC01C501B401A5
:102B40000E94FD270E945C2AA985BA85D5966D93BF
:102B50007D938D939C93D89781E098E0A4E0B7E4AF
:102B6000E985FA8581AF92AFA3AFB4AF80E090E082
:102B7000A8E4B4E4858F968FA78FB0A3C7010E9405
:102B8000300689E0A981BA818C93EB81FC81808336
:102B9000AD81BE818C93EF81F8858083101611067C
:102BA0004CF41127F801ED56FC4F808389859A85F6
:102BB0000E948907BB24B394B30CB09274042A9684
:102BC0000FB6F894DEBF0FBECDBFDF91CF911F913E
:102BD0000F91FF90EF90DF90CF90BF90AF909F90BC
:102BE0008F907F906F905F904F903F902F900895BF
:102BF0008F929F92AF92BF92CF92DF92FF920F93EC
:102C00001F93CF93DF93CDB7DEB765970FB6F894D8
:102C1000DEBF0FBECDBF0E945E0C5C010E941101A1
:102C20006C0186E08A9D80018B9D100D11240C5350
:102C30001B4FD80112968C91882399F11A82198220
:102C4000FE01339683E1DF011D928A95E9F7F12CAD
:102C50004801B5E08B0E911C5801E4E0AE0EB11CAA
:102C6000D4018C918F15E9F06F2DF801808191814D
:102C70000E94E80DD5018C91482F50E0B6018F9D40
:102C8000600D711D1124CE0101960E949B2CBE0186
:102C90006F5F7F4FF801808191810E946510F394EE
:102CA000DFCF8091CD06811109C085E090E00E94C0
:102CB0000F11C6010E9477110E9474100E94E10357
:102CC00060936A0470936B0480936C0490936D041A
:102CD00065960FB6F894DEBF0FBECDBFDF91CF91E2
:102CE0001F910F91FF90DF90CF90BF90AF909F907A
:102CF0008F9008950F931F93CF93DF930E945E0CE4
:102D0000EC010E94C000882309F44AC081E080934E
:102D10005707809358078091590790915A070E944E
:102D20002C27209174042C171D06A9F1A4F1CC0FB7
:102D3000DD1FC059DB4FE881F9811182DF01AE5AF6
:102D4000BF4F0D911D912D913C9113976017710705
:102D500082079307B1F06D937D938D939C931397A6
:102D600001891289238934896017710782079307C3
:102D700041F0618B728B838B948BCF0102960E9402
:102D800030060E94E10360936A0470936B048093A1
:102D90006C0490936D04DF91CF911F910F91089572
:102DA0001092580760E070E0CB01BBCF2F923F92AA
:102DB0004F925F926F927F928F929F92AF92BF924B
:102DC000CF92DF92EF92FF920F931F93CF93DF93F7
:102DD000CDB7DEB7C951D1400FB6F894DEBF0FBEF4
:102DE000CDBF1A821982FE0133962FEFDF011D92AB
:102DF0002A95E9F7C25FDE4F19821882CE50D14082
:102E000040E051E0BE016F5F7F4F0E944B0FAE016B
:102E1000425F5E4F61E672E0CE0101960E94532749
:102E2000FC012081222309F46CC016E0512E08E039
:102E3000202E0E940E2701978A30910508F060C568
:102E4000FC01E45DF84EAE01425F5E4F61E672E068
:102E500090E080E00C94B32A3617881AEE172418F5
:102E60009719331ADB1AAC1AE6199B170E945327DD
:102E70008C01AE01425F5E4F63E672E090E080E05D
:102E80000E9453277C01C8010E940E27D09077042E
:102E9000F8E0DF1651F18C0111270D561C4FD801B7
:102EA0002C91211122C0A701682FCE018E5F9E4F69
:102EB0000E9451082CE02D9DC001112480549A4F8E
:102EC000FE01EE5FFE4FDC0101900D922A95E1F7C5
:102ED00022EE31E1FC01338722873187208781E0B0
:102EE000D8018C93D394D0927704AE01425F5E4FA9
:102EF00061E672E090E080E00E945327009709F0BD
:102F000098CFC75EDE4F0FB6F894DEBF0FBECDBFC1
:102F1000DF91CF911F910F91FF90EF90DF90CF90B5
:102F2000BF90AF909F908F907F906F905F904F90E9
:102F30003F902F9008950E9453278C01AE01425F6D
:102F40005E4F61E672E090E080E00E9453277C01D2
:102F5000AE01425F5E4F63E672E090E080E00E9467
:102F600053276C01C7010E940E27682EC8010E94DA
:102F70000E277C0170907504B8E07B1609F4B5CF7C
:102F80008C0111270D561C4FF80180818111ADCFA6
:102F90000E94E1034B015C0162E08E2D0E94DC0285
:102FA0008E2D0E9475032CE0729EF0011124E455D1
:102FB000FB4FD182C082E282148213828582968284
:102FC000A782B08648EC51E15287418763868AE048
:102FD000D8018C9373947092750487CF0E94532705
:102FE0008C01AE01425F5E4F63E672E090E080E0EC
:102FF0000E945327C8010E940E277C01D0909002A6
:10300000B8E0DB1609F471CF8C0111270D561C4F67
:10301000F8018081811169CF61E08E2D0E94DC0270
:1030200070E060E08E2D0E941803ED2DF0E0EE0FB1
:10303000FF1FE05EF94FE082118283E0D8018C939C
:10304000D394D092900251CF0E9453278C01AE01AD
:10305000425F5E4F61E672E090E080E00E9453279D
:103060007C01AE01425F5E4F61E672E090E080E07D
:103070000E9453276C01AE01425F5E4F61E672E031
:1030800090E080E00E9453274C01AE01425F5E4F0A
:1030900061E672E090E080E00E9453275C01AE019F
:1030A000425F5E4F63E672E090E080E00E9453274B
:1030B000C4010E940E27482EC5010E940E27C05F42
:1030C000DE4F99838883C051D140C6010E940E27EC
:1030D0004C01C7010E940E275C01C8010E940E2707
:1030E0007C0130909102B1E03B1609F4FECE9927A5
:1030F000FC01ED56FC4FCC5EDE4FF983E883C451F2
:10310000D14080818111F1CEC40199279C012D56B7
:103110003C4FCA5EDE4F39832883C651D140D90166
:103120008C918111E2CEF501FF27CE5EDE4FF9834F
:10313000E883C251D140ED56FC4F80818111D5CE3C
:10314000232D30E0C85EDE4F39832883C851D1403B
:1031500088E590E00E94B92A8C01C05FDE4F88812B
:103160009981C051D1409927380130E5630E711C17
:10317000D301ED92FC926801B2E5CB0ED11CF601B1
:10318000918280823296B182A0829C0121503109C5
:103190002830310510F088E090E05801F6E5AF0ED8
:1031A000B11CD5018D939C9361E08E2D0E94DC02B1
:1031B00061E0F60180810E94DC0261E06801F4E5D3
:1031C000CF0ED11CD6018C910E94DC0261E0F60189
:1031D00080810E94AE02D301ED92FC92F8017096BC
:1031E00011926E167F06E1F7F12CE12CF50180813A
:1031F0009181E816F9065CF520E04FE0B701C801BF
:103200000E941E0ED5018D919C91E816F90634F4AA
:1032100027E04BE0B701C8010E941E0E20E049E004
:10322000B701C8010E941E0EF50180819181E81648
:10323000F90624F4B701C8010E94990E41E0B701D4
:10324000C8010E94BE0EFFEFEF1AFF0ACFCFC85E83
:10325000DE4FE881F981C851D140EE0FFF1FEE0F1C
:10326000FF1FE454FA4FDF010D931D9381E0828329
:10327000C05FDE4F2881C051D1402383F12CE12C67
:103280008F01AF014D5F5F4F5A016D01D5018C91E8
:103290008E151F0481F1F6019081992399F0E816AB
:1032A00088F4D8018D919C91B7017727FC01EA5AE7
:1032B000FF4F208131816217730724F4242D4AE0E7
:1032C0000E941E0E40E0B701F801808191810E94AA
:1032D000BE0ED8018D919C91FC01EA5AFF4F2081CE
:1032E0003181E216F3061CF4B7010E94990EBFEF7C
:1032F000EB1AFB0ACBCF84E0CC5EDE4FE881F9818C
:10330000C451D1408083CE5EDE4FE881F981C25145
:10331000D140ED56FC4F8083CA5EDE4FA881B98153
:10332000C651D1408C93339430929102DECD0E94ED
:1033300053278C01AE01425F5E4F61E672E090E080
:1033400080E00E9453277C01AE01425F5E4F61E640
:1033500072E090E080E00E9453276C01AE01425F72
:103360005E4F61E672E090E080E00E9453275C01CE
:10337000AE01425F5E4F61E672E090E080E00E9445
:103380005327AE01425F5E4F63E672E090E080E05B
:103390000E945327C5010E940E275C01C6010E94AE
:1033A0000E276C01C7010E940E277C01C8010E94F4
:1033B0000E272091740410E000E0223009F495CD2E
:1033C0009501A601B7010E9403148FCD0E945327D7
:1033D0004C01AE01425F5E4F61E672E090E080E03A
:1033E0000E9453277C01AE01425F5E4F61E672E0AE
:1033F00090E080E00E9453276C01AE01425F5E4F77
:1034000061E672E090E080E00E9453275C01AE012B
:10341000425F5E4F61E672E090E080E00E945327D9
:103420008C01AE01425F5E4F63E672E090E080E0A7
:103430000E945327C8010E940E278C01C5010E94DB
:103440000E275C01C6010E940E276C01C7010E9475
:103450000E277C01C4010E940E27209174042230A3
:1034600009F0AECF42CD0E9453278C01AE01425FDE
:103470005E4F63E672E090E080E00E945327C8014F
:103480000E940E27D0906F04B2E0DB1609F42DCD18
:103490009C013327F901ED56FC4F7F01208121115A
:1034A00024CDFBE1DF9E8001112400531B4FD80186
:1034B00019961C921997F801158616861786108A98
:1034C00051961D921D921D921C92549712961C9219
:1034D0001E921197E4EBF0E01496FC93EE93139791
:1034E00016961C921E9215971896FC93EE931797BA
:1034F0008C930E94E103D80155966D937D938D9333
:103500009C935897F7015082D394D0926F04EDCCDE
:103510000E9453277C01AE01425F5E4F61E672E07C
:1035200090E080E00E9453276C01AE01425F5E4F45
:1035300063E672E090E080E00E9453278C01C601B0
:103540000E940E27D82EC7010E940E27980140E046
:103550006D2D0E94380BC9CC0E9453277C01AE010F
:10356000425F5E4F61E672E090E080E00E94532788
:103570006C01AE01425F5E4F61E672E090E080E078
:103580000E9453275C01AE01425F5E4F63E672E02A
:1035900090E080E00E9453278C01C5010E940E2715
:1035A000B82EC6010E940E27D82EC7010E940E27F2
:1035B00098014B2DCDCF0E9453278C01AE01425F65
:1035C0005E4F61E672E090E080E00E9453277C014C
:1035D000AE01425F5E4F61E672E090E080E00E94E3
:1035E00053276C01AE01425F5E4F63E672E090E0EC
:1035F00080E00E945327C6010E940E27B82EC70103
:103600000E940E27A82EC8010E940E27982E809196
:103610009202823009F469CCE82EF12C5E9CC00144
:103620005F9C900D11249C012C533B4F6901D901E3
:1036300013969C9213971496AC9214971596BC927D
:103640008CE090E00E94B92A8C01FC011382128266
:103650002EE731E0318320839482A086B1861286E2
:103660002386D60111969C938E9381E012968C93BB
:103670001092C2031092C10310923E041092600493
:103680000E949008EFECF8E0F093E503E093E40388
:1036900020ED38E03093E9032093E803D801159634
:1036A0001C92159719968C911997823010F01596E7
:1036B0002C92F8019285992329F0813019F48581A3
:1036C0008460858362E370E080E090E00E94AF0355
:1036D000D8011B966C91C8010E94570968EE73E0EF
:1036E00080E090E00E94AF0360E3C8010E94B80D43
:1036F0008BE496E40197F1F760E3C8010E94B80DEE
:103700008BE496E40197F1F760E3C8010E94B80DDD
:1037100083E592E00197F1F760E2C8010E94B80DDD
:10372000F8016581606240E0C8010E94D10D84E02B
:10373000D80116968C9340E06CE0C8010E94D10D30
:1037400040E061E0C8010E94D10D8BE39FE1019749
:10375000F1F782E0F801878340E066E0C8010E944B
:10376000D10D40E062E0C8010E94D10D8BE39FE1E2
:103770000197F1F75E9C80015F9C100D11240C53A2
:103780001B4FD8018D919C91FC01238660E00E9423
:103790005709D80112968C911297882309F4AAC070
:1037A00015966C911597669561508D919C910E942C
:1037B000E80DB12C6801B4E0CB0ED11CF80180817A
:1037C00091814B2D50E0D6016C9170E09B012A5005
:1037D000310937FF02C02F5F3F4F359527954217BC
:1037E000530731F065E672E00E946510B394E6CFAE
:1037F0006EE770E00E942B01B12C5E9C80015F9C03
:10380000100D11240C531B4F6801B4E0CB0ED11CDA
:10381000F801808191814B2D50E0D6016C9170E0D0
:103820009B012A50310937FF02C02F5F3F4F35956A
:1038300027954217530731F06CE770E00E942B0187
:10384000B394E6CF5E9C80015F9C100D11240C5355
:103850001B4FF801658166950E94E80DB12C680147
:10386000F4E0CF0ED11CD8018D919C914B2D50E0EE
:10387000F601608170E09B012650310937FF02C0DC
:103880002F5F3F4F359527954217530731F06AE771
:1038900070E00E942B01B394E6CF63E770E00E94D2
:1038A0002B01D12C5E9C80015F9C100D11240C53C8
:1038B0001B4F7801F4E0EF0EF11CD8018D919C9123
:1038C0004D2D50E0F701608170E09B0126503109D9
:1038D00037FF02C02F5F3F4F35952795421753079B
:1038E00031F061E770E00E942B01D394E6CF60E0F5
:1038F0000E94E80D809192028F5F80939202F5CA38
:10390000AE01425F5E4F63E672E090E080E00E94AD
:103910005327EBCACF93DF9300D000D000D0CDB7B0
:10392000DEB763E972E0CE0101960E943212CE0149
:1039300001960E94D616CE0101960E94B80F0E94F1
:103940006E1126960FB6F894DEBF0FBECDBFDF9185
:10395000CF910895CF92DF92EF92FF92F82E4BE035
:1039600050E064E171E080E390E00E94930FF11079
:1039700009C080911401833529F4809115018E349A
:1039800009F44CC080E00E947503BC01990F880BBC
:10399000990B611571058105910511F00E940527AC
:1039A0000E94B626CC24CA942FE0D22EE12CF12C12
:1039B000A70196010E94E3287F936F9387E692E028
:1039C0009F938F9384E191E09F938F930E94BA2CF1
:1039D0000E94B626A70196010E94E3287F936F9369
:1039E00080E792E09F938F938BE191E09F938F9379
:1039F0000E94BA2C8DB79EB70C960FB6F8949EBF56
:103A00000FBE8DBF4BE050E064E171E080E390E0D9
:103A1000FF90EF90DF90CF900C946E0FFF90EF909F
:103A2000DF90CF90089581E00E94AA1C8AE090E088
:103A30000E940F1184E191E00E9477110C947410A0
:103A4000CF93DF9300D000D000D0CDB7DEB7209168
:103A50008C0230918D0280918A0290918B022817FE
:103A6000390721F410928B0210928A0280918A0207
:103A700090918B0290938D0280938C02109293020E
:103A800080E00E94AA1CE3E9F3E0119243E0E13AEE
:103A9000F407D9F70E94E10360936A0470936B0402
:103AA00080936C0490936D040E94C00F40E051E03D
:103AB00063E972E08BE390E00E94930FE3E9F2E0A8
:103AC00090E080E0382F292F811541E09407B1F173
:103AD000419101964111F6CF30938E0220938F02CF
:103AE00063E972E0CE0101960E943212CE01019686
:103AF0000E94D616CE0101960E94B80F0E946E1148
:103B0000198241E050E0BE016F5F7F4F90E080E09E
:103B10000E94930F8981833241F44FE250E06FE1BC
:103B200071E081E090E00E94930F26960FB6F89422
:103B3000DEBF0FBECDBFDF91CF91089590938F026E
:103B400080938E02CDCF1F920F920FB60F92112449
:103B50002F933F934F935F936F937F938F939F9395
:103B6000AF93BF93EF93FF9380E396E00E94CD0164
:103B7000FF91EF91BF91AF919F918F917F916F9145
:103B80005F914F913F912F910F900FBE0F901F901B
:103B900018951F920F920FB60F9211242F938F93A7
:103BA0009F93EF93FF93E0914006F091410680814F
:103BB000E0914606F091470682FD1BC090818091FE
:103BC00049068F5F8F7320914A06821741F0E0917A
:103BD0004906F0E0E05DF94F958F80934906FF912B
:103BE000EF919F918F912F910F900FBE0F901F908B
:103BF00018958081F4CF1F920F920FB60F92112467
:103C00002F933F938F939F93AF93BF9380916204C1
:103C100090916304A0916404B091650430916104B3
:103C200023E0230F2D3758F50196A11DB11D2093D8
:103C300061048093620490936304A0936404B0933E
:103C400065048091660490916704A0916804B09126
:103C500069040196A11DB11D8093660490936704C9
:103C6000A0936804B0936904BF91AF919F918F9125
:103C70003F912F910F900FBE0F901F90189526E83F
:103C8000230F0296A11DB11DD2CF1F920F920FB626
:103C90000F9211242F933F934F935F936F937F93D2
:103CA0008F939F93AF93BF93CF93DF93EF93FF9344
:103CB00080911004C091AB04D0E087FF24C0109223
:103CC000850010928400809110048F5F809310040F
:103CD00080911004082E000C990B8C179D0724F47A
:103CE000809110048C30C4F1809184009091850003
:103CF000049680349C4908F47AC0809184009091A5
:103D00008500049676C080911004082E000C990B53
:103D10008C179D07C4F6E09110048E2FEE0F990BBF
:103D2000FC01EE0FFF1FE80FF91FE957FB4F8081E1
:103D300086FFC9CFE09110048E2FEE0F990BFC0186
:103D4000EE0FFF1FE80FF91FE957FB4F808160E07E
:103D50008F730E94AE02B7CF20918400309185000E
:103D6000E09110048E2FEE0F990BFC01EE0FFF1F58
:103D7000E80FF91FE957FB4F81819281820F931F52
:103D80009093890080938800E09110048E2FEE0FAD
:103D9000990BFC01EE0FFF1FE80FF91FE957FB4FCE
:103DA000808186FF11C0E09110048E2FEE0F990BD9
:103DB000FC01EE0FFF1FE80FF91FE957FB4F808151
:103DC00061E08F730E94AE02FF91EF91DF91CF917E
:103DD000BF91AF919F918F917F916F915F914F9123
:103DE0003F912F910F900FBE0F901F90189580E478
:103DF0009CE990938900809388008FEF8093100452
:103E0000E3CF1F920F920FB60F9211242F933F937F
:103E10004F935F936F937F938F939F93AF93BF93D2
:103E2000EF93FF938091B900887F803609F44AC0F0
:103E3000F0F5883209F4A7C018F5803109F49BC069
:103E4000B8F4882309F4F9C0883009F494C0FF91CC
:103E5000EF91BF91AF919F918F917F916F915F9102
:103E60004F913F912F910F900FBE0F901F9018957B
:103E7000883109F488C0803251F78093350414C02A
:103E8000803409F49DC040F48033B9F38833F9F6E7
:103E90008093350485ECB0C0803509F485C0883541
:103EA00009F496C0883499F60E94CB13D0CF883994
:103EB00009F48CC038F5883729F050F4883611F0B1
:103EC000803729F683E08093370410920A0457C0A4
:103ED000883809F47BC0803919F0803809F0B7CFF1
:103EE00080910A04803208F071C0E0910A0481E0F8
:103EF0008E0F80930A048091BB00F0E0E651FC4FE6
:103F000080833DC0803B39F0E0F4803A09F479C009
:103F1000883A09F09CCF84E0809337041092E7033D
:103F20001092E603E091E403F091E5030995809196
:103F3000E60381110FC081E08093E6031092C40371
:103F400009C0803C09F4A6CF883C09F4A3CF883B84
:103F500009F07DCFE091E70381E08E0F8093E703C6
:103F6000F0E0EC53FC4F80818093BB009091E7031D
:103F70008091E60329C0809112048093BB0085ECF8
:103F80008093BC0064CF90913404809133049817DF
:103F900058F5E091340481E08E0F80933404F0E012
:103FA000ED5EFB4F8081E9CFE091340481E08E0F1C
:103FB000809334048091BB00F0E0ED5EFB4F808382
:103FC00090913404809133049817C8F285E8D8CFD3
:103FD000E091340481E08E0F809334048091BB0023
:103FE000F0E0ED5EFB4F80838091360481115CCF61
:103FF00081E08093110484EA8093BC00109237041E
:1040000026CF85EC8093BC001092370480910A047F
:10401000803230F4E0910A04F0E0E651FC4F108267
:1040200060910A0470E0E091E803F091E9038AEE00
:1040300093E0099510920A040ACF1092350434CF08
:104040000F931F93CF93DF93109233061092320693
:1040500088EE93E0A0E0B0E08093340690933506BC
:10406000A0933606B09337062CE332E03093310646
:104070002093300625EC30E030933D0620933C063B
:1040800024EC30E030933F0620933E0620EC30E0F5
:10409000309341062093400621EC30E030934306F4
:1040A0002093420622EC30E03093450620934406EC
:1040B00026EC30E0309347062093460610924906DE
:1040C00010924A0610924B0610924C0610927C04F5
:1040D00010927B0480937D0490937E04A0937F04D0
:1040E000B09380048EE492E090937A0480937904F4
:1040F00084E690E090938604809385041092640790
:104100001092630780E396E090935F0780935E07C9
:104110001092D5068CE2809361078BE38093600751
:104120008FE28093620780E48093D0068FE38093D0
:10413000D1061092CF0610925A071092590710928A
:104140005C0710925B0781E080935707E5E6F7E094
:1041500081EA97E0119211928E179F07D9F710927A
:10416000D406C0E2D6E011E01883198261E081E054
:104170000E94DC02698170E088810E941803229607
:1041800086E0C033D80781F7C0ECD5E000E216E046
:1041900045E752E061E0CE010E9451082C960C17D1
:1041A0001D07B1F71092BE0527E4E9E0F5E0DF0155
:1041B000822F1D928A95E9F780E092E09093600546
:1041C00080935F0510920805E4E6F5E0DF011D929B
:1041D0002A95E9F79093BB058093BA051092630581
:1041E0008091AB048C3098F491E0980F9093AB04DD
:1041F0008093DA0490E0FC01EE0FFF1FE80FF91F37
:10420000E957FB4F88EB9BE09283818303C08FEFDC
:104210008093DA048091AB048C3008F455C08FEFA2
:104220008093F5041092C6041092CC0402E000932F
:10423000B70411E01093AE04CCE7D2E0D093AD0404
:10424000C093AC041092B0041092AF040E94E1033A
:104250006093B1047093B2048093B3049093B40458
:104260001092B6041092B50462E08091AE040E94F0
:10427000DC028091AE040E9475030093C304109386
:10428000BA04D093B904C093B8041092BC0410923D
:10429000BB040E94E1036093BD047093BE0480934D
:1042A000BF049093C0041092C2041092C10462E053
:1042B0008091BA040E94DC028091BA04DF91CF9110
:1042C0001F910F910C94750391E0980F9093AB049C
:1042D0008093F50490E0FC01EE0FFF1FE80FF91F3B
:1042E000E957FB4F88EB9BE0928381839BCF7894C7
:1042F00084B5826084BD84B5816084BD85B58260EB
:1043000085BD85B5816085BD80916E00816080939B
:104310006E00109281008091810082608093810004
:104320008091810081608093810080918000816014
:10433000809380008091B10084608093B10080916F
:10434000B00081608093B00080917A008460809397
:104350007A0080917A00826080937A0080917A005E
:10436000816080937A0080917A00806880937A00DF
:104370001092C100E0914006F091410682E08083F6
:10438000E0913C06F0913D061082E0913E06F091EE
:104390003F0680E1808310924806E0914406F09148
:1043A000450686E08083E0914206F09143068081D5
:1043B00080618083E0914206F091430680818860AD
:1043C0008083E0914206F09143068081806880837B
:1043D000E0914206F091430680818F7D808388E4DE
:1043E00091E1909364078093630789E49FE0909341
:1043F00066078093650785E293E190936807809351
:10440000670781E19FE090939A078093990782E77D
:104410009CE090936A07809369078AE796E19093FE
:104420006C0780936B0788E89CE090936E078093FD
:104430006D0784E991E1909378078093770784EB87
:1044400091E190937E0780937D078EE792E19093B0
:104450007C0780937B0788E591E1909380078093A8
:104460007F0780E691E190938207809381078AE835
:104470009CE1909386078093850780EE92E190936C
:104480008C0780938B0783E19DE190938E07809347
:104490008D078DE69DE09093900780938F0789E8C4
:1044A0009DE090939207809391078EEF97E0909311
:1044B00094078093930780E29DE190939607809301
:1044C000950788EF95E1909398078093970781E08F
:1044D0008093D5060E94201D992493948091D40640
:1044E0008111BDC080915E0790915F07DC01ED9165
:1044F000FC910084F185E02D0995892B09F4AFC06A
:1045000080915E0790915F07DC01ED91FC91008442
:10451000F185E02D099570E4E72EF12C80349105AA
:1045200064F480915E0790915F07DC01ED91FC914E
:104530000084F185E02D09957C01C0915E07D09142
:104540005F0766E1A62E67E0B62E650110E000E089
:10455000E016F10611F10E94E103688779878A87E6
:104560009B87E881F9810284F385E02DCE010995CE
:1045700097FF9AC30E94E103488459846A847B842C
:1045800064197509860997094C805D806E807F806B
:10459000641575058605970520F3D0E0C0E0CE15BB
:1045A000DF050CF09BCFF50191915F01109256074A
:1045B000309162072091D3069093D306931304C0E1
:1045C000921302C01092D3068091CF06E82FF0E03C
:1045D00040916007E353F94F941330C0321771F1E3
:1045E0001186882321F0909256071092D3061092DC
:1045F000CF0610925A071092590710925C0710923A
:104600005B079092570780915607813031F50E94E1
:104610005E0C8093CE068E31D0F420915807222371
:10462000B1F0FC01FF27EE0FFF1FEB59F84F01908F
:10463000F081E02D309759F009950FC091878F5F79
:104640008093CF069091D106891788F6DCCFE09150
:104650006307F0916407309779F72196A0CFC09057
:104660006A04D0906B04E0906C04F0906D0480912B
:104670006E0481111FC30E94E1036C197D098E092C
:104680009F09613A7B4B8D40910528F081E0809332
:104690006E040E94CE0E80917804882309F4F7C23C
:1046A000C0ECD5E010E000E080917704801711069F
:1046B00009F0C5C0C6E0D5E010E000E080917604C6
:1046C0008017110609F0C2C0CCEAD4E010E000E087
:1046D000809175048017110609F04AC2B0E7CB2E0D
:1046E000B4E0DB2EF12CE12C809174048E151F04B4
:1046F00009F077C2C0EDD4E010E000E0F8E8EF2E5A
:10470000F12CA8E5CA2EA2E0DA2E80916F04801762
:10471000110609F4BCC289899A89AB89BC894D8587
:104720005E856F85788984179507A607B70709F412
:1047300082C0481759076A077B070CF0A4C201978B
:10474000A109B109898B9A8BAB8BBC8B0E94E103C9
:104750006D8B7E8B8F8B988FA989BA89A032E2E00E
:10476000BE07BCF52B854701821A910827FD93945B
:10477000880C991C880C991C092C000CAA08BB08F1
:104780002C85A601421B510927FD53959A01220F42
:10479000331F220F331F032E000C440B550B281917
:1047A00039094A095B09A53BB10514F0A4EBB0E057
:1047B000B7FF02C0B0E0A0E00E940D2924EB30E07A
:1047C00040E050E00E94E328820E931EA41EB51E16
:1047D000D4014A854C3078F52B85C701821B91099D
:1047E00027FD93959C01220F331F220F331FA21721
:1047F000B3077CF02C85F601E21BF10927FDF39548
:104800009F01220F331F220F331FA217B3070CF48F
:104810009D0122503109220F331F5FB7F894842F76
:1048200090E0FC01EE0FFF1FE80FF91FE957FB4F67
:10483000328321835FBF0F5F1F4F6B9666CFCE0120
:104840000E9417080F5F1F4F2C962ECF8A81882356
:1048500009F42AC1CE0103960E94DA0ACE010C9611
:104860000E94DA0AFE8421E0F226FF0C8D81822765
:10487000F82A5E0137E2A30EB11C60E0C5010E9478
:10488000410AED88FE1409F49CC06E0146E4C40E92
:10489000D11CD6016D917D918D919C910E945C2AD5
:1048A000653071050CF405C1F6016081718182816A
:1048B00093810E945C2A603171050CF0FDC0D60125
:1048C0006D917D918D919C910E945C2A6B01B5E068
:1048D000CB1AD1086E8D7F8D88A199A14A8C5B8CF3
:1048E0006C8C7D8C64197509860997096E31710588
:1048F000810591050CF4E4C02EE130E040E050E089
:104900000E94E328CA01B9012601DD0C6608770878
:10491000A30192010E94972A9B01AC01C301B2013D
:104920000E94972A9B01AC01C301B2010E94972A01
:1049300028EE33E040E050E00E94E32829013A01EC
:10494000EFEF4E1A5E0A6E0A7E0A2E2D34E0230225
:10495000F00111248F2D0F2C000C990BE82BF92B53
:10496000E85DFD4F4081042E000C550B449DB001C5
:10497000459D700D549D700D11242E893F89260F81
:10498000371F3F8B2E8B4BE5409F9001419F300D91
:1049900011242A5F3A4F820F931FDC0192968C916B
:1049A000882371F061E0C5010E94410A2EA18E8921
:1049B0009F8902C0959587952A95E2F7998F888FF0
:1049C000FD8A888C998C092C000CAA08BB081E0152
:1049D000BCE42B0E311CF10180819181A281B38155
:1049E00088169906AA06BB0609F45EC07501640123
:1049F000C81AD90AEA0AFB0A412C512C3201439405
:104A0000F7FE04C044244A94542C3201B701A60195
:104A1000F7FE07C044275527BA014C195D096E09F6
:104A20007F09FE01E75AFF4F80819181B0E0A0E04D
:104A3000481759076A077B070CF074C0F1E04F165E
:104A400051046104710409F040C0FE01E05BFF4FB6
:104A50000190F081E02D3097C1F1DE01A65BBF4FE0
:104A60004D915C91688180E00995CC0CDD1CEE1CB9
:104A7000FF1CC80CD91CEA1CFB1CC11440E8D4065E
:104A8000E104F1045CF08E899F89837099279F8BE4
:104A90008E8B198E188E812C912C5401D1018D9200
:104AA0009D92AD92BC9213970F5F1F4FC55ADF4F77
:104AB00005CED12CC12C0ECF4AE0C42ED12C0ACF6A
:104AC00061E070E080E090E01FCFFE01EC5AFF4F04
:104AD0000190F081E02D309741F0DE01A65BBF4FE1
:104AE0004D915C91698182E0099531E04316510452
:104AF0006104710409F4B9CF472046204520409451
:104B000069F6CC0CDD1CEE1CFF1CD501C4018C1910
:104B10009D09AE09BF0981159048AF4FBF4F0CF4F6
:104B2000B2CFBCCF21E0421651046104710481F47C
:104B3000FE01EE5AFF4F0190F081E02D309741F0D9
:104B4000DE01A65BBF4F4D915C91688181E08CCF07
:104B5000FE01EA5AFF4F0190F081E02D309729F2D3
:104B6000DE01A65BBF4F4D915C91698183E0BCCFB4
:104B70000E94E1036B017C018D819E81AF81B8852C
:104B8000A7019601281B390B4A0B5B0BDA01C901FF
:104B9000C397A105B10508F18A810E947503CD82F2
:104BA000DE82EF82F8862B813C81AC01421B530BE5
:104BB0009A0157FF03C03195219531094B85421762
:104BC000130609F054F49C838B83E985FA853097AA
:104BD00021F0488159816A8109950F5F1F4F2C96FA
:104BE00077CDD601CD91DD916D018DA19EA1AFA1B3
:104BF000B8A5892B8A2B8B2BC9F10E948A034B0104
:104C00005C0189A59AA5ABA5BCA5B501A401481B6B
:104C1000590B6A0B7B0B8DA19EA1AFA1B8A54817BC
:104C200059076A077B0710F18D859E85AF85B88986
:104C3000FE01EB5BFF4F2081222309F10196A11DAC
:104C4000B11D8D879E87AF87B88B4D855E856F853B
:104C500078898E010E5F1F4FC8010E94F00589A65A
:104C60009AA6ABA6BCA6C8010E943006CE018A5BFC
:104C70009F4F0E941708BFEFEB1AFB0A35CD019733
:104C8000A109B109DECF0196A11DB11D5BCD80E068
:104C900090E0892B09F420CC0E94B901882309F403
:104CA0001BCC0E94000018CCD6018D936D010F5FC4
:104CB0001F4F4ECC0E94E1036C197D098E099F099C
:104CC000603A7B4B8D40910508F0E5CC10926E0464
:104CD00080E0DFCC8F929F92AF92BF92CF92DF9213
:104CE000EF92FF92CF93DF93EC01688179818A8103
:104CF0009B81611571058105910521F464E279EDCF
:104D00008BE597E02DE133EF41E050E00E94E3288E
:104D100049015A019B01AC01A7EAB1E40E940229B2
:104D20006B017C01ACEEB4EFA50194010E94102947
:104D3000C60ED71EE81EF91EF7FE06C081E0C81A8F
:104D4000D108E10880E8F80AC882D982EA82FB82A9
:104D5000C701B6019F77DF91CF91FF90EF90DF9071
:104D6000CF90BF90AF909F908F9008958F929F9219
:104D7000AF92BF92CF92DF92EF92FF9260914F017C
:104D8000709150018091510190915201611571050E
:104D90008105910521F464E279ED8BE597E02DE141
:104DA00033EF41E050E00E94E32849015A019B01A2
:104DB000AC01A7EAB1E40E9402296B017C01ACEED0
:104DC000B4EFA50194010E941029C60ED71EE81E5B
:104DD000F91EF7FE06C081E0C81AD108E10880E894
:104DE000F80AC0924F01D0925001E0925101F09226
:104DF0005201C701B6019F77FF90EF90DF90CF90EF
:104E0000BF90AF909F908F90089560934F017093E3
:104E1000500180935101909352010895FC0188271D
:104E20009927E89421912032E9F3293010F02E30AF
:104E3000C8F32B3241F02D3239F4689404C00E943B
:104E40008F27820F911D219120532A30C0F31EF429
:104E5000909581959F4F08951F93FC01992788276E
:104E6000BC01E89411911032E9F3193010F01E30B2
:104E7000C8F31B3251F01D3249F4689406C00E94F9
:104E80007A27610F711D811D911D119110531A30E8
:104E9000B0F33EF490958095709561957F4F8F4F5C
:104EA0009F4F1F910895FA01A191B081009719F4C5
:104EB0001097E1F0CD01DC01CD010D90002011F43F
:104EC000C00113C0FB012191222319F02015D9F74D
:104ED000F3CFFB012191201519F41E92119606C003
:104EE0002223C1F70D900020A1F7D001FA01A19370
:104EF000B0830895592F482F372F262F660F771F1D
:104F0000881F991F660F771F881F991F620F731FD5
:104F1000841F951F660F771F881F991F08957AE0D9
:104F2000979F902D879F802D910D112408950E94A9
:104F3000D92708F481E00895E89409C097FB3EF46E
:104F400090958095709561957F4F8F4F9F4F9923D6
:104F5000A9F0F92F96E9BB279395F6958795779554
:104F60006795B795F111F8CFFAF4BB0F11F460FF14
:104F70001BC06F5F7F4F8F4F9F4F16C0882311F06C
:104F800096E911C0772321F09EE8872F762F05C080
:104F9000662371F096E8862F70E060E02AF09A951B
:104FA000660F771F881FDAF7880F9695879597F910
:104FB0000895990F0008550FAA0BE0E8FEEF1616AA
:104FC0001706E807F907C0F012161306E407F507FD
:104FD00098F0621B730B840B950B39F40A2661F071
:104FE000232B242B252B21F408950A2609F4A14014
:104FF000A6958FEF811D811D08950E9410280C94A5
:1050000081280E94732838F00E947A2820F0952386
:1050100011F00C946A280C94702811240C94B52873
:105020000E94922870F3959FC1F3950F50E0551F91
:10503000629FF001729FBB27F00DB11D639FAA27ED
:10504000F00DB11DAA1F649F6627B00DA11D661F3C
:10505000829F2227B00DA11D621F739FB00DA11D5D
:10506000621F839FA00D611D221F749F3327A00D17
:10507000611D231F849F600D211D822F762F6A2FB3
:1050800011249F5750409AF0F1F088234AF0EE0F18
:10509000FF1FBB1F661F771F881F91505040A9F745
:1050A0009E3F510580F00C946A280C94B5285F3F10
:1050B000E4F3983ED4F3869577956795B795F79581
:1050C000E7959F5FC1F7FE2B880F911D96958795F9
:1050D00097F9089597F99F6780E870E060E0089578
:1050E0009FEF80EC089500240A9416161706180600
:1050F0000906089500240A941216130614060506DC
:105100000895092E0394000C11F4882352F0BB0F6C
:1051100040F4BF2B11F460FF04C06F5F7F4F8F4FCF
:105120009F4F089557FD9058440F551F59F05F3F0A
:1051300071F04795880F97FB991F61F09F3F79F0B9
:1051400087950895121613061406551FF2CF46953B
:10515000F1DF08C0161617061806991FF1CF8695BD
:105160007105610508940895E894BB2766277727A1
:10517000CB0197F90895DC01CB01FC01F999FECF31
:1051800006C0F2BDE1BDF89A319600B40D924150CF
:105190005040B8F70895DC01CB0103C02D910E9467
:1051A000D62841505040D0F70895262FF999FECFC8
:1051B0001FBA92BD81BD20BD0FB6F894FA9AF99A34
:1051C0000FBE01960895052E97FB1EF400940E94D1
:1051D000FA2857FD07D00E944C2907FC03D04EF453
:1051E0000C94FA2850954095309521953F4F4F4F9C
:1051F0005F4F089590958095709561957F4F8F4F83
:105200009F4F08950E946E29A59F900DB49F900D09
:10521000A49F800D911D11240895B7FF0C940229BD
:105220000E940229821B930B08952F923F924F9266
:105230005F926F927F928F929F92AF92BF92CF9226
:10524000DF92EF92FF920F931F93CF93DF93CDB72F
:10525000DEB7CA1BDB0B0FB6F894DEBF0FBECDBFA7
:1052600009942A88398848885F846E847D848C8478
:105270009B84AA84B984C884DF80EE80FD800C8181
:105280001B81AA81B981CE0FD11D0FB6F894DEBF64
:105290000FBECDBFED010895A1E21A2EAA1BBB1BC4
:1052A000FD010DC0AA1FBB1FEE1FFF1FA217B307F2
:1052B000E407F50720F0A21BB30BE40BF50B661F08
:1052C000771F881F991F1A9469F7609570958095CC
:1052D00090959B01AC01BD01CF010895A29FB00143
:1052E000B39FC001A39F700D811D1124911DB29F1A
:1052F000700D811D1124911D08955058BB27AA27B8
:105300000E9495290C9481280E94732838F00E94ED
:105310007A2820F039F49F3F19F426F40C94702871
:105320000EF4E095E7FB0C946A28E92F0E9492287E
:1053300058F3BA17620773078407950720F079F4CA
:10534000A6F50C94B4280EF4E0950B2EBA2FA02DE0
:105350000B01B90190010C01CA01A0011124FF2722
:10536000591B99F0593F50F4503E68F11A16F0401D
:10537000A22F232F342F4427585FF3CF469537951C
:105380002795A795F0405395C9F77EF41F16BA0BE1
:10539000620B730B840BBAF09150A1F0FF0FBB1F8F
:1053A000661F771F881FC2F70EC0BA0F621F731FD8
:1053B000841F48F4879577956795B795F7959E3F35
:1053C00008F0B0CF9395880F08F09927EE0F9795C6
:1053D000879508950E94FE290C9481280E947A28BE
:1053E00058F00E94732840F029F45F3F29F00C9494
:1053F0006A2851110C94B5280C9470280E949228A8
:1054000068F39923B1F3552391F3951B550BBB27F3
:10541000AA2762177307840738F09F5F5F4F220F38
:10542000331F441FAA1FA9F335D00E2E3AF0E0E82F
:1054300032D091505040E695001CCAF72BD0FE2F79
:1054400029D0660F771F881FBB1F2617370748070D
:10545000AB07B0E809F0BB0B802DBF01FF279358C5
:105460005F4F3AF09E3F510578F00C946A280C94F7
:10547000B5285F3FE4F3983ED4F38695779567951A
:10548000B795F7959F5FC9F7880F911D96958795FA
:1054900097F90895E1E0660F771F881FBB1F621719
:1054A00073078407BA0720F0621B730B840BBA0BD7
:1054B000EE1F88F7E09508950E94632A6894B11161
:1054C0000C94B52808950E949A2888F09F5798F068
:1054D000B92F9927B751B0F0E1F0660F771F881FF9
:1054E000991F1AF0BA95C9F714C0B13091F00E9413
:1054F000B428B1E008950C94B428672F782F88273A
:10550000B85F39F0B93FCCF3869577956795B39539
:10551000D9F73EF490958095709561957F4F8F4FA8
:105520009F4F08950E94D92708F48FEF0895DB015B
:105530008F939F930E940229BF91AF91A29F800DEC
:10554000911DA39F900DB29F900D11240895991B5A
:1055500079E004C0991F961708F0961B881F7A956A
:10556000C9F780950895EE0FFF1F0590F491E02D87
:1055700009940F931F93CF93DF938230910510F41A
:1055800082E090E0E091A307F091A40730E020E0F2
:10559000B0E0A0E0309799F42115310509F44AC034
:1055A000281B390B24303105D8F58A819B81611580
:1055B000710589F1FB0193838283FE0111C0408153
:1055C00051810281138148175907E0F048175907A4
:1055D00099F4109761F012960C93129713961C93FE
:1055E0003296CF01DF91CF911F910F9108950093D3
:1055F000A3071093A407F4CF2115310551F04217EA
:10560000530738F0A901DB019A01BD01DF01F80160
:10561000C1CFEF01F9CF9093A4078093A307CDCF1B
:10562000FE01E20FF31F81939193225031093983D8
:105630002883D7CF2091A1073091A207232B41F4D3
:1056400020915501309156013093A2072093A10774
:1056500020915301309154012115310541F42DB7AA
:105660003EB74091570150915801241B350BE091F2
:10567000A107F091A207E217F307A0F42E1B3F0B3E
:105680002817390778F0AC014E5F5F4F24173507B4
:1056900048F04E0F5F1F5093A2074093A1078193DC
:1056A00091939FCFF0E0E0E09CCFCF93DF93009702
:1056B000E9F0FC01329713821282A091A307B09106
:1056C000A407ED0130E020E01097A1F420813181A2
:1056D000820F931F2091A1073091A2072817390745
:1056E00009F061C0F093A207E093A107DF91CF9189
:1056F0000895EA01CE17DF07E8F54A815B819E0134
:1057000041155105B1F7E901FB83EA8349915991AC
:10571000C40FD51FEC17FD0761F4808191810296BB
:10572000840F951FE90199838883828193819B83EC
:105730008A83F0E0E0E012968D919C911397009798
:10574000B9F52D913C911197CD010296820F931FCF
:105750002091A1073091A2072817390739F6309711
:1057600051F51092A4071092A307B093A207A0933B
:10577000A107BCCFD383C28340815181840F951F81
:10578000C817D90761F44E5F5F4F88819981480F30
:10579000591F518340838A819B8193838283211582
:1057A000310509F0B0CFF093A407E093A3079ECF93
:1057B000FD01DC01C0CF13821282D7CFB0E0A0E0A0
:1057C000E4EEFBE20C9417298C01009751F4CB0115
:1057D0000E94B92A8C01C801CDB7DEB7E0E10C9474
:1057E0003329FC01E60FF71F9C0122503109E21713
:1057F000F30708F49DC0D901CD91DC911197C6172C
:10580000D70798F0C530D10530F3CE01049786173D
:10581000970708F3C61BD70B2297C193D1936D93BB
:105820007C93CF010E94552BD6CF5B01AC1ABD0AE9
:105830004C018C0E9D1EA091A307B091A407512C82
:10584000412CF12CE12C109731F58091A10790911A
:10585000A2078815990509F05CC04616570608F09E
:1058600058C08091530190915401009741F48DB735
:105870009EB74091570150915801841B950BE81732
:10588000F90708F055C0F093A207E093A107F901CA
:1058900071836083A0CF8D919C91119712966C902B
:1058A000129713967C901397A815B90559F56C01BA
:1058B00042E0C40ED11CCA14DB0420F1AC014A1929
:1058C0005B09DA011296159780F062827382518328
:1058D0004083D9016D937C93E114F10471F0D701F9
:1058E0001396FC93EE93129776CF22968C0F9D1F02
:1058F000F90191838083F301EFCFF093A407E09344
:10590000A30769CF4816590608F42C017D01D3017D
:105910009ACFCB010E94B92A7C01009749F0AE01D1
:10592000B8010E949B2CC8010E94552B870153CFC0
:1059300010E000E050CFFB01DC0102C001900D92AD
:1059400041505040D8F70895FB01DC0101900D92C1
:105950000020E1F70895FB01DC014150504048F080
:1059600001900D920020C9F701C01D924150504096
:10597000E0F70895AEE0B0E0E0ECFCE20C942329FF
:105980000D891E8986E08C831A8309838FEF9FE738
:105990009E838D83AE01475E5F4F6F89788DCE0108
:1059A00001960E94DD2C2F813885020F131FF8010C
:1059B00010822E96E4E00C943F29ABE0B0E0E3EED9
:1059C000FCE20C9415297C013B018A01FC01178241
:1059D0001682838181FFC8C1CE0101965C01F70167
:1059E0009381F30193FD859193FF81913F0188237A
:1059F00009F453C1853239F493FD859193FF819168
:105A00003F01853229F4B70190E00E94CD2EE7CF07
:105A1000912C212C312CFFE1F31538F08B3211F150
:105A200090F4803209F1833229F137FC3CC020ED3B
:105A3000280F2A3050F536FE20C08AE0989E200DAF
:105A40001124922E06C08D3291F0803371F7689444
:105A500030F8F30193FD859193FF81913F0181110E
:105A6000DACF21C0689431F8689432F8F2CF6894A4
:105A700033F8EFCF689434F8ECCFEAE02E9E200D97
:105A80001124222E689435F8E4CF8E3229F436FCA6
:105A900004C1689436F8DDCF8C3619F4689437F871
:105AA000D8CF8836B1F2982F9F7D95549330E0F08F
:105AB0008336A1F18337C1F1833509F063C0280132
:105AC000F2E04F0E511CF801C080D180692D70E0CA
:105AD00036FC02C06FEF7FEFC6010E94B72E4C016B
