:100000000C94AB000C94D3000C94D3000C94D3004C
:100010000C94D3000C94D3000C94D3000C94D30014
:100020000C94D3000C94D3000C94D3000C94911D29
:100030000C94D3000C94D3000C94D3000C94D300F4
:100040000C94C21B0C94D3000C94321C0C940C1C0A
:100050000C94D3000C94D3000C94D3000C94D300D4
:100060000C94721C0C94D300200020004F4B004FC6
:100070004B004F4B006E2F61007E306D79335B5F1C
:10008000707F7B771F0D3D4F470000000000000090
:100090000000000000000000000000000000000060
:1000A0000000000000800180257E306D79335B5FA9
:1000B000707F7B00000009000000777F4E7E4F4775
:1000C0005F37307C000E00767E677E775B463E00B1
:1000D0000000336D4E13780008007D1F0D3D4F4723
:1000E0007B373038000600151D6773055B0F1C0059
:1000F0000000276D4E00780000000000002400275B
:10010000002A0000000000250028002B000000004D
:10011000002300260029000404040404040404024B
:100120000202020202030303030303010204081094
:100130002040800102040810200102040810200061
:100140000000080002010000030407000000000096
:10015000000000004D1E11241FBECFEFD8E0DEBF0F
:10016000CDBF12E0A0E0B1E0E4ECFCE502C00590F8
:100170000D92A032B107D9F727E0A0E2B2E001C0AA
:100180001D92A439B207E1F710E0CBEAD0E004C039
:100190002197FE010E941629CA3AD107C9F70E9489
:1001A000811F0C94602E0C940000AC0110927F060D
:1001B00090914F0780914E07FA01BF01641B750BA8
:1001C00020917F06308130937F06931304C09213F1
:1001D00002C010927F063081311104C0921721F0C5
:1001E000CB0108953817D1F33196E7CF0F931F93C2
:1001F000CF93DF9380914307882309F446C0D0E072
:10020000C0E0813029F482E080934307C3E8D6E060
:1002100080914407882341F1209721F4C091480739
:10022000D09149078E01CE010E94D500892B29F477
:100230002196F80180818111F5CFF8018081882312
:1002400009F1C8010E94D500F801E80FF91F80816B
:10025000882311F010823196F0934907E093480704
:1002600010934707009346078091460790914707F0
:10027000892B59F081E080934407DF91CF911F9142
:100280000F91089510E000E0EBCF80E0F6CF0E94E0
:10029000F600882351F081E080934407809345075E
:1002A000809146079091470708951092450790E086
:1002B00080E00895833081F028F4813099F0823015
:1002C000A9F008958730A9F08830C9F08430B1F4DE
:1002D000809180008F7D03C0809180008F77809314
:1002E0008000089584B58F7784BD089584B58F7D8F
:1002F000FBCF8091B0008F778093B00008958091FC
:10030000B0008F7DF9CFCF93DF93282F30E0F90134
:10031000E15CFE4F8491F901E55DFE4FD491F90156
:10032000E95EFE4FC491CC23A1F081110E945A01D5
:10033000EC2FF0E0EE0FFF1FE35FFE4FA591B491AD
:10034000EC91ED2381E090E009F480E0DF91CF9122
:10035000089580E090E0FACF1F93CF93DF93282F8A
:1003600030E0F901E15CFE4F8491F901E55DFE4F5B
:10037000D491F901E95EFE4FC491CC23A9F0162F68
:1003800081110E945A01EC2FF0E0EE0FFF1FED5F8C
:10039000FE4FA591B4918FB7F894EC91111108C05C
:1003A000D095DE23DC938FBFDF91CF911F9108950D
:1003B000DE2BF8CFCF93DF9390E0FC01E55DFE4F9D
:1003C0002491895E9E4FFC0184918823D1F090E0B6
:1003D000880F991FFC01E750FF4FA591B491FC01D4
:1003E000ED5FFE4FC591D491623071F49FB7F894E0
:1003F0003C91822F809583238C93E8812E2B288338
:100400009FBFDF91CF9108958FB7F894EC912E2B79
:100410002C938FBFF6CF1F93CF93DF93182FEB0151
:1004200061E00E94DA01209739F460E0812FDF91CA
:10043000CF911F910C94AC01CF3FD10511F461E035
:10044000F5CFE12FF0E0E15CFE4FE491E33031F1D4
:1004500040F4E130B1F0E230E1F0C038D1057CF792
:10046000E4CFE73029F1E83059F1E430B1F7809179
:100470008000806280938000D0938B00C0938A00BC
:1004800004C084B5806884BDC7BDDF91CF911F9142
:10049000089584B5806284BDC8BDF7CF8091800087
:1004A000806880938000D0938900C0938800EDCF4E
:1004B0008091B00080688093B000C093B300E5CF16
:1004C0008091B00080628093B000C093B400DDCF13
:1004D0008E3008F08E508770806480937C0080910D
:1004E0007A00806480937A0080917A0086FDFCCF48
:1004F000809178009091790008953FB7F8948091A9
:10050000EC039091ED03A091EE03B091EF0326B5BB
:10051000A89B05C02F3F19F00196A11DB11D3FBF3B
:10052000BA2FA92F982F8827BC01CD01620F711D0A
:10053000811D911D42E0660F771F881F991F4A9504
:10054000D1F708952FB7F8946091E8037091E9030B
:100550008091EA039091EB032FBF0895DC01ED91A8
:10056000FC910190F081E02D0994EF92FF920F939E
:100570001F93CF93DF938C017B01D0E0C0E0F701A4
:10058000EC0FFD1F6491662361F0D801ED91FC91A1
:100590000190F081E02DC8010995892B11F0219679
:1005A000EECFCE01DF91CF911F910F91FF90EF9091
:1005B0000895AF92BF92CF92DF92EF92FF920F9386
:1005C0001F93CF93DF936C017B018B01040F151FE9
:1005D000EB015E01AE18BF08C017D10759F0699151
:1005E000D601ED91FC910190F081E02DC6010995B5
:1005F000892B79F7C501DF91CF911F910F91FF9062
:10060000EF90DF90CF90BF90AF900895FC01538D95
:10061000448D252F30E0842F90E0821B930B5417DC
:1006200010F0CF96089501970895FC01918D828D69
:10063000981779F0A28DAE0FBF2FB11D5D962C914A
:10064000828D8F5F60E60E94F628928F822F90E065
:1006500008958FEF9FEF0895FC01918D828D98177B
:1006600031F0828DE80FF11D858D90E008958FEFB8
:100670009FEF0895FC01918D228D892F90E0805A83
:100680009F4F821B910960E670E00E940229089545
:100690008DEB95E00E943A0321E0892B09F420E0DC
:1006A000822F089580E090E0892B29F00E94480372
:1006B00081110C9400000895FC01A48DA80FB92F9E
:1006C000B11DA358BF4F2C91848D90E001968F737C
:1006D0009927848FA689B7892C93A089B1898C9199
:1006E000837080648C93938D848D981306C00288E8
:1006F000F389E02D80818F7D80830895EF92FF92B2
:100700000F931F93CF93DF93EC0181E0888F9B8D34
:100710008C8D98131AC0E889F989808185FF15C0EE
:100720009FB7F894EE89FF896083E889F989808111
:100730008370806480839FBF81E090E0DF91CF91E0
:100740001F910F91FF90EF900895F62E0B8D10E002
:100750000F5F1F4F0F731127E02E8C8D8E110CC071
:100760000FB607FCFACFE889F989808185FFF5CFBC
:10077000CE010E945C03F1CFEB8DEC0FFD2FF11D3C
:10078000E358FF4FF0829FB7F8940B8FEA89FB89FB
:1007900080818062CFCFCF93DF93EC01888D882357
:1007A000B9F0AA89BB89E889F9898C9185FD03C0D4
:1007B000808186FD0DC00FB607FCF7CF8C9185FFB9
:1007C000F2CF808185FFEDCFCE010E945C03E9CF9F
:1007D000DF91CF910895089520919903260F332733
:1007E000331F21323105ECF420911604FC0190E016
:1007F00080E0243069F082E00895A091990321916E
:10080000AC0149585C4FA40FB52FB11D2C93019634
:10081000861798F380919903680F6093990380E09D
:10082000089581E008951092160481E080931504E4
:100830001092F00361E082E10E94AC0161E083E18B
:100840000E94AC01E9EBF0E080818E7F80838081A3
:100850008D7F808388E48093B80085E48093BC001A
:100860000895CF93DF9391E0909376038823B9F0B6
:10087000C091B800D091BA008091BC008A7B80936F
:10088000BC0060E082E10E94AC0160E083E10E9474
:10089000AC010E941304D093BA00C093B800DF915A
:1008A000CF9108958F929F92AF92BF92CF92DF9295
:1008B000EF92FF920F931F93CF93DF93D0913F045A
:1008C000D13208F0D7C0182FC0913E040E947D029B
:1008D0006B017C018091160481116BC082E08093D2
:1008E0001604109315048FEF8093140410921304D0
:1008F000D0931204AEE1B4E0E2EFF3E080E0D8136D
:1009000091C01092F1038091F103CC0FC82BC093DA
:10091000F1038091F003813009F088C01092F00358
:100920000E947D026B017C018091F1038093BB00EA
:100930008091180490911904A0911A04B0911B049D
:10094000892B8A2B8B2BA1F00E947D020091180429
:100950001091190420911A0430911B046C197D091F
:100960008E099F09061717072807390708F442C0A0
:100970008091BC0083FDD8CF85EC8093BC000E94A1
:100980007D026B017C0180911604823009F450C015
:10099000809114048F3F09F46FC080911404803259
:1009A00009F46CC080911404803309F469C084E0B8
:1009B00026C08091180490911904A0911A04B09156
:1009C0001B04892B8A2B8B2B09F484CF0E947D0278
:1009D0008090180490901904A0901A04B0901B0401
:1009E0006C197D098E099F0986169706A806B90617
:1009F00008F070CF809117040E94310485E01092B6
:100A00001D0410923F0410921C04DF91CF911F919E
:100A10000F91FF90EF90DF90CF90BF90AF909F909D
:100A20008F9008959D9191938F5F69CF85EEA5CFAB
:100A30008091180490911904A0911A04B0911B049C
:100A4000892B8A2B8B2B09F49ECF0E947D0200916B
:100A500018041091190420911A0430911B046C1988
:100A60007D098E099F09061717072807390708F01F
:100A70008ACFC0CF81E0C3CF80E0C1CF82E0BFCFBB
:100A800083E0BDCF81E00C94520408950895089549
:100A9000E091750380917403E81730F4F0E0EC5AAC
:100AA000FC4F808190E008958FEF9FEF0895909123
:100AB0007503809174032FEF3FEF981748F4E92FE7
:100AC000F0E0EC5AFC4F208130E09F5F909375037B
:100AD000C90108958091740390917503891B990B46
:100AE0000895CF92DF92EF92FF920F931F93CF93CF
:100AF000DF937C01CB018A0120911C04222389F021
:100B0000EB016B01C40ED51ECC15DD0569F06991B2
:100B1000D701ED91FC910190F081E02DC70109957D
:100B2000F3CF642F0E94EC03C801DF91CF911F9196
:100B30000F91FF90EF90DF90CF900895CF93DF93C8
:100B40001F92CDB7DEB7698320911C042223F9F0F0
:100B500020913F04203258F021E030E0FC01338343
:100B6000228390E080E00F90DF91CF9108958091F3
:100B70001D04E82FF0E0E25EFB4F998190838F5FC8
:100B800080931D0480933F0481E090E0ECCF61E00E
:100B9000CE0101960E94EC03F7CFCF93C82F682FA8
:100BA000646080E494E00E949E056C2F70E06B7F8F
:100BB00080E494E0CF910C949E050F931F93CF9304
:100BC000DF938C01C62FD42FFC01848191E0909398
:100BD0001C0480933E0410921D0410923F04862F43
:100BE000807F842B9585892B0E94CD05F0E1CF9FD6
:100BF000C0011124F8019585892B8D2B0E94CD050C
:100C0000DF91CF911F910F910C944205CF93DF9309
:100C1000CDB7DEB728970FB6F894DEBF0FBECDBFB5
:100C200028E0E5E4F1E0DE01119601900D922A95AD
:100C3000E1F7FC012385261710F46FEF620F70E0D7
:100C4000660F771F21E030E02C0F3D1F620F731FEE
:100C5000FB016081606840E028960FB6F894DEBF23
:100C60000FBECDBFDF91CF910C94DD05CF93DF9305
:100C7000EC0140E061E00E94DD058BE39FE101971C
:100C8000F1F78985882331F060E0CE01DF91CF91C3
:100C90000C940606DF91CF91089541E00E94DD0596
:100CA00081E090E00895FC01248131E030931C0440
:100CB00020933E0410921D0410923F04607F8585AE
:100CC000862B0E94CD050C944205AF92BF92CF9225
:100CD000DF92EF92FF920F931F93CF93DF936C01FC
:100CE000FC01848191E090931C0480933E04109257
:100CF0001D0410923F04EB01042F10E05B01A00ED5
:100D0000B11EF12CEE24E394CA15DB0541F1899163
:100D1000F60195859160807F892B0E94CD05FE01AB
:100D200031972081F0E12F0290011124F601858591
:100D30008160822B0E94CD05F394F7E0FF1520F728
:100D400080E00E945204F6018481E0921C048093AA
:100D50003E0410921D0410923F04F12CD5CF0E9446
:100D60004205C8010197DF91CF911F910F91FF902C
:100D7000EF90DF90CF90BF90AF90089590E080E02B
:100D80000895CF93DF93FC012381222359F1EC01D5
:100D900061E084810E94DA0161E08D810E94DA01C4
:100DA0008B81843011F08830B1F461E08E810E9433
:100DB000DA0161E08F810E94DA018FA58F3F91F007
:100DC00061E00E94DA016EA581E068278FA5DF91BE
:100DD000CF910C94AC01833011F0863071F761E053
:100DE0008E81E9CFDF91CF910895CF93DF93FC01FE
:100DF00023812223A9F0EC010190F081E02D0480F1
:100E0000F581E02D60E009958FA58F3F49F061E005
:100E10000E94DA016EA58FA5DF91CF910C94AC01F1
:100E2000DF91CF910895DC01ED91FC912481358112
:100E30004770552766277727415051096109710985
:100E4000473051056105710560F4FA01E65DF84F20
:100E50000C9416293407360738073A073C073E0733
:100E6000400761E0F901099465E0FCCF64E0FACF46
:100E700066E0F8CF62E0F6CF6AE0F4CF68E0F2CF48
:100E800069E0F0CFCF93DF93EC01CB01BA0126E00C
:100E900030E040E050E00E944C286230710581054E
:100EA000910589F16CF46115710581059105D1F009
:100EB0006130710581059105F9F0DF91CF910895B9
:100EC000643071058105910561F124F1653071058A
:100ED0008105910591F7E881F9810480F581E02D84
:100EE00066E006C0E881F9810480F581E02D64E0C8
:100EF000CE01DF91CF910994E881F9810480F581D9
:100F0000E02D65E0F5CFE881F9810480F581E02DE1
:100F100061E0EECFE881F9810480F581E02D63E0A6
:100F2000E7CFE881F9810480F581E02D62E0E0CF30
:100F3000DC01ED91FC910480F581E02D4370552793
:100F400066277727423051056105710571F04330FE
:100F500051056105710559F0413051056105710573
:100F600011F065E0099466E0FDCF6AE0FBCF69E02F
:100F7000F9CFCF93DF93EC01CB01BA0123E030E04E
:100F800040E050E00E944C286130710581059105D8
:100F900099F06230710581059105A9F0672B682BE6
:100FA000692BC1F4E881F9810480F581E02D64E0CA
:100FB000CE01DF91CF910994E881F9810480F58118
:100FC000E02D61E0F5CFE881F9810480F581E02D25
:100FD00062E0EECFDF91CF910895DC01ED91FC91BD
:100FE0000480F581E02D437055276627772742302E
:100FF00051056105710571F04330510561057105B9
:1010000059F0413051056105710511F062E0099414
:1010100063E0FDCF61E0FBCF60E0F9CFCF93DF93DA
:10102000EC01E881F9810480F581E02D8A8160E09E
:10103000811162E0CE010995E881F9810480F58192
:10104000E02D8A8161E0811163E0CE0109958CA5D4
:101050009DA58230910538F0880F991F880F991F40
:1010600005970197F1F7E881F9810480F581E02D7A
:101070008A8160E0811162E0CE01DF91CF91099415
:10108000CF93DF93EC0120E030E0A9016C897D89EA
:101090008E899F890E94312A18162CF4E8A9F9A993
:1010A000DF91CF910994EAA9FBA9FACFCF92DF9201
:1010B000EF92FF920F931F93CF93DF93DC01139670
:1010C000CC91C43039F0C83059F1C33019F0C63072
:1010D00049F1C2E08C010C5F1F4FF12CE12CC62EB0
:1010E000D12CD1E0F8016481C6010E2C02C0959587
:1010F00087950A94E2F780FD6D270F5F1F4F80816F
:101100000E94AC01BFEFEB1AFB0AEC1658F3DF911B
:10111000CF911F910F91FF90EF90DF90CF900895A6
:10112000C4E0D8CFC3E0D6CFDC011396EC9113977F
:10113000E93008F038C0F0E0E056F74F0C9416297B
:10114000A908AF08B508BB08C108D308C708D30869
:10115000CD08ED91FC910084F185E02D0994ED918D
:10116000FC910284F385E02DF9CFED91FC9104848C
:10117000F585E02DF3CFED91FC910684F785E02D08
:10118000EDCFED91FC910088F189E02DE7CFED9155
:10119000FC910288F389E02DE1CFED91FC91048868
:1011A000F589E02DDBCF08954F925F926F927F9289
:1011B0008F929F92AF92BF92CF92DF92EF92FF9267
:1011C0000F931F93CF93DF93EC01C888D988EA88E7
:1011D000FB888C859D85AE85BF85C81AD90AEA0A29
:1011E000FB0A6C897D898E899F899B01AC010E94D5
:1011F00078274B015C016C8D7D8D8E8D9F8D9B01C1
:10120000AC010E941D299B01AC01C501B4010E94E3
:1012100089290E94FB29C114D104E104F10409F0D9
:10122000B1C062307105810591050CF0CBC01CA2E4
:101230001DA21EA21FA21C8A1D8A1E8A1F8A1CAA0A
:101240001DAA1EAA1FAADF91CF911F910F91FF9097
:10125000EF90DF90CF90BF90AF909F908F907F9056
:101260006F905F904F9008951016110612061306A6
:10127000B4F46C157D058E059F051CF42A8121119F
:10128000A1C09B01AC0188279927DC01821B930B2D
:10129000A40BB50B8CAB9DABAEABBFAB93C0011534
:1012A00011052105310509F48DC06C157D058E05EC
:1012B0009F050CF087C08A81882309F483C030958C
:1012C0002095109501951F4F2F4F3F4F0CAB1DAB35
:1012D0002EAB3FAB77C0011511052105310509F48F
:1012E00071C08824992454018C189D08AE08BF0849
:1012F000681579058A059B050CF064C08A81811107
:1013000061C0DDCFCCACDDACEEACFFACA70196018B
:10131000C701B6010E941D292B013C01C501B40182
:101320000E94192720E030E040E850E40E9478272E
:1013300020E030E040E85FE30E941D299B01AC0102
:10134000C301B2010E9489299B01AC01C701B6010A
:101350000E941C293B016C01FE01E05CFF4FE08014
:10136000F180028113819701A8010E94312A181689
:1013700014F473018601C701D8018CAF9DAFAEAFE5
:10138000BFAF3AC00CA91DA92EA93FA91C141D046A
:101390001E041F040CF468CF101611061206130663
:1013A0000CF099CF0027112798010C191D092E095F
:1013B0003F0960177107820793070CF062CF2A81FB
:1013C00021115FCF8CA89DA8AEA8BFA8811491045D
:1013D000A104B10409F096CF88AD99ADAAADBBAD1B
:1013E0008CAF9DAFAEAFBFAF81E01C141D041E04D7
:1013F0001F040CF080E08A833FEF831A930AA30A4C
:10140000B30A8CAA9DAAAEAABFAACCACDDACEEAC46
:10141000FFACC701B6010E94022A6CA37DA38EA374
:101420009FA3A701960160E074E284E799E40E941B
:1014300089296C8B7D8B8E8B9F8B2A81211103CF09
:1014400090586C8B7D8B8E8B9F8BFDCEDF92EF92B5
:10145000FF920F931F93CF93DF93D090DC0393E021
:10146000D91609F44EC0E82FF0E0DF01AC5DBD4FA6
:101470007D019C91911145C0062F10E00C5D1D4F20
:10148000F801908191113DC0FFE1DF9ED001112450
:10149000ED01CC5EDA4F1A821E821D823C832B83C3
:1014A00088836983A35EBA4F95E0949FF00111246D
:1014B000E35BFE4F01900D929A95E1F762E00E9486
:1014C000DA0162E089810E94DA011E86188A1F868D
:1014D0001A8A198A18861F8A188E198E1A8E84EF16
:1014E00091E0A0E0B0E08B8B9C8BAD8BBE8B81E05C
:1014F0008A8388E0D7018C93F8018083D394D092BB
:10150000DC03DF91CF911F910F91FF90EF90DF905F
:101510000895E4E2F2E09191981303C0DF0111977E
:101520001C9292E0E233F907B1F70895FC01DC0167
:10153000AA5BBF4F8C918823D1F08181811117C0A4
:1015400081E0818382899389A489B589803699470E
:10155000AE4FBF4F61F080E699E7AEEFBFEF828BF1
:10156000938BA48BB58BCF0102960C94D40808956D
:10157000DC01E091BE03F091BF03309761F0139658
:101580008C911397882339F04D915C9111971296A5
:101590006C9181E009940895DC01E091BE03F09123
:1015A000BF03309759F013968C911397811106C0A1
:1015B0004D915C91119712966C9109940895EF9258
:1015C000FF920F931F93CF93DF93CBE8D5E08E016B
:1015D000F12CE12C8091E1038E151F0449F0C80124
:1015E0000E94B80A8FEFE81AF80A0C5F1F4FF2CF7B
:1015F00010E000E08091E1038017110639F0CE0180
:101600000E94CC0A0F5F1F4F2496F4CFDF91CF9139
:101610001F910F91FF90EF900895EF92FF920F931B
:101620001F93CF93DF938B01040F151FEB017C01F8
:10163000E61AF70AC7018C0F9D1F2091BB05309158
:10164000BC058217930768F40E94362889930C170B
:101650001D0781F7DF91CF911F910F91FF90EF90C0
:10166000089580E0F3CF0F931F93CF93DF93082F5C
:10167000162FD42FC8E06D2F661F6627661F802F98
:101680000E94AC01DD0F61E0812F0E94AC0160E09F
:10169000812F0E94AC01C15071F7DF91CF911F9152
:1016A0000F910895EF92FF920F931F93CF93DF93C3
:1016B00000D0CDB7DEB78C0149832A83660F771F30
:1016C000F801E688F788EE0CFF1CCF01801B910B18
:1016D0008E159F0514F41192F8CF8981F801E60F59
:1016E000F71F81838A81808360E0F80184890E94EA
:1016F000AC011E141F046CF4F1E0EF1AF108F801BC
:10170000EE0DFF1D4081F801628980890E94330B34
:10171000F0CF61E0F80184890F900F90DF91CF91B5
:101720001F910F91FF90EF900C94AC01FC01268962
:101730003789621773073CF420E0411101C021E0B2
:101740004CE00C94520B0895FF920F931F93CF938C
:10175000DF93F82E80912202882371F0C0E08091FF
:101760008A05C81749F06C2F70E04F2D81E795E08E
:101770000E94960BCF5FF3CFCBEAD5E010E000E0FC
:10178000809121028017110679F0FF2051F0198213
:1017900070E060E088810E940B020F5F1F4F22966D
:1017A000EFCF698170E0F6CFDF91CF911F910F915C
:1017B000FF9008950F931F93CF93DF93EC0160E0A8
:1017C00088810E94AC010B8188E0089F8001112470
:1017D00008501109083F8FEF180789F04C815D818F
:1017E0006E817F81002E04C0769567955795479549
:1017F0000A94D2F769818A810E94330BE9CF61E0B4
:101800008881DF91CF911F910F910C94AC010E94C0
:10181000F600882359F081E08093440780934507C0
:1018200080914607909147070C94842610924507B3
:1018300090E080E008956F927F928F929F92AF9296
:10184000BF92CF92DF92EF92FF920F931F93CF93AD
:10185000DF930E94070C7C010E94070C8C010E9400
:1018600047015C010E94070C6C010E94070C2AE1F1
:101870002E9DE0012F9DD00D1124CF58DA4F288DD9
:101880002223A9F1712C48E07C01FF2411274E018D
:1018900086E1880E911CDD2466246A94640EC701DB
:1018A000062C02C0959587950A94E2F780FF1CC02C
:1018B000F4018081918108171907ACF4F501E70D57
:1018C000F11DE081F0E0E758FF4F2491C601062C9E
:1018D00002C0959587950A94E2F780FD2068B801CB
:1018E000CE010E94520B7394462D6110D5CF0E94F9
:1018F000A2026093C0037093C1038093C2039093CC
:10190000C303DF91CF911F910F91FF90EF90DF9074
:10191000CF90BF90AF909F908F907F906F900895E1
:101920000F931F93CF93DF930E94070C8C010E94AB
:10193000070CEC010E94070C9AE1909FF001919F27
:10194000F00D1124EF58FA4F908D992379F0918D75
:10195000C91760F4BE017727268937896217730794
:101960002CF4282F4AE0CF010E94520B0E94A202C1
:101970006093C0037093C1038093C2039093C30329
:10198000DF91CF911F910F9108950C94900CCF93FC
:101990000E94070CC82F0E94070CBC018C2F0E94CC
:1019A0000B020E94A2026093C0037093C103809354
:1019B000C2039093C303CF9108958F929F92AF92E9
:1019C000BF92CF92DF92EF92FF920F931F93CF932C
:1019D000DF930E94070C8C010E94070CBC018091D0
:1019E000C5038017110609F00CF4BFC087E1809F82
:1019F000E001819FD00D1124CA51DB4FCD80DE80E4
:101A00000D2C000CEE08FF0889809A80092C000C30
:101A1000AA08BB082F813885032E000C440B550BF8
:101A20002C193D094E095F09072E000C880B990BF4
:101A3000681979098A099B090E94E6282B813C8153
:101A4000032E000C440B550B281939094A095B0970
:101A50000E944C28BA01A9014C0D5D1D6E1D7F1D11
:101A6000052E000C660B770B8D859E85AF85B8899A
:101A700084179507A607B70709F46DC04D875E87E1
:101A80006F87788B8985811166C08A858C3008F0D4
:101A900058C0F88061E08F2D0E94DA018A85282FD6
:101AA00030E0F901EE0FFF1FE20FF31FE45BFB4F85
:101AB0002F2D2F739081907C922B90831B861C86F8
:101AC0002CE0622F0E94F628829FB001112430E0A2
:101AD00020E0AB01420F531FFA01EE0FFF1FE40F8E
:101AE000F51FE45BFB4F908196FD16C02F5F3F4FC3
:101AF0002C30310571F781110FC01092800082E007
:101B0000809381001092850010928400B19A809198
:101B10006F00826080936F0087E1809FF001819F5A
:101B2000F00D1124EA51FB4FE2858E2F90E0FC016D
:101B3000EE0FFF1FE80FF91FE45BFB4F808180640D
:101B4000808387E1809FF001819FF00D1124EA518D
:101B5000FB4F81E081870E94A2026093C0037093D3
:101B6000C1038093C2039093C303DF91CF911F9170
:101B70000F91FF90EF90DF90CF90BF90AF909F902C
:101B80008F9008950E94070C2091CE032817190604
:101B9000A1F09CF0880F991FFC01E653FC4F808157
:101BA00091810E94960A0E94A2026093C0037093E2
:101BB000C1038093C2039093C30308950E94070C4E
:101BC0002091CE032817190639F134F1880F991F97
:101BD000FC01E653FC4F0190F081E02D168617863C
:101BE000108A118A128A138A148A158A16AA17AAC9
:101BF00010AE11AE16A217A210A611A6168A178A49
:101C0000108E118E0E94A2026093C0037093C103D4
:101C10008093C2039093C3030895AF92BF92CF9273
:101C2000DF92EF92FF921F93CF93DF930E94070CF6
:101C30006C010E9447017C0186E08C9DE0018D9D36
:101C4000D00D1124C652DB4F8A81882321F110E088
:101C50005E0185E0A80EB11C6E01A4E0CA0ED11C85
:101C6000F50180818117B9F0612F888199810E94E7
:101C7000060688819981D6014C91B701149F600DA9
:101C8000711D1124DC01ED91FC910284F385E02D9E
:101C900009951F5FE5CF0E94A2026093C003709375
:101CA000C1038093C2039093C303DF91CF911F912F
:101CB000FF90EF90DF90CF90BF90AF900895FB0121
:101CC00001900020E9F73197AF01461B570BDC016B
:101CD000ED91FC910280F381E02D099480917A06C8
:101CE0008823A1F060914D0780914B0790914C079C
:101CF0000E94AE0280918206882341F063ED71E07C
:101D000080914B0790914C070E945F0E10928106C4
:101D100010927A0680E008958F929F92AF92BF92C0
:101D2000EF92FF920F931F93CF93DF93CDB7DEB760
:101D3000A1970FB6F894DEBF0FBECDBF7C01FA01AC
:101D4000CB0119A2223008F42AE08E010F5D1F4F4B
:101D5000822E912CB12CA12CBF01A50194010E94CF
:101D6000B528F901CA016A300CF5605DD8016E939F
:101D70008D01232B242B252B79F790E080E0109701
:101D800021F0BD01C7010E945F0EA1960FB6F89425
:101D9000DEBF0FBECDBFDF91CF911F910F91FF909E
:101DA000EF90BF90AF909F908F900895695CDECFC9
:101DB00090917A06911110C091E090937A069093D9
:101DC0008106482F50E070E060E02AE080914B07E8
:101DD00090914C070C948C0E0895CF93DF939091C3
:101DE0007A0691111AC0EB010E94D80E80917A06F2
:101DF000882379F060914E0780914B0790914C07B2
:101E00000E94AE02BE0180914B0790914C070E9448
:101E1000B502DF91CF910C946E0E80E0DF91CF91EF
:101E200008950E94A2026093C0037093C10380933F
:101E3000C2039093C30365E770E085E00C94ED0E58
:101E400081E08093E60362E770E081E10C94ED0E9F
:101E5000CF93DF930E94A2026093C0037093C103EB
:101E60008093C2039093C3038AE00E94D80E8091AE
:101E7000BB059091BC05C0E0CC9728F08BE390E0C7
:101E80000E943628C82F80917A06882379F06091C5
:101E90004E0780914B0790914C070E94AE026C2F29
:101EA00080914B0790914C070E94AE02C1E0D0E0B8
:101EB0008091510390915203C817D907D0F4CE01F5
:101EC000CB962091BB053091BC058217930778F41F
:101ED0000E94362890917A06992339F0682F8091D4
:101EE0004B0790914C070E94AE022196E1CF80E013
:101EF000F1CFDF91CF910C946E0ECF93DF930E94C0
:101F0000A2026093C0037093C1038093C2039093B5
:101F1000C3030E944701BC01FC0101900020E9F7C6
:101F20003197E81BF90BFF278091510390915203E1
:101F3000EC01CE0FDF1F9E012F5F3F4F2E3131404E
:101F400060F5AF014F5F5F4F8D5C9D4F0E94B62BD8
:101F5000D0935203C093510380917A0681113FC000
:101F600085E00E94D80E80917A06882391F06091D6
:101F70004E0780914B0790914C070E94AE02AE0134
:101F800070E060E02AE080914B0790914C070E943E
:101F90008C0EDF91CF910C946E0E80917A06811198
:101FA0001EC085E00E94D80E80917A06882389F3AE
:101FB00060914E0780914B0790914C070E94AE02B2
:101FC000C0914B07D0914C076DE2CE010E94AE024A
:101FD0002AE041E050E060E070E0CE01D8CFDF9130
:101FE000CF910895CF93DF9320917A062223A1F019
:101FF000EC0160914E0780914B0790914C070E9435
:10200000AE02209749F0BE0180914B0790914C079A
:10201000DF91CF910C945F0EDF91CF9108950F93D4
:102020001F93CF93C82F8A0187E00E94D80EC80162
:102030000E94F20F80917A06882399F060914E07F2
:1020400080914B0790914C070E94AE024C2F50E0BC
:1020500070E060E02AE080914B0790914C070E946D
:102060008C0ECF911F910F910C946E0E0F931F93B6
:10207000CF93C82F8A0186E00E94D80EC8010E9423
:10208000F20F80917A06882399F060914E07809133
:102090004B0790914C070E94AE024C2F50E070E02D
:1020A00060E02AE080914B0790914C070E948C0ED3
:1020B000CF911F910F910C946E0ECF92DF92EF9201
:1020C000FF92CF93DF936C01EA018CE10E94D80E5E
:1020D000CE010E94F20F80917A06882321F160914F
:1020E0004E0780914B0790914C070E94AE02C09121
:1020F0004B07D0914C070D2C000CEE08FF082AE08E
:10210000B701A601F7FE0CC06DE2CE010E94AE023F
:1021100044275527BA014C195D096E097F092AE049
:10212000CE010E948C0EDF91CF91FF90EF90DF9057
:10213000CF900C946E0E0E94A2026093C003709325
:10214000C1038093C2039093C3038AE00E94D80E18
:1021500080E991E00E94F20F8BE091E00E94F20F83
:1021600080E091E00E94F20F86ED91E00E94F20F74
:102170000C946E0EFB0101900020E9F73197AF013E
:10218000461B570BDC01ED91FC910284F385E02D99
:102190000994FF920F931F93CF93DF93EC018B0170
:1021A000642F888199810E940606F12CF801019024
:1021B0000020E9F73197E01BF10B888199812C8190
:1021C00030E02E1B3F0B36952795F216130631F0A3
:1021D0006AE670E00E94B502F394E8CFB8010E946D
:1021E0005F0EF12CF80101900020E9F73197E01B18
:1021F000F10B8C8190E08E1B9F0B96958795F816BE
:10220000190641F068E670E0888199810E94B50264
:10221000F394E8CFDF91CF911F910F91FF90089534
:1022200085ED8093BC008091180490911904A091D1
:102230001A04B0911B040796A11DB11D23E0B695A9
:10224000A795979587952A95D1F72091BC0024FDF5
:1022500003C0109216040895409118045091190477
:1022600060911A0470911B04452B462B472B69F390
:102270000097A105B10541F025E32A95F1F700008B
:102280000197A109B109E1CF809117040C943104A1
:102290004F925F926F927F928F929F92AF92BF9276
:1022A000CF92DF92EF92FF92CF93DF93EC016A011E
:1022B0007B0120E030E0A901CB01B6010E9412278A
:1022C00087FF04C0F7FAF094F7F8F0948C8C9D8C9B
:1022D000AE8CBF8CA7019601C501B4010E941227E4
:1022E000882309F449C06CA97DA98EA99FA90E94E1
:1022F00019272B013C01A7019601C501B4010E94D9
:1023000089299B01AC01C301B2010E9478270E9478
:10231000FB296CAB7DAB8EAB9FABA701960160E058
:1023200070E080E090E40E9489290E943C2A26E522
:102330003EE04DE25FE30E94782720E034E244E78C
:1023400059E40E94782768AF79AF8AAF9BAFCC8EF3
:10235000DD8EEE8EFF8ECE01DF91CF91FF90EF905C
:10236000DF90CF90BF90AF909F908F907F906F90B5
:102370005F904F900C94D408DF91CF91FF90EF9035
:10238000DF90CF90BF90AF909F908F907F906F9095
:102390005F904F9008950F931F93CF93DF930E9408
:1023A000070CEC010E94F600882309F44AC081E082
:1023B0008093440780934507809146079091470793
:1023C0000E94A2262091CE032C171D06A9F1A4F18C
:1023D000CC0FDD1FC653DC4FE881F9811182DF018C
:1023E000A85BBF4F0D911D912D913C9113976017E4
:1023F000710782079307B1F06D937D938D939C9342
:102400001397028913892489358960177107820718
:10241000930741F0628B738B848B958BCF0102966F
:102420000E94D4080E94A2026093C0037093C1036B
:102430008093C2039093C303DF91CF911F910F91BB
:1024400008951092450760E070E0CB01BBCF4F923A
:102450005F926F927F928F929F92AF92BF92EF9214
:10246000FF920F931F93CF93DF930E94070C8C0171
:102470000E9447015C010E94070C7C0189E0809F5B
:10248000E001819FD00D1124CF58DB4F8885882330
:1024900009F442C06CED71E0C5010E94C926249682
:1024A000812C912C54018394009761F10E94842621
:1024B000488159816A817B812401350104C0440C23
:1024C000551C661C771C8A95D2F7D301C2011E14D5
:1024D0001F047CF4842B952BA62BB72B8883998320
:1024E000AA83BB836CED71E090E080E00E94C92676
:1024F000DBCF80959095A095B09584239523A62356
:10250000B723ECCF29E0209FC001219F900D11241B
:102510008F589B4F0E94DA0B0E94A2026093C00367
:102520007093C1038093C2039093C303DF91CF9153
:102530001F910F91FF90EF90BF90AF909F908F9061
:102540007F906F905F904F9008952F923F924F929F
:102550005F926F927F928F929F92AF92BF92CF9233
:10256000DF92EF92FF920F931F93CF93DF9300D0F0
:1025700000D000D01F92CDB7DEB7E091CE03E98343
:10258000E23009F438C16C01DD24F601EC5DFD4F49
:10259000E081E11130C17B01FF24F701EC5DFD4FCB
:1025A000E081E11128C11A013324F101EC5DFD4FF6
:1025B000E081E11120C1F901FF27FB83EA83EC5D93
:1025C000FD4FE081E11117C1101611063CF4F8012E
:1025D000FF27EC5DFD4FE081E1110DC149015D83F5
:1025E0004C833B012C018CE490E00E94912A9F8354
:1025F0008E835C01F2E0AF0EB11C8AE691E0EE81C1
:10260000FF819383828384E0858316861786108AF0
:10261000118A128A138A148A158A168A178A108ECA
:10262000118E40E050E060E87FE3428F538F648F6B
:10263000758F168E178E10A211A242A353A364A306
:1026400075A316A217A210A611A681E090E097A785
:1026500086A78FEF81AB12A613A614A615A68682B5
:10266000678240868C81818710AA16AA17AA10AEAD
:1026700011AE12AE13AE14AE15AEFE9610821182DC
:10268000128213828E809F80F2E48F0E911CF401DF
:102690004083518362837383EE81FF8114821286AB
:1026A000138614861586C5010E94C10640E050E0DD
:1026B00060E87FE3C5010E944811EE81FF81EA5B7B
:1026C000FF4F0083EE81FF81E95BFF4F81E0808354
:1026D000002321F062E0802F0E94DA01EE81FF8169
:1026E0001182809120028F5F809320028981E82FE0
:1026F000F0E0EE0FFF1FE653FC4F8E819F81918328
:10270000808320E030E048EC53E4FC01628D738D5F
:10271000848D958D0E941227882309F443C080E0A0
:1027200090E0A8ECB3E4EE81FF81828F938FA48FB9
:10273000B58F80E090E4ACE1B5E4F401808391834F
:10274000A283B383EE81FF8186A997A9A0ADB1AD25
:10275000181619061A061B062CF566897789808DCE
:10276000918D9B01AC010E9478272B013C01EE81E9
:10277000FF81668D778D80A191A19B01AC010E94A4
:102780001D299B01AC01C301B2010E9489290E944D
:10279000FB29EE81FF8166AB77AB80AF91AFC501BE
:1027A0000E94D40840E050E068E474E4C5010E944F
:1027B0004811F601EC5DFD4F89E08083F701EC5D87
:1027C000FD4F8083F101EC5DFD4F8083EA81FB8149
:1027D000EC5DFD4F8083101611064CF41127F801B3
:1027E000EC5DFD4F80838E819F810E94960A8981D6
:1027F0008F5F8093CE0327960FB6F894DEBF0FBE8F
:10280000CDBFDF91CF911F910F91FF90EF90DF909F
:10281000CF90BF90AF909F908F907F906F905F9080
:102820004F903F902F9008952F923F924F925F923A
:102830006F927F928F929F92AF92BF92CF92DF92D0
:10284000EF92FF920F931F93CF93DF93CDB7DEB735
:10285000A7970FB6F894DEBF0FBECDBF809151038E
:1028600090915203892B09F470C01F8E1E8EAE0109
:10287000425E5F4F6EED71E083E392E00E94CE26F0
:10288000DC012C91222309F460C0FE013796F9A3E4
:10289000E8A30E94842601978B30910508F04BC570
:1028A000FC01E45AFB4EAE01425E5F4F6EED71E0FB
:1028B00090E080E00C94162967141417BE14F314EA
:1028C0004616D8166717381790162419CE180E9486
:1028D000CE268C01AE01425E5F4F60EE71E090E06B
:1028E00080E00E94CE267C01C8010E9484266C01F3
:1028F000B090E103F8E0BF16E1F08C0111270C5D08
:102900001D4FD8018C91811114C062E08C2D0E9462
:10291000DA01B4E0BB9EF0011124E557FA4FF182D1
:10292000E082C28281E08383F8018083B394B09215
:10293000E103AE01425E5F4F6EED71E090E080E03A
:102940000E94CE26009709F0A4CFA7960FB6F89460
:10295000DEBF0FBECDBFDF91CF911F910F91FF90D2
:10296000EF90DF90CF90BF90AF909F908F907F902F
:102970006F905F904F903F902F9008950E94CE26C9
:102980008C01AE01425E5F4F60EE71E090E080E04E
:102990000E94CE26C8010E9484267C01D09021028C
:1029A000F8E0DF1631F28C0111270C5D1D4FD801C4
:1029B0008C918111BECF61E08E2D0E94DA0170E012
:1029C00060E08E2D0E940B02ED2DF0E0EE0FFF1F58
:1029D000E555FA4FE082118283E0F8018083D394B9
:1029E000D0922102A6CF0E94CE268C01AE01425E7B
:1029F0005F4F6EED71E090E080E00E94CE267C019A
:102A0000AE01425E5F4F6EED71E090E080E00E94AB
:102A1000CE266C01AE01425E5F4F6EED71E090E03C
:102A200080E00E94CE265C01AE01425E5F4F6EEDFB
:102A300071E090E080E00E94CE264C01AE01425E43
:102A40005F4F60EE71E090E080E00E94CE26C5010D
:102A50000E948426A82EC4010E9484263C01C6013F
:102A60000E9484264C01C7010E9484267C01C80173
:102A70000E9484266C01B0902202F1E0BF1609F496
:102A800058CF99279C012C5D3D4F3DA32CA3D90124
:102A90008C9181114ECFC4019927FC01EC5DFD4F53
:102AA000FFA3EEA38081811144CF970133273BA37D
:102AB0002AA3F901EC5DFD4F808181113ACF2B2CC7
:102AC000312C3AE1B39E800111240F581A4FC301F3
:102AD0009927D8015196DC92CE92509753969C92AA
:102AE0008E9252975596FC92EE9254979C012150EB
:102AF00031092830310510F088E090E0BAE1B29D4C
:102B00009001B39D300D1124F901EF58FA4F7F0168
:102B10004F01F6E18F0E911CD70157969C938E932F
:102B2000569761E08C2D0E94DA0161E0F7018289FD
:102B30000E94DA0161E0D70154968C910E94DA017B
:102B400061E0F70184890E94AC01D7015196DC92C3
:102B5000CE925097D12CC12CF40180819181C8165E
:102B6000D9069CF520E04FE0B601C8010E94520B47
:102B7000D4018D919C91C816D90634F427E04BE01E
:102B8000B601C8010E94520B20E049E0B601C8011D
:102B90000E94520BF40180819181C816D90664F419
:102BA0004424439420E0442DB601C8010E94520BF6
:102BB0004394F9E04F12F6CF41E0B601C8010E94FC
:102BC000960B2FEFC21AD20AC7CF81E0D7015896D1
:102BD0008C93589759966C92F12CE12CBAE1B29DE6
:102BE0006001B39DD00C1124F601EF58FA4F6F012C
:102BF0003F01F9E16F0E711C460128E1820E911C24
:102C000036E1C30ED11CD3018C918E151F0471F1D6
:102C1000F4019081992379F0E81668F4B7017727D9
:102C2000D6018D919C91681779072CF42A2D4AE0E2
:102C3000C8010E94520B40E0B701C8010E94960BE8
:102C4000F60180819181E816F90664F444244394E6
:102C500020E0442DB701C8010E94520B4394F9E0D3
:102C60004F12F6CF2FEFE21AF20ACDCF84E0ACA1DB
:102C7000BDA18C93EAA1FBA1EC5DFD4F8083EEA189
:102C8000FFA18083B394B092220253CE0E94CE263D
:102C90008C01AE01425E5F4F6EED71E090E080E02E
:102CA0000E94CE267C01AE01425E5F4F6EED71E068
:102CB00090E080E00E94CE266C01AE01425E5F4F44
:102CC0006EED71E090E080E00E94CE265C01AE01E6
:102CD000425E5F4F6EED71E090E080E00E94CE2694
:102CE000AE01425E5F4F60EE71E090E080E00E94D6
:102CF000CE26C5010E9484265C01C6010E9484265E
:102D00006C01C7010E9484267C01C8010E948426B0
:102D100010E000E09501A601B7010E94A51209CEBE
:102D20000E94CE264C01AE01425E5F4F6EED71E017
:102D300090E080E00E94CE267C01AE01425E5F4FB3
:102D40006EED71E090E080E00E94CE266C01AE0155
:102D5000425E5F4F6EED71E090E080E00E94CE2613
:102D60005C01AE01425E5F4F6EED71E090E080E08D
:102D70000E94CE268C01AE01425E5F4F60EE71E094
:102D800090E080E00E94CE26C8010E9484268C013B
:102D9000C5010E9484265C01C6010E9484266C0144
:102DA000C7010E9484267C01C4010E948426B2CF00
:102DB0000E94CE268C01AE01425E5F4F60EE71E054
:102DC00090E080E00E94CE26C8010E9484269C01EB
:102DD0009091C503923009F4ACCDD901BB27AC5D0D
:102DE000BD4F8C918111A5CD47E1949FF001112435
:102DF000EA51FB4F1186158616861786108A118AAE
:102E0000128A138A148A1282118244EB50E054838E
:102E100043831682158250874783208386E08C93F4
:102E20009F5F9093C50385CD0E94CE267C01AE01A5
:102E3000425E5F4F6EED71E090E080E00E94CE2632
:102E40006C01AE01425E5F4F60EE71E090E080E0A9
:102E50000E94CE268C01C6010E948426D82EC7016E
:102E60000E948426980140E06D2D0E94260A61CDC3
:102E70000E94CE267C01AE01425E5F4F6EED71E096
:102E800090E080E00E94CE266C01AE01425E5F4F72
:102E90006EED71E090E080E00E94CE265C01AE0114
:102EA000425E5F4F60EE71E090E080E00E94CE26CF
:102EB0008C01C5010E948426B82EC6010E9484267A
:102EC000D82EC7010E94842698014B2DCDCF0E9499
:102ED000CE268C01AE01425E5F4F6EED71E090E058
:102EE00080E00E94CE267C01AE01425E5F4F6EED17
:102EF00071E090E080E00E94CE266C01AE01425E5F
:102F00005F4F60EE71E090E080E00E94CE26C60147
:102F10000E948426C82EC7010E948426982EC801CC
:102F20000E948426882ED090230252E0D51609F400
:102F300000CD87E08093360280933702ED2CF12C90
:102F4000A6E0DA9EC0011124FC01E652FB4F5F01AE
:102F500083829482C5828EE090E00E94912A8C0147
:102F6000DC0113961C921E921297E4E8F1E0119690
:102F7000FC93EE9319961C92D50111969C938E9317
:102F800081E012968C93F80184829286C38614861F
:102F90001586109275031092740310921D041092FE
:102FA0003F040E94130425E435E0309398032093F6
:102FB000970346E455E050939C0340939B03D8014C
:102FC00015961C9215971B968C911B97823018F0C2
:102FD00098E015969C93F8019485992329F0813007
:102FE00019F48581846085830E947D022B013C0158
:102FF00092E3892E912CA12CB12C0E947D026419A0
:10300000750986099709683E734081059105A8F303
:10301000F1E08F1A9108A108B10828EE420E23E0D2
:10302000521E611C711C81149104A104B10429F782
:10303000D8011D966C91C8010E94530660E3C80137
:103040000E9453068BE496E40197F1F760E3C80110
:103050000E9453068BE496E40197F1F760E3C80100
:103060000E94530683E592E00197F1F760E2C80100
:103070000E945306F8016581606240E0C8010E9429
:10308000DD0584E0D80116968C9340E06CE0C80121
:103090000E94DD05C8010E94360682E0F8018783A0
:1030A00040E066E0C8010E94DD0540E062E0C80142
:1030B0000E94DD058BE39FE10197F1F786E08E9D8D
:1030C00080018F9D100D112406521B4FD801ED91E8
:1030D000FC9188E08587848191E090931C04809323
:1030E0003E0410921D0410923F0468E080E494E0D6
:1030F0000E949E050E9442058CE08093B800F80172
:103100008281882309F444C0808191810E9436061F
:10311000D80115966C91C12C633078F0669570E0FB
:1031200090E080E00E94192720E030E040E85FE373
:103130000E941C290E94022AC62E86E0B82EDB9C23
:103140008001112406521B4F4C2D62EE71E0C80124
:103150000E94C910BE9CF001BF9CF00D1124E652E4
:10316000FB4F8581823038F041E04C0D6CEE71E010
:10317000C8010E94C91086E08E9DF0018F9DF00D60
:103180001124E652FB4F60E0808191810E94060687
:10319000809123028F5F80932302CBCB0E94CE26A7
:1031A0007C01AE01425E5F4F6EED71E090E080E029
:1031B0000E94CE266C01AE01425E5F4F60EE71E070
:1031C00090E080E00E94CE268C01C6010E948426F9
:1031D000B82EC7010E9484266C01A090D503B3E0ED
:1031E000AB1609F4A6CB9927FC01EC5DFD4F7F01DE
:1031F000808181119ECB80E1A8A1B9A11D928A9501
:10320000E9F7188E1F8A198EBE82CB821A83098332
:103210001D821C8262E08C2D0E94DA018C2D0E949E
:1032200068028DE18A9DD0011124AD57BB4FFE018C
:10323000319601900D928A95E1F78BE0F70180833A
:10324000A394A092D50375CB0E94CE268C01AE012B
:10325000425E5F4F6EED71E090E080E00E94CE260E
:103260007C01AE01425E5F4F6EED71E090E080E068
:103270000E94CE266C01AE01425E5F4F6EED71E0A2
:1032800090E080E00E94CE265C01AE01425E5F4F7E
:1032900060EE71E090E080E00E94CE26C5010E94C1
:1032A0008426B82EC6010E948426D82EC7010E940B
:1032B0008426F82EC8010E948426E0903202F2E0B3
:1032C000EF1609F436CB29E0E29E800111240F5855
:1032D0001B4F91E0D80118969C9318978C931196E8
:1032E000FC9211971296DC9212971396BC9261E0B1
:1032F0000E94DA0161E0F80181810E94DA0161E057
:10330000D80112968C910E94DA01F801148215827C
:1033100016821782C8010E94DA0BD80114961D92FA
:103320001D921D921C921797C8010E94DA0BE3941C
:10333000E0923202FECAAE01425E5F4F60EE71E083
:1033400090E080E00E94CE26F4CA0E9414140C94EF
:10335000200FFF920F931F93CF93DF9381E00E9482
:10336000890A1092E10388E00E94890A1092DC0326
:1033700083E00E94890A1092210284E00E94890A57
:10338000E091220290E080E02E2F30E04AE1E49FBD
:10339000F0011124E757FA4F2817390719F0108266
:1033A0000196FACF109222028091C50350E040E0CE
:1033B000682F70E0C7E18C9FC00111248A519B4F98
:1033C000DC0119960A9664177507A9F02C9122233F
:1033D00079F0EC01E8812E2F30E0F901EE0FFF1FAC
:1033E000E20FF31FE45BFB4F20812F7B20831C92B5
:1033F0004F5F5F4FE8CF86E00E94890A1092C503B5
:10340000D0E0C0E08091CE0390E08C179D0759F08A
:10341000880F991FFC01E653FC4F808191810E9427
:103420002D2B2196EFCF89E00E94890A1092CE03BE
:1034300010E000E086E0F82E8091230290E08017F3
:10344000910791F0F89EE001F99ED00D1124C6522B
:10345000DB4F8A81882329F0888199810E942D2B56
:103460001A820F5F1F4FE8CF87E00E94890A1092EF
:1034700023028BE00E94890A1092D503E091320268
:1034800090E080E02E2F30E0D9E0ED9FF001112494
:10349000E758FB4F2817390729F040814111108266
:1034A0000196F8CF109232021092520310925103FB
:1034B0001092E603DF91CF911F910F91FF90089535
:1034C0000E94A9196CE670E085E00C94ED0EDF9285
:1034D000EF92FF920F931F93CF93DF938C01EB0139
:1034E0007B01E40EF51ED990C8010E943628D8163B
:1034F00021F06D2DC8010E943E280F5F1F4FEC1672
:10350000FD0689F7DF91CF911F910F91FF90EF900A
:10351000DF900895CF93DF9300D0CDB7DEB70E9440
:103520004701FC0190E3ABE0B1E001900D929A9568
:10353000E1F783E290E09A8389838091BB059091C3
:10354000BC05029748F041E050E0BE016F5F7F4F3D
:1035500090E080E00E94671A8091BB059091BC05C5
:10356000C19740F04FE250E06BE071E081E090E005
:103570000E94671A85E00E94D80E8BE091E00E94BD
:10358000F20F0E946E0E0F900F90DF91CF91089571
:103590008091BB059091BC058A35914040F04EE189
:1035A00051E063E372E08BE390E00E94671A6FE6FC
:1035B00070E08FE00C94ED0ECF92DF92EF92FF92CD
:1035C000CF93C82F4BE050E060E071E080E390E0E3
:1035D0000E940D0BC11109C080910001833529F4AF
:1035E000809101018E3409F466C080E00E94680277
:1035F000BC01990F880B990B611571058105910527
:1036000011F00E947B260E942C26CC24CA942FE025
:10361000D22EE12CF12CA70196010E944C287F9319
:103620006F938DEF91E09F938F9380E091E09F9354
:103630008F930E94BF2B0E942C26A70196010E9407
:103640004C287F936F9386E092E09F938F9387E05F
:1036500091E09F938F930E94BF2B8DB79EB70C96DE
:103660000FB6F8949EBF0FBE8DBF8091BB059091A1
:10367000BC05CC9700F14BE050E060E071E080E3E6
:1036800090E00E94671AC11116C08091BB0590910D
:10369000BC05CC9780F08BE390E00E94362888230D
:1036A00051F060E08BE390E0CF91FF90EF90DF90DE
:1036B000CF900C943E28CF91FF90EF90DF90CF9069
:1036C000089581E00E94DC1A8AE00E94D80E80E012
:1036D00091E00E94F20F0C946E0ECF93DF931F9235
:1036E000CDB7DEB780E094E09093BC058093BB0536
:1036F0001092330280E00E94DC1AE4E2F2E01192C0
:1037000082E0E233F807D9F70E94A2026093C00377
:103710007093C1038093C2039093C3030E94A919BD
:103720004EE151E063E372E08BE390E00E940D0B09
:1037300083E392E0FC0101900020E9F7CF0184537C
:10374000924090935203809351030E9414140E945C
:10375000200F198241E050E0BE016F5F7F4F90E083
:1037600080E00E940D0B8981833241F44FE250E0EA
:103770006BE071E081E090E00E940D0B0F90DF9113
:10378000CF9108951F920F920FB60F9211242F938D
:103790003F938F939F93AF93BF938091E803909152
:1037A000E903A091EA03B091EB033091E70323E032
:1037B000230F2D3758F50196A11DB11D2093E70366
:1037C0008093E8039093E903A093EA03B093EB039B
:1037D0008091EC039091ED03A091EE03B091EF0383
:1037E0000196A11DB11D8093EC039093ED03A0936E
:1037F000EE03B093EF03BF91AF919F918F913F91F3
:103800002F910F900FBE0F901F90189526E8230F51
:103810000296A11DB11DD2CF1F920F920FB60F922B
:1038200011242F933F934F935F936F937F938F93C5
:103830009F93AF93BF93EF93FF938DEB95E00E941F
:103840005C03FF91EF91BF91AF919F918F917F9119
:103850006F915F914F913F912F910F900FBE0F90FD
:103860001F9018951F920F920FB60F9211242F934D
:103870005F936F937F938F939F93AF93BF93EF93D8
:10388000FF93E091CD05F091CE058081E091D305C5
:10389000F091D40582FD24C020818091D60590E06E
:1038A000019660E670E00E9402299091D705981772
:1038B00041F0E091D605F0E0E354FA4F258F809374
:1038C000D605FF91EF91BF91AF919F918F917F911D
:1038D0006F915F912F910F900FBE0F901F901895D1
:1038E0008081EFCF1F920F920FB60F9211242F936A
:1038F0003F934F935F936F937F938F939F93AF9378
:10390000BF93EF93FF938091B900887F803609F4CD
:103910004AC0F0F5883209F4A7C018F5803109F4DF
:103920009BC0B8F4882309F4F9C0883009F494C026
:10393000FF91EF91BF91AF919F918F917F916F9187
:103940005F914F913F912F910F900FBE0F901F905D
:103950001895883109F488C0803251F78093140497
:1039600014C0803409F49DC040F48033B9F3883327
:10397000F9F68093140485ECB0C0803509F485C055
:10398000883509F496C0883499F60E941011D0CF7A
:10399000883909F48CC038F5883729F050F4883616
:1039A00011F0803729F683E0809316041092BD034E
:1039B00057C0883809F47BC0803919F0803809F085
:1039C000B7CF8091BD03803208F071C0E091BD0394
:1039D00081E08E0F8093BD038091BB00F0E0E35641
:1039E000FC4F80833DC0803B39F0E0F4803A09F41D
:1039F00079C0883A09F09CCF84E080931604109235
:103A00009A0310929903E0919703F0919803099516
:103A10008091990381110FC081E0809399031092E6
:103A2000770309C0803C09F4A6CF883C09F4A3CFF2
:103A3000883B09F07DCFE0919A0381E08E0F80935F
:103A40009A03F0E0E958FC4F80818093BB0090918D
:103A50009A038091990329C08091F1038093BB0060
:103A600085EC8093BC0064CF909113048091120484
:103A7000981758F5E091130481E08E0F809313049A
:103A8000F0E0EE50FC4F8081E9CFE091130481E03B
:103A90008E0F809313048091BB00F0E0EE50FC4F3A
:103AA000808390911304809112049817C8F285E8DE
:103AB000D8CFE091130481E08E0F8093130480919E
:103AC000BB00F0E0EE50FC4F808380911504811123
:103AD0005CCF81E08093F00384EA8093BC00109275
:103AE000160426CF85EC8093BC00109216048091BA
:103AF000BD03803230F4E091BD03F0E0E356FC4FAB
:103B000010826091BD0370E0E0919B03F0919C03F3
:103B10008DE993E009951092BD030ACF1092140429
:103B200034CF1F920F920FB60F9211242F933F9311
:103B30004F935F936F937F938F939F93AF93BF93B5
:103B4000CF93DF93EF93FF9380915303C091700461
:103B5000D0E087FF24C010928500109284008091ED
:103B600053038F5F8093530380915303082E000CFF
:103B7000990B8C179D0724F4809153038C30C4F16A
:103B80008091840090918500049680349C4908F4CB
:103B90007AC08091840090918500049676C08091CF
:103BA0005303082E000C990B8C179D07C4F6E09167
:103BB00053038E2FEE0F990BFC01EE0FFF1FE80F42
:103BC000F91FE45BFB4F808186FFC9CFE09153036F
:103BD0008E2FEE0F990BFC01EE0FFF1FE80FF91F60
:103BE000E45BFB4F808160E08F730E94AC01B7CF34
:103BF0002091840030918500E09153038E2FEE0FC9
:103C0000990BFC01EE0FFF1FE80FF91FE45BFB4F60
:103C100081819281820F931F909389008093880005
:103C2000E09153038E2FEE0F990BFC01EE0FFF1F57
:103C3000E80FF91FE45BFB4F808186FF11C0E09124
:103C400053038E2FEE0F990BFC01EE0FFF1FE80FB1
:103C5000F91FE45BFB4F808161E08F730E94AC0130
:103C6000FF91EF91DF91CF91BF91AF919F918F9194
:103C70007F916F915F914F913F912F910F900FBE68
:103C80000F901F90189580E49CE990938900809391
:103C900088008FEF80935303E3CFBF92CF92DF92E0
:103CA000EF92FF920F931F93CF93DF931092C00573
:103CB0001092BF0588EE93E0A0E0B0E08093C105CC
:103CC0009093C205A093C305B093C40523EB31E0E4
:103CD0003093BE052093BD0525EC30E03093CA0536
:103CE0002093C90524EC30E03093CC052093CB051C
:103CF00020EC30E03093CE052093CD0521EC30E070
:103D00003093D0052093CF0522EC30E03093D205DC
:103D10002093D10526EC30E03093D4052093D305D1
:103D20001092D6051092D7051092D8051092D90599
:103D300010924304109242048093440490934504EB
:103D4000A0934604B093470485EC91E0909341041E
:103D50008093400410925107109250078DEB95E02C
:103D600090934C0780934B07109282068CE28093CD
:103D70004E078BE380934D078FE280934F0780E6D9
:103D800080937D068FE580937E0610927C061092CC
:103D9000470710924607109249071092480781E0A2
:103DA00080934407E2E5F7E01192119287E0EE3844
:103DB000F807D1F7109281061092BC051092BB054E
:103DC000CBEAD5E011E01883198261E081E00E941E
:103DD000DA01698170E088810E940B022296A5E0D9
:103DE000CB3BDA0781F7CBE8D5E05BEAE52E55E07F
:103DF000F52E11E06BE0C62E62E0D62E1A83D98232
:103E0000C8821B8362E081E00E94DA012496EC16EE
:103E1000FD06A1F71092890510921605109235053E
:103E200010925405809170048C3098F491E0980FB2
:103E3000909370048093F00490E0FC01EE0FFF1F5C
:103E4000E80FF91FE45BFB4F88EB9BE092838183D3
:103E500003C08FEF8093F004809170048C30F0F1F8
:103E60008FEF809307051092DC041092E204C3E800
:103E7000D4E00AED14E080E1B82E92E0C92EDD24F2
:103E8000D39422E1E22E22E0F22EFE013696DF01EB
:103E90008B2D1D928A95E9F71F8A1E8A188ECD8276
:103EA000DA82F982E8821C821B8262E081E00E9451
:103EB000DA018A810E9468026D960C171D0729F7A6
:103EC0001092790410928204DF91CF911F910F918B
:103ED000FF90EF90DF90CF90BF90089591E0980F02
:103EE000909370048093070590E0FC01EE0FFF1F94
:103EF000E80FF91FE45BFB4F88EB9BE09283818323
:103F0000B2CFCF93DF9300D000D0CDB7DEB7789497
:103F100084B5826084BD84B5816084BD85B58260CE
:103F200085BD85B5816085BD80916E00816080937F
:103F30006E001092810080918100826080938100E8
:103F400080918100816080938100809180008160F8
:103F5000809380008091B10084608093B100809153
:103F6000B00081608093B00080917A00846080937B
:103F70007A0080917A00826080937A0080917A0042
:103F8000816080937A0080917A00806880937A00C3
:103F90001092C100E091CD05F091CE0582E08083C2
:103FA000E091C905F091CA051082E091CB05F0912E
:103FB000CC0580E180831092D505E091D105F09188
:103FC000D20586E08083E091CF05F091D005808115
:103FD00080618083E091CF05F091D0058081886079
:103FE0008083E091CF05F091D00580818068808347
:103FF000E091CF05F091D00580818F7D808381E1B4
:104000009FE0909351078093500785EC9CE090933C
:104010005307809352078BE19CE090935507809360
:10402000540780E99CE0909387078093860787EC8C
:104030009CE090935707809356078BEC91E1909307
:104040005907809358078DED9CE090935B07809310
:104050005A078BE990E1909365078093640788E2A3
:104060009FE090936B0780936A078DE79FE09093A2
:1040700069078093680780E69AE190936D078093C3
:104080006C0788EC9AE190936F0780936E0785EA3E
:1040900099E190937307809372078AE89AE190936D
:1040A00079078093780781E69BE190937B07809363
:1040B0007A0782EC9DE090937D0780937C078EEDDC
:1040C0009DE090937F0780937E078FED9AE0909319
:1040D0008107809380078DE69BE19093830780930F
:1040E00082078DE09EE0909385078093840787E2A6
:1040F00092E190938907809388078FE090E19093F5
:10410000BF038093BE0386E390E19093DB0380932B
:10411000DA038DE590E19093D0038093CF0381E0A3
:10412000809382060E946D1B0E94A2026C5F7F4FEB
:104130008F4F9F4F6093D6037093D7038093D8031C
:104140009093D9030E94A2026C5F7F4F8F4F9F4FC5
:104150006093D1037093D2038093D3039093D403DD
:104160000E94A2026093E2037093E3038093E4034E
:104170009093E5030E94A2026E5F7F4F8F4F9F4F87
:104180006093DD037093DE038093DF039093E0037D
:104190000E94A2026093C6037093C7038093C80372
:1041A0009093C90388E5282E82E0382E94EB892E5F
:1041B000912CA12CB12C552453948091810681110E
:1041C000CEC080914B0790914C07DC01ED91FC91A2
:1041D0000084F185E02D0995892B09F4C0C08091F8
:1041E0004B0790914C07DC01ED91FC910084F18527
:1041F000E02D099500E6E02EF12C8036910564F45F
:1042000080914B0790914C07DC01ED91FC9100846B
:10421000F185E02D09957C0160904B0770904C076B
:104220007A82698213EEC12E16E0D12E360110E09B
:1042300000E0E016F10659F10E94A202A981BA81BC
:1042400018966D937D938D939C931B97A981BA814A
:10425000ED91FC9111970284F385E02DCD01099534
:1042600097FF98C40E94A202E981FA8120853185D6
:1042700042855385621B730B840B950B248135811A
:10428000468157816217730784079507F8F21A82EF
:10429000198269807A80E614F70409F48ECFD6017A
:1042A0009D916D011092430730914F072091800638
:1042B00090938006931304C0921302C0109280065C
:1042C00080917C06E82FF0E040914D07E658F94FC9
:1042D000941330C0321771F11186882321F0509267
:1042E00043071092800610927C06109247071092A6
:1042F0004607109249071092480750924407809150
:104300004307813031F50E94070C80937B068E3184
:10431000D0F4209145072223B1F0FC01FF27EE0FD6
:10432000FF1FEE5AF84F0190F081E02D309759F0C1
:1043300009950FC091878F5F80937C0690917E06D0
:10434000891788F6DCCFE0915007F091510730973C
:1043500079F7E981FA813196FA83E9839ACFC0909F
:10436000C003D090C103E090C203F090C3038091DA
:10437000C403811115C40E94A2026C197D098E0923
:104380009F09613A7B4B8D40910528F081E0809335
:10439000C4030E94A40B8091E603882309F4EDC3B3
:1043A0000E94A2020091E2031091E3032091E40332
:1043B0003091E503601B710B820B930B6A30710522
:1043C00081059105D8F10E94A2026093E2037093E7
:1043D000E3038093E4039093E5032BE835E03A830D
:1043E000298310E000E08091E1038017110631F18C
:1043F000A981BA8112968C910E948301E981FA8188
:104400009381891771F091E0811101C090E0A98139
:10441000BA8113969C93139781110BC0CD010E9412
:10442000CC0A0F5F1F4FE981FA813496FA83E98342
:10443000DACF89819A810E94B80AF3CF0E94A20242
:104440000091DD031091DE032091DF033091E00342
:10445000601771078207930709F44EC10E94A202F8
:104460006093DD037093DE038093DF039093E0039A
:1044700024E135E03C832B831A8219820FE180917D
:10448000DC0349805A808415150409F435C1AB81D9
:10449000BC8112968C911297882309F4EBC08C9101
:1044A0000E9483016C01EB81FC8181810E94830168
:1044B0007C010E94A202AB01BC0181E090E0EF28E8
:1044C00011F090E080E0880F991F21E0CD2809F0DD
:1044D00020E0F22EF82AEB81FC81838D948DA58D4E
:1044E000B68D2A013B01481A590A6A0A7B0AD30190
:1044F000C20185369105A105B10508F4C7C08085C4
:10450000823008F4C3C0438F548F658F768F8150FB
:104510008087EB81FC81A685FA1609F467C0D084F8
:10452000F6E066246394712CFD1518F4F3E36F2E06
:10453000712CEB81FC81E584F4E0AF02D001112401
:10454000EF2D0F2C000CFF0BAE2BBF2BA156BE4F37
:10455000AC911A2F93011203C001139F900D1124E7
:104560000E2C02C0880F991F0A94E2F7AB81BC8120
:104570001F962D913C915097820F931F50969C93BC
:104580008E931F9749805A80049D9001059D300DA0
:1045900011242C5E3A4FE20FF31F2185222319F1DB
:1045A00053964D905D906D907C90569757964D9296
:1045B0005D926D927C925A97FD01438B548B658B73
:1045C000768B02C095958795EA94E2F7928B818B62
:1045D0008D2D8C3008F08BE0DD24D394D80EAB8188
:1045E000BC811896DC92EB81FC81F686AB81BC81A4
:1045F0005196ED90FC90529715968D919C9116973F
:10460000E816F906B9F1F701E81BF90BCF01E091C3
:10461000DA03F091DB036C01CC0CDD1C309709F45C
:1046200068C013964D915C9114979C012F5C3F4F8D
:104630002336310508F052C097FD42C06C9180E0EE
:104640000995CE0CDF1CB1E4CB16BFE1DB0664F0AC
:10465000EB81FC818785908983709927908B878770
:10466000128A118AF12CE12CAB81BC811696FC9246
:10467000EE921597E981FA813196FA83E9832B81CD
:104680003C81215E3F4F3C832B83F9CEEB81FC8143
:104690008789908DA18DB28D2A013B01481A590A54
:1046A0006A0A7B0AD301C201853F9140A105B10589
:1046B00008F42FCF438F548F658F768F108629CFC4
:1046C000AB81BC8111966C9182E00995C7018C1970
:1046D0009D09803C904E0CF4BBCFC6CFAB81BC8112
:1046E00097FD03C06C9181E0ABCF11966C9183E094
:1046F000ECCF97FDEBCFA5CF0E94A2020091D6038D
:104700001091D7032091D8033091D903601B710B0E
:10471000820B930B6A3071058105910508F471C015
:1047200043E854E05A834983F12CE12C4DE1742E87
:104730008091D5038E151F0409F459C07E9C600139
:104740007F9CD00C112486010D571B4FD801589621
:10475000EC91F0E03396EE0FFF1FEC0DFD1DED57D1
:10476000FB4FA981BA8156962D913C915797808134
:104770009181281B390B57963C932E93569712968E
:104780008C910E946802D8015896EC915897F0E0FD
:104790003396EE0FFF1FEC0DFD1DED57FB4F918380
:1047A00080835896EC91F0E03396EE0FFF1FEC0DEE
:1047B000FD1DED57FB4FA981BA8156968D919C91B5
:1047C000579720813181820F931F57969C938E9328
:1047D0005697F801808D8F5F808F808D8770808FD6
:1047E000FFEFEF1AFF0A5D96BA83A983A1CF0E945B
:1047F000A2026093D6037093D7038093D80390935B
:10480000D9030E94A2020091D1031091D2032091FA
:10481000D3033091D403601B710B820B930B623373
:1048200071058105910508F44DC00E94A2026093B4
:10483000D1037093D2038093D3039093D40323E8DE
:1048400034E03A83298310E000E08091D50380179B
:104850001106C1F1A981BA8156968D919C91579705
:1048600073E0969587957A95E1F713962D913C9193
:10487000FC01E21BF30B9F01F7FF03C0319521956B
:104880003109A981BA8115964C91159742171306E3
:1048900009F084F414969C938E931397E091CF03C0
:1048A000F091D003309731F04D915C9111971296B1
:1048B0006C9109950F5F1F4FE981FA817D96FA830C
:1048C000E983C3CF6AECC62E63E0D62EF12CE12C2F
:1048D0008091CE038E151F0409F48BC0D6014D9034
:1048E0005D906D015A824982F20186A197A1A0A52F
:1048F000B1A5892B8A2B8B2B09F43FC00E947D0226
:104900002B013C01E981FA8182A593A5A4A5B5A557
:10491000B301A201481B590B6A0B7B0B86A197A11F
:10492000A0A5B1A5481759076A077B0730F186850E
:104930009785A089B1892481222309F454C0019666
:10494000A11DB11D86879787A08BB18BA981BA81E4
:104950001E964D915D916D917C9151978D010E5FE9
:104960001F4FC8010E949408E981FA8142A653A60C
:1049700064A675A6C8010E94D408E981FA81EA5BA1
:10498000FF4F80810E948301E981FA81E95BFF4F3B
:104990009081891721F18083811121C0A981BA8179
:1049A00011968C9111978823D1F0FD0116861786F8
:1049B000108A118A52961D921D921D921C92559733
:1049C00016AA17AA10AE11AE96961D921D921D92B0
:1049D0001C929997168A178A108E118E1182FFEFFA
:1049E000EF1AFF0A75CF0197A109B109E981FA8190
:1049F000A9CF0E94A2020091C6031091C703209183
:104A0000C8033091C903601B710B820B930B663096
:104A100071058105910508F4B0C00E94A20260935F
:104A2000C6037093C7038093C8039093C90356EEDF
:104A3000652E54E0752E10E000E08091C5038017CC
:104A4000110609F49AC0F30181899289A389B48976
:104A5000458556856785708984179507A607B7072A
:104A600009F481C0481759076A077B070CF081C019
:104A70000197A109B109818B928BA38BB48BF301B0
:104A8000A189B289A032F2E0BF07C4F5F301238502
:104A900098E8C92ED12CC21AD10827FDD394CC0C8A
:104AA000DD1CCC0CDD1C0D2C000CEE08FF08248551
:104AB0002101421A510827FD53949201220F331FFE
:104AC000220F331F032E000C440B550B2C193D09EC
:104AD0004E095F09A53BB10514F0A4EBB0E0B7FFA8
:104AE00002C0B0E0A0E00E947628A50194010E94D7
:104AF0004C28C20ED31EE41EF51ED601F3015285CA
:104B00005C3088F5238578E8472E512C421A5108ED
:104B100027FD53949201220F331F220F331FA21738
:104B2000B3077CF02485C101821B910927FD939571
:104B30009C01220F331F220F331FA217B3070CF45F
:104B40009D0122503109220F331F4FB7F894852F52
:104B500090E0FC01EE0FFF1FE80FF91FE45BFB4F35
:104B6000328321834FBF0F5F1F4F97E1690E711C86
:104B700064CF0196A11DB11D7ECF80E090E0892B0E
:104B800009F419CB0E944803882309F414CB0E942E
:104B9000000011CBD3018D933D010F5F1F4F49CB17
:104BA0000E94A2026C197D098E099F09603A7B4B15
:104BB0008D40910508F0EFCB1092C40380E0E9CB63
:104BC0008F929F92AF92BF92CF92DF92EF92FF921D
:104BD000CF93DF93EC01688179818A819B81611594
:104BE00071058105910521F464E279ED8BE597E08B
:104BF0002DE133EF41E050E00E944C2849015A0179
:104C00009B01AC01A7EAB1E40E946B286B017C0117
:104C1000ACEEB4EFA50194010E947928C60ED71E10
:104C2000E81EF91EF7FE06C081E0C81AD108E108A7
:104C300080E8F80AC882D982EA82FB82C701B601FD
:104C40009F77DF91CF91FF90EF90DF90CF90BF9053
:104C5000AF909F908F9008958F929F92AF92BF9246
:104C6000CF92DF92EF92FF9260913B0170913C01F5
:104C700080913D0190913E0161157105810591057D
:104C800021F464E279ED8BE597E02DE133EF41E02B
:104C900050E00E944C2849015A019B01AC01A7EA4F
:104CA000B1E40E946B286B017C01ACEEB4EFA5016E
:104CB00094010E947928C60ED71EE81EF91EF7FE41
:104CC00006C081E0C81AD108E10880E8F80AC0925D
:104CD0003B01D0923C01E0923D01F0923E01C701C0
:104CE000B6019F77FF90EF90DF90CF90BF90AF908D
:104CF0009F908F90089560933B0170933C01809347
:104D00003D0190933E010895FC0188279927E8947E
:104D100021912032E9F3293010F02E30C8F32B32E4
:104D200041F02D3239F4689404C00E940A27820FA2
:104D3000911D219120532A30C0F31EF49095819546
:104D40009F4F08951F93FC0199278827BC01E89481
:104D500011911032E9F3193010F01E30C8F31B32F4
:104D600051F01D3249F4689406C00E94F526610F87
:104D7000711D811D911D119110531A30B0F33EF435
:104D800090958095709561957F4F8F4F9F4F1F91A4
:104D900008954EE857E00E94CE260895FA01A191A9
:104DA000B081009719F41097E1F0CD01DC01CD013D
:104DB0000D90002011F4C00113C0FB0121912223AA
:104DC00019F02015D9F7F3CFFB012191201519F423
:104DD0001E92119606C02223C1F70D900020A1F764
:104DE000D001FA01A193B0830895592F482F372F8E
:104DF000262F660F771F881F991F660F771F881F42
:104E0000991F620F731F841F951F660F771F881FDE
:104E1000991F08957AE0979F902D879F802D910D7F
:104E2000112408950E94542708F481E00895E8941D
:104E300009C097FB3EF490958095709561957F4FE2
:104E40008F4F9F4F9923A9F0F92F96E9BB27939590
:104E5000F695879577956795B795F111F8CFFAF4A0
:104E6000BB0F11F460FF1BC06F5F7F4F8F4F9F4FD1
:104E700016C0882311F096E911C0772321F09EE82F
:104E8000872F762F05C0662371F096E8862F70E095
:104E900060E02AF09A95660F771F881FDAF7880F6F
:104EA0009695879597F90895990F0008550FAA0BC5
:104EB000E0E8FEEF16161706E807F907C0F012162D
:104EC0001306E407F50798F0621B730B840B950B30
:104ED00039F40A2661F0232B242B252B21F4089585
:104EE0000A2609F4A140A6958FEF811D811D089522
:104EF0000E948B270C94FC270E94EE2738F00E941A
:104F0000F52720F0952311F00C94E5270C94EB275E
:104F100011240C9430280E940D2870F3959FC1F342
:104F2000950F50E0551F629FF001729FBB27F00D57
:104F3000B11D639FAA27F00DB11DAA1F649F6627AC
:104F4000B00DA11D661F829F2227B00DA11D621FFB
:104F5000739FB00DA11D621F839FA00D611D221FB5
:104F6000749F3327A00D611D231F849F600D211D99
:104F7000822F762F6A2F11249F5750409AF0F1F01C
:104F800088234AF0EE0FFF1FBB1F661F771F881F85
:104F900091505040A9F79E3F510580F00C94E527B1
:104FA0000C9430285F3FE4F3983ED4F386957795D0
:104FB0006795B795F795E7959F5FC1F7FE2B880F2B
:104FC000911D9695879597F9089597F99F6780E8C1
:104FD00070E060E008959FEF80EC089500240A944B
:104FE0001616170618060906089500240A941216C4
:104FF0001306140605060895092E0394000C11F4F7
:10500000882352F0BB0F40F4BF2B11F460FF04C0A3
:105010006F5F7F4F8F4F9F4F089557FD9058440FFC
:10502000551F59F05F3F71F04795880F97FB991F07
:1050300061F09F3F79F087950895121613061406C4
:10504000551FF2CF4695F1DF08C016161706180651
:10505000991FF1CF86957105610508940895E8942C
:10506000BB2766277727CB0197F90895F999FECFDB
:1050700092BD81BDF89A992780B50895262FF99998
:10508000FECF1FBA92BD81BD20BD0FB6F894FA9A2B
:10509000F99A0FBE01960895052E97FB1EF4009411
:1050A0000E94632857FD07D00E94B52807FC03D053
:1050B0004EF40C94632850954095309521953F4FC0
:1050C0004F4F5F4F089590958095709561957F4FF4
:1050D0008F4F9F4F08950E94D728A59F900DB49F92
:1050E000900DA49F800D911D11240895B7FF0C947D
:1050F0006B280E946B28821B930B08952F923F927E
:105100004F925F926F927F928F929F92AF92BF92D7
:10511000CF92DF92EF92FF920F931F93CF93DF9383
:10512000CDB7DEB7CA1BDB0B0FB6F894DEBF0FBEE0
:10513000CDBF09942A88398848885F846E847D842D
:105140008C849B84AA84B984C884DF80EE80FD802F
:105150000C811B81AA81B981CE0FD11D0FB6F894A5
:10516000DEBF0FBECDBFED010895A1E21A2EAA1B2E
:10517000BB1BFD010DC0AA1FBB1FEE1FFF1FA21707
:10518000B307E407F50720F0A21BB30BE40BF50B04
:10519000661F771F881F991F1A9469F7609570958D
:1051A000809590959B01AC01BD01CF010895A29F10
:1051B000B001B39FC001A39F700D811D1124911DEB
:1051C000B29F700D811D1124911D0895DB018F93F5
:1051D0009F930E946B28BF91AF91A29F800D911D5C
:1051E000A39F900DB29F900D11240895991B79E013
:1051F00004C0991F961708F0961B881F7A95C9F767
:1052000080950895AA1BBB1B51E107C0AA1FBB1FB5
:10521000A617B70710F0A61BB70B881F991F5A9542
:10522000A9F780959095BC01CD010895EE0FFF1F61
:105230000590F491E02D09945058BB27AA270E94AD
:1052400034290C94FC270E94EE2738F00E94F527A1
:1052500020F039F49F3F19F426F40C94EB270EF458
:10526000E095E7FB0C94E527E92F0E940D2858F301
:10527000BA17620773078407950720F079F4A6F53B
:105280000C942F280EF4E0950B2EBA2FA02D0B01B5
:10529000B90190010C01CA01A0011124FF27591B7B
:1052A00099F0593F50F4503E68F11A16F040A22F81
:1052B000232F342F4427585FF3CF469537952795F2
:1052C000A795F0405395C9F77EF41F16BA0B620BF1
:1052D000730B840BBAF09150A1F0FF0FBB1F661F38
:1052E000771F881FC2F70EC0BA0F621F731F841F7B
:1052F00048F4879577956795B795F7959E3F08F0A1
:10530000B0CF9395880F08F09927EE0F9795879562
:1053100008950E949D290C94FC270E94F52758F0BF
:105320000E94EE2740F029F45F3F29F00C94E52716
:1053300051110C9430280C94EB270E940D2868F32F
:105340009923B1F3552391F3951B550BBB27AA273E
:1053500062177307840738F09F5F5F4F220F331F78
:10536000441FAA1FA9F335D00E2E3AF0E0E832D040
:1053700091505040E695001CCAF72BD0FE2F29D043
:10538000660F771F881FBB1F261737074807AB0715
:10539000B0E809F0BB0B802DBF01FF2793585F4F8A
:1053A0003AF09E3F510578F00C94E5270C94302894
:1053B0005F3FE4F3983ED4F3869577956795B7956C
:1053C000F7959F5FC9F7880F911D9695879597F977
:1053D0000895E1E0660F771F881FBB1F62177307F0
:1053E0008407BA0720F0621B730B840BBA0BEE1F05
:1053F00088F7E09508950E94022A6894B1110C94F0
:10540000302808950E94152888F09F5798F0B92FEA
:105410009927B751B0F0E1F0660F771F881F991FE9
:105420001AF0BA95C9F714C0B13091F00E942F2834
:10543000B1E008950C942F28672F782F8827B85F44
:1054400039F0B93FCCF3869577956795B395D9F741
:105450003EF490958095709561957F4F8F4F9F4F4B
:1054600008950E94542708F48FEF089519F416F454
:105470000C94EB270C947C2A0E941528B8F39923EE
:10548000C9F3B6F39F57550B87FF0E948A2A002461
:10549000A0E640EA900180585695979528F4805CE4
:1054A000660F771F881F20F026173707480730F44C
:1054B000621B730B840B202931294A2BA695179464
:1054C0000794202531254A2758F7660F771F881F34
:1054D00020F026173707480730F4620B730B840B54
:1054E000200D311D411DA09581F7B901842F9158E0
:1054F000880F9695879508959F3F31F0915020F43D
:10550000879577956795B795880F911D969587959F
:1055100097F9089591505040660F771F881FD2F772
:1055200008950F931F93CF93DF938230910510F46A
:1055300082E090E0E0919207F091930730E020E064
:10554000B0E0A0E0309799F42115310509F44AC084
:10555000281B390B24303105D8F58A819B816115D0
:10556000710589F1FB0193838283FE0111C04081A3
:1055700051810281138148175907E0F048175907F4
:1055800099F4109761F012960C93129713961C934E
:105590003296CF01DF91CF911F910F910895009323
:1055A000920710939307F4CF2115310551F042175C
:1055B000530738F0A901DB019A01BD01DF01F801B1
:1055C000C1CFEF01F9CF9093930780939207CDCF8E
:1055D000FE01E20FF31F8193919322503109398329
:1055E0002883D7CF2091900730919107232B41F446
:1055F000209141013091420130939107209390070F
:1056000020913F01309140012115310541F42DB722
:105610003EB74091430150914401241B350BE0916A
:105620009007F0919107E217F307A0F42E1B3F0BB0
:105630002817390778F0AC014E5F5F4F2417350704
:1056400048F04E0F5F1F509391074093900781934E
:1056500091939FCFF0E0E0E09CCFCF93DF93009752
:10566000E9F0FC01329713821282A0919207B09167
:105670009307ED0130E020E01097A1F42081318103
:10568000820F931F209190073091910728173907B7
:1056900009F061C0F0939107E0939007DF91CF91FB
:1056A0000895EA01CE17DF07E8F54A815B819E0184
:1056B00041155105B1F7E901FB83EA8349915991FD
:1056C000C40FD51FEC17FD0761F48081918102960C
:1056D000840F951FE90199838883828193819B833D
:1056E0008A83F0E0E0E012968D919C9113970097E9
:1056F000B9F52D913C911197CD010296820F931F20
:1057000020919007309191072817390739F6309783
:1057100051F51092930710929207B0939107A093BE
:105720009007BCCFD383C28340815181840F951FE2
:10573000C817D90761F44E5F5F4F88819981480F80
:10574000591F518340838A819B81938382832115D2
:10575000310509F0B0CFF0939307E09392079ECF05
:10576000FD01DC01C0CF13821282D7CFFB01DC0127
:1057700002C001900D9241505040D8F70895AEE01C
:10578000B0E0E5ECFBE20C948C280D891E8986E0E4
:105790008C831A8309838FEF9FE79E838D83AE01ED
:1057A000475E5F4F6F89788DCE0101960E94E22B94
:1057B0002F813885020F131FF80110822E96E4E026
:1057C0000C94A828ABE0B0E0E8EEFBE20C947E2855
:1057D0007C013B018A01FC0117821682838181FFD3
:1057E000C8C1CE0101965C01F7019381F30193FDDD
:1057F000859193FF81913F01882309F453C185323C
:1058000039F493FD859193FF81913F01853229F40D
:10581000B70190E00E94D22DE7CF912C212C312CA2
:10582000FFE1F31538F08B3211F190F4803209F179
:10583000833229F137FC3CC020ED280F2A3050F587
:1058400036FE20C08AE0989E200D1124922E06C0BC
:105850008D3291F0803371F7689430F8F30193FD45
:10586000859193FF81913F018111DACF21C0689426
:1058700031F8689432F8F2CF689433F8EFCF689437
:1058800034F8ECCFEAE02E9E200D1124222E6894ED
:1058900035F8E4CF8E3229F436FC04C1689436F82A
:1058A000DDCF8C3619F4689437F8D8CF8836B1F24A
:1058B000982F9F7D95549330E0F08336A1F1833784
:1058C000C1F1833509F063C02801F2E04F0E511C8D
:1058D000F801C080D180692D70E036FC02C06FEF06
:1058E0007FEFC6010E94BC2D4C01689437F88201FD
:1058F0000AC00C5F1F4FFFE3F98388248394912C27
:105900006501E89437F833FE2DC0522C81149104C0
:1059100071F5552009F468CFB70180E290E00E944C
:10592000D22D5A94F6CFF801808189830E5F1F4FE4
:10593000E4CF2801F2E04F0E511CF801C080D18065
:10594000692D70E036FC02C06FEF7FEFC6010E9448
:10595000C72D4C018201D5CFB70180E290E00E94B3
:10596000D22D2A942814190409F0B0F7CECFF601ED
:1059700037FC859137FE81916F01B70190E00E945D
:10598000D22D51105A94F1E08F1A9108BFCF84366E
:1059900019F0893609F077C0F80137FE6BC06081D5
:1059A0007181828193810C5F1F4FF32DFF763F2E13
:1059B00097FF09C090958095709561957F4F8F4FA7
:1059C0009F4F689437F82AE030E0A5010E94022E2C
:1059D000C82ECA188C2C432C36FE0CC0E89440F814
:1059E000C91440F434FE05C032FC03C0F32DFE7E22
:1059F0004F2E892C44FE95C0FE01EC0DF11D8081D7
:105A0000803309F087C0242D297E422E842D887092
:105A1000582E43FC95C040FE8FC09C2C821418F475
:105A20002C0C922C981844FE91C0B70180E390E0B2
:105A30000E94D22D42FE09C088E790E041FE02C0DC
:105A400088E590E0B7010E94D22DC91408F48AC0FD
:105A5000CA94D12C9FEFC91AD90ACA0CDB1CF601D3
:105A600082916F01B70190E00E94D22DAC14BD0469
:105A7000B1F74FCF60817181072E000C880B990B15
:105A80000E5F1F4F92CFD32CE894D4F82AE030E079
:105A9000853739F1232D297FD22E8F3601F148F435
:105AA0008835A9F0F701868197812B96E2E10C9465
:105AB0009A28803749F08837A9F7D4FE02C0689445
:105AC000D2F820E130E00DC06894D4F8F6CF34FE6F
:105AD00003C0822F8660D82E20E132E002C028E089
