:100000000C9400010C9428010C9428010C942801F4
:100010000C9428010C9428010C9428010C942801BC
:100020000C9428010C9428010C9428010C946E2542
:100030000C9428010C9428010C9428010C9428019C
:100040000C94BE240C9428010C942E250C940825A5
:100050000C9428010C9428010C9428010C9428017C
:100060000C942A260C9428016E2F61004F4B004FF0
:100070004B004F4B00646F6573206E6F7420666990
:100080007420696E204D656D6F7279004661696CF0
:100090007572652C20454550524F4D2073697A6525
:1000A00020657863656564656420004D465374651A
:1000B0007070657220646F6573206E6F742066695E
:1000C0007420696E204D656D6F7279004661696CB0
:1000D000757265206F6E2072656164696E6720635A
:1000E0006F6E666967004D6F6269466C6967687418
:1000F000204E616E6F007E306D79335B5F707F7B69
:10010000771F0D3D4F470000000000000000000079
:1001100000000000000000000000000000000000DF
:100120000000800180257E306D79335B5F707F7BBE
:1001300000000009000000777F4E7E4F475F373098
:100140007C000E00767E677E775B463E00000033C3
:100150006D4E13780008007D1F0D3D4F477B3730F3
:1001600038000600151D6773055B0F1C0000002793
:100170006D4E007800004465766963654275666679
:100180006572204F766572666C6F7721004C6F61E7
:1001900064696E6720636F6E666967206661696C6B
:1001A00065640000000000240027002A0000000011
:1001B00000250028002B0000000000230026002955
:1001C0000004040404040404040202020202020300
:1001D000030303030301020408102040800102040A
:1001E000081020010204081020000000080002018D
:1001F0000000030407000000000000000000492781
:1002000011241FBECFEFD8E0DEBFCDBF12E0A0E0CB
:10021000B1E0E0ECF0E602C005900D92A635B10722
:10022000D9F728E0A6E5B2E001C01D92AF30B207D1
:10023000E1F710E0C0E0D1E004C02197FE010E9488
:10024000DC2ECF3FD107C9F70E94E0270C945E3027
:100250000C940000AC011092F4069091C4078091B8
:10026000C307FA01BF01641B750B2091F4063081AE
:100270003093F406931304C0921302C01092F40654
:100280003081311104C0921721F0CB010895381745
:10029000D1F33196E7CF0F931F93CF93DF938091E4
:1002A000B807882309F446C0D0E0C0E0813029F4C3
:1002B00082E08093B807C8EFD6E08091B907882321
:1002C00041F1209721F4C091BD07D091BE078E0166
:1002D000CE010E942A01892B29F42196F801808100
:1002E0008111F5CFF8018081882309F1C8010E94AE
:1002F0002A01F801E80FF91F8081882311F010828C
:100300003196F093BE07E093BD071093BC070093AE
:10031000BB078091BB079091BC07892B59F081E006
:100320008093B907DF91CF911F910F91089510E04D
:1003300000E0EBCF80E0F6CF0E944B01882351F024
:1003400081E08093B9078093BA078091BB079091B1
:10035000BC0708951092BA0790E080E008958330BA
:1003600081F028F4813099F08230A9F00895873027
:10037000A9F08830C9F08430B1F4809180008F7D7D
:1003800003C0809180008F7780938000089584B5AA
:100390008F7784BD089584B58F7DFBCF8091B000A9
:1003A0008F778093B00008958091B0008F7DF9CF52
:1003B000CF93DF93282F30E0F901E751FE4F84916E
:1003C000F901EB52FE4FD491F901EF53FE4FC49166
:1003D000CC23A1F081110E94AF01EC2FF0E0EE0FD1
:1003E000FF1FE954FE4FA591B491EC91ED2381E0FC
:1003F00090E009F480E0DF91CF91089580E090E0F3
:10040000FACF1F93CF93DF93282F30E0F901E75104
:10041000FE4F8491F901EB52FE4FD491F901EF5355
:10042000FE4FC491CC23A9F0162F81110E94AF0179
:10043000EC2FF0E0EE0FFF1FE355FE4FA591B491B6
:100440008FB7F894EC91111108C0D095DE23DC939E
:100450008FBFDF91CF911F910895DE2BF8CFCF93FF
:10046000DF9390E0FC01EB52FE4F24918F539E4F9F
:10047000FC0184918823C9F090E0880F991FFC014A
:10048000ED55FE4FA591B491FC01E355FE4FC5918A
:10049000D49161110DC09FB7F8948C91209582235F
:1004A0008C938881282328839FBFDF91CF91089563
:1004B000623051F49FB7F8943C91822F809583234A
:1004C0008C93E8812E2BEFCF8FB7F894EC912E2BE5
:1004D0002C938FBFEACF1F93CF93DF93182FEB019D
:1004E00061E00E942F02209739F460E0812FDF91B4
:1004F000CF911F910C940102CF3FD10511F461E01F
:10050000F5CFE12FF0E0E751FE4FE491E33031F118
:1005100040F4E130B1F0E230E1F0C038D1057CF7D1
:10052000E4CFE73029F1E83059F1E430B1F78091B8
:100530008000806280938000D0938B00C0938A00FB
:1005400004C084B5806884BDC7BDDF91CF911F9181
:10055000089584B5806284BDC8BDF7CF80918000C6
:10056000806880938000D0938900C0938800EDCF8D
:100570008091B00080688093B000C093B300E5CF55
:100580008091B00080628093B000C093B400DDCF52
:100590003FB7F8948091ED049091EE04A091EF04A0
:1005A000B091F00426B5A89B05C02F3F19F0019625
:1005B000A11DB11D3FBFBA2FA92F982F8827BC01BD
:1005C000CD01620F711D811D911D42E0660F771FE5
:1005D000881F991F4A95D1F708952FB7F894609115
:1005E000E9047091EA048091EB049091EC042FBF30
:1005F0000895DC01ED91FC910190F081E02D0994CA
:10060000EF92FF920F931F93CF93DF937C01609142
:10061000C3078091C0079091C1070E94F902009121
:10062000C0071091C107E701FE016491662359F0EC
:10063000D801ED91FC910190F081E02DC801099560
:100640002196892B89F7DF91CF911F910F91FF9010
:10065000EF900895AF92BF92CF92DF92EF92FF9208
:100660000F931F93CF93DF936C017B018B01040FDA
:10067000151FEB015E01AE18BF08C017D10759F076
:100680006991D601ED91FC910190F081E02DC601B8
:100690000995892B79F7C501DF91CF911F910F91B2
:1006A000FF90EF90DF90CF90BF90AF900895FC0146
:1006B000538D448D252F30E0842F90E0821B930BC7
:1006C000541710F0CF96089501970895FC01918D6D
:1006D000828D981779F0A28DAE0FBF2FB11D5D9658
:1006E0002C91828D8F5F60E60E94BC2E928F822FAC
:1006F00090E008958FEF9FEF0895FC01918D828D1A
:10070000981731F0828DE80FF11D858D90E00895E6
:100710008FEF9FEF0895FC01918D228D892F90E03E
:10072000805A9F4F821B910960E670E00E94C82E9C
:10073000089582E396E00E948B0321E0892B09F45F
:1007400020E0822F089580E090E0892B29F00E941C
:10075000990381110C9400000895FC01A48DA80F49
:10076000B92FB11DA358BF4F2C91848D90E00196F5
:100770008F739927848FA689B7892C93A089B18913
:100780008C91837080648C93938D848D981306C0B4
:100790000288F389E02D80818F7D80830895EF9218
:1007A000FF920F931F93CF93DF93EC0181E0888F2B
:1007B0009B8D8C8D98131AC0E889F989808185FFFB
:1007C00015C09FB7F894EE89FF896083E889F9899D
:1007D00080818370806480839FBF81E090E0DF919F
:1007E000CF911F910F91FF90EF900895F62E0B8DF2
:1007F00010E00F5F1F4F0F731127E02E8C8D8E11AD
:100800000CC00FB607FCFACFE889F989808185FF13
:10081000F5CFCE010E94AD03F1CFEB8DEC0FFD2F94
:10082000F11DE358FF4FF0829FB7F8940B8FEA89D0
:10083000FB8980818062CFCFCF93DF93EC01888DDD
:100840008823B9F0AA89BB89E889F9898C9185FD4B
:1008500003C0808186FD0DC00FB607FCF7CF8C91D9
:1008600085FFF2CF808185FFEDCFCE010E94AD03E1
:10087000E9CFDF91CF910895089520917304260F59
:100880003327331F21323105ECF420911705FC0189
:1008900090E080E0243069F082E00895A091730434
:1008A0002191AC014F5A5B4FA40FB52FB11D2C9372
:1008B0000196861798F380917304680F6093730410
:1008C00080E0089581E008951092170581E08093FB
:1008D00016051092F10461E082E10E94010261E0DC
:1008E00083E10E940102E9EBF0E080818E7F80834A
:1008F00080818D7F808388E48093B80085E4809335
:10090000BC000895CF93DF9391E090935004882327
:10091000B9F0C091B800D091BA008091BC008A7B38
:100920008093BC0060E082E10E94010260E083E10C
:100930000E9401020E946404D093BA00C093B800E0
:10094000DF91CF9108958F929F92AF92BF92CF92F5
:10095000DF92EF92FF920F931F93CF93DF93D0918B
:100960004005D13208F0D7C0182FC0913F050E9432
:10097000C8026B017C018091170581116BC082E078
:1009800080931705109316058FEF8093150510922D
:100990001405D0931305AFE1B5E0E3EFF4E080E098
:1009A000D81391C01092F2048091F204CC0FC82B9E
:1009B000C093F2048091F104813009F088C0109254
:1009C000F1040E94C8026B017C018091F2048093C3
:1009D000BB008091190590911A05A0911B05B0915B
:1009E0001C05892B8A2B8B2BA1F00E94C802009139
:1009F000190510911A0520911B0530911C056C19E1
:100A00007D098E099F09061717072807390708F47B
:100A100042C08091BC0083FDD8CF85EC8093BC00A0
:100A20000E94C8026B017C0180911705823009F495
:100A300050C0809115058F3F09F46FC08091150556
:100A4000803209F46CC080911505803309F469C0C7
:100A500084E026C08091190590911A05A0911B058C
:100A6000B0911C05892B8A2B8B2B09F484CF0E9413
:100A7000C8028090190590901A05A0901B05B090AF
:100A80001C056C197D098E099F0986169706A80614
:100A9000B90608F070CF809118050E94820485E0A5
:100AA00010921E051092400510921D05DF91CF9106
:100AB0001F910F91FF90EF90DF90CF90BF90AF907C
:100AC0009F908F9008959D9191938F5F69CF85EE50
:100AD000A5CF8091190590911A05A0911B05B091A1
:100AE0001C05892B8A2B8B2B09F49ECF0E94C802F0
:100AF0000091190510911A0520911B0530911C05D4
:100B00006C197D098E099F090617170728073907F1
:100B100008F08ACFC0CF81E0C3CF80E0C1CF82E0B0
:100B2000BFCF83E0BDCF81E00C94A3040895089566
:100B30000895E0914F0480914E04E81730F4F0E0FE
:100B4000E25DFB4F808190E008958FEF9FEF089565
:100B500090914F0480914E042FEF3FEF981748F487
:100B6000E92FF0E0E25DFB4F208130E09F5F909342
:100B70004F04C901089580914E0490914F04891B40
:100B8000990B0895CF92DF92EF92FF920F931F93EC
:100B9000CF93DF937C01CB018A0120911D05222395
:100BA00089F0EB016B01C40ED51ECC15DD0569F093
:100BB0006991D701ED91FC910190F081E02DC70181
:100BC0000995F3CF642F0E943D04C801DF91CF91B6
:100BD0001F910F91FF90EF90DF90CF900895CF93EA
:100BE000DF931F92CDB7DEB7698320911D052223C5
:100BF000F9F020914005203258F021E030E0FC016E
:100C00003383228390E080E00F90DF91CF910895AD
:100C100080911E05E82FF0E0E15EFA4F9981908304
:100C20008F5F80931E058093400581E090E0ECCFBC
:100C300061E0CE0101960E943D04F7CFCF93C82F0B
:100C4000682F64608DE196E00E94EF056C2F70E0E4
:100C50006B7F8DE196E0CF910C94EF050F931F937E
:100C6000CF93DF938C01C62FD42FFC01848191E0B8
:100C700090931D0580933F0510921E05109240052C
:100C8000862F807F842B9585892B0E941E06F0E19C
:100C9000CF9FC0011124F8019585892B8D2B0E94CF
:100CA0001E06DF91CF911F910F910C949305CF9366
:100CB000DF93CDB7DEB728970FB6F894DEBF0FBE2F
:100CC000CDBF28E0EFE3F1E0DE01119601900D9237
:100CD0002A95E1F7FC012385241710F44FEF420F0A
:100CE00050E0440F551F21E030E02C0F3D1F420F14
:100CF000531FFA012081620F606840E028960FB60A
:100D0000F894DEBF0FBECDBFDF91CF910C942E06BD
:100D1000CF93DF93EC0140E061E00E942E068BE36D
:100D20009FE10197F1F78985882339F040E060E081
:100D3000CE01DF91CF910C945706DF91CF910895AA
:100D400041E00E942E0681E090E00895FC0124819C
:100D500031E030931D0520933F0510921E0510923F
:100D60004005607F8585862B0E941E060C949305A6
:100D7000AF92BF92CF92DF92EF92FF920F931F93A9
:100D8000CF93DF936C01FC01848191E090931D056A
:100D900080933F0510921E0510924005EB01042F31
:100DA00010E05B01A00EB11EF12CEE24E394CA15F5
:100DB000DB0541F18991F60195859160807F892B52
:100DC0000E941E06FE0131972081F0E12F02900162
:100DD0001124F60185858160822B0E941E06F39402
:100DE000F7E0FF1520F780E00E94A304F60184815C
:100DF000E0921D0580933F0510921E05109240055C
:100E0000F12CD5CF0E949305C8010197DF91CF91B6
:100E10001F910F91FF90EF90DF90CF90BF90AF9018
:100E2000089590E080E00895CF93DF93FC01238143
:100E3000222359F1EC0161E084810E942F0261E0DC
:100E40008D810E942F028B81843011F08830B1F4A3
:100E500061E08E810E942F0261E08F810E942F024B
:100E60008FA58F3F91F061E00E942F026EA581E077
:100E700068278FA5DF91CF910C940102833011F088
:100E8000863071F761E08E81E9CFDF91CF910895CF
:100E9000CF93DF93FC0123812223A9F0EC01019081
:100EA000F081E02D0480F581E02D60E009958FA5AB
:100EB0008F3F49F061E00E942F026EA58FA5DF9160
:100EC000CF910C940102DF91CF910895DC01ED9157
:100ED000FC9124813581477055276627772741503B
:100EE000510961097109473051056105710560F4C7
:100EF000FA01E358F84F0C94DC2E870789078B071B
:100F00008D078F079107930761E0F901099465E068
:100F1000FCCF64E0FACF66E0F8CF62E0F6CF6AE09B
:100F2000F4CF68E0F2CF69E0F0CFCF93DF93EC012C
:100F3000CB01BA0126E030E040E050E00E94492EAB
:100F4000623071058105910589F16CF461157105B7
:100F500081059105D1F06130710581059105F9F0A8
:100F6000DF91CF910895643071058105910561F19C
:100F700024F1653071058105910591F7E881F981CA
:100F80000480F581E02D66E006C0E881F9810480E7
:100F9000F581E02D64E0CE01DF91CF910994E881E5
:100FA000F9810480F581E02D65E0F5CFE881F981D4
:100FB0000480F581E02D61E0EECFE881F9810480C5
:100FC000F581E02D63E0E7CFE881F9810480F581C8
:100FD000E02D62E0E0CFDC01ED91FC910480F58131
:100FE000E02D43705527662777274230510561056C
:100FF000710571F0433051056105710559F04130BB
:1010000051056105710511F065E0099466E0FDCFB9
:101010006AE0FBCF69E0F9CFCF93DF93EC01CB011E
:10102000BA0123E030E040E050E00E94492E6130F8
:1010300071058105910599F0623071058105910571
:10104000A9F0672B682B692BC1F4E881F981048032
:10105000F581E02D64E0CE01DF91CF910994E88124
:10106000F9810480F581E02D61E0F5CFE881F98117
:101070000480F581E02D62E0EECFDF91CF910895FD
:10108000DC01ED91FC910480F581E02D4370552742
:1010900066277727423051056105710571F04330AD
:1010A00051056105710559F0413051056105710522
:1010B00011F062E0099463E0FDCF61E0FBCF60E0F6
:1010C000F9CFCF93DF93EC01E881F9810480F581BA
:1010D000E02D8A8160E0811162E0CE010995E8810E
:1010E000F9810480F581E02D8A8161E0811163E05E
:1010F000CE0109958CA59DA58230910538F0880F09
:10110000991F880F991F05970197F1F7E881F981D9
:101110000480F581E02D8A8160E0811162E0CE01DA
:10112000DF91CF910994CF93DF93EC0120E030E081
:10113000A9016C897D898E899F890E94F72F1816D5
:101140002CF4E8A9F9A9DF91CF910994EAA9FBA9A8
:10115000FACFCF92DF92EF92FF920F931F93CF932C
:10116000DF93DC011396CC91C43039F0C83059F1CB
:10117000C33019F0C63049F1C2E08C010C5F1F4F3B
:10118000F12CE12CC62ED12CD1E0F8016481C601EE
:101190000E2C02C0959587950A94E2F780FD6D2785
:1011A0000F5F1F4F80810E940102BFEFEB1AFB0A05
:1011B000EC1658F3DF91CF911F910F91FF90EF90B4
:1011C000DF90CF900895C4E0D8CFC3E0D6CFDC0144
:1011D0001396EC911397E93008F038C0F0E0ED5029
:1011E000F74F0C94DC2EFC08020908090E091409BB
:1011F00026091A0926092009ED91FC910084F18540
:10120000E02D0994ED91FC910284F385E02DF9CF56
:10121000ED91FC910484F585E02DF3CFED91FC91E7
:101220000684F785E02DEDCFED91FC910088F189E2
:10123000E02DE7CFED91FC910288F389E02DE1CF1D
:10124000ED91FC910488F589E02DDBCF08954F9254
:101250005F926F927F928F929F92AF92BF92CF9246
:10126000DF92EF92FF920F931F93CF93DF93EC01E6
:10127000C888D988EA88FB888C859D85AE85BF851E
:10128000C81AD90AEA0AFB0A6C897D898E899F8966
:101290009B01AC010E94752D4B015C016C8D7D8D15
:1012A0008E8D9F8D9B01AC010E94E32E9B01AC01B2
:1012B000C501B4010E944F2F0E94C12FC114D10457
:1012C000E104F10409F0B1C06230710581059105B6
:1012D0000CF0CBC01CA21DA21EA21FA21C8A1D8A3C
:1012E0001E8A1F8A1CAA1DAA1EAA1FAADF91CF91BF
:1012F0001F910F91FF90EF90DF90CF90BF90AF9034
:101300009F908F907F906F905F904F9008951016F0
:10131000110612061306B4F46C157D058E059F05A3
:101320001CF42A812111A1C09B01AC0188279927B7
:10133000DC01821B930BA40BB50B8CAB9DABAEAB4E
:10134000BFAB93C0011511052105310509F48DC00E
:101350006C157D058E059F050CF087C08A8188235A
:1013600009F483C030952095109501951F4F2F4F9C
:101370003F4F0CAB1DAB2EAB3FAB77C0011511053A
:101380002105310509F471C08824992454018C1871
:101390009D08AE08BF08681579058A059B050CF005
:1013A00064C08A81811161C0DDCFCCACDDACEEAC14
:1013B000FFACA7019601C701B6010E94E32E2B01E5
:1013C0003C01C501B4010E94162D20E030E040E848
:1013D00050E40E94752D20E030E040E85FE30E9479
:1013E000E32E9B01AC01C301B2010E944F2F9B0170
:1013F000AC01C701B6010E94E22E3B016C01FE0167
:10140000E05CFF4FE080F180028113819701A80129
:101410000E94F72F181614F473018601C701D80132
:101420008CAF9DAFAEAFBFAF3AC00CA91DA92EA91E
:101430003FA91C141D041E041F040CF468CF1016D1
:101440001106120613060CF099CF002711279801F8
:101450000C191D092E093F096017710782079307B0
:101460000CF062CF2A8121115FCF8CA89DA8AEA875
:10147000BFA881149104A104B10409F096CF88ADEE
:1014800099ADAAADBBAD8CAF9DAFAEAFBFAF81E0A4
:101490001C141D041E041F040CF080E08A833FEF1F
:1014A000831A930AA30AB30A8CAA9DAAAEAABFAA5A
:1014B000CCACDDACEEACFFACC701B6010E94C82FCE
:1014C0006CA37DA38EA39FA3A701960160E074E2A5
:1014D00084E799E40E944F2F6C8B7D8B8E8B9F8BC2
:1014E0002A81211103CF90586C8B7D8B8E8B9F8B23
:1014F000FDCECF92DF92EF92FF920F931F93CF9387
:10150000DF93EC016A017B0120E030E0A901CB010F
:10151000B6010E940F2D87FF04C0F7FAF094F7F888
:10152000F094A7019601688D798D8A8D9B8D0E941C
:101530000F2D882309F446C0C88ED98EEA8EFB8E03
:101540008E01005C1F4FA701960160E074E284E702
:1015500099E40E944F2FF801608371838283938303
:101560008CA99DA9AEA9BFA9181619061A061B06B3
:101570004CF56C897D898E899F899B01AC010E9405
:10158000752D6B017C016C8D7D8D8E8D9F8D9B01EA
:10159000AC010E94E32E9B01AC01C701B6010E9481
:1015A0004F2F0E94C12F6CAB7DAB8EAB9FABCE019A
:1015B000DF91CF911F910F91FF90EF90DF90CF902F
:1015C0000C942709DF91CF911F910F91FF90EF901D
:1015D000DF90CF9008958F929F92AF92BF92EF923B
:1015E000FF920F931F93CF937C018B01C42F0E9416
:1015F000ED02F80180809180A280B380DC01CB01F4
:1016000088199909AA09BB094C2F50E070E060E0E5
:1016100084179507A607B70748F0F70109950E94B8
:10162000ED02F8016083718382839383CF911F91D0
:101630000F91FF90EF90BF90AF909F908F90089583
:1016400020912C0430912D04280F391F81E0253A78
:10165000314008F080E00895FC0180818823F9F092
:1016600084818823E1F08181811119C081E0818327
:1016700082819381FC014089518962897389403656
:1016800059476E4F7F4F59F040E659E76EEF7FEFB5
:10169000FC01408B518B628B738B0C94270908954E
:1016A0004F925F926F927F928F929F92AF92BF9272
:1016B000CF92DF92EF92FF920F931F93CF93DF931E
:1016C000D12CA7E1CA2E08E810E0B8E5EB2EB2E075
:1016D000FB2EC4EB4C2E512C612C712C8091870277
:1016E000D81608F096C0C0918502D0918602DC9C85
:1016F000C00DD11D112489899A89AB89BC894D857A
:101700005E856F85788984179507A607B70709F462
:101710007AC0481759076A077B070CF076C0019713
:10172000A109B109898B9A8BAB8BBC8BA989BA892A
:10173000A03282E0B807ACF52B854801821A9108E7
:1017400027FD9394880C991C880C991C092C000C7B
:10175000AA08BB082C85C701821B910927FD939518
:101760009C01220F331F220F331F032E000C440B4A
:10177000550B281939094A095B09A53BB10514F035
:10178000A4EBB0E0B7FF02C0B0E0A0E00E94732E6F
:10179000A30192010E94492E820E931EA41EB51E23
:1017A000D401EA85EC3078F52B85C801821B9109BC
:1017B00027FD93959C01220F331F220F331FA21781
:1017C000B3077CF02C85C701821B910927FD9395F7
:1017D0009C01220F331F220F331FA217B3070CF4F3
:1017E0009D0122503109220F331F4FB7F8948E2FDD
:1017F00090E0FC01EE0FFF1FE80FF91FE856FB4FCA
:10180000328321834FBFD39469CF0196A11DB11DAF
:1018100089CFDF91CF911F910F91FF90EF90DF90D3
:10182000CF90BF90AF909F908F907F906F905F9080
:101830004F9008958BE891E00197F1F70895EF92AA
:10184000FF920F931F93CF93DF93EC01162FE42E9B
:10185000FF24F394442311F080E8F82E08E061E0BF
:101860008A810E942F020E941A0C61E08F2D812331
:1018700009F060E089810E942F020E941A0C60E04A
:101880008A810E942F020E941A0CEE2081F1110F12
:10189000015029F761E08A810E942F0260E089816E
:1018A0000E942F020E941A0C60E08A810E942F027F
:1018B0000E941A0C89810E94D801182F811104C03E
:1018C00061E089810E942F020E941A0C61E08A81E6
:1018D0000E942F020E941A0C81E0111101C080E0C9
:1018E000DF91CF911F910F91FF90EF900895169582
:1018F000CFCFCF93DF93EC0161E089810E942F026B
:101900000E941A0C60E08A810E942F020E941A0C29
:1019100060E089810E942F02DF91CF910C941A0C14
:1019200061E0FC0181810E942F020C941A0CAF929D
:10193000BF92CF92DF92EF92FF920F931F93CF93BC
:10194000DF93EC01162F042FAC880E94900C40E02E
:1019500060E4CE010E941F0CCE010E94790C10950C
:101960008C89180FC02ED12CE12EF12C84E0B12EE1
:10197000A81631F0F601EE0DFF1DE158FE4FB080C4
:10198000CE010E94900C60EC6B0D40E0CE010E94F5
:101990001F0C8C89CE0CDF1C8C151D0414F4082F31
:1019A000011B10E0DD24DA94D00EEC0EFD1E0117B1
:1019B00081F084E0ED2DE11BA81201C0E12FEE0DB6
:1019C000FF2DF11D41E06481CE010E941F0C1F5FBD
:1019D000EECFCE01DF91CF911F910F91FF90EF904D
:1019E000DF90CF90BF90AF900C94790CEF92FF9264
:1019F0001F93CF93DF93EC01162F8C8180FF10C0D3
:101A0000603170F46D837E0184E0E80EF11C612F7B
:101A1000617089910E9401021695EC16FD06B9F7D6
:101A2000DF91CF911F91FF90EF900895DC01842FFB
:101A3000E0917C02F0917D02309719F04D915C911C
:101A4000099408954F925F926F927F928F929F9226
:101A5000AF92BF92CF92DF92EF92FF920F931F93BC
:101A6000CF93DF93F12C6FE1E62E80917802F81688
:101A700008F0EAC0C0917602D0917702FE9CC00DBA
:101A8000D11D11248A81882309F4B2C088810E9463
:101A9000D8018C0189810E94D8016C010E94ED025D
:101AA0004B015C0181E090E0CD2811F090E080E0F6
:101AB000880F991F21E0012B09F020E0922F982B2D
:101AC0004B8D5C8D6D8D7E8D95018401041B150BF6
:101AD000260B370BB901A801453651056105710583
:101AE00008F488C08885823008F484C08B8E9C8E70
:101AF000AD8EBE8E81508887EE859E1709F445C055
:101B0000888503E310E0873010F401E010E06D8574
:101B100024E0E202F0011124492F092E000C550B9C
:101B2000E42BF52BE059FE4F708170039001719FFB
:101B3000300D1124062E02C0220F331F0A94E2F743
:101B4000EF85F8892E0F3F1F388B2F874C0F5D1FB5
:101B5000FA0141854423C1F04B885C886D887E88FA
:101B60004F8A588E698E7A8E8B8A9C8AAD8ABE8AFD
:101B700002C0359527956A95E2F73A8B298B8C3010
:101B800008F08BE08F5F88879E8709891A898D818D
:101B90009E810817190761F19801281B390BC901AB
:101BA000E0917402F09175026901CC0CDD1C309754
:101BB00009F447C06B817C812F5C3F4F2336310590
:101BC000D0F597FD2FC080E00995C00ED11E31E4FD
:101BD000C3163FE1D30654F08F8598898370992707
:101BE000988B8F871A8A198A10E000E01E830D8374
:101BF000F3943BCF4F89588D698D7A8D950184017F
:101C0000041B150B260B370BB901A801453F5140AA
:101C10006105710508F470CF8B8E9C8EAD8EBE8EE3
:101C200018866ACF82E00995C8018C199D09803C0D
:101C3000904E94F2DBCF97FD02C081E0C5CF83E0E8
:101C4000F2CF37FDF1CFC1CFDF91CF911F910F912F
:101C5000FF90EF90DF90CF90BF90AF909F908F90CC
:101C60007F906F905F904F900895CF92DF92EF92A8
:101C7000FF920F931F93CF93DF936C017A018091B2
:101C8000720290917302892B31F1D60113968C91D7
:101C900000E181FD08E0EB01CE25DF2510E0C0FF6B
:101CA00013C08091720290917302892B69F0E091C8
:101CB0007002F0917102309739F0D6014D915C912C
:101CC000612F8E2D81700995D695C795F694E7946E
:101CD0001F5F0113E4CFDF91CF911F910F91FF9010
:101CE000EF90DF90CF900895AF92BF92CF92DF92A6
:101CF000EF92FF920F931F93CF93DF931F92CDB775
:101D0000DEB7C0907202D0907302C114D10409F4FE
:101D10003FC0FC01238130E1B32E21FF02C028E047
:101D2000B22EA62E8C01F60185818683F12CE12C42
:101D3000BA946B2DC6010E94F60CF80182810E94B4
:101D4000D8018983F80182810E94D8018983EE0C31
:101D5000FF1C298181E090E0211102C090E080E029
:101D6000E82AF92AB110E4CFF6016681C6010E9483
:101D7000F60CF801648175816E157F0549F0AA2083
:101D800021F0A701C8010E94350EF801F582E48216
:101D90000F90DF91CF911F910F91FF90EF90DF9007
:101DA000CF90BF90AF900895CF93DF93C0E0D6E07F
:101DB00080916F02C81768F480916D0290916E0255
:101DC00061E0CD9F800D911D11240E94740ECF5FA4
:101DD000EFCFDF91CF910895E0916B02F0916C020B
:101DE000309751F0DC0113962C911397222321F0A8
:101DF0006D917C9181E009940895E0916B02F091DE
:101E00006C02309751F0DC0113962C91139721113D
:101E100004C06D917C9180E0099408951F93CF9345
:101E2000DF9310E080916A02181700F524E0129FFA
:101E3000C0011124C0916802D0916902C80FD91F56
:101E40008A810E94D8019B81891751F091E081110C
:101E500001C090E09B83811105C0CE010E94FD0E60
:101E60001F5FE0CFCE010E94EC0EFACFDF91CF9141
:101E70001F910895FC01A08DB0E01396AA0FBB1F1F
:101E8000A80FB91F868997892D913C91821B930BCE
:101E9000978B868B82818E3008F08E50877080649D
:101EA00080937C0080917A00806480937A00809196
:101EB0007A0086FDFCCF9091780080917900A08D0A
:101EC000B0E01396AA0FBB1FAE0FBF1F892798273C
:101ED00089278D939C93A08DB0E01396AA0FBB1F0A
:101EE000AE0FBF1F868997892D913C91820F931F5A
:101EF000978B868B808D8F5F808F808D8770808F92
:101F00000895CF93DF93C0E0DDE180916702C817A9
:101F100060F48091650290916602CD9F800D911DC5
:101F200011240E943A0FCF5FF0CFDF91CF91089537
:101F30001F93CF93DF93EC01862FFE01369690E13D
:101F4000DF011D929A95E9F71F8A1E8A188E2D834C
:101F50006A835983488362E00E942F0218E0CE0111
:101F60000E943A0F1150D9F78E899F8923E09695E8
:101F700087952A95E1F79C838B83DF91CF911F9101
:101F80000895CF93DF93C0E0DDE180916702C81729
:101F9000A0F5A0916502B0916602CD9FA00DB11D84
:101FA000112456968D919C91579723E0969587958D
:101FB0002A95E1F713962D913C911497AC01421BA1
:101FC000530B9A0157FF03C031952195310915969E
:101FD0004C9115974217130609F06CF414969C93D4
:101FE0008E931397E0916302F0916402309719F099
:101FF0006D917C910995CF5FC8CFDF91CF91089506
:102000000E94ED026093C3047093C4048093C504DE
:102010009093C6040895BF92CF92DF92EF92FF9201
:102020000F931F93CF93DF93EC0160E088810E94B0
:102030000102FB800F2D10E00C5F1F4F0C0F1D1FC6
:10204000FF20E1F0F801D2908F01C980BA8088E0CA
:10205000E82E6D2D661F6627661F8B2D0E940102DC
:10206000DD0C61E08C2D0E94010260E08C2D0E944D
:102070000102EA94E110EDCFFA94E2CF61E08881A9
:10208000DF91CF911F910F91FF90EF90DF90CF9054
:10209000BF900C9401029F92AF92BF92CF92DF92B9
:1020A000EF92FF920F931F93CF93DF93EC01C62E15
:1020B00061E08B810E94010261E08A810E9401023D
:1020C00010E08D81181708F03FC0DB80BC8087E0EE
:1020D000E82EF12C00E061E08D2D0E9401028B2D95
:1020E0000E94D8010E2C01C0880F0A94EAF7082B31
:1020F00060E08D2D0E94010281E0E81AF10858F796
:102100005E01A10EB11CF501D780D016D9F0CC200C
:10211000B9F0912E990C990C990CE02EF12C8D2D83
:102120008E2580FF07C04E2D4170692D6F0DCE01A9
:102130000E94160DD694E694F394F8E0FF12EFCFC8
:10214000F50107831F5FBDCF60E08A81DF91CF91EA
:102150001F910F91FF90EF90DF90CF90BF90AF90C5
:102160009F900C940102CF93DF93C0E0DBE080915D
:102170007B02C81768F48091790290917A0261E03D
:10218000CD9F800D911D11240E944B10CF5FEFCF8A
:10219000DF91CF9108956F927F928F929F92AF922D
:1021A000BF92CF92DF92EF92FF920F931F93CF9344
:1021B000DF93C0E080916A02C81770F424E0C29FE8
:1021C000C00111242091680230916902820F931F8F
:1021D0000E94EC0ECF5FEECFC0E080916A02C8177C
:1021E00070F4E4E0CE9FC001112420916802309188
:1021F0006902820F931F0E94FD0ECF5FEECF10E0A9
:102200005BE0752E80917B02181708F057C0C091D3
:102210007902D0917A02179DC00DD11D112460E082
:10222000CE010E944B106E01F7E0CF0ED11C56017B
:10223000612C912C812C8D8188151904D9F0D4F052
:10224000F50181915F0100E0E82EF12C80FF06C0CE
:1022500041E0662D600FCE010E94160DF594E794C3
:102260008E2D0F5F083081F7FFEF8F1A9F0A28E04D
:10227000620EE1CF912CF12CE12C8D818E151F0483
:10228000D9F0D4F0F60181916F0100E0A82EB12CB5
:1022900080FD06C040E0692D600FCE010E94160D42
:1022A000B594A7948A2D0F5F083081F7FFEFEF1ADE
:1022B000FF0A28E0920EE1CF1F5FA4CF0E9400101A
:1022C00010E006E080916F021817E0F4C0916D02F3
:1022D000D0916E02109FC00DD11D112460E0CE017F
:1022E0000E94740E4C815D8170E060E0CE010E941E
:1022F000350E4C815D816FEF7FEFCE010E94350E70
:102300001F5FE0CFC0E0DDE180916702C81700F5F4
:10231000A0916502B0916602CD9FA00DB11D112460
:1023200056968D919C91579723E0969587952A957F
:10233000E1F714969C938E931397E0916302F091CA
:102340006402309719F06D917C910995CF5FDCCFD5
:10235000DF91CF911F910F91FF90EF90DF90CF9081
:10236000BF90AF909F908F907F906F9008950E9444
:102370004B01882359F081E08093B9078093BA0715
:102380008091BB079091BC070C94812C1092BA07E6
:1023900090E080E00895CF930E94B711C82F0E946B
:1023A000B711BC018C2F0E946B02CF910C940010CE
:1023B0000E94B7119091CB04891778F42091C90439
:1023C0003091CA04A9016EE0869F400D511D112471
:1023D000CA010E942C0B0C94001008950F931F93B8
:1023E0000E94B7119091CB04891708F04EC0E0917C
:1023F000C904F091CA049EE0899FE00DF11D1124EB
:1024000080818823F1F1A281B3811C961D921D92D7
:102410001D921C921F9750961D921D921D921C9208
:102420005397D4961D921D921D921C92D797949605
:102430001D921D921D921C92979754961D921D926B
:102440001D921C92579784858823D9F082819381AD
:10245000428550E0519541955109052E000C660BBF
:10246000770BFC01008911892289338940175107B4
:102470006207730731F0408B518B628B738B0E9424
:1024800027091F910F910C9400101F910F9108952F
:102490008F929F92AF92BF92CF92DF92EF92FF9274
:1024A0001F93CF93DF930E94B7117C010E94B71155
:1024B000BC01809187028E151F0409F00CF4B5C091
:1024C00027E12E9DC0012F9D900D1124C091850202
:1024D000D0918602C80FD91FCD80DE800D2C000C54
:1024E000EE08FF0889809A80092C000CAA08BB0816
:1024F0002F813885032E000C440B550B2C193D09F8
:102500004E095F09072E000C880B990B6819790991
:102510008A099B090E94AC2E2B813C81032E000C62
:10252000440B550B281939094A095B090E94492EA9
:10253000BA01A9014C0D5D1D6E1D7F1D052E000CFD
:10254000660B770B8D859E85AF85B88984179507B7
:10255000A607B70709F45CC04D875E876F87788B45
:102560008985811155C08A858C3008F04FC018814B
:1025700061E0812F0E942F028A85282F30E0F90127
:10258000EE0FFF1FE20FF31FE856FB4F1F73908102
:10259000907C912B90831B861C862CE0622F0E94DE
:1025A000BC2E829FB001112430E020E0AB01420F2D
:1025B000531FFA01EE0FFF1FE40FF51FE856FB4F04
:1025C000908196FD16C02F5F3F4F2C30310571F77B
:1025D00081110FC01092800082E0809381001092E0
:1025E000850010928400B19A80916F008260809380
:1025F0006F00EA858E2F90E0FC01EE0FFF1FE80FC1
:10260000F91FE856FB4F80818064808381E08987D1
:10261000DF91CF911F91FF90EF90DF90CF90BF900F
:10262000AF909F908F900C940010DF91CF911F91ED
:10263000FF90EF90DF90CF90BF90AF909F908F90E2
:102640000895EF92FF920F931F93CF93DF930E9411
:10265000B7118C010E949C017C01EC01FC01DE01A0
:102660008081882349F09091C407891301C0319675
:10267000808189933196F3CFAE17BF0710F41D9276
:10268000FBCF22E1209FC001219F900D1124C0911A
:102690007E02D0917F02C80FD91F8E858823A1F0BA
:1026A00010E08989811781F0412F60E0CE010E94FE
:1026B00057064889B701149F600D711D1124CE0182
:1026C0000E94B8061F5FEDCFDF91CF911F910F9150
:1026D000FF90EF900C94001020913006309131065D
:1026E0008217930710F40C94332E80E008950F9313
:1026F0001F93CF93DF938C01EB01F80180819181CF
:102700009C012F5F3F4F318320830E946C132881EF
:102710003981A9014F5F5F4F598348832F5B3A4F3F
:10272000F9018083288139812C3D310560F48A3399
:1027300021F7205C3A4FF901108281E0DF91CF91BF
:102740001F910F91089580E0F9CFEF92FF920F93C0
:102750001F93CF93DF93EC01E0903006F0903106A9
:10276000888199818C010F5F1F4F198308830E9414
:102770006C13E016F10650F08A3391F781E0DF9197
:10278000CF911F910F91FF90EF90089580E0F7CFC8
:10279000AF92BF92CF92DF92EF92FF920F931F936F
:1027A000CF93DF9300D000D0CDB7DEB75C011982A4
:1027B0001A821B821C82CE0101967C0110E000E08F
:1027C0006C01F501808191819C012F5F3F4F318326
:1027D00020830E946C13F7018083F8018E3241F050
:1027E0000F5F1F4F8FEFE81AF80A0430110549F701
:1027F000EC0DFD1D1082C6010E94812C0F900F90E0
:102800000F900F90DF91CF911F910F91FF90EF905C
:10281000DF90CF90BF90AF900895FB010190002012
:10282000E9F73197AF01461B570BDC01ED91FC91A5
:102830000280F381E02D09948091EF068823A1F0B6
:102840006091C2078091C0079091C1070E94F90270
:102850008091F706882341F064EC71E08091C00715
:102860009091C1070E940D141092F6061092EF0687
:1028700080E008958F929F92AF92BF92EF92FF9265
:102880000F931F93CF93DF93CDB7DEB7A1970FB60A
:10289000F894DEBF0FBECDBF7C01FA01CB0119A2B7
:1028A000223008F42AE08E010F5D1F4F822E912CFA
:1028B000B12CA12CBF01A50194010E947B2EF9012E
:1028C000CA016A300CF5605DD8016E938D01232B2F
:1028D000242B252B79F790E080E0109721F0BD01A3
:1028E000C7010E940D14A1960FB6F894DEBF0FBE6B
:1028F000CDBFDF91CF911F910F91FF90EF90BF90CF
:10290000AF909F908F900895695CDECFCF939091A8
:10291000EF069923A9F0C82F6091C3078091C007E3
:102920009091C1070E94F9024C2F50E070E060E0E6
:102930002AE08091C0079091C107CF910C943A147E
:10294000CF9108959091EF06911110C091E090936E
:10295000EF069093F606482F50E070E060E02AE022
:102960008091C0079091C1070C943A140895CF93B9
:10297000DF939091EF0691110EC0EB010E94A2141B
:102980008091EF06882319F0CE010E940003DF91A9
:10299000CF910C941C1480E0DF91CF9108950E9498
:1029A000ED026093C3047093C4048093C5049093B4
:1029B000C60468E670E085E00C94B7140F931F938B
:1029C000CF93DF9310926A02109278021092C204A1
:1029D00090918202E0918302F091840280E0981746
:1029E00021F0168A8F5F7796FACF1092820230918B
:1029F0008702A0918502B091860220E03217D1F0C3
:102A000019968C911997882391F01A96EC911A9740
:102A10008E2F90E0FC01EE0FFF1FE80FF91FE85624
:102A2000FB4F80818F7B808319961C9219972F5FB3
:102A30005796E4CF109287029091CB04E091C9049D
:102A4000F091CA0480E0981721F010828F5F3E96C3
:102A5000FACF1092CB0490915D02E0917E02F0914A
:102A60007F0280E0981731F02685211116868F5F4E
:102A70007296F8CF10925D021092670290916002F8
:102A8000E0918002F091810280E0981731F020857A
:102A9000211110868F5F3996F8CF109260029091C5
:102AA0007B02E0917902F0917A0280E0981721F0A0
:102AB00016828F5F3B96FACF10927B0210E006E001
:102AC00080916F021817A0F4C0916D02D0916E0230
:102AD000109FC00DD11D11248B8180FF07C062E0C3
:102AE0008A810E942F028B818E7F8B831F5FE8CFAC
:102AF00010926F021092BF041092BE041092C8048C
:102B000010922D0410922C046CE670E085E0DF91A9
:102B1000CF911F910F910C94B7146FE670E08FE086
:102B20000C94B71420912C0430912D04820F931F24
:102B300090932D0480932C04843A914040F066E7F2
:102B400071E085E00E94B71490E080E00895C9012B
:102B500088579D4F089581E08093C80462E770E034
:102B600081E10C94B714CF93DF930E9400108AE0A8
:102B70000E94A2148091BE049091BF04892B91F110
:102B80008BE390E00E946C13C82F8091EF0688239E
:102B900079F06091C3078091C0079091C1070E94AE
:102BA000F9026C2F8091C0079091C1070E94F90231
:102BB000C1E0D0E08091BE049091BF04C817D9074E
:102BC00088F4CE01CB960E946C139091EF06992366
:102BD00039F0682F8091C0079091C1070E94F902D7
:102BE0002196E8CFDF91CF910C941C14CF93DF9303
:102BF0002091EF062223A1F0EC016091C3078091A0
:102C0000C0079091C1070E94F902209749F0BE01C8
:102C10008091C0079091C107DF91CF910C940D1462
:102C2000DF91CF9108950F931F93CF93DF93C82F18
:102C3000D62F8A018DE10E94A214C8010E94F615C8
:102C40008D2F0E9486148C2F0E948614DF91CF91C5
:102C50001F910F910C941C140F931F93CF93C82FA7
:102C60008B0186E00E94A214C8010E94F6158C2FE9
:102C70000E948614CF911F910F910C941C140F93F6
:102C80001F93CF93DF93C82FD62F8A018EE10E9426
:102C9000A214C8010E94F6158D2F0E9486148C2F55
:102CA0000E948614DF91CF911F910F910C941C14F8
:102CB0000F931F93CF93C82F8B0187E00E94A2141C
:102CC000C8010E94F6158C2F0E948614CF911F9187
:102CD0000F910C941C14CF92DF92EF92FF92CF933E
:102CE000DF936C01EB018CE10E94A214CE010E94E3
:102CF000F6158091EF06882321F16091C30780913A
:102D0000C0079091C1070E94F902C091C007D091FD
:102D1000C1070D2C000CEE08FF082AE0B701A60140
:102D2000F7FE0CC06DE2CE010E94F9024427552740
:102D3000BA014C195D096E097F092AE0CE010E9493
:102D40003A14DF91CF91FF90EF90DF90CF900C94E9
:102D50001C14CF93DF93EC0185E00E94A214CE01F6
:102D60000E94F6158091EF06882321F085E790E018
:102D70000E940003DF91CF910C941C14FB01019081
:102D80000020E9F73197AF01461B570BDC01ED91AD
:102D9000FC910284F385E02D0994CF92DF92EF92AB
:102DA000FF920F931F93CF93DF938C01EB01FC01F4
:102DB000D0886D2D70E0FE0101900020E9F7CF0171
:102DC00001978C1B9D0B86179707B0F4681B790B36
:102DD00076956795D82EC8010E945706CC2EEC2E0A
:102DE000FD2E8E2D8C198D1548F4F70161917F0110
:102DF000C8010E94A006F5CF60E0EDCFDF91CF9132
:102E00001F910F91FF90EF90DF90CF90089585ED87
:102E10008093BC008091190590911A05A0911B0523
:102E2000B0911C050796A11DB11D23E0B695A7958D
:102E3000979587952A95D1F72091BC0024FD03C072
:102E40001092170508954091190550911A05609147
:102E50001B0570911C05452B462B472B69F30097EA
:102E6000A105B10541F025E32A95F1F7000001978E
:102E7000A109B109E1CF809118050C9482044F9209
:102E80005F926F927F928F929F92AF92BF92CF92FA
:102E9000DF92EF92FF92CF93DF93EC016A017B0107
:102EA00020E030E0A901CB01B6010E940F2D87FF81
:102EB00004C0F7FAF094F7F8F0948C8C9D8CAE8CEB
:102EC000BF8CA7019601C501B4010E940F2D882374
:102ED00009F449C06CA97DA98EA99FA90E94162D4D
:102EE0002B013C01A7019601C501B4010E944F2F9F
:102EF0009B01AC01C301B2010E94752D0E94C12F3C
:102F00006CAB7DAB8EAB9FABA701960160E070E030
:102F100080E090E40E944F2F0E94023026E53EE0C0
:102F20004DE25FE30E94752D20E034E244E759E46E
:102F30000E94752D68AF79AF8AAF9BAFCC8EDD8EC6
:102F4000EE8EFF8ECE01DF91CF91FF90EF90DF905C
:102F5000CF90BF90AF909F908F907F906F905F9039
:102F60004F900C942709DF91CF91FF90EF90DF9065
:102F7000CF90BF90AF909F908F907F906F905F9019
:102F80004F900895EF920F93CF93DF93EC018AE86F
:102F900091E0998388836B831C861D861E861F861D
:102FA000188A198A1A8A1B8A1C8A1D8A1E8A1F8AF5
:102FB00080E090E0A0E8BFE3888F998FAA8FBB8F55
:102FC0001C8E1D8E1E8E1F8E88A399A3AAA3BBA341
:102FD0001CA21DA21EA21FA261E070E07DA76CA72B
:102FE0003FEF3FA718A619A61AA61BA64C832D8350
:102FF0000E83EF821EA61CAA1DAA1EAA1FAA18AE27
:1030000019AE1AAE1BAE1CAE1DAE1EAE1FAEFE013B
:10301000E05CFF4F80839183A283B3831A8218867A
:1030200019861A861B86CE010E94140740E050E0E4
:1030300060E87FE3CE01DF91CF910F91EF900C9488
:103040003F17CF92DF92EF92FF920F931F93CF9390
:10305000DF930E94B711D82F0E94B7117C010E9404
:10306000B7118C018091CB04D817C0F58091C904A9
:103070009091CA049C014EE0D49F200D311D112473
:10308000E9018881882359F0B70190E080E00E942F
:10309000142DAB01BC018A819B810E94790A888131
:1030A0008823E1F0B80190E080E00E94142D6B01CC
:1030B0007C0120E030E0A9010E940F2D882371F0EF
:1030C000B701A6018A819B81DF91CF911F910F915A
:1030D000FF90EF90DF90CF900C943F17DF91CF914E
:1030E0001F910F91FF90EF90DF90CF9008958F92F6
:1030F0009F92AF92BF92CF92DF92EF92FF92CF93C7
:10310000DF930E94B711D82FC82F0E944B0188234C
:1031100009F496C081E08093B9078093BA07809143
:10312000BB079091BC070E949F2C6B017C01809192
:10313000CB04C81708F08AC08091C9049091CA04D2
:103140009C014EE0D49F200D311D1124E90188819E
:10315000882309F469C019828E819F81A885B98569
:10316000C816D906EA06FB0609F45EC08A819B816F
:10317000DC011C968D909D90AD90BC901F972B8587
:10318000222351F02D85222339F0ED91FC9102800C
:10319000F381E02D09951D868C85882379F0C8146C
:1031A000D904EA04FB0454F48E819F81A885B98573
:1031B000C816D906EA06FB060CF41C868C8581111C
:1031C00010C08C149D04AE04BF045CF48E819F81FA
:1031D000A885B9858C159D05AE05BF0514F481E061
:1031E0008C878A819B814A852C85429FA00111246E
:1031F000052E000C660B770B4C0D5D1D6E1D7F1DA3
:10320000FC0180889188A288B388481559056A0511
:103210007B0531F0408B518B628B738B0E942709A9
:10322000CE82DF82E886F986DF91CF91FF90EF9022
:10323000DF90CF90BF90AF909F908F900C94001034
:103240001092BA07C12CD12C760171CFDF91CF91AA
:10325000FF90EF90DF90CF90BF90AF909F908F90B6
:103260000895BF92CF92DF92EF92FF920F931F9338
:10327000CF93DF93EC01E62EC42ED22EFC88FF0CF8
:103280000F2D10E0A80170E060E004960E94573016
:10329000EE2DEE0FEC0FFD2FF11DC582D48260E004
:1032A0008B810E9401020C5F1F4F0C0F1D1FFF201E
:1032B000E1F0F801B2908F0188E0C82ED12C90E89F
:1032C000E92E6B2D6E2189810E94010261E08A81C5
:1032D0000E94010260E08A810E940102E694F1E00E
:1032E000CF1AD10871F7FA94E2CF61E08B81DF91B8
:1032F000CF911F910F91FF90EF90DF90CF90BF90F3
:103300000C9401028F929F92AF92BF92CF92DF9264
:10331000EF92FF920F931F93CF93DF930E94B71109
:10332000EC010E94B711882E0E949C015C010E9452
:10333000B7116C010E94B71147E14C9F90014D9F5E
:10334000300D11240091830210918402020F131F8B
:10335000F8012689222309F43CC0C7E0D0E0912C73
:103360007C01FF24DD246C2F4C2F4F5FC7010C2EF6
:1033700002C0959587950A94E2F780FF28C0F8016E
:10338000A4898A1618F5F501E90DF11D808187FDE4
:1033900080E296010C2E02C0359527950A94E2F73B
:1033A00020FD8068F8019081992311F06A1770F46C
:1033B000E82FEF77F0E0EA50FF4F2491911117C00A
:1033C00087FD2068682DC8010E94311993942197C8
:1033D00050F6DF91CF911F910F91FF90EF90DF900A
:1033E000CF90BF90AF909F908F900C940010220FC1
:1033F00087FD2160A150BB0BAC1BBD0BA00FB11F03
:1034000014962C9341E0C8010E94970CDFCF1F93C4
:10341000CF93DF93DC012C9121110CC054962C9199
:10342000621700F521E024274CE0DF91CF911F9136
:103430000C9431195596EC91F0E0F595E7951E2F17
:10344000411101C01860EC010E94900C60E8610F0E
:1034500040E0CE010E941F0CCE01DF91CF911F9161
:103460000C94790CDF91CF911F9108950F931F93C6
:10347000CF93DF93FC0126892223C1F16217B0F5B7
:10348000442391F12FEF240F203108F02FE0D62FA5
:103490008C01FC01258B8081811110C08489681703
:1034A00020F44AE0C8010E94311940E06D2FC801A4
:1034B000DF91CF911F910F910C94071AC0E041301A
:1034C00031F02695423009F421E0C22FC860C801CE
:1034D0000E94900C60E86C0F40E0C8010E941F0C35
:1034E000C8010E94790CE1CF41E0E2CFDF91CF919A
:1034F0001F910F9108950F931F93CF930E94B711BF
:103500008C010E94B711C82F0E94B71197E1909FBC
:103510009001919F300D1124E0918302F09184027B
:10352000482F6C2FCF01820F931F0E94361ACF9124
:103530001F910F910C9400100C947B1AEF92FF9244
:103540000F931F93CF93DF93F82EC0E087E1E82E0F
:1035500080918202C817B0F4009183021091840216
:10356000CE9D000D111D1124D0E0F80186898D1724
:1035700039F04F2D6D2FC8010E94071ADF5FF5CF7C
:10358000CF5FE6CFDF91CF911F910F91FF90EF902A
:1035900008950F931F93CF93DF93EC01062F1881AB
:1035A0004C89111110C0641748F41F5F20E0412FAF
:1035B000602FCE010E9431191830B9F7DF91CF91F9
:1035C0001F910F91089550E070E060E004960E9412
:1035D00057304C896FEF640FCE01DF91CF911F916F
:1035E0000F910C94970C2F923F924F925F926F9293
:1035F0007F928F929F92AF92BF92CF92DF92EF9283
:10360000FF920F931F93CF93DF93CDB7DEB7A597AC
:103610000FB6F894DEBF0FBECDBF8091BE0490916F
:10362000BF04892B09F47DC71BE3E12EF12CF9A21D
:10363000E8A21BA21AA2CE0180960E94C813082FEE
:10364000882309F46EC7FF8EEE8ECE014E960E943F
:10365000C8139E012F5F3F4F3DA32CA392E1D901D8
:103660001D929A95E9F78823D9F0E1E0F0E0EC0F9C
:10367000FD1FE80FF11D80818F5F8083CE014E9684
:103680000E94A513182FCE014E960E94C8138823BE
:1036900029F11111EACF6CE870E085E00E94B714BF
:1036A0007BE4272E76E4372EEFEFE00FE03108F0D1
:1036B00044C2F0E0E25AF44E0C94DC2E2F1D921F0F
:1036C0007A1DA21D711E4E1F0620921F711E4221DF
:1036D0000F21A4219D1D0C22711EA21D1123D9F2C0
:1036E0001A81B4E01B9F70011124C7010E94200BB6
:1036F00081115BC187EC91E00E94A9161C81E12E2B
:10370000F12CEE0CFF1CC7010E94200B882309F44A
:103710006FC1C7010E9492156C01892B71F081E085
:10372000D6018C9311961C9261E00E942F02F60143
:10373000618170E080810E946B02D092C104C092CE
:10374000C004109357021D81F988212F2F0D3327B4
:10375000331FC90127E1289F6001299FD00C112444
:10376000C6010E94200B882309F447C1C6010E94AC
:103770009215FC01892B49F08FEF8083818382832E
:103780008383148A8FE0858B168AF0938402E093FA
:1037900083021F0D10935802E8888E814E2D480F2A
:1037A0005527551FEA84E40EF52EF11C8EE08E9D00
:1037B00060018F9DD00C1124C6010E94200B88232C
:1037C00009F420C1C6010E949215009711F0DC0196
:1037D0001C929093CA048093C904E09259021F81FD
:1037E000B7E11B9F70011124C7010E94200B8823A1
:1037F00009F412C1C7010E9492150097B9F02091F7
:10380000BC042C3008F003C131E0320F3093BC040B
:10381000FC01228730E0F901EE0FFF1FE20FF31FDA
:10382000E856FB4F28EB3BE03283218390938602DE
:103830008093850210935A021985FB80E12FEF0DCA
:10384000FF27FF1F2FE12E9F60012F9FD00C112417
:10385000C6010E94200B882309F4E3C0C6010E9420
:103860009215009719F0DC0112961C929093770242
:10387000809376021F0D10935B021885B2E11B9FA7
:1038800070011124C7010E94200B882309F4CEC0C7
:10389000C7010E949215FC01892B41F0138212820C
:1038A00084E691E09183808311861686F0937F02EF
:1038B000E0937E0210935C021C85EDE11E9F700177
:1038C0001124C7010E94200B882309F4B4C0C7014A
:1038D0000E9492157C01009731F022E049EF51E0FF
:1038E00061E00E94980FF0926602E09265021093E8
:1038F0005E021B85F9E01F9F70011124C7010E9421
:10390000200B882309F49CC0C7010E9492150097E0
:1039100019F0DC0118961C9290938102809380022A
:1039200010935F021D85BBE01B9F70011124C7012E
:103930000E94200B882309F488C0C7010E949215B9
:10394000FC01892B49F01682178210861186128697
:103950008DE192E091838083F0937A02E093790283
:10396000109361021F85E6E01E9F70011124C701BC
:103970000E94200B882309F46DC0C7010E94921594
:10398000FC01892B59F010927302109272028AE2A4
:1039900092E091838083138215821482F0936E02E9
:1039A000E0936D02109362027BCEC7010E949215D4
:1039B0006C01892BB1F081E0F601828387EC91E004
:1039C0009183808362E081E00E942F02D6011296EB
:1039D0008C910E94D80121E0892B09F420E0F601A6
:1039E0002383D0926902C09268021093560286CE59
:1039F0008EEC91E00E94A916A6CE85ED91E00E9482
:103A0000A916CACE8EED91E00E94A916E8CE2FEF3E
:103A1000DC011A962C930ACF86EE91E00E94A9163B
:103A20000BCF8CEE91E00E94A91627CF85EF91E095
:103A30000E94A91641CF86E092E00E94A91659CFB4
:103A40008FE092E00E94A9166DCF8DE192E00E9476
:103A5000A91688CF83E392E00E94A91621CECE0159
:103A600080960E94C813D82EF0906A028091560268
:103A7000F81631F10AA11BA162E08D2D0E942F02E0
:103A80008D2D0E94D801F4E0FF9E90011124E09159
:103A90006802F0916902E20FF31F0F5B1A4F118366
:103AA0000083D28221E0892B09F420E0238388E57A
:103AB00096E190936C0280936B02F394F0926A0209
:103AC000BE016E5D7F4FCE0180960E947713182F46
:103AD000CE0180960E94C813082F882309F41EC5C2
:103AE0001111E2CD10921C066CEC70E085E00E9492
:103AF000B71417C5CE0180960E94C813082F1091E5
:103B0000C204809157021817C1F061E0802F0E9413
:103B10002F0270E060E0802F0E946B02812F90E006
:103B2000880F991FE091C004F091C104E80FF91FBC
:103B3000008311821F5F1093C204CE0180960E9401
:103B4000A513C5CFB12C003129F4CE0180960E9477
:103B5000C813B82ECE0180960E94C813982ECE01AD
:103B600080960E94C813782ECE0180960E94C813BA
:103B7000A82ECE0180960E94C813882ECE01809672
:103B80000E94C813082FF090820280915802F81604
:103B9000A1F21B2DC0908302D090840227E1F29EF7
:103BA000C00CD11C1124D60154961C9254978FE05E
:103BB00055968C93559756961C925697BC92119693
:103BC0009C9211971296AC92129713967C92B11018
:103BD00045C0802F093008F088E0F601848B61E051
:103BE000892D0E942F0261E0D60112968C910E94CD
:103BF0002F0261E0F60183810E942F0261E0D6016D
:103C000013968C910E940102F6018489181708F01E
:103C10004CC020E04FE0612FC6010E943119D6014F
:103C20008C9181110AC054968C91181730F427E0BA
:103C30004BE0612FC6010E94311920E049E0612F5D
:103C4000C6010E943119612FC6010E94C91A41E0C4
:103C5000612FC6010E94071A1F5FD6CFBDEF84E017
:103C6000BB1286E0F601848B62E08A2D0E942F024F
:103C700062E0D60111968C910E942F0260E0F6015D
:103C800082810E94010260E0D60111968C910E940F
:103C9000010260E0C6010E94C91A8FE0F601858B1F
:103CA00041E060E0C6010E94071AD60156960C93C7
:103CB00010E0F6018689181780F4482D612FC6019F
:103CC0000E94361A40E0612FC6010E94071A612F38
:103CD000C6010E94C91A1F5FECCFF394F0928202D2
:103CE0002CCFCE0180960E94C813F82ECE0180966C
:103CF0000E94C813D82ECE0180960E94C813E82EC9
:103D0000CE0180960E94C813A82E093021F010E041
:103D10000F3009F047C0CE0180960E94C813182FBB
:103D20000F3009F03FC0CE0180960E94C813082FC3
:103D3000CE0180960E94C813B82ECE0180960E94B4
:103D4000C813C82E8091CB0490915902891709F4A9
:103D5000F4CE6090C9047090CA04FEE08F9F600C9E
:103D6000711C1124D3011C9284E490E00E94200B6A
:103D700081111CC06BEA70E085E00E94B7140091CD
:103D8000CB04112359F08091C9049091CA04FEE03C
:103D90000F9F800D911D11240E942C0B0F5F00932B
:103DA000CB04CBCEC12CB12C00E0CCCF013009F438
:103DB0005AC0023009F464C00111E1CF84E490E0FC
:103DC000FE103FC0DA103DC00E9492154C01892BB5
:103DD00049F055E0E52E04E02D2D4F2D61E0C401A2
:103DE0000E94C217F3019382828240E050E068ECA7
:103DF00073E4F301828193810E94790A40E050E0EC
:103E000068E474E4D30112968D919C910E943F174F
:103E1000F301148381E08583112321F062E0812F77
:103E20000E942F02D3011A96BC9281E0C11001C0FA
:103E300080E0F301838781E0808311828587848716
:103E40009ECF0E9492154C01892B39F00F2D2D2DFC
:103E50004A2D64E0C4010E94C217D30113969C92BC
:103E60008E921297C2CF84E490E00E9492154C018A
:103E7000892B09F4B7CF0F2D2D2D4A2D68E0AFCF38
:103E800084E490E00E9492154C01892B31F345E0C7
:103E9000E42E04E02D2D4F2D61E0DCCFCE01809685
:103EA0000E94C8139091870220915A02921709F438
:103EB00044CE2091BC042C3098F531E0320F309381
:103EC000BC04422F50E0FA01EE0FFF1FE40FF51F74
:103ED000E856FB4F48EB5BE052834183E09185025B
:103EE000F091860237E1939FE00DF11D11242287A6
:103EF0001186158616861786108A118A128A138AE9
:103F0000148A1282118224EB30E0348323831682D8
:103F100015823087278380839F5F909387020DCE21
:103F20002FEFDCCFCE0180960E94C813D82ECE0191
:103F300080960E94C813C82E80E0083021F4CE017C
:103F400080960E94C813F090780290915B02F91657
:103F500009F4B6CD2AA13BA1009176021091770217
:103F60004FE1F49E000D111D1124D80112961C92F0
:103F7000129716961C921E9215972F5B3A4F149625
:103F80003C932E931397DC921196CC92119795E067
:103F9000989FF0011124E95BFE4F199601900D9254
:103FA0009A95E1F762E08D2D0E942F0262E0F80100
:103FB00081810E942F02D8011E961C921E97509656
:103FC0001C921E921F9752961C921E925197189601
:103FD0001C921897F801178A108E118E128E24EFFA
:103FE00031E040E050E053962D933D934D935C9328
:103FF000569781E012968C938CE296E1909375022D
:1040000080937402F394F09278025ACDCE01809698
:104010000E94C813082FCE0180960E94C813182F43
:10402000CE0180960E94C81390915D0220915C029F
:10403000921709F482CDC0907E02D0907F02B2E147
:104040009B9FC00CD11C1124F60113821282158291
:1040500016821782108611860787108B818B91E05C
:1040600096870483128783871486158610924F04DF
:1040700010924E0410921E05109240050E94640496
:1040800026E935E0309372042093710447E955E046
:104090005093760440937504D60115961C9215979B
:1040A0001B968C911B97823018F098E015969C9384
:1040B000F6019485992329F0813019F48581846073
:1040C00085830E94C8024B015C0182E3482E512C7B
:1040D000612C712C0E94C802681979098A099B0910
:1040E000683E734081059105A8F3F1E04F1A51082D
:1040F0006108710828EE820E23E0921EA11CB11CFB
:10410000411451046104710429F7D6011D966C9184
:10411000C6010E94A60660E3C6010E94A606C10170
:104120000197F1F760E3C6010E94A606C10101975D
:10413000F1F760E3C6010E94A60683E592E00197CD
:10414000F1F760E2C6010E94A606F6016581606291
:1041500040E0C6010E942E0684E0D60116968C939C
:1041600040E06CE0C6010E942E06C6010E9488064F
:1041700082E0F601878340E066E0C6010E942E06D9
:1041800040E062E0C6010E942E068BE39FE10197AA
:10419000F1F788E0D6011D968C931D9714968C91AB
:1041A00091E090931D0580933F0510921E0510929B
:1041B000400568E08DE196E00E94EF050E949305BE
:1041C0008CE08093B800F6018685882301F1C60152
:1041D0000E948806D60151961C911330F0F0169576
:1041E0001150412F6CE372E0C6010E94CD16F6011A
:1041F0008189823038F041E0410F67E472E0C60106
:104200000E94CD1640E060E0C6010E9457068091F2
:104210005D028F5F80935D0290CC10E0E2CFCE0113
:1042200080960E94C813082FCE0180960E94C81362
:104230001091670290915E02191709F441CC4AA1CE
:104240005BA14F5B5A4F282F602FCE0101960E9431
:10425000980F8DE1A0916502B0916602189FA00DA4
:10426000B11D1124FE01319601900D928A95E1F75E
:104270002BE636E130936402209363021F5F1093B4
:1042800067021ECCCE0180960E94C813082FCE0173
:1042900080960E94C813B82ECE0180960E94C81343
:1042A000F82ECE0180960E94C81310916002909162
:1042B0005F02191709F441CCC0908002D0908102AE
:1042C00039E0139FC00CD11C112491E0D60118963F
:1042D0009C9318970C931196BC9211971296FC928E
:1042E000129713968C9361E0802F0E942F0261E059
:1042F000F60181810E942F0261E0D60112968C9115
:104300000E942F02F60193815601F4E0AF0EB11C1A
:10431000F50180E0981719F011928F5FFBCFC6016D
:104320000E940B10D60113969C9180E0981729F0FB
:10433000F50111925F018F5FF9CFC6010E940B104A
:104340001F5F10936002F9CBCE0180960E94C813C4
:10435000F82ECE0180960E94C813C82ECE018096FA
:104360000E94C813D82ECE0180960E94C813409197
:104370007B0290916102491709F4A2CB2AA13BA1CB
:10438000188619861A861B869BE000917902109187
:104390007A02499F000D111D11244DE152E05A830C
:1043A00049831F82FE013196D80101900D929A95A2
:1043B000E1F7D8011296FC9212971396CC921397BC
:1043C0001496DC9214972F5B3A4F11963C932E93E0
:1043D00015968C9361E08F2D0E942F0261E0F80109
:1043E00083810E942F0260E0D80114968C910E9474
:1043F0002F0281E0F801868360E0C8010E944B1023
:1044000023E136E130937D0220937C0280917B0290
:104410008F5F80937B0254CBCE0180960E94C8139D
:10442000F82ECE0180960E94C813D82ECE01809619
:104430000E94C813082FCE0180960E94C813182F1F
:10444000CE0180960E94C813D092290600932A06B6
:1044500010932B0680932C0610922D0609E216E08D
:1044600061E0D8018D918D010E942F02EDE2F6E00E
:10447000E017F107A9F780912D06816080932D0642
:1044800060E089E296E00E94F60CCE0180960E94E0
:10449000C81390916F0220916202921709F410CB19
:1044A0002AA13BA149E256E0509373024093720265
:1044B00000916D0210916E0256E0959F000D111D46
:1044C00011242F5B3A4FD80111963C932E931396EB
:1044D0001C92139715961C921E9214971296FC929A
:1044E0001297813019F482E013968C9362E08F2D3D
:1044F0000E942F02F80183818160838360E0C801FC
:104500000E94740E2FE336E1309371022093700203
:1045100080916F028F5F80936F02D2CA112309F4DA
:10452000E1CAA5960FB6F894DEBF0FBECDBFDF91EE
:10453000CF911F910F91FF90EF90DF90CF90BF90A0
:10454000AF909F908F907F906F905F904F903F9033
:104550002F9008950E94F31A0C94AB15FF920F93BD
:104560001F93CF93DF930E94B711EC010E949C012F
:104570008C010E94B711F82E29E02C9FC0012D9FBD
:10458000900D1124C0918002D0918102C80FD91FD3
:104590008885882369F16EE472E0C8010E94C62C08
:1045A00001E010E0009709F10E94812C9885992381
:1045B00091F0982F9770980101C0220F9A95EAF711
:1045C000869586958695FE01E80FF11D8481FF2072
:1045D00049F0282B24836EE472E090E080E00E9492
:1045E000C62CE0CF20952823F5CFCE010E940B10DA
:1045F000DF91CF911F910F91FF900C940010FF92CB
:104600000F931F93CF93DF938C01EB01F8800E94EF
:10461000332EF81621F06F2DC8010E943B2ECE01DB
:10462000DF91CF911F910F91FF900895AF92BF92AC
:10463000CF92DF92EF92FF920F931F93CF93DF936E
:104640000E9400100E949C016C01EC010990002066
:10465000E9F72197C81BD90BDD27E090BE04F09045
:10466000BF04C70101968C0F9D1F8E31914008F049
:1046700053C05E018FEFA81AB80A2BE3E20EF11CBB
:1046800095012E0D3F1D80913006909131068217C5
:10469000930778F010E000E0B601600F711FC701CA
:1046A000800F911F0E94FF220F5F1F4F0A151B05ED
:1046B00098F34091BE045091BF04C40FD51FD0930E
:1046C000BF04C093BE048091EF06811147C085E00E
:1046D0000E94A2148091EF06882391F06091C30795
:1046E0008091C0079091C1070E94F902AE0170E06D
:1046F00060E02AE08091C0079091C1070E943A14BF
:10470000DF91CF911F910F91FF90EF90DF90CF90AD
:10471000BF90AF900C941C148091EF0681111EC0C5
:1047200085E00E94A2148091EF06882349F36091EE
:10473000C3078091C0079091C1070E94F902C09100
:10474000C007D091C1076DE2CE010E94F9022AE0B4
:1047500041E050E060E070E0CE01D0CFDF91CF913A
:104760001F910F91FF90EF90DF90CF90BF90AF908F
:104770000895CF93DF930E949C01FC0190E3ABE08E
:10478000B1E001900D929A95E1F7809130069091F9
:104790003106892B29F063E290E080E00E943B2EF5
:1047A0008091300690913106C09760F0D0E0C0E073
:1047B000BE01655F7E4F2196CE010E94FF22CF325F
:1047C000D105B1F78091EF0681110BC085E00E9401
:1047D000A2148BE091E00E94F615DF91CF910C942A
:1047E0001C14DF91CF910895CF93DF930E94ED02C7
:1047F000611571058105910511F00E94782C83E502
:10480000809300018EE4809301018DE28093020188
:104810008093060110920A010E94292C2FEF3FE09D
:1048200040E050E00E94492EE0E0F1E093E0862F66
:104830008F7020E3280F2A33D0F5238324E0769568
:1048400067952A95E1F7915031969111F0CF0E942A
:10485000292C2FEF3FE040E050E00E94492EE0E09D
:10486000F1E093E0862F8F7020E3280F2A3310F5B4
:10487000278384E0769567958A95E1F79150319684
:104880009111F0CF8091300690913106CB9760F076
:10489000C0E3D0E0BE0160537F4FCE010E94FF22F3
:1048A0002196CB33D105B1F7DF91CF910895885C84
:1048B0008383C4CF895C8783DCCF0E94F4238091FB
:1048C000EF06811109C08AE00E94A21480E091E005
:1048D0000E94F6150C941C1408950F931F93CF9308
:1048E000DF9380E390E00E946C138335C9F581E388
:1048F00090E00E946C138E3499F58091300690916F
:104900003106CB9770F000E011E0C0E3D0E0CE01BB
:104910000E94332EF80181938F012196CB33D1056C
:10492000B1F70E9400108AE00E94A2148091EF0665
:10493000882321F086EE90E00E9400038BE091E056
:104940000E94F61580E091E00E94F61580E592E065
:104950000E94F615DF91CF911F910F910C941C14BA
:104960000E94F4238091300690913106CC97C8F2D2
:1049700060E08BE390E00E943B2ED3CF1F920F921A
:104980000FB60F9211242F933F938F939F93AF9362
:10499000BF938091E9049091EA04A091EB04B09157
:1049A000EC043091E80423E0230F2D3758F50196ED
:1049B000A11DB11D2093E8048093E9049093EA04BB
:1049C000A093EB04B093EC048091ED049091EE047D
:1049D000A091EF04B091F0040196A11DB11D809348
:1049E000ED049093EE04A093EF04B093F004BF9114
:1049F000AF919F918F913F912F910F900FBE0F908C
:104A00001F90189526E8230F0296A11DB11DD2CF45
:104A10001F920F920FB60F9211242F933F934F9333
:104A20005F936F937F938F939F93AF93BF93EF9316
:104A3000FF9382E396E00E94AD03FF91EF91BF9157
:104A4000AF919F918F917F916F915F914F913F9126
:104A50002F910F900FBE0F901F9018951F920F92DD
:104A60000FB60F9211242F935F936F937F938F93C1
:104A70009F93AF93BF93EF93FF93E0914206F09122
:104A800043068081E0914806F091490682FD24C0EA
:104A9000208180914B0690E0019660E670E00E94D4
:104AA000C82E90914C06981741F0E0914B06F0E02B
:104AB000EE5CF94F258F80934B06FF91EF91BF91EC
:104AC000AF919F918F917F916F915F912F910F90F7
:104AD0000FBE0F901F9018958081EFCF1F920F92FD
:104AE0000FB60F9211242F933F934F935F936F93C1
:104AF0007F938F939F93AF93BF93CF93DF93EF9366
:104B0000FF938091BD04C091BC04D0E087FF24C016
:104B100010928500109284008091BD048F5F809375
:104B2000BD048091BD04082E000C990B8C179D07C5
:104B300024F48091BD048C30C4F180918400909164
:104B40008500049680349C4908F47AC080918400E2
:104B500090918500049676C08091BD04082E000CCB
:104B6000990B8C179D07C4F6E091BD048E2FEE0FB4
:104B7000990BFC01EE0FFF1FE80FF91FE856FB4FE2
:104B8000808186FFC9CFE091BD048E2FEE0F990B77
:104B9000FC01EE0FFF1FE80FF91FE856FB4F808165
:104BA00060E08F730E940102B7CF209184003091A2
:104BB0008500E091BD048E2FEE0F990BFC01EE0FE6
:104BC000FF1FE80FF91FE856FB4F81819281820F8A
:104BD000931F9093890080938800E091BD048E2FED
:104BE000EE0F990BFC01EE0FFF1FE80FF91FE856BF
:104BF000FB4F808186FF11C0E091BD048E2FEE0F28
:104C0000990BFC01EE0FFF1FE80FF91FE856FB4F51
:104C1000808161E08F730E940102FF91EF91DF912B
:104C2000CF91BF91AF919F918F917F916F915F9144
:104C30004F913F912F910F900FBE0F901F9018959D
:104C400080E49CE990938900809388008FEF8093A3
:104C5000BD04E3CF1F920F920FB60F9211242F9332
:104C60003F934F935F936F937F938F939F93AF93F4
:104C7000BF93EF93FF938091B900887F803609F44A
:104C80004AC0F0F5883209F4A7C018F5803109F45C
:104C90009BC0B8F4882309F4F9C0883009F494C0A3
:104CA000FF91EF91BF91AF919F918F917F916F9104
:104CB0005F914F913F912F910F900FBE0F901F90DA
:104CC0001895883109F488C0803251F78093150512
:104CD00014C0803409F49DC040F48033B9F38833A4
:104CE000F9F68093150585ECB0C0803509F485C0D0
:104CF000883509F496C0883499F60E940717D0CFFA
:104D0000883909F48CC038F5883729F050F4883692
:104D100011F0803729F683E08093170510929704ED
:104D200057C0883809F47BC0803919F0803809F001
:104D3000B7CF80919704803208F071C0E09197045A
:104D400081E08E0F809397048091BB00F0E0E958DA
:104D5000FB4F80833DC0803B39F0E0F4803A09F49A
:104D600079C0883A09F09CCF84E0809317051092AF
:104D7000740410927304E0917104F0917204099527
:104D80008091730481110FC081E0809373041092AD
:104D9000510409C0803C09F4A6CF883C09F4A3CF94
:104DA000883B09F07DCFE091740481E08E0F809301
:104DB0007404F0E0EF5AFB4F80818093BB00909128
:104DC00074048091730429C08091F2048093BB0025
:104DD00085EC8093BC0064CF9091140580911305FD
:104DE000981758F5E091140581E08E0F8093140513
:104DF000F0E0ED50FB4F8081E9CFE091140581E0B8
:104E00008E0F809314058091BB00F0E0ED50FB4FB6
:104E1000808390911405809113059817C8F285E856
:104E2000D8CFE091140581E08E0F80931405809116
:104E3000BB00F0E0ED50FB4F80838091160581119F
:104E40005CCF81E08093F10484EA8093BC001092EF
:104E5000170526CF85EC8093BC0010921705809132
:104E60009704803230F4E0919704F0E0E958FB4F6A
:104E700010826091970470E0E0917504F0917604DF
:104E800087E794E00995109297040ACF10921505D0
:104E900034CF109235061092340688EE93E0A0E0ED
:104EA000B0E08093360690933706A0933806B0930F
:104EB000390624EA31E0309333062093320625EC9C
:104EC00030E030933F0620933E0624EC30E03093F0
:104ED00041062093400620EC30E0309343062093B7
:104EE000420621EC30E0309345062093440622EC44
:104EF00030E0309347062093460626EC30E03093AE
:104F000049062093480610924B0610924C061092C8
:104F10004D0610924E061092200610921F068093A6
:104F2000210690932206A0932306B093240686EBD5
:104F300091E090931E0680931D0610922D068FEF30
:104F40008093290680932A0680932B0680932C0653
:104F500010923106109230061092C6071092C507C3
:104F600082E396E09093C1078093C0071092F70602
:104F70008CE28093C3078BE38093C2078FE2809318
:104F8000C40780E68093F2068FE58093F3061092C3
:104F9000F1061092BC071092BB071092BE07109248
:104FA000BD0781E08093B907E7ECF7E08DE098E07A
:104FB000119211928E179F07D9F71092F606089555
:104FC000789484B5826084BD84B5816084BD85B5E4
:104FD000826085BD85B5816085BD80916E008160F0
:104FE00080936E0010928100809181008260809396
:104FF0008100809181008160809381008091800098
:105000008160809380008091B10084608093B100C2
:105010008091B00081608093B00080917A008460BC
:1050200080937A0080917A00826080937A008091E8
:105030007A00816080937A0080917A008068809302
:105040007A001092C100E0914206F091430682E09E
:105050008083E0913E06F0913F061082E091400689
:10506000F091410680E1808310924A06E091460665
:10507000F091470686E08083E0914406F091450672
:10508000808180618083E0914406F09145068081B3
:1050900088608083E0914406F091450680818068B5
:1050A0008083E0914406F091450680818F7D808366
:1050B00080E094E090933106809330068FEC94E189
:1050C0009093C6078093C5078BE79AE19093C80732
:1050D0008093C70782E899E19093CA078093C90734
:1050E0008CE99AE19093FC078093FB078BEC91E1AC
:1050F0009093CC078093CB0787E798E19093CE07F6
:105100008093CD0788ED91E19093F2078093F107AA
:105110008EEE91E19093F4078093F30781E298E19A
:10512000909306088093050888E492E19093D00755
:105130008093CF078DE694E29093DA078093D907A6
:1051400083EB95E19093E0078093DF0786E193E29C
:105150009093DE078093DD078EED94E19093E20754
:105160008093E1078DE895E19093E4078093E3074E
:105170008AEA92E29093E8078093E70789EB93E24B
:105180009093EE078093ED078DE594E29093F007FE
:105190008093EF078BEC90E19093F6078093F507EF
:1051A00081E293E19093FA078093F9078EEA92E205
:1051B0009093FE078093FD0781E08093F7060E949D
:1051C000001090E080E00E946C1300913006109176
:1051D0003106833299F40033110580F0FBE0EF2EA5
:1051E000F1E0FF2ED0E0C0E02196CE010E94332EE8
:1051F000D7018D937D01CF32D105B1F71092BF0455
:105200001092BE048BE390E0EC0121960E946C1397
:10521000882309F40BC18091BE049091BF040196CC
:105220009093BF048093BE04CE010C171D0760F756
:105230006DE871E085E00E94B7140E94ED02609372
:10524000CC047093CD048093CE049093CF040E943D
:10525000ED026093D0047093D1048093D2049093B4
:10526000D3040E94ED026E5F7F4F8F4F9F4F60937C
:10527000D4047093D5048093D6049093D7040E94ED
:10528000ED026C5F7F4F8F4F9F4F6093D8047093F8
:10529000D9048093DA049093DB040E94ED026C5FE2
:1052A0007F4F8F4F9F4F6093DC047093DD0480939A
:1052B000DE049093DF040E94ED026A5F7F4F8F4F00
:1052C0009F4F6093E0047093E1048093E204909315
:1052D000E3040E94ED02685F7F4F8F4F9F4F609302
:1052E000E4047093E5048093E6049093E704442477
:1052F00043947EE0772EE0E0AE2EE0E0BE2E552413
:105300005394662463948091F6068111C9C08091FC
:10531000C0079091C107DC01ED91FC910084F185FB
:10532000E02D0995892B09F4BBC08091C0079091AD
:10533000C107DC01ED91FC910084F185E02D099518
:1053400060E6E62EF12C8036910564F48091C0076A
:105350009091C107DC01ED91FC910084F185E02D75
:1053600009957C01C091C007D091C10758E5852EF1
:1053700057E0952E640110E000E0E016F10609F018
:105380005AC0D0E0C0E0EC16FD0609F4BCCFF40131
:1053900091914F011092B8073091C4072091F50602
:1053A0009093F506931304C0921302C01092F50671
:1053B0008091F106E82FF0E04091C207E151F94FEA
:1053C00094135CC0321709F459C01186882321F068
:1053D0006092B8071092F5061092F1061092BC0781
:1053E0001092BB071092BE071092BD076092B907DA
:1053F0008091B807813009F051C00E94B7118093A5
:10540000F006833208F044C02091BA07222309F441
:105410003FC0FC01FF27EE0FFF1FE953F84F01903B
:10542000F081E02D3097A1F1099538C00E94F31A60
:105430000E94AB1502CF0E94ED02688779878A87A8
:105440009B87E881F9810284F385E02DCE010995DF
:1054500097FF88C10E94ED02288539854A855B85C2
:10546000621B730B840B950B2C813D814E815F81F8
:10547000621773078407950720F383CF91878F5FA7
:105480008093F1069091F306891708F0A5CFB0CF6D
:10549000E091C507F091C607309731F6219673CF9A
:1054A000C090C304D090C404E090C504F090C6043A
:1054B0008091C70481115CC10E94ED026C197D09C5
:1054C0008E099F09613A7B4B8D40910508F455C0C8
:1054D0005092C704C0E08091C204C81790F48C2F8A
:1054E00090E0880F991FE091C004F091C104E80F8B
:1054F000F91F118270E060E080810E946B02CF5F33
:10550000EACF81E00E949E1AC0E08091CB04C817C8
:10551000A0F5E091C904F091CA04C79DE00DF11D0A
:1055200011248081882349F082819381DC01ED91EF
:10553000FC910190F081E02D0995CF5FE6CF80E0EE
:105540000E949E1AC0E08091CB04C817B0F4E0918D
:10555000C904F091CA04C79DE00DF11D112480819A
:10556000882349F082819381DC01ED91FC910280D6
:10557000F381E02D0995CF5FE6CF8091C8048823A1
:1055800009F4E4C04AE06CEC74E08EE09FE00E9415
:10559000EB0A41E060ED74E082E29DE00E94EB0ADC
:1055A000912C8091CB04981608F0ADC0C091C9042D
:1055B000D091CA04979CC00DD11D112488818823E5
:1055C00009F49BC00A811B81F80184A195A1A6A1C1
:1055D000B7A1892B8A2B8B2B09F440C00E94C802EB
:1055E0006B017C01F80180A591A5A2A5B3A5B70127
:1055F000A601481B590B6A0B7B0B84A195A1A6A1A0
:10560000B7A1481759076A077B0728F18485958554
:10561000A685B7852281222309F471C00196A11DB8
:10562000B11D84879587A687B787D8011C964D91B1
:105630005D916D917C911F97ED91FC910680F781B2
:10564000E02DC8010995F801C0A6D1A6E2A6F3A6EF
:10565000C8010E9427098881882331F18C810E942A
:10566000D8019D81891701F18D8381111DC0888129
:105670008823D1F089818823B9F0EA81FB811486DF
:10568000158616861786108A118A128A138A14AA1A
:1056900015AA16AA17AA14A215A216A217A2148A4E
:1056A000158A168A178A19828A819B814A852C85D8
:1056B000429FA0011124052E000C660B770B0E8172
:1056C0001F8128853985400F511F621F731FDC0120
:1056D0001C960D911D912D913C911F9740175107DC
:1056E0006207730751F42B85222339F0ED91FC9169
:1056F0000190F081E02D09954D86939452CF01974A
:10570000A109B1098ECF45E064ED74E080E59BE02E
:105710000E94EB0A42E36CED74E081EC9FE00E9492
:10572000EB0A4AE068ED74E081E89FE00E94EB0A32
:105730004AE060EE74E083EB90E10E94EB0A4AE0FD
:1057400064EE74E084ED9EE00E94EB0AA114B104C3
:1057500009F4D9CD0E949903882309F4D4CD0E947D
:105760000000D1CDF60181936F010F5F1F4F05CE71
:105770000E94ED026C197D098E099F09603A7B4BEE
:105780008D40910508F0F9CE1092C704C0E08091D9
:10579000C204C81708F0D3CE8C2F90E0880F991F51
:1057A000E091C004F091C104E80FF91F618170E03D
:1057B00080810E946B02CF5FEACF8F929F92AF925F
:1057C000BF92CF92DF92EF92FF92CF93DF93EC01E3
:1057D000688179818A819B816115710581059105B7
:1057E00021F464E279ED8BE597E02DE133EF41E0C0
:1057F00050E00E94492E49015A019B01AC01A7EAE1
:10580000B1E40E94682E6B017C01ACEEB4EFA501FF
:1058100094010E94762EC60ED71EE81EF91EF7FED2
:1058200006C081E0C81AD108E10880E8F80AC882F9
:10583000D982EA82FB82C701B6019F77DF91CF91BF
:10584000FF90EF90DF90CF90BF90AF909F908F90A0
:1058500008958F929F92AF92BF92CF92DF92EF9274
:10586000FF9260913B0170913C0180913D019091CC
:105870003E01611571058105910521F464E279ED20
:105880008BE597E02DE133EF41E050E00E94492E97
:1058900049015A019B01AC01A7EAB1E40E94682EBC
:1058A0006B017C01ACEEB4EFA50194010E94762E51
:1058B000C60ED71EE81EF91EF7FE06C081E0C81A04
:1058C000D108E10880E8F80AC0923B01D0923C017F
:1058D000E0923D01F0923E01C701B6019F77FF9033
:1058E000EF90DF90CF90BF90AF909F908F900895F2
:1058F00060933B0170933C0180933D0190933E0186
:105900000895FC0188279927E89421912032E9F332
:10591000293010F02E30C8F32B3241F02D3239F4FB
:10592000689404C00E94072D820F911D219120537D
:105930002A30C0F31EF4909581959F4F08951F93D0
:10594000FC0199278827BC01E89411911032E9F3F2
:10595000193010F01E30C8F31B3251F01D3249F4DB
:10596000689406C00E94F22C610F711D811D911D6B
:10597000119110531A30B0F33EF4909580957095C4
:1059800061957F4F8F4F9F4F1F9108954DE058E0D5
:105990000E94CB2C0895FA01A191B081009719F4CF
:1059A0001097E1F0CD01DC01CD010D90002011F444
:1059B000C00113C0FB012191222319F02015D9F752
:1059C000F3CFFB012191201519F41E92119606C008
:1059D0002223C1F70D900020A1F7D001FA01A19375
:1059E000B0830895592F482F372F262F660F771F22
:1059F000881F991F660F771F881F991F620F731FDB
:105A0000841F951F660F771F881F991F08957AE0DE
:105A1000979F902D879F802D910D112408950E94AE
:105A2000512D08F481E00895E89409C097FB3EF4F5
:105A300090958095709561957F4F8F4F9F4F9923DB
:105A4000A9F0F92F96E9BB279395F6958795779559
:105A50006795B795F111F8CFFAF4BB0F11F460FF19
:105A60001BC06F5F7F4F8F4F9F4F16C0882311F071
:105A700096E911C0772321F09EE8872F762F05C085
:105A8000662371F096E8862F70E060E02AF09A9520
:105A9000660F771F881FDAF7880F9695879597F915
:105AA0000895990F0008550FAA0BE0E8FEEF1616AF
:105AB0001706E807F907C0F012161306E407F50702
:105AC00098F0621B730B840B950B39F40A2661F076
:105AD000232B242B252B21F408950A2609F4A14019
